:100000000C94DA020C94F7020C94F7020C94F702A9
:100010000C94F7020C94F7020C94F7020C94F7027C
:100020000C94F7020C94F7020C94301E0C94F41DFF
:100030000C943E1F0C94F7020C94F7020C94F702F8
:100040000C94F7020C94F7020C94F7020C94F7024C
:100050000C94F7020C94181F0C94F7020C94F702FE
:100060000C94F7020C94F7020C94F7020C94F7022C
:100070000C94F7020C94F7020C94F7020C94F7021C
:100080000C94F7020C94F7020C94F7020C94F7020C
:100090000C94F7020C94F7020C94F7020C94F702FC
:1000A0000C94F7020C94F7020C94F7020501090274
:1000B000A10185020901A1000509190129081500FE
:1000C0002501950875018102050109300931158165
:1000D000257F95027508810609381581257F9501D0
:1000E00075088106050C0A38021581257F95017572
:1000F000088106C0C005010980A101850319012AF4
:10010000B700150126B700950175108100C0050CD8
:100110000901A101850419012AA002150126A002E6
:10012000950175108100C005010906A1018506052C
:100130000719E029E71500250195087501810205D9
:1001400007190029EF1500250195F07501810205B9
:10015000081901290595057501910295017503910D
:1001600001C00660FF0961A1010962150026FF00B8
:100170009520750881020963150026FF00952075FA
:10018000089102C005010906A101050719E029E748
:1001900015002501950875018102950175088101F9
:1001A0000507190029FF150026FF0095067508812F
:1001B000000508190129051500250195057501910E
:1001C00002950175039101C00000000000000000CD
:1001D000000000000000000000000000000000001F
:1001E0000000000000000000000000007E0F00D4AE
:1001F000FFFFFFC7000000780000000000000000C3
:100200002A2B280000000000000000000000000071
:1002100000000029000000002C1E3420212224347C
:100220002627252E362D3738271E1F20212223244E
:1002300025263333362E37381F0405060708090AEA
:100240000B0C0D0E0F101112131415161718191A86
:100250001B1C1D2F3130232D350405060708090A04
:100260000B0C0D0E0F101112131415161718191A66
:100270001B1C1D2F3130354C1E0F0500047F3F1F06
:10028000643214643214783C1E1E140A0500010105
:100290000101010101010102020202020202020245
:1002A0000303030303030303040404040404040515
:1002B00005050505060606060607070707070808D9
:1002C0000808090909090A0A0A0B0B0B0C0C0C0D8A
:1002D0000D0D0E0E0E0F0F0F101011111112121323
:1002E000131414151516161717181819191A1A1B9E
:1002F0001B1C1D1D1E1E1F202021222223242425FD
:100300002626272829292A2B2C2D2D2E2F30313235
:1003100032333435363738393A3B3C3D3E3F404145
:1003200042434445464748494A4C4D4E4F5051532D
:1003300054555658595A5B5D5E5F616264656668E4
:10034000696B6C6D6F7072737577787A7B7D7E8068
:1003500082838587888A8C8E8F91939596989A9CB4
:100360009EA0A2A3A5A7A9ABADAFB1B3B5B7BABCC8
:10037000BEC0C2C4C6C9CBCDCFD1D4D6D8DBDDDF99
:10038000E2E4E7E9EBEEF0F3F5F8FAFDFFFFAA7F10
:1003900055402223252628292A2C2D2F303233356B
:1003A00036383A3B3D3E4042434547494A4C4E5021
:1003B00051535557595A5C5E6062646668696B6D4B
:1003C0006F71737577797B7D7F81838587898A8C4F
:1003D0008E90929496989A9C9E9FA1A3A5A7A8AA56
:1003E000ACAEAFB1B3B4B6B8B9BBBCBEBFC1C2C38B
:1003F000C5C6C7C9CACBCCCDCED0D1D2D2D3D4D525
:10040000D6D7D7D8D9D9DADADBDBDBDCDCDCDCDC4D
:10041000DDDDDDDDDCDCDCDCDCDBDBDBDADAD9D925
:10042000D8D7D7D6D5D4D3D2D2D1D0CECDCCCBCAB3
:10043000C9C7C6C5C3C2C1BFBEBCBBB9B8B6B4B3D9
:10044000B1AFAEACAAA8A7A5A3A19F9E9C9A98966F
:100450009492908E8C8A89878583817F7D7B797742
:100460007573716F6D6B6968666462605E5C5A5922
:1004700057555351504E4C4A4947454342403E3DE3
:100480003B3A3836353332302F2D2C2A2928262571
:10049000232224002500260025022100220023001B
:1004A00038001E001F0020002D0027002800370004
:1004B0002152007C01000100010001000100010047
:1004C0000100010001000100010001000100010024
:1004D0000100010001000100010001000100010014
:1004E0000100010001000100010001000100010004
:1004F00001000100010001000100010001000100F4
:1005000001000100010001000100010001000100E3
:10051000010009025B00030100A0FA0904000001C8
:100520000301010009211101000122440007058196
:100530000308000109040100020300000009211161
:1005400001000122220007058203200001070503A4
:100550000320000109040200010300000009211129
:1005600001000122B60007058403200001120100EA
:100570000200000008756F61010100010200011016
:1005800003530077006500650074003100360000F9
:10059000001C0331007500700020004B00650079DD
:1005A0000062006F006100720064007300000004CC
:1005B0000309040011241FBECFEFDAE0DEBFCDBF78
:1005C00011E0A0E0B1E0E4E2FFE402C005900D928A
:1005D000AC39B107D9F722E0ACE9B1E001C01D9216
:1005E000AD39B207E1F70E94671F0C9490270C9475
:1005F0000000482F209199029091600257E0291342
:1006000002C080E0089530E0529FF001539FF00D4A
:100610001124EF59FD4F8181681306C08081481372
:1006200003C085818111EECF2F5F3F4F2770E7CF49
:10063000E8EDF0E080818E7F80831092E2001092DE
:10064000DA001092E100A0EEB0E08C9181608C9312
:1006500080818F77808319BCA7EDB0E08C918E7F6D
:100660008C9380818F7E808310924B02089520911D
:10067000E4003091E50085E69091EC0090FF06C023
:100680009091E80090FF06C080E008959091E80006
:1006900092FDFACF90915602992391F0953091F006
:1006A0009091EB0095FD10C04091E4005091E50061
:1006B0002417350709F381509A01F1F684E0089573
:1006C00082E0089583E0089581E0089580915802C2
:1006D00087FF13C08091E80082FF06C08091E80088
:1006E0008B778093E80004C0809156028111F2CF8D
:1006F0000895809156028823D9F38091E80080FF05
:10070000F8CF8091E8008E77ECCF982F9093E90096
:10071000242F762F50E0891731F07091EC00209152
:10072000ED005091F00021FD07C09F5F973071F7F9
:100730008093E90081E008953091EB003E7F309393
:10074000EB003091ED003D7F3093ED003091EB00F8
:1007500031603093EB007093EC002093ED005093E8
:10076000F0002091EE0027FDE0CF80E00895B0E09A
:10077000A0E0EDEBF3E00C941327C8EDD0E0888106
:100780008F7E8883E7EDF0E080818160808384E064
:1007900082BF81E080934B0288818E7F888302EE46
:1007A00010E0F80110821092DA0081EEC82ED12CF0
:1007B000F601108288818F7788838881806888839A
:1007C00088818F7D888319BC10925602109257023F
:1007D000109255021092540290EEE92EF12CF7017E
:1007E00080818B7F808388818160888342E060E0A4
:1007F00080E00E948503F60180818E7F8083F8016E
:10080000808181608083808188608083F70180811E
:100810008E7F8083888180618883CDB7DEB7E8E0F2
:100820000C942F27FC0180915E0290915F02861745
:100830009707A0F06115710529F49091E8009E7763
:100840009093E80090E06115710551F4911108C092
:100850008091E80082FF35C080E00895BC01F2CFAE
:10086000809156028823C9F18530C9F18091E80052
:1008700083FD31C08091E80082FDEACF8091E800DD
:1008800080FFE1CF2091F3008091F200322F282FDA
:100890006115710519F02830310558F091E02830C4
:1008A000310509F090E02091E8002E772093E800D0
:1008B000CACF81918093F100615071092F5F3F4F42
:1008C000E7CF80915602882341F0853041F0809136
:1008D000E80083FFBDCF81E0089582E0089583E0C2
:1008E000089587E797E7909301088093000888E1CF
:1008F0009AE00FB6F894A895809360000FBE90938D
:100900006000FFCF2FB7F894809147029091480282
:10091000A0914902B0914A022FBF089580911D0114
:10092000089590911E019130D1F49091440297FF67
:1009300016C0E82FE695E695E695EE31D8F4F0E09E
:10094000EA55FE4F282F277081E090E001C0880F04
:100950002A95EAF780959281892382830895EEE9AA
:10096000F1E09281891301C01282319691E0E43A5C
:10097000F907B9F7089590911E019130C1F4909153
:10098000440297FF14C0E82FE695E695E695EE3110
:10099000F8F4F0E0EA55FE4F877021E030E001C046
:1009A000220F8A95EAF78281822B82830895A0EA3A
:1009B000B1E0EFEF90E02D91821751F0EF3F19F485
:1009C000211101C0E92F9F5F9630A9F7EF3F09F48D
:1009D00008950E2E000CFF0BE256FE4FE6CFA3E06B
:1009E000B0E0E5EFF4E00C94192720914202309139
:1009F000430228173907A1F09093430280934202E3
:100A0000E0914002F0914102309751F024E02983B7
:100A10009B838A830084F185E02DCE0101960995A0
:100A20002396E2E00C943527A3E0B0E0EAE1F5E09C
:100A30000C94192720913E0230913F022817390764
:100A4000A1F090933F0280933E02E0914002F0912A
:100A50004102309751F023E029839B838A830084ED
:100A6000F185E02DCE01019609952396E2E00C94E4
:100A70003527E0914002F0914102309729F0019032
:100A8000F081E02D0995089580E008950E94820488
:100A900020913A02211104C020913B02222321F02F
:100AA000909337028093360220913C02211104C0BA
:100AB00020913D02222321F090933502809334024D
:100AC000E0914002F0914102309749F082E080933A
:100AD00038020680F781E02D88E392E009950895B9
:100AE0008091330280FD16C081FD16C082FD16C0C4
:100AF000809132028823A1F0883280F428E0829F1E
:100B0000C001112468E270E00E94D926862F672B6D
:100B100039F0089582E0089584E0089588E008950A
:100B200081E008958091330280FD14C081FD14C0DE
:100B300082FD16C080913102882381F08E3180F4CD
:100B400020E5829FC00111246EE170E00E94D92649
:100B5000862F089584E1089588E2089588E0089535
:100B600080E50895282F35EB2303C001112497FF5A
:100B700004C080589109892F089580589F4FFBCF5A
:100B8000FC01EE0FFF1FE80FF91FE25DFD4F6183CF
:100B9000408322830895219A089508958091260222
:100BA00080FD07C020E040E060E090E080E00E942F
:100BB000C0050E946E0C08959091260290FF09C016
:100BC000242F462F682F90E080E00E94C0050E94ED
:100BD000CE050895CF93DF93EC01409129029C81CB
:100BE00080E090FD842F60E091FD642F92FF40E053
:100BF0000E94DC058C8190E00196877099278C8398
:100C0000DF91CF91089580912602982F9C7F29F43F
:100C1000837084608093260208958C3AE8F3837091
:100C2000886AF8CFB0E0A0E0E8E1F6E00C94112784
:100C3000362F472FE82FF0E0E357FD4F71110AC020
:100C4000E4918E2F2E2F6E2F722FCDB7DEB7EAE0F4
:100C50000C942D27C72FD0E02491F22FE22EF12CF7
:100C600056E0659FC00111240FEF10E0B8010E940B
:100C7000C526832F90E0880F991F35E5369FD00158
:100C8000379FB00D11248A1B9B0B982F990F980F3B
:100C90006801CC1ADD0ACE9CD001CF9CB00DDE9C41
:100CA000B00D11248B2F499FA0011124452F5527EA
:100CB0006801C41AD50ACE9CA001CF9C500DDE9CC1
:100CC000500D1124E52F5801A91AB108AC9E6001FE
:100CD000AD9ED00CBC9ED00C1124CD2CDD240C1963
:100CE0001D090E9DE0010F9DD00D1E9DD00D1124FC
:100CF00062307105B1F058F46115710579F0613019
:100D0000710509F4A0CFE22F2B2F852F9CCF6430E3
:100D1000710571F048F066307105A9F7E22F2D2FAB
:100D200092CFEB2F8D2F8FCFEB2F822F252F8BCFB5
:100D30002B2F8F2FED2F87CF9091260290FF0BC086
:100D4000762F682F842F0E941206962F672F482F28
:100D5000892F0E94DC050895CF93DF93EC01E6E232
:100D6000F2E0438162818C810E949C068C818F5FBE
:100D70008C83DF91CF910895CF93DF93EC01EC81C9
:100D8000F0E0EE56FC4F4491E6E2F2E062818181B0
:100D90000E949C068C818F5F8C83DF91CF91089598
:100DA000CF93762FC22F682F842F0E941206472FD1
:100DB000282F8C2F90E00E94C005CF910895CF93EB
:100DC000DF93EC0160912802809127029C8130E042
:100DD00020E040E0911102C0409129020E94D0061B
:100DE0000E94CE058C8190E00196817099278C83BA
:100DF000DF91CF9108958F929F92AF92BF92CF9241
:100E0000DF92EF92FF92CF93DF93EC014C81E42EBF
:100E1000F12C9701D7010E94AA269B01AC010E94E8
:100E200075264B015C01E0E2F0E0EE19FF09A5E553
:100E3000B0E0AC019B010E9475266B017C019F0113
:100E4000DF010E94FA269B01AC010E9480269B01D3
:100E5000AC01280D391D4A1D5B1DC701B6010E945A
:100E60008826922F30E09A3290F5A901440F551F41
:100E7000440F551FB901641B750BAB0157FF02C02E
:100E80004F5F5F4F55954795415030E020E06091AE
:100E9000280285E5891B0E94D0060E94CE059C8110
:100EA00081E0992319F0903219F48FEF80931B01A0
:100EB00080911B01890F8C83DF91CF91FF90EF9080
:100EC000DF90CF90BF90AF909F908F90089545E5B1
:100ED00050E0421B530B9A01220F331F220F331F86
:100EE000421B530BCBCF20E040E060E090E080E07D
:100EF0000E94C00580912002181624F180911A01E9
:100F000087FD20C030E020E0409129026091280256
:100F1000809127020E94D0060E94CE05809119017F
:100F200090912002980F9093200220911A01280F8F
:100F300020931A01121614F497FD03C08195809333
:100F40001901089520E040E060E090E080E00E9418
:100F5000C005E2CF0F931F93CF93DF93FC018281F3
:100F60001FEF80FF11E020E040E060E090E080E0D3
:100F70000E94C005C4E0D0E000E080911F02800F15
:100F8000823024F487FD8F5F811113C08091290284
:100F90008C9FA0018D9F500D112455954795559517
:100FA000479530E020E060912802809127020E945E
:100FB000D006010F219709F70E94CE05113021F4C8
:100FC00080911F02811107C010921F02DF91CF9103
:100FD0001F910F910895815080931F02F7CFCF93F7
:100FE000DF93EC0130E020E040912902609128027B
:100FF0008C810E94D0060E94CE059A818C8190FF40
:1010000005C08F5F8C83DF91CF9108958150FACF17
:1010100080E00895F894E82FE295EF70F0E031A1B8
:10102000282F2F7081E090E001C0880F2A95EAF701
:10103000982F9095932391A392A1892B82A37894C2
:1010400008959091440292FF10C041E0282F24712E
:10105000243009F040E031E0282F2871283009F0D1
:1010600030E0431711F02CE0822793FF10C041E0DD
:10107000282F2471243109F040E031E0282F287115
:10108000283109F030E0431711F02CE0822730912D
:10109000450230FF10C051E0282F2171213009F0A6
:1010A00050E041E0282F2871283009F040E0541723
:1010B00011F029E0822731FF10C041E0282F217173
:1010C000213109F040E031E0282F2871283109F062
:1010D00030E0431711F029E0822794FD877E0895C0
:1010E00082389105B9F1B0F48133910509F47DC0DE
:1010F00048F48932910509F46DC08A32910509F4EA
:1011000079C008958533910509F45FC0893391054D
:1011100009F10895833E9105D9F138F4803E910597
:1011200029F1823E910579F10895863E9105D9F124
:10113000873E910509F43EC0843E910541F520911A
:10114000450221FF24C08091440284FD19C087EE2E
:1011500090E0089520914402237009F056C0209138
:10116000450223FF14C089E290E0089520914402D3
:1011700020FD38C03091450230FF09C024FF3FC038
:1011800090E080E008952091440222FDF7CF089579
:101190002091440222FD36C03091450230FD35C019
:1011A00024FDEECFF4CF2091440223FFF0CF24FDA5
:1011B000E7CFCDCF2091440223FD2AC030914502D4
:1011C00031FFEECF84EE90E008952091440225FD9A
:1011D000CACF08952091440225FD1DC020914502EB
:1011E00023FFD5CF89E390E008952091440226FDA6
:1011F00015C008952091440226FD13C0089583EE82
:1012000090E0089582EE90E0089580EE90E00895D9
:1012100086EE90E0089585E390E008958AE290E0FC
:10122000089581E390E0B3CF1F93CF93DF930E94A3
:101230007008EC01C11580E5D807E8F5C11580E418
:10124000D80708F09BC0C03ED10518F5CD3CD105AC
:1012500008F081C0C83AD10570F4C53AD10508F04C
:1012600072C0C130D10511F118F0C430D105F0F4CD
:10127000D0E0C0E01BC0C33CD105D0F7C85AD0E0D5
:10128000CC0FDD1FCD5DDE4F0990D881C02DD46419
:101290000DC0C11580E2D80708F0CBC0C11581E0B0
:1012A000D80708F05AC0C83ED10510F7CE01DF912B
:1012B000CF911F910895C03682E5D80718F5C03444
:1012C00082E5D80708F069C0C03282E5D80708F087
:1012D0005DC0C11582E5D80708F493C02C2F269570
:1012E000269580E2289F900111248C2F8370C1E005
:1012F000D0E002C0CC0FDD1F8A95E2F7C22BD32BC2
:10130000DD68D4CFC03A82E5D80760F4C03882E502
:10131000D80708F457C0CF71D0E0DC2FCC27C46FBA
:10132000D06AC4CFC03C82E5D80708F45EC0C03E96
:1013300082E5D80708F09CCFDC2FCC27CC27DF71C3
:10134000C06FD06AB3CFC55AD0E0C05EDE4FC8814F
:10135000D0E0D064ABCFD065A9CF8D2F0E942108FB
:10136000182FCE0199270E947008C12FD0E0DC2FE2
:10137000CC27CC27DF71C82BD92B98CFCE0199274A
:101380000E947008CC27DF70D06AF5CFCF71D0E013
:10139000DC2FCC27C16FD06A89CF2C2F26952695BC
:1013A000277080E2289F900111248C2F8370C1E068
:1013B000D0E002C0CC0FDD1F8A95E2F7DC68C22BBB
:1013C000D32B74CF2C2F26952695277080E2289F4B
:1013D000900111248C2F8370C1E0D0E002C0CC0FAB
:1013E000DD1F8A95E2F7DA68EACF8C2F8F710E94B1
:1013F0002108C82FD0E0DC2FCC27CC27DF71D062AA
:1014000055CF8C2F8F710E94210855E0D695C79536
:101410005A95E1F7CF70D0E0DC2FCC27282F30E0B1
:1014200084FF05C044E0220F331F4A95E1F7D069DD
:10143000C6CF8D2F8F710E942108182FCE019927BA
:101440000E947008C12FD0E0DC2FCC27CC27DF71A1
:10145000906291CF982F909580910002892380937C
:1014600000020895809100029091D701892B9091FC
:10147000D601992391F0892B90911E01913071F43E
:101480009091440297FF0AC09EE1E8EAF1E020E073
:10149000915040F421111092D601089596E0E0EAAF
:1014A000F1E0F5CF3191332399F32F5FF1CF8091A4
:1014B000990290916002981301C008958F5F877020
:1014C000FACF943080F5843070F544E0949F900119
:1014D0001124820F932F911D682F677023E096953A
:1014E00087952A95E1F7FC01EE0FFF1FE80FF91F22
:1014F000E853FE4F50E040E080E0219130E0062EBE
:1015000002C0369527950A94E2F721703327042EFE
:1015100001C0220F0A94EAF7822B4F5F5F4F4330DE
:10152000510559F7089580E00895943098F5843076
:1015300088F544E0949F90011124820F932F911D10
:10154000282F277041E001C0440F2A95EAF723E0D5
:10155000969587952A95E1F7FC01EE0FFF1FE80F9E
:10156000F91FE853FE4F90E080E070E05191DF01F9
:1015700011979B01082E02C0369527950A94E2F731
:10158000217021952527242325272C93019683302C
:10159000910561F7089580930B02089590910B02D5
:1015A00021E030E0F90101C0EE0F8A95EAF7D90198
:1015B00002C0AA0FBB1F6A95E2F7EA2B01C0220FF7
:1015C0004A95EAF7892F8E23E81305C0292B822F2D
:1015D0000E94CB0A089520952923F9CF21E030E01D
:1015E00001C0220F8A95EAF7209580910B02822391
:1015F0000E94CB0A08959091D5018095892380930C
:10160000D501282F277069F4891759F09091450268
:1016100092FF07C08695869586950E94EE0A1092E5
:10162000D501089521E030E001C0220F8A95EAF744
:1016300080910B02822B0E94CB0A089580930A02AC
:101640000895662309F45DC08D3C41F40E94920523
:10165000819580933B020E94460508958E3C19F4C3
:101660000E949205F6CF8F3C31F40E94920581953D
:1016700080933A02F0CF803D19F40E949205F8CF92
:10168000893D29F40E94700580933C02E4CF8A3D95
:1016900021F40E9470058195F7CF8B3D31F40E94B3
:1016A0007005819580933D02D6CF8C3D19F40E9440
:1016B0007005F8CF9FE2980F983070F4815D990B18
:1016C00021E030E001C0220F8A95EAF780913902CB
:1016D000822B80933902BFCF8D3D31F4809133024C
:1016E000816080933302B7CF8E3D21F48091330225
:1016F0008260F7CF8F3D09F0AECF809133028460D6
:10170000F0CF8D3CD9F490913B0297FF1DC0109211
:101710003B0280913A02811106C080913B02811107
:1017200002C01092310280913C02811194CF8091CD
:101730003D02811190CF109232028DCF8E3CD9F4B0
:1017400090913B0219161CF39FE2980F983008F015
:101750003FC0815D990B21E030E0A90102C0440F38
:10176000551F8A95E2F7CA01809590913902892325
:1017700080933902CECF90913A028F3C29F497FFA3
:10178000E3CF10923A02C5CF803D19F41916CCF37D
:10179000DBCF90913C02893D29F41916ACF61092EA
:1017A0003C02B7CF8A3D19F497FFCECFF8CF8B3DDF
:1017B00039F490913D0297FFC7CF10923D02A9CF17
:1017C0008C3D09F0C1CF90913D021916B4F3BCCF06
:1017D0008D3D31F4809133028E7F8093330299CF17
:1017E0008E3D21F4809133028D7FF7CF8F3D09F03C
:1017F00090CF809133028B7FF0CF809580FF06C021
:10180000289A81FF05C05D9A81E008952898F9CF54
:101810005D98FACF0F931F93CF93DF938B01EA016B
:1018200090915602943061F58093E9008FEF90918A
:10183000E800815095FD06C095ED9A95F1F70000FE
:101840008111F5CF8091E80085FF1AC00E9437030F
:10185000811111C08091E80085FD06C08091E800EB
:101860008E778093E800F2CFF80181918F01809309
:10187000F100219779F78091E8008E778093E80056
:10188000DF91CF911F910F91089543E050E0BC018B
:1018900084E00E940A0C089546E050E0BC0184E018
:1018A0000E940A0C089540E250E0BC0184E00E94CE
:1018B0000A0C0895CF93DF93EC0148E050E0BC019F
:1018C00081E00E940A0C88E0FE01ACE4B2E00190E5
:1018D0000D928A95E1F7DF91CF91089585B18D7FC3
:1018E00095B192602FB7F894EEE2F2E032E0E13386
:1018F000F30741F42FBF8FE594E00197F1F700C0A3
:1019000000000895319148E095B9000000C037FF0C
:1019100085B9330F000000C000C000C085B900C009
:101920004A9591F7E3CFCF93C82F6FEF811165E20E
:1019300084E290E00E9422266FEFC11165E085E20B
:1019400090E00E9422266FEFC11168E086E290E0ED
:101950000E942226CF910895CF93DF93C8EAD0E06A
:1019600060E0CE010E9422262196C11584E0D807AE
:10197000B9F7DF91CF9108951F93CF93DF93C62FCF
:101980008430F0F46430E0F44430D0F4632F122F4C
:1019900028E0C29FE001112450E0440F551FC40FFE
:1019A000D51F20E2829FC0011124C80FD91FCE018C
:1019B00088960E942226612FCE0189960E942226B7
:1019C000DF91CF911F910895B0E0A0E0EAEEFCE036
:1019D0000C941327F12CE12CC12C8701D12C18C0B9
:1019E000FE01E00FF11FEE0FFF1FEE56FB4F25919A
:1019F00034914C2F6D2D8C2D0E94BC0C2196C4303F
:101A0000D10571F70C5F1F4FD39484E0D81619F0FD
:101A1000D0E0C0E0E5CFC39480E1E80EF11C84E0A3
:101A2000C812DBCFCDB7DEB7E8E00C942F2780E0FB
:101A30000E94930C60E087E290E00E9422260E94C0
:101A4000E40C0E94AC0C81E00E94930C089584E2A7
:101A500090E00E94FE25853289F485E290E00E94A4
:101A6000FE25853059F486E290E00E94FE2591E043
:101A7000883009F090E0892F8170089580E0FCCFD4
:101A80000F931F93CF93DF938C01FC01C081D18111
:101A9000CE010E94FE252196F801D183C083DF91FB
:101AA000CF911F910F9108950F931F93CF93DF93C1
:101AB000843038F5643028F5443018F528E0629F0A
:101AC000E001112450E0440F551FC40FD51F30E230
:101AD000839FC0011124C80FD91FCE0188960E9490
:101AE000FE25082F10E0102F0027CE0189960E94B6
:101AF000FE259801282BC901DF91CF911F910F91ED
:101B0000089590E080E0F8CF743048F4643038F401
:101B1000843028F4462F672F0E94540D089590E0DA
:101B200080E00895CF92DF92FF920F931F93CF939F
:101B3000DF936C0100910B0280910A02082BC3E035
:101B4000D0E010E0FC2EC8010C2E02C095958795C0
:101B50000A94E2F780FD0CC02197A0F7F12C8F2D9D
:101B6000DF91CF911F910F91FF90DF90CF9008955B
:101B7000B6018C2F0E94840D0E941409019761F315
:101B8000EECFCF93DF93EC010E94920DBE010E9435
:101B9000840D0E941409DF91CF910895FC012481E6
:101BA0002223B9F0808191810E94C10D92959F708E
:101BB000963089F050F49250923058F4803F19F0EA
:101BC00030F4883E30F481E008959A50F5CF843F98
:101BD000D1F380E00895883EB0F3813FD1F7F3CF91
:101BE000A6E0B0E0E6EFFDE00C94182726E0FC014B
:101BF000DE01119601900D922A95E1F7FC012581F5
:101C000089819A81222399F0662389F00E94920D9E
:101C1000182F682F89819A810E94950A69817A819B
:101C2000812F0E94840D2696E3E00C9434270E94B5
:101C3000610A182FF3CF0F931F93CF93DF93FC010B
:101C4000D281848191E09483E2E9F3E03491E1E18F
:101C5000F4E02491C0912902D33040F490912702FE
:101C6000909321029091280290932202811115C035
:101C7000109224021092230230E020E040912302CF
:101C800060912202809121020E94D0060E94CE051E
:101C9000DF91CF911F910F910895809124028823A5
:101CA00009F18150809324024FEF849FC0011124D9
:101CB0006091250270E00E94C526FB01FF27EE56C9
:101CC000FC4F8491E82FE31BE49FC0011124231BE8
:101CD000622F70E00E94C5266C9FE0011124D09312
:101CE0002302CACF0E94EE250FEF10E0B8010E9438
:101CF000D9262C2F2695215830E0220F232F221F82
:101D0000330B3195821793070CF0B6CFD33098F090
:101D10000E94EE25B8010E94D926809321020E94DC
:101D2000EE25209128022695622F70E00E94D92688
:101D3000280F209322021092230280912902893CCD
:101D400030F088EC809325028093240295CF843173
:101D5000C8F784E1F7CFB0E0A0E0E1EBFEE00C943F
:101D60000F2749015A016B017C010E94030684017F
:101D7000A4016A2D7B2D88E090E00E943426940116
:101D80004A2D5B2DB601C70100E20E945B27622F3E
:101D900083E290E00E942226CDB7DEB7ECE00C94FF
:101DA0002B270F931F93CF93DF93D82F162FC42F7A
:101DB000022F9091260290FF2FC0E92FE695E6951D
:101DC000AE2FB0E0AF59BE4F8C9180931D029C7F27
:101DD000943039F56D2F712F842F0E941206962FA3
:101DE000672F482F892F0E94DC05D093270210937C
:101DF0002802C0932902002379F0209126026091E5
:101E00002A0270912B023D2F412F5C2F80912C02D2
:101E100090912D020E94AB0EDF91CF911F910F91F7
:101E20000895823019F4C0912902DFCF863019F469
:101E3000D0912702DACF8930D9F38931B1F6E9514F
:101E4000E695F0E0E357FC4FE49130E020E08D2F81
:101E50000E94D0060E94CE05C8CFE6E2F2E04381A0
:101E600028E0421B08F440E021E0628181810E9469
:101E7000D10E0895E6E2F2E0438128E0420F08F433
:101E80004FEF21E0628181810E94D10E0895E6E248
:101E9000F2E0628128E0621B08F460E021E0438107
:101EA00081810E94D10E0895E6E2F2E0628128E08D
:101EB000620F08F46FEF21E0438181810E94D10E0F
:101EC0000895E6E2F2E0818121E043816281885059
:101ED0000E94D10E0895E6E2F2E0818121E0438183
:101EE0006281885F0E94D10E089580912A02882322
:101EF00019F0815080932A02209126023091270206
:101F0000409128025091290260912A0270912B027F
:101F100080912C0290912D020E94AB0E0895809129
:101F20002A02833018F48F5F80932A0220912602C0
:101F300030912702409128025091290260912A0293
:101F400070912B0280912C0290912D020E94AB0E79
:101F500008959091260290FF35C09370811133C08F
:101F6000946090932602662391F02091260230918E
:101F70002702409128025091290260912A02709113
:101F80002B0280912C0290912D020E94AB0E609149
:101F900026026695669570E04BE050E08EE091E099
:101FA0000E947627892BB9F010921E0281E080935F
:101FB0001A0220E0409129026091280280912702B4
:101FC0000E94D10E08958B3210F0986ACACF880F04
:101FD000880F982BC6CF81E080931E020E94820456
:101FE0009093180280931702E1CF80912602869584
:101FF0008695815009F48AE261E00E94A90F089554
:1020000080912602869586958F5F8B3208F081E05D
:1020100061E00E94A90F08959091450292FB22274A
:1020200020F9281779F080FB92F99093450260918E
:1020300044027091450284E090E00E94402682E0D4
:102040000E94FB0A089580911E01813059F580910C
:10205000440287FF27C00E94320A8093A70140E212
:1020600050E068ED71E086EA91E00E948327892BB9
:10207000C1F080E2E6EAF1E0A8EDB1E001900D9256
:102080008A95E1F7E0914002F0914102309749F0E2
:1020900086E08093A6010480F581E02D86EA91E038
:1020A000099508950E94320A80939E0148E050E00D
:1020B00068EF71E08EE991E00E948327892B89F314
:1020C00088E0EEE9F1E0A8EFB1E001900D928A9589
:1020D000E1F7E0914002F0914102309711F3028064
:1020E000F381E02D8EE991E0DBCF10920002809128
:1020F0001E01813039F58091440287FF23C0E8EA50
:10210000F1E08EE1DF011D928A95E9F790E080E031
:102110000E94140590E080E00E94EF041092D70125
:102120000E94231086E0E8E3F2E0DF011D928A9529
:10213000E9F71092310210923202109233020E949B
:1021400046050895E0EAF1E086E0DCCFAAE2B0E0DF
:10215000ECEAF0E10C941827E8E5F2E08091F10058
:10216000819382E0E036F807C9F780915902833005
:1021700009F47FC008F5813009F456C0823009F4B3
:10218000C4C08091E80083FFFEC080915802909106
:1021900059029A3008F0F7C0E92FF0E0EE52FF4EF6
:1021A0000C94ED269611BC11C311BC11C31114126D
:1021B0003612C311351342138A3009F495C08B309F
:1021C00009F474C08930E9F6809158028132C9F669
:1021D00080915C0290915D02009711F0029789F660
:1021E0008091E800877F8093E8008091E80082FF7B
:1021F0003BC08091F3009091F200892798278927AE
:10220000029731F48091F100813011F0863021F491
:102210008091F10080931D018091E8008B7780937D
:10222000E8000E946603ADCF80915802813A09F020
:10223000A8CF8091E800877F8093E80080915C02BE
:1022400090915D02892B61F060E090E080E070E0A9
:102250000E9412048091E8008B778093E80091CF70
:1022600068E08CE492E0F3CF809156028111BDCFFB
:1022700088CF80915802813A09F083CF80915C0227
:1022800090915D02892B09F07CCF8091E800877FD7
:102290008093E8008091E80080FFFCCF80911E01D0
:1022A0008093F1008091E8008E77B9CF8091580239
:1022B000813209F066CF80915C0290915D02892B9A
:1022C00009F05FCF8091E800877F8093E8000E944B
:1022D000660381E090915A02911101C080E08093E1
:1022E0001E010E9475104DCF80915802813209F075
:1022F00048CF8091E800877F8093E8000E946603C2
:1023000080915B0280931C013CCF80915802813AFE
:1023100009F037CF8091E800877F8093E8008091B3
:10232000E80080FFFCCF80911C01BACF803889F093
:10233000823849F580915C028F70873020F5809358
:10234000E9008091EB0085FB882780F91092E90075
:1023500006C0809154029091550291118260909133
:10236000E800977F9093E8008093F1001092F100CD
:102370008091E8008E7727C0282F2D7F21F48823B5
:10238000A1F0823029F18091E80083FF0AC080919A
:10239000E800877F8093E8008091EB008062809363
:1023A000EB00AA96E3E00C94342780915A02813026
:1023B00051F7933009F080E0809355021092E900C4
:1023C0008091E800877F8093E8000E946603DBCF5E
:1023D00080915A028111F2CF80915C028F702FEFB1
:1023E000280F263080F68093E9002091EB0020FF33
:1023F000E5CF933031F48091EB0080628093EB0065
:10240000DDCF9091EB0090619093EB0021E030E004
:1024100001C0220F8A95EAF72093EA001092EA00A1
:102420008091EB008860EACF8111ADCF10915A0204
:102430001F778091E3008078812B8093E300809167
:10244000E800877F8093E8000E9466038091E8009F
:1024500080FFFCCF8091E30080688093E30083E0FD
:10246000111101C082E0809356028DCF80588230D6
:1024700008F089CF20915A0230915B022C3DA3E0F5
:102480003A07A1F583E08A838AE289834FB7F894FB
:10249000DE01139620E03EE051E2E32FF0E050939E
:1024A0005700E49120FF03C0E295EF703F5FEF70AB
:1024B0008E2F90E0EA30C0F0C7968D939D932F5FEA
:1024C000243159F74FBF8091E800877F8093E8005F
:1024D0006AE270E0CE0101960E9412048091E80049
:1024E0008B778093E8004FCFC096E7CF80915C0256
:1024F00090915D02432F55274330510509F44FC099
:1025000078F54130510509F445C08BE590E0E2E1F2
:10251000F5E04230510509F036CF2091E800277FE1
:102520002093E80020915E0230915F0282179307AA
:1025300008F49C0140E02115310509F063C0411108
:1025400061C08091E80082FDC9CF80915602882346
:1025500029F2853019F28091E80083FFF2CFBECFD7
:102560004132510509F43FC04232510509F00BCF09
:102570008330910508F007CFFC01EE0FFF1FE157F4
:10258000FE4F0190F081E02D84579E4FDC018C912D
:1025900090E01DC082E190E0EDE6F5E0BECF33278C
:1025A00021303105C1F060F02230310509F0EBCE69
:1025B000EFE7F5E0E4918E2F90E0EFE7F5E007C05C
:1025C000EFEAF5E0E4918E2F90E0EFEAF5E0009776
:1025D00009F4D9CEA2CFE1E9F5E0E4918E2F90E0A5
:1025E000E1E9F5E0F4CF8330910508F0CCCE880F17
:1025F000991FFC01EB56FE4F0190F081E02D89E020
:1026000090E08BCF80915602882309F467CF853004
:1026100009F464CF8091E80083FD60CF8091E800E9
:1026200082FD8FCF8091E80080FF85CF8091F300FD
:102630009091F2008927982789272115310519F0F3
:102640008830910550F041E0089709F040E0809112
:10265000E8008E778093E8006ECF44914093F100BC
:102660003196215031090196E8CF803809F08BCEA0
:102670008091E800877F8093E800809157028093E3
:10268000F10076CE81117FCE10915A02123008F0FF
:102690007ACE8091E800877F8093E80010935702FC
:1026A0000E9466031123F9F084E08093560242E011
:1026B00061EC81E00E94850342E261EC84E00E94CB
:1026C000850342E261EC82E00E94850342E260EC15
:1026D00083E00E94850380915602843051F482E0A9
:1026E00080931F0150CE8091E30087FDDDCF81E014
:1026F000DCCF81E0F5CF0E9475102FEF84E39CE0E2
:10270000215080409040E1F700C0000088E19AE04D
:102710000FB6F894A895809360000FBE9093600068
:10272000FFCF882321F00E942A0A0E9423100895D7
:10273000882339F090910002892B809300020E9437
:1027400023100895882309F456C0823879F40E9432
:10275000390581FF50C089E30E94BB040E94231009
:1027600089E30E9491040E9423100895833859F44C
:102770000E94390580FF3FC083E50E94BB040E9490
:10278000231083E5EECF843859F40E94390582FF87
:1027900032C087E40E94BB040E94231087E4E1CF8B
:1027A0009CEF980F913AE8F290E2980F983050F42D
:1027B000877091E001C0990F8A95EAF7892F0E94EE
:1027C0002A0AD1CF9BE5980F933028F490E080E05F
:1027D0000E941405089598E5980F9B3128F490E025
:1027E00080E00E94EF04089593E3980F933118F46A
:1027F00060E00E94210B0895CF938823D1F0C82F69
:102800008238C9F40E94390581FD13C089E30E9412
:10281000BB040E9423102FEF87EE93E021508040ED
:102820009040E1F700C0000089E30E9491040E94FB
:102830002310CF9108958338A1F40E94390580FDBB
:10284000F8CF83E50E94BB040E9423102FEF81EE96
:1028500094E0215080409040E1F700C0000083E503
:10286000E4CF8438A1F40E94390582FDE2CF87E4E9
:102870000E94BB040E9423102FEF81EE94E02150B0
:1028800080409040E1F700C0000087E4CECF8CEF9D
:102890008C0F813A88F580911E01813001F580917D
:1028A000440287FF1CC0EC2FE695E695E695F0E024
:1028B000EA55FE4F828190E04C2F477021E030E0D6
:1028C00002C0220F331F4A95E2F782239323892BFC
:1028D00079F08C2F0E9491040E94231009C0E0EA35
:1028E000F1E08191C817A9F321E0E63AF207C9F7B0
:1028F0008C2F0E94BB049BCF80E28C0F883068F441
:10290000C77021E030E001C0220FCA95EAF780913C
:102910000002822B809300028ACFEBE5EC0FE330BC
:1029200040F4F0E0E05EFE4F808190E00E941405EC
:1029300080CFE8E5EC0FEB3150F4F0E0EE0FFF1F35
:10294000ED5DFE4F808191810E94EF0472CF83E3A1
:102950008C0F833108F06DCF61E08C2F0E94210B2A
:1029600068CFA4E0B0E0E7EBF4E10C940E27198205
:102970001A821B821C8289E5E82E81E0F82E8E01E6
:102980000F5F1F4F4801CC24C394D12C21E6A22E07
:1029900021E0B22EF70181917F018F3F09F440C001
:1029A000F894E82FE295EF70F0E021A18F70A60176
:1029B00002C0440F551F8A95E2F7CA01922F982B47
:1029C00091A392A18095892382A3789400C0EDE51C
:1029D000F1E0712C31E021912F3F09F44DC0A22F7D
:1029E000A295AF70B0E090968C9190E02F7002C0ED
:1029F000959587952A95E2F780FD3EC0832F782A2A
:102A0000330FAE16BF0639F7F701319780818F3F3C
:102A100011F00E940A0850EA5A95F1F7F801708205
:102A20000F5F1F4FFDE5EF16F1E0FF0609F0B2CF93
:102A300044E050E0B40186E092E00E948327892BB5
:102A4000F9F089819A81AB81BC81809306029093D1
:102A50000702A0930802B093090281E08093050267
:102A60000E948204909304028093030210E0812F5D
:102A70002496EDE00C942A2780E0C1CF10E028C016
:102A800010910502112391F3E0900302F0900402EB
:102A90000E9482048E199F09059740F344E050E09C
:102AA00066E072E083E192E00E948327892B31F394
:102AB0008091060290910702A0910802B09109024C
:102AC0008093130290931402A0931502B093160200
:102AD00010920502CCCF1F93CF93DF93182FEB01F9
:102AE0000E94FC13209739F4812F0E94A213DF91DA
:102AF000CF911F9108958FE99FE00197F1F700C0F2
:102B000000002197EFCFEF92FF920F931F93CF9387
:102B1000DF93C62FD42F122FFC0185818823A9F0C3
:102B200060939C020E94820490939B0280939A027D
:102B3000C77081E001C0880FCA95EAF70E94981318
:102B4000CDB7DEB7E6E00C94312780919C02681384
:102B500036C0E0909A02F0909B020E9482048E1987
:102B60009F09883C910558F500E20D0FCD17B9F08B
:102B700080E28C0F883040F4C77081E001C0880F7C
:102B8000CA95EAF70E949113083000F581E09D2F65
:102B9000977001C0880F9A95EAF70E94981370E029
:102BA00060E0812F0E946B15083050F6D77081E0ED
:102BB00001C0880FDA95EAF70E949113C1CFC77060
:102BC00081E001C0880FCA95EAF7F6CF70E060E0B7
:102BD000812F0E946B15B4CFA2E0B0E0E2EFF5E1E7
:102BE0000C940F27FC012481222309F482C06C017C
:102BF00061E00E94F00D8C01F6019581992309F4A2
:102C0000EAC0980137572038310508F02AC5F02E60
:102C1000FFE0F01708F45EC08FEF93E00E94FE25FE
:102C2000811158C008EA10E0F11021C01A8309830D
:102C30004AE0842ECE0101960E94400D882309F4BB
:102C400049C0813009F06FC0CE0101960E94400D4D
:102C50008130D1F4CE0101960E94400D60E570E014
:102C6000893311F070E060E00E946B15E3CF01152D
:102C700024E0120779F1C8010E94FE25811101C0EC
:102C8000FA940F5F1F4FD0CF823039F4CE010196F6
:102C90000E94400D0E94FC13CDCF833039F4CE0149
:102CA00001960E94400D0E94A213C4CF843081F48B
:102CB000CE0101960E94400D10E000E0482F4053E5
:102CC000550B9A014A305105C0F00115110511F557
:102CD0008111B0CF8091D501877059F0F6018581BF
:102CE000882339F08091450282FF03C082E00E9470
:102CF000FB0A2296ECE00C942B27809EC001819E5B
:102D0000900D11248901080F191FCE0101960E9410
:102D1000400DD4CFEFE9FFE03197F1F700C000009C
:102D200001501109D2CFE82FF0E0E850FE4F949007
:102D3000282F26952695269530E0F901E851FE4F7B
:102D4000E4908770F12C082E02C0F594E7940A9461
:102D5000E2F7F1E0EF22FF24F901E852FE4FA490E0
:102D6000B12C082E02C0B594A7940A94E2F741E072
:102D7000A422BB24F901E853FE4F049110E002C0E5
:102D8000159507958A95E2F701701127E114F10472
:102D900019F081EE0E94FC13A114B10419F086EE23
:102DA0000E94FC1370E060E0892D0E946B15A11455
:102DB000B10419F086EE0E94A213E114F10419F097
:102DC00081EE0E94A2130115110509F433CF70E0C2
:102DD00060E08CE249CFF801E851FC47E730F105AB
:102DE00048F5EB50F94E0C94ED2607170B17FC161F
:102DF00003170F171317171726E241EE61EEC601EE
:102E00000E94831567CF27E245EE65EEF8CF26E2F4
:102E100041EE60EEF4CF27E245EE64EEF0CF26E21D
:102E200041EE62EEECCF27E245EE66EEE8CF28E217
:102E300041E0EBCF06315CE7150709F4C9C007375D
:102E40002CE7120709F46FC108373CE7130709F0B4
:102E500046C182E069C1809144028160809344024E
:102E600095C0809145028860809345028FC0809113
:102E700044028260F3CF809144028460EFCF80915E
:102E800044028860EBCF809145028160EDCF809154
:102E900045028260E9CF809144028061DFCF80915A
:102EA00044028062DBCF809144028064D7CF0E94CD
:102EB0007510809144028068D1CF8091440288606F
:102EC000DCCF809145028260E0CF809144028E7F0A
:102ED000C5CF80914502877FC7CF809144028D7F07
:102EE000BDCF809144028B7FB9CF80914402877F10
:102EF000B5CF809145028E7FB7CF809145028D7FFF
:102F0000B3CF809144028F7EA9CF809144028F7D00
:102F1000A5CF809144028F7BA1CF0E947510809134
:102F200044028F779BCF80914402877FDCCF8091D2
:102F300045028D7FE0CF8091440282FB992790F972
:102F400021E0922790FB82F990FB83F987CF809153
:102F50004502982F909591708E7F892B90FB81F977
:102F600083CF90914402892F8F7B96FF806476CF28
:102F70000E94751090914402892F97FB87F9805821
:102F80006DCF61E08EE090E00E94222660914402C5
:102F90007091450284E090E00E9440260E947510E6
:102FA00099CE60E0EFCF90914402892F8F7E94FFFD
:102FB000806154CF90914402892F8E7F90FF816071
:102FC0004DCF90914502892F877F93FF88604CCF2A
:102FD0008091C60181110AC089E20E94910403C058
:102FE00085E30E94BB040E94231074CE85E3F5CFD5
:102FF0008272F801E052F847EB30F10508F067C043
:10300000EC5FF74E0C94ED260F1835183A183F1860
:10301000441849184E18531858185D1862188091B2
:10302000260280FF19C0282F2E7F20932602309180
:103030002702409128025091290260912A02709142
:103040002B0280912C0290912D020E94AB0E1092C7
:103050001E020E94CE053ECE81608093260261E072
:10306000869586950E94A90F35CE882329F00E9467
:10307000F50F30CE8823D9F30E9400102BCE882381
:1030800029F00E94610F26CE8823D9F30E946B0F8E
:1030900021CE882329F00E94470F1CCE8823D9F324
:1030A0000E94540F17CE882329F00E942D0F12CEB4
:1030B0008823D9F30E943A0F0DCE882329F00E946D
:1030C000750F08CE8823D9F30E948F0F03CE0737E0
:1030D0008CE71807F9F00837ECE71E0741F1980173
:1030E000205E32452032310520F5911134C00F7138
:1030F00081E090E09C0102C0220F331F0A95E2F7A5
:103100008901622F83E090E00E942226802F0E9496
:103110001E0BE0CD81E00E94120B43E062E081E0F3
:103120000E94CE0AD7CD81E00E94EE0AF6CF82E05F
:10313000F2CF992381F003303CE7130709F483C0F1
:1031400008F066C001155CE7150709F46FC001308F
:103150001C4709F47EC0F601858100811181882316
:1031600009F485C0C8010E94920DF82E682FC8018D
:103170000E94950AB8018F2D0E94840D0E941409A7
:103180008C01982EF601B580A680A2943FE0A32280
:103190008091D501877009F1EB2CBB20F9F0812FCC
:1031A000807F803469F080E2800F8830B0F0812F1A
:1031B000807E803229F4F1E0F01778F4AA2069F0DB
:1031C0008091450282FF09C082E00E94FB0A809143
:1031D000D5018770EE24E3948111E12CF12EF29455
:1031E0002FE0F2222BE02F1508F4ACC0EF2DF0E019
:1031F000E450F74E0C94ED263C193C1975197519DD
:103200000A1A291AA219A2192E1A9E1AAF1AAF1A4F
:103210000B359CE7190749F10C35ECE71E07D9F08F
:103220000A351C4709F097CF81E01CC00E94751039
:103230002FEF34E34CE0215030404040E1F700C034
:1032400000000E9471046FEF7FEF90E080E00E9429
:1032500040260E947B138091450282FB882780F9DB
:1032600091E089270E940C1076CF80E0FBCFC80147
:103270000E94610AF82E7ECF312F3F70F32E107F0F
:1032800019F0F29490EFF922802FBB20B9F0FF20C3
:1032900069F090E2900F983010F0011109C0809110
:1032A0000002F82AF09200020E942310802F42C0F0
:1032B0008091D701F82AF092D701F6CF0E94A2138D
:1032C000FF2009F43FC0005E083010F0911004C0E8
:1032D0008F2D0E942A0A06C0F0948091D701F8220F
:1032E000F092D7010E9423102DC0412F4F70F42E71
:1032F000107F103219F0F29480EFF822992051F0EB
:1033000051E0951609F466C0BB2009F472C0AA20EA
:10331000B1F1CCCF8091450282FD2DC0BB2069F078
:10332000FF2039F080910002F82AF09200020E94FA
:10333000231080E00E94FC1305C080E00E94A213CD
:10334000F110C6CFEE2009F4B7C08091D50180FD01
:10335000B3C0F60115828695869586950E94120B5C
:10336000C6010E94EC158091D501869586958695BB
:103370000E94EE0AA1C0BB2099F0A11004C08F2DBD
:103380000E949813DFCF81E0A812DCCF8091D60194
:103390009F2D9823F916B1F2F82AF092D601D2CFD8
:1033A000A110D0CF8F2D0E9491139091D6018F2D17
:1033B000892329F08F2D809589238093D6018091D0
:1033C000C7019F2D982309F4BDCFF094F822F09205
:1033D000C701B8CFBB2029F095E09A1508F4B2CF09
:1033E000CECFE4E0EA1508F4ADCF8F2D0E94911303
:1033F000A9CFAA20D1F3093349F4FFEF27EE33E038
:10340000F15020403040E1F700C00000802F0E94C2
:10341000A21398CF812F86958695837041F08130D5
:1034200079F088EF8F0D843008F08CCF41C0C8014F
:103430009370B11002C080E090E00E94140582CF2A
:10344000C8019370B11002C080E090E00E94EF04C8
:1034500079CF6B2D802F0E94210B74CF812F837029
:10346000C1F5B11025C0402F429546954770440FD5
:10347000440F802F8F70042E01C0880F0A94EAF742
:1034800020E004FF07C02FE030E001C0220F4A9582
:10349000EAF720951695169513701230A9F090F45E
:1034A00030910A02113069F0822B83230E941E0B97
:1034B0000E9439050E94FD0B60E0C6010E94F00DDC
:1034C00018CC832B822BF2CF282B80910A028227E3
:1034D000EDCF8695BB2011F0812F8170882341F3B9
:1034E000402F429546954770440F440F802F8F70B0
:1034F000042E01C0880F0A94EAF720E004FF07C0F9
:103500002FE030E001C0220F4A95EAF7209516958A
:1035100016951370123069F050F430910B0211308F
:1035200029F0822B83230E94CB0AC2CF832B822BCC
:10353000FACF282B80910B028227F5CF1F70BB207A
:1035400039F0812F0E94120B802F0E949813B0CF68
:10355000802F0E949113812F0E94EE0AA9CF802F05
:1035600042EF9416E1F1491580F050EF9516F1F015
:1035700091EF9916A1F0BB2009F45FC0AA2009F4CD
:1035800059C0802F0E94FC134CCFE3EF9E1671F1BF
:10359000F4EF9F12F0CF9091450292FD32C0812F3F
:1035A0008F71BB2001F10E94120B3BCFBB2091F029
:1035B00024E02A1508F435CF1F7181E090E0012E38
:1035C00001C0880F0A94EAF790910B0289270E94A4
:1035D000CB0A27CF35E03A1508F423CFEDCF812F62
:1035E0008F71BB2001F30E94EE0A1BCF80E0BB204D
:1035F00071F31F7181E0012E01C0880F0A94EAF770
:10360000E6CFBB2061F0812F8F7192FFCCCF48E0D5
:10361000849F9001112423602093D501C4CF81E0C1
:103620000E94FB0A51E05A1508F0FBCE82E00E948E
:10363000FB0AF7CE812F8F71B6CFAA2079F089339C
:1036400049F48FEF97EEE3E081509040E040E1F7DE
:1036500000C00000802F0E94A213E3CE812F8F7143
:10366000C2CFF801E851FC47E730F10508F4B9CBC7
:1036700010929C02980130572332310508F035C072
:1036800084E090E00E940C269093450280934402CF
:10369000F801E150F047E232F10508F0DCCBED5AD9
:1036A000F44E0C94ED266517DA176D1737173B1794
:1036B00071173F17751781174B17D3174F178517BA
:1036C00053178917B11757178D17B8175D17931729
:1036D0009B174317791747177D1761179717A71778
:1036E000C117D11731176917E11780910002063110
:1036F000FCE71F0709F07CCC8A7A91E009F490E09E
:103700009093C60181116CCC89E26BCCCF93DF938F
:103710008091D401807F09F04DC08091D30188232E
:1037200009F448C0E091990250916002C091CF0124
:10373000D091CE016091D0017091D10147E05E1728
:10374000C9F18E2F90E0E49FF0011124EF59FD4F55
:103750002481222391F1489FF001499FF00D11240B
:10376000DF01AF59BD4F11962C9111972C1325C035
:103770002C912D1322C015962C91159721111DC047
:1037800012962D913C91261B370B283C3105A8F44D
:103790008091D4018F7080618093D401E959FD4FED
:1037A00080818F70806180838EEC91E00E94EC15A7
:1037B0000E94570ADF91CF910895FC013196E7707E
:1037C000BECFA4E1B0E0E7EEFBE10C940F278C0143
:1037D00086E0F801DE011F9601900D928A95E1F7CF
:1037E000F8018481E5809EECA92E91E0B92E90919C
:1037F000D201911128C0882319F1EE20F1F0C801FF
:103800000E94CE0DF82E8823C1F087E0F801D50183
:1038100001900D928A95E1F78091D201813031F4C7
:103820008091CE019091CF010E94C10D0E94861B14
:103830008F2D6496ECE00C942B27C8010E94EC15A8
:10384000FF24F394F5CFD080C18082809380F090E4
:10385000D3012091D0013091D101A401421B530B1F
:10386000FF2009F4D8C0483C510508F091C08823D6
:10387000F9F29091CF018091D401282F207F09F097
:1038800055C0C91214C09091CE01D91210C0E110D8
:1038900047C08F7080618093D4018EEC91E00E94CC
:1038A000EC158091D401F8018683F12CC1CFE11091
:1038B00037C06C2D8D2D0E94F9026C2D8D2D0E942C
:1038C000F902E82E8111F1CFDF86C88A8F859889A9
:1038D0000E94C10D292F22952F70243058F49F701B
:1038E000223080F0992391F0F8019681907F71F455
:1038F000FE2C9ECF2A50223068F0C8010E94EC15A1
:10390000EF2CF6CF992311F0882391F3805E883055
:10391000A0F7EECF803F60F3815F833070F7E8CF90
:103920008091D40181608093D401BFCFC91207C0B8
:103930009091CE01D91203C0EE2009F48DC0C801C8
:103940000E94CE0D882309F478CFEE2009F475CFBC
:103950008091D401803288F02091CE013091CF0146
:10396000398728879B868A869091D2019C871D86FD
:103970008E87CE0108960E94EC1587E0F801AEEC28
:10398000B1E001900D928A95E1F70E94861B58CF15
:103990009091D401292F207F51F48EEC91E00E9468
:1039A000EC1587E0F50111928A95E9F77ECF88231F
:1039B00009F43ECF8091CF018C1110C08091CE01CF
:1039C000D8120CC0E1100AC09683C8010E94EC1501
:1039D00087E0F50111928A95E9F72ACFC8010E9484
:1039E000CE0D882309F429CFEE2009F426CF80914B
:1039F000D401803210F22091CE013091CF013A8370
:103A000029839C828B829091D2019D831E828F8319
:103A1000CE010196B0CF483C5105D0F6882309F479
:103A20000FCFFE2CEE2009F408CF8091CF018C112E
:103A300020C08091CE01D8121CC08091D40180FD9D
:103A40000FC0982F907F61F08683903F31F0982FC0
:103A5000907F905F8F70892B8683C8010E94EC1540
:103A600087E0F801AEECB1E001900D928A95E1F7A4
:103A7000DFCEC8010E94CE0D81117FCF8091D4018D
:103A800081608093D401C8010E94EC15D1CEABE1D6
:103A9000B0E0EDE4FDE10C9418274E8B5F8B688F4E
:103AA000798F8A8F9B8F91111092D7011D8A86E0A2
:103AB000FE017696DE011F9601900D928A95E1F740
:103AC0008B89882351F061E0CE010F960E94F00DA2
:103AD00061E0CE010F960E94F00D87E0FE013F9657
:103AE000DE01189601900D928A95E1F7CE010896B5
:103AF0000E94E11B81112AC087E0FE013896DE0199
:103B0000119601900D928A95E1F78C858823F1F04A
:103B10002091600230E0C901019687709927409199
:103B200099024817190659F197E0929FD001939F87
:103B3000B00D1124AF59BD4FFE01319601900D9289
:103B40009A95E1F7809360020E94570A17E08091EE
:103B50009902909160028917F9F0819FC0011124A8
:103B60008F599D4F0E94E11B8823B1F080919902EB
:103B700090E001968770992780939902E8CF0E9480
:103B80007510109260021092990287E0EEECF1E05D
:103B9000DF011D928A95E9F76B96E3E00C943427D8
:103BA000A6E0B0E0E6EDFDE10C9417270E94820448
:103BB0008C0180910102909102028017910781F09F
:103BC00019821A820E948204682F49815A81792FB2
:103BD00080E090E00E94471D1093020200930102D2
:103BE0002696E4E00C9433271F920F920FB60F92A3
:103BF00011242F933F934F935F936F937F938F93F2
:103C00009F93AF93BF93CF93EF93FF93C091E9003E
:103C1000CF708091EC001092E9008091F000877FD6
:103C20008093F00078940E94A6101092E900809191
:103C3000F00088608093F000C093E900FF91EF915D
:103C4000CF91BF91AF919F918F917F916F915F9134
:103C50004F913F912F910F900FBE0F901F9018958D
:103C60001F920F920FB60F9211242F933F934F93F1
:103C70005F936F937F938F939F93AF93BF93EF93D4
:103C8000FF938091E10082FF09C08091E20082FFF2
:103C900005C08091E1008B7F8093E1008091DA0084
:103CA00080FF24C08091D80080FF20C08091DA007E
:103CB0008E7F8093DA008091D90080FFA9C080E1D7
:103CC00089BD82E189BD09B400FEFDCF81E080930A
:103CD000560280914B02811109C00E9418030E9474
:103CE000B7038091E20084608093E2008091E1005C
:103CF00080FF1AC08091E20080FF16C08091E20030
:103D00008E7F8093E2008091E20080618093E200E8
:103D10008091D80080628093D80019BC85E08093A0
:103D2000560283E080931F018091E10084FF2FC041
:103D30008091E20084FF2BC080E189BD82E189BDD2
:103D400009B400FEFDCF8091D8008F7D8093D8000C
:103D50008091E1008F7E8093E1008091E2008F7E70
:103D60008093E2008091E20081608093E200809184
:103D70005702882309F452C084E080935602809150
:103D80005602843009F452C081E080931F01809173
:103D9000E10083FF2CC08091E20083FF28C0809166
:103DA000E100877F8093E10082E0809356021092C9
:103DB00057028091E1008E7F8093E1008091E200C4
:103DC0008E7F8093E2008091E20080618093E20028
:103DD00042E060E080E00E9485038091F00088600E
:103DE0008093F00081E080931F0180931E01FF917A
:103DF000EF91BF91AF919F918F917F916F915F9163
:103E00004F913F912F910F900FBE0F901F901895DB
:103E100019BC1092560210924B0268CF8091E300B9
:103E200087FD02C081E0A9CF83E0A7CF82E0ADCFBC
:103E300078941F920F920FB60F9211248F939F9335
:103E4000AF93BF938091470290914802A09149029D
:103E5000B0914A020196A11DB11D80934702909333
:103E60004802A0934902B0934A02BF91AF919F913B
:103E70008F910F900FBE0F901F9018951F920F9269
:103E80000FB60F9211248F939F93AF93BF9380919E
:103E90004602811113C08091470290914802A0917F
:103EA0004902B0914A024196A11DB11D809347027B
:103EB00090934802A0934902B0934A02BF91AF91F8
:103EC0009F918F910F900FBE0F901F901895A6E2B3
:103ED000B0E0EDE6FFE10C94092785B7806885BF67
:103EE00085B7806885BF84B7877F84BF0FB6F89495
:103EF000A8958091600088618093600010926000B6
:103F00000FBE80E890E00FB6F89480936100909324
:103F100061000FBE81E080931F0188E098E09093DC
:103F20009D0180939C010E9418030E94B703809119
:103F3000E20084608093E2007894809156028823A6
:103F400099F01091E9001F708091EC0080FFD5C0BE
:103F500080E8182B1092E9008091E80083FD0E9410
:103F6000A6101F701093E90082E084BD93E095BD18
:103F70009AEF97BD80936E000E94270D811102C0B9
:103F80000E94170D84EF0E940A0885EF0E940A081C
:103F900086EF0E940A0887EF0E940A0881E90E94C2
:103FA0000A0880E90E940A0884E90E940A0886E655
:103FB0000E940A0884E0E3E1F2E0DF01282F1D926D
:103FC0002A95E9F7E6E0F2E0DF011D928A95E9F72C
:103FD00090E080E00E940C26853E9E4F21F40E94D6
:103FE000270D811163C065EE7EEF90E080E00E94B6
:103FF000402660E082E090E00E94222681E08093EB
:104000000A0261E083E090E00E94222660E074E111
:1040100084E090E00E94402660E086E090E00E940C
:10402000222660E087E090E00E94222640E050E0F7
:10403000BA0188E090E00E94342660E083E290E0DC
:104040000E94222660E08CE090E00E94222660E040
:104050008DE090E00E94222619821A821B821C8227
:104060001D821E821F82188648E050E067E170E0E2
:10407000CE0101960E94122640E050E0BA018FE185
:1040800090E00E94342680E00E94930C0E94170D5D
:1040900040E050E0BA018FE090E00E94342640E01A
:1040A00050E0BA0183E190E00E94342682E090E083
:1040B0000E94FE2580930D0284E090E00E940C2671
:1040C00090934502809344020E94B114EFEFF6E70B
:1040D00021E0E150F0402040E1F700C000000E94E4
:1040E000B1148091130280FF0AC06FEF7FEF90E060
:1040F00080E00E9440260E94710480E02ACF83E085
:1041000090E00E94FE250E941E0B209A289A559A44
:104110005D9A80910C0281117FC088E090E00E943E
:1041200006264B015C0183E290E00E94FE25282FC9
:1041300030E040E050E060E070E080E090E000E2DD
:104140000E944027282939294A295B2920932602E1
:1041500030932702409328025093290260932A0249
:1041600070932B0280932C0290932D022C7F09F0E8
:1041700041C025E020932602109227023FEF3093A2
:1041800028023093290210922A0230E04FEF5FEFAD
:1041900060E00E94AB0E88E090E00E9406266B0172
:1041A0007C0183E290E00E94FE25282F30E040E071
:1041B00050E060E070E080E090E00E944027B22F85
:1041C000A32FF42FE52F5B0197018601BC29A12BBA
:1041D000FE29E32BB0932602A0932702F093280236
:1041E000E093290260932A02B0922B0280932C0262
:1041F00090932D020E94030610921E020E94CB058E
:104200008091260280FF05C060E0869586950E9419
:10421000A90F81E080930C0284E091E09093410229
:104220008093400257E1452E52E0552E62E1C62EA2
:1042300062E0D62E772473948E010F5F1F4F80911A
:10424000560240E4F42E853009F485C00E94B11472
:104250002EE0E22E22E0F22E33E1A32E32E0B32E46
:10426000D501F70191918D91CE16DF0609F47FC03B
:104270009817C1F3912CF50181905F01D7012D9022
:104280007D01281421F1612C332433942824822DBC
:104290008321A9F069A29AA20E9482049CA38BA305
:1042A000B1E0BDA391E0882D832109F490E09EA3A5
:1042B00049A15AA16BA17CA18DA10E94471D6394C5
:1042C000330CE4E06E12E3CFF701319780829394D0
:1042D000F4E09F12D0CF8FB7F894409147025091ED
:1042E00048026091490270914A028FBF44C0809198
:1042F0005602843031F180E00E94FD0B109246029C
:1043000088E190E00FB6F894A895809360000FBE06
:10431000F092600083B7817F846083BF83B7816040
:1043200083BF7894889583B78E7F83BF0FB6F89448
:10433000A895809160008861809360001092600071
:104340000FBE0E94B114E3E1F2E081918111CBC371
:104350004E165F06D1F780915602853009F4C7CF1B
:104360000E9475100E9439050E94FD0B6FCF9813B3
:1043700081CF0E94D01D80911E028823D9F18091A7
:104380001D02E0912602E695E695E81BE0931902EE
:10439000823009F000C1F0E0E757FD4FE491EE2EC6
:1043A000F12C9CEBA92E96E0B92E80911A0288235D
:1043B00061F010921A020E94820490931802809376
:1043C000170210921C0210921B020E948204E091BC
:1043D0001702F09118028E1B9F0B8F3F9F4750F4DE
:1043E000EE0DFF1DF0931802E093170287E192E0B3
:1043F000F501099586E0E8E3F2E0D80101900D921D
:104400008A95E1F76090390280903A02E0903B0291
:10441000F0903C0290903D0210923A0210923B02C2
:1044200010923C0210923D02811003C0EE2009F46C
:1044300047C0A0903602B09037020E9482049C01CF
:104440002A193B0990913102992309F471C325314E
:104450003105B0F19F3F19F09F5F909331028820A2
:1044600059F00E94920591E018140CF09FEF899F7B
:10447000802D112480933A02EE2059F00E9492057B
:104480009FEF1E140CF491E0899F802D11248093DE
:104490003B0280913A02882399F0B0903B02BB2006
:1044A00079F00E94B205882309F4E6C080933A02AD
:1044B0008B2D0E94B205882309F4E1C080933B0252
:1044C000F11003C0992009F447C0A0903402B090C5
:1044D00035020E9482049C012A193B099091320204
:1044E000992309F42AC321353105B0F19F3F19F012
:1044F0009F5F90933202FF2059F00E94700591E077
:104500001F140CF09FEF899F802D112480933C0293
:10451000992059F00E9470059FEF19140CF491E056
:10452000899F802D112480933D0280913C02882335
:1045300099F0B0903D02BB2079F00E94B20588232B
:1045400009F4A0C080933C028B2D0E94B205882301
:1045500009F49BC080933D0280913902681298C093
:1045600080913A02882311F0881192C080913B0219
:10457000882311F08E118CC080913D02882311F0A8
:10458000891186C090913C02992319F081E0F912BB
:1045900080C080E07EC0863059F4F0E0EA57FD4FDD
:1045A000E491EE2EF12C8CEAA82E86E0B82EFDCEFA
:1045B000893061F4E695F0E0ED57FD4FE491EE2E81
:1045C000F12CBFEEAB2EB7E0BB2EEFCE8F3061F4F7
:1045D000E695F0E0E058FD4FE491EE2EF12CAAEACA
:1045E000AA2EA7E0BA2EE1CE853159F4F0E0E358C7
:1045F000FD4FE491EE2EF12CF3E7AF2EF7E0BF2E46
:10460000D4CE58E2E52EF12C6BEFA62E66E0B62E46
:10461000883109F4CACE833249F4EBE7F2E0E59041
:10462000F490EAEEAE2EE5E0BE2EBFCE34EFE32EE0
:10463000FF24F3944FEDA42E46E0B42E843209F407
:10464000B4CE90EDE92E97E0F92E2DECA22E25E0C8
:10465000B22E853209F0A9CE8E2F63E00E94B926D2
:10466000E92FF0E0E858FD4FE491EE2EF12C7BE1CC
:10467000A72E7EE0B72E99CE70923A0219CF709293
:104680003B021ECF70923C025FCF70923D0264CF1E
:1046900081E080FD13C080913A0281116AC080914F
:1046A0003B02811166C080913C02811162C081E0B1
:1046B00090913D02911101C080E080FD0E9446056D
:1046C00086E0F801A8E3B2E001900D928A95E1F747
:1046D0000E94390590911202891779F08093120295
:1046E0009FB7F89440914702509148026091490267
:1046F00070914A029FBF0E94FD0B80915602843048
:1047000009F09DCD83E08093E9008091E80082FF6D
:1047100096CD8091E80090E085FF05C00E943703A8
:10472000882349F191E08091E8008B778093E8003D
:10473000992309F484CD8981EFEFE80FE33108F084
:1047400041C0F0E0EA55FC4D0C94ED26D723DB2365
:104750001D2445244B245624592459245924E2234A
:10476000E223DA24DD24E124072529252C252F2521
:10477000532581E0A2CF80E2A82EB12C7801809150
:10478000E80085FD0AC08091E8008B778093E800FF
:104790000E943703882399F3C5CF8091F100D70198
:1047A0008D937D01B1E0AB1AB10849F7BBCF1A82F6
:1047B0008CE08B833BC08A81823009F4B1C128F43C
:1047C000813061F08FEF898331C08330B9F084305C
:1047D000C9F71B821C821D821E8228C02FB7F89445
:1047E0008091470290914802A0914902B0914A02FB
:1047F0002FBFBB83AC839D838E8318C06B81DE018A
:10480000149690E080E0262F30E0A901480F591F50
:104810004430510558F4E62FE80FF0E0ED5EFD4F0F
:1048200040814D9301968C31910579F740E250E03B
:10483000B80182E00E940A0C02CD8A81823089F0A0
:10484000853009F0BFCF8091260280FF15C080918E
:1048500026028E7F8093260210921E020E94CE05B1
:10486000E5CF6B817C818D819E810E94F32687E25A
:1048700090E00E942226DACF81608093260260E0D9
:10488000869586950E94A90FD1CF4C816B818A8134
:104890000E94540DB0CF2D813E813227232732272D
:1048A0004C816B818A810E94BC0CC0CF0E94E40CB9
:1048B000BDCF9A81923009F085CF8830E1F18930FF
:1048C00009F465C08B81823009F1A8F4813009F0C8
:1048D000ADCF8C81EFEF8E9FC00111246FEF70E0A0
:1048E0000E94C526462F20E0609128028091270271
:1048F0000E94D10E9BCF8330D1F0843009F096CF47
:1049000020E0409129026D818C81F2CF8C81882337
:1049100009F49DCF8091260281608093260260E099
:10492000869586950E94A90F60E08C81ABCF8C8123
:1049300080932A027BCF8B818230E1F078F4813042
:1049400009F074CF80912902FFEF8F9FC0011124DD
:104950006FEF70E00E94C5266C8368CF8330A1F0B2
:10496000843009F063CF809127028C8380912802E4
:104970008D835CCF8091260280FF04C0869586954A
:104980008C8354CF80E0FCCF80912A02F9CF209114
:10499000260230912702409128025091290260910D
:1049A0002A0270912B0280912C0290912D020E947C
:1049B000AB0E3CCF20E12A8339CF83E08A8388E5A0
:1049C000F8CEEA80FB80FE24EF24FE24AC80B12CDC
:1049D0004801C70188559F4F9401201B310B2A15B0
:1049E0003B0508F023CF48E5E41643E0F40660F405
:1049F0000E94FE25D40114968C93FFEFEF1AFF0A54
:104A00002FEF821A920AE5CFF4011482F6CF8A8042
:104A10009B80982489249824AC80B12C7401C70110
:104A200088559F4F9701281939092A153B0508F029
:104A3000FDCE48E5E41643E0F40638F4200F311FBC
:104A4000D90114966C910E942226BFEFEB1AFB0A43
:104A5000E6CF0E94AC0CEACE84E08A83E7CEEA80FF
:104A6000FB80FE24EF24FE248C80912C5801C7018A
:104A700088969501201B310B2815390508F0D6CEF4
:104A8000E0E8EE16F10460F40E94FE25D5011496CC
:104A90008C93FFEFEF1AFF0A2FEFA21AB20AE7CFAB
:104AA000F5011482F6CF8A809B809824892498246B
:104AB000AC80B12C7401C701889697012819390977
:104AC0002A153B0508F0B2CE40E8E416F10438F4AC
:104AD000200F311FD90114966C910E942226BFEF3E
:104AE000EB1AFB0AE8CF80915502882309F433CCF6
:104AF00090E199BDA2E1A9BD09B400FEFDCF80916E
:104B0000D8008F7D8093D8008091E00082608093F0
:104B1000E0008091E00081FDFCCF0E9475101BCC6D
:104B200087E290E00E94FE251B821C821D8264CEDB
:104B30002B30310508F090CCC3CC2B30310508F078
:104B4000D7CC0ACD8F929F92AF92BF92CF92DF9235
:104B5000EF92FF92CF93DF93EC01688179818A8194
:104B60009B81611571058105910521F464E279ED60
:104B70008BE597E02DE133EF41E050E00E945626AF
:104B800049015A019B01AC01A7EAB1E40E947526D4
:104B90006B017C01ACEEB4EFA50194010E94832669
:104BA000DC01CB018C0D9D1DAE1DBF1DB7FF03C0E9
:104BB0000197A109B04888839983AA83BB839F7713
:104BC000DF91CF91FF90EF90DF90CF90BF90AF90AB
:104BD0009F908F9008950E94A225089580E091E013
:104BE0000E94A2250895B0E0A0E080930001909378
:104BF0000101A0930201B09303010895F999FECF3A
:104C000092BD81BDF89A992780B50895A6E1B0E0DC
:104C100044E050E00C944826A8E1B0E042E050E0C7
:104C20000C944826DC01A40FB51F4150504048F0B9
:104C3000CB01840F951F2E910E9423264150504096
:104C4000D0F70895262FF999FECF92BD81BDF89A2D
:104C5000019700B4021639F01FBA20BD0FB6F894C0
:104C6000FA9AF99A0FBE08950396272F0E942326D9
:104C70000E942226252F0E942326242F0C942326CF
:104C80000196272F0E9423260C942226DC01CB01BB
:104C9000FC01F999FECF06C0F2BDE1BDF89A31964C
:104CA00000B40D9241505040B8F70895052E97FB7F
:104CB0001EF400940E946D2657FD07D00E9488269E
:104CC00007FC03D04EF40C946D265095409530951A
:104CD00021953F4F4F4F5F4F089590958095709568
:104CE00061957F4F8F4F9F4F08950E94AA26A59FE1
:104CF000900DB49F900DA49F800D911D11240895D7
:104D0000B7FF0C9475260E947526821B930B08959D
:104D1000A1E21A2EAA1BBB1BFD010DC0AA1FBB1FBF
:104D2000EE1FFF1FA217B307E407F50720F0A21B31
:104D3000B30BE40BF50B661F771F881F991F1A949E
:104D400069F760957095809590959B01AC01BD01C8
:104D5000CF010895A29FB001B39FC001A39F700D22
:104D6000811D1124911DB29F700D811D1124911D73
:104D70000895991B79E004C0991F961708F0961BB7
:104D8000881F7A95C9F780950895AA1BBB1B51E12E
:104D900007C0AA1FBB1FA617B70710F0A61BB70BAB
:104DA000881F991F5A95A9F780959095BC01CD0150
:104DB000089597FB072E16F4009407D077FD09D0CD
:104DC0000E94C52607FC05D03EF4909581959F4F23
:104DD0000895709561957F4F0895EE0FFF1F059020
:104DE000F491E02D0994692796276927782787276A
:104DF000782708950E94AA26332312F48A1B9B0B5E
:104E00000C9404270E94AA26B7FF0895821B930BD7
:104E100008952F923F924F925F926F927F928F925E
:104E20009F92AF92BF92CF92DF92EF92FF920F9339
:104E30001F93CF93DF93CDB7DEB7CA1BDB0B0FB643
:104E4000F894DEBF0FBECDBF09942A883988488800
:104E50005F846E847D848C849B84AA84B984C88496
:104E6000DF80EE80FD800C811B81AA81B981CE0F8D
:104E7000D11D0FB6F894DEBF0FBECDBFED01089572
:104E8000002E083090F0982F872F762F652F542F03
:104E9000432F322F22270850F4CF220F331F441FF5
:104EA000551F661F771F881F991F0A95B2F7002D9F
:104EB000089597FD1094002E083098F00850232F85
:104EC000342F452F562F672F782F892F912DF4CF10
:104ED0001594979587957795679557954795379545
:104EE00027950A95AAF71124002D0895FC01415039
:104EF000504030F001900616D1F73197CF01089558
:104F0000882799270895FB01DC0104C08D91019049
:104F1000801921F441505040C8F7881B990B08951F
:044F2000F894FFCF33
:104F2400010000008E045A0C530C4C0C450C011962
:104F34001A1B1C1D1E1F202122010201000001005A
:104F4400818283E200E900EA00B500B600B700CD33
:104F5400008301CC008A01920194012102230224DE
:104F6400022502260227022A02B300B4006F007051
:104F7400009F01CB019F02A002F4F5F6F7919094F3
:104F84006600010202020206060609090909090966
:104F94000F0F0F0F0F0F15151518191919191919C6
:104FA4001919191923242525252525254422B684D4
:0C4FB400016201AC0024053D055D050014
:00000001FF
