:100000000C9407020C9424020C9424020C942402F5
:100010000C9424020C9424020C9424020C942402C8
:100020000C9424020C9424020C94051A0C94C91903
:100030000C94131B0C9424020C9424020C942402A0
:100040000C9424020C9424020C9424020C94240298
:100050000C9424020C94ED1A0C9424020C942402A7
:100060000C9424020C9424020C9424020C94240278
:100070000C9424020C9424020C9424020C94240268
:100080000C9424020C9424020C9424020C94240258
:100090000C9424020C9424020C9424020C94240248
:1000A0000C9424020C9424020C94240205010902ED
:1000B000A10185020901A1000509190129081500FE
:1000C0002501950875018102050109300931158165
:1000D000257F95027508810609381581257F9501D0
:1000E00075088106050C0A38021581257F95017572
:1000F000088106C0C005010980A101850319012AF4
:10010000B700150126B700950175108100C0050CD8
:100110000901A101850419012AA002150126A002E6
:10012000950175108100C005010906A1018506052C
:100130000719E029E71500250195087501810205D9
:1001400007190029EF1500250195F07501810205B9
:10015000081901290595057501910295017503910D
:1001600001C00660FF0961A1010962150026FF00B8
:100170009520750881020963150026FF00952075FA
:10018000089102C005010906A101050719E029E748
:1001900015002501950875018102950175088101F9
:1001A0000507190029FF150026FF0095067508812F
:1001B000000508190129051500250195057501910E
:1001C00002950175039101C00000000000000000CD
:1001D000000000000000000000000000000000001F
:1001E0000000000000000000000000007E0F00D4AE
:1001F000FFFFFFC7000000780000000000000000C3
:100200002A2B280000000000000000000000000071
:1002100000000029000000002C1E3420212224347C
:100220002627252E362D3738271E1F20212223244E
:1002300025263333362E37381F0405060708090AEA
:100240000B0C0D0E0F101112131415161718191A86
:100250001B1C1D2F3130232D350405060708090A04
:100260000B0C0D0E0F101112131415161718191A66
:100270001B1C1D2F3130354C14001A0008001500CE
:1002800017001C0018000C001200130004001600D8
:10029000070009000A000B000D000E000F002900E6
:1002A0001D001B00060019002A002C00050011008B
:1002B0001000280001000100010001000100010000
:1002C0000100010001000100010001000100010026
:1002D0000100010001000100010001000100010016
:1002E000010001004C0001000100010001000100BB
:1002F00001000100010001000100010001000100F6
:1003000001000100010001000100010001000100E5
:1003100001000100010001000100010001000100D5
:1003200001000100010001000100010001000100C5
:1003300001000100010001000100010001000100B5
:1003400001000100010001000100010001000100A5
:100350000100010001000100010001000100010095
:10036000010001000100010009025B00030100A07F
:10037000FA09040000010301010009211101000133
:10038000224400070581030800010904010002035B
:10039000000000092111010001222200070582034B
:1003A00020000107050303200001090402000103E6
:1003B00000000009211101000122B6000705840395
:1003C00020000112010002000000082540606001C9
:1003D0000001020001100347006800650072006B15
:1003E0000069006E0000002003340030002000503F
:1003F0000065007200630065006E00740020004319
:10040000006C007500620000000403090400112460
:100410001FBECFEFDAE0DEBFCDBF11E0A0E0B1E05C
:10042000EAE3F2E402C005900D92A236B107D9F7D3
:1004300022E0A2E6B1E001C01D92A235B207E1F7C9
:100440000E943C1B0C941B210C940000482F20910F
:100450004E029091150257E0291302C080E00895E2
:1004600030E0529FF001539FF00D1124EA5EFD4FE2
:100470008181681306C08081481303C08581811182
:10048000EECF2F5F3F4F2770E7CFE8EDF0E08081A0
:100490008E7F80831092E2001092DA001092E100C9
:1004A000A0EEB0E08C9181608C9380818F77808307
:1004B00019BCA7EDB0E08C918E7F8C9380818F7EEC
:1004C00080831092000208952091E4003091E500AD
:1004D00085E69091EC0090FF06C09091E80090FFB7
:1004E00006C080E008959091E80092FDFACF9091C7
:1004F0000B02992391F0953091F09091EB0095FDCE
:1005000010C04091E4005091E5002417350709F32D
:1005100081509A01F1F684E0089582E0089583E025
:10052000089581E0089580910D0287FF13C08091A6
:10053000E80082FF06C08091E8008B778093E80096
:1005400004C080910B028111F2CF089580910B02BB
:100550008823D9F38091E80080FFF8CF8091E800EC
:100560008E77ECCF982F9093E900242F762F50E0D0
:10057000891731F07091EC002091ED005091F0005E
:1005800021FD07C09F5F973071F78093E90081E0FC
:1005900008953091EB003E7F3093EB003091ED00F9
:1005A0003D7F3093ED003091EB0031603093EB00F4
:1005B0007093EC002093ED005093F0002091EE003A
:1005C00027FDE0CF80E00895B0E0A0E0EAEEF2E0A1
:1005D0000C94E120C8EDD0E088818F7E8883E7ED20
:1005E000F0E080818160808384E082BF81E080933D
:1005F000000288818E7F888302EE10E0F80110826D
:100600001092DA0081EEC82ED12CF601108288817A
:100610008F77888388818068888388818F7D8883AD
:1006200019BC10920B0210920C0210920A02109246
:10063000090290EEE92EF12CF70180818B7F8083F7
:1006400088818160888342E060E080E00E94B2029D
:10065000F60180818E7F8083F801808181608083B4
:10066000808188608083F70180818E7F808388818C
:1006700080618883CDB7DEB7E8E00C94FD20FC01F3
:10068000809113029091140286179707A0F06115CC
:10069000710529F49091E8009E779093E80090E02E
:1006A0006115710551F4911108C08091E80082FF35
:1006B00035C080E00895BC01F2CF80910B02882301
:1006C000C9F18530C9F18091E80083FD31C0809186
:1006D000E80082FDEACF8091E80080FFE1CF209121
:1006E000F3008091F200322F282F6115710519F067
:1006F0002830310558F091E02830310509F090E0BC
:100700002091E8002E772093E800CACF8191809352
:10071000F100615071092F5F3F4FE7CF80910B02CD
:10072000882341F0853041F08091E80083FFBDCF00
:1007300081E0089582E0089583E0089587E797E7D0
:10074000909301088093000888E19AE00FB6F8942E
:10075000A895809360000FBE90936000FFCF2FB7E5
:10076000F8948091FC019091FD01A091FE01B0915F
:10077000FF012FBF089580910B01089590910C0106
:100780009130D1F49091F90197FF16C0E82FE695CA
:10079000E695E695EE31D8F4F0E0E459FE4F282FC7
:1007A000277081E090E001C0880F2A95EAF78095D4
:1007B0009281892382830895E4E6F1E0928189138E
:1007C00001C01282319691E0EA36F907B9F708952F
:1007D00090910C019130C1F49091F90197FF14C0F0
:1007E000E82FE695E695E695EE31F8F4F0E0E45969
:1007F000FE4F877021E030E001C0220F8A95EAF7B2
:100800008281822B82830895A6E6B1E0EFEF90E02B
:100810002D91821751F0EF3F19F4211101C0E92FFA
:100820009F5F9630A9F7EF3F09F408950E2E000C54
:10083000FF0BEC59FE4FE6CFA3E0B0E0E2E2F4E0BC
:100840000C94E7202091F7013091F801281739071F
:10085000A1F09093F8018093F701E091F501F091F8
:10086000F601309751F024E029839B838A8300842A
:10087000F185E02DCE01019609952396E2E00C94D6
:100880000321A3E0B0E0E7E4F4E00C94E72020913A
:10089000F3013091F40128173907A1F09093F40186
:1008A0008093F301E091F501F091F601309751F05A
:1008B00023E029839B838A830084F185E02DCE0188
:1008C000019609952396E2E00C940321E091F5014D
:1008D000F091F601309729F00190F081E02D099513
:1008E000089580E008950E94AF032091EF01211147
:1008F00004C02091F001222321F09093EC01809319
:10090000EB012091F101211104C02091F201222379
:1009100021F09093EA018093E901E091F501F091D3
:10092000F601309749F082E08093ED010680F7816F
:10093000E02D8DEE91E0099508958091E80180FD0C
:1009400016C081FD16C082FD16C08091E701882384
:10095000A1F0883280F428E0829FC001112468E26F
:1009600070E00E947A20862F672B39F0089582E08C
:10097000089584E0089588E0089581E008958091C5
:10098000E80180FD14C081FD14C082FD16C0809175
:10099000E601882381F08E3180F420E5829FC0013A
:1009A00011246EE170E00E947A20862F089584E180
:1009B000089588E2089588E0089580E50895282F35
:1009C00035EB2303C001112497FF04C0805891091F
:1009D000892F089580589F4FFBCF8F929F92AF929F
:1009E000BF92EF92FF920F931F93CF93DF938430C8
:1009F000B0F5811135C0909180009F779093800071
:100A0000A0918600B0918700282F30E00E94BD2081
:100A100023E030E040E050E00E948E2089019A01FE
:100A200080918600909187006CE070E00E946620C3
:100A300060177107C8F0C80169E070E00E94662085
:100A40007093890060938800DF91CF911F910F917F
:100A5000FF90EF90BF90AF909F908F90089583E0AC
:100A6000909180009068CACF809186009091870015
:100A7000E0908600F0908700E0918600F09187007A
:100A8000C6E0D0E0BE010E946620060F171F211DA0
:100A9000311D4801590185E0880C991CAA1CBB1C1A
:100AA0008A95D1F7C701BE010E9466209F0150E0E0
:100AB00040E0260F371F411D511DC501B4010E94A2
:100AC0008E2049015A01E0918600F0918700CA0109
:100AD000B9010E9456209B01AC01DF010E94CC208D
:100AE0009B01AC01C501B4010E9456202FE09695F0
:100AF0008795779567952A95D1F700918600109193
:100B0000870030E020E0061717072807390708F0AC
:100B100097CF609186007091870092CF282F220F87
:100B2000220F220F9091E5019770922B9093E5018F
:100B3000987F21E009F420E09091E50120FB90F9F5
:100B40009093E5010E94ED04089580E00895F894E3
:100B5000E82FE295EF70F0E031A1282F2F7081E0AF
:100B600090E001C0880F2A95EAF7982F909593237B
:100B700091A392A1892B82A3789408959091F90171
:100B800092FF10C041E0282F2471243009F040E08A
:100B900031E0282F2871283009F030E0431711F098
:100BA0002CE0822793FF10C041E0282F24712431CC
:100BB00009F040E031E0282F2871283109F030E0B9
:100BC000431711F02CE082273091FA0130FF10C05A
:100BD00051E0282F2171213009F050E041E0282F09
:100BE0002871283009F040E0541711F029E08227DD
:100BF00031FF10C041E0282F2171213109F040E080
:100C000031E0282F2871283109F030E0431711F026
:100C100029E0822794FD877E089582389105B9F1F5
:100C2000B0F48133910509F47DC048F4893291050F
:100C300009F46DC08A32910509F479C008958533AD
:100C4000910509F45FC08933910509F10895833E48
:100C50009105D9F138F4803E910529F1823E910544
:100C600079F10895863E9105D9F1873E910509F401
:100C70003EC0843E910541F52091FA0121FF24C038
:100C80008091F90184FD19C087EE90E008952091CC
:100C9000F901237009F056C02091FA0123FF14C016
:100CA00089E290E008952091F90120FD38C030914B
:100CB000FA0130FF09C024FF3FC090E080E00895B2
:100CC0002091F90122FDF7CF08952091F90122FD2D
:100CD00036C03091FA0130FD35C024FDEECFF4CF9F
:100CE0002091F90123FFF0CF24FDE7CFCDCF209154
:100CF000F90123FD2AC03091FA0131FFEECF84EED5
:100D000090E008952091F90125FDCACF0895209122
:100D1000F90125FD1DC02091FA0123FFD5CF89E3FC
:100D200090E008952091F90126FD15C008952091C5
:100D3000F90126FD13C0089583EE90E0089582EE38
:100D400090E0089580EE90E0089586EE90E008959A
:100D500085E390E008958AE290E0089581E390E0D1
:100D6000B3CF1F93CF93DF930E940D06EC01C11503
:100D700080E5D807E8F5C11580E4D80708F09BC0E6
:100D8000C03ED10518F5CD3CD10508F081C0C83A68
:100D9000D10570F4C53AD10508F072C0C130D10553
:100DA00011F118F0C430D105F0F4D0E0C0E01BC060
:100DB000C33CD105D0F7C85AD0E0CC0FDD1FCF5EC1
:100DC000DE4F0990D881C02DD4640DC0C11580E2DA
:100DD000D80708F0CBC0C11581E0D80708F05AC089
:100DE000C83ED10510F7CE01DF91CF911F91089534
:100DF000C03682E5D80718F5C03482E5D80708F078
:100E000069C0C03282E5D80708F05DC0C11582E52F
:100E1000D80708F493C02C2F2695269580E2289FAA
:100E2000900111248C2F8370C1E0D0E002C0CC0F60
:100E3000DD1F8A95E2F7C22BD32BDD68D4CFC03AF1
:100E400082E5D80760F4C03882E5D80708F457C0B7
:100E5000CF71D0E0DC2FCC27C46FD06AC4CFC03CA8
:100E600082E5D80708F45EC0C03E82E5D80708F0E6
:100E70009CCFDC2FCC27CC27DF71C06FD06AB3CFDB
:100E8000C55AD0E0C25FDE4FC881D0E0D064ABCF9E
:100E9000D065A9CF8D2F0E94BE05182FCE019927AE
:100EA0000E940D06C12FD0E0DC2FCC27CC27DF71AC
:100EB000C82BD92B98CFCE0199270E940D06CC279D
:100EC000DF70D06AF5CFCF71D0E0DC2FCC27C16FB7
:100ED000D06A89CF2C2F26952695277080E2289FEF
:100EE000900111248C2F8370C1E0D0E002C0CC0FA0
:100EF000DD1F8A95E2F7DC68C22BD32B74CF2C2F31
:100F000026952695277080E2289F900111248C2F2A
:100F10008370C1E0D0E002C0CC0FDD1F8A95E2F7FC
:100F2000DA68EACF8C2F8F710E94BE05C82FD0E0FF
:100F3000DC2FCC27CC27DF71D06255CF8C2F8F715F
:100F40000E94BE0555E0D695C7955A95E1F7CF703A
:100F5000D0E0DC2FCC27282F30E084FF05C044E010
:100F6000220F331F4A95E1F7D069C6CF8D2F8F71BD
:100F70000E94BE05182FCE0199270E940D06C12F91
:100F8000D0E0DC2FCC27CC27DF71906291CF982F57
:100F900090958091CC0189238093CC010895809114
:100FA000CC019091A301892B9091A201992391F0FA
:100FB000892B90910C01913071F49091F90197FF78
:100FC0000AC09EE1EEE6F1E020E0915040F42111EC
:100FD0001092A201089596E0E6E6F1E0F5CF319196
:100FE000332399F32F5FF1CF80914E029091150238
:100FF000981301C008958F5F8770FACF292F95301D
:1010000078F5863068F590E036E0239F800D911DDD
:101010001124682F677023E0969587952A95E1F74C
:10102000FC01EE0FFF1FE80FF91FE257FE4F50E0E3
:1010300040E080E0219130E0062E02C036952795F1
:101040000A94E2F721703327042E01C0220F0A947C
:10105000EAF7822B4F5F5F4F4330510559F70895F0
:1010600080E00895292F953098F5863088F590E036
:1010700036E0239F800D911D1124282F277041E019
:1010800001C0440F2A95EAF723E0969587952A95A3
:10109000E1F7FC01EE0FFF1FE80FF91FE257FE4FCB
:1010A00030E020E070E05191DF011197CB01022E7A
:1010B00002C0969587950A94E2F7817081958527FD
:1010C000842385278C932F5F3F4F2330310559F7B9
:1010D00008958093D80108959091D80121E030E0DF
:1010E000F90101C0EE0F8A95EAF7D90102C0AA0FF3
:1010F000BB1F6A95E2F7EA2B01C0220F4A95EAF777
:10110000892F8E23E81305C0292B822F0E9469089E
:10111000089520952923F9CF21E030E001C0220F66
:101120008A95EAF720958091D80182230E94690868
:1011300008959091A101809589238093A101282F82
:10114000277069F4891759F09091FA0192FF07C04E
:101150008695869586950E948C081092A101089527
:1011600021E030E001C0220F8A95EAF78091D80192
:10117000822B0E94690808958093D7010895662301
:1011800009F45DC08D3C41F40E94BF0481958093B9
:10119000F0010E94730408958E3C19F40E94BF046C
:1011A000F6CF8F3C31F40E94BF0481958093EF010C
:1011B000F0CF803D19F40E94BF04F8CF893D29F497
:1011C0000E949D048093F101E4CF8A3D21F40E94A6
:1011D0009D048195F7CF8B3D31F40E949D0481954C
:1011E0008093F201D6CF8C3D19F40E949D04F8CF74
:1011F0009FE2980F983070F4815D990B21E030E008
:1012000001C0220F8A95EAF78091EE01822B80932C
:10121000EE01BFCF8D3D31F48091E8018160809374
:10122000E801B7CF8E3D21F48091E8018260F7CFCD
:101230008F3D09F0AECF8091E8018460F0CF8D3C06
:10124000D9F49091F00197FF1DC01092F0018091A8
:10125000EF01811106C08091F001811102C010924E
:10126000E6018091F101811194CF8091F201811109
:1012700090CF1092E7018DCF8E3CD9F49091F00180
:1012800019161CF39FE2980F983008F03FC0815D5B
:10129000990B21E030E0A90102C0440F551F8A9547
:1012A000E2F7CA0180959091EE0189238093EE01C7
:1012B000CECF9091EF018F3C29F497FFE3CF1092AE
:1012C000EF01C5CF803D19F41916CCF3DBCF909117
:1012D000F101893D29F41916ACF61092F101B7CF4E
:1012E0008A3D19F497FFCECFF8CF8B3D39F490911A
:1012F000F20197FFC7CF1092F201A9CF8C3D09F000
:10130000C1CF9091F2011916B4F3BCCF8D3D31F4E9
:101310008091E8018E7F8093E80199CF8E3D21F482
:101320008091E8018D7FF7CF8F3D09F090CF8091BC
:10133000E8018B7FF0CF809580FF06C05D9A81FF2A
:1013400005C0289A81E008955D98F9CF2898FACFD2
:101350000F931F93CF93DF938B01EA0190910B02C0
:10136000943061F58093E9008FEF9091E80081500F
:1013700095FD06C095ED9A95F1F700008111F5CF26
:101380008091E80085FF1AC00E946402811111C09B
:101390008091E80085FD06C08091E8008E778093FB
:1013A000E800F2CFF80181918F018093F10021973D
:1013B00079F78091E8008E778093E800DF91CF91F4
:1013C0001F910F91089543E050E0BC0184E00E941A
:1013D000A809089546E050E0BC0184E00E94A809F5
:1013E000089540E250E0BC0184E00E94A8090895FD
:1013F000CF93DF93EC0148E050E0BC0181E00E9414
:10140000A80988E0FE01A1E0B2E001900D928A9562
:10141000E1F7DF91CF910895CF93C82F6FEF81113E
:1014200065E284E290E00E9422206FEFC11164E047
:1014300085E290E00E9422206FEFC11164E186E214
:1014400090E00E942220CF910895CF93DF93C8E1CE
:10145000D1E060E0CE010E9422202196C11584E0F7
:10146000D807B9F7DF91CF9108951F93CF93DF93FA
:10147000962F8430E8F46530D8F44630C8F4632FF2
:10148000122FC42FD0E0CC0FDD1F2CE0929FC00D97
:10149000D11D11249CE3899FC00DD11D1124CE01C3
:1014A00088960E942220612FCE0189960E942220D8
:1014B000DF91CF911F910895B0E0A0E0E2E6FAE05D
:1014C0000C94E120F12CE12CC12C8701D12C18C007
:1014D000FE01E00FF11FEE0FFF1FE858FD4F2591B1
:1014E00034914C2F6D2D8C2D0E94350A2196C630DB
:1014F000D10571F70A5F1F4FD39485E0D81619F014
:10150000D0E0C0E0E5CFC3948EE1E80EF11C84E0AA
:10151000C812DBCFCDB7DEB7E8E00C94FD2080E049
:101520000E940C0A60E087E290E00E9422200E9464
:101530005C0A0E94250A81E00E940C0A0895682F27
:1015400086E090E00E94222008958091E50180FFCE
:1015500008C08E7F8093E5010E949F0A80E00E9470
:10156000ED0408958091E50180FD13C081608093B2
:10157000E501813019F489E08093E5018091E5016E
:101580000E949F0A8091E5018695869586950E9426
:10159000ED04089584E290E00E940420853289F4ED
:1015A00085E290E00E940420843059F486E290E0C5
:1015B0000E94042091E0843109F090E0892F81702D
:1015C000089580E0FCCF0F931F93CF93DF938C019E
:1015D000FC01C081D181CE010E9404202196F80136
:1015E000D183C083DF91CF911F910F9108950F9305
:1015F0001F93CF93DF93843030F5653020F546306C
:1016000010F5C42FD0E0CC0FDD1F2CE0629FC00D81
:10161000D11D11243CE3839FC00DD11D1124CE01A7
:1016200088960E940420082F10E0102F0027CE017A
:1016300089960E9404209801282BC901DF91CF913F
:101640001F910F91089590E080E0F8CF753048F435
:10165000663038F4843028F4462F672F0E94F70A4A
:10166000089590E080E00895CF92DF92FF920F936B
:101670001F93CF93DF936C010091D8018091D70124
:10168000082BC3E0D0E010E0FC2EC8010C2E02C0F5
:10169000959587950A94E2F780FD0CC02197A0F7F5
:1016A000F12C8F2DDF91CF911F910F91FF90DF9043
:1016B000CF900895B6018C2F0E94260B0E94B10690
:1016C000019761F3EECFCF93DF93EC010E94340BCF
:1016D000BE010E94260B0E94B106DF91CF910895B2
:1016E000FC0124812223B9F0808191810E94630B47
:1016F00092959F70963089F050F49250923058F441
:10170000803F19F030F4883E30F481E008959A501B
:10171000F5CF843FD1F380E00895883EB0F3813F58
:10172000D1F7F3CFA6E0B0E0E8E9FBE00C94E620C7
:1017300026E0FC01DE01119601900D922A95E1F759
:10174000FC01258189819A81222399F0662389F001
:101750000E94340B182F682F89819A810E943208C9
:1017600069817A81812F0E94260B2696E3E00C94F2
:1017700002210E94FE07182FF3CF86E090E00E941E
:1017800004208093E50182FD05C08DE18093E50191
:101790000E949F0A8091E501803220F08770886165
:1017A0008093E5018091E50180FF06C086958695CE
:1017B00086950E94ED04089580E0FBCF9091FA0198
:1017C00092FB222720F9281779F080FB92F9909359
:1017D000FA016091F9017091FA0184E090E00E94B1
:1017E000402082E00E949908089580910C01813088
:1017F00059F58091F90187FF27C00E94CF07809398
:101800006D0140E250E064EA71E08CE691E00E94F4
:101810000E21892BC1F080E2ECE6F1E0A4EAB1E010
:1018200001900D928A95E1F7E091F501F091F601B2
:10183000309749F086E080936C010480F581E02DBB
:101840008CE691E0099508950E94CF07809364018A
:1018500048E050E064EC71E084E691E00E940E21E3
:10186000892B89F388E0E4E6F1E0A4ECB1E0019093
:101870000D928A95E1F7E091F501F091F60130972C
:1018800011F30280F381E02D84E691E0DBCF10922A
:10189000CC0180910C01813039F58091F90187FFED
:1018A00023C0EEE6F1E08EE1DF011D928A95E9F7B3
:1018B00090E080E00E94410490E080E00E941C04DF
:1018C0001092A3010E94F50B86E0EDEEF1E0DF013E
:1018D0001D928A95E9F71092E6011092E7011092A5
:1018E000E8010E9473040895E6E6F1E086E0DCCFAB
:1018F000AAE2B0E0EEE7FCE00C94E620EDE0F2E0D6
:101900008091F100819382E0E531F807C9F7809179
:101910000E02833009F47FC008F5813009F456C007
:10192000823009F4C4C08091E80083FFFEC080913A
:101930000D0290910E029A3008F0F7C0E92FF0E006
:10194000EC55F34F0C94B020680D8E0D950D8E0D57
:10195000950DE60D080E950D070F140F8A3009F44A
:1019600095C08B3009F474C08930E9F680910D027E
:101970008132C9F68091110290911202009711F004
:10198000029789F68091E800877F8093E800809134
:10199000E80082FF3BC08091F3009091F20089271C
:1019A00098278927029731F48091F100813011F056
:1019B000863021F48091F10080930B018091E80042
:1019C0008B778093E8000E949302ADCF80910D0247
:1019D000813A09F0A8CF8091E800877F8093E800E2
:1019E0008091110290911202892B61F060E090E0E9
:1019F00080E070E00E943F038091E8008B77809345
:101A0000E80091CF68E081E092E0F3CF80910B0293
:101A10008111BDCF88CF80910D02813A09F083CF2B
:101A20008091110290911202892B09F07CCF809154
:101A3000E800877F8093E8008091E80080FFFCCF7A
:101A400080910C018093F1008091E8008E77B9CFEE
:101A500080910D02813209F066CF80911102909140
:101A60001202892B09F05FCF8091E800877F809375
:101A7000E8000E94930281E090910F02911101C051
:101A800080E080930C010E94470C4DCF80910D02A5
:101A9000813209F048CF8091E800877F8093E80089
:101AA0000E9493028091100280930A013CCF8091A2
:101AB0000D02813A09F037CF8091E800877F80934B
:101AC000E8008091E80080FFFCCF80910A01BACF46
:101AD000803889F0823849F5809111028F70873003
:101AE00020F58093E9008091EB0085FB882780F941
:101AF0001092E90006C08091090290910A029111AA
:101B000082609091E800977F9093E8008093F100C5
:101B10001092F1008091E8008E7727C0282F2D7F4A
:101B200021F48823A1F0823029F18091E80083FF1D
:101B30000AC08091E800877F8093E8008091EB00E5
:101B400080628093EB00AA96E3E00C9402218091DE
:101B50000F02813051F7933009F080E080930A0240
:101B60001092E9008091E800877F8093E8000E944E
:101B70009302DBCF80910F028111F2CF809111028D
:101B80008F702FEF280F263080F68093E900209188
:101B9000EB0020FFE5CF933031F48091EB008062C1
:101BA0008093EB00DDCF9091EB0090619093EB0080
:101BB00021E030E001C0220F8A95EAF72093EA0085
:101BC0001092EA008091EB008860EACF8111ADCFDE
:101BD00010910F021F778091E3008078812B809312
:101BE000E3008091E800877F8093E8000E949302E1
:101BF0008091E80080FFFCCF8091E30080688093B3
:101C0000E30083E0111101C082E080930B028DCFCD
:101C10008058823008F089CF20910F023091100255
:101C20002C3DA3E03A07A1F583E08A838AE2898309
:101C30004FB7F894DE01139620E03EE051E2E32F27
:101C4000F0E050935700E49120FF03C0E295EF705D
:101C50003F5FEF708E2F90E0EA30C0F0C7968D9313
:101C60009D932F5F243159F74FBF8091E800877F04
:101C70008093E8006AE270E0CE0101960E943F0383
:101C80008091E8008B778093E8004FCFC096E7CF34
:101C90008091110290911202432F55274330510534
:101CA00009F44FC078F54130510509F445C08BE582
:101CB00090E0E8E6F3E04230510509F036CF20919C
:101CC000E800277F2093E80020911302309114024E
:101CD0008217930708F49C0140E02115310509F0B3
:101CE00063C0411161C08091E80082FDC9CF80913D
:101CF0000B02882329F2853019F28091E80083FFD6
:101D0000F2CFBECF4132510509F43FC042325105F6
:101D100009F00BCF8330910508F007CFFC01EE0FDF
:101D2000FF1FEB5AFE4F0190F081E02D8E5A9E4F1F
:101D3000DC018C9190E01DC082E190E0E3ECF3E0E7
:101D4000BECF332721303105C1F060F0223031059C
:101D500009F0EBCEE5EDF3E0E4918E2F90E0E5EDB8
:101D6000F3E007C0E9E0F4E0E4918E2F90E0E9E0D1
:101D7000F4E0009709F4D9CEA2CFE7EEF3E0E491C6
:101D80008E2F90E0E7EEF3E0F4CF8330910508F07A
:101D9000CCCE880F991FFC01E55AFE4F0190F081CF
:101DA000E02D89E090E08BCF80910B02882309F42D
:101DB00067CF853009F464CF8091E80083FD60CF60
:101DC0008091E80082FD8FCF8091E80080FF85CF71
:101DD0008091F3009091F200892798278927211597
:101DE000310519F08830910550F041E0089709F06D
:101DF00040E08091E8008E778093E8006ECF4491B8
:101E00004093F1003196215031090196E8CF803896
:101E100009F08BCE8091E800877F8093E800809165
:101E20000C028093F10076CE81117FCE10910F02CB
:101E3000123008F07ACE8091E800877F8093E80026
:101E400010930C020E9493021123F9F084E0809316
:101E50000B0242E061EC81E00E94B20242E261ECDE
:101E600084E00E94B20242E261EC82E00E94B2028F
:101E700042E260EC83E00E94B20280910B02843067
:101E800051F482E080930D0150CE8091E30087FDF4
:101E9000DDCF81E0DCCF81E0F5CF0E94470C2FEF52
:101EA00084E39CE0215080409040E1F700C00000B6
:101EB00088E19AE00FB6F894A895809360000FBE71
:101EC00090936000FFCF882321F00E94C7070E94F3
:101ED000F50B0895882339F09091CC01892B8093DC
:101EE000CC010E94F50B0895882309F456C082386E
:101EF00079F40E94660481FF50C089E30E94E803E0
:101F00000E94F50B89E30E94BE030E94F50B089521
:101F1000833859F40E94660480FF3FC083E50E9425
:101F2000E8030E94F50B83E5EECF843859F40E9454
:101F3000660482FF32C087E40E94E8030E94F50B2A
:101F400087E4E1CF9CEF980F913AE8F290E2980F86
:101F5000983050F4877091E001C0990F8A95EAF7A4
:101F6000892F0E94C707D1CF9BE5980F933028F4A3
:101F700090E080E00E944104089598E5980F9B311D
:101F800028F490E080E00E941C04089593E3980FE9
:101F9000933118F460E00E94BF080895CF9388231E
:101FA000D1F0C82F8238C9F40E94660481FD13C0A5
:101FB00089E30E94E8030E94F50B2FEF87EE93E080
:101FC000215080409040E1F700C0000089E30E946A
:101FD000BE030E94F50BCF9108958338A1F40E94AF
:101FE000660480FDF8CF83E50E94E8030E94F50BAC
:101FF0002FEF81EE94E0215080409040E1F700C047
:10200000000083E5E4CF8438A1F40E94660482FDD9
:10201000E2CF87E40E94E8030E94F50B2FEF81EEE8
:1020200094E0215080409040E1F700C0000087E438
:10203000CECF8CEF8C0F813A88F580910C018130E6
:1020400001F58091F90187FF1CC0EC2FE695E6951C
:10205000E695F0E0E459FE4F828190E04C2F477006
:1020600021E030E002C0220F331F4A95E2F78223BD
:102070009323892B79F08C2F0E94BE030E94F50BCD
:1020800009C0E6E6F1E08191C817A9F321E0EC363A
:10209000F207C9F78C2F0E94E8039BCF80E28C0FD8
:1020A000883068F4C77021E030E001C0220FCA9583
:1020B000EAF78091CC01822B8093CC018ACFEBE5AB
:1020C000EC0FE33040F4F0E0E25FFE4F808190E0FF
:1020D0000E94410480CFE8E5EC0FEB3150F4F0E0D2
:1020E000EE0FFF1FEF5EFE4F808191810E941C0466
:1020F00072CF83E38C0F833108F06DCF61E08C2FBA
:102100000E94BF0868CFA5E0B0E0E9E8F0E10C94D8
:10211000DC208E010F5F1F4F85E0F80111928A9538
:10212000E9F787E4E82E81E0F82E6801AA24A39459
:10213000B12C22E5822E21E0922EF70181917F01C0
:102140008F3F09F440C0F894E82FE295EF70F0E07B
:1021500021A18F70A50102C0440F551F8A95E2F797
:10216000CA01922F982B91A392A18095892382A3D3
:10217000789400C0ECE4F1E0712C31E021912F3F24
:1021800009F44AC0A22FA295AF70B0E090968C914E
:1021900090E02F7002C0959587952A95E2F780FD13
:1021A0003BC0832F782A330F8E169F0639F7F7012D
:1021B000319780818F3F11F00E94A70550EA5A9510
:1021C000F1F7F6017082FFEFCF1ADF0A4CE4E41654
:1021D00041E0F40609F0B1CF45E050E0B80182EDEE
:1021E00091E00E940E21892BD9F085E0F801A2ED43
:1021F000B1E001900D928A95E1F781E08093D101E1
:102200000E94AF039093D0018093CF0110E0812F03
:102210002596EDE00C94F82080E0C4CF10E021C0BA
:102220001091D101112391F3E090CF01F090D001F2
:102230000E94AF038E199F09059740F345E050E0D7
:1022400062ED71E080EE91E00E940E21892B31F366
:1022500085E0E2EDF1E0A0EEB1E001900D928A950B
:10226000E1F71092D101D3CF1F93CF93DF93182FB3
:10227000EB010E94CE0F209739F4812F0E94740F3A
:10228000DF91CF911F9108958FE99FE00197F1F7BA
:1022900000C000002197EFCFEF92FF920F931F93A2
:1022A000CF93DF93C62FD42F122FFC018581882373
:1022B000A9F0609351020E94AF0390935002809363
:1022C0004F02C77081E001C0880FCA95EAF70E94EB
:1022D0006A0FCDB7DEB7E6E00C94FF208091510283
:1022E000681336C0E0904F02F09050020E94AF0396
:1022F0008E199F09883C910558F500E20D0FCD1706
:10230000B9F080E28C0F883040F4C77081E001C0E2
:10231000880FCA95EAF70E94630F083000F581E044
:102320009D2F977001C0880F9A95EAF70E946A0F57
:1023300070E060E0812F0E943411083050F6D770B1
:1023400081E001C0880FDA95EAF70E94630FC1CFE0
:10235000C77081E001C0880FCA95EAF7F6CF70E038
:1023600060E0812F0E943411B4CFA2E0B0E0EBEB2B
:10237000F1E10C94DD20FC012481222309F482C0C8
:102380007C0161E00E94920B8C01F701858188231A
:1023900009F47BC5980137572038310508F0E4C0AF
:1023A000D02EFFE0F01708F45EC08FEF93E00E949C
:1023B0000420811158C008E111E0D11021C01A8316
:1023C00009834AE0842ECE0101960E94E30A882305
:1023D00009F449C0813009F06FC0CE0101960E9416
:1023E000E30A8130D1F4CE0101960E94E30A60E550
:1023F00070E0893311F070E060E00E943411E3CFA7
:10240000011524E0120779F1C8010E94042081110E
:1024100001C0DA940F5F1F4FD0CF823039F4CE0164
:1024200001960E94E30A0E94CE0FCDCF833039F48B
:10243000CE0101960E94E30A0E94740FC4CF84303B
:1024400081F4CE0101960E94E30A10E000E0482FDB
:102450004053550B9A014A305105C0F00115110542
:1024600011F58111B0CF8091A101877059F0F7016A
:102470008581882339F08091FA0182FF03C082E0D0
:102480000E9499082296ECE00C94F920809EC001ED
:10249000819E900D11248901080F191FCE0101960C
:1024A0000E94E30AD4CFEFE9FFE03197F1F700C0D3
:1024B000000001501109D2CFE82FF0E0E850FE4FA4
:1024C0009490282F26952695269530E0F901E8511D
:1024D000FE4FC4908770D12C082E02C0D594C794AB
:1024E0000A94E2F7F1E0CF22DD24F901E852FE4F31
:1024F000A490B12C082E02C0B594A7940A94E2F7D8
:1025000041E0A422BB24F901E853FE4F049110E0FE
:1025100002C0159507958A95E2F701701127C1143D
:10252000D10419F081EE0E94CE0FA114B10419F06C
:1025300086EE0E94CE0F70E060E0892D0E9434117B
:10254000A114B10419F086EE0E94740FC114D104D5
:1025500019F081EE0E94740F0115110509F433CFB3
:1025600070E060E08CE249CF023058E7150709F4CB
:1025700075C0D8F40115E8E71E07B1F10130F8E79E
:102580001F0709F439C0F801E851FC47E730F105AD
:1025900008F08FC0E253FD4E0C94B02046134A134E
:1025A0003B1342134E1352135613043028E71207FD
:1025B00009F440C018F1053048E7140721F790915D
:1025C000E501892F8695869586958F5F8F71977027
:1025D000843008F04DC0880F880F880F892B8093B6
:1025E000E5018091E50112C083E00E948E05809193
:1025F000E5010E949F0A37CF80E0F7CF8091E50187
:10260000982F987F79F088508093E501887F91E03A
:1026100009F490E08091E50190FB80F98093E50159
:102620000E949F0A8091E5018695869586950E9475
:10263000ED0419CF8091E501982F96959695969582
:10264000933040F49F5F990F990F990F8770892BF2
:102650008093E5018091E5018160E0CF8091E50103
:1026600080FF03C00E94A50AFECE0E94B20AFBCEE4
:102670009093E501B6CF26E241EE61EEC7010E94DC
:102680004C11F1CE27E245EE65EEF8CF26E241EEA1
:1026900060EEF4CF27E245EE64EEF0CF26E241EEA5
:1026A00062EEECCF27E245EE66EEE8CF28E241E0AD
:1026B000EBCF882309F4F0C31092510298013057F0
:1026C0002332310508F0A3C384E090E00E940C207F
:1026D0009093FA018093F901F801E150F047E2325A
:1026E000F10508F026C0E958FC4E0C94B020D31335
:1026F0004814DB13A513A913DF13AD13E313EF1372
:10270000B9134114BD13F313C113F7131F14C513E9
:10271000FB132614CB1301140914B113E713B513DB
:10272000EB13CF13051415142F143F149F13D71355
:102730004F148091F90181608093F90195C08091D7
:10274000FA0188608093FA018FC08091F90182605C
:10275000F3CF8091F9018460EFCF8091F901886017
:10276000EBCF8091FA018160EDCF8091FA01826018
:10277000E9CF8091F9018061DFCF8091F90180621A
:10278000DBCF8091F9018064D7CF0E94470C809104
:10279000F9018068D1CF8091F9018860DCCF809108
:1027A000FA018260E0CF8091F9018E7FC5CF8091E0
:1027B000FA01877FC7CF8091F9018D7FBDCF8091CE
:1027C000F9018B7FB9CF8091F901877FB5CF8091D7
:1027D000FA018E7FB7CF8091FA018D7FB3CF8091C0
:1027E000F9018F7EA9CF8091F9018F7DA5CF8091CE
:1027F000F9018F7BA1CF0E94470C8091F9018F775F
:102800009BCF8091F901877FDCCF8091FA018D7F8A
:10281000E0CF8091F90182FB992790F921E092277E
:1028200090FB82F990FB83F987CF8091FA01982F72
:10283000909591708E7F892B90FB81F983CF909139
:10284000F901892F8F7B96FF806476CF0E94470C19
:102850009091F901892F97FB87F980586DCF61E03E
:102860008EE090E00E9422206091F9017091FA01BF
:1028700084E090E00E9440200E94470CF4CD60E08C
:10288000EFCF9091F901892F8F7E94FF806154CF13
:102890009091F901892F8E7F90FF81604DCF9091AB
:1028A000FA01892F877F93FF88604CCF89E20E94CD
:1028B000E8030E94F50BD7CD89E20E94BE03F9CF51
:1028C00081E00E94B00843E062E081E00E946C0871
:1028D000CACD81E00E948C08F6CF82E0F2CF882337
:1028E00081F00330FCE71F0709F483C008F066C0DD
:1028F00001153CE7130709F46FC001301C4709F4C8
:102900007EC0F701858100811181882309F485C08B
:10291000C8010E94340BD82E682FC8010E943208CB
:10292000B8018D2D0E94260B0E94B1068C01982EB5
:10293000F701B580A680A2943FE0A3228091A10177
:10294000877009F1CB2CBB20F9F0812F807F803478
:1029500069F080E2800F8830B0F0812F807E803275
:1029600029F4F1E0F01778F4AA2069F08091FA01D7
:1029700082FF09C082E00E9499088091A1018770BE
:10298000CC24C3948111C12CD12ED2942FE0D22219
:102990002BE02D1508F41BC1ED2DF0E0EE52FB4E9F
:1029A0000C94B020121512154A154A15E015FF15A2
:1029B000E715E71504167416851685160B355CE7C2
:1029C000150749F10C358CE71807D9F00A351C4773
:1029D00009F097CF81E01CC00E94470CEFEFF4E3B1
:1029E0002CE0E150F0402040E1F700C000000E94E0
:1029F0009E036FEF7FEF90E080E00E9440200E94F6
:102A00004D0F8091FA0182FB882780F991E0892798
:102A10000E94DE0B76CF80E0FBCFC8010E94FE074C
:102A2000D82E7ECF312F3F70D32E107F19F0D29445
:102A300090EFD922802FBB20B9F0DD2069F090E221
:102A4000900F983010F0011109C08091CC01D82A64
:102A5000D092CC010E94F50B802F41C08091A30140
:102A6000D82AD092A301F6CF0E94740FDD20C9F1BD
:102A7000005E083010F0911004C08D2D0E94C70731
:102A800006C0D0948091A301D822D092A3010E94C5
:102A9000F50B27C0412F4F70D42E107F103219F044
:102AA000D29480EFD822992051F051E0951609F484
:102AB00067C0BB2009F473C0AA20B1F1CDCF8091CB
:102AC000FA0182FD2DC0BB2029F1DD2039F0809173
:102AD000CC018D298093CC010E94F50B80E00E94EF
:102AE000CE0FCC2009F4BEC08091A10180FDBAC0F8
:102AF000F70115828695869586950E94B008C701D4
:102B00000E94B5118091A1018695869586950E94B7
:102B10008C08A8C080E00E94740FDD2011F3ADCFB7
:102B2000BB2099F0A11004C08D2D0E946A0FD9CF4F
:102B300081E0A812D6CF8091A2019D2D9823D916AD
:102B400081F28D298093A201CCCFA110CACF8D2D07
:102B50000E94630F9091A2018D2D892329F08D2D64
:102B6000809589238093A20190918D018D2D8923D9
:102B700009F4B7CF8D2D8095892380938D01B1CF36
:102B8000BB2029F095E09A1508F4ABCFCDCFE4E057
:102B9000EA1508F4A6CF8D2D0E94630FA2CFAA20BC
:102BA000D1F3093349F4FFEF27EE33E0F150204031
:102BB0003040E1F700C00000802F0E94740F91CFD9
:102BC000812F86958695837041F0813079F088EF6A
:102BD0008D0D843008F085CF41C0C8019370B110CD
:102BE00002C080E090E00E9441047BCFC801937056
:102BF000B11002C080E090E00E941C0472CF6B2DE7
:102C0000802F0E94BF086DCF812F8370C1F5B11056
:102C100025C0402F429546954770440F440F802FA2
:102C20008F70042E01C0880F0A94EAF720E004FF99
:102C300007C02FE030E001C0220F4A95EAF7209547
:102C40001695169513701230A9F090F43091D701B3
:102C5000113069F0822B83230E94BC080E94660415
:102C60000E949B0960E0C7010E94920B0BCC832B52
:102C7000822BF2CF282B8091D7018227EDCF86952A
:102C8000BB2011F0812F8170882341F3402F4295A2
:102C900046954770440F440F802F8F70042E01C05B
:102CA000880F0A94EAF720E004FF07C02FE030E025
:102CB00001C0220F4A95EAF72095169516951370D4
:102CC000123069F050F43091D801113029F0822B84
:102CD00083230E946908C2CF832B822BFACF282B33
:102CE0008091D8018227F5CF1F70BB2039F0812F4A
:102CF0000E94B008802F0E946A0FB0CF802F0E94E0
:102D0000630F812F0E948C08A9CF802F42EF941669
:102D1000E1F1491580F050EF9516F1F091EF991619
:102D2000A1F0BB2009F45FC0AA2009F459C0802F8C
:102D30000E94CE0F4CCFE3EF9E1671F1F4EF9F127D
:102D4000F0CF9091FA0192FD32C0812F8F71BB209C
:102D500001F10E94B0083BCFBB2091F024E02A157E
:102D600008F435CF1F7181E090E0012E01C0880F7B
:102D70000A94EAF79091D80189270E94690827CF21
:102D800035E03A1508F423CFEDCF812F8F71BB20AA
:102D900001F30E948C081BCF80E0BB2071F31F71F0
:102DA00081E0012E01C0880F0A94EAF7E6CFBB202C
:102DB00061F0812F8F7192FFCCCF48E0849F90010A
:102DC000112423602093A101C4CF81E00E949908BF
:102DD00051E05A1508F0FBCE82E00E949908F7CE28
:102DE000812F8F71B6CFAA2079F0893349F48FEF04
:102DF00097EEE3E081509040E040E1F700C0000032
:102E0000802F0E94740FE3CE812F8F71C2CF0631C5
:102E1000FCE71F07A1F48091CC018A7A91E009F4C4
:102E200090E090938C01882309F440CD85E33FCD59
:102E300080918C01882309F43FCD85E33ECD07378F
:102E40005CE7150709F43CCD08379CE7190709F43E
:102E500044CD9801205E32452032310508F03FCD47
:102E600081114FCD0F7181E090E0FC0102C0EE0FA7
:102E7000FF1F0A95E2F78F016E2F83E090E00E941A
:102E80002220802F0E94BC08EECAF801E851FC47BE
:102E9000E730F10508F47ECB06312CE7120741F24A
:102EA00007373CE7130709F414CD08374CE714073C
:102EB00081F682E00FCDCF93DF938091A001807FD8
:102EC00009F04DC080919F01882309F448C0E0912A
:102ED0004E0250911502C0919B01D0919A016091D0
:102EE0009C0170919D0147E05E17C9F18E2F90E023
:102EF000E49FF0011124EA5EFD4F2481222391F129
:102F0000489FF001499FF00D1124DF01AA5EBD4FDB
:102F100011962C9111972C1325C02C912D1322C0A2
:102F200015962C91159721111DC012962D913C914B
:102F3000261B370B283C3105A8F48091A0018F7027
:102F400080618093A001E45EFD4F80818F7080617D
:102F500080838AE991E00E94B5110E94F407DF9115
:102F6000CF910895FC013196E770BECFA4E1B0E0A7
:102F7000ECEBF7E10C94DD208C0186E0F801DE013A
:102F80001F9601900D928A95E1F7F8018481E58002
:102F90009AE9A92E91E0B92E90919E01911128C035
:102FA000882319F1EE20F1F0C8010E94700BF82E71
:102FB0008823C1F087E0F801D50101900D928A9530
:102FC000E1F780919E01813031F480919A019091D6
:102FD0009B010E94630B0E945B178F2D6496ECE0AF
:102FE0000C94F920C8010E94B511FF24F394F5CF89
:102FF000D080C18082809380F0909F0120919C01BD
:1030000030919D01A401421B530BFF2009F4D8C04D
:10301000483C510508F091C08823F9F290919B013A
:103020008091A001282F207F09F055C0C91214C03B
:1030300090919A01D91210C0E11047C08F70806141
:103040008093A0018AE991E00E94B5118091A001CE
:10305000F8018683F12CC1CFE11037C06C2D8D2D86
:103060000E9426026C2D8D2D0E942602E82E8111D1
:10307000F1CFDF86C88A8F8598890E94630B292F3C
:1030800022952F70243058F49F70223080F09923BD
:1030900091F0F8019681907F71F4FE2C9ECF2A501A
:1030A000223068F0C8010E94B511EF2CF6CF9923A9
:1030B00011F0882391F3805E8830A0F7EECF803F37
:1030C00060F3815F833070F7E8CF8091A001816069
:1030D0008093A001BFCFC91207C090919A01D91265
:1030E00003C0EE2009F48DC0C8010E94700B882334
:1030F00009F478CFEE2009F475CF8091A0018032D9
:1031000088F020919A0130919B01398728879B860E
:103110008A8690919E019C871D868E87CE01089697
:103120000E94B51187E0F801AAE9B1E001900D9283
:103130008A95E1F70E945B1758CF9091A001292F43
:10314000207F51F48AE991E00E94B51187E0F501F2
:1031500011928A95E9F77ECF882309F43ECF8091BA
:103160009B018C1110C080919A01D8120CC0E11003
:103170000AC09683C8010E94B51187E0F50111923B
:103180008A95E9F72ACFC8010E94700B882309F4B9
:1031900029CFEE2009F426CF8091A001803210F2D1
:1031A00020919A0130919B013A8329839C828B82E2
:1031B00090919E019D831E828F83CE010196B0CF98
:1031C000483C5105D0F6882309F40FCFFE2CEE20A1
:1031D00009F408CF80919B018C1120C080919A0145
:1031E000D8121CC08091A00180FD0FC0982F907F45
:1031F00061F08683903F31F0982F907F905F8F70C1
:10320000892B8683C8010E94B51187E0F801AAE9DD
:10321000B1E001900D928A95E1F7DFCEC8010E94DE
:10322000700B81117FCF8091A00181608093A001FC
:10323000C8010E94B511D1CEABE1B0E0E2E2F9E104
:103240000C94E6204E8B5F8B688F798F8A8F9B8FD3
:1032500091111092A3011D8A86E0FE017696DE018F
:103260001F9601900D928A95E1F78B89882351F082
:1032700061E0CE010F960E94920B61E0CE010F96A5
:103280000E94920B87E0FE013F96DE0118960190A6
:103290000D928A95E1F7CE0108960E94B61781112A
:1032A0002AC087E0FE013896DE01119601900D924A
:1032B0008A95E1F78C858823F1F02091150230E0A2
:1032C000C90101968770992740914E024817190647
:1032D00059F197E0929FD001939FB00D1124AA5EFF
:1032E000BD4FFE01319601900D929A95E1F78093C2
:1032F00015020E94F40717E080914E02909115028A
:103300008917F9F0819FC00111248A5E9D4F0E94A8
:10331000B6178823B1F080914E0290E00196877035
:10332000992780934E02E8CF0E94470C1092150215
:1033300010924E0287E0EAE9F1E0DF011D928A95E2
:10334000E9F76B96E3E00C940221A6E0B0E0EBEA2B
:10335000F9E10C94E5200E94AF038C018091CD012E
:103360009091CE018017910781F019821A820E94F4
:10337000AF03682F49815A81792F80E090E00E9445
:103380001C191093CE010093CD012696E4E00C9415
:1033900001211F920F920FB60F9211242F933F938A
:1033A0004F935F936F937F938F939F93AF93BF934D
:1033B000CF93EF93FF93C091E900CF708091EC0021
:1033C0001092E9008091F000877F8093F00078945C
:1033D0000E94780C1092E9008091F0008860809340
:1033E000F000C093E900FF91EF91CF91BF91AF91B1
:1033F0009F918F917F916F915F914F913F912F910D
:103400000F900FBE0F901F9018951F920F920FB63E
:103410000F9211242F933F934F935F936F937F935A
:103420008F939F93AF93BF93EF93FF938091E100AE
:1034300082FF09C08091E20082FF05C08091E10017
:103440008B7F8093E1008091DA0080FF24C080911F
:10345000D80080FF20C08091DA008E7F8093DA0050
:103460008091D90080FFA9C080E189BD82E189BD3A
:1034700009B400FEFDCF81E080930B028091000231
:10348000811109C00E9445020E94E4028091E2007D
:1034900084608093E2008091E10080FF1AC08091F7
:1034A000E20080FF16C08091E2008E7F8093E200F0
:1034B0008091E20080618093E2008091D800806278
:1034C0008093D80019BC85E080930B0283E0809341
:1034D0000D018091E10084FF2FC08091E20084FF04
:1034E0002BC080E189BD82E189BD09B400FEFDCF1A
:1034F0008091D8008F7D8093D8008091E1008F7EED
:103500008093E1008091E2008F7E8093E2008091C1
:10351000E20081608093E20080910C02882309F42C
:1035200052C084E080930B0280910B02843009F436
:1035300052C081E080930D018091E10083FF2CC097
:103540008091E20083FF28C08091E100877F809313
:10355000E10082E080930B0210920C028091E10066
:103560008E7F8093E1008091E2008E7F8093E20065
:103570008091E20080618093E20042E060E080E0C0
:103580000E94B2028091F00088608093F00081E098
:1035900080930D0180930C01FF91EF91BF91AF914A
:1035A0009F918F917F916F915F914F913F912F915B
:1035B0000F900FBE0F901F90189519BC10920B0220
:1035C0001092000268CF8091E30087FD02C081E085
:1035D000A9CF83E0A7CF82E0ADCF78941F920F925E
:1035E0000FB60F9211248F939F93AF93BF93809147
:1035F000FC019091FD01A091FE01B091FF010196A7
:10360000A11DB11D8093FC019093FD01A093FE01CB
:10361000B093FF01BF91AF919F918F910F900FBE1B
:103620000F901F9018951F920F920FB60F921124B2
:103630008F939F93AF93BF938091FB01811113C030
:103640008091FC019091FD01A091FE01B091FF01DC
:103650004196A11DB11D8093FC019093FD01A093A3
:10366000FE01B093FF01BF91AF919F918F910F9099
:103670000FBE0F901F901895A6E2B0E0E2E4FBE1C8
:103680000C94D72085B7806885BF85B7806885BFD3
:1036900084B7877F84BF0FB6F894A89580916000A7
:1036A000886180936000109260000FBE80E890E017
:1036B0000FB6F89480936100909361000FBE81E093
:1036C00080930D0185EA95E09093630180936201F8
:1036D0000E9445020E94E4028091E200846080938F
:1036E000E200789480910B02882399F01091E90010
:1036F0001F708091EC0080FFDAC080E8182B1092D8
:10370000E9008091E80083FD0E94780C1F701093FF
:10371000E90082E084BD93E095BD9AEF97BD809368
:103720006E000E94CA0A811102C00E948F0A07E43B
:1037300011E0D8018D918D018F3F11F00E94A705F6
:10374000B1E00C341B07A9F70CE411E052E5E52EBB
:1037500051E0F52EF80181918F018F3F11F00E9409
:10376000A705E016F106B1F785E0E0EEF1E0DF0134
:10377000282F1D922A95E9F7E2EDF1E0DF011D9275
:103780008A95E9F790E080E00E940C20853E9E4FEC
:1037900021F40E94CA0A811163C065EE7EEF90E0B9
:1037A00080E00E94402060E082E090E00E942220C1
:1037B00081E08093D70161E083E090E00E942220C5
:1037C00060E074E184E090E00E94402060E086E0E8
:1037D00090E00E94222060E087E090E00E9422209A
:1037E00040E050E0BA0188E090E00E94342060E0C0
:1037F00083E290E00E94222060E08CE090E00E9452
:10380000222060E08DE090E00E94222019821A823E
:103810001B821C821D821E821F82188648E050E097
:1038200067E170E0CE0101960E94122040E050E076
:10383000BA018FE190E00E94342080E00E940C0ADF
:103840000E948F0A40E050E0BA018FE090E00E94B1
:10385000342040E050E0BA0183E190E00E9434203F
:1038600082E090E00E9404208093D90184E090E0FF
:103870000E940C209093FA018093F9010E9483101A
:10388000EFEFF6E721E0E150F0402040E1F700C023
:1038900000000E9483108091E00180FF0AC06FEF5A
:1038A0007FEF90E080E00E9440200E949E0380E035
:1038B00025CF83E090E00E9404200E94BC08559A26
:1038C0005D9A209A289A259A2D9882E88093800004
:1038D00089E1809381008FEF9FEF90938700809321
:1038E00086000E94BD0B0E94BD0B80E091E090938A
:1038F000F6018093F50138E1432E512C4FEDC42E93
:1039000041E0D42EBB24B3948E010F5F1F4F8091F2
:103910000B02853069F480910B02853009F459C09F
:103920000E94470C0E94BD0B0E9466040E949B09E6
:103930000E9483109AEDE92E91E0F92E20EE822E5E
:1039400021E0922ED401F70191918D91CE16DF06E0
:1039500009F477C09817C1F3712CF40161904F01FD
:10396000D7012D907D01261421F1A12C332433940D
:103970002624822D8321A9F0A9A27AA20E94AF0356
:103980009CA38BA3B1E0BDA391E0862D832109F414
:1039900090E09EA349A15AA16BA17CA18DA10E9498
:1039A0001C19A394330CE6E0AE12E3CFF701319774
:1039B00060827394F5E07F12D0CF8FB7F894409176
:1039C000FC015091FD016091FE017091FF018FBFDC
:1039D0003CC080910B02843041F180E00E948E0552
:1039E00080E00E949B091092FB0180E40FB6F894DE
:1039F000A895409260000FBE8093600083B7817FDE
:103A0000846083BF83B7816083BF7894889583B7D0
:103A10008E7F83BF0FB6F894A8958091600088616F
:103A200080936000109260000FBE0E948310E0EE51
:103A3000F1E081918111B9C291E0E53EF907C9F742
:103A40006ACF981389CF0E94A51986E0EDEEF1E0C8
:103A5000D80101900D928A95E1F76090EE01909067
:103A6000EF018090F0017090F101A090F2011092AE
:103A7000EF011092F0011092F1011092F2019110F9
:103A800003C0882009F447C0E090EB01F090EC01FE
:103A90000E94AF039C012E193F099091E6019923E2
:103AA00009F4A8C225313105B0F19F3F19F09F5F9D
:103AB0009093E601992059F00E94BF0491E01914F7
:103AC0000CF09FEF899F802D11248093EF018820B7
:103AD00059F00E94BF049FEF18140CF491E0899FE5
:103AE000802D11248093F0018091EF01882399F0BB
:103AF000F090F001FF2079F00E94DF04882309F4A0
:103B000073C08093EF018F2D0E94DF04882309F496
:103B10006EC08093F001711003C0AA2009F445C063
:103B2000E090E901F090EA010E94AF039C012E1998
:103B30003F099091E701992309F461C221353105CC
:103B4000A0F19F3F19F09F5F9093E701772059F014
:103B50000E949D0491E017140CF09FEF899F802D27
:103B600011248093F101AA2059F00E949D049FEF37
:103B70001A140CF491E0899F802D11248093F20196
:103B80008091F101882389F0F090F201FF2069F023
:103B90000E94DF04882371F18093F1018F2D0E9430
:103BA000DF04882351F18093F2018091EE016812C5
:103BB00027C08091EF01882311F0981221C08091D5
:103BC000F001882311F088111BC08091F201882335
:103BD00011F0A81215C09091F101992319F081E01C
:103BE00097110FC080E00DC0B092EF018CCFB09262
:103BF000F00191CFB092F101D1CFB092F201D5CFC7
:103C000081E080FD13C08091EF0181116AC0809135
:103C1000F001811166C08091F101811162C081E0E3
:103C20009091F201911101C080E080FD0E94730427
:103C300086E0F801ADEEB1E001900D928A95E1F7D2
:103C40000E9466049091DF01891779F08093DF016B
:103C50009FB7F8944091FC015091FD016091FE01E5
:103C60007091FF019FBF0E949B0980910B028430DD
:103C700009F04DCE83E08093E9008091E80082FF57
:103C800046CE8091E80090E085FF05C00E94640266
:103C9000882349F191E08091E8008B778093E800D8
:103CA000992309F434CE8981EFEFE80FE33108F06E
:103CB00041C0F0E0E25AF14E0C94B0208F1E931EEA
:103CC000D71EF21EF81E031F061F061F061F9A1E90
:103CD0009A1E3B1F3E1F421F681F8B1F8E1F911F86
:103CE000B51F81E0A2CF80E2882E912C78018091CF
:103CF000E80085FD0AC08091E8008B778093E8009A
:103D00000E946402882399F3C5CF8091F100D70106
:103D10008D937D01B1E08B1A910849F7BBCF1A82D0
:103D20008CE08B833DC08A81823009F45BC128F42A
:103D3000813061F08FEF898333C08330B9F08430F4
:103D4000C9F71B821C821D821E822AC02FB7F894DD
:103D50008091FC019091FD01A091FE01B091FF01C5
:103D60002FBFBB83AC839D838E831AC03B81D80158
:103D700020E0832F90E0801B910BAC014A0F5B1F6A
:103D8000453051056CF4E32FE20FF0E0E052FE4FB6
:103D9000408113964C9313972F5F11962C3169F73E
:103DA00040E250E0B80182E00E94A809B0CD8A81CB
:103DB000823051F0853009F0BDCF8091E50180FF60
:103DC0000EC00E94A50AECCF6B817C818D819E8103
:103DD0000E94B62087E290E00E942220E1CF0E945C
:103DE000B20ADECF4C816B818A810E94F70ABBCF79
:103DF0002D813E813227232732274C816B818A8196
:103E00000E94350ACDCF0E945C0ACACF9A819130B8
:103E100009F090CF883099F0893041F18B81813061
:103E200009F0BECF8C81E3E08E9FC00111246FEFBB
:103E300070E00E946620862F0E948E05B1CF8B8194
:103E4000813029F0823009F0ABCF1C82A9CF80915C
:103E5000E501869586958695FFEF8F9FC001112419
:103E600063E070E00E9466206C839ACF8091E50148
:103E70000E949F0A95CF20E12A8392CF82E08A8315
:103E800088EE4FCFEA80FB80FE24EF24FE248C8056
:103E9000912C3801C701885E9E4F9301201B310B86
:103EA0002815390508F07CCFA8EEEA16A2E0FA063C
:103EB00058F40E940420F3018483BFEFEB1AFB0A3D
:103EC000EFEF6E1A7E0AE6CFD30114961C92F5CF5F
:103ED000EA80FB80FE24EF24FE248C80912C3801A4
:103EE000C701885E9E4F9301201B310B28153905B1
:103EF00008F056CFF8EEEF16F2E0FF0628F4D301F3
:103F000014966C910E942220BFEFEB1AFB0AEFEF90
:103F10006E1A7E0AE5CF0E94250A42CF84E08A838A
:103F20003FCFEA80FB80FE24EF24FE248C80912C7E
:103F30003801C70188969301201B310B28153905DC
:103F400008F02ECFF0EFEF16F10460F40E94042089
:103F5000D30114968C93FFEFEF1AFF0A2FEF621A2A
:103F6000720AE7CFF3011482F6CFEA80FB80FE24C9
:103F7000EF24FE248C80912C3801C7018896930190
:103F8000201B310B2815390508F00ACFA0EFEA16DF
:103F9000F10420F4F30164810E942220FFEFEF1A64
:103FA000FF0A2FEF621A720AE8CF80910A02882373
:103FB00009F4B1CCA0E1A9BDB2E1B9BD09B400FEDC
:103FC000FDCF8091D8008F7D8093D8008091E00054
:103FD00082608093E0008091E00081FDFCCF0E9430
:103FE000470C99CC87E290E00E9404201B821C823F
:103FF0001D82BACE2B30310508F059CD8CCD2B3037
:10400000310508F0A0CDD1CDF999FECF92BD81BD8B
:10401000F89A992780B50895A8E1B0E042E050E011
:104020000C944820DC01A40FB51F4150504048F0CB
:10403000CB01840F951F2E910E94232041505040A8
:10404000D0F70895262FF999FECF92BD81BDF89A39
:10405000019700B4021639F01FBA20BD0FB6F894CC
:10406000FA9AF99A0FBE08950396272F0E942320EB
:104070000E942220252F0E942320242F0C942320ED
:104080000196272F0E9423200C942220DC01CB01D3
:10409000FC01F999FECF06C0F2BDE1BDF89A319658
:1040A00000B40D9241505040B8F70895DB018F9352
:1040B0009F930E94CC20BF91AF91A29F800D911D34
:1040C000A39F900DB29F900D11240895AA1BBB1BB6
:1040D00051E107C0AA1FBB1FA617B70710F0A61B08
:1040E000B70B881F991F5A95A9F780959095BC0129
:1040F000CD01089597FB072E16F4009407D077FDA5
:1041000009D00E94662007FC05D03EF49095819569
:104110009F4F0895709561957F4F0895A1E21A2EE3
:10412000AA1BBB1BFD010DC0AA1FBB1FEE1FFF1F5B
:10413000A217B307E407F50720F0A21BB30BE40BAB
:10414000F50B661F771F881F991F1A9469F76095F2
:104150007095809590959B01AC01BD01CF010895AC
:10416000EE0FFF1F0590F491E02D09946927962723
:1041700069277827872778270895A29FB001B39FE2
:10418000C001A39F700D811D1124911DB29F700D60
:10419000811D1124911D08950E94BD20A59F900DA1
:1041A000B49F900DA49F800D911D112408952F920E
:1041B0003F924F925F926F927F928F929F92AF92B7
:1041C000BF92CF92DF92EF92FF920F931F93CF9304
:1041D000DF93CDB7DEB7CA1BDB0B0FB6F894DEBF9B
:1041E0000FBECDBF09942A88398848885F846E84C1
:1041F0007D848C849B84AA84B984C884DF80EE800B
:10420000FD800C811B81AA81B981CE0FD11D0FB613
:10421000F894DEBF0FBECDBFED010895FB01DC01B8
:1042200004C08D910190801921F441505040C8F78D
:0A423000881B990B0895F894FFCF46
:10423A00BB03F809F109EA09E309000001008182D8
:10424A0083E200E900EA00B500B600B700CD0083BA
:10425A0001CC008A01920194012102230224022541
:10426A0002260227022A02B300B4006F0070009FE0
:10427A0001CB019F02A002F73133323634C697666A
:10428A0094904422B684016201AC007A039303B38A
:02429A0003001F
:00000001FF
