:100000000C944D030C9485030C9485030C94850388
:100010000C9485030C9485030C9485030C94850340
:100020000C9485030C9485030C94FC2F0C94CE3017
:100030000C946B2A0C9485030C9485030C94850313
:100040000C9485030C9485030C9485030C94850310
:100050000C9485030C94102B0C9485030C9485034D
:100060000C9485030C9485030C9485030C948503F0
:100070000C9485030C9485030C9485030C948503E0
:100080000C9485030C9485030C9485030C948503D0
:100090000C9485030C9485030C9485030C948503C0
:1000A0000C9485030C9485030C948503180618069C
:1000B00044064406A506C306A407A407C8063007DD
:1000C00041074107F01AFB1A001B061B0B1B101BF4
:1000D000151B1A1B1F1B241B291B2E1B331B381B14
:1000E0003D1B421B471B4C1B511B561B5B1B601BC4
:1000F000651BDA1BB41C2F1F321F371F3E1F431F07
:10010000481F4D1F521F571F5C1F611F661F681F2E
:100110006A1F6C1F6F1F6F1F6F1F6F1F6F1F6F1F77
:10012000B6212822BE2188218C21C2218F21C52100
:10013000D0219A211E229E21D421A221D82102223F
:10014000A621DC210C22AC21E221EC219321C92142
:100150009621CC21B121E721F82118221A228421ED
:10016000BA2131222C2632262026262638263E2663
:100170004426C927CC27032816281E2829282C28DE
:100180002C282C287428742831283428392846280B
:10019000532856285A28672836315D3155325D314B
:1001A0005532A931CC315532233232322B00140072
:1001B0001A000800150017001C0018000C0012009F
:1001C00013002A00290004001600070009000A0095
:1001D0000B000D000E000F0033003400E1001D0085
:1001E0001B00060019000500110010003600370042
:1001F000380028002078E000E200E30022522C00C2
:100200002C0021525000510052004F0035021E02B6
:100210001F022002210222022302240225022602BA
:1002200027022A004C003A003B003C003D003E0003
:100230003F002D022E022F02300231020100400049
:1002400041004200430044004500320264024A007B
:100250004D000100007C01000100010001000100CF
:1002600001000100AB00AA00A900AE0035001E008D
:100270001F0020002100220023002400250026006A
:1002800027002A004C003A003B003C003D003E00A5
:100290003F002D002E002F003000310001004000F3
:1002A00041004200430044004500320064004B001E
:1002B0004E00010021780100010001000100010051
:1002C00001000100AB00AA00A900AE00010001007E
:1002D0000100010001000100010001000100010016
:1002E0000100010001000100010001000100010006
:1002F00001000100010001000100010001000100F6
:1003000001000100010001000100010001000100E5
:1003100001000100010001000100010001000100D5
:1003200001000100010001000100010000010101C4
:1003300001010101010102020202020202020203A2
:100340000303030303030304040404040404050572
:100350000505050606060606070707070708080835
:1003600008090909090A0A0A0B0B0B0C0C0C0D0DE4
:100370000D0E0E0E0F0F0F1010111111121213137C
:100380001414151516161717181819191A1A1B1BF5
:100390001C1D1D1E1E1F2020212222232424252651
:1003A00026272829292A2B2C2D2D2E2F3031323289
:1003B000333435363738393A3B3C3D3E3F40414295
:1003C000434445464748494A4C4D4E4F505153547B
:1003D000555658595A5B5D5E5F616264656668692F
:1003E0006B6C6D6F7072737577787A7B7D7E8082AF
:1003F000838587888A8C8E8F91939596989A9C9EF8
:10040000A0A2A3A5A7A9ABADAFB1B3B5B7BABCBE07
:10041000C0C2C4C6C9CBCDCFD1D4D6D8DBDDDFE2D4
:10042000E4E7E9EBEEF0F3F5F8FAFDFF0000000079
:10043000000000002A2B280000000000000000003F
:100440000000000000000029000000002C1E3420E5
:10045000212224342627252E362D3738271E1F200B
:100460002122232425263333362E37381F04050650
:100470000708090A0B0C0D0E0F1011121314151694
:100480001718191A1B1C1D2F3130232D3504050692
:100490000708090A0B0C0D0E0F1011121314151674
:1004A0001718191A1B1C1D2F3130354C0000000085
:1004B000000000000000000000000000000000003C
:1004C000000000000000000000000000000000002C
:1004D0007E0F00D4FFFFFFC7000000781403540014
:1004E0006500630068006E0069006B002D004F001E
:1004F0000000180342006F00610072006400730086
:100500006F007500720063006500000004030904B9
:1005100009025B00030100A0FA09040000010301C5
:10052000010009211101000122440007058103088F
:10053000000109040100020300000009211101006B
:100540000122220007058203200001070503032082
:10055000000109040200010300000009211101004B
:100560000122B600070584032000011201000200E9
:10057000000008734279000001010200010660FFDB
:100580000961A1010962150026FF00952075088107
:10059000020963150026FF00952075089102C00529
:1005A000010902A10185020901A10005091901291A
:1005B000081500250195087501810205010930091A
:1005C000311581257F950275088106093815812529
:1005D0007F950175088106050C0A38021581257F73
:1005E000950175088106C0C005010980A101850338
:1005F00019012AB700150126B70095017510810071
:10060000C0050C0901A101850419012AA0021501E8
:1006100026A002950175108100C005010906A101FF
:100620008506050719E029E71500250195087501DC
:1006300081020507190029EF1500250195F07501C4
:100640008102050819012905950575019102950199
:1006500075039101C005010906A101050719E029EB
:10066000E71500250195087501810295017508813E
:10067000010507190029FF150026FF0095067508DA
:100680008100050819012905150025019505750149
:100690009102950175039101C00011241FBECFEF97
:1006A000DAE0DEBFCDBF04B603FE18C0809144057A
:1006B00090914505A0914605B09147058730904B34
:1006C000A740B04B59F41092440510924505109282
:1006D000460510924705E0E0F8E3099512E0A0E036
:1006E000B1E0E2EBF6E602C005900D92A43AB10744
:1006F000D9F725E0A4EAB2E001C01D92A434B20704
:10070000E1F70E941B130C9457330C9400008430C3
:10071000B0F46430A0F44C3090F490E3899FF00181
:1007200011248CE0689FE00DF11D1124E40FF11DF0
:10073000EE0FFF1FE455FE4F85919491089581E0DF
:1007400090E0089581E0089581E008950E94A40357
:1007500008950E94A60308950E94A4030895089591
:100760000E94AF030895A6E0B0E0E9EBF3E00C943B
:10077000C73249835A839E833091AB0289819A8123
:10078000311115C03E81332359F0222349F00E94D4
:100790003E09182F682F89819A810E941A0903C087
:1007A0000E942C09182F69817A81812F04C00E9430
:1007B0003E0969817A810E948B102696E3E00C94B1
:1007C000E332FC01262F4081518162817381848153
:1007D00095810E94B3030895CF93DF93EC0161E00C
:1007E0000E94E103BE010E94A903DF91CF91089509
:1007F000CF93DF93EC0160E00E94E103BE010E9411
:10080000B003DF91CF91089581E008950E94040420
:100810000895CF93C82F0E9415088C2F0E940604BC
:100820002FEF84E39CE0215080409040E1F700C02E
:100830000000CF91089581E00E9409040E94362BA8
:10084000089580E00E9409040E945A2B08950F9396
:100850001F93CF93DF938C0161E00E94E103EC01D1
:10086000B8010E941027882309F457C0B801CE01AF
:100870000E94AC03882309F450C0B801CE010E9445
:100880001426882309F449C0B801CE010E946021D2
:10089000882309F442C0B801CE010E943621882382
:1008A000E1F1B801CE010E94181F8823B1F1B8010F
:1008B000CE010E945726882381F1F8018581882383
:1008C00041F1C3308CE7D807D1F040F4C115FCE703
:1008D000DF0791F0C130DC47A1F01BC0CB35ECE75E
:1008E000DE07A9F0CC35FCE7DF0771F0CA35DC473D
:1008F00081F40E94C50D0DC00E941B040EC00E9411
:10090000CD0D0E94210409C00E94BB0D02C00E94AF
:10091000C90DC8010E94A20301C080E0DF91CF9100
:100920001F910F9108950E94432A0E94491A0E9424
:10093000C20481E00E94951D08950E94C60480E0D3
:100940000E94951D0E944C2A0895089581E0089503
:100950000895CF93DF93D82F0E94A604C82F882331
:1009600019F08D2F0E94A8048C2FDF91CF9108954C
:100970000895CF93C82F0E94A5048C2F0E94A9042C
:10098000CF91089580E00E94B90408950E948428C0
:100990000E94B9040895CF930E948428C82F8091A3
:1009A000A602C81779F0C093A6020E94D92A6093C4
:1009B000A7027093A8028093A9029093AA028C2F99
:1009C0000E94B904CF910895ADE0B0E0EAEEF4E002
:1009D0000C94C832488759876A877B878C879D87A4
:1009E00091110E94C70CCE01019627E0FC011192E3
:1009F0002A95E9F726E0FE013896DC0101900D9278
:100A00002A95E1F72D8121110AC029813A814B8174
:100A10005C816D817E818F810E94110C04C00E94D7
:100A2000EC038111F2CF2D96E2E00C94E432FC014C
:100A30002481213021F4808191810E946B090895E5
:100A4000662319F00E94D02202C00E9441230E9416
:100A5000B8230895CF93882309F444C0C82F8CEF9E
:100A60008C0F813A70F48C2F0E942029882329F062
:100A70008C2F0E94C0290E944E0D8C2F0E94A92904
:100A80000CC080E28C0F883058F4C77081E001C040
:100A9000880FCA95EAF70E94AA0C0E944E0D22C048
:100AA000EBE5EC0FE33040F4F0E0E75CFD4F8081D4
:100AB00090E00E94B82816C0E8E5EC0FEB3150F446
:100AC000F0E0EE0FFF1FED5FFD4F808191810E94EE
:100AD000DD2808C083E38C0F833120F461E08C2F84
:100AE0000E942005CF910895882381F19CEF980FF3
:100AF000913A18F40E94C0290DC090E2980F9830E6
:100B000060F4877091E001C0990F8A95EAF7892F08
:100B10000E94B00C0E944E0D08959BE5980F9330F3
:100B200028F480E090E00E94B828089598E5980F96
:100B30009B3128F480E090E00E94DD28089593E343
:100B4000980F933118F460E00E94200508951F93D8
:100B5000CF93DF93182FEB010E942A05209741F0D5
:100B60008FE99FE00197F1F700C000002197F6CFD1
:100B7000812F0E947405DF91CF911F9108958933D1
:100B800019F060E070E002C060E570E00E94A70527
:100B90000895882321F00E94AA0C0E944E0D08950A
:100BA000882321F00E94B00C0E944E0D0895A0E011
:100BB000B0E0EDEDF5E00C94C2327C01162FC72FAA
:100BC000FC01D581068102950F700E94A00C88233C
:100BD000F9F0DD23E9F08C2F807F803461F080E232
:100BE000810F8830A8F08C2F807E803221F4123063
:100BF00078F0002369F08091680482FF09C082E0E8
:100C00000E948F0D0E94A00C91E0D82ED92601C021
:100C1000D12CCC2EC2948FE0C8228C2D90E08C3049
:100C2000910508F091C1FC01EA5AFF4F0C94AB32D8
:100C30008C2F807FCF70882311F0C295C07FDD2379
:100C400099F0CC2309F46CC180E2810F883010F058
:100C5000111104C08C2F0E94AA0C03C08C2F0E947B
:100C6000BA0C0E944E0D5CC1812F0E947405CC23EA
:100C700009F46AC180E2810F883038F1112329F12B
:100C80008C2F0E94C00C24C08C2F807FCF708032AC
:100C900011F0C295C07F112319F0113099F13CC0B9
:100CA0008091680482FD17C0DD2349F0CC2329F030
:100CB0008C2F0E94AA0C0E944E0D80E032C180E071
:100CC0000E947405CC2309F43FC18C2F0E94B00C04
:100CD0000E944E0D39C1DD2349F0002309F1013096
:100CE00009F032C18C2F0E94D10C2EC101112CC1F0
:100CF0008C2F0E94D0058C2F0E94DD0C8C2F0E941F
:100D0000620D22C1DD2321F0063008F01DC108C0AC
:100D1000053008F019C115C0DD2331F0011100C103
:100D20008C2F0E94C90510C1002359F0193309F016
:100D300008C1FFEF27EE83E0F15020408040E1F74B
:100D4000FEC08C2F0E94D005FFC08C2F8695869503
:100D5000837019F0813061F0F7C0DD2321F0812F1D
:100D60009C2F937002C080E090E00E94B828F4C0ED
:100D7000DD2321F0812F9C2F937002C080E090E052
:100D80000E94DD28E9C06D2F812F0E942005E4C05C
:100D90008C2F837079F5D111DBC0412F4295469598
:100DA0004770440F440F212F2F70042E01C0220FD3
:100DB0000A94EAF714FF08C08FE090E001C0880FA2
:100DC0004A95EAF7809501C080E0C695C695C37044
:100DD000822BC23049F058F4C13019F00E946C08DF
:100DE000B7C00E946608B4C00E947208B1C00E94D9
:100DF0006308AEC0DD2319F08C2F817001C0869589
:100E0000882309F4A5C0412F429546954770440FA9
:100E1000440F212F2F70042E01C0220F0A94EAF7ED
:100E200014FF08C08FE090E001C0880F4A95EAF7F0
:100E3000809501C080E0C695C695C370822BC230F4
:100E400049F058F4C13019F00E94B80881C00E94DE
:100E5000B2087EC00E94BE087BC00E947B0878C09A
:100E6000CF70DD2339F08C2F0E948D08812F0E94D6
:100E7000C9056EC0812F0E94D0058C2F0E94990851
:100E800067C0123F21F128F4103F41F0113FC1F03B
:100E900043C0133F19F1143F79F03EC0DD2341F008
:100EA000053008F051C08C2F8F710E94A6084CC0ED
:100EB000063008F049C0F7CF8091680482FD18C061
:100EC000DD2339F08C2F8F710E948D083DC0DD230A
:100ED000C9F38C2F8F710E94990836C0DD2329F049
:100EE0008C2F8F710E9484082FC00E9480082CC014
:100EF000DD2349F0CF718C2F0E948D0863E08C2F89
:100F00000E94710D21C081E00E948F0D0230E0F03F
:100F100082E00E948F0D18C0DD2331F0002391F292
:100F2000812F0E942A0510C0002399F2193349F439
:100F30009FEFE7EEF3E09150E040F040E1F700C0B2
:100F40000000812F0E94740588EF8C0D843020F4FE
:100F50000E9484280E94B904DD2089F00E949C0C24
:100F600080FD0DC0F70115820E94960C0E948D082D
:100F7000C7010E94DC070E94960C0E949908CDB719
:100F8000DEB7E8E00C94DE320F931F93CF93DF932C
:100F9000EC01688179818D810E9476098C010E9423
:100FA000C4080E945608B801CE010E94D705DF91FF
:100FB000CF911F910F910895CF93DF93FC0124816E
:100FC0002223D1F0EC010E94270481110FC00E945E
:100FD000A00C882389F08D81882371F080916804AA
:100FE00082FF0AC082E00E948F0D06C0CE010E94DF
:100FF000C407CE010E94F803DF91CF91089580E0ED
:1010000090E00E94B82880E090E00E94DD280E94D5
:10101000C70C0E944E0D0E94D7230E94B82308954A
:101020000E94D7290E94FF0708950E94B70C0E94D2
:101030001008089592959F70963079F010F49250B0
:1010400001C09A50923068F4803F69F018F4883EED
:1010500040F409C0843F29F406C0883E20F0813F57
:1010600011F080E0089581E00895FC01248122239D
:1010700039F0808191810E946B090E941A080895BD
:1010800080E00895A6E0B0E0E8E4F8E00C94C8320F
:101090002696E2E00C94E432A7E0B0E0E2E5F8E066
:1010A0000C94C8322796E2E00C94E4320895089537
:1010B0000E94570808950E94580808950E945B08EE
:1010C0008093BF0208950E945E0808959091BF0228
:1010D000892B0E945E0808959091BF0289230E9487
:1010E0005E0808959091BF0289270E945E080895C6
:1010F0000E94570808950E9478088093BE020895C0
:1011000080E00E947B08089591E001C0990F8A95C4
:10111000EAF7892F0E947B08089521E030E001C0A2
:10112000220F8A95EAF78091BE02822B0E947B08EB
:10113000089521E030E001C0220F8A95EAF720955A
:101140008091BE0282230E947B08089521E030E056
:1011500001C0220F8A95EAF78091BE0282270E9481
:101160007B0808959091BE02892B0E947B08089508
:101170009091BE0289230E947B0808959091BE023F
:1011800089270E947B0808950895962F9770A1E003
:1011900001C0AA0F9A95EAF793E0769567959A951C
:1011A000E1F7FB01EE0FFF1F6E0F7F1FFA01E60F45
:1011B000F71F40E050E0682F70E090819B01042E03
:1011C00002C0369527950A94E2F7217021952927C8
:1011D0002A23292721934F5F5F4F4330510569F739
:1011E00008959B01782F777043E0969587954A95EF
:1011F000E1F7FC01EE0FFF1F8E0F9F1FF901E80FB3
:10120000F91F40E050E080E0219130E0072E02C05D
:10121000369527950A94E2F721703327042E01C0F2
:10122000220F0A94EAF7822B4F5F5F4F433051053C
:1012300059F70895282F943070F48C3060F4862F7D
:10124000622F70E02CE0929F600D711D11244CEA1A
:1012500052E00E94C5080895943070F48C3060F418
:10126000292F90E06CEA72E03CE0239F800D911DF5
:1012700011240E94F108089580E00895CF92DF9232
:10128000FF920F931F93CF93DF936C010091BE02E7
:101290008091BF02082BC3E0D0E010E0C8010C2E03
:1012A00002C0959587950A94E2F780FD04C02197C6
:1012B000A8F7F12C07C0FC2EB6018C2F0E949710C6
:1012C0000197A9F38F2DDF91CF911F910F91FF907F
:1012D000DF90CF900895CF93DF93EC010E943E09F9
:1012E000BE010E949710DF91CF9108951F93CF9375
:1012F000DF93EB019091AB02992321F0CB010E9487
:101300006B0913C0882349F0CB010E943E09182FB6
:10131000682FCE010E941A0904C0CB010E942C093B
:10132000182FBE01812F0E949710DF91CF911F913E
:101330000895E1E0F0E0DF0102C0AA0FBB1F6A954B
:10134000E2F7BD01DF0102C0AA0FBB1F4A95E2F719
:10135000AD01462B01C0EE0F2A95EAF7942F982392
:10136000491302C08E2B0895E0958E230895242FF3
:10137000462F682F8091BE020E9499090E947B0827
:1013800008951F93CF93DF93C091C00217E080911F
:10139000C102C817A1F0D0E01C9FF0011D9FF00D05
:1013A0001124EE53FD4F20813181428153816481AC
:1013B000758186810E944C082196C770E8CFDF9125
:1013C000CF911F9108952091FA023091FB02409134
:1013D000FC025091FD026091FE027091FF0280912B
:1013E00000030E944C080895CF93DF93809100037F
:1013F00082958F7009F04EC08091FF02882309F416
:1014000049C08091C0024091C1025091FB0260919D
:10141000FA02C091FC02D091FD0277E08417D1F16D
:1014200090E0789FF001799FF00D1124DF01AE5319
:10143000BD4F14962C911497222349F111962C91AB
:101440001197251324C02C91261321C015962C9199
:10145000159721111CC012962D913C9113972C1BAE
:101460003D0B283C310598F4809100038F7080611A
:1014700080930003E853FD4F80818F7080618083EB
:101480008AEF92E00E94DC070E94C10903C0019626
:101490008770C4CFDF91CF9108952091C0029091C1
:1014A000C10257E02917A9F030E0529FF001539F85
:1014B000F00D1124EE53FD4F7181761306C070813B
:1014C000781303C07581741306C02F5F3F4F2770D8
:1014D000E9CF80E0089581E00895A4E1B0E0E3E77A
:1014E000FAE00C94BE328C0186E0F801DE011F9612
:1014F00001900D928A95E1F7F8018481E5809AEFD9
:10150000A92E92E0B92E9091FE02911118C0882365
:1015100009F480C1EE20D9F1C8010E943508F82EE7
:101520008823A9F187E0F801D50101900D928A95F1
:10153000E1F7C5010E9417050E94F40998C0F8015F
:10154000C080D18082809380F090FF022091FC02C5
:101550003091FD02A401421B530BFF2009F406C188
:10156000483C510508F0AFC0882309F455C180916B
:101570000003282F207F9091FB02222361F09D150C
:1015800009F462C0C8010E943508811173C0C80106
:101590000E94DC073FC19D1115C09091FA029C1179
:1015A00011C0E1100FC08F708061809300030E9412
:1015B000E3098AEF92E00E94DC0780910003F801C2
:1015C000868326C1E1103AC040E06D2D8C2D0E942B
:1015D0004D0A40E06D2D8C2D0E944D0AE82E8111A0
:1015E00017C1CF86D88A8F8598890E946B09292FC9
:1015F00022952F70243020F49F70223028F009C0EB
:101600002A50223080F014C0992349F0811107C07C
:1016100013C0992321F0F8019681907F69F0805ED4
:10162000883030F409C0803F38F0815F833020F08B
:10163000C8010E94DC07EF2CFE2CEEC08091000355
:10164000816080930003E4C09091FA029C119ACFCC
:10165000E11098CFF8018683C8010E94DC0787E07B
:10166000F801AAEFB2E001900D928A95E1F70E948D
:10167000E309D2C0EE2009F48ACF20910003822F23
:1016800082958F7090E002978CF08091FA02909191
:10169000FB02998788879B868A868091FE028C87C9
:1016A0001D862E87CE0108960E94DC0787E0F80190
:1016B000AAEFB2E001900D928A95E1F70E94F40939
:1016C0000E94E309A7C090910003292F207FA1F475
:1016D000682D9A8A898AA6017A899E2D0E944208DD
:1016E0008AEF92E00E94DC0787E0F50111928A956B
:1016F000E9F70E94E3098CC0882309F48DC080912A
:10170000FB028D1111C08091FA028C110DC0E11005
:101710000BC0F8019683C8010E94DC0787E0F50141
:1017200011928A95E9F778C0C8010E94350888238C
:1017300009F42DCFEE2009F42ACF20910003822F47
:1017400082958F7090E002970CF4B0CF8091FA02EE
:101750009091FB029A8389839C828B828091FE0206
:101760008D831E822F83CE0101969ECF483C51056A
:1017700008F040C0882309F44DC0FE2CEE2009F487
:1017800006CF8091FB028D1127C08091FA028C1147
:1017900023C09091000390FD16C0892F82958F7011
:1017A000282F30E02115310571F0F80196832F3094
:1017B000310509F451CF8F5F982F9295907F8681E4
:1017C0008F70892B48CF87E0F801AAEFB2E0019033
:1017D0000D928A95E1F720C0C8010E943508811159
:1017E00065CF80910003816080930003C8010E944F
:1017F000DC0712C0682D9A8A898AA6017A899E2DF3
:101800000E94420887E0F50111928A95E9F72FCFEF
:10181000F12C02C0FF24F3948F2D6496ECE00C941D
:10182000DA32AEE0B0E0E7E1FCE00C94C7322887A2
:1018300039874A875B876C877D878E87CE010896BC
:101840000E946D0A882361F06C856623A9F12885C2
:1018500039854A855B857D858E850E944C082CC024
:1018600087E0FE013896DE01119601900D928A956F
:10187000E1F76C85662301F12091C10230E0C901D6
:101880000196877099274091C00250E08417950710
:10189000E1F16D8397E0929FD001939FB00D1124E9
:1018A000AE53BD4FFE01319601900D929A95E1F72E
:1018B0008093C1020E94C10917E08091C0029091FB
:1018C000C102891779F1189FC00111248E539D4FD1
:1018D0000E946D0A882331F1E091C0021E9FF00141
:1018E0001124EE53FD4F2081318142815381648167
:1018F000758186810E944C088091C00290E001961B
:10190000877099278093C002D8CF0E941508109243
:10191000C1021092C002EAEFF2E087E0DF011D92FF
:101920008A95E9F72E96E3E00C94E332809129033F
:1019300086958695869508958091290387700895E8
:1019400090912903977081E009F480E008958091D7
:101950005503089590915503892B8093550308955D
:101960008095909155038923809355030895109293
:101970005503089590915403892B8093540308953F
:101980008095909154038923809354030895109275
:101990005403089508950E94CA0C08950E94CB0C28
:1019A000089590912B03292F2823821729F0982B33
:1019B00090932B030E94CE0C089590912B03292F16
:1019C000282331F08095892380932B030E94CE0C2D
:1019D000089580912B03882329F010922B0380E037
:1019E0000E94CE0C0895CF93C0915503809154036B
:1019F000C82B80912B03882331F0C82B0E94022929
:101A000081110E94E90C8C2FCF910895CF93DF9321
:101A1000C091E001D091E1010E94F30C8883C09154
:101A2000E001D091E10148E050E061E273E0CE01D5
:101A30000E94EF32892B59F088E0FE01A1E2B3E069
:101A400001900D928A95E1F7CE010E949128DF91D5
:101A5000CF910895CF93DF93C091DE01D091DF0144
:101A60000E94F30C8983C091DE01D091DF0140E236
:101A700050E061E073E0CE010E94EF32892B59F013
:101A800080E2FE01A1E0B3E001900D928A95E1F7BA
:101A9000CE010E949C28DF91CF9108958091FF0193
:101AA000882339F08091670487FF03C00E942A0DC4
:101AB00008950E94060D08950E94CA0C08950E9480
:101AC0005C0D089590912A03292F282331F08095E9
:101AD000892380932A030E945F0D08950E94CA0CF7
:101AE00008959091680492FF11C098E0899F900139
:101AF0001124262B209329030E948D08809129030D
:101B00008695869586950E946E0D08950E948D0893
:101B100008951092290380E00E946E0D089590911F
:101B200029038095892380932903282F277069F43E
:101B3000981759F09091680492FF07C08695869592
:101B400086950E9499080E94890D089590916804D5
:101B500092FB222720F9281769F080FB92F99093D5
:101B6000680480916704909168040E94EF0D82E000
:101B70000E948F0D08958091680482FB882780F968
:101B800091E089270E94A60D089581E00E94A60D8C
:101B9000089580E00E94A60D08956FEF7FEF80E02A
:101BA00090E00E945133089580E090E00E941D3340
:101BB000863E9E4F19F40E94A226089580E0089563
:101BC00082E090E00E941533089583E090E00E9447
:101BD0001533089584E090E00E941D330895BC0100
:101BE00084E090E00E9451330895AB01BC018FE086
:101BF00090E00E9445330895AB01BC0183E190E081
:101C00000E944533089560E070E0CB010E94FC0D16
:101C1000089560E070E0CB010E94F50D0E94030E74
:101C20000895A8E0B0E0E7E1FEE00C94C83266EE6B
:101C30007EEF80E090E00E94513360E082E090E02F
:101C40000E94333381E08093BF0261E083E090E043
:101C50000E94333360E074E184E090E00E945133ED
:101C600060E086E090E00E9433336FEF87E090E021
:101C70000E94333340E050E0BA0188E090E00E94D7
:101C8000453360E084E290E00E94333360E087E116
:101C900090E00E94333360E08CE090E00E943333A8
:101CA00060E08DE090E00E94333319821A821B823B
:101CB0001C821D821E821F82188648E050E068E167
:101CC00070E0CE0101960E94233340E050E0BA015B
:101CD00080E290E00E94453380E00E94BB260E9493
:101CE000F0260E94090E2896E2E00C94E4320E944D
:101CF000110E0895682F8EE090E00E94333308950E
:101D0000A6E0B0E0E6E8FEE00C94C6320E94CD2AE0
:101D10008C0180915603909157030817190781F0A1
:101D200019821A820E94CD2A682F49815A81792FFF
:101D300080E090E00E94E404109357030093560360
:101D40002696E4E00C94E2320E94D92A6093640360
:101D500070936503809366039093670360936003B9
:101D6000709361038093620390936303089581E00D
:101D7000089581E008950E94B90E089508950E9483
:101D8000BE0E08950E94BE0E08950E94C20E0895D0
:101D90000E94BE0E08950E94C80E08950E94BE0EB5
:101DA000089587E891E10E9428130E94CE0E0E94B8
:101DB000CB0E08950E94BF0E0E94BE0E08950E9491
:101DC000A6110E94B8040E94741D08950E94C42A9E
:101DD0000E9400270E947F120E94DF0E0E94C50E03
:101DE0000895A6E0B0E0E7EFFEE00C94BC320E945C
:101DF000B70E811103C00E94800E66C00E9495122A
:101E000028E5E22E23E0F22E5701D12CF5010191B5
:101E100011915F018D2D0E94C11180279127D394CC
:101E2000F4E0DF1619F0892B89F302C0892B19F32E
:101E30008091680381FD0E94CA110E94BB0E682E2A
:101E400010E0812F0E94C1114C01F701A080B180E8
:101E5000A826B926A114B10471F100E0CC24C394E2
:101E6000D12CC5018C219D21892BE9F07724739415
:101E7000C4018C219D21892B09F4712C662071F0FD
:101E800009831A830E94CD2A682F8B839C83498102
:101E90005A81792F81E0972D0E94E404472D602F0D
:101EA000812F0E946F160F5FCC0CDD1C0C30C9F621
:101EB000F701918280821F5FF2E0EF0EF11C143077
:101EC00009F0BFCF0E94A40E0E94491A0E94F92374
:101ED0000E94CB042696EEE00C94D8321F93CF9349
:101EE000DF930E949C10EC01C11580E5D807E8F54E
:101EF000C11590E4D90708F0A8C0C03ED10530F55F
:101F0000CD3CD10508F094C0C83AD10578F4C53A63
:101F1000D10508F083C0C130D10509F47CC008F4B4
:101F2000F2C0C430D10508F0F1C0EDC0C33CD1050A
:101F300008F0E9C0C85AD0E0CC0FDD1FC45CDD4F0B
:101F40000990D881C02DCE019464E1C0C11580E212
:101F5000D80708F0CBC0C11591E0D90708F06BC0D5
:101F6000C83ED10508F4D2C0CEC0C03682E5D8073D
:101F700028F5C03492E5D90708F079C0C03282E56F
:101F8000D80708F06CC0C11592E5D90708F481C0E4
:101F90004C2F4695469580E2489FA0011124C370BE
:101FA00021E030E0C90102C0880F991FCA95E2F70D
:101FB000EA01C82BD92BCE019D68A9C0C03A82E5A1
:101FC000D807B8F48C2F8F71C03892E5D90708F084
:101FD0007BC08695869590E2899F90011124C370FD
:101FE00081E090E002C0880F991FCA95E2F79A68D5
:101FF00068C0C03C82E5D80708F46DC0C03E92E5D9
:10200000D90708F080C0CF71DD27DC2FCC27CE01A7
:10201000806F906A7CC081E090E079C0C55AD0E0C2
:10202000CE58DD4F8881C82FD0E0CE0190646FC0BC
:10203000CE0190656CC08D2F0E943811182FCE01F3
:1020400099270E949C101F715CC0CE0199270E94A5
:102050009C10CC27DF70D06A8C2B9D2B58C0CF7181
:10206000D0E0DC2FCC27CE01816F906A50C08C2F3E
:102070008F718695869590E2899F90011124C37097
:1020800081E090E002C0880F991FCA95E2F79C6832
:1020900018C08C2F8F710E94381195E0D695C79586
:1020A0009A95E1F7CF70D0E0DC2FCC27282F30E0D5
:1020B00084FF05C084E0220F331F8A95E1F7D069C1
:1020C000CE01822B932B23C090E0D82FCC27CE01BA
:1020D000846F906A1CC08C2F8F710E9438118F7191
:1020E00090E0D82FCC27CE01906211C08D2F8F7138
:1020F0000E943811182FCE0199270E949C101F7141
:102100009062912B04C080E090E001C0CE01DF918D
:10211000CF911F910895743038F46C3028F4462F15
:10212000672F0E944E20089580E090E008950E945D
:102130008B100E946E0F08958238910569F1B0F4FA
:102140008133910509F475C048F48932910509F489
:1021500067C08A32910509F471C0089585339105ED
:1021600009F459C089339105B9F00895833E91056A
:1021700089F138F4803E9105D1F0823E910529F134
:102180000895863E9105C9F1873E9105D9F1843EB7
:10219000910509F06CC027C02091670420FD57C04D
:1021A00021FD55C02091680423FD5BC008958091F6
:1021B000670480FD48C08091680480FF48C080911A
:1021C000670484FD46C083EE51C08091670482FF9E
:1021D0003CC0F5CF8091670482FD37C080916804D0
:1021E00080FD35C0ECCF8091680481FF36C08091BE
:1021F000670484FD2EC087EE39C08091670483FF99
:102200002AC0F5CF8091670483FD25C080916804C2
:1022100081FD23C0ECCF8091670485FD22C01FC0E3
:102220008091670485FD1BC08091680483FF19C0FD
:102230000AC08091670486FD16C017C080916704AC
:1022400086FD13C010C089E311C082EE0FC080EE7E
:102250000DC080E00BC086EE09C084EE07C085E3A8
:1022600005C089E203C08AE201C081E390E00895DD
:102270009091670492FF10C041E0282F2471243010
:1022800009F040E031E0282F2871283009F030E0D3
:10229000431711F02CE0822793FF10C041E0282F54
:1022A0002471243109F040E031E0282F28712831D1
:1022B00009F030E0431711F02CE0822730916804D8
:1022C00030FF10C051E0282F2171213009F050E07B
:1022D00041E0282F2871283009F040E0541711F010
:1022E00029E0822731FF10C041E0282F21712131E0
:1022F00009F040E031E0282F2871283109F030E062
:10230000431711F029E0822794FD877E089580E02D
:1023100008950E94CD0D08950E9495122FEF86E733
:1023200091E0215080409040E1F700C000000E9401
:10233000951280E00E94C11180FF04C00E948911A3
:102340000E94362B08950E948C1108950E94D40D8E
:10235000811102C00E94770E0E94E00D80936803F5
:102360000E94EA0D90936804809367040E94A31171
:102370000E94E50D0E9463088091BE020E947808C9
:102380000895E82FF0E0EE0FFF1FEF58FB4F80811C
:1023900091810895089580EA8A95F1F7089500C023
:1023A00008950E94CB11089508950E94D4110895B4
:1023B0000E94D51108950E94D41108950E94DB1146
:1023C0000895F894E82FE295EF70F0E031A1282FFE
:1023D0002F7081E090E001C0880F2A95EAF7982FCE
:1023E0009095932391A392A1892B82A37894089529
:1023F0000F931F93CF93DF93C1E8D2E089918F3F72
:1024000011F00E94E11182E0C538D807B9F7C5E79D
:10241000D2E001E812E089918F3F11F00E94E111B2
:102420000C171D07C1F7DF91CF911F910F910895F0
:10243000A0E0B0E0EEE1F2E10C94C1328C01C62FD5
:10244000D0E0CE018F579D4F6C01FC0190819F3FE2
:1024500009F450C0B62EF894E92FE295EF70F0E041
:1024600081A19F7021E030E001C0220F9A95EAF728
:10247000822B81A382A12095282322A378940E94F5
:10248000CF11E5E7F2E041E852E021E030E0E12C55
:10249000F12C61916F3F89F0A62FA295AF70B0E04B
:1024A00090968C9190E06F7002C0959587956A9593
:1024B000E2F780FD02C0C90102C080E090E0E82A96
:1024C000F92A220F331F4E175F0719F7F601808193
:1024D0008F3F11F00E94E11161E0E114F10409F471
:1024E00060E08B2D0E94D111CC0FDD1FC00FD11FDA
:1024F000F982E882CDB7DEB7E9E00C94DD320E94C4
:10250000F81188E0E1E7F4E0DF01982F1D929A9539
:10251000E9F7E9E6F4E0DF011D928A95E9F784E046
:102520000E94D0120E94DE110895A8E0B0E0EBE90D
:10253000F2E10C94C5328E010F5F1F4F88E0F80165
:1025400011928A95E9F7F12C6F2DC8010E9418129B
:10255000F394F4E0FF12F8CF48E050E0B80189E6C8
:1025600094E00E94EF3221E0009709F420E0892BEB
:1025700041F088E0F801A9E6B4E001900D928A9557
:10258000E1F744E061E774E089E694E00E94D1124B
:10259000182F0E94D811812F2896E5E00C94E13283
:1025A0000895EF92FF920F931F93CF93DF937C01D7
:1025B0008B01C42F222351F081E080936B030E9492
:1025C000CD2A90936A038093690304C080916B03C2
:1025D000811102C080E01CC08091690390916A0360
:1025E0000E94E52A0597B0F3D0E0CC0FDD1FAE01C5
:1025F000B701C8010E94EF32892B39F0AE01B70153
:10260000C8010E94FC3281E001C080E010926B039F
:10261000CDB7DEB7E6E00C94E0320E94E02C0E94D9
:10262000E60E0E94ED2C08950E94F22C0E94F10EFD
:102630000E940C2D08950E94642A0E94C62C0E94BC
:10264000D10E0E940D130E9414130E94DA0EFBCFCC
:102650009093A5028093A4020895EF92FF920F93A6
:102660001F93CF93DF938B01682F11110AC044236E
:1026700029F0E82FF0E0E45DFC4F6491762F862F7F
:1026800075C0212F30E0E82FF0E0442321F0E45D15
:10269000FC4FE491F0E046E0049FC0011124CFEF2D
:1026A000D0E0BE010E9483324BEA4603C001479F3F
:1026B000900D1124800F911D800F911D982F990F5F
:1026C000890FAE01421B530B4E9FD0014F9FB00D9F
:1026D0005E9FB00D11249B2F189FA0011124452F40
:1026E00055278E01041B150B0E9FA0010F9F500D47
:1026F0001E9F500D11247E01E81AF108E29E800110
:10270000E39E100DF29E100D1124212F3327C21BC2
:10271000D30BCE9F9001CF9F300DDE9F300D112443
:1027200062307105A9F048F46115710569F06130F6
:102730007105C9F48B2F752F0DC06430710581F0C0
:1027400058F06630710579F47E2F8B2F932F0DC0D2
:10275000832F7B2F9E2F09C08E2F7B2F952F05C097
:102760008E2F732F02C07E2F852F692FCDB7DEB736
:10277000E6E00C94E03241E00E942D13089520E041
:1027800030E0869F212D969F200D311D1124C90117
:1027900008954091E8015091E90125E038E0429F19
:1027A000C001439F900D529F900D1124875E994C5C
:1027B0009093E9018093E801890F0895482F982F9D
:1027C00046FD9095E92FEF739F7046FD9F5FE29560
:1027D000EF70EE0FF0E0EB57FD4F2181299F802D28
:1027E000212D112482958F702295207F822B30819C
:1027F000982F930F892F47FD819580580895E42FD6
:10280000F0E0EE0FFF1FE05DFE4F408134EE439F8E
:10281000412D1124E72FF0E050E0445E5F4FDA01D4
:10282000A21BB1099D01B7FF03C031952195310964
:1028300093E0220F331F9A95E1F7AF01421B530B30
:102840009A0157FF02C020E030E0279F212D11247C
:10285000722F0895622F0895E42FF0E0EE0FFF1F0E
:10286000E05DFE4F6081621B0895E42FF0E0EE0F03
:10287000FF1FE050FF4F61A9621B0895A22F50E097
:10288000FA01EE0FFF1FE050FF4F91A9905297FD04
:102890009195440F551FFA01E05DFE4F3081232FC3
:1028A00030E02A1B3109290F311D97FD3A95620F3F
:1028B00008950F931F93522F10E0F801EE0FFF1FA2
:1028C000E050FF4FE1A9F0E0B0979F015203D00123
:1028D000539FB00D1124000F111FF801E05DFE4F52
:1028E000008110E00057110940039001419F300D15
:1028F00011242A0F3B1F37FF02C021583F4F220FE0
:10290000232F221F330B620F1F910F9108950F93F6
:102910001F93522F10E0F801EE0FFF1FE050FF4F02
:10292000E1A9F0E0B097EE0FFF1F9F015203D00125
:10293000539FB00D1124000F111FF801E05DFE4FF1
:10294000008110E000571109000F111F4003900192
:10295000419F300D11242A0F3B1F37FF02C0215821
:102960003F4F220F232F221F330B620F1F910F9116
:1029700008950F931F9310E0F801EE0FFF1FE05D25
:10298000FE4F9081905797FD9195000F111FF80110
:10299000E050FF4FE1A9F0E0B097DF01AA0FBB1FA5
:1029A0008D010E0F1F1F2003D001219FB00D112498
:1029B000E8E3F0E0E91BF10997FDF3959F01220F91
:1029C000331F89010E0F1F1F40039001419F300DDF
:1029D00011242A0F3B1F37FF02C021583F4F220FFF
:1029E000232F221F330B620F1F910F9108950F9316
:1029F0001F93CF93DF93D62F072F182FC42F822F2B
:102A00000E94DE13EC2FF0E0EE0FFF1FE05DFE4FA3
:102A100090819058890F87FD8195880F682F2CE051
:102A2000629F612D11246D0F702F812FDF91CF9147
:102A30001F910F910895E42FF0E0EE0FFF1FE05D6E
:102A4000FE4F9081921B97FD9195292F38E1239F8E
:102A5000212D1124620F089520917D0430E1230F70
:102A600008F42FEF60E1822F90E00E94BF13BC01B9
:102A700088EB9BE00E94833280E090E00895909183
:102A80003E04892B80933E040895FC019B0100972E
:102A900021F477FF2BC080E80895AC0197FF04C0B4
:102AA00044275527481B590BB901640F751F37FD83
:102AB0000CC0241B350BC901A5E0880F991FAA95EE
:102AC000E1F70E94973280E20CC0CB0165E0880FED
:102AD000991F6A95E1F7BA01621B730B0E94973246
:102AE00080E6861BF7FF03C08195089580E0089576
:102AF000FF920F931F93CF93DF93F62E172FD82FAC
:102B0000C901C72FC01BBA010E944515982F990F04
:102B1000890F7C2F781B719F712D11246F2D8D2FA4
:102B2000CDB7DEB7E5E00C94E132EF920F931F933F
:102B3000CF93DF93D62F172FC82FC9010E19070F78
:102B4000BA010E944515702F781B719F712D1124B9
:102B50006D2F8C2FDF91CF911F910F91EF900895E2
:102B60000F93CF93DF93D72FC82FC901BA010E94CB
:102B70004515682F600F7D2F8C2FDF91CF910F911E
:102B80000895EF920F93CF93DF93D72FC82FC901EA
:102B90000E19BA010E944515602F681B7D2F8C2FDE
:102BA000DF91CF910F91EF9008950E94BB1308958C
:102BB00048E050E068E170E089E794E00E94233348
:102BC00010923E040895E9E7F4E085E28083809165
:102BD000000290910102A091020281839283A3835B
:102BE0008FE784838FEF858348E050E068E170E0F1
:102BF000CF010E94233310923E040895E091930286
:102C0000F091940209950895E0918F02F09190025D
:102C100009950895A0E0B0E0E0E1F6E10C94C3323C
:102C2000EC01FC01EC55FE4F9081692349F1D090F5
:102C30007B0400917C0410917A04E12EF12C0E9417
:102C4000C913282FC7018C549F4F68E671E00E947A
:102C500097328E199F0997FD0396959587959595BF
:102C600087952370612F289F600D11247D2D802F63
:102C70000E94D515462F282F672FCE010E940416DB
:102C8000CDB7DEB7E7E00C94DF321F93CF93DF932D
:102C9000FC01EC55FE4F20816223B9F0EC010E944B
:102CA000C913182F0E94C91320E8829FC001112464
:102CB0007FE7790F612F80917C040E94D515462F04
:102CC000282F672FCE010E940416DF91CF911F910C
:102CD0000895E0919102F0919202099508950E9461
:102CE000B90E089581E008950E94721608959CE03F
:102CF000899F802D1124980F9B3308F09AE3089543
:102D0000A0E0B0E0E6E8F6E10C94BF326C015B01B4
:102D1000FC0180810E947716F92E182F60917D04A6
:102D2000669580918104909182040E94BF13982E31
:102D30001F1508F06DC0C12FD0E0FE01EC55FE4F0D
:102D40009081F6018181892309F460C0FE01EE0FB4
:102D5000FF1FE05DFE4F408150E040575109FE01EA
:102D6000EE0FFF1FE050FF4F21A930E02052310944
:102D7000449FB001459F700D700D1124229FC0012A
:102D8000239F900D900D1124680F791F62307105FB
:102D900010F4062F2AC0613EFEE17F0748F4CB0104
:102DA000F5E096958795FA95E1F7A8E0A80F01C0A0
:102DB000AFEF01E08A2F90E0800F911D95958795E8
:102DC000889FF001899FF00DF00D11246E177F0789
:102DD00018F4AFEFA80F04C08F3F31F001E0080FE7
:102DE000A01740F7015001C00FEF60917A04709175
:102DF0007B0480917C04E92CF50109950E94D5158E
:102E0000462F282F672FCE010E9404161F5F90CFF8
:102E100081E0F9E3FF1508F480E0CDB7DEB7EBE021
:102E20000C94DB3265E975E10E948016089561EC2F
:102E300075E10E9480160895A0E0B0E0E2E2F7E1BB
:102E40000C94C0327C016B01FC0180810E947716DA
:102E5000B92E182F60917D04669580918104909120
:102E600082040E94BF13A82E1B1578F5C12FD0E055
:102E7000FE01EC55FE4F9081F7018181892319F104
:102E8000FE01EE0FFF1FE050FF4F21A930E020525E
:102E90003109FE01EE0FFF1FE05DFE4F408150E063
:102EA0004057510960917A0470917B0480917C04B1
:102EB0000A2DF60109950E94D515462F282F672F58
:102EC000CE010E9404161F5FCFCF81E0F9E3FB150E
:102ED00008F480E0CDB7DEB7EAE00C94DC3268E7B6
:102EE00075E10E941C17089560EB75E10E941C17A4
:102EF0000895A0E0B0E0EFE7F7E10C94C1328C0157
:102F00007B01FC0180810E947716EC0160917D04B9
:102F10006695669521E0620F08F46FEF8091810459
:102F2000909182040E94BF13B82ECD17F0F4CC2EDE
:102F3000D12CF601EC55FE4F9081F8018181892357
:102F400091F060917A0470917B0480917C042B2D28
:102F50004C2FF70109950E94D515462F282F672F72
:102F6000C6010E940416CF5FE0CF81E0DA3308F09B
:102F700080E0CDB7DEB7E9E00C94DD326FEF73E1AE
:102F80000E94791708956AE274E10E947917089502
:102F90006CE274E10E947917089565E374E10E9480
:102FA000791708956EE374E10E947917089567EF29
:102FB00074E10E94791708956BE175E10E94791719
:102FC0000895A0E0B0E0E7EEF7E10C94BD326C01AB
:102FD0005B01FC0180810E947716192FC82F609138
:102FE0007D046695669580918104909182040E948B
:102FF000BF13D82F80E48D0F0E94DE1390E8F92EC6
:10300000F80E8D2F0E94DE1320E8722E780EC11765
:1030100000F58C2E912CF401EC55FE4F9081F601B9
:1030200081818923A1F060917A0470917B04809161
:103030007C04ED2E0C2F272D4F2DF50109950E94B4
:10304000D515462F282F672FC4010E940416CF5F85
:10305000DECF81E01A3308F080E0CDB7DEB7EDE0D7
:103060000C94D93269E574E10E94E117089567E88C
:1030700074E10E94E117089569EB74E10E94E11781
:103080000895A0E0B0E0E7E4F8E10C94C3328C01CD
:10309000DC018C910E947716EC0160917A047091AA
:1030A0007B0480917C040E94D515F62EE72ED82E45
:1030B000CD1798F4EC2FF0E0DF01AC55BE4F8C91AA
:1030C000D80111969C91982331F02D2D4F2D6E2D06
:1030D000CF010E940416CF5FEBCF81E0DA3308F016
:1030E00080E0CDB7DEB7E7E00C94DF32A0E0B0E0DF
:1030F000ECE7F8E10C94C1326C01FC0180810E9484
:103100007716EC0100917B04B0907C0420917D0443
:1031100010E4129F112D1124CD1718F5EC2EF12C6F
:10312000F701EC55FE4F9081F60181818923B9F0BA
:10313000F701EE0FFF1FE050FF4F81A982958F70BE
:1031400060917A04819F600D1124702F8B2D0E9455
:10315000D515462F282F672FC7010E940416CF5F71
:10316000DBCF81E0DA3308F080E0CDB7DEB7E9E00D
:103170000C94DD32A0E0B0E0E0ECF8E10C94C13258
:103180007C01FC0180810E947716D92EC82FC09047
:103190007B04B0907C0420917D04D0E43D2F329FCD
:1031A000312D1124D32FCD1538F50C2F10E0F80157
:1031B000EC55FE4F9081F70181818923D9F0F80108
:1031C000EE0FFF1FE05DFE4F6081D69FB00111241E
:1031D00095E0759567959A95E1F780917A04680F67
:1031E0007C2D8B2D0E94D515462F282F672FC801C7
:1031F0000E940416CF5FD7CF81E0F9E3FD1508F4F4
:1032000080E0CDB7DEB7E9E00C94DD32A0E0B0E0BD
:10321000ECE0F9E10C94C3328C01DC018C910E944A
:103220007716EC01E0907A04F0907B04D0907C0457
:1032300060917D0466956695669580918104909174
:1032400082040E94BF130E94DE13805887FD81957F
:10325000880F282F3D2D239F212D1124822FB70168
:103260000E94D515F62EE72ED82ECD1798F4EC2F08
:10327000F0E0DF01AC55BE4F8C91D80111969C91C6
:10328000982331F02D2D4F2D6E2DCF010E94041665
:10329000CF5FEBCF81E0DA3308F080E0CDB7DEB767
:1032A000E7E00C94DF32CF92DF92FF920F931F93EF
:1032B000CF93DF938C01FC0180810E947716F92E59
:1032C000F8019281911121C060917D0420E1620F8B
:1032D00008F46FEF80918104909182040E94BF13E3
:1032E0006AE070E00E948332892BE9F40E94C913DE
:1032F000FAE38F9F90011124F8016181832F932FAE
:10330000990F990B0E940A160EC0C82FD0E0CF2C3F
:10331000D12CCC15DD053CF4F8016181CE010E9471
:103320000A162196F6CF81E0F9E3FF1508F480E054
:10333000DF91CF911F910F91FF90DF90CF90089573
:10334000CF92DF92FF920F931F93CF93DF938C0165
:10335000FC0180810E947716F92EF801928191116B
:1033600021C060917D0420E1620F08F46FEF80912D
:103370008104909182040E94BF1365E070E00E9476
:103380008332892BE9F40E94C913FAE38F9F9001DD
:103390001124F8016181832F932F990F990B0E94BB
:1033A00045160EC0C82FD0E0CF2CD12CCC15DD0592
:1033B0003CF4F8016181CE010E9445162196F6CFBA
:1033C00081E0F9E3FF1508F480E0DF91CF911F91D0
:1033D0000F91FF90DF90CF900895A0E0B0E0E3EF71
:1033E000F9E10C94C3328C01DC018C910E947716B8
:1033F000EC01E0907B04F0907C04D0907A04609122
:103400007D0466956695669580918104909182040D
:103410000E94BF130E94DE13805887FD8195880F9C
:10342000682F2CE0629F612D11246D0D7E2D8F2D54
:103430000E94BB13F62EE72ED82ECD1798F4EC2F52
:10344000F0E0DF01AC55BE4F8C91D80111969C91F4
:10345000982331F02D2D4F2D6E2DCF010E94041693
:10346000CF5FEBCF81E0DA3308F080E0CDB7DEB795
:10347000E7E00C94DF3281E008950E943B1A089542
:10348000FC01808181500E947716692F0E943D1AAD
:103490000895A0E0B0E0EFE4FAE10C94BA320E94A3
:1034A000D92A60933F047093400480934104909321
:1034B000420430917904232F237021F0F32EF694E7
:1034C000F69401C0F12C2091E201213091F028F016
:1034D000223091F12330E1F102C31092E3016093B5
:1034E000810470938204809383049093840481E028
:1034F0002CC09091E601F9120DC0832F837090E0EB
:103500004091E70150E021E08417950709F420E09D
:10351000822F01C081E081708093E50180917E045B
:103520009091E4019817A9F18093E40140E060E0F4
:1035300080E00E9469162DC0F092E601832F83700F
:103540008093E7010E94FE1583E08093E201C7C2E9
:1035500080913E04882351F048E050E068E170E03B
:1035600089E794E00E94233310923E046091810425
:103570007091820480918304909184040E94F42AC3
:10358000603171058105910508F4A9C21092E2012C
:10359000A6C28F2D90E089319105E8F08091E3017A
:1035A0008F5F8093E30182E08093E2018091E501E7
:1035B000811107C0FF2041F28091E201823031F495
:1035C00003C0FF2009F48BC20E94741683EE91E0C1
:1035D0000E94401A84C2FC01EE59FF4F0C94AB329A
:1035E0008091E501882309F46FC240E060E080E04B
:1035F0000E94691669C283EE91E00E94411804C0DE
:1036000083EE91E00E947618C82F5FC283EE91E0AE
:103610000E94BA18F9CF83EE91E00E940619F4CF08
:1036200083EE91E00E94BE17EFCF83EE91E00E94FF
:103630006F17EACF83EE91E00E941217E5CF83EE79
:1036400091E00E94C317E0CF83EE91E00E94C8177B
:10365000DBCF83EE91E00E94CD17D6CF83EE91E0D1
:103660000E94D217D1CF83EE91E00E947417CCCF85
:1036700083EE91E00E941717C7CF83EE91E00E947E
:103680003218C2CF83EE91E00E943718BDCF83EE8F
:1036900091E00E943C18B8CF83EE91E00E9453194C
:1036A000B3CF83EE91E00E94A019AECF83EE91E0FC
:1036B0000E94ED19A9CF83EE91E00E94D717A4CF05
:1036C00083EE91E00E94DC179FCF8091E3010E947E
:1036D0007716192F409181045091820460918304E0
:1036E0007091840480913A0490913B04A0913C0431
:1036F000B0913D0484179507A607B70708F055C099
:103700000E94C9132AE3829FC0011124C92FDD271B
:10371000C7FDDA95FE01EC55FE4F90818091E401E2
:10372000892309F442C00E94C91381FF04C000E04C
:1037300070E080E00DC00E94C913082F0E94C913D9
:1037400030E8839FC00111247FE7790F80917C04CA
:10375000602F0E94D515462F282F672FCE010E947B
:10376000041620917D0430E1230F08F42FEF60E16F
:10377000822F90E00E94BF13BC0184EF91E00E9471
:1037800083328091810490918204A0918304B0914E
:103790008404860F971FA11DB11D80933A04909356
:1037A0003B04A0933C04B0933D04C1E01A3308F4F9
:1037B0008CC18AC14091360450913704609138041D
:1037C000709139048091810490918204A0918304C6
:1037D000B091840484179507A607B70708F474C14D
:1037E0008091E501811107C08091E3010E94771665
:1037F000092FC82F4EC040E060E080E00E946916AB
:1038000008E813E0C0E0D0E00E94C91381FF05C0C2
:10381000F8011082118212821EC00E94C913E82E84
:103820000E94C913F0E88F9FC00111247FE7790F30
:103830006E01CC0CDD1CC6018C0F9D1F9C0128570E
:103840003C4F69016E2D80917C040E94BB13F601F0
:1038500060837183828321960D5F1F4FCA33D10528
:1038600099F6C2CF8C2F90E0FC01EC55FE4F3081D1
:103870002091E401232361F0FC01EE0FFF1FE80F0C
:10388000F91FE857FC4F2281408161810E94041694
:10389000CF5FC01738F3C1E00A3308F0C0E00A3345
:1038A00008F413C120E010E001501109822F90E0CC
:1038B00080179107C4F4DC01AA0FBB1FA80FB91F22
:1038C000A857BC4F0196FC01EE0FFF1F8E0F9F1FE4
:1038D000FC01E857FC4FC080D180E280CD92DD92A0
:1038E000EC922F5FE3CF0E94C9136801CC0CDD1C62
:1038F00081FF09C00C0D1D1DF801E857FC4F108217
:103900001182128218C00E94C913D82F0E94C913B5
:10391000F0E88F9FC00111247FE7790F0C0D1D1D6A
:1039200008571C4F6D2F80917C040E94BB13F80137
:103930006083718382830E942C1500918104109111
:1039400082042091830430918404DC01CB01800F38
:10395000911FA21FB31F8093360490933704A09346
:103960003804B0933904B1C08091E501882329F06F
:1039700040E060E080E00E9469168091E3010E94CF
:103980007716E92E4091810450918204609183045E
:10399000709184048091840390918503A0918603A3
:1039A000B091870384179507A607B70708F088C06A
:1039B00060917A0470917B0480917C040E94D515FB
:1039C000762E672E582E0CE613E0C0E0D1E04E01B3
:1039D0005E01680185E0482EF6018081F5018823AB
:1039E00069F08081252D472D662D90E00E940416F8
:1039F000F4018385252D472D662D0CC0808120E0A4
:103A000040E060E090E00E940416F401838520E02D
:103A100040E060E090E00E940416F601818181930D
:103A20006F014A94FFEFAF1ABF0A21E0821A910892
:103A30004110D2CFF8018581882361F08D81252D39
:103A4000472D662D90E00E9404168E81252D472D6E
:103A5000662D0BC08D8120E040E060E090E00E9488
:103A600004168E8120E040E060E090E00E940416A1
:103A70000E94C913837091E009F090E0F8019583EA
:103A80000A5F1F4F2C96F1E0C033DF0709F09FCF8C
:103A90000E942C15009181041091820420918304CE
:103AA00030918404DC01CB01800F911FA21FB31F52
:103AB0008093840390938503A0938603B093870338
:103AC000C1E029E32E1508F4C0E08091E3018F5F87
:103AD0008093E301CC2309F466CDF1106DCDCDB711
:103AE000DEB7E0E10C94D632E0918D02F0918E02C7
:103AF00009950E94D40D811104C00E94770E0E9486
:103B0000E31581E080933E0448E050E068E170E016
:103B100089E794E00E94053310923E048091790475
:103B20008C7F11F40E94E31508950895E9E7F4E00D
:103B3000208191E0922790831092E2010E943F152C
:103B4000089580E00E94961D089581E00E94961DD0
:103B5000089580917904837011F41092E2018091AC
:103B600079048C7F81608093790408958091790431
:103B7000837011F01092E201809179048C7F809320
:103B8000790408958091790483700895909179045F
:103B9000937091F0811102C0946007C0893110F0D8
:103BA000906603C0880F880F982B90937904862F16
:103BB0001092E2010E943F15089560E00E94C61D28
:103BC000089561E00E94C61D08958091790486954C
:103BD00086950895682F90917904969596959F5FA4
:103BE000993110F4892F01C081E00E94C61D08950B
:103BF00081E00E94EA1D0895682F909179049695BE
:103C00009695915011F0892F01C088E10E94C61D40
:103C1000089581E00E94FC1D0895909179049370AD
:103C200061F080937A0460937B04493708F048E799
:103C3000822F40937C040E943F15089520E00E944B
:103C40000D1E089580917A04089580917B04089553
:103C500080917C040895A9E7B4E01196EC91119746
:103C6000F0E0282F13964C91139712966C91CF0188
:103C700008960E940D1E089581E00E942B1E089553
:103C8000A9E7B4E01196EC911197F0E0282F139674
:103C90004C91139712966C91CF0108970E940D1EBC
:103CA000089581E00E94401E0895E9E7F4E06281F2
:103CB00020E1620F08F46FEF9181282F4381892F53
:103CC00090E00E940D1E089581E00E94551E089507
:103CD000E9E7F4E0628120E1621B08F460E0918191
:103CE000282F4381892F90E00E940D1E089581E0C6
:103CF0000E94681E0895E9E7F4E0438120E1420F45
:103D000008F44FEF9181282F6281892F90E00E9463
:103D10000D1E089581E00E947B1E0895E9E7F4E0FE
:103D2000438120E1421B08F440E09181282F628109
:103D3000892F90E00E940D1E089581E00E948E1E42
:103D4000089580937D0480E00E943F15089580913E
:103D50007D040895E9E7F4E0248130E1230F08F4BD
:103D60002FEF24830E943F15089581E00E94AA1E30
:103D70000895E9E7F4E0248130E1231B08F420E012
:103D800024830E943F15089581E00E94B91E089582
:103D9000109243040895FC01EE0FFF1FDF01A80FEE
:103DA000B91FAB57BB4F11963C911197361307C003
:103DB0003C91341304C012963C91321759F031E013
:103DC000309343048E0F9F1FFC01EB57FB4F618321
:103DD000408322830895FF920F931F93CF93DF9325
:103DE000182F062FF42EC0E0D0E02F2D402F612F8A
:103DF000CE010E94CB1E2196CA33D105B1F7CDB7B3
:103E0000DEB7E5E00C94E13280914304882341F071
:103E10006AE370E085E894E00E94741F1092430406
:103E20000895882311F0FA0101C0FB010995089556
:103E30001F93CF93DF93FB011581111150C0EC014B
:103E40000E94A70C8272FE01E052F847E531F105AD
:103E500020F4E558FF4F0C94AB3211E040C00E94B3
:103E6000A51D3DC049E05EE168EF7DE104C048EF7B
:103E70005DE169E07EE10E94111F31C041E55EE134
:103E80006CE37EE1F8CF4CE35EE161E57EE1F3CFE8
:103E900047E75EE164E67EE1EECF44E65EE167E798
:103EA0007EE1E9CF4DE95EE16AE87EE1E4CF4AE8F0
:103EB0005EE16DE97EE1DFCF44EC5EE165EB7EE142
:103EC000DACF45EB5EE164EC7EE1D5CF81E005C061
:103ED00084E003C089E001C08CE00E94E11D812FD5
:103EE000DF91CF911F9108953E9A28B12F7B38B171
:103EF00030644FB7F894FC01CB01880F991F680F0D
:103F0000791F6E0F7F1FE617F70789F0819198E000
:103F100038B9000000C087FF28B9880F000000C032
:103F200000C000C028B900C09A9591F7ECCF4FBFF0
:103F30008FE594E00197F1F700C00000089584E058
:103F4000089550E0440F551F28E1629F400D511D18
:103F500011249A0160E6869F200D311D1124C901AC
:103F6000899608950F931F93CF93DF938430A0F425
:103F7000643090F44C3080F40E94A11F8C010E94A8
:103F8000153390E0D82FCC27C80101960E94153335
:103F90009E01282BC90102C080E090E0DF91CF9103
:103FA0001F910F9108950F931F93CF93DF93843048
:103FB00080F4643070F44C3060F4E9010E94A11F79
:103FC0008C016D2F0E9433336C2FC80101960E9423
:103FD0003333DF91CF911F910F9108951F93CF93AA
:103FE000DF93D0E0C0E010E0412F6C2F8D2F0E94B6
:103FF00087039C01412F6C2F8D2F0E94D31F1F5FC1
:104000001C3091F7CF5FC43071F7DF5FD43051F7C8
:10401000DF91CF911F910895EF92FF920F931F931D
:10402000CF93DF93EA017A01E60EF71E8C01C801F7
:104030008996CE15DF0569F0003821E0120720F4DB
:104040000E941533888301C0188221960F5F1F4F8D
:10405000EECFCDB7DEB7E6E00C94E032EF92FF9200
:104060000F931F93CF93DF93EA017A01E60EF71EB9
:104070008C01C8018996CE15DF0559F0003821E082
:10408000120718F468810E94333321960F5F1F4F87
:10409000F0CFCDB7DEB7E6E00C94E032843038F4F0
:1040A000643028F44C3018F40E94B21F089580E068
:1040B00090E0089580E1089587E592E00895EF92F9
:1040C000FF920F931F93CF93DF93EA017A01E60EDD
:1040D000F71E8C01C80187559E4FCE15DF0569F08C
:1040E000073522E0120720F40E941533888301C0AF
:1040F000188221960F5F1F4FEDCFCDB7DEB7E6E0F8
:104100000C94E032EF92FF920F931F93CF93DF93C3
:10411000EA017A01E60EF71E8C01C80187559E4F11
:10412000CE15DF0559F0073522E0120718F4688133
:104130000E94333321960F5F1F4FEFCFCDB7DEB70D
:10414000E6E00C94E032CF93DF93C9EAD1E060E07F
:10415000CE010E9433332196C11584E0D807B9F708
:10416000DF91CF910895A8E0B0E0E9EBF0E20C9484
:10417000BE32F82E8FE08F1508F474C08FEF93E0F5
:104180000E94153381116EC009EA11E0FF2071F021
:10419000011594E0190709F465C0C8010E941533A0
:1041A000811101C0FA940F5F1F4FF0CFFE013196CD
:1041B0006F0188E011928A95E9F77801FFEFEF1A15
:1041C000FF0AC8010E94153389831A82882309F4E3
:1041D00049C0813009F040C0580182E0A80EB11CEE
:1041E000C7010E9415338A838823E1F19FEF980F5E
:1041F000933060F4780193E0E90EF11CC5010E9450
:1042000015338B83882371F11C8226C0843019F505
:104210004E01E3E08E0E911C02E010E07501FFEF0D
:10422000EF1AFF0AC5010E941533F40181934F0173
:104230008823C1F08C3741F4E2E0F0E0EC0FFD1F81
:10424000E00FF11F108208C00F5F1F4F57010730AA
:10425000110521F707C0750160E0C6010E944425E1
:104260008701ABCF2896ECE00C94DA32CF93DF9342
:1042700086319C4709F5EB010E94A70C9D8199238B
:1042800071F08A7A91E009F490E0909344048111EE
:1042900002C089E201C085E30E94A92909C080917A
:1042A0004404811102C089E201C085E30E94C02953
:1042B0000E944E0D80E001C081E0DF91CF91089512
:1042C000CF93DF93FC01DB0115968C91882309F4D1
:1042D000DDC09F0130572332310508F0D8C0EF010F
:1042E0000E94EA0D9093680480936704FE01E150F8
:1042F000F047E232F10520F4E057FF4F0C94AB3267
:10430000809167048160AAC0809168048860B2C00F
:10431000809167048260A2C08091670420C0809170
:10432000670488609BC0809168041EC08091680407
:104330008260A0C080916704806190C08091670412
:1043400080628CC080916704806488C00E941508D8
:1043500080916704806882C080916704886084606F
:104360007DC0809168048260816084C08091670410
:104370008E7F74C080916804877F7CC080916704C1
:104380008D7F6CC08091670420C080916704877F17
:1043900065C0809168041EC0809168048D7F6AC0EA
:1043A000809167048F7E5AC0809167048F7D56C0CC
:1043B000809167048F7B52C00E941508809167042A
:1043C0008F774CC080916704877F8B7F47C0809137
:1043D00068048D7F8E7F4EC08091670482FB222708
:1043E00020F991E0922790FB82F990FB83F936C087
:1043F00080916804982F909591708E7F892B90FB07
:1044000081F938C08091670486FB222720F991E06A
:10441000922790FB86F922C00E94150880916704BC
:1044200087FB222720F991E0922790FB87F916C09D
:1044300081E001C080E00E947A0E1EC08091670476
:1044400084FB222720F991E0922790FB84F906C093
:1044500080916704982F909590FB80F98093670472
:104460000BC08091680483FB222720F991E09227FA
:1044700090FB83F9809368048091670490916804AD
:104480000E94EF0D0E94150880E001C081E0DF91DD
:10449000CF910895282F35EB2303C001112497FFF6
:1044A00003C08058910902C080589F4F892F0895FA
:1044B00080914B0480FF06C06091EF0170E0660FB1
:1044C000771F26C081FF04C06091EF0184E005C022
:1044D00082FF07C06091EF0188E0689FB00111245E
:1044E00017C090914A049923D1F06091EE0196177C
:1044F00088F72091EF0188E0289F90011124929F76
:10450000A001939F500D112470E0CA010E949732C0
:104510006038710540F46115710519F406C068E052
:1045200070E0862F08958FE7089581E008958091C7
:104530004B0480FF08C06091EB0170E075956795B2
:104540007595679521C081FF06C06091EB0170E011
:104550007595679519C082FF04C06091EB0170E00A
:1045600010C090914904992399F06091EA0196173F
:10457000A0F78091EB01899FC001112470E00E9497
:1045800097326038710540F46115710519F406C061
:1045900061E070E0862F08958FE7089581E0089527
:1045A00090914E0491110CC090914F04911108C04C
:1045B00090915104911104C090915004992331F0CD
:1045C00098E090934A0491E0909349048D3C21F443
:1045D0000E945822819504C08E3C29F40E945822E2
:1045E00080934F0408958F3C21F40E9458228195B6
:1045F00004C0803D29F40E94582280934E040895FF
:10460000893D19F40E94972205C08A3D31F40E9429
:10461000972281958093500408958B3D21F40E9448
:104620009722819504C08C3D29F40E9497228093A3
:10463000510408959FE2980F983078F421E030E01B
:10464000A90102C0440F551F9A95E2F7CA01909143
:104650004D04892B80934D0408958D3D21F4809164
:104660004B0481600BC08E3D21F480914B0482602D
:1046700005C08F3D29F480914B04846080934B04E6
:1046800008958D3C39F490914F0497FF35C01092F6
:104690004F0459C08E3C29F490914F041916BCF375
:1046A0002BC090914E048F3C29F497FF25C01092A7
:1046B0004E0449C0803D19F41916CCF31DC09091E9
:1046C0005004893D29F41916BCF4109250043BC0E3
:1046D0008A3D19F497FF10C0F8CF8B3D39F49091C3
:1046E000510497FF09C0109251042DC08C3D21F454
:1046F000909151041916BCF39FE2980F983080F402
:1047000021E030E0A90102C0440F551F9A95E2F75D
:10471000CA01809590914D04892380934D0413C064
:104720008D3D21F480914B048E7F0BC08E3D21F492
:1047300080914B048D7F05C08F3D29F480914B04FF
:104740008B7F80934B0480914E04811106C0809131
:104750004F04811102C010924A04809150048111CB
:1047600006C080915104811102C01092490408953D
:104770000E94CD2A20914E04211104C020914F04A3
:10478000222321F090934804809347042091500401
:10479000211104C020915104222321F0909346045A
:1047A000809345048CE494E00E94AA280895ECE4E8
:1047B000F4E086E0DF011D928A95E9F710924A0441
:1047C0001092490410924B040895FC0182818111DA
:1047D0000DC0838181110AC08481811107C091E0DD
:1047E0008581811101C090E0892F01C081E0817035
:1047F0000895A6E0B0E0EFEFF3E20C94C73286E054
:10480000ECE4F4E0DE01119601900D928A95E1F757
:1048100010924E0410924F041092500410925104C2
:104820008B81811104C08C81882309F456C080914A
:104830004704909148040E94E52AAC0190914A04F3
:10484000992339F02091F00130E02417350758F012
:1048500044C02091F1018AE0289F9001112424177F
:10486000350718F03AC09F3F19F09F5F90934A04B4
:104870001B81112361F00E945822111614F09FEF42
:1048800001C091E0989F902D112490934E041C81BB
:10489000112361F00E945822111614F09FEF01C0FD
:1048A00091E0989F902D112490934F0480914E0495
:1048B000882399F010914F04112379F00E944A2225
:1048C000811101C081E080934E04812F0E944A2211
:1048D000811101C081E080934F048D81811104C05A
:1048E0008E81882309F456C0809145049091460436
:1048F0000E94E52AAC0190914904992339F0209156
:10490000EC0130E02417350758F044C02091ED0148
:104910008AE0289F900111242417350718F03AC027
:104920009F3F19F09F5F909349041D81112361F00F
:104930000E949722111614F09FEF01C091E0989FFA
:10494000902D1124909350041E81112361F00E9438
:104950009722111614F09FEF01C091E0989F902DBF
:1049600011249093510480915004882399F0109160
:104970005104112379F00E944A22811101C081E083
:1049800080935004812F0E944A22811101C081E04E
:1049900080935104BE016F5F7F4F8CE494E00E94CE
:1049A000F129811105C08CE494E00E94E523811176
:1049B0000E94B82386E0FE013196ACE4B4E0019099
:1049C0000D928A95E1F72696E3E00C94E332A0E09D
:1049D000B0E0EDEEF4E20C94C332E82FF0E0E45DD9
:1049E000FB4FD490282F26952695269530E0F90187
:1049F000E453FB4F0491877010E0082E02C0159518
:104A000007950A94E2F701701127F901E454FB4F6E
:104A1000E490F12C082E02C0F594E7940A94E2F792
:104A200091E0E922FF24F901E455FB4FC491D0E065
:104A300002C0D595C7958A95E2F7C170DD270115AB
:104A4000110519F081EE0E942A05E114F10419F014
:104A500086EE0E942A058D2D0E94BF05E114F10407
:104A600019F086EE0E9474050115110519F081EE0A
:104A70000E947405CD2B19F08CE20E94BF05CDB7C2
:104A8000DEB7E7E00C94DF32EF92FF920F931F93B3
:104A9000CF93DF93EC01162F0AE08881882309F475
:104AA00055C0813009F043C08981813041F47E01D5
:104AB00082E0E80EF11C8A810E94BF0509C08230A5
:104AC00049F47E01E2E0EE0EF11C8A810E942A0583
:104AD000E7012FC0833041F47E01F2E0EF0EF11CBC
:104AE0008A810E947405F4CF843011F0219621C090
:104AF0002A81229680E090E030E0205331092A306C
:104B0000310558F4089FA001099F500D1124C901D7
:104B1000840F951F21962881EFCF009751F0EFE980
:104B2000FFE03197F1F700C000000197F6CF0E9437
:104B3000E7242196812F882309F4AFCFEFE9FFE026
:104B40003197F1F700C000008150F5CFCDB7DEB747
:104B5000E6E00C94E0320F931F93CF93DF93C42FC2
:104B6000D22FFC0185818823B1F0409354040E9428
:104B7000CD2A909353048093520480E28C0F8830A6
:104B800008F04DC0C77081E001C0880FCA95EAF7F0
:104B90000E94C90544C080915404481330C08091DC
:104BA0005204909153040E94E52A883C910538F5FF
:104BB00010E21D0FCD17B9F080E28C0F883040F461
:104BC000C77081E001C0880FCA95EAF70E94D0053E
:104BD000183010F581E09D2F977001C0880F9A95CD
:104BE000EAF70E94C905802F0E94BF051830B8F46B
:104BF000D77081E001C0880FDA95EAF70AC080E239
:104C00008C0F883060F4C77081E001C0880FCA95AE
:104C1000EAF70E94D00503C0802F0E94BF05DF91F4
:104C2000CF911F910F9108950F93FC01E851FC471C
:104C3000E730F10590F5CB01EE54FF4F0C94AB3209
:104C400006E221EE41EE6AE17CE723C007E225EEB1
:104C500045EE6BE17CE71DC006E221EE40EE68E127
:104C60007CE717C007E225EE44EE69E17CE711C05E
:104C700006E221EE42EE6CE17CE70BC007E225EE96
:104C800046EE6DE17CE705C008E221E045EE6EE10D
:104C90007CE70E94AB2580E008C0FB01858188236A
:104CA00019F01092540401C081E00F9108951F93F0
:104CB000CF93DF9387372CE7920721F088379C4703
:104CC00059F031C0FB01C581CC2319F00E9499260F
:104CD00009C00E94992618C0FB01C581CC2391F020
:104CE0000E949C260E948D080E949F26D82F0E9419
:104CF0009C26C82F0E9499264D2F6C2F0E94B70921
:104D0000C0E012C00E949C260E9499080E949F2623
:104D1000182F0E949C26D82F0E949926412F6D2F74
:104D20000E94B70901C0C1E08C2FDF91CF911F9184
:104D300008958091F40108958091F3010895809180
:104D4000F201089585E290E00E941533843281F4E7
:104D500086E290E00E941533823051F487E290E0C1
:104D60000E94153391E0863009F090E0892F01C050
:104D700080E081700895CF93C82F811102C06FEF3A
:104D800001C064E285E290E00E943333C11102C0A9
:104D90006FEF01C062E086E290E00E943333C11100
:104DA00002C06FEF01C066E087E290E00E943333FB
:104DB000CF910895089588E290E00E941533682FFE
:104DC00070E080E090E008950895CF93C62F0E9490
:104DD000E4266C2F88E290E00E943333CF9108954F
:104DE00080E00E94BB2660E070E0CB010E94E526D7
:104DF0000E94EE1F0E94A32081E00E94BB2608951E
:104E00000E94DA260E94DB260E94E4260E94A22647
:104E1000811102C00E94F02608950E94A11D0895EC
:104E20009C01FB018581882351F0A9015757403827
:104E3000510530F4C9010E94B32080E0089581E05B
:104E400008952FEFFC012083089580E00895CF930B
:104E5000DF93EC0188818230D1F070F4813009F564
:104E60000E94281E2FEF829FC001112468E770E086
:104E70000E948332698315C0833081F0843089F4C5
:104E80000E94221E89830E94251E8A830AC00E94D6
:104E9000C21D882329F00E94E51D02C00E94A71EA2
:104EA0008983DF91CF9108951F93CF93DF93EC0116
:104EB00088818230D9F078F4813059F5198128E75A
:104EC000129F112D11240E94251EC82F0E94221E00
:104ED000412F6C2F1BC08330A9F08430D1F40E9485
:104EE000281E9981482F6A81892F10C089818111DC
:104EF00003C00E94B61D0DC00E94A91D89810E9499
:104F0000DD1D07C089810E94A11E03C090E00E94A0
:104F10001E1EDF91CF911F910895FC019C012E5F11
:104F20003F4F9081983041F0993051F0973059F4CB
:104F3000C9010E9454270895C9010E942727089596
:104F40000E94D81508958FEF80830895FC01218178
:104F5000233019F40E948D2708950E942127089577
:104F6000A0E0B0E0E6EBF7E20C94C032EC01D62E04
:104F70000E9425278111BEC0E8818E2F90E0FC01A0
:104F80003197E331F10508F0AFC0E754FF4F0C94BF
:104F9000AB3219828CE06BC08981823089F030F4A9
:104FA000813009F0A1C00E94D92A0CC0833079F069
:104FB000843009F099C01A821B821C821D8296C01F
:104FC0000E94DB269A838B837C836D838FC0CA808B
:104FD0007E0100E010E0AC2CB12CC501800F911FC8
:104FE000049708F083C08C2D800F0E94C111F70137
:104FF000938384830F5F1F4FF2E0EF0EF11C0E309E
:10500000110559F773C08981823039F0853009F074
:105010006BC08A810E940D2769C06A817B818C8167
:105020009D810E94B1320E94E52660C04B816A8159
:1050300089810E94B21F9C838D8358C02C813D8141
:105040003227232732274B816A8189810E94D31F0F
:105050004DC00E94EE1F4AC06D2DCE010E94A627B2
:1050600045C00E945A2024C00E945C2099838A83F4
:105070003DC06B8170E089819A81AE014C5F5F4FCA
:105080009827892798270E945F2030C06B8170E0A5
:1050900089819A81AE014C5F5F4F982789279827B5
:1050A0000E94822023C00E94A32020C00E949F1F34
:1050B00089831CC06B8170E089819A81AE014C5F4D
:1050C0005F4F9827892798270E940C200FC06B817B
:1050D00070E089819A81AE014C5F5F4F98278927E4
:1050E00098270E942E2002C08FEF88836D2DCE015D
:1050F0000E94B52BCDB7DEB7EAE00C94DC3290937A
:105100005A04809359040895E0915904F0915A0487
:10511000309729F00190F081E02D0995089580E005
:105120000895E0915904F0915A04309721F00280DB
:10513000F381E02D09950895E0915904F0915A0406
:10514000309739F026E0DC012C930480F581E02DC6
:1051500009950895E0915904F0915A04309739F077
:1051600022E0DC012C930680F781E02D099508955B
:10517000A3E0B0E0EEEBF8E20C94C83220915704C3
:105180003091580428173907A1F090935804809360
:105190005704E0915904F0915A04309751F023E0FC
:1051A00029839B838A830084F185E02DCE010196BB
:1051B00009952396E2E00C94E432A3E0B0E0E3EE3C
:1051C000F8E20C94C8322091550430915604281707
:1051D0003907A1F09093560480935504E091590447
:1051E000F0915A04309751F024E029839B838A83FD
:1051F0000084F185E02DCE01019609952396E2E029
:105200000C94E432E091E001F091E101329680915A
:10521000FF01882359F08091670487FF07C0E09160
:10522000DE01F091DF0132969EE101C096E080E060
:10523000915028F021912223D9F38F5FF9CF08955F
:10524000882399F19091FF01992309F190916704C6
:1052500097FF1DC0982F9695969596959E3128F5A7
:10526000E091DE01F091DF01E90FF11D2281422F73
:1052700050E0877021E030E002C0220F331F8A9592
:10528000E2F72423352381E0232B91F40EC02091F3
:10529000E0013091E101F9013296285F3F4F919191
:1052A000891729F0E217F307D1F780E0089581E02C
:1052B00008959C01FC0132969FEF80E041914617D2
:1052C00089F09F3F19F4411101C0982F8F5F8630FC
:1052D000A9F79F3F39F0F901E90FF11D97FDFA9504
:1052E0006283089508959C012A5F3F4FFC0142812B
:1052F000461301C01282019682179307B9F70895E9
:10530000262F2695269526952E3168F4FC01E20F6E
:10531000F11D677021E030E001C0220F6A95EAF7C5
:105320008281282B22830895262F2695269526955F
:105330002E3170F4FC01E20FF11D677021E030E0C6
:1053400001C0220F6A95EAF72095828128232283E3
:105350000895682F8091FF01882359F08091670498
:1053600087FF07C08091DE019091DF010E948029B4
:1053700008958091E0019091E1010E9459290895DA
:10538000682F8091FF01882359F08091670487FF7F
:1053900007C08091DE019091DF010E949429089559
:1053A0008091E0019091E1010E947329089580911C
:1053B000FF01882359F08091670487FF07C0E091BF
:1053C000DE01F091DF0132968EE106C0E091E0014E
:1053D000F091E101329686E0DF011D928A95E9F7AE
:1053E0000895DC01FB0111969C911197818198131E
:1053F00021C012968C911297882319F092818913FB
:1054000019C013968C911397882319F093818913EF
:1054100011C015968C911597882319F095818913E1
:1054200009C014969C91992339F081E024812913B5
:1054300004C002C081E001C080E081700895089539
:105440000E941F2A089583E080935B040E94202A13
:105450000895811102C081E001C082E080935B0465
:105460000E94202A08950E94292A089581E08093AD
:105470005B040E94202A08950E94362A0895089508
:105480000E943F2A08950E94402A08950E943F2AC0
:1054900008950E943F2A08950E943F2A0895CF93BD
:1054A0000E94492A0E9495120E94462AC0E08C2F31
:1054B0000E94C111892B29F4CF5FC430C1F780E06D
:1054C00001C081E0CF91089585B7806885BF85B719
:1054D000806885BF08951F920F920FB60F92112416
:1054E0008F939F93AF93BF9380915C04811113C0FE
:1054F0008091330590913405A0913505B091360522
:105500004196A11DB11D8093330590933405A0935E
:105510003505B0933605BF91AF919F918F910F9054
:105520000FBE0F901F90189580913B05843031F18C
:105530000E94930410925C0420E488E190E00FB68E
:10554000F894A895809360000FBE2093600083B705
:10555000817F846083BF83B7816083BF789488959F
:1055600083B78E7F83BF0FB6F894A89580916000B3
:10557000886180936000109260000FBE08950E94C1
:1055800015080E949D04089582E084BD93E095BDB6
:105590009AEF97BD80936E0008952FB7F89480918D
:1055A000330590913405A0913505B09136052FBF94
:1055B00008952FB7F8946091330570913405809168
:1055C0003505909136052FBF08959C014FB7F8948B
:1055D0008091330590913405A0913505B091360541
:1055E0004FBF821B930B0895CF92DF92EF92FF92F1
:1055F0002FB7F894C0903305D0903405E09035056E
:10560000F09036052FBFA7019601261B370B480BDC
:10561000590BCA01B901FF90EF90DF90CF90089528
:1056200078941F920F920FB60F9211248F939F932D
:10563000AF93BF938091330590913405A0913505C8
:10564000B09136050196A11DB11D8093330590934D
:105650003405A0933505B0933605BF91AF919F9166
:105660008F910F900FBE0F901F90189581E080933F
:10567000E00080E28093D8001092C9008FE19EE4A0
:105680000197F1F700C0000087E090EBDC01809308
:10569000440590934505A0934605B09347059CE0CB
:1056A00088E10FB6F894A895809360000FBE9093A0
:1056B0006000FFCF9CE088E10FB6F894A895809336
:1056C00060000FBE90936000FFCF80916504089545
:1056D0009B0190913B059430F1F48F708093E90029
:1056E0008FEF9091E800815095FD06C095ED9A9559
:1056F000F1F700008111F5CF8091E80085FF0BC024
:10570000BA01C90140E050E00E94B02D8091E8004C
:105710008E778093E800089543E050E0BC0184E078
:105720000E94682B089546E050E0BC0184E00E948E
:10573000682B089540E250E0BC0184E00E94682B91
:105740000895CF93DF93EC0148E050E0BC0181E085
:105750000E94682B88E0FE01ADE5B4E001900D9257
:105760008A95E1F7DF91CF910895603231F4BC0161
:1057700040E250E082E00E94682B089580913A0553
:10578000811109C00E94802F0E94DD2F8091E200CC
:1057900084608093E200089510923A0508950E9473
:1057A0003C2A08956091370581E0611101C080E0D5
:1057B0000E94232A089590913B0581E0943009F0DE
:1057C00080E0609137050E94292A089542E061EC4B
:1057D00081E00E94F92E42E261EC84E00E94F92E01
:1057E00042E261EC82E00E94F92E42E260EC83E04A
:1057F0000E94F92E90913B0581E0943009F080E001
:10580000609137050E94332A089580913D058330C9
:1058100009F463C030F4813071F0823009F49DC026
:1058200008958A3009F489C08B3009F46EC089303C
:1058300009F0ABC020C080913C05813A09F0A5C0B9
:105840008091E800877F8093E800809140059091E7
:105850004105892B21F468E08DE594E003C060E008
:1058600080E090E070E00E943A2E8091E8008B7713
:105870008093E800089580913C05813209F085C04D
:105880008091400590914105009719F0029709F029
:105890007CC08091E800877F8093E8008091E800D9
:1058A00082FD05C080913B058111F8CF6EC020912B
:1058B000F3008091F20090E0922B029731F48091F6
:1058C000F100813011F0863021F48091F100809355
:1058D00065048091E8008B7754C080913C05813A43
:1058E00009F053C08091400590914105892B09F042
:1058F0004CC08091E800877F8093E8008091E800A9
:1059000080FFFCCF8091FF0137C080913C05813240
:10591000E1F58091400590914105892BB1F5809189
:10592000E800877F8093E8000E942E2F80913E053B
:105930008093FF010E941508089580913C058132F3
:1059400021F58091E800877F8093E8000E942E2F48
:1059500080913F0580936604089580913C05813ACB
:10596000A1F48091E800877F8093E8008091E800AF
:1059700080FFFCCF809166048093F1008091E80065
:105980008E778093E8000E942E2F089584B7877F3A
:1059900084BF0FB6F894A8958091600088618093C9
:1059A0006000109260000FBE90E080E80FB6F8949F
:1059B00080936100909361000FBE0E94362A089583
:1059C0000E94802F0E94DD2FE2EEF0E08081846053
:1059D000808378940E946832089585EF91E00E9458
:1059E0007F28089580913B058530A9F480913B057F
:1059F000853079F40E94942A809139058823B1F387
:105A00000E944F2A882391F30E949A2D0E94150824
:105A1000EDCF0E94BF2A0895A0E2B0E0E2E1FDE2EE
:105A20000C94C83280913B05843011F583E080935B
:105A3000E9008091E80082FF1BC08091E80085FFAB
:105A40000AC040E050E060E270E0CE0101960E94A2
:105A5000F52D91E001C090E08091E8008B77809374
:105A6000E800992329F060E2CE0101960E94B02758
:105A7000A096E2E00C94E4329A01409142055091E4
:105A800043050E94442D0895492F55274330510561
:105A9000C9F060F44130510581F04230510509F000
:105AA00041C08BE590E040E155E040C041325105F6
:105AB000E1F04232510531F135C082E190E04BE630
:105AC00055E034C099278130910549F028F00297BC
:105AD00049F5ECEDF4E005C0ECE0F5E002C0E2EFE2
