:1000000037C200006DC200006BC2000069C2000070
:1000100067C2000065C2000063C2000061C2000048
:100020005FC200005DC200000C948F210C945B2223
:100030000C94601C55C2000053C2000051C2000065
:100040004FC200004DC200004BC2000049C2000078
:1000500047C200000C94D91C43C2000041C20000FA
:100060003FC200003DC200003BC2000039C2000098
:1000700037C2000035C2000033C2000031C20000A8
:100080002FC200002DC200002BC2000029C20000B8
:1000900027C2000025C2000023C2000021C20000C8
:1000A0001FC200001DC200001BC20000167C1E0003
:1000B0001F0020002100220023002400250026002C
:1000C00027002D002E0031002B0014001A0008001C
:1000D000150017001C0018000C00120013002F0060
:1000E00030002A00390004001600070009000A0049
:1000F0000B000D000E000F003300340028004C00F0
:10010000E1001D001B000600190005001100100091
:10011000360037003800E500C1520000E000E3007F
:10012000E2000000000000002C00000000000000C1
:10013000E600E700E400000035003A003B003C0028
:100140003D003E003F0040004100420043004400AB
:1001500045004C00010001005200010001000100B7
:100160000100010001000100010001000100010087
:100170000100500051004F0001000100010001008A
:100180000100010001000100010001000100010067
:100190000100010001000100010001000100010057
:1001A0000100010001000000010001000100000049
:1001B000000000000100000000000000010001003C
:1001C000007C000035003A003B003C003D003E0052
:1001D0003F004000410042004300440045004C0005
:1001E00001000100520001000100010001000100B6
:1001F00001000100010001000100010001005000A8
:1002000051004F0001000100010001000100010048
:1002100001000100010001000100010001000100D6
:1002200001000100010001000100010001000100C6
:1002300001000000010001000100000000000000BA
:10024000010000000000000001000100007C00002F
:1002500000000000000000002A2B28000000000021
:100260000000000000000000000000290000000065
:100270002C1E3420212224342627252E362D3738D3
:10028000271E1F202122232425263333362E3738DC
:100290001F0405060708090A0B0C0D0E0F1011129A
:1002A000131415161718191A1B1C1D2F3130232D66
:1002B000350405060708090A0B0C0D0E0F10111264
:1002C000131415161718191A1B1C1D2F3130354C15
:1002D000000000000000000000000000000000001E
:1002E000000000000000000000000000000000000E
:1002F000000000007E0F00D4FFFFFFC70000007861
:10030000100347005F0049004400420036003000FF
:1003100000000A034E006100730070000000040337
:10032000090409025B00030100A0FA0904000001AE
:100330000301010009211101000122440007058188
:100340000308000109040100020300000009211153
:100350000100012222000705820320000107050396
:10036000032000010904020001030000000921111B
:10037000010001227B000705840320000112010017
:10038000020000000870700835010001020001063B
:1003900060FF0961A1010962150026FF0095207523
:1003A0000881020963150026FF0095207508910257
:1003B000C005010902A10185020901A10005091971
:1003C000012908150025019508750181020501091B
:1003D0003009311581257F95027508810609381588
:1003E00081257F950175088106050C0A3802158163
:1003F000257F950175088106C0C005010980A1010E
:10040000850319012AB700150126B700950175105B
:100410008100C0050C0901A101850419012AA0026F
:10042000150126A002950175108100C0050109067D
:10043000A101050719E029E71500250195087501B7
:1004400081029501750881010507190029FF150032
:1004500026FF009506750881000508190129051574
:10046000002501950575019102950175039101C063
:1004700011241FBECFEFDAE0DEBFCDBF04B603FE0E
:1004800018C080918C0290918D02A0918E02B09143
:100490008F028730904BA740B04B59F410928C02DA
:1004A00010928D0210928E0210928F02E0E0F8E31B
:1004B000099511E0A0E0B1E0E8E8F9E402C0059098
:1004C0000D92A23BB107D9F722E0A2EBB1E001C047
:1004D0001D92AC38B207E1F70E94EF100C94C224D1
:1004E0008FCD8330B8F46530A8F44E3098F4E42F03
:1004F000F0E09EE0699FE00DF11D112496E4899FD4
:10050000E00DF11D1124EE0FFF1FE455FF4F859103
:100510009491089581E090E0089581E00895FDCFE1
:100520000895FBCF089581E00895F7CF0895F5CFA2
:100530000895FDCF089508950895FDCF0895089575
:100540000895A6E0B0E0E7EAF2E00C94262449839F
:100550005A839E833091B90189819A81311117C0E4
:100560003E81332389F0222379F06FD5182F682F2D
:1005700089819A8149D569817A81812F0E94460EAD
:100580002696E3E00C94422450D5182FF4CF5DD585
:1005900069817A81F3CFFC01262F408151816281EC
:1005A000738184819581CDCFCF93DF93EC0161E09E
:1005B000F2DFBE01B4DF882349F061E0CE01EBDF5A
:1005C000BE01AFDF8170DF91CF91089580E0FACF57
:1005D0000F931F93CF93DF93EC0160E0DCDF8C017E
:1005E000BE01AADFBE01C801A8DFDF91CF911F9134
:1005F0000F91089591E001C0990F8A95EAF7892F2C
:1006000061C4CF93C82F81E00C2E01C0880F0A94DB
:10061000EAF70E94530C8C2FEDDFCF91089581E013
:100620000895FDCF0895FBCF0895CF93C82F05D42B
:100630008C2FF7DF8C2FF7DF2FEF84E39CE0215026
:1006400080409040E1F700C00000CF91089581E024
:10065000ECDF0C94FF1C80E0E8DF0C94231D0F936B
:100660001F93CF93DF938C0161E095DFEC01B8011C
:100670005CDF811106C080E0DF91CF911F910F9167
:100680000895B801CE0155DF8823A9F3B801CE0142
:100690000E948419882379F3B801CE010E94AB1817
:1006A000882349F3B801CE010E94C113882319F3AE
:1006B000B801CE010E949A138823E9F2B801CE0155
:1006C0000E94F5188823B9F2B801CE010E94470FA5
:1006D000882389F2F8018581882361F0C330FCE723
:1006E000DF07D9F050F4C115ECE7DE07A1F0C13007
:1006F000DC47A9F0C80117DFBFCFCB358CE7D8079F
:1007000099F0CC35ECE7DE0761F0CA35DC4791F7AC
:100710000E94190CEFCF9BDFAECF0E94480C9BDFED
:10072000AACF0E94110CE6CF0E941B0CE3CF07DF7B
:100730000E94371C17C018D003DF0C943B1C81E0CB
:1007400008950895CF93DF93D82FF9DFC82F88231A
:1007500011F08D2FF6DF8C2FDF91CF910895089542
:10076000F1CF089580E0FCCF0E94BF1AF9CFCF935C
:100770000E94BF1AC82F8091B4018C1771F0C093EA
:10078000B4010E94CD1C6093B5017093B6018093B3
:10079000B7019093B8018C2FE3DFCF910895ADE0BE
:1007A000B0E0E5EDF3E00C942724488759876A8789
:1007B0007B878C879D8791118AD71F8286E0FE01F7
:1007C0003896DE01119601900D928A95E1F78D81A0
:1007D00081110CC029813A814B815C816D817E81C0
:1007E0008F81C3D62D96E2E00C944324CE0101966E
:1007F000DBDE8111EFCFF6CFFC012481213019F42B
:10080000808191814EC40895662321F00E94421593
:100810000C9410160E949415FBCFCF938823C1F03F
:10082000C82F8238B9F40E94CE1A81FD11C089E325
:100830000E94941BB4D72FEF87EE93E021508040A5
:100840009040E1F700C0000089E30E949A1BA7D7FF
:10085000CF910895833899F40E94CE1A80FDF8CF85
:1008600083E50E94941B9BD72FEF81EE94E02150EB
:1008700080409040E1F700C0000083E5E6CF843877
:1008800099F40E94CE1A82FDE3CF87E40E94941B64
:1008900086D72FEF81EE94E0215080409040E1F721
:1008A00000C0000087E4D1CF8CEF8C0F813A68F450
:1008B0008C2F0E94591B882321F08C2F0E949A1B99
:1008C0006ED78C2F0E94941BC2CF80E28C0F883091
:1008D00040F4C77081E001C0880FCA95EAF7D8D606
:1008E000B6CFEBE5EC0FE33040F4F0E0ED5AFE4F0D
:1008F000808190E00E94EF1AABCFE8E5EC0FEB317E
:1009000050F4F0E0EE0FFF1FE35EFE4F8081918117
:100910000E94161B9DCF83E38C0F833108F098CF84
:1009200061E08C2F71DF94CF882309F44DC08238A9
:1009300061F40E94CE1A81FF47C089E30E94941B94
:100940002ED789E30E949A1B2AC7833851F40E944C
:10095000CE1A80FF39C083E50E94941B20D783E51F
:10096000F1CF843851F40E94CE1A82FF2DC087E463
:100970000E94941B14D787E4E5CF9CEF980F913A1F
:1009800008F390E2980F983048F4877091E001C026
:10099000990F8A95EAF7892F81D6D6CF9BE5980FD4
:1009A000933020F490E080E00C94EF1A98E5980FD3
:1009B0009B3120F490E080E00C94161B93E3980F99
:1009C000933110F460E020CF08951F93CF93DF930D
:1009D000182FEB0122DF209731F4812FA5DFDF9163
:1009E000CF911F9108958FE99FE00197F1F700C023
:1009F00000002197F0CF70E060E0893311F460E5EA
:100A000070E0E3CF882311F043D6C9C60895882348
:100A100011F044D6C4C60895B0E0A0E0E2E1F5E0EC
:100A20000C9421246C01D62FC72FFC01158106815F
:100A300002950F7023D6E82E8823E9F0E12E1123CA
:100A4000D1F08C2F807F803461F080E28D0F883070
:100A500060F18C2F807E803221F4D23030F100237F
:100A600021F18091660282FF20C082E0B4D606D6D2
:100A700091E0E82EE926FC2EF2949FE0F922FBE0BB
:100A8000FF1508F43CC0EF2DF0E0E75BFA4F0C9443
:100A90000A24570557058E058E05E70508067F05CC
:100AA0007F050C066F067C067C06E12CE4CF0C2F3C
:100AB0000F70C07F11F00295007F112381F0002399
:100AC00049F080E28D0F883010F0D11105C0802FE1
:100AD000DFD565D68D2F41C0802FEBD5FACF8D2F76
:100AE00023DF002361F080E28D0F883010F0D111F8
:100AF00003C0802FD3D502C0802FE1D550D6EE2081
:100B000009F4B3C0B7D580FDB0C0F6011582ACD5ED
:100B1000FBD1C60163D1A8D501D2A7C02C2F2F705D
:100B2000F22EC07FC03219F0F29480EFF822DD235C
:100B300041F0D13081F1112309F439C00023C9F00B
:100B4000C9CF8091660282FD10C0112341F0FF20C1
:100B500019F08F2D9DD523D680E05FDED0CF80E0C9
:100B6000E3DEFF2061F28F2DC5CF112359F0011173
:100B700003C08F2D47DFC3CF013009F0C0CF8F2DC9
:100B8000BAD5BDCF0111BBCF8F2D41DF8F2DBED583
:100B90008F2DA3D5B4CF112321F0033008F0AFCFB0
:100BA000E8CF023008F0ABCF8F2D31DFA8CF002384
:100BB000D9F3D93349F48FEF97EEE3E081509040B9
:100BC000E040E1F700C000008D2FAEDE98CF8C2F03
:100BD00086958695837041F0813081F088EF8F0D86
:100BE000843008F08CCF3EC08D2F9C2F9370111154
:100BF00002C080E090E00E94EF1A81CF8D2F9C2FE1
:100C00009370111102C080E090E00E94161B77CF14
:100C1000612F8D2FF9DD73CF8C2F837089F5111122
:100C200021C04D2F429546954770440F440F8D2F9C
:100C30008F70042E01C0880F0A94EAF720E0D4FFD9
:100C400007C02FE030E001C0220F4A95EAF7209557
:100C5000822BC695C695C370C23071F078F4C1304E
:100C600049F036D10E94BF1A7BDDCDB7DEB7E8E090
:100C70000C943D2429D1F6CF2FD1F4CF23D1F2CF3C
:100C80008695112311F08C2F8170882359F34D2FF5
:100C9000429546954770440F440F8D2F8F70042E58
:100CA00001C0880F0A94EAF720E0D4FF07C02FE0C4
:100CB00030E001C0220F4A95EAF72095822BC695B5
:100CC000C695C370C23039F040F4C13011F03FD145
:100CD000C9CF39D1C7CF3FD1C5CF08D1C3CFCF708E
:100CE000112329F08C2F10D18D2F8CDEBBCF8D2FAF
:100CF0008EDE8C2F13D1B6CFD23F49F168F4D03FAE
:100D0000C9F0D13F89F0112309F441C0002309F44F
:100D10003BC08D2F82DD62CFD33FF9F0D43F99F7EE
:100D20008091660282FD21C08C2F8F71112399F072
:100D3000EBD054CF112339F0023008F04FCF8C2F75
:100D40008F71F7D04BCF033008F048CFF8CF8C2FFE
:100D50008F71112369F3E2D041CF112321F08C2F41
:100D60008F71CBD03BCFC7D039CF112329F063E0AF
:100D70008C2F8F7119D532CF81E02DD5023008F438
:100D80002DCF82E028D52ACF8C2F8F71D1CF002391
:100D900071F0D93349F4FFEF27EE83E0F1502040A2
:100DA0008040E1F700C000008D2FBEDD17CF8C2FF3
:100DB0008F71D1CF0F931F93CF93DF93EC01688195
:100DC00079818D8177D18C01CAD07BD0B801CE01D9
:100DD00023DEDF91CF911F910F910895CF93DF9381
:100DE000FC012481222381F0EC0139DC81110FC048
:100DF00045D4882349F08D81882331F080916602A3
:100E000082FF02C082E0E7D4DF91CF910895CE0146
:100E1000D1DFCE01DDDBF8CF90E080E00E94EF1A59
:100E200090E080E00E94161B52D4B9D40E942C1688
:100E30000C9410160E94A01BEFCF38D4FBCF9295D4
:100E40009F70963089F050F49250923058F4803F61
:100E500019F030F4883E30F481E008959A50F5CFCF
:100E6000843FD1F380E00895883EB0F3813FD1F70D
:100E7000F3CFFC012481222321F08081918111D1C3
:100E8000DECF80E00895A6E0B0E0E9E4F7E00C945E
:100E900027242696E2E00C944324A7E0B0E0E3E5A3
:100EA000F7E00C9427242796E2E00C94432408955D
:100EB000FECF0895FDCF0895FADFFCDF8093D601C1
:100EC00008950895F9CF08959091D601892BF4CF14
:100ED0009091D6018923F0CF9091D6018927ECCF4C
:100EE000E6CF0895FDCF0895E2CF0895FDDFFADF44
:100EF0008093D501089580E0F9CF91E001C0990F6A
:100F00008A95EAF7892FF2CF21E030E001C0220F65
:100F10008A95EAF78091D501822BE8CF21E030E075
:100F200001C0220F8A95EAF720958091D50182238E
:100F3000DDCF21E030E001C0220F8A95EAF78091F1
:100F4000D5018227D3CF9091D501892BCFCF909116
:100F5000D5018923CBCF9091D5018927C7CF08959B
:100F6000262F277091E001C0990F2A95EAF723E018
:100F7000769567952A95E1F7FB01EE0FFF1FE60FC7
:100F8000F71FE40FF51F50E040E0682F70E08191FB
:100F9000DF0111979B01042E02C0369527950A9414
:100FA000E2F7217021952827292328272C934F5FCA
:100FB0005F4F4330510559F70895A82FA77023E0DC
:100FC000969587952A95E1F7FC01EE0FFF1FE80F34
:100FD000F91FE60FF71F50E040E080E0219130E07C
:100FE0000A2E02C0369527950A94E2F7217033271E
:100FF000042E01C0220F0A94EAF7822B4F5F5F4F45
:101000004330510559F70895282F953068F48E30F4
:1010100058F4862F622F70E02EE0929F600D711DB4
:1010200011244AEB51E09CCF0895953060F48E3046
:1010300050F4292F90E06AEB71E03EE0239F800D91
:10104000911D1124BACF80E00895CF92DF92FF92D4
:101050000F931F93CF93DF936C010091D501809183
:10106000D601082BC3E0D0E010E0FC2EC8010C2E06
:1010700002C0959587950A94E2F780FD0CC02197F0
:10108000A0F7F12C8F2DDF91CF911F910F91FF9041
:10109000DF90CF900895B6018C2F02D6019779F397
:1010A000F1CFCF93DF93EC01D0DFBE01F9D5DF9113
:1010B000CF9108951F93CF93DF93EB019091B901E6
:1010C000992331F0CB01EDDFDF91CF911F9108958E
:1010D000882351F0CB01B9DF182F682FCE0194DFA0
:1010E000BE01812FDDD5F0CFCB019FDF182FF8CFC8
:1010F000E1E0F0E0DF0102C0AA0FBB1F6A95E2F752
:10110000BD01DF0102C0AA0FBB1F4A95E2F76A2B9F
:1011100001C0EE0F2A95EAF7962F9823961302C086
:101120008E2B0895E0958E230895242F462F682F47
:101130008091D501DDDFDACE1F93CF93DF93C0918D
:10114000D70117E08091D8018C1304C0DF91CF91B3
:101150001F910895D0E01C9FF0011D9FF00D1124F8
:10116000E752FE4F20813181428153816481758134
:10117000868193DE2196C770E5CF209111023091D0
:101180001202409113025091140260911502709165
:1011900016028091170281CECF93DF9380911702C0
:1011A000807F09F04BC080911602882309F446C065
:1011B000E091D7015091D801C0911202D091110253
:1011C000609113027091140247E05E17B9F18E2FFF
:1011D00090E0E49FF0011124E752FE4F2481222386
:1011E00081F1489FF001499FF00D1124DF01A752C2
:1011F000BE4F11962C9111972C1323C02C912D13B7
:1012000020C015962C91159721111BC012962D9177
:101210003C91261B370B2F3A310598F48091170229
:101220008F70806180931702E152FE4F80818F7032
:101230008061808381E192E0D1DD7EDFDF91CF911B
:101240000895FC013196E770C0CF482F2091D70157
:101250009091D80157E0291302C080E0089530E052
:10126000529FF001539FF00D1124E752FE4F8181F0
:10127000681306C08081481303C085818111EECFB9
:101280002F5F3F4F2770E7CFA4E1B0E0EAE4F9E039
:101290000C941D248C0186E0F801DE011F9601905C
:1012A0000D928A95E1F7F8018481E58091E1A92EFC
:1012B00092E0B92E9091150291111AC08823A9F0DD
:1012C000EE2089F0C801D5DDF82E882361F087E093
:1012D000F801D50101900D928A95E1F7C5018CDAEC
:1012E0005BDF4BDF59C0C80179DDFF24F39454C0A4
:1012F000C080D18082809380F090160220911302EA
:1013000030911402A401421B530BFF2009F4E8C0E2
:101310004F3A510508F09BC0882309F43DC09091D5
:10132000120280911702282F207F09F055C0D91290
:1013300014C090911102C91210C0E11047C08F7003
:1013400080618093170219DF81E192E047DD80918F
:101350001702F8018683F12C1FC0E11037C06D2DF4
:101360008C2D73DF6D2D8C2D70DFE82E8111F3CF66
:10137000CF86D88A8F85988994DE292F22952F7061
:10138000243078F49F70223098F09923A9F0F80166
:101390009681907F89F4FE2C8F2D6496ECE00C945E
:1013A00039242A50223060F0C80118DDEF2CF3CF29
:1013B000992311F0882379F3805E8830A8F7EBCF6A
:1013C000803F48F3815F833078F7E5CF8091170243
:1013D000816080931702BFCFD91212C09091110281
:1013E000C9120EC0E1100CC08683C801F7DC87E08B
:1013F000F801A1E1B2E001900D928A95E1F771CF79
:10140000C80137DD882309F46ECFEE2009F46BCFD5
:1014100080911702803280F02091110230911202E7
:10142000398728879B868A86909115029C871D861E
:101430008E87CE010896D2DC87E0F801A1E1B2E008
:1014400001900D928A95E1F7A7DE97DE4ECF90913D
:101450001702292F207F89F4682D9A8A898AA6018C
:101460007A899E2D10DD81E192E0B8DC87E0F501FC
:1014700011928A95E9F781DE6ECF882309F48CCF2B
:10148000809112028D110FC080911102C8120BC001
:10149000E11009C09683C801A1DC87E0F501119233
:1014A0008A95E9F779CFC801E4DC882309F41BCFDA
:1014B000EE2009F418CF80911702803208F4BCCFD7
:1014C00020911102309112023A8329839C828B82EF
:1014D000909115029D831E828F83CE010196ABCF22
:1014E0004F3A5105A8F5882309F4FFCEFE2CEE20D3
:1014F00009F4F9CE809112028D111EC08091110263
:10150000C8121AC08091170280FD0DC0982F907FDD
:1015100051F08683903F09F468CF982F907F905FB9
:101520008F70892B61CF87E0F801A1E1B2E00190D3
:101530000D928A95E1F730CFC8019BDC81117CCFF9
:1015400080911702816080931702C80147DC24CF85
:10155000682D9A8A898AA6017A899E2D94DC87E073
:10156000F50111928A95E9F7BCCEAEE0B0E0EBEB65
:10157000FAE00C942624288739874A875B876C8792
:101580007D878E87CE0108967FDE882399F16C8552
:10159000662339F0288539854A855B857D858E856A
:1015A0007CDC17E08091D7019091D801891709F46C
:1015B00057C0819FC001112487529E4F65DE88234A
:1015C00009F44EC0E091D7011E9FF0011124E752AB
:1015D000FE4F2081318142815381648175818681F2
:1015E0005CDC8091D70190E0019687709927809309
:1015F000D701D8CF87E0FE013896DE011196019021
:101600000D928A95E1F78C85882359F22091D801B3
:1016100030E0C9010196877099274091D70148179A
:10162000190691F097E0929FD001939FB00D11247D
:10163000A752BE4FFE01319601900D929A95E1F7A7
:101640008093D80179DDADCFF8DB1092D8011092EC
:10165000D70187E0E1E1F2E0DF011D928A95E9F729
:101660002E96E3E00C944224809120028695869584
:1016700086950895809120028770089590912002A8
:10168000977081E009F480E0089580912C0208951C
:1016900090912C02892B80932C020895982F90957D
:1016A00080912C02892380932C02089510922C02A1
:1016B000089590912B02892B80932B020895982FE7
:1016C000909580912B02892380932B02089510928C
:1016D0002B0208950895FECF089590912102292F9D
:1016E000282329F08095892380932102F4CF08953F
:1016F0000895FECF089590912202292F28232817BC
:1017000021F0982B90932202F4CF08959091220219
:10171000292F282329F08095892380932202E9CF5D
:10172000089580912202882321F01092220280E005
:10173000E0CF08950F931F93CF93DF9300910001A3
:1017400010910101C0912C0280912B02C82B809135
:101750002202882329F0C82B0E944A1B8111E1DF55
:10176000F801C083C0910001D091010148E050E030
:1017700068E172E0CE010E946224892B59F088E072
:10178000FE01A8E1B2E001900D928A95E1F7CE0149
:101790000E94D01ADF91CF911F910F910895CACF67
:1017A00008950895FECF08959091660292FF0EC0AD
:1017B00098E0899F90011124622B60932002A4DBA2
:1017C00080912002869586958695ECCF9DCB1092D0
:1017D000200280E0E7CF90912002809589238093BA
:1017E0002002282F277059F4891749F0909166023A
:1017F00092FF05C086958695869590DBE8CF089583
:101800009091660292FB222720F9281749F080FB6D
:1018100092F99093660285E692E049D082E0DBCFB0
:1018200008958091660282FB882780F991E08927DC
:10183000E7CF81E0E5CF80E0E3CF60E070E0CB016F
:1018400083C360E070E0CB0179D3F7CFA3E0B0E0D1
:10185000ECE2FCE00C9427242CD337D31B82CE017E
:1018600003964AD381E08093D60150D31A8219821D
:101870008A81846080618A83CE01019658D30E9458
:101880006F19DFDF2396E2E00C944324DFCF089545
:1018900022C308950FD381110C943519089521C3E3
:1018A000089530C3089532C3089535C308953FC3E2
:1018B000089550C30895A6E0B0E0E1E6FCE00C9482
:1018C00025240E94C11C8C0180912D0290912E0232
:1018D0008017910781F019821A820E94C11C682F1B
:1018E00049815A81792F80E090E00E94CF031093C4
:1018F0002E0200932D022696E4E00C9441240E94CF
:10190000CD1C60933D0270933E0280933F02909302
:1019100040026093390270933A0280933B029093A5
:101920003C02089508950895FDCF08950895FEDFBF
:10193000FBCF0895FECF08950895FEDFFBCF85E429
:101940009FE060D4F0DFF3CF81E00895FDCF0895EC
:10195000FBCF0895089508950895FCDFFCDFFCCFC8
:1019600099DF811101C092DF81E492E098DF85E682
:1019700092E09BDF67D495DFA5DA8091D501B2CAEA
:101980000E94B81C0E947B19A2D3EADF0E94AF0319
:10199000D4CFA6E0B0E0EFECFCE00C941B24D6DF43
:1019A000811109C088DF0E944E160E94B703269657
:1019B000EEE00C9437249DD32FE2822E22E0922E6B
:1019C000640110E0F601E190F1906F01812FCDD21A
:1019D0001F5F153009F447C0E816F90699F38091A6
:1019E000410281FDCBD2B4DF782E10E066246394EF
:1019F000812FBBD27C01F401A190B1904F018A15D7
:101A00009B0561F100E0CC24C394D12CAE24BF240B
:101A1000C5018C219D21892BC1F07720B1F009836C
:101A20001A830E94C11C9C838B836D8221E0C701B5
:101A30008C219D21892B09F420E049815A816B81F9
:101A40007C818D81922F0E94CF030F5FCC0CDD1C17
:101A50000E30F1F6F4013297F182E0821F5F15300B
:101A600039F64DDFA0CFE816F90609F0B8CF9ACFC6
:101A70001F93CF93DF9316D1EC01C11580E5D807F2
:101A8000E8F5C11580E4D80708F099C0C03ED1053B
:101A900018F5CD3CD10508F081C0C83AD10570F4E5
:101AA000C53AD10508F072C0C130D10511F118F066
:101AB000C430D105F0F4D0E0C0E01BC0C33CD10578
:101AC000D0F7C85AD0E0CC0FDD1FCA5ADE4F0990BC
:101AD000D881C02DD4640DC0C11580E2D80708F0AC
:101AE000C6C0C11581E0D80708F05AC0C83ED1056C
:101AF00010F7CE01DF91CF911F910895C03682E596
:101B0000D80718F5C03482E5D80708F066C0C0329F
:101B100082E5D80708F05AC0C11582E5D80708F455
:101B20008FC02C2F2695269580E2289F90011124A6
:101B30008C2F8370C1E0D0E002C0CC0FDD1F8A95EE
:101B4000E2F7C22BD32BDD68D4CFC03A82E5D807A9
:101B500060F4C03882E5D80708F454C0CF71D0E0F3
:101B6000DC2FCC27C46FD06AC4CFC03C82E5D80735
:101B700008F45BC0C03E82E5D80708F09CCFDC2F9C
:101B8000CC27CC27DF71C06FD06AB3CFC55AD0E065
:101B9000C457DE4FC881D0E0D064ABCFD065A9CFA9
:101BA0008D2F24D1182FCE0199277CD0C12FD0E0C2
:101BB000DC2FCC27CC27DF71C82BD92B9ACFCE01B5
:101BC000992770D0CC27DF70D06AF6CFCF71D0E0E4
:101BD000DC2FCC27C16FD06A8CCF2C2F2695269571
:101BE000277080E2289F900111248C2F8370C1E020
:101BF000D0E002C0CC0FDD1F8A95E2F7DC68C22B73
:101C0000D32B77CF2C2F26952695277080E2289FFF
:101C1000900111248C2F8370C1E0D0E002C0CC0F62
:101C2000DD1F8A95E2F7DA68EACF8C2F8F71DED05C
:101C3000C82FD0E0DC2FCC27CC27DF71D06259CF62
:101C40008C2F8F71D3D055E0D695C7955A95E1F773
:101C5000CF70D0E0DC2FCC27282F30E084FF05C0E8
:101C600044E0220F331F4A95E1F7D069C8CF8D2F8A
:101C70008F71BCD0182FCE01992714D0C12FD0E07E
:101C8000DC2FCC27CC27DF71906296CF753028F4FB
:101C90006E3018F4462F672F3DC390E080E0089522
:101CA000F5DFE6CE82389105B9F1B0F481339105C4
:101CB00009F47DC048F48932910509F46DC08A3277
:101CC000910509F479C008958533910509F45FC041
:101CD0008933910509F10895833E9105D9F138F4CE
:101CE000803E910529F1823E910579F10895863E65
:101CF0009105D9F1873E910509F43EC0843E9105D6
:101D000041F52091660221FF24C08091650284FD87
:101D100019C087EE90E0089520916502237009F0C4
:101D200056C02091660223FF14C089E290E0089516
:101D30002091650220FD38C03091660230FF09C055
:101D400024FF3FC090E080E008952091650222FDCD
:101D5000F7CF08952091650222FD36C030916602CA
:101D600030FD35C024FDEECFF4CF2091650223FF76
:101D7000F0CF24FDE7CFCDCF2091650223FD2AC00F
:101D80003091660231FFEECF84EE90E0089520910D
:101D9000650225FDCACF08952091650225FD1DC06D
:101DA0002091660223FFD5CF89E390E0089520912A
:101DB000650226FD15C008952091650226FD13C019
:101DC000089583EE90E0089582EE90E0089580EE0D
:101DD00090E0089586EE90E0089585E390E0089500
:101DE0008AE290E0089581E390E0B3CF909165029C
:101DF00092FF10C041E0282F2471243009F040E008
:101E000031E0282F2871283009F030E0431711F015
:101E10002CE0822793FF10C041E0282F2471243149
:101E200009F040E031E0282F2871283109F030E036
:101E3000431711F02CE082273091660230FF10C06A
:101E400051E0282F2171213009F050E041E0282F86
:101E50002871283009F040E0541711F029E082275A
:101E600031FF10C041E0282F2171213109F040E0FD
:101E700031E0282F2871283109F030E0431711F0A4
:101E800029E0822794FD877E089580E00895CF930E
:101E90009C01205E3245C1E02032310538F4FB015F
:101EA000C581C11103C08F710E9401038C2FCF9196
:101EB0000895089590E080E00E94802421E0833E10
:101EC0009E4F09F020E0822F089563EE7EEF90E0B0
:101ED00080E00C94AE246FEF7FEF90E080E00C94F4
:101EE000AE24CF93DF93EC0182E090E00E9478244F
:101EF0008883DF91CF910895FC01608182E090E0BA
:101F00000C94942483E090E00C947824682F83E070
:101F100090E00C949424CF93DF93EC0184E090E064
:101F20000E94802499838883DF91CF910895FC01DA
:101F30006081718184E090E00C94AE24AB01BC011F
:101F40008FE090E00C94A624AB01BC0183E190E00B
:101F50000C94A624682F8EE090E00C9494240895AD
:101F6000FECF08950895FECF0895E82FF0E0EE0F1C
:101F7000FF1FEF58FD4F808191810895089580EAF9
:101F80008A95F1F7089500C00895F9CF0895F8945F
:101F9000E82FE295EF70F0E031A1282F2F7081E05B
:101FA00090E001C0880F2A95EAF7982F9095932327
:101FB00091A392A1892B82A3789408950F931F93E4
:101FC000CF93DF93CDE9D1E089918F3F09F0DFDF37
:101FD00081E0C23AD807C1F7CFE8D1E00DE911E0BE
:101FE00089918F3F09F0D3DF0C171D07C9F7DF91E7
:101FF000CF911F910F910895AF92BF92DF92EF9210
:10200000FF920F931F93CF93DF93EC01062F10E005
:10201000C80183569E4F7C01FC0190819F3F09F4CB
:1020200049C0D62EF894E92FE295EF70F0E081A137
:102030009F7021E030E001C0220F9A95EAF7822BD1
:1020400081A382A12095282322A378949CDFEFE826
:10205000F1E041E050E0B12CA12C21912F3FA1F102
:10206000A22FA295AF70B0E090968C9190E02F7067
:1020700002C0959587952A95E2F780FD25C0CA0193
:10208000A82AB92A440F551F81E0ED39F80729F72E
:10209000F70180818F3F09F07ADF61E0A114B1047C
:1020A00009F460E08D2D71DF000F111FC00FD11FEB
:1020B000B982A882DF91CF911F910F91FF90EF908D
:1020C000DF90BF90AF90089590E080E0D9CF76DFA9
:1020D0008AE0E1E7F2E0DF01982F1D929A95E9F797
:1020E000E7E6F2E0DF011D928A95E9F785E039D055
:1020F00037CFAAE0B0E0EFE7F0E10C9424248E01A2
:102100000F5F1F4F8AE0F80111928A95E9F7F12CD1
:102110006F2DC80171DFF394F5E0FF12F9CF4AE0AB
:1021200050E0B80187E692E00E94622421E0009727
:1021300009F420E0892B41F08AE0F801A7E6B2E03B
:1021400001900D928A95E1F745E061E772E087E63C
:1021500092E008D0182F07DF812F2A96E5E00C9433
:1021600040240895B0E0A0E0E8EBF0E10C942124D5
:102170006C017B01042FC22F222379F081E0809330
:1021800044020E94C11C909343028093420280E06B
:10219000CDB7DEB7E8E00C943D24D0914402DD23B6
:1021A000B1F380914202909143020E94501C059726
:1021B00070F310E0000F111FA801B601C7010E94C3
:1021C0006224892B31F0A801B601C7010E946F2457
:1021D000CD2F109244028C2FDBCFDBCB08950E94D1
:1021E000591C0E94931EABDB0E94AB1EC9DB0E94F0
:1021F000B41E0E94B71EF1DF0E94CD1E0E94781D02
:10220000ACDBF7CF9093B3018093B20108950C94A7
:102210003D1B08953DCB089580E0A7DE81700895B1
:1022200068DF2FEF86E791E0215080409040E1F792
:1022300000C000005EDFF0DF882319F0EBDF0C94B4
:10224000FF1C0895EDCF0895A1E0B0E0EAE2F1E1CE
:102250000C9423247C01FC01608171818281938133
:102260008E010F5F1F4F21E030E040E050E09CD135
:102270008981F70140815181628173814F5F5F4F96
:102280006F4F7F4F40835183628373832196E6E0D3
:102290000C943F2484E00895CDC00895FAC00895B9
:1022A0001F93CF93DF93C4D0D0E0C0E010C0412F84
:1022B0006C2F8D2F0E9471029C01412F6C2F8D2F4E
:1022C000E8D01F5F1E3099F7CF5FC53011F010E0E6
:1022D000EECFDF5FD43049F7DF91CF911F910895A2
:1022E0000F931F938A019B0150E040E0BC0190E0F6
:1022F00080E0F6D01F910F9108950F931F938A01EC
:102300009B0150E040E0BC0190E080E017D11F91BC
:102310000F910895843028F4653018F44E3008F495
:1023200089C090E080E0089580E1089538D1CB0124
:1023300008950F931F938A019B0150E040E0BC0178
:1023400090E080E031D11F910F9108950F931F937A
:102350008A019B0150E040E0BC0190E080E06AD13E
:102360001F910F91089565D0A9C14F925F926F920E
:102370007F928F929F92AF92BF92FF920F931F9383
:10238000CF93DF9300D000D0CDB7DEB7F82E8FE02B
:102390008F1518F104D161507109810991098E01DD
:1023A0000F5F1F4F21E030E040E050E0FDD0898119
:1023B000811113C0F4D02B013C01812C912C5401CC
:1023C000F1101DC019821A821B821C8240E0BE01DE
:1023D0006F5F7F4F84E291E1EAD50F900F900F90ED
:1023E0000F90DF91CF911F910F91FF90BF90AF9011
:1023F0009F908F907F906F905F904F90089584147E
:102400009504A604B70449F38E010F5F1F4F21E026
:1024100030E040E050E0C501B401C6D089818111AF
:1024200001C0FA948FEF881A980AA80AB80AC8CF90
:10243000089508950F931F93CF93DF93843030F561
:10244000653020F54E3010F5C42FD0E0CC0FDD1FE5
:102450002CE1629FC00DD11D11243CE8839FC00D6B
:10246000D11D1124CE0189960E947824082F10E0F6
:10247000102F0027CE018A960E9478249801282BDD
:10248000C901DF91CF911F910F91089590E080E0F5
:10249000F8CF1F93CF93DF93962F8430E8F4653005
:1024A000D8F44E30C8F4632F122FC42FD0E0CC0FD5
:1024B000DD1F2CE1929FC00DD11D11249CE8899F46
:1024C000C00DD11D1124CE0189960E949424612F44
:1024D000CE018A960E949424DF91CF911F91089596
:1024E000B0E0A0E0E6E7F2E10C941D246B017C0172
:1024F000E8014B015C01820E931EA41EB51EC601AD
:102500008996C814D904EA04FB0429F4CDB7DEB7D0
:10251000ECE00C94392420E3C21622E0D206E10458
:10252000F10450F40E947824888321968FEFC81A12
:10253000D80AE80AF80AE3CF1882F7CFB0E0A0E0A3
:10254000E4EAF2E10C941D246B017C01EB014B01E8
:102550005C01820E931EA41EB51E9601C6018996CB
:10256000C814D904EA04FB0429F4CDB7DEB7ECE0C3
:102570000C94392440E3C41642E0D406E104F1048B
:1025800040F42C1B3D0BF801E20FF31F60810E9409
:1025900094248FEFC81AD80AE80AF80ADECF67EA4F
:1025A00071E080E090E008954F925F926F927F9289
:1025B0008F929F92AF92BF92EF92FF920F931F93D1
:1025C000CF93DF934B015C0129013A017B01E801C4
:1025D000E01AF10A27EAE21A2DEFF20AC7018C0F7E
:1025E0009D1FAE01401B510B70E060E04415550586
:1025F0006605770578F0DF91CF911F910F91FF90DD
:10260000EF90BF90AF909F908F907F906F905F9072
:102610004F900895480D591D6A1D7B1D473A514042
:102620006105710528F40E94782488832196D6CF0D
:102630001882FCCF4F925F926F927F92AF92BF92BF
:10264000CF92DF92EF92FF920F931F93CF93DF937E
:102650006B017C0129013A015B0127EAA21A2DEFE7
:10266000B20AD0E0C0E0C5018C0F9D1FAE0170E042
:1026700060E0441555056605770578F0DF91CF9148
:102680001F910F91FF90EF90DF90CF90BF90AF9090
:102690007F906F905F904F9008954C0D5D1D6E1D63
:1026A0007F1D473A51406105710530F4F801EC0F88
:1026B000FD1F60810E9494242196D5CFA0E1B0E057
:1026C000E4E6F3E10C941924CE0101965C0180E16B
:1026D000F50111928A95E9F70BE110E097EA492E8E
:1026E00055245394612C712C29E5822E22E0922EE0
:1026F0006201F1E14F165104610471042CF080E194
:10270000C82ED12CE12CF12CA601B401C5010E94E8
:1027100085248C0C9D1C0D2C000CEE08FF084C1819
:102720005D086E087F080150110911F76096E0E11D
:102730000C943524CF93DF9386319C4701F5EB0150
:102740000E94450B9D81992389F08A7A91E009F4D2
:1027500090E090934502811107C089E2E5D71FD828
:1027600080E0DF91CF91089585E3F8CF8091450215
:10277000811103C089E2DED7F2CF85E3FCCF81E08F
:10278000F0CFCF93DF93EC01FB018581882309F41F
:10279000F0C09E0130572332310508F0D0C085E6E5
:1027A00092E083D8FE01E150F047E232F10508F0F3
:1027B00026C0E352FC4E0C940A243914AB14411485
:1027C0000B140F1445141314491455141F14A41496
:1027D0002314591427145D1485142B1461148C14BC
:1027E000311467146F1417144D141B14511435143D
:1027F0006B147B149514A21405143D14B21480912B
:10280000650281608093650293C080916602886052
:10281000809366028DC0809165028260F3CF8091C3
:1028200065028460EFCF809165028860EBCF809174
:1028300066028160EDCF809166028260E9CF80916F
:1028400065028061DFCF809165028062DBCF80917D
:1028500065028064D7CF0E941D0780916502806861
:10286000D1CF809165028860DCCF80916602826062
:10287000E0CF809165028E7FC5CF80916602877F11
:10288000C7CF809165028D7FBDCF809165028B7F20
:10289000B9CF80916502877FB5CF809166028E7F28
:1028A000B7CF809166028D7FB3CF809165028F7E16
:1028B000A9CF809165028F7DA5CF809165028F7B26
:1028C000A1CF0E941D07809165028F779BCF8091D9
:1028D0006502877FDCCF809166028D7FE0CF80919B
:1028E000650282FB992790F921E0922790FB82F9FB
:1028F00090FB83F987CF80916602982F9095917015
:102900008E7F892B90FB81F983CF90916502892F6F
:102910008F7B96FF806476CF0E941D0790916502A1
:10292000892F97FB87F980586DCF81E00E94590C61
:1029300085E692E00E94570C0E941D0780E0DF911F
:10294000CF91089580E0F2CF90916502892F8F7E1C
:1029500094FF806157CF90916502892F8E7F90FF01
:10296000816050CF90916602892F877F93FF8860A6
:102970004FCF81E0E4CF282F35EB2303C001112492
:1029800097FF04C080589109892F089580589F4F60
:10299000FBCF80914C0280FF0DC06091070170E079
:1029A000660F771F6038710580F56115710579F143
:1029B000862F089581FF07C06091070184E0689F1A
:1029C000B0011124EFCF82FF04C06091070188E0BD
:1029D000F6CF20914B022223A9F09091060160913D
:1029E000070188E0689FB00111242917D8F6269FB7
:1029F000A001279F500D1124692F70E0CA010E9489
:102A0000F723D0CF68E070E0D3CF8FE7089581E05F
:102A1000089580914C0280FF0CC06091030170E02A
:102A200075956795759567956115710549F1862FBF
:102A3000089581FF06C06091030170E07595679568
:102A4000F3CF6091030182FD0BC090914A0299235C
:102A5000A1F06091020180910301961738F0682F70
:102A600070E06038710500F38FE70895899FC00119
:102A7000112470E00E94F723F4CF61E070E0D7CF1B
:102A800081E008958D3C29F484DF81958093500284
:102A900008958E3C11F47DDFF9CF8F3C29F479DF66
:102AA000819580934F020895803D11F472DFF9CF34
:102AB000893D21F4AEDF8093510208958A3D19F4D7
:102AC000A8DF8195F8CF8B3D29F4A3DF8195809312
:102AD000520208958C3D11F49CDFF9CF9FE2980FCC
:102AE000983070F4815D990B21E030E001C0220F35
:102AF0008A95EAF780914E02822B80934E020895C8
:102B00008D3D31F480914C02816080934C02089598
:102B10008E3D21F480914C028260F7CF8F3DB9F752
:102B200080914C028460F1CF8D3CD9F49091500299
:102B300097FF1DC01092500280914F02811106C074
:102B400080915002811102C010924B02809151027B
:102B5000811106C080915202811102C010924A0276
:102B600008958E3CD9F49091500219161CF39FE2FF
:102B7000980F983008F03FC0815D990B21E030E05C
:102B8000A90102C0440F551F8A95E2F7CA0180953A
:102B900090914E02892380934E02CECF90914F02A6
:102BA0008F3C29F497FFE3CF10924F02C5CF803DB1
:102BB00019F41916CCF3DBCF90915102893D29F419
:102BC0001916ACF610925102B7CF8A3D19F497FF4F
:102BD000CECFF8CF8B3D39F49091520297FFC7CFFB
:102BE00010925202A9CF8C3D09F0C1CF90915202B0
:102BF0001916B4F3BCCF8D3D31F480914C028E7F19
:102C000080934C0299CF8E3D21F480914C028D7FB0
:102C1000F7CF8F3D09F090CF80914C028B7FF0CFA2
:102C2000B0D620914F02211104C0209150022223DE
:102C300021F0909349028093480220915102211182
:102C400004C020915202222321F0909347028093E6
:102C500046028DE492E0B1C486E0EDE4F2E0DF01EB
:102C60001D928A95E9F710924B0210924A02109237
:102C70004C020895FC01828181110EC08381811173
:102C80000BC08481811108C091E08581811101C050
:102C900090E0892F8170089581E0FCCFA6E0B0E03C
:102CA000E4E5F6E10C94262486E0EDE4F2E0DE01B2
:102CB000119601900D928A95E1F710924F021092B1
:102CC000500210925102109252028B81811103C066
:102CD0008C81882381F08091480290914902E0D54F
:102CE000AC0190914B029923B9F1809108018417AE
:102CF000150608F43EC08D81811103C08E818823A2
:102D000089F08091460290914702CAD5AC0190911A
:102D10004A02992309F463C08091040184171506BF
:102D200008F46BC0BE016F5F7F4F8DE492E013D556
:102D3000811104C08DE492E09DDF811171DF86E096
:102D4000FE013196ADE4B2E001900D928A95E1F773
:102D50002696E3E00C944224209109018AE0289F02
:102D6000900111242417350730F69F5F90934B0292
:102D700002C09F3FD1F71B81112351F00ADE9FEF64
:102D800011160CF491E0899F802D112480934F023D
:102D90001C81112351F0FDDD9FEF11160CF491E021
:102DA000899F802D11248093500280914F028823A7
:102DB00009F4A1CF10915002112309F49CCFDBDD5F
:102DC000882349F080934F02812FD5DD882329F095
:102DD0008093500290CF81E0F5CF81E0F9CF209130
:102DE00005018AE0289F900111242417350708F077
:102DF00099CF9F5F90934A0202C09F3FD1F71D81F8
:102E0000112351F006DE9FEF11160CF491E0899F1B
:102E1000802D1124809351021E81112351F0F9DD80
:102E20009FEF11160CF491E0899F802D112480935F
:102E3000520280915102882309F474CF10915202FA
:102E4000112309F46FCF97DD882349F08093510255
:102E5000812F91DD882329F08093520263CF81E096
:102E6000F5CF81E0F9CFB0E0A0E0E9E3F7E10C9421
:102E70002024E82FF0E0E05BFD4FB490282F26954A
:102E80002695269530E0F901E051FD4F04918770B9
:102E900010E0082E02C0159507950A94E2F701701C
:102EA0001127F901E052FD4FE490F12C082E02C0E9
:102EB000F594E7940A94E2F791E0E922FF24F901FE
:102EC000E053FD4FC491D0E002C0D595C7958A95D7
:102ED000E2F7C170DD27C62ED12C0115110549F589
:102EE000E114F10431F086EE0E940D04C601009752
:102EF00071F5B6018B2D0E94E504C601009779F5A6
:102F0000E114F104A1F50115110531F081EE0E94E3
:102F10009404C6010097C9F5CD2B31F08CE20E94D4
:102F2000FB04C114D104C9F5CDB7DEB7E9E00C94B8
:102F30003C2481EE0E940D04C601009789F2EFE95E
:102F4000FFE03197F1F700C000000197F6CFEFE9FD
:102F5000FFE03197F1F700C000000197C8CFEFE91B
:102F6000FFE03197F1F700C000000197C7CF86EE70
:102F70000E949404C601009731F2EFE9FFE0319717
:102F8000F1F700C000000197F6CFEFE9FFE03197BD
:102F9000F1F700C000000197BDCF8FE99FE00197D6
:102FA000F1F700C0000091E0C91AD108BACFB0E033
:102FB000A0E0EDEDF7E10C9420248C017B01D42FEF
:102FC0008AE0B82EC701F80109958823A9F081305D
:102FD00009F058C0C701F8010995C82F813089F45C
:102FE000C701F80109950E94FB048D2F90E000971E
:102FF00009F040C0C111E6CFCDB7DEB7E9E00C94CF
:103000003C24823031F4C701F80109950E940D0477
:10301000ECCF833031F4C701F80109950E94940484
:10302000E4CF843011F7C701F8010995C82FD12CDE
:10303000C12C2C2F2053330BC9012A30310568F0E5
:10304000C114D10491F28FE99FE00197F1F700C01C
:10305000000091E0C91AD108F3CFBC9C9001BD9C3F
:10306000300D11246C01C20ED31EC701F801099561
:10307000C82FDFCFEFE9FFE03197F1F700C0000084
:103080000197B5CF6D2FEFDE9DCF0F931F93CF9399
:10309000DF93C42FD22FFC0185818823C1F0409398
:1030A00055026FD4909354028093530280E28C0FA8
:1030B000883040F4C77081E001C0880FCA95EAF7F4
:1030C0000E940205DF91CF911F910F9108951091F9
:1030D0005502141331C08091530290915402E0D3F1
:1030E0008F3A910548F5C0E2CD0F1D17B9F080E287
:1030F000810F883040F4177081E001C0880F1A9565
:10310000EAF70E940705C83010F581E09D2F9770FF
:1031100001C0880F9A95EAF70E940205802F0E944D
:10312000FB04C83078F6D77081E001C0880FDA95CB
:10313000EAF70E940705C6CF80E28C0F883010F6B0
:10314000C77081E001C0880FCA95EAF7F2CF802FDF
:103150000E94FB04B7CF0F93FC01E851FC47E73016
:10316000F10508F039C0CB01E854F74E0C940A245D
:10317000CE18D418BF18C818DA18E018E61806E2F6
:1031800021EE41EE6AE17CE780DF80E00F91089557
:1031900007E225EE45EE6BE17CE7F6CF06E221EE95
:1031A00040EE68E17CE7F0CF07E225EE44EE69E10E
:1031B0007CE7EACF06E221EE42EE6CE17CE7E4CF69
:1031C00007E225EE46EE6DE17CE7DECF08E221E086
:1031D00045EE6EE17CE7D8CFFB018581882319F0AD
:1031E00010925502D3CF81E0D1CF1F93CF93DF93BD
:1031F00087372CE7920729F088379C4729F1C1E0EF
:1032000011C0FB01C581CC2391F026D00E94840718
:1032100029D0D82F24D0C82F1FD04D2F6C2F0E941B
:103220009508C0E08C2FDF91CF911F91089514D0A5
:103230000E948E0717D0182F12D0D82F0DD0412FF3
:103240006D2F0E949508EECFFB01C581CC2311F0B4
:1032500006D0DCCF04D0ECCF80910C010895809192
:103260000B01089580910A010895A3E0B0E0EBE31B
:10327000F9E10C942724AE014F5F5F4FBE016E5FF2
:103280007F4FCE0103962DD18B81853239F48A810F
:10329000853021F481E09981973209F080E08170D6
:1032A0002396E2E00C944324882321F047E265E072
:1032B00085E23DC14FEF6FEF8FEFFBCF089508958B
:1032C000CF92DF92EF92FF926B017C01F8DFC70192
:1032D000B6014CD1FF90EF90DF90CF90089500D1D0
:1032E00080E0E2DF60E070E0CB01EADF0E94501195
:1032F0003AD881E0D9CFE2DF30D1E1DFB6DF81110A
:1033000001C0EDCF089508959C01FB0185818823BC
:1033100049F0A90157574038510528F4C90125D86B
:1033200080E0089581E008952FEFFC012083089547
:10333000FBCF089580E00895B0E0A0E0E2EAF9E173
:103340000C941F24EC01D62EF5DF81113BC0E881DF
:10335000E150E33110F5F0E0E055F64E0C940A240C
:10336000C319C719041A141A1C1A271A2A1A2A1A56
:103370002A1ACD19CD192E1A321A361A431A501A92
:10338000531A561A631A19828CE08A8317C08981EE
:103390008230E9F028F4813061F08FEF88830EC02D
:1033A0008330B9F08430C9F71A821B821C821D82D7
:1033B00005C0F3D29A838B837C836D836D2DCE0100
:1033C0000E940711CDB7DEB7EAE00C943B24C5D0CC
:1033D000F1CFCA807E0110E000E0AC2CB12CC50119
:1033E000800F911F059750F78C2D800F0E94B50F0D
:1033F000F701938384830F5F1F4FF2E0EF0EF11C00
:103400000E30110561F7DACF8981823029F08530DD
:1034100021F68A8178DFD2CF6A817B818C819D8180
:103420000E9410244DDFCACF4B816A8189810E949E
:103430004C119C838D83C2CF2C813D813227232761
:1034400032274B816A8189810E944E11B7CF0E9439
:103450005011B4CF6D2DCE016BDFB0CF0E9494110F
:103460008983ACCF0E94961199838FCF6B8170E0D6
:1034700089819A81AE014C5F5F4F982789279827F1
:103480000E9499119BCF6B8170E089819A81AE0176
:103490004C5F5F4F9827892798270E94A6118ECFEF
:1034A0000E94B3118BCF0E944A11DACF6B8170E07A
:1034B00089819A81AE014C5F5F4F982789279827B1
:1034C0000E9470117BCF6B8170E089819A81AE017F
:1034D0004C5F5F4F9827892798270E947D116ECFF8
:1034E0000895EF92FF920F931F93CF93DF937C0188
:1034F0008B01EA01892B31F085E290E00E9478246B
:10350000F70180830115110531F086E290E00E94F9
:103510007824F8018083209729F087E290E00E94C8
:1035200078248883CDB7DEB7E6E00C943F24CF93B0
:10353000DF93D62FC42F682F85E290E00E94942459
:103540006D2F86E290E00E9494246C2F87E290E039
:103550000E949424DF91CF91089588E290E00E9428
:103560007824682F70E090E080E0089588E290E091
:103570000C94942490935B0280935A020895E091F6
:103580005A02F0915B02309739F00190F081E02D02
:10359000309711F00995089580E00895F0CF0895CF
:1035A000E0915A02F0915B02309731F00280F38192
:1035B000E02D309709F009950895E0915A02F091B5
:1035C0005B02309759F026813781232B39F022E0B6
:1035D000DC012C930680F781E02D09950895A3E086
:1035E000B0E0E5EFFAE10C942724209158023091E5
:1035F000590228173907B1F0909359028093580265
:10360000E0915A02F0915B02309761F00084F185FD
:10361000E02D309739F023E029839B838A83CE0104
:10362000019609952396E2E00C944324A3E0B0E0D0
:10363000ECE1FBE10C9427242091560230915702D3
:1036400028173907B1F09093570280935602E09102
:103650005A02F0915B02309761F00084F185E02D11
:10366000309739F024E029839B838A83CE01019629
:1036700009952396E2E00C944324E0915A02F091DC
:103680005B02309731F00284F385E02D309709F02A
:1036900009950895E0910001F0910101329697E0BB
:1036A00080E0915009F4089521912223D1F38F5F96
:1036B000F8CF882371F02091000130910101F901C8
:1036C0003296285F3F4F9191981729F0E217F30740
:1036D000D1F780E0089581E008959C01FC013296C5
:1036E0009FEF80E04191461751F09F3F19F441113F
:1036F00001C0982F8F5F8630A9F79F3F09F4089586
:10370000290F311D97FD3A95F90162830895FC0157
:10371000329608962191261303C0DF0111971C925F
:10372000E817F907B9F70895682F80910001909183
:103730000101D3CF682F8091000190910101E7CF63
:10374000E0910001F0910101329686E0DF011D92C7
:103750008A95E9F70895DC01FB0111969C91119778
:103760008181981322C012968C911297882319F0A8
:10377000928189131AC013968C911397882319F09C
:103780009381891312C015968C911597882319F08F
:10379000958189130AC014969C91992321F081E0A8
:1037A0002481291303C080E001C081E08170089565
:1037B0000895FECF089581110CC081E0809310011F
:1037C00060910D0170910E0180910F019091100197
:1037D000F0CF82E0F3CF83E08093100160910D0180
:1037E00070910E0180910F0190911001E2CFE3CF13
:1037F000089581E08093100160910D0170910E0198
:1038000080910F0190911001D4CFF3CF089591E0F2
:10381000811101C090E090930F0160910D017091B2
:103820000E0180910F0190911001C3CF80910F0183
:10383000089580930E0160910D0170910E018091A9
:103840000F0190911001B5CF80910E0108958093E2
:103850000D0160910D0170910E0180910F01909109
:103860001001A7CF80910D01089508950895FECF0E
:10387000089508950895F9CF0895CF93FADF0E942F
:103880007910F8DFC0E08C2F0E94B50F892B31F43E
:10389000CF5FC530C1F780E0CF91089581E0FCCFC4
:1038A000CF93DF93EC016DD08C1B9D0BDF91CF91FB
:1038B000089585B7806885BF85B7806885BF0895FE
:1038C0001F920F920FB60F9211248F939F93AF9375
:1038D000BF9380915C02811113C080917B02909113
:1038E0007C02A0917D02B0917E024196A11DB11D86
:1038F00080937B0290937C02A0937D02B0937E0222
:10390000BF91AF919F918F910F900FBE0F901F901D
:10391000189580918302843031F10E9497031092B0
:103920005C0288E190E020E40FB6F894A8958093BB
:1039300060000FBE2093600083B7817F846083BFE7
:1039400083B7816083BF7894889583B78E7F83BF68
:103950000FB6F894A895809160008861809360000C
:10396000109260000FBE08950E941D070C949B03E7
:1039700082E084BD93E095BD9AEF97BD80936E0081
:1039800008952FB7F89480917B0290917C02A091CA
:103990007D02B0917E022FBF08952FB7F8946091F9
:1039A0007B0270917C0280917D0290917E022FBFFC
:1039B000089578941F920F920FB60F9211248F934F
:1039C0009F93AF93BF9380917B0290917C02A091D3
:1039D0007D02B0917E020196A11DB11D80937B02F4
:1039E00090937C02A0937D02B0937E02BF91AF9131
:1039F0009F918F910F900FBE0F901F90189581E0AF
:103A00008093E00080E28093D8001092C9008FE19B
:103A10009EE40197F1F700C0000087E090EBDC0125
:103A200080938C0290938D02A0938E02B0938F02AC
:103A300088E19CE00FB6F894A895809360000FBED3
:103A400090936000FFCF88E19CE00FB6F894A895B2
:103A5000809360000FBE90936000FFCF08959B019C
:103A6000909183029430E9F48F708093E9008FEF96
:103A70009091E800815095FD06C095ED9A95F1F77B
:103A800000008111F5CF8091E80085FF0AC0BA01DE
:103A9000C90150E040E0F3D18091E8008E77809337
:103AA000E8000895603229F4BC0140E250E082E071
:103AB000D6CF089543E050E0BC0184E0D0CF46E08B
:103AC00050E0BC0184E0CBCFCF93DF93EC01AEDEBE
:103AD00048E050E0BE0181E0C2DF88E0FE01ADE5D4
:103AE000B2E001900D928A95E1F7DF91CF910895B0
:103AF000A0E2B0E0EDE7FDE1AAC680918302843048
:103B0000F9F483E08093E9008091E80082FF18C017
:103B10008091E80090E085FF08C050E040E060E25E
:103B200070E0CE010196F8D191E08091E8008B77AA
:103B30008093E800992321F060E2CE010196FCDB3E
:103B4000A096E2E0A0C680918202811107C072D3E4
:103B5000C9D38091E20084608093E20008951092BE
:103B60008202089546DE81E052CE60917F0281E0BC
:103B7000611101C080E02FCE9091830281E09430EA
:103B800009F080E060917F0232CE42E061EC81E09A
:103B9000CFD242E261EC84E0CBD242E261EC82E03F
:103BA000C7D242E260EC83E0C3D29091830281E00D
:103BB000943009F080E060917F02FDCD8091850214
:103BC000833009F464C038F4813009F43DC0823098
:103BD00009F499C008958A3009F488C08B3009F43B
:103BE00070C0893009F052C080918402813209F09E
:103BF0004DC08091880290918902009719F0029738
:103C000009F044C08091E800877F8093E8008091AC
:103C1000E80082FF37C08091F3009091F20089277D
:103C200098278927029731F48091F100813011F0B3
:103C3000863019F48091F100FCDD8091E8008B77EB
:103C40008093E800A9D222C080918402813AF1F4E5
:103C50008091E800877F8093E800809188029091AE
:103C60008902892B59F468E08DE592E070E0A1D1DA
:103C70008091E8008B778093E800089560E090E001
:103C800080E0F4CF809183028111C1CF08958091AB
:103C90008402813AD9F78091880290918902892B18
:103CA000A9F78091E800877F8093E8008091E80081
:103CB00080FFFCCFBBDD8093F1008091E8008E7720
:103CC000BFCF80918402813209F780918802909160
:103CD0008902892BD9F68091E800877F8093E800DC
:103CE0005BD28091860293DD0C941D078091840243
:103CF000813261F68091E800877F8093E8004CD2A2
:103D000080918702A4CD80918402813A09F0BECFD0
:103D10008091E800877F8093E8008091E80080FF31
:103D2000FCCFA0DDC8CF84B7877F84BF0FB6F894DF
:103D3000A895809160008861809360001092600077
:103D40000FBE80E890E00FB6F894809361009093E6
:103D500061000FBE5ACD6ED2C5D2E2EEF0E0808196
:103D600084608083789428C581E191E003CC8091C0
:103D70008302853029F480918302853011F0F4CDDF
:103D80000895C7DD7ADD8823B1F38091810288230D
:103D900091F35FD00E941D07EECF08959A014091E4
:103DA0008A0250918B0200C0492F5527433051059C
:103DB00079F158F441305105F1F04230510519F1D3
:103DC00090E080E050E040E01AC04132510599F1A6
:103DD00042325105A9F76330710590F7FB01EE0FF0
:103DE000FF1FEB55FE4F408151816E557E4FFB0109
:103DF000808190E004C082E190E04DE753E0F9015A
:103E00005183408308958BE590E042E253E0F7CF81
:103E100099278130910561F028F0029789F6E0E05A
:103E2000F3E002C0EEE1F3E0849190E0AF01E7CF70
:103E3000E2E1F3E0F9CF6330710508F0C1CF660F1E
:103E4000771FFB01E555FE4F4081518189E090E0ED
:103E5000D6CF80E189BD82E189BD09B400FEFDCFE6
:103E60008091D8008F7D8093D8008091E00082609F
:103E70008093E0008091E00081FDFCCF0895AF9237
:103E8000BF92CF92DF92FF920F931F93CF93DF9356
:103E90006C01EB018A019FD1F82E811123C001151D
:103EA000110539F0F80180819181C81BD90BC80E2A
:103EB000D91EB12CA12C2097A9F08091E80085FD96
:103EC00021C08091E8008E778093E80001151105EC
:103ED000A1F0F80180819181A80EB91EB182A08263
:103EE00085E0F82E8F2DDF91CF911F910F91FF90DC
:103EF000DF90CF90BF90AF9008956DD18823D9F215
:103F0000F82EF0CFF60181916F018093F100219797
:103F1000FFEFAF1ABF0ACFCFAF92BF92CF92DF921F
:103F2000FF920F931F93CF93DF936C01EB018A01F4
:103F300052D1F82E811123C00115110539F0F80175
:103F400080819181C81BD90BC80ED91EB12CA12C20
:103F50002097A9F08091E80085FD21C08091E800BC
:103F60008B778093E80001151105A1F0F80180819D
:103F70009181A80EB91EB182A08285E0F82E8F2D06
:103F8000DF91CF911F910F91FF90DF90CF90BF9065
:103F9000AF90089520D18823D9F2F82EF0CF8091E8
:103FA000F100F60181936F012197FFEFAF1ABF0A6D
:103FB000CFCFFC0180918A0290918B0286179707E0
:103FC000A0F06115710529F49091E8009E77909317
:103FD000E80090E06115710551F4911108C08091DD
:103FE000E80082FF35C080E00895BC01F2CF8091E7
:103FF00083028823C9F18530C9F18091E80083FDEF
:1040000031C08091E80082FDEACF8091E80080FF16
:10401000E1CF2091F3008091F200322F282F61151B
:10402000710519F02830310558F091E0283031053C
:1040300009F090E02091E8002E772093E800CACFA5
:1040400081918093F100615071092F5F3F4FE7CF5D
:1040500080918302882341F0853041F08091E8000F
:1040600083FFBDCF81E0089582E0089583E0089545
:10407000FC0180918A0290918B0286179707A0F02D
:104080006115710529F48091E8008E778093E8002E
:1040900090E06115710551F4911108C08091E8001C
:1040A00082FF36C080E00895BC01F2CF8091830288
:1040B0008823D1F18530D1F18091E80083FD32C0B1
:1040C0008091E80082FDEACF8091E80080FFE1CF97
:1040D0002091F3008091F200322F282F6115710595
:1040E00019F02830310558F091E02830310509F0F9
:1040F00090E08091E8008E778093E800CACF8491A9
:104100008093F1003196615071092F5F3F4FE6CFE8
:1041100080918302882341F0853041F08091E8004E
:1041200083FFBCCF81E0089582E0089583E0089585
:10413000982F973028F08F708093E90081E00895E0
:104140009093E900242F762F50E0981731F070916A
:10415000EC002091ED005091F00021FD02C09F5F26
:10416000E8CF3091EB003E7F3093EB003091ED00D3
:104170003D7F3093ED003091EB0031603093EB00E8
:104180007093EC002093ED005093F0002091EE002E
:1041900027FDE5CF80E008958091840287FF13C05A
:1041A0008091E80082FF06C08091E8008B778093C1
:1041B000E80004C0809183028111F2CF08958091BC
:1041C00083028823D9F38091E80080FFF8CF8091A3
:1041D000E8008E77ECCF2091E4003091E50085E691
:1041E0009091EC0090FF06C09091E80090FF06C00F
:1041F00080E008959091E80092FDFACF90918302BB
:10420000992391F0953091F09091EB0095FD10C0BD
:104210004091E4005091E5002417350709F38150DF
:104220009A01F1F684E0089582E0089583E008950C
:1042300081E0089567D06ED0E0EEF0E0808181608B
:104240008083E8EDF0E080818F77808319BCA7ED53
:10425000B0E08C918E7F8C9380818F7E80831092D2
:10426000820208950F931F93CF93DF934BD052D0C8
:10427000C8EDD0E088818F778883888180688883C3
:1042800088818F7D888319BC1092830210927F02EF
:10429000109281021092800200EE10E0F8018081FD
:1042A0008B7F808388818160888342E060E080E04A
:1042B0003FDFE1EEF0E080818E7F8083E2EEF0E090
:1042C000808181608083808188608083F801808123
:1042D0008E7F8083888180618883DF91CF911F9159
:1042E0000F910895E8EDF0E080818F7E8083E7ED07
:1042F000F0E080818160808384E082BF81E08093F0
:104300008202B0CFE8EDF0E080818E7F8083109252
:10431000E20008951092DA001092E10008951F92D1
:104320000F920FB60F9211242F933F934F935F93E9
:104330006F937F938F939F93AF93BF93EF93FF936D
:104340008091E10082FF0AC08091E20082FF06C0F6
:104350008091E1008B7F8093E1002DD28091DA0083
:1043600080FF18C08091D80080FF14C08091DA00CF
:104370008E7F8093DA008091D90080FF8FC080E12A
:1043800089BD82E189BD09B400FEFDCF81E0809343
:104390008302D9DB8091E10080FF18C08091E200A8
:1043A00080FF14C08091E2008E7F8093E2008091B4
:1043B000E20080618093E2008091D8008062809367
:1043C000D80019BC85E080938302CFDB8091E100A7
:1043D00084FF28C08091E20084FF24C080E189BD71
:1043E00082E189BD09B400FEFDCF8091D8008F7DA8
:1043F0008093D8008091E1008F7E8093E1008091CE
:10440000E2008F7E8093E2008091E20081608093E1
:10441000E20080917F02882309F445C084E0809304
:104420008302AADB8091E10083FF27C08091E20034
:1044300083FF23C08091E100877F8093E10082E0C9
:104440008093830210927F028091E1008E7F80939F
:10445000E1008091E2008E7F8093E2008091E20093
:1044600080618093E20042E060E080E061DE809164
:10447000F00088608093F00075DBFF91EF91BF91B1
:10448000AF919F918F917F916F915F914F913F91EC
:104490002F910F900FBE0F901F90189519BC10927E
:1044A00083025DDB77CF8091E30087FD02C081E06E
:1044B000B6CF83E0B4CF1F920F920FB60F921124A4
:1044C0002F933F934F935F936F937F938F939F931C
:1044D000AF93BF93CF93EF93FF93C091E900CF7059
:1044E0008091EC001092E9008091F000877F80932A
:1044F000F00078941BD01092E9008091F000886061
:104500008093F000C093E900FF91EF91CF91BF91AC
:10451000AF919F918F917F916F915F914F913F915B
:104520002F910F900FBE0F901F901895AAE2B0E048
:10453000EBE9F2E28BC1E4E8F2E08091F1008193D3
:1045400022E0EC38F207C9F739DB8091E80083FFFD
:1045500043C080918402909185029A3008F03CC05B
:10456000E92FF0E0EB54FD4D55C1BF22E522EC22CE
:10457000E522EC223B235C23EC22B023BD238038D0
:1045800089F0823849F5809188028F70873020F554
:104590008093E9008091EB0085FB882780F91092D9
:1045A000E90006C0809180029091810291118260A1
:1045B0009091E800977F9093E8008093F10010922B
:1045C000F1008091E8008E7726C0282F2D7F21F4FE
:1045D000882399F0823019F18091E80083FF0AC0A6
:1045E0008091E800877F8093E8008091EB008062F3
:1045F0008093EB00AA96E3E045C18091860281306A
:1046000059F7933009F080E0809381021092E9001D
:104610008091E800877F8093E800BEDDDDCF809148
:1046200086028111F3CF809188028F702FEF280FBF
:10463000263090F68093E9002091EB0020FFE6CF32
:10464000933031F48091EB0080628093EB00DECFF9
:104650009091EB0090619093EB0021E030E001C07D
:10466000220F8A95EAF72093EA001092EA008091DF
:10467000EB008860EACF8111AFCF109186021F77DF
:104680008091E3008078812B8093E3008091E800A3
:10469000877F8093E80080DD8091E80080FFFCCF79
:1046A0008091E30080688093E30083E0111101C0F2
:1046B00082E08093830290CF8058823008F08CCFC4
:1046C00080918602909187028C3D23E0920799F5B4
:1046D00083E08A838AE289834FB7F894DE011396D8
:1046E00020E03EE051E2E32FF0E050935700E491E8
:1046F00020FF03C0E295EF703F5FEF708E2F90E0D8
:10470000EA30B8F0C7968D939D932F5F243159F707
:104710004FBF8091E800877F8093E8006AE270E0F5
:10472000CE01019646DC8091E8008B778093E8000B
:1047300053CFC096E8CF6091880270918902AE0194
:104740004F5F5F4F2BDBBC01892B09F445CF909164
:10475000E800977F9093E80089819A8189DCE3CF14
:10476000803809F039CF8091E800877F8093E80096
:1047700080917F028093F10024CF81112DCF909101
:104780008602923008F028CF8091E800877F8093DE
:10479000E80090937F0200DD80917F02882329F05A
:1047A00084E080938302F1D917CF8091E30087FDE5
:1047B000F7CF81E0F6CF0895CF93809183028823CD
:1047C00091F0C091E900CF708091EC0080FD0DC0A8
:1047D00080E0C82B1092E9008091E80083FDA6DEFE
:1047E000CF70C093E900CF91089580E8F2CF97FB96
:1047F000072E16F4009406D077FD08D04FD007FCA2
:1048000005D03EF4909581959F4F089570956195E0
:104810007F4F0895EE0FFF1F0590F491E02D09944E
:1048200069279627692778278727782708952F9261
:104830003F924F925F926F927F928F929F92AF9230
:10484000BF92CF92DF92EF92FF920F931F93CF937D
:10485000DF93CDB7DEB7CA1BDB0B0FB6F894DEBF14
:104860000FBECDBF09942A88398848885F846E843A
:104870007D848C849B84AA84B984C884DF80EE8084
:10488000FD800C811B81AA81B981CE0FD11D0FB68D
:10489000F894DEBF0FBECDBFED010895AA1BBB1B70
:1048A00051E107C0AA1FBB1FA617B70710F0A61B30
:1048B000B70B881F991F5A95A9F780959095BC0151
:1048C000CD010895FB01DC0104C08D910190801998
:1048D00021F441505040C8F7881B990B0895FB0103
:1048E000DC0102C001900D9241505040D8F708956C
:1048F000F999FECF92BD81BDF89A992780B50895A8
:10490000A8E1B0E042E050E02FC0DC01A40FB51FE9
:104910004150504040F0CB01840F951F2E9105D09F
:1049200041505040D8F70895262FF999FECF92BDF7
:1049300081BDF89A019700B4021639F01FBA20BD64
:104940000FB6F894FA9AF99A0FBE08950396272F96
:10495000ECDFEADF252FE9DF242FE7CF0196272FB1
:10496000E4DFE2CFDC01CB01FC01F999FECF06C008
:10497000F2BDE1BDF89A319600B40D92415050401D
:08498000B8F70895F894FFCF89
:104988002302280850011E0A140103020100000135
:1049980000241C641D2E1D5F1D5A1D521DE200E9D6
:1049A80000EA00B500B600B700CD008301CC008A4C
:1049B80001920194012102230224022502260227E2
:1049C800022A02B300B4006F0070009F01CB019F60
:1049D80002A002818283E200E900EA00B500B60085
:1049E800B700CD008301CC008A0192019401210215
:1049F800230224022502260227022A02B300B40059
:104A08006F0070009F01CB019F02A0028182833654
:104A1800666794F6F030F1F4F59190939596973493
:104A280035F744227B2C048F03B10334034D036D07
:024A3800030079
:00000001FF
