:100000000C94DC020C9414030C9414030C9414034D
:100010000C9414030C9414030C9414030C94140304
:100020000C9414030C9414030C948F2B0C94612CDB
:100030000C94F5250C9414030C9414030C941403E1
:100040000C9414030C9414030C9414030C941403D4
:100050000C9414030C947E260C9414030C94140337
:100060000C9414030C9414030C9414030C941403B4
:100070000C9414030C9414030C9414030C941403A4
:100080000C9414030C9414030C9414030C94140394
:100090000C9414030C9414030C9414030C94140384
:1000A0000C9414030C9414030C9414034B064B0689
:1000B00077067706D806F606D707D707FB06630745
:1000C00074077407631C661C6B1C721C771C7C1CF9
:1000D000811C861C8B1C901C951C9A1C9D1C9D1CB5
:1000E0009D1C9D1C9D1C9D1C9D1C9D1C9D1CF81DEC
:1000F000FB1D321E451E4D1E581E5B1E5B1E5B1EE9
:10010000A31EA31E601E631E681E751E821E851E12
:10011000891E961E041F761F0C1FD61EDA1E101F86
:10012000DD1E131F1E1FE81E6C1FEC1E221FF01E7B
:10013000261F501FF41E2A1F5A1FFA1E301F3A1F77
:10014000E11E171FE41E1A1FFF1E351F461F661FE4
:10015000681FD21E081F7F1FBB23C123AF23B523F7
:10016000C723CD23D323C92CF02CE82DF02CE82D68
:100170003C2D5F2DE82DB62DC52D240021001E003D
:1001800027000252250022001F002A0001522600EB
:1001900023002000280000520000000000000000A2
:1001A000010000000000000000000100000000004D
:1001B000000000000100000000000000000001003D
:1001C000000000000000000001000000000000002E
:1001D000000001000000000000000000010000001D
:1001E000000000000000010000000000000000000E
:1001F00001000001010101010101010102020202ED
:1002000002020202020303030303030303040404C0
:100210000404040405050505050606060606070789
:1002200007070708080808090909090A0A0A0B0B41
:100230000B0C0C0C0D0D0D0E0E0E0F0F0F101011E0
:100240001111121213131414151516161717181866
:1002500019191A1A1B1B1C1D1D1E1E1F20202122CE
:1002600022232424252626272829292A2B2C2D2D14
:100270002E2F30313232333435363738393A3B3C31
:100280003D3E3F404142434445464748494A4C4D24
:100290004E4F50515354555658595A5B5D5E5F61ED
:1002A0006264656668696B6C6D6F70727375777880
:1002B0007A7B7D7E8082838587888A8C8E8F9193DE
:1002C0009596989A9C9EA0A2A3A5A7A9ABADAFB105
:1002D000B3B5B7BABCBEC0C2C4C6C9CBCDCFD1D4EA
:1002E000D6D8DBDDDFE2E4E7E9EBEEF0F3F5F8FA90
:1002F000FDFF00000000000000002A2B2800000085
:1003000000000000000000000000000000290000C4
:1003100000002C1E3420212224342627252E362DA1
:100320003738271E1F202122232425263333362E3B
:1003300037381F0405060708090A0B0C0D0E0F10AD
:100340001112131415161718191A1B1C1D2F3130F2
:10035000232D350405060708090A0B0C0D0E0F1096
:100360001112131415161718191A1B1C1D2F3130D2
:10037000354C0000000000000000000000000000FC
:10038000000000000000000000000000000000006D
:100390000000000000007E0F00D4FFFFFFC7000038
:1003A00000780A035300500049004E000000160375
:1003B00044004D00510020004400650073006900B6
:1003C00067006E000000040309040902BF00050174
:1003D00000A0FA0904000001030101000921110134
:1003E00000012244000705810308000109040100FF
:1003F000020300000009211101000122220007056B
:100400008203200001070503032000010904020004
:10041000010300000009211101000122B6000705B7
:100420008403200001080B030201010000090403FA
:100430000000010100000924010001090001040974
:10044000040400020103000007240100014100062A
:100450002402010100062402020200092403010310
:10046000010201000924030204010101000905063B
:100470000240000500000525010101090585024033
:100480000005000005250101031201000200000023
:100490000855A401000100010200010660FF096186
:1004A000A1010962150026FF009520750881020947
:1004B00063150026FF00952075089102C00501090B
:1004C00002A10185020901A10005091901290815E8
:1004D00000250195087501810205010930093115D2
:1004E00081257F95027508810609381581257F953C
:1004F0000175088106050C0A38021581257F9501D2
:1005000075088106C0C005010980A1018503190194
:100510002AB700150126B700950175108100C005A6
:100520000C0901A101850419012AA002150126A0C8
:1005300002950175108100C005010906A10185061B
:10054000050719E029E715002501950875018102C5
:100550000507190029EF1500250195F075018102A5
:100560000508190129059505750191029501750385
:100570009101C005010906A101050719E029E71548
:100580000025019508750181029501750881010515
:1005900007190029FF150026FF0095067508810040
:1005A0000508190129051500250195057501910218
:1005B000950175039101C00011241FBECFEFDAE051
:1005C000DEBFCDBF04B603FE18C08091E203909158
:1005D000E303A091E403B091E5038730904BA7407B
:1005E000B04B59F41092E2031092E3031092E4032B
:1005F0001092E503E0E0F8E3099511E0A0E0B1E036
:10060000EAE3FFE502C005900D92A83DB107D9F7D6
:1006100023E0A8EDB1E001C01D92A23EB207E1F7D0
:100620000E941E130C949B2F0C940000811108C093
:10063000662319F00E94401B16C00E944F1B13C076
:10064000813041F4662319F00E94601B0CC00E94A7
:10065000711B09C0823039F4662319F00E94821B95
:1006600002C00E94931B81E008958430B0F463308F
:10067000A0F4453090F49FE0899FF001112485E0BB
:10068000689FE00DF11D1124E40FF11DEE0FFF1F17
:10069000E658FE4F85919491089581E090E0089589
:1006A00081E0089581E008950E94520308950E9418
:1006B000540308950E945203089508950E945D0313
:1006C0000895A6E0B0E0E7E6F3E00C94CE2E49836F
:1006D0005A839E833091DF0189819A81311115C03F
:1006E0003E81332359F0222349F00E947509182FC7
:1006F000682F89819A810E94510903C00E94630971
:10070000182F69817A81812F04C00E94750969813F
:100710007A810E94A0102696E3E00C94EA2EFC0158
:10072000262F4081518162817381848195810E944D
:1007300061030895CF93DF93EC0161E00E948F0382
:10074000BE010E945703DF91CF910895CF93DF93AD
:10075000EC0160E00E948F03BE010E945E03DF9106
:10076000CF91089508950E944C080E94B2032FEF84
:1007700084E39CE0215080409040E1F700C00000FD
:1007800008950E94B3030E94A42608950E94B30313
:100790000E94C82608950F931F93CF93DF938C0177
:1007A00061E00E948F03EC01B8010E943B1D882389
:1007B00009F457C0B801CE010E945A03882309F4F6
:1007C00050C0B801CE010E94A323882309F449C078
:1007D000B801CE010E94AE1E882309F442C0B801C0
:1007E000CE010E9409238823E1F1B801CE010E94C5
:1007F0004C1C8823B1F1B801CE010E94E623882366
:1008000081F1F8018581882341F1C3308CE7D80755
:10081000D1F040F4C115FCE7DF0791F0C130DC47AF
:10082000A1F01BC0CB35ECE7DE07A9F0CC35FCE727
:10083000DF0771F0CA35DC4781F40E94D40D0DC08A
:100840000E94C1030EC00E94DC0D0E94C60309C0B5
:100850000E94CA0D02C00E94D80DC8010E94500318
:1008600001C080E0DF91CF911F910F9108950E9408
:10087000CE250E945E0408950E9462040E94D7253E
:100880000895089581E008950895CF93DF93D82FB8
:100890000E944204C82F882319F08D2F0E9444041F
:1008A0008C2FDF91CF9108950895CF93C82F0E9488
:1008B00041048C2F0E944504CF91089580E00E944E
:1008C000550408950E9436240E9455040895CF933C
:1008D0000E943624C82F8091DA01C81779F0C0939E
:1008E000DA010E9463266093DB017093DC01809340
:1008F000DD019093DE018C2F0E945504CF91089565
:10090000ADE0B0E0E6E8F4E00C94CF2E48875987DC
:100910006A877B878C879D8791110E94FE0CCE0190
:10092000019627E0FC0111922A95E9F726E0FE01E5
:100930003896DC0101900D922A95E1F72D81211165
:100940000AC029813A814B815C816D817E818F81D2
:100950000E94480C04C00E949A038111F2CF2D9688
:10096000E2E00C94EB2EFC012481213021F4808103
:1009700091810E94A2090895662319F00E9401172F
:1009800002C00E945C170E94D3170895CF9388235A
:1009900009F4A4C0C82F8238C1F40E94432481FD09
:1009A0009DC069E380910001909101010E944E2554
:1009B0000E942A0D2FEF87EE93E021508040904057
:1009C000E1F700C0000069E319C0833801F50E9417
:1009D000432480FD83C063E5809100019091010173
:1009E0000E944E250E942A0D2FEF81EE94E02150A7
:1009F00080409040E1F700C0000063E58091000175
:100A0000909101010E945C250E942A0D67C08438E4
:100A1000C1F40E94432482FD61C067E4809100011B
:100A2000909101010E944E250E942A0D2FEF81EE28
:100A300094E0215080409040E1F700C0000067E45E
:100A4000DDCF8CEF8C0F813AD0F46C2F80910001B8
:100A5000909101010E94CE24882349F06C2F80914F
:100A60000001909101010E945C250E942A0D6C2FCB
:100A700080910001909101010E944E25C5CF80E236
:100A80008C0F883048F4C77081E001C0880FCA9588
:100A9000EAF70E94E10CB8CFEBE5EC0FE33040F44D
:100AA000F0E0E35AFE4F808190E00E946E2416C071
:100AB000E8E5EC0FEB3150F4F0E0EE0FFF1FE95DDD
:100AC000FE4F808191810E94932408C083E38C0FA4
:100AD000833120F461E08C2F0E94BC04CF910895F3
:100AE000882309F468C0823879F40E94432481FF86
:100AF00062C069E380910001909101010E944E253E
:100B00000E942A0D69E310C08338B9F40E9443247F
:100B100080FF51C063E580910001909101010E9426
:100B20004E250E942A0D63E58091000190910101FC
:100B30000E945C250E942A0D0895843879F40E9451
:100B4000432482FF38C067E4809100019091010145
:100B50000E944E250E942A0D67E4E6CF9CEF980F75
:100B6000913A10F4682FE0CF90E2980F983050F44B
:100B7000877091E001C0990F8A95EAF7892F0E944A
:100B8000E70CD8CF9BE5980F933028F480E090E0F5
:100B90000E946E24089598E5980F9B3128F480E018
:100BA00090E00E949324089593E3980F933118F4F2
:100BB00060E00E94BC0408951F93CF93DF93182F29
:100BC000EB010E94C604209741F08FE99FE0019756
:100BD000F1F700C000002197F6CF812F0E94700529
:100BE000DF91CF911F910895893319F060E070E093
:100BF00002C060E570E00E94DC050895882321F0C2
:100C00000E94E10C0E942A0D0895882321F00E9481
:100C1000E70C0E942A0D0895A0E0B0E0E2E1F6E0C2
:100C20000C94C92E7C01162FC72FFC01D58106819B
:100C300002950F700E94D70C8823E9F0DD23D9F0CC
:100C40008C2F807F803451F080E2810F883098F0C3
:100C5000011104C08C2F807E803269F08091CC021B
:100C600082FF09C082E00E949E0D0E94D70C91E095
:100C7000D82ED92601C0D12CCC2EC2948FE0C82208
:100C80008C2D90E08C30910508F091C1FC01EA5A5E
:100C9000FF4F0C94B22E8C2F807FCF70882311F0E1
:100CA000C295C07FDD2399F0CC2309F46CC180E2AA
:100CB000810F883010F0111104C08C2F0E94E10CBC
:100CC00003C08C2F0E94F10C0E942A0D5CC1812F61
:100CD0000E947005CC2309F46AC180E2810F88303C
:100CE00038F1112329F18C2F0E94F70C24C08C2F8E
:100CF000807FCF70803211F0C295C07F112319F030
:100D0000113099F13CC08091CC0282FD17C0DD23E7
:100D100049F0CC2329F08C2F0E94E10C0E942A0D6F
:100D200080E032C180E00E947005CC2309F43FC10D
:100D30008C2F0E94E70C0E942A0D39C1DD2349F057
:100D4000002309F1013009F032C18C2F0E94080DF7
:100D50002EC101112CC18C2F0E9405068C2F0E94E0
:100D6000140D8C2F0E94710D22C1DD2321F006305D
:100D700008F01DC108C0053008F019C115C0DD23F9
:100D800031F0011100C18C2F0E94FE0510C100231B
:100D900059F0193309F008C1FFEF27EE83E0F15055
:100DA00020408040E1F7FEC08C2F0E940506FFC066
:100DB0008C2F86958695837019F0813061F0F7C08D
:100DC000DD2321F0812F9C2F937002C080E090E002
:100DD0000E946E24F4C0DD2321F0812F9C2F93709C
:100DE00002C080E090E00E949324E9C06D2F812F23
:100DF0000E94BC04E4C08C2F837079F5D111DBC054
:100E0000412F429546954770440F440F212F2F7074
:100E1000042E01C0220F0A94EAF714FF08C08FE0E5
:100E200090E001C0880F4A95EAF7809501C080E004
:100E3000C695C695C370822BC23049F058F4C130B4
:100E400019F00E94A308B7C00E949D08B4C00E9478
:100E5000A908B1C00E949A08AEC0DD2319F08C2FFA
:100E6000817001C08695882309F4A5C0412F429561
:100E700046954770440F440F212F2F70042E01C058
:100E8000220F0A94EAF714FF08C08FE090E001C037
:100E9000880F4A95EAF7809501C080E0C695C6950F
:100EA000C370822BC23049F058F4C13019F00E944F
:100EB000EF0881C00E94E9087EC00E94F5087BC04F
:100EC0000E94B20878C0CF70DD2339F08C2F0E94C9
:100ED000C408812F0E94FE056EC0812F0E94050666
:100EE0008C2F0E94D00867C0123F21F128F4103FD8
:100EF00041F0113FC1F043C0133F19F1143F79F0A5
:100F00003EC0DD2341F0053008F051C08C2F8F71B9
:100F10000E94DD084CC0063008F049C0F7CF809130
:100F2000CC0282FD18C0DD2339F08C2F8F710E9416
:100F3000C4083DC0DD23C9F38C2F8F710E94D008F7
:100F400036C0DD2329F08C2F8F710E94BB082FC083
:100F50000E94B7082CC0DD2349F0CF718C2F0E946E
:100F6000C40863E08C2F0E94800D21C081E00E94A4
:100F70009E0D0230E0F082E00E949E0D18C0DD233D
:100F800031F0002391F2812F0E94C60410C000238B
:100F900099F2193349F49FEFE7EEF3E09150E04006
:100FA000F040E1F700C00000812F0E94700588EF3B
:100FB0008C0D843020F40E9436240E945504DD20DC
:100FC00089F00E94D30C80FD0DC0F70115820E94AC
:100FD000CD0C0E94C408C7010E940F080E94CD0CCE
:100FE0000E94D008CDB7DEB7E8E00C94E52E0F9351
:100FF0001F93CF93DF93EC01688179818D810E94EB
:10100000AD098C010E94FB080E948D08B801CE0139
:101010000E940C06DF91CF911F910F910895CF93FD
:10102000DF93FC0124812223D1F0EC010E94CB0349
:1010300081110FC00E94D70C882389F08D818823ED
:1010400071F08091CC0282FF0AC082E00E949E0D66
:1010500006C0CE010E94F707CE010E94A603DF91D1
:10106000CF91089580E090E00E946E2480E090E0AF
:101070000E9493240E94FE0C0E942A0D0E94F217E7
:101080000E94D317089580910001909101010E9460
:101090006A250E94320808950E94EE0C0E944308BF
:1010A000089592959F70963079F010F4925001C097
:1010B0009A50923068F4803F69F018F4883E40F40A
:1010C00009C0843F29F406C0883E20F0813F11F01A
:1010D00080E0089581E00895FC012481222339F005
:1010E000808191810E94A2090E945108089580E0A8
:1010F0000895A6E0B0E0EFE7F8E00C94CF2E269636
:10110000E2E00C94EB2EA7E0B0E0E9E8F8E00C9404
:10111000CF2E2796E2E00C94EB2E089508950E94BE
:101120008E0808950E948F0808950E949208809367
:10113000E70108950E94950808959091E701892B91
:101140000E94950808959091E70189230E949508CF
:1011500008959091E70189270E94950808950E94BB
:101160008E0808950E94AF088093E601089580E0FC
:101170000E94B208089591E001C0990F8A95EAF79C
:10118000892F0E94B208089521E030E001C0220FAB
:101190008A95EAF78091E601822B0E94B2080895B1
:1011A00021E030E001C0220F8A95EAF72095809176
:1011B000E60182230E94B208089521E030E001C0D8
:1011C000220F8A95EAF78091E60182270E94B208F1
:1011D00008959091E601892B0E94B208089590919C
:1011E000E60189230E94B20808959091E6018927BB
:1011F0000E94B20808950895962F9770A1E001C04B
:10120000AA0F9A95EAF793E0769567959A95E1F794
:10121000FB01EE0FFF1F6E0F7F1FFA01E60FF71F96
:1012200040E050E0682F70E090819B01042E02C0E6
:10123000369527950A94E2F72170219529272A23CC
:10124000292721934F5F5F4F4330510569F7089578
:101250009B01782F777043E0969587954A95E1F743
:10126000FC01EE0FFF1F8E0F9F1FF901E80FF91F02
:1012700040E050E080E0219130E0072E02C036953A
:1012800027950A94E2F721703327042E01C0220F1C
:101290000A94EAF7822B4F5F5F4F4330510559F7AD
:1012A0000895282F933070F4853060F4862F622FD4
:1012B00070E025E0929F600D711D112440EE51E019
:1012C0000E94FC080895933070F4853060F4292F53
:1012D00090E060EE71E035E0239F800D911D1124B8
:1012E0000E942809089580E00895CF92DF92FF922E
:1012F0000F931F93CF93DF936C010091E6018091D0
:10130000E701082BC3E0D0E010E0C8010C2E02C0BA
:10131000959587950A94E2F780FD04C02197A8F778
:10132000F12C07C0FC2EB6018C2F0E94AC10019747
:10133000A9F38F2DDF91CF911F910F91FF90DF9037
:10134000CF900895CF93DF93EC010E947509BE0101
:101350000E94AC10DF91CF9108951F93CF93DF933C
:10136000EB019091DF01992321F0CB010E94A209AA
:1013700013C0882349F0CB010E947509182F682FEC
:10138000CE010E94510904C0CB010E946309182FAD
:10139000BE01812F0E94AC10DF91CF911F91089563
:1013A000E1E0F0E0DF0102C0AA0FBB1F6A95E2F79F
:1013B000BD01DF0102C0AA0FBB1F4A95E2F7AD01D4
:1013C000462B01C0EE0F2A95EAF7942F9823491374
:1013D00002C08E2B0895E0958E230895242F462F6A
:1013E000682F8091E6010E94D0090E94B2080895FA
:1013F0001F93CF93DF93C091E80117E08091E9013B
:10140000C817A1F0D0E01C9FF0011D9FF00D112422
:10141000E651FE4F20813181428153816481758183
:1014200086810E9483082196C770E8CFDF91CF9113
:101430001F910895209122023091230240912402AD
:101440005091250260912602709127028091280216
:101450000E9483080895CF93DF938091280282959C
:101460008F7009F04EC080912702882309F449C08B
:101470008091E8014091E90150912302609122029C
:10148000C0912402D091250277E08417D1F190E039
:10149000789FF001799FF00D1124DF01A651BE4F16
:1014A00014962C911497222349F111962C9111979F
:1014B000251324C02C91261321C015962C91159725
:1014C00021111CC012962D913C9113972C1B3D0BA2
:1014D000283C310598F4809128028F7080618093B8
:1014E0002802E051FE4F80818F708061808382E20C
:1014F00092E00E940F080E94F80903C001968770CD
:10150000C4CFDF91CF9108952091E8019091E90136
:1015100057E02917A9F030E0529FF001539FF00DDA
:101520001124E651FE4F7181761306C07081781345
:1015300003C07581741306C02F5F3F4F2770E9CF3A
:1015400080E0089581E00895A4E1B0E0EAEAFAE0DD
:101550000C94C52E8C0186E0F801DE011F960190E7
:101560000D928A95E1F7F8018481E58092E2A92E37
:1015700092E0B92E90912602911118C0882309F4A7
:1015800080C1EE20D9F1C8010E946C08F82E882392
:10159000A9F187E0F801D50101900D928A95E1F754
:1015A000C5010E94B3040E942B0A98C0F801C080B4
:1015B000D18082809380F090270220912402309184
:1015C0002502A401421B530BFF2009F406C1483C2D
:1015D000510508F0AFC0882309F455C18091280255
:1015E000282F207F90912302222361F09D1509F47A
:1015F00062C0C8010E946C08811173C0C8010E94BA
:101600000F083FC19D1115C0909122029C1111C07D
:10161000E1100FC08F708061809328020E941A0A27
:1016200082E292E00E940F0880912802F8018683EE
:1016300026C1E1103AC040E06D2D8C2D0E94840A35
:1016400040E06D2D8C2D0E94840AE82E811117C177
:10165000CF86D88A8F8598890E94A209292F229542
:101660002F70243020F49F70223028F009C02A50B7
:10167000223080F014C0992349F0811107C013C0B3
:10168000992321F0F8019681907F69F0805E88307F
:1016900030F409C0803F38F0815F833020F0C8010A
:1016A0000E940F08EF2CFE2CEEC080912802816072
:1016B00080932802E4C0909122029C119ACFE110FD
:1016C00098CFF8018683C8010E940F0887E0F801CF
:1016D000A2E2B2E001900D928A95E1F70E941A0A07
:1016E000D2C0EE2009F48ACF20912802822F829561
:1016F0008F7090E002978CF08091220290912302EB
:10170000998788879B868A86809126028C871D868A
:101710002E87CE0108960E940F0887E0F801A2E20A
:10172000B2E001900D928A95E1F70E942B0A0E9487
:101730001A0AA7C090912802292F207FA1F4682DB2
:101740009A8A898AA6017A899E2D0E94790882E266
:1017500092E00E940F0887E0F50111928A95E9F75F
:101760000E941A0A8CC0882309F48DC0809123023C
:101770008D1111C0809122028C110DC0E1100BC09F
:10178000F8019683C8010E940F0887E0F5011192C5
:101790008A95E9F778C0C8010E946C08882309F48B
:1017A0002DCFEE2009F42ACF20912802822F829596
:1017B0008F7090E002970CF4B0CF8091220290914C
:1017C00023029A8389839C828B82809126028D8357
:1017D0001E822F83CE0101969ECF483C510508F012
:1017E00040C0882309F44DC0FE2CEE2009F406CF3A
:1017F000809123028D1127C0809122028C1123C079
:101800009091280290FD16C0892F82958F70282F05
:1018100030E02115310571F0F80196832F30310544
:1018200009F451CF8F5F982F9295907F86818F70AA
:10183000892B48CF87E0F801A2E2B2E001900D9237
:101840008A95E1F720C0C8010E946C08811165CF1C
:1018500080912802816080932802C8010E940F08AD
:1018600012C0682D9A8A898AA6017A899E2D0E94C3
:10187000790887E0F50111928A95E9F72FCFF12CCD
:1018800002C0FF24F3948F2D6496ECE00C94E12EBB
:10189000AEE0B0E0EEE4FCE00C94CE2E2887398771
:1018A0004A875B876C877D878E87CE0108960E946A
:1018B000A40A882361F06C856623A9F128853985FF
:1018C0004A855B857D858E850E9483082CC087E0D4
:1018D000FE013896DE01119601900D928A95E1F78E
:1018E0006C85662301F12091E90130E0C901019680
:1018F000877099274091E80150E084179507E1F13E
:101900006D8397E0929FD001939FB00D1124A65153
:10191000BE4FFE01319601900D929A95E1F78093AA
:10192000E9010E94F80917E08091E8019091E9012E
:10193000891779F1189FC001112486519E4F0E948A
:10194000A40A882331F1E091E8011E9FF0011124DF
:10195000E651FE4F2081318142815381648175813E
:1019600086810E9483088091E80190E0019687704B
:1019700099278093E801D8CF0E944C081092E90182
:101980001092E801E2E2F2E087E0DF011D928A9521
:10199000E9F72E96E3E00C94EA2E809149028695B1
:1019A0008695869508958091490287700895909153
:1019B0004902977081E009F480E0089580916D02FA
:1019C000089590916D02892B80936D020895809502
:1019D00090916D02892380936D02089510926D029B
:1019E000089590916C02892B80936C0208958095E4
:1019F00090916C02892380936C02089510926C027E
:101A0000089508950E94010D08950E94020D089501
:101A100090914B02292F2823821729F0982B90931D
:101A20004B020E94050D089590914B02292F282307
:101A300031F08095892380934B020E94050D089513
:101A400080914B02882329F010924B0280E00E9483
:101A5000050D0895CF93DF93E0910001F09101010E
:101A600080916D028083E0910001F09101019081ED
:101A700080916C02892B808380914B02882381F0B6
:101A8000E0910001F09101019081892B8083809188
:101A90000001909101010E94B82481110E94200D43
:101AA000C0910001D091010140E250E069E272E092
:101AB000CE010E942D2F892B59F080E2FE01A9E270
:101AC000B2E001900D928A95E1F7CE010E94462482
:101AD000DF91CF9108950E94010D08950E946B0D32
:101AE000089590914A02292F282331F08095892367
:101AF00080934A020E946E0D08950E94010D089580
:101B00009091CC0292FF11C098E0899F900111241E
:101B1000262B209349020E94C40880914902869591
:101B2000869586950E947D0D08950E94C4080895AB
:101B30001092490280E00E947D0D08959091490223
:101B40008095892380934902282F277069F498177C
:101B500059F09091CC0292FF07C0869586958695A4
:101B60000E94D0080E94980D08959091CC0292FB9B
:101B7000222720F9281769F080FB92F99093CC0274
:101B80008091CB029091CC020E94FE0D82E00E94D7
:101B90009E0D08958091CC0282FB882780F991E008
:101BA00089270E94B50D089581E00E94B50D089522
:101BB00080E00E94B50D08956FEF7FEF80E090E028
:101BC0000E94852F089580E090E00E94512F863E6C
:101BD0009E4F19F40E94CD1C089580E0089582E084
:101BE00090E00E94432F089583E090E00E94432FED
:101BF000089584E090E00E94512F0895BC0184E094
:101C000090E00E94852F0895AB01BC018FE090E029
:101C10000E94792F0895AB01BC0183E190E00E94FE
:101C2000792F089560E070E0CB010E940B0E0895BB
:101C300060E070E0CB010E94040E0E94120E089535
:101C4000A8E0B0E0E6E2FEE00C94CF2E66EE7EEF78
:101C500080E090E00E94852F60E082E090E00E94AA
:101C6000672F60E083E090E00E94672F1092E70109
:101C700060E074E184E090E00E94852F60E086E0FF
:101C800090E00E94672F6FEF87E090E00E94672F3F
:101C900040E050E0BA0188E090E00E94792F60E0D7
:101CA00084E290E00E94672F60E087E190E00E946C
:101CB000672F60E08CE090E00E94672F60E08DE08D
:101CC00090E00E94672F19821A821B821C821D825B
:101CD0001E821F82188648E050E068E170E0CE0165
:101CE00001960E94572F40E050E0BA0180E290E058
:101CF0000E94792F80E00E94E61C0E941B1D0E941A
:101D0000180E2896E2E00C94EB2E0E94200E089507
:101D1000682F8EE090E00E94672F0895A6E0B0E063
:101D2000E4E9FEE00C94CD2E0E9457268C018091B0
:101D30006E0290916F020817190781F019821A82BA
:101D40000E945726682F49815A81792F80E090E0C0
:101D50000E94800410936F0200936E022696E4E0C6
:101D60000C94E92E0E94632660937B0270937C02A0
:101D700080937D0290937E02609377027093780245
:101D80008093790290937A0208950E94632660936B
:101D90007B0270937C0280937D0290937E0260931D
:101DA0007302709374028093750290937602089583
:101DB00081E0089581E008950E94DA0E0895089563
:101DC0000E94DF0E08950E94DF0E08950E94E30E28
:101DD00008950E94DF0E08950E94E90E08950E9462
:101DE000DF0E08958CE991E10E942B130E94EF0E03
:101DF0000E94EC0E08950E94E00E0E94DF0E0895EE
:101E00000E94BB110E94540408950E944E260E9415
:101E10002B1D0E9478200E9481120E94000F0E94B8
:101E2000F11B0E94E60E0895A6E0B0E0EAE1FFE0B3
:101E30000C94C62E0E94D80E811103C00E948E0EF3
:101E400053C00E94971280E7E82E82E0F82E6701C7
:101E500000E0F60111916F01802F0E94D6118127B9
:101E60000F5F033019F08823A1F302C0882331F3F8
:101E700080917F0281FD0E94DC110E94DC0EA82E61
:101E800010E099249394812F0E94D611B82EF70167
:101E9000C080C82609F100E0DD24D3948C2D8D216B
:101EA000A9F0AA2099F009831A830E9457269C83DF
:101EB0008B839D8291E08B2D8D2109F490E04981E7
:101EC0005A816B817C818D810E9480040F5FDD0CC3
:101ED000053021F7F701B0821F5FFFEFEF1AFF0A0D
:101EE000133089F60E94B20E0E94EF2081110E94E9
:101EF000C50E0E9414180E9476160E94670426964A
:101F0000EBE00C94E22E1F93CF93DF930E94B1106D
:101F1000EC01C11580E5D807E8F5C11590E4D907B3
:101F200008F0A8C0C03ED10530F5CD3CD10508F081
:101F300094C0C83AD10578F4C53AD10508F083C0F9
:101F4000C130D10509F47CC008F4F2C0C430D10519
:101F500008F0F1C0EDC0C33CD10508F0E9C0C85A93
:101F6000D0E0CC0FDD1FC05ADE4F0990D881C02DC4
:101F7000CE019464E1C0C11580E2D80708F0CBC05F
:101F8000C11591E0D90708F06BC0C83ED10508F42F
:101F9000D2C0CEC0C03682E5D80728F5C03492E55D
:101FA000D90708F079C0C03282E5D80708F06CC0C4
:101FB000C11592E5D90708F481C04C2F4695469586
:101FC00080E2489FA0011124C37021E030E0C901E4
:101FD00002C0880F991FCA95E2F7EA01C82BD92BD6
:101FE000CE019D68A9C0C03A82E5D807B8F48C2F0D
:101FF0008F71C03892E5D90708F07BC08695869529
:1020000090E2899F90011124C37081E090E002C0AA
:10201000880F991FCA95E2F79A6868C0C03C82E5AC
:10202000D80708F46DC0C03E92E5D90708F080C01B
:10203000CF71DD27DC2FCC27CE01806F906A7CC06A
:1020400081E090E079C0C55AD0E0CA56DE4F888161
:10205000C82FD0E0CE0190646FC0CE0190656CC0F7
:102060008D2F0E944D11182FCE0199270E94B1107B
:102070001F715CC0CE0199270E94B110CC27DF7080
:10208000D06A8C2B9D2B58C0CF71D0E0DC2FCC2791
:10209000CE01816F906A50C08C2F8F718695869586
:1020A00090E2899F90011124C37081E090E002C00A
:1020B000880F991FCA95E2F79C6818C08C2F8F7102
:1020C0000E944D1195E0D695C7959A95E1F7CF708E
:1020D000D0E0DC2FCC27282F30E084FF05C084E03F
:1020E000220F331F8A95E1F7D069CE01822B932B03
:1020F00023C090E0D82FCC27CE01846F906A1CC0FB
:102100008C2F8F710E944D118F7190E0D82FCC27AA
:10211000CE01906211C08D2F8F710E944D11182F2A
:10212000CE0199270E94B1101F719062912B04C0BB
:1021300080E090E001C0CE01DF91CF911F91089522
:10214000733038F4653028F4462F672F0E9421221F
:10215000089580E090E008950E94A0100E94830FEF
:1021600008958238910569F1B0F48133910509F43D
:1021700075C048F48932910509F467C08A32910527
:1021800009F471C008958533910509F459C0893364
:102190009105B9F00895833E910589F138F4803EA8
:1021A0009105D1F0823E910529F10895863E910571
:1021B000C9F1873E9105D9F1843E910509F06CC0C3
:1021C00027C02091CB0220FD57C021FD55C0209192
:1021D000CC0223FD5BC008958091CB0280FD48C0F6
:1021E0008091CC0280FF48C08091CB0284FD46C024
:1021F00083EE51C08091CB0282FF3CC0F5CF80912D
:10220000CB0282FD37C08091CC0280FD35C0ECCF7F
:102210008091CC0281FF36C08091CB0284FD2EC01C
:1022200087EE39C08091CB0283FF2AC0F5CF809121
:10223000CB0283FD25C08091CC0281FD23C0ECCF71
:102240008091CB0285FD22C01FC08091CB0285FD0D
:102250001BC08091CC0283FF19C00AC08091CB02C1
:1022600086FD16C017C08091CB0286FD13C010C03A
:1022700089E311C082EE0FC080EE0DC080E00BC07C
:1022800086EE09C084EE07C085E305C089E203C07D
:102290008AE201C081E390E008959091CB0292FF21
:1022A00010C041E0282F2471243009F040E031E0D3
:1022B000282F2871283009F030E0431711F02CE066
:1022C000822793FF10C041E0282F2471243109F0A8
:1022D00040E031E0282F2871283109F030E0431721
:1022E00011F02CE082273091CC0230FF10C051E079
:1022F000282F2171213009F050E041E0282F28716A
:10230000283009F040E0541711F029E0822731FF0E
:1023100010C041E0282F2171213109F040E031E067
:10232000282F2871283109F030E0431711F029E0F7
:10233000822794FD877E089580E008950E94DC0D39
:1023400008950E9497122FEF86E791E02150804078
:102350009040E1F700C000000E94971280E00E94C8
:10236000D61180FF04C00E949E110E94A4260895E9
:102370000E94A11108950E94E30D811102C00E94E4
:10238000850E0E94EF0D80937F020E94F90D9093BD
:10239000CC028093CB020E94B8110E94F40D0E94DF
:1023A0009A088091E6010E94AF080895E82FF0E0B6
:1023B000E053FD4F80810895089580EA8A95F1F7F2
:1023C000089500C008950E94DD11089508950E94A7
:1023D000E61108950E94E71108950E94E6110895FC
:1023E0000E94ED110895F894E82FE295EF70F0E067
:1023F00031A1282F2F7081E090E001C0880F2A952D
:10240000EAF7982F9095932391A392A1892B82A309
:1024100078940895CF93DF9380EF0E94F31181EFBA
:102420000E94F31184EF0E94F311C9E9D1E0899170
:102430008F3F11F00E94F31181E0CE39D807B9F730
:10244000DF91CF910895A0E0B0E0E9E2F2E10C94D1
:10245000C92E8C01C62FD0E0CE0182569E4F7C0142
:10246000FC0190819F3F09F447C0D62EF894E92FD4
:10247000E295EF70F0E081A19F7021E030E001C0B3
:10248000220F9A95EAF7822B81A382A12095282317
:1024900022A378940E94E111E9E9F1E04EE951E0CC
:1024A00031E0C12C21912F3F89F0A22FA295AF706E
:1024B000B0E090968C9190E02F7002C09595879532
:1024C0002A95E2F780FD02C0832F01C080E0C82A70
:1024D000330F4E175F0731F7F70180818F3F11F0FF
:1024E0000E94F31161E0C11001C060E08D2D0E94D7
:1024F000E311C00FD11FC882CDB7DEB7E8E00C945E
:10250000E52E0E940A1283E0E0EDF2E0DF01982F51
:102510001D929A95E9F7EDECF2E0DF011D928A95A4
:10252000E9F783E00E94D6120E94F0110895A3E01B
:10253000B0E0EDE9F2E10C94CE2E19821A821B82F2
:1025400060E0CE0101960E94231261E0CE01019667
:102550000E94231262E0CE0101960E94231243E002
:1025600050E0BE016F5F7F4F8DEC92E00E942D2FF7
:1025700021E0009709F420E0892B49F089819A81B4
:10258000AB818093CD029093CE02A093CF0243E023
:1025900060ED72E08DEC92E00E94D712182F0E943D
:1025A000EA11812F2396E3E00C94EA2E0895EF922E
:1025B000FF920F931F93CF93DF937C018B01C42F66
:1025C000222349F081E0809382020E945726909353
:1025D00081028093800280918202811102C080E09A
:1025E0001AC080918002909181020E946F26059707
:1025F000B0F3D0E0AE01B701C8010E942D2F892BA6
:1026000039F0AE01B701C8010E943A2F81E001C044
:1026100080E010928202CDB7DEB7E6E00C94E72EA0
:102620000E946F280E94050F0E947C2808950E9436
:1026300081280E94140F0E949B2808950E94EE2575
:102640000E9453280E94F20E0E9410130E9417133A
:102650000E94FB0EFBCF9093D9018093D80108957F
:10266000881F8827881F089591E0883F08F490E02C
:10267000892F0895982F907F903BF1F038F490398E
:10268000D9F0903AC9F09038C9F416C0903D49F09D
:1026900018F4903C31F012C0903E71F0903F19F068
:1026A0000DC082E00895815F8F3040F4E82FF0E0A4
:1026B000EF55FE4F8081089583E0089580E00895EE
:1026C000FC01738362830895FC01758F648F089504
:1026D000CF93DF93EC011DA21FA21EA2BC01685D77
:1026E0007F4F40EC88519F4F0E94FA151B821A823F
:1026F0001D821C821F821E82198618861B861A86DE
:102700001D861C861F861E86198A188A1B8A1A8AAD
:102710001D8A1C8A1F8A1E8A198E188E1B8E1A8E7D
:102720001D8E1C8E1F8E1E8E19A218A2DF91CF91B6
:102730000895EF92FF920F931F93CF93DF93EA01D7
:102740008A01060F111D88519F4F7C01C017D107C8
:1027500029F06991C7010E940116F8CFCDB7DEB705
:10276000E6E00C94E72EFC01718360830895FC0180
:1027700071A360A30895A3E0B0E0E1ECF3E10C9451
:10278000C72E7C016B01142FB22EA02EDC01959672
:102790008C9195978430F1F45A96ED91FC915B976A
:1027A000309709F4BEC0CB01019763E070E00E944E
:1027B0008A2ECB01880F991F860F971F4983BA82F3
:1027C0000B834C2D481B9E012F5F3F4FBC01C7015F
:1027D0000995B4C06230710509F452C063307105C7
:1027E00029F06130710509F099C080C0842F807F85
:1027F000803AF9F058F48038B1F0803909F091C08E
:10280000D7011496ED91FC9115972AC0803EB9F03E
:10281000803FD9F0803B09F084C0D7011296ED913A
:10282000FC9113971DC0D7011696ED91FC91179757
:1028300017C0D7011896ED91FC91199711C0D701D7
:102840001A96ED91FC911B970BC0423F09F069C0AD
:10285000D7011C96ED91FC911D97309731F461C022
:10286000309709F45EC0123F21F42A2D4B2D62EF00
:1028700004C02A2D4B2D612F6F70C70109955EC0D2
:10288000842F807F803D59F0803F79F0803C09F0B3
:1028900048C0D7011E96ED91FC911F9718C0D70133
:1028A0005096ED91FC91519712C0433F31F4D701FE
:1028B0005296ED91FC91539707C0413F91F5D70196
:1028C0005496ED91FC915597309739F42AC0309782
:1028D00041F1812F8D7F813F19F44B2D612F03C072
:1028E0004B2D612F6F70C701099528C0842F0E945E
:1028F0003413882331F0D7015696ED91FC91579708
:1029000007C0163F71F4D7015896ED91FC91599785
:10291000309739F0612FC701099510C064307105F7
:10292000D8F4D7015C96ED91FC915D97309731F02A
:102930000A2D2B2D412FB601C7010995D7015E96AF
:10294000ED91FC915F97309751F00A2D2B2D412F7F
:10295000B601C701099503C0C12CD12CE2CF239643
:10296000EAE00C94E32EFF920F931F93CF93DF9333
:10297000EC01162F862F0E943413882369F0FDA0E6
:1029800081E08DA300E020E0412F61E070E0CE0106
:102990000E94BB13FDA270C0812F0E9430134DA175
:1029A000882309F440C0443029F01AA381E090E064
:1029B0009FA38EA3812F0E943A13813031F070F0D3
:1029C000823051F0833041F02AC08DA300E020E036
:1029D000412F61E070E01EC08DA34EC0103FB1F0EA
:1029E000173FE9F42EA13FA1C90163E070E00E9406
:1029F0008A2EFE01E80FF91F12A3B9016F5F7F4F06
:102A00007FA36EA30CA12BA14AA104C084E08DA3D7
:102A10001AA329C0CE010E94BB131DA22DC01DA266
:102A20001FA21EA229C0442339F12EA13FA1C90132
:102A300063E070E00E948A2EFE01E80FF91F12A3E6
:102A4000B9016F5F7F4F7FA36EA38130910581F045
:102A5000029791F40CA12BA14AA1CE010E94BB13B5
:102A60008DA1843049F081E090E09FA38EA304C043
:102A7000423011F400E0EFCFCDB7DEB7E5E00C94C3
:102A8000E82EA0E0B0E0E7E4F5E10C94C92EEC01FB
:102A9000E8A1F9A1309709F009956E0188EEC80EFA
:102AA000D11CC6010E943116E12CF12C082F10E038
:102AB000E016F10680F460E0C6010E944716682F18
:102AC000CE010E94B31461E0C6010E9458168FEF38
:102AD000E81AF80AEDCFCDB7DEB7E8E00C94E52EA2
:102AE00008950895A7E0B0E0E8E7F5E10C94CD2E55
:102AF0008C01CE0101960E944D28882309F18A811C
:102B00000E943A139A819D839B819E839C819F831F
:102B100081110EC08981843041F0873031F08630D8
:102B200031F0853031F781E003C083E001C082E0FD
:102B3000AE014B5F5F4F682FC8010E949913D9CF38
:102B40002796E4E00C94E92EA4E0B0E0EAEAF5E18F
:102B50000C94CA2E7B01142FD22E4A832B830C8314
:102B6000842F0E943A1381111DC082E0E816F104FF
:102B700079F083E0E816F10429F081E0E816F10429
:102B8000C1F40CC0073F11F487E006C084E004C024
:102B900087EFD812FBCF86E0898307C0173FB1F7D4
:102BA00085E0FACF12951F701983CE0101960E941D
:102BB00047282496E7E00C94E62E83ED92E00E94ED
:102BC000681364EA75E183ED92E00E94B31362E753
:102BD00075E183ED92E00E94B71360E775E183ED44
:102BE00092E00E94641361E775E183ED92E00E9438
:102BF00060130895FC014283748363831182108201
:102C000008951F93CF93DF93EC01162F0E94711646
:102C1000E82F298130E0C90101966A8170E00E94A5
:102C20009E2E488150E08417950729F48E2F0E942C
:102C3000741680E012C08B819C81DC01A20FB31F4F
:102C40001C93898190E001966A8170E00E949E2E1B
:102C500089838E2F0E94741681E0DF91CF911F919E
:102C600008950F931F93CF938C010E947116F80162
:102C7000C1812081C21718F4F8019281C90FC21BCB
:102C80000E9474168C2FCF911F910F910895FC0113
:102C90002081862F90E0820F911D628170E00E945A
:102CA0009E2E0380F481E02DE80FF91F80810895A6
:102CB0001F93CF93DF93EC01162F0E947116282FDC
:102CC0003881812F90E0830F911D6A8170E00E940E
:102CD0009E2E8883822F0E947416DF91CF911F91C0
:102CE00008958FB7F89408958FBF089583ED92E00B
:102CF0000E9441150895282F35EB2303C0011124AC
:102D000097FF03C08058910902C080589F4F892FB8
:102D100008958091890280FF06C06091070170E0EC
:102D2000660F771F26C081FF04C06091070184E011
:102D300005C082FF07C06091070188E0689FB0016D
:102D4000112417C0909188029923D1F06091060157
:102D5000961788F72091070188E0289F9001112499
:102D6000929FA001939F500D112470E0CA010E9410
:102D70009E2E6038710540F46115710519F406C086
:102D800068E070E0862F08958FE7089581E0089548
:102D90008091890280FF08C06091030170E0759501
:102DA00067957595679521C081FF06C06091030105
:102DB00070E07595679519C082FF04C060910301AA
:102DC00070E010C090918702992399F06091020100
:102DD0009617A0F780910301899FC001112470E02C
:102DE0000E949E2E6038710540F46115710519F43A
:102DF00006C061E070E0862F08958FE7089581E0B6
:102E000008958D3C21F40E948916819504C08E3C62
:102E100029F40E94891680938D0208958F3C21F435
:102E20000E948916819504C0803D29F40E9489166C
:102E300080938C020895893D19F40E94C81605C03C
:102E40008A3D31F40E94C816819580938E020895C0
:102E50008B3D21F40E94C816819504C08C3D29F455
:102E60000E94C81680938F0208959FE2980F9830B1
:102E700078F421E030E0A90102C0440F551F9A9573
:102E8000E2F7CA0190918B02892B80938B020895FF
:102E90008D3D21F48091890281600BC08E3D21F42B
:102EA00080918902826005C08F3D29F4809189025A
:102EB00084608093890208958D3C39F490918D024D
:102EC00097FF35C010928D0259C08E3C29F4909125
:102ED0008D021916BCF32BC090918C028F3C29F403
:102EE00097FF25C010928C0249C0803D19F4191635
:102EF000CCF31DC090918E02893D29F41916BCF4C3
:102F000010928E023BC08A3D19F497FF10C0F8CF93
:102F10008B3D39F490918F0297FF09C010928F0278
:102F20002DC08C3D21F490918F021916BCF39FE2C5
:102F3000980F983080F421E030E0A90102C0440FDE
:102F4000551F9A95E2F7CA01809590918B028923CB
:102F500080938B0213C08D3D21F4809189028E7F76
:102F60000BC08E3D21F4809189028D7F05C08F3D7D
:102F700029F4809189028B7F8093890280918C0251
:102F8000811106C080918D02811102C010928802C9
:102F900080918E02811106C080918F02811102C042
:102FA0001092870208950E94572620918C022111C9
:102FB00004C020918D02222321F0909386028093F9
:102FC000850220918E02211104C020918F022223BC
:102FD00021F090938402809383028AE892E00E9419
:102FE00060240895EAE8F2E086E0DF011D928A9508
:102FF000E9F71092880210928702109289020895D0
:10300000FC01828181110DC0838181110AC08481FC
:10301000811107C091E08581811101C090E0892F65
:1030200001C081E081700895A6E0B0E0EAE1F8E136
:103030000C94CE2E86E0EAE8F2E0DE0111960190D3
:103040000D928A95E1F710928C0210928D021092E7
:103050008E0210928F028B81811104C08C81882393
:1030600009F456C080918502909186020E946F26D5
:10307000AC0190918802992339F02091080130E049
:103080002417350758F044C0209109018AE0289F91
:10309000900111242417350718F03AC09F3F19F00A
:1030A0009F5F909388021B81112361F00E94891613
:1030B000111614F09FEF01C091E0989F902D1124FC
:1030C00090938C021C81112361F00E9489161116C5
:1030D00014F09FEF01C091E0989F902D11249093E0
:1030E0008D0280918C02882399F010918D0211231A
:1030F00079F00E947B16811101C081E080938C02DF
:10310000812F0E947B16811101C081E080938D0286
:103110008D81811104C08E81882309F456C080916D
:103120008302909184020E946F26AC0190918702E5
:10313000992339F02091040130E02417350758F025
:1031400044C0209105018AE0289F90011124241792
:10315000350718F03AC09F3F19F09F5F90938702A0
:103160001D81112361F00E94C816111614F09FEF03
:1031700001C091E0989F902D112490938E021E81A2
:10318000112361F00E94C816111614F09FEF01C0C0
:1031900091E0989F902D112490938F0280918E0240
:1031A000882399F010918F02112379F00E947B16E9
:1031B000811101C081E080938E02812F0E947B16D5
:1031C000811101C081E080938F02BE016F5F7F4F4C
:1031D0008AE892E00E947C25811105C08AE892E08D
:1031E0000E94001881110E94D31786E0FE013196DB
:1031F000AAE8B2E001900D928A95E1F72696E3E005
:103200000C94EA2EEF92FF920F931F93CF93DF93CC
:103210008B01682F11110AC0442329F0E82FF0E038
:10322000EE50FE4F6491762F862F75C0212F30E02F
:10323000E82FF0E0442321F0EE50FE4FE491F0E05F
:1032400046E0049FC0011124CFEFD0E0BE010E94F0
:103250008A2E4BEA4603C001479F900D1124800F30
:10326000911D800F911D982F990F890FAE01421B60
:10327000530B4E9FD0014F9FB00D5E9FB00D112498
:103280009B2F189FA0011124452F55278E01041B49
:10329000150B0E9FA0010F9F500D1E9F500D112466
:1032A0007E01E81AF108E29E8001E39E100DF29E75
:1032B000100D1124212F3327C21BD30BCE9F900159
:1032C000CF9F300DDE9F300D112462307105A9F0C3
:1032D00048F46115710569F061307105C9F48B2FEF
:1032E000752F0DC06430710581F058F0663071059E
:1032F00079F47E2F8B2F932F0DC0832F7B2F9E2F42
:1033000009C08E2F7B2F952F05C08E2F732F02C0E3
:103310007E2F852F692FCDB7DEB7E6E00C94E72E20
:1033200041E00E94021908950E9490190895CF93D8
:10333000DF93762FE901682F842F0E9494197983F7
:1033400068838A83DF91CF9108958091C003982F7D
:103350009695913021F0817082608093C00308952A
:10336000A0E0B0E0E6EBF9E10C94C92E88E090E033
:103370000E944B2F6B017C0184E290E00E94432F5E
:10338000282F30E040E050E060E070E080E090E026
:1033900000E20E94F62EB22FA32FF42FE52FD62F96
:1033A000C72F97018601BC29A12BF22B5E2F532B2F
:1033B0002B2F3A2F4F2F6D2F7C2FCDB7DEB7E8E0A4
:1033C0000C94E52EA0E0B0E0E8EEF9E10C94C52EF7
:1033D00049015A016B017C010E94A5198401A401D5
:1033E0006A2D7B2D88E090E00E94792F94014A2D70
:1033F0005B2DB601C70100E20E94112F622F84E20B
:1034000090E00E94672FCDB7DEB7ECE00C94E12E80
:10341000E0ECF3E020813181428153816481758148
:10342000868197810E94E2190895E0ECF3E023E0A1
:10343000208311828FEF828383831482758130E031
:103440004FEF5FEF60E0868197810E94E219089557
:103450008091C00380FF02C08695089580E00895A2
:103460008091C003817008959091C403933018F443
:103470009F5F9093C403882391F02091C003309103
:10348000C1034091C2035091C3036091C403709182
:10349000C5038091C6039091C7030E94E219089565
:1034A00081E00E94341A08959091C403992319F081
:1034B00091509093C403882391F02091C0033091E0
:1034C000C1034091C2035091C3036091C403709142
:1034D000C5038091C6039091C7030E94E219089525
:1034E00081E00E94541A08958091C4030895809346
:1034F000C403662389F0682F2091C0033091C10373
:103500004091C2035091C3037091C5038091C603DB
:103510009091C7030E94E219089560E00E94771A13
:1035200008958091C10308958091C2030895809108
:10353000C303089570E00E94A21C089560910B01DE
:103540008091C00380FF0BC080910A0123E0829F1D
:10355000C001112488539C4F0E949A1A08958091AB
:103560000C0190910D01891778F7E82FF0E09F0189
:10357000220F331FE20FF31FE853FC4F118210821A
:1035800012828F5FF0CFE0ECF3E020812E7F20836A
:1035900031814281538164817581868197810E9446
:1035A000E2190E949E1A0895E0ECF3E080818E7F7C
:1035B00080830E949E1A08959091C00390FF16C0C8
:1035C00090910C0120910D01921770F4E92FF0E019
:1035D000DF01AA0FBB1FEA0FFB1FE853FC4F8183DB
:1035E000608342839F5FF0CF0E949E1A0895A3E0FC
:1035F000B0E0EDEFFAE10C94CB2E9091C00390FF78
:1036000030C0E22E142F062FF82EE92FE695F0E0B9
:10361000E055FE4F8081809391029E7F923059F455
:103620009E012F5F3F4F8F2D0E9497194B8169811B
:103630008A810E94DC1AF092C1030093C2031093A6
:10364000C303EE2071F02091C0036091C403709118
:10365000C5033F2DA8018091C6039091C7030E9426
:10366000E2192396E6E00C94E72EE0ECF3E091817A
:10367000282F4381628188E0890F0E94F71A0895FC
:1036800081E00E94351B0895E0ECF3E09181282F42
:103690004381628188EF890F0E94F71A089581E0C3
:1036A0000E94441B0895E0ECF3E0628121E1620F87
:1036B00008F46FEF282F438181810E94F71A089543
:1036C00081E00E94531B0895E0ECF3E0628121E168
:1036D000621B08F460E0282F438181810E94F71A61
:1036E000089581E00E94641B0895E0ECF3E04381BB
:1036F00021E1420F08F44FEF282F628181810E945F
:10370000F71A089581E00E94751B0895E0ECF3E03C
:10371000438121E1421B08F440E0282F628181812E
:103720000E94F71A089581E00E94861B089520E008
:103730000E94F71A08952091C00320FF1EC0217037
:1037400022602093C003662381F03091C103409131
:10375000C2035091C3036091C4037091C50380916B
:10376000C6039091C7030E94E2194091C303609180
:10377000C2038091C1030E94971B0895682F81E0C6
:103780000E949B1B089581E00E94BE1B0895682F34
:103790009091C00396958FEF890F09F481E00E9404
:1037A0009B1B089581E00E94C71B089561E00E9461
:1037B0009B1B0895E0ECF3E0808181608083869517
:1037C0000E94D61B08958091C00380FF03C00E9411
:1037D000C31A08950E94DA1B089560E00E949B1BA3
:1037E00008958091900281113CC00E94E30D8111E7
:1037F00004C00E94850E0E94151A0E94B0192093E1
:10380000C0033093C1034093C2035093C30360933A
:10381000C4037093C5038093C6039093C7032E7FA0
:10382000A1F40E94151A0E94B0192093C00330938E
:10383000C1034093C2035093C3036093C4037093C6
:10384000C5038093C6039093C7030E94A519809176
:10385000C00380FF03C086950E94ED1B81E080932A
:1038600090020895E0ECF3E080818160808386958A
:103870000E94ED1B08958091C00380FF03C00E9449
:10388000D41A08950E94321C0895882311F0FA0179
:1038900001C0FB01099508951F93CF93DF93FB01AE
:1038A000158111114AC0EC010E94DE0C8272FE01EA
:1038B000E052F847E531F10520F4EE59FF4F0C9442
:1038C000B22E11E03AC00E94E31B37C042ED5BE12B
:1038D00063EC7BE104C043EC5BE162ED7BE10E94C1
:1038E000451C2BC04FE45BE160E47BE1F8CF40E492
:1038F0005BE16FE47BE1F3CF41E75BE160E67BE115
:10390000EECF40E65BE161E77BE1E9CF43E95BE1D4
:1039100062E87BE1E4CF42E85BE163E97BE1DFCF92
:1039200040E75AE160E57AE1DACF40E55AE160E745
:103930007AE1D5CF81E00E94D61B812FDF91CF9114
:103940001F910895539A2BB1277F3BB138604FB731
:10395000F894FC01CB01880F991F680F791F6E0F37
:103960007F1FE617F70789F0819198E03BB90000C7
:1039700000C087FF2BB9880F000000C000C000C046
:103980002BB900C09A9591F7ECCF4FBF8FE594E02B
:103990000197F1F700C00000089585E290E00E94D1
:1039A000432F833281F486E290E00E94432F8930D6
:1039B00051F487E290E00E94432F91E0853209F0B4
:1039C00090E0892F01C080E081700895CF93C82FC7
:1039D000811102C06FEF01C063E285E290E00E94B6
:1039E000672FC11102C06FEF01C069E086E290E06D
:1039F0000E94672FC11102C06FEF01C065E287E22C
:103A000090E00E94672FCF910895089588E290E09A
:103A10000E94432F682F70E080E090E008950895A1
:103A2000CF93C62F0E940F1D6C2F88E290E00E945A
:103A3000672FCF91089580E00E94E61C60E070E05F
:103A4000CB010E94101D0E94C3210E94762281E0BA
:103A50000E94E61C08950E94051D0E94061D0E94FA
:103A60000F1D0E94CD1C811102C00E941B1D0895D4
:103A70000E943B1C08959C01FB018581882351F025
:103A8000A90157574038510530F4C9010E948622D8
:103A900080E0089581E008952FEFFC0120830895D0
:103AA00080E00895CF93DF93EC0188818230D1F0DC
:103AB00070F4813019F50E94971A2FEF829FC00190
:103AC00011246FEF70E00E948A2E698317C0833043
:103AD00091F0843099F40E94911A89830E94941A7B
:103AE0008A830CC00E94301A882319F00E94281A79
:103AF00004C080E002C00E94741A8983DF91CF91D4
:103B00000895CF93DF93EC018881823001F1A8F40E
:103B1000813079F5C9810E94941AD82F0E94911A98
:103B2000282F3FEFC39FC00111246FEF70E00E9468
:103B30008A2E462F6D2F822F1AC08330A1F0843039
:103B4000C1F40E94971A482F6A81898110C0898127
:103B5000811103C00E94D41A0CC00E94321C8981BA
:103B60000E94ED1B06C089810E948D1A02C00E942E
:103B7000971BDF91CF910895FC019C012E5F3F4F71
:103B80009081983041F0993051F0973059F4C90143
:103B90000E94811D0895C9010E94521D08950E942E
:103BA000081A08958FEF80830895FC012181223047
:103BB00019F40E94BC1D08950E944C1D0895A0E0B8
:103BC000B0E0E5EEFDE10C94C72EEC01F62E0E946C
:103BD000501D8111BEC0E8818E2F90E0FC0131970D
:103BE000E331F10508F0AFC0E958FF4F0C94B22E55
:103BF00019828CE06BC08981823089F030F4813089
:103C000009F0A1C00E9463260CC0833079F0843093
:103C100009F099C01A821B821C821D8296C00E94E4
:103C2000061D9A838B837C836D838FC0EA806E012F
:103C300083E0C80ED11C00E010E0AE2CB12CC50111
:103C4000800F911F039708F080C08E2D800F0E9477
:103C5000D611F60181936F010F5F1F4F0C311105D3
:103C600071F773C08981823039F0853009F06BC0FB
:103C70008A810E94381D69C06A817B818C819D8107
:103C80000E94B82E0E94101D60C04B816A818981FC
:103C90000E9487219C838D8358C02C813D813227CF
:103CA000232732274B816A8189810E94A8214DC038
:103CB0000E94C3214AC06F2DCE010E94D51D45C070
:103CC0000E942D2224C00E942F2299838A833DC006
:103CD0006B8170E089819A81AE014C5F5F4F9827BC
:103CE000892798270E94322230C06B8170E0898139
:103CF0009A81AE014C5F5F4F9827892798270E94D1
:103D0000552223C00E94762220C00E9474218983FC
:103D10001CC06B8170E089819A81AE014C5F5F4F5E
:103D20009827892798270E94E1210FC06B8170E0B6
:103D300089819A81AE014C5F5F4F98278927982728
:103D40000E94022202C08FEF88836F2DCE010E9455
:103D50002C27CDB7DEB7EAE00C94E32ECF93DF93A8
:103D6000FC01DB0115968C91882309F4DDC09F01CD
:103D700030572332310508F0D8C0EF010E94F90D09
:103D80009093CC028093CB02FE01E150F047E232E7
:103D9000F10520F4E657FF4F0C94B22E8091CB0230
:103DA0008160AAC08091CC028860B2C08091CB02B1
:103DB0008260A2C08091CB0220C08091CB0288603B
:103DC0009BC08091CC021EC08091CC028260A0C0BA
:103DD0008091CB02806190C08091CB0280628CC0C8
:103DE0008091CB02806488C00E944C088091CB02F5
:103DF000806882C08091CB02886084607DC08091A1
:103E0000CC028260816084C08091CB028E7F74C0BE
:103E10008091CC02877F7CC08091CB028D7F6CC06B
:103E20008091CB0220C08091CB02877F65C08091BA
:103E3000CC021EC08091CC028D7F6AC08091CB02E3
:103E40008F7E5AC08091CB028F7D56C08091CB026D
:103E50008F7B52C00E944C088091CB028F774CC060
:103E60008091CB02877F8B7F47C08091CC028D7F72
:103E70008E7F4EC08091CB0282FB222720F991E0F9
:103E8000922790FB82F990FB83F936C08091CC0297
:103E9000982F909591708E7F892B90FB81F938C077
:103EA0008091CB0286FB222720F991E0922790FB9C
:103EB00086F922C00E944C088091CB0287FB222702
:103EC00020F991E0922790FB87F916C081E001C0AC
:103ED00080E00E94880E1EC08091CB0284FB2227C6
:103EE00020F991E0922790FB84F906C08091CB02E3
:103EF000982F909590FB80F98093CB020BC0809116
:103F0000CC0283FB222720F991E0922790FB83F9D2
:103F10008093CC028091CB029091CC020E94FE0D46
:103F20000E944C0880E001C081E0DF91CF910895AC
:103F3000A0E0B0E0EEE9FFE10C94CA2EE82FF0E03B
:103F4000EE50FD4FD490282F26952695269530E0EB
:103F5000F901EE56FC4F0491877010E0082E02C064
:103F6000159507950A94E2F701701127F901EE57AC
:103F7000FC4FE490F12C082E02C0F594E7940A94CB
:103F8000E2F791E0E922FF24F901EE58FC4FC491D9
:103F9000D0E002C0D595C7958A95E2F7C170DD27BC
:103FA0000115110519F081EE0E94C604E114F10417
:103FB00019F086EE0E94C6048D2D0E94F405E114CE
:103FC000F10419F086EE0E9470050115110519F033
:103FD00081EE0E947005CD2B19F08CE20E94F40551
:103FE000CDB7DEB7E7E00C94E62EEF92FF920F9389
:103FF0001F93CF93DF93EC01162F0AE0888188236B
:1040000009F455C0813009F043C08981813041F401
:104010007E0182E0E80EF11C8A810E94F40509C04D
:10402000823049F47E01E2E0EE0EF11C8A810E94AA
:10403000C604E7012FC0833041F47E01F2E0EF0EA9
:10404000F11C8A810E947005F4CF843011F0219612
:1040500021C02A81229680E090E030E0205331098F
:104060002A30310558F4089FA001099F500D1124F2
:10407000C901840F951F21962881EFCF009751F039
:10408000EFE9FFE03197F1F700C000000197F6CFAC
:104090000E94981F2196812F882309F4AFCFEFE962
:1040A000FFE03197F1F700C000008150F5CFCDB7A8
:1040B000DEB7E6E00C94E72E8FE891E00197F1F788
:1040C00000C000000895CF93DF93D62F0E941603FF
:1040D000C82F882349F06AE070E0DD2311F089EAF7
:1040E00001C08AEA0E94DC058C2FDF91CF910895F0
:1040F000EF92FF920F931F93CF93DF9383E0809310
:10410000960205EC11E0C2ECD1E0AE01D80121E04D
:1041100030E08D91E82FE295EF70F0E061A18F70B3
:10412000790102C0EE0CFF1C8A95E2F7C7019E2DB3
:104130009095962391A392A1892B82A3FA01819154
:10414000AF01E82FE295EF70F0E061A18F70790187
:1041500002C0EE0CFF1C8A95E2F7C7019E2D9095D8
:10416000962391A392A1892B82A381E0A83CB80752
:1041700081F60E945C2050919602EAE9F2E040E06C
:10418000451741F1D8012D918D01A22FA295AF7055
:10419000B0E090968C9190E02F7002C09595879535
:1041A0002A95E2F781709991A92FA295AF70B0E09E
:1041B00090962C9130E09F7002C0359527959A9586
:1041C000E2F720FD02C090E001C092E0892B8193CC
:1041D0004F5FD6CFCDB7DEB7E6E00C94E72EA0E078
:1041E000B0E0E5EFF0E20C94C92EF12CE12C84E074
:1041F000C82ED12C80919602F81608F06FC00F2DB2
:1042000010E0F801EB53FE4F8081E82FE295EF704C
:10421000F0E0E0A1F0E08F7002C0F595E7958A9597
:10422000E2F7E170D801AE53BE4F2C91A22FA295B8
:10423000AF70B0E090968C9190E02F7002C0959591
:1042400087952A95E2F780FD02C080E001C082E0F8
:104250008E2BD801A656BD4FEC912E2F237030E047
:10426000482F082E000C550B24173507A9F1EE0F27
:10427000EE0FE82BEC93EF70F0E0EE54FE4FE80108
:10428000C956DD4F90818881890F8883843064F01E
:10429000F801ED56FD4F80818F5F808360E08F2DA8
:1042A0000E94632021E001C020E088818D3F5CF402
:1042B000F801ED56FD4F80818150808361E08F2DA4
:1042C0000E94632021E08881082E000C990BB60122
:1042D0000E949E2E8883E22AF3948CCF8E2DCDB738
:1042E000DEB7E8E00C94E52E84E0089550E0440F3A
:1042F000551F2AE0629F400D511D11249A016EE165
:10430000869F200D311D1124C901899608950F93B0
:104310001F93CF93DF938430A0F4633090F4453043
:1043200080F40E9476218C010E94432F90E0D82FC8
:10433000CC27C80101960E94432F9E01282BC9015A
:1043400002C080E090E0DF91CF911F910F9108951E
:104350000F931F93CF93DF93843080F4633070F416
:10436000453060F4E9010E9476218C016D2F0E9496
:10437000672F6C2FC80101960E94672FDF91CF91A4
:104380001F910F9108951F93CF93DF93D0E0C0E06A
:1043900010E0412F6C2F8D2F0E9435039C01412F7F
:1043A0006C2F8D2F0E94A8211F5F153091F7CF5FD2
:1043B000C33071F7DF5FD43051F7DF91CF911F9198
:1043C0000895EF92FF920F931F93CF93DF93EA012B
:1043D0007A01E60EF71E8C01C8018996CE15DF051D
:1043E00061F00837110520F40E94432F888301C033
:1043F000188221960F5F1F4FEFCFCDB7DEB7E6E0F3
:104400000C94E72EEF92FF920F931F93CF93DF93BD
:10441000EA017A01E60EF71E8C01C8018996CE15D5
:10442000DF0551F00837110518F468810E94672FE5
:1044300021960F5F1F4FF1CFCDB7DEB7E6E00C94AA
:10444000E72E843038F4633028F4453018F40E94A5
:104450008721089580E090E0089580E108958FE538
:1044600093E00895EF92FF920F931F93CF93DF9302
:10447000EA017A01E60EF71E8C01C8018F559F4FA5
:10448000CE15DF0569F00F3523E0120720F40E94F6
:10449000432F888301C0188221960F5F1F4FEDCFF5
:1044A000CDB7DEB7E6E00C94E72EEF92FF920F93C4
:1044B0001F93CF93DF93EA017A01E60EF71E8C017A
:1044C000C8018F559F4FCE15DF0559F00F3523E0FA
:1044D000120718F468810E94672F21960F5F1F4F03
:1044E000EFCFCDB7DEB7E6E00C94E72ECF93DF93A6
:1044F000C1EAD0E060E0CE010E94672F2196C1158D
:1045000084E0D807B9F7DF91CF910895A8E0B0E033
:10451000ECE8F2E20C94C52EF82E8FE08F1508F42B
:1045200074C08FEF93E00E94432F81116EC001EAA7
:1045300010E0FF2071F0011594E0190709F465C03F
:10454000C8010E94432F811101C0FA940F5F1F4FD1
:10455000F0CFFE0131966F0188E011928A95E9F75C
:104560007801FFEFEF1AFF0AC8010E94432F8983E9
:104570001A82882309F449C0813009F040C05801EB
:1045800082E0A80EB11CC7010E94432F8A838823B2
:10459000E1F19FEF980F933060F4780193E0E90E1A
:1045A000F11CC5010E94432F8B83882371F11C826B
:1045B00026C0843019F54E01E3E08E0E911C02E016
:1045C00010E07501FFEFEF1AFF0AC5010E94432FAB
:1045D000F40181934F018823C1F08C3741F4E2E06C
:1045E000F0E0EC0FFD1FE00FF11F108208C00F5F1D
:1045F0001F4F57010730110521F707C0750160E013
:10460000C6010E94F51F8701ABCF2896ECE00C9401
:10461000E12ECF93DF9386319C4741F5EB010E9459
:10462000DE0C982F8D8120910001309101018823AB
:1046300079F09A7A81E009F480E080939D029111EB
:1046400002C069E201C065E3C9010E944E250AC0AB
:1046500080919D02811102C069E201C065E3C90138
:104660000E945C250E942A0D80E001C081E0DF915C
:10467000CF9108950F931F93CF93DF93C42FD22F21
:10468000FC0185818823B1F04093A0020E94572647
:1046900090939F0280939E0280E28C0F883008F0F6
:1046A0004DC0C77081E001C0880FCA95EAF70E942B
:1046B000FE0544C08091A002481330C080919E0244
:1046C00090919F020E946F26883C910538F510E278
:1046D0001D0FCD17B9F080E28C0F883040F4C77001
:1046E00081E001C0880FCA95EAF70E9405061830DC
:1046F00010F581E09D2F977001C0880F9A95EAF719
:104700000E94FE05802F0E94F4051830B8F4D7707F
:1047100081E001C0880FDA95EAF70AC080E28C0FC9
:10472000883060F4C77081E001C0880FCA95EAF74D
:104730000E94050603C0802F0E94F405DF91CF91EF
:104740001F910F9108950F93FC01E851FC47E7304A
:10475000F10590F5CB01E455FF4F0C94B22E06E223
:1047600021EE41EE6AE17CE723C007E225EE45EE4B
:104770006BE17CE71DC006E221EE40EE68E17CE7DC
:1047800017C007E225EE44EE69E17CE711C006E2BE
:1047900021EE42EE6CE17CE70BC007E225EE46EE2F
:1047A0006DE17CE705C008E221E045EE6EE17CE7C3
:1047B0000E943A2380E008C0FB018581882319F01C
:1047C0001092A00201C081E00F9108951F93CF9332
:1047D000DF9387372CE7920721F088379C4759F001
:1047E00031C0FB01C581CC2319F00E94282409C0E7
:1047F0000E94282418C0FB01C581CC2391F00E949F
:104800002B240E94C4080E942E24D82F0E942B24FF
:10481000C82F0E9428244D2F6C2F0E94EE09C0E063
:1048200012C00E942B240E94D0080E942E24182F10
:104830000E942B24D82F0E942824412F6D2F0E94E4
:10484000EE0901C0C1E08C2FDF91CF911F91089537
:1048500080911101089580911001089580910F01B8
:1048600008959093A6028093A5020895E091A50271
:10487000F091A602309729F00190F081E02D099582
:10488000089580E008950E9436240895FC01A091C7
:10489000A502B091A602109791F08091260188237D
:1048A00041F08091CB0287FF04C08081818386E044
:1048B0008083CF011296ED91FC911397099508958D
:1048C000E091A502F091A602309739F022E0DC01D8
:1048D0002C930480F581E02D09950895A3E0B0E0C4
:1048E000E4E7F4E20C94CF2E2091A3023091A402CD
:1048F00028173907A1F09093A4028093A302E091B6
:10490000A502F091A602309751F023E029839B8302
:104910008A830680F781E02DCE01019609952396C2
:10492000E2E00C94EB2EA3E0B0E0E9E9F4E20C94B1
:10493000CF2E2091A1023091A20228173907A1F0B1
:104940009093A2028093A102E091A502F091A602A9
:10495000309751F024E029839B838A830680F78176
:10496000E02DCE01019609952396E2E00C94EB2E02
:10497000FC01329680912601882331F08091CB0290
:1049800087FF02C09EE101C096E080E0915028F0D0
:1049900021912223D9F38F5FF9CF0895662351F136
:1049A000209126012223E9F02091CB0227FF19C094
:1049B000462F4695469546954E31E0F4677021E0C6
:1049C00030E002C0220F331F6A95E2F7FC01E40FCA
:1049D000F11D828190E02823392381E0232B69F4A3
:1049E00009C0FC01329608962191621729F0E81758
:1049F000F907D1F780E0089581E008959C01FC015A
:104A000032969FEF80E04191461789F09F3F19F45D
:104A1000411101C0982F8F5F8630A9F79F3F39F071
:104A2000F901E90FF11D97FDFA9562830895089544
:104A30009C012A5F3F4FFC014281461301C0128254
:104A4000019682179307B9F70895262F2695269584
:104A500026952E3168F4FC01E20FF11D677021E00C
:104A600030E001C0220F6A95EAF78281282B228369
:104A70000895262F2695269526952E3170F4FC0153
:104A8000E20FF11D677021E030E001C0220F6A954E
:104A9000EAF7209582812823228308952091260118
:104AA000222339F02091CB0227FF03C00E94252545
:104AB00008950E94FE24089520912601222339F0B2
:104AC0002091CB0227FF03C00E94392508950E9440
:104AD0001825089520912601FC013296222331F0F9
:104AE0008091CB0287FF02C08EE101C086E0DF012A
:104AF0001D928A95E9F70895DC01FB0111969C91BE
:104B000011978181981321C012968C911297882356
:104B100019F09281891319C013968C9113978823E9
:104B200019F09381891311C015968C9115978823DC
:104B300019F09581891309C014969C91992339F035
:104B400081E02481291304C002C081E001C080E01B
:104B50008170089508950E94AA25089583E08093A6
:104B6000A7020E94AB250895811102C081E001C017
:104B700082E08093A7020E94AB2508950E94B4258D
:104B8000089581E08093A7020E94AB2508950E94BA
:104B9000C125089508950E94CA2508950E94CB2535
:104BA00008950E94CA2508950E94CA2508950E946A
:104BB000CA250895CF930E94D4250E9497120E947F
:104BC000D125C0E08C2F0E94D611811104C0CF5F87
:104BD000C330C1F701C081E0CF91089585B78068E7
:104BE00085BF85B7806885BF08951F920F920FB665
:104BF0000F9211248F939F93AF93BF938091A8023C
:104C0000811113C08091D1039091D203A091D3035D
:104C1000B091D4034196A11DB11D8093D10390930F
:104C2000D203A093D303B093D403BF91AF919F91CC
:104C30008F910F900FBE0F901F9018958091D90300
:104C4000843031F10E9437041092A80220E488E1F8
:104C500090E00FB6F894A895809360000FBE209363
:104C6000600083B7817F846083BF83B7816083BF27
:104C70007894889583B78E7F83BF0FB6F894A895F4
:104C800080916000886180936000109260000FBE88
:104C900008950E944C080E943C04089582E084BD5F
:104CA00093E095BD9AEF97BD80936E0008952FB75E
:104CB000F8948091D1039091D203A091D303B09145
:104CC000D4032FBF08952FB7F8946091D10370914A
:104CD000D2038091D3039091D4032FBF08959C01F8
:104CE0004FB7F8948091D1039091D203A091D30350
:104CF000B091D4034FBF821B930B089578941F92F9
:104D00000F920FB60F9211248F939F93AF93BF937F
:104D10008091D1039091D203A091D303B091D40399
:104D20000196A11DB11D8093D1039093D203A0934E
:104D3000D303B093D403BF91AF919F918F910F9004
:104D40000FBE0F901F90189581E08093E00080E2E5
:104D50008093D8001092C9008FE19EE40197F1F78B
:104D600000C0000087E090EBDC018093E2039093A9
:104D7000E303A093E403B093E5039CE088E10FB65E
:104D8000F894A895809360000FBE90936000FFCFC9
:104D90009CE088E10FB6F894A895809360000FBE60
:104DA00090936000FFCF8091C90208959B0190917C
:104DB000D9039430F1F48F708093E9008FEF9091D4
:104DC000E800815095FD06C095ED9A95F1F7000039
:104DD0008111F5CF8091E80085FF0BC0BA01C901B0
:104DE00040E050E00E9443298091E8008E77809354
:104DF000E800089543E050E0BC0184E00E94D6261C
:104E0000089546E050E0BC0184E00E94D626089553
:104E1000CF93DF93EC0180912601811105C048E01A
:104E200050E0BE0181E00BC08091CB0287FF03C040
:104E300040E284E002C048E081E050E0BE010E9410
:104E4000D62680E2FE01A9EAB2E001900D928A9591
:104E5000E1F7DF91CF910895603231F4BC0140E277
:104E600050E082E00E94D62608958091D8038111F7
:104E700009C00E94132B0E94702B8091E200846075
:104E80008093E20008951092D80308950E94C725E8
:104E900008956091D50381E0611101C080E00E9416
:104EA000AE2508959091D90381E0943009F080E017
:104EB0006091D5030E94B425089542E061EC81E041
:104EC0000E948C2A42E261EC84E00E948C2A42E239
:104ED00061EC82E00E948C2A42E260EC83E00E9456
:104EE0008C2A42E361E885E00E948C2A42E360E874
:104EF00086E00E948C2A9091D90381E0943009F0D9
:104F000080E06091D5030E94BE2508958091DB0367
:104F1000833009F463C030F4813071F0823009F4D9
:104F20009DC008958A3009F489C08B3009F46EC0A1
:104F3000893009F0ABC020C08091DA03813A09F0D2
:104F4000A5C08091E800877F8093E8008091DE0310
:104F50009091DF03892B21F460E289EA92E003C09B
:104F600060E080E090E070E00E94CD298091E80050
:104F70008B778093E80008958091DA03813209F0FD
:104F800085C08091DE039091DF03009719F00297AE
:104F900009F07CC08091E800877F8093E8008091D1
:104FA000E80082FD05C08091D9038111F8CF6EC061
:104FB0002091F3008091F20090E0922B029731F45F
:104FC0008091F100813011F0863021F48091F10060
:104FD0008093C9028091E8008B7754C08091DA03F6
:104FE000813A09F053C08091DE039091DF03892B51
:104FF00009F04CC08091E800877F8093E8008091A1
:10500000E80080FFFCCF8091260137C08091DA0351
:105010008132E1F58091DE039091DF03892BB1F5B8
:105020008091E800877F8093E8000E94C12A8091E8
:10503000DC03809326010E944C0808958091DA03D6
:10504000813221F58091E800877F8093E8000E94FB
:10505000C12A8091DD038093CA0208958091DA030A
:10506000813AA1F48091E800877F8093E8008091E5
:10507000E80080FFFCCF8091CA028093F10080910C
:10508000E8008E778093E8000E94C12A0895BC0151
:1050900082E191E00E94162E0895BC0182E191E028
:1050A0000E94652E08950E94DD1584B7877F84BF16
:1050B0000FB6F894A8958091600088618093600095
:1050C000109260000FBE90E080E80FB6F8948093D5
:1050D0006100909361000FBE0E94C12508950E9457
:1050E000132B0E94702BE2EEF0E0808184608083BD
:1050F00078940E94FB2D08958EE191E00E94312466
:1051000008958091D9038530A9F48091D903853021
:1051100079F40E941E268091D7038823B1F30E9460
:10512000DA25882391F30E942D290E944C08EDCFA7
:105130000E9449260895A0E2B0E0E1EAF8E20C946A
:10514000CF2E82E191E00E94562E8091D9038430C7
:1051500011F583E08093E9008091E80082FF1BC095
:105160008091E80085FF0AC040E050E060E270E016
:10517000CE0101960E94882991E001C090E08091C3
:10518000E8008B778093E800992329F060E2CE0154
:1051900001960E94DF1DA096E2E00C94EB2E9A018E
:1051A0004091E0035091E1030E94D7280895492FD0
:1051B000552743305105C9F060F44130510581F065
:1051C0004230510509F041C08FEB90E04AEC53E0CA
:1051D00040C041325105E1F04232510531F135C054
:1051E00082E190E049E854E034C09927813091058C
:1051F00049F028F0029749F5E2EAF3E005C0E6EC51
:10520000F3E002C0EEEAF3E0849190E0AF0121C048
:1052100063307105D0F4660F771FFB01EF52FE4F2C
:105220004081518189E090E014C06330710568F4D9
:10523000FB01EE0FFF1FE553FE4F40815181FB0143
:10524000E853FE4F808190E004C080E090E040E0B1
:1052500050E0F90151834083089580E189BD82E1E6
:1052600089BD09B400FEFDCF8091D8008F7D809369
:10527000D8008091E00082608093E0008091E0009F
:1052800081FDFCCF0895A0E0B0E0E9E4F9E20C94E0
:10529000C92EEC018B017A010E94E02A811133C0F2
:1052A000E114F10439F0F70180819181081B190B99
:1052B000C80FD91FC12CD12C0115110519F18091EE
:1052C000E80085FD16C08091E8008E778093E800A5
:1052D000E114F10449F0F70180819181C80ED91ED3
:1052E000D182C08285E00FC00E94E02A882321F38A
:1052F0000AC089918093F10001501109FFEFCF1A84
:10530000DF0ADACF80E0CDB7DEB7E8E00C94E52E17
:10531000A0E0B0E0EEE8F9E20C94C92EEC018B01BC
:105320007A010E94E02A811133C0E114F10439F0BE
:10533000F70180819181081B190BC80FD91FC12C5F
:10534000D12C0115110519F18091E80085FD16C0D9
:105350008091E8008B778093E800E114F10449F034
:10536000F70180819181C80ED91ED182C08285E06B
:105370000FC00E94E02A882321F30AC08091F10027
:10538000899301501109FFEFCF1ADF0ADACF80E0CD
:10539000CDB7DEB7E8E00C94E52E2091E003309124
:1053A000E1032617370748F06115710539F420919C
:1053B000E8002E772093E80001C0B901FC0120E04D
:1053C0006115710579F18091D9038823F1F1853058
:1053D000F1F18091E80083FD3CC08091E80082FDFE
:1053E0002EC08091E80080FFEBCF2091F3008091E8
:1053F000F20090E0922B6115710551F08830910513
:1054000038F421912093F100615071090196F3CF96
:1054100021E0089709F020E08091E8008E778093E2
:10542000E800CECF2111CFCF0AC08091D9038823C5
:1054300061F0853061F08091E80083FD0AC08091C1
:10544000E80082FFF2CF80E0089582E0089583E0D3
:10545000089581E008952091E0033091E10326173B
:10546000370748F06115710539F42091E8002E776F
:105470002093E80001C0B901FC0120E0611571052D
:1054800091F18091D903882309F440C0853009F453
:105490003FC08091E80083FD3DC08091E80082FD1F
:1054A0002FC08091E80080FFE9CF2091F300809128
:1054B000F20090E0922B6115710559F0883091054A
:1054C00040F424912093F1003196615071090196C6
:1054D000F2CF21E0089709F020E08091E8008E7774
:1054E0008093E800CBCF2111CCCF0AC08091D903A3
:1054F000882361F0853061F08091E80083FD0AC067
:105500008091E80082FFF2CF80E0089582E0089564
:1055100083E0089581E00895982F973068F590937F
:10552000E900981739F07091EC002091ED0050914E
:10553000F00003C0242F762F50E021FD02C09F5FB2
:10554000ECCF3091EB003E7F3093EB003091ED00DB
:105550003D7F3093ED003091EB0031603093EB00F4
:105560007093EC002093ED005093F0002091EE003A
:1055700027FDE5CF80E008958F708093E90081E0FA
:1055800008958091DA0387FF11C08091E80082FDC1
:1055900005C08091D9038111F8CF11C08091E80036
:1055A0008B770BC08091D903882349F08091E80064
:1055B00080FFF8CF8091E8008E778093E80008950F
:1055C0002091E4003091E50095E64091EC00842FB5
:1055D000817040FF23C08091E80080FD1DC0809154
:1055E000D903882399F0853099F08091EB0085FDEF
:1055F00011C04091E4005091E5002417350729F3CC
:10560000915011F09A01E1CF84E0089582E008956D
:1056100083E0089581E0089580E008954091E800D6
:1056200042FFDDCF08950E94822B0E948A2BE0EE7C
:10563000F0E0808181608083E8EDF0E080818F7709
:10564000808319BCA7EDB0E08C918E7F8C93808114
:105650008F7E80831092D80308950F931F93CF936A
:10566000DF930E94822B0E948A2BC8EDD0E08881B4
:105670008F77888388818068888388818F7D8883FD
:1056800019BC1092D9031092D5031092D70310922F
:10569000D60300EE10E0F80180818B7F8083888143
:1056A0008160888342E060E080E00E948C2AE1EE25
:1056B000F0E080818E7F8083E2EEF0E08081816087
:1056C0008083808188608083F80180818E7F8083E1
:1056D000888180618883DF91CF911F910F91089518
:1056E000E8EDF0E080818F7E8083E7EDF0E080815F
:1056F0008160808384E082BF81E08093D8030E9430
:105700002D2B0895E8EDF0E080818E7F808310924C
:10571000E20008951092DA001092E10008951F92BD
:105720000F920FB60F9211242F933F934F935F93D5
:105730006F937F938F939F93AF93BF93EF93FF9359
:105740008091E10082FF0BC08091E20082FF07C0E0
:105750008091E1008B7F8093E1000E94FA2D80917F
:10576000DA0080FF1FC08091D80080FF1BC08091AD
:10577000DA008E7F8093DA008091D90080FF0DC01F
:1057800080E189BD82E189BD09B400FEFDCF81E0E1
:105790008093D9030E94352705C019BC1092D90304
:1057A0000E9443278091E10080FF19C08091E200B0
:1057B00080FF15C08091E2008E7F8093E20080918F
:1057C000E20080618093E2008091D8008062809343
:1057D000D80019BC85E08093D9030E9449278091A5
:1057E000E10084FF30C08091E20084FF2CC080E1A2
:1057F00089BD82E189BD09B400FEFDCF8091D8004A
:105800008F7D8093D8008091E1008F7E8093E100AE
:105810008091E2008F7E8093E2008091E2008160BF
:105820008093E2008091D503882311F084E007C0C3
:105830008091E30087FD02C081E001C083E0809396
:10584000D9030E9452278091E10083FF29C08091F3
:10585000E20083FF25C08091E100877F8093E10013
:1058600082E08093D9031092D5038091E1008E7F6E
:105870008093E1008091E2008E7F8093E20080912E
:10588000E20080618093E20042E060E080E00E94FC
:105890008C2A8091F00088608093F0000E94462757
:1058A000FF91EF91BF91AF919F918F917F916F91F8
:1058B0005F914F913F912F910F900FBE0F901F90CE
:1058C00018951F920F920FB60F9211242F933F93AA
:1058D0004F935F936F937F938F939F93AF93BF93F8
:1058E000CF93DF93EF93FF93C091E900CF70809146
:1058F000EC00D82FD17080FDD0E81092E9008091A3
:10590000F000877F8093F00078940E94A52C10927D
:10591000E9008091F00088608093F000CD2BCF707B
:10592000C093E900FF91EF91DF91CF91BF91AF91CB
:105930009F918F917F916F915F914F913F912F91A7
:105940000F900FBE0F901F901895AAE2B0E0EBEAFF
:10595000FCE20C94CE2EEAEDF3E08091F10081930D
:1059600023E0E23EF207C9F70E9486278091E80013
:1059700083FF2EC18091DA039091DB03492F50E021
:105980004A30510508F024C1FA01ED54FF4F0C9440
:10599000B22E803821F0823809F01AC108C08091F7
:1059A000D6039091D703992389F082600FC080912C
:1059B000DE038F70873008F00BC18093E90080917F
:1059C000EB0085FB882780F91092E9009091E800B0
:1059D000977F9093E8008093F1001092F100D1C07E
:1059E000282F2D7F09F0F4C0882319F0823061F050
:1059F000EFC08091DC03813009F0EAC0933009F0F8
:105A000080E08093D7032EC08091DC0381112AC0EF
:105A10008091DE038F702FEF280F263008F0D8C05A
:105A20008093E9002091EB0020FF1CC0933021F40B
:105A30008091EB00806214C09091EB009061909394
:105A4000EB0021E030E0A90102C0440F551F8A9508
:105A5000E2F74093EA001092EA008091EB00886040
:105A60008093EB001092E9008091E800877F80939B
:105A7000E8000E94C12AACC08111AAC01091DC03C9
:105A80001F778091E3008078812B8093E3008091E1
:105A9000E800877F8093E8000E94C12A8091E80097
:105AA00080FFFCCF8091E30080688093E3001111B8
:105AB00002C082E001C083E08093D90389C080588E
:105AC000823008F085C08091DC039091DD038C3D2D
:105AD00053E0950779F583E08A838AE289834FB79B
