:1000000067C200009DC200009BC2000099C20000B0
:1000100097C2000095C2000093C2000091C2000088
:100020008FC200008DC200008BC200000C94B52569
:100030000C9460260C94B52083C200000C942E13FF
:100040007FC200007DC200000C9415140C942E2178
:1000500077C2000075C2000073C2000071C20000C8
:100060006FC200006DC200006BC2000069C20000D8
:1000700067C20000140008001700180012002A00D0
:100080002B001A0015001C000C00130004000700D0
:100090000A000D000F0034002900160009000B00B3
:1000A0000E0033001D000600050010003700280078
:1000B000E1001B001900110036003800E000E300E9
:1000C0002C00225251004F000278E20021522C00F5
:1000D000500052001E0020002200240026002A00AA
:1000E00035001F0021002300250027003A003C00B6
:1000F0003E002D002F0031004C003B003D003F0032
:100100002E00300040004200440032004B0001004D
:10011000010041004300450064004E000100010061
:1001200001000100AA00AE00010001000100010071
:10013000AB00A9001E0220022202240226022A008D
:1001400035021F0221022302250227023A003C0049
:100150003E002D022F0231024C003B003D003F00CB
:100160002E02300240004200440032024A000100E8
:10017000010041004300450064024D000100010000
:1001800001000100AA00AE00010001000100010011
:10019000AB00A90001000100010001000100010005
:1001A0000100010001000100010001000100010047
:1001B0000100010001000100010001000100010037
:1001C0000100010001000100010001000100010027
:1001D0000100010001000100010001000100010017
:1001E0000100010001000100010001000100010007
:1001F00001000100000000000000000000000001FC
:10020000010203040506080A0C0F1114181C20240F
:10021000292E33393F464C535B626A7179818A9249
:100220009AA2AAB2B9C1C8CFD5DCE1E7EBF0F4F7E6
:10023000FAFCFDFEFFFEFDFCFAF7F4F0EBE7E1DC73
:10024000D5CFC8C1B9B2AAA29A928A8179716A62DD
:100250005B534C463F39332E2924201C1814110FB0
:100260000C0A08060504030201010000000000005A
:100270000000000000000000000000002A2B280001
:100280000000000000000000000000000000002945
:10029000000000002C1E3420212224342627252E85
:1002A000362D3738271E1F202122232425263333BD
:1002B000362E37381F0405060708090A0B0C0D0EE9
:1002C0000F101112131415161718191A1B1C1D2FB5
:1002D0003130232D350405060708090A0B0C0D0ED5
:1002E0000F101112131415161718191A1B1C1D2F95
:1002F0003130354C0000000000000000000000001C
:1003000000000000000000000000000000000000ED
:1003100000000000000000007E0F00D4FFFFFFC7B8
:10032000000000780E03450066007200650065005D
:10033000740000000C0353006F00720061006E0037
:1003400000000403090409025B00030100A0FA098C
:1003500004000001030101000921110100012244F0
:1003600000070581030800010904010002030000E1
:10037000000921110100012222000705820320004B
:100380000107050303200001090402000103000026
:100390000009211101000122B60007058403200095
:1003A0000112010002000000084F5301000100018A
:1003B0000200010660FF0961A1010962150026FF24
:1003C000009520750881020963150026FF0095201D
:1003D00075089102C005010902A10185020901A168
:1003E00000050919012908150025019508750181E5
:1003F000020501093009311581257F9502750881B3
:100400000609381581257F950175088106050C0AB6
:1004100038021581257F950175088106C0C0050148
:100420000980A101850319012AB700150126B7002B
:10043000950175108100C0050C0901A10185041901
:10044000012AA002150126A002950175108100C0A5
:1004500005010906A1018506050719E029E7150030
:1004600025019508750181020507190029EF15007E
:10047000250195F0750181020508190129059505E9
:1004800075019102950175039101C005010906A14D
:1004900001050719E029E715002501950875018177
:1004A000029501750881010507190029FF1500262D
:1004B000FF0095067508810005081901290515003A
:1004C0002501950575019102950175039101C00003
:1004D00011241FBECFEFD4E0DEBFCDBF04B603FEB4
:1004E00018C08091C0029091C102A091C202B09147
:1004F000C3028730904BA740B04B59F41092C00212
:100500001092C1021092C2021092C302E0E0F8E31E
:10051000099511E0A0E0B1E0ECE3F2E502C005903E
:100520000D92A03BB107D9F722E0A0EBB1E001C0EA
:100530001D92A03CB207E1F70E947B110C941C298C
:100540005FCD282F8430E0F46830D0F44630C0F41A
:10055000862F90E066E070E00E940528FC01E40F21
:10056000F11D822F90E060E370E00E940528E80F03
:10057000F91FEE0FFF1FEC58FF4F859194910895DE
:1005800081E090E0089581E00895FDCF0895FBCFCC
:100590000895F9CF0895F7CF0895FDCF08950895F0
:1005A0000895FDCF089508950895A6E0B0E0EBED1D
:1005B000F2E00C94942849835A839E833091B701CA
:1005C00089819A81311117C03E81332389F022231A
:1005D00079F063D5182F682F89819A8138D5698180
:1005E0007A81812F0E94A40E2696E3E00C94B02815
:1005F00042D5182FF4CF51D569817A81F3CFFC0110
:10060000262F408151816281738184819581CDCF74
:10061000CF93DF93EC0161E0F2DFBE01B6DF882308
:1006200049F061E0CE01EBDFBE01B1DF8170DF9107
:10063000CF91089580E0FACF0F931F93CF93DF936C
:10064000EC0160E0DCDF8C01BE01AADFBE01C80165
:10065000A8DFDF91CF911F910F9108950F931F9302
:10066000CF93DF93EC0161E0CADF8C01BE0191DF23
:10067000811106C080E0DF91CF911F910F91089505
:10068000BE01C8018ADF8823A9F3BE01C8010E9408
:10069000F41C882379F3BE01C8010E9488128823C4
:1006A00049F3BE01C8010E94191C882319F3BE0139
:1006B000C8010E9429178823E9F2BE01C8010E94DF
:1006C000FF168823B9F2BE01C8010E94631C88236B
:1006D00089F2BE01C8010E94A50F882359F2BE010C
:1006E000C8010E94B70F882329F2BE01C8010E94E9
:1006F000D00FC1CF91E001C0990F8A95EAF7892FF9
:10070000FEC3CF93C82F81E00C2E01C0880F0A943E
:10071000EAF70E94B00C8C2FEDDFCF91089581E0B5
:100720000895FDCF0895FBCF0895CF93C82FA2D38E
:100730008C2FF7DF8C2FF7DF2FEF84E39CE0215025
:1007400080409040E1F700C00000CF91089581E023
:10075000ECDF0C94542180E0E8DF0C94782123DF57
:100760000E94932080E00E946C1219C00E94C81160
:1007700018D01ADF0C94972081E008950895CF9344
:10078000DF93D82FF9DFC82F882311F08D2FF6DFE4
:100790008C2FDF91CF9108950895F1CF089580E0D7
:1007A000FCCF0E94781EF9CFCF930E94781EC82FED
:1007B0008091B2018C1771F0C093B2010E94222186
:1007C0006093B3017093B4018093B5019093B60127
:1007D0008C2FE3DFCF910895ADE0B0E0E2EFF3E0DE
:1007E0000C949528488759876A877B878C879D87D3
:1007F00091119BD71F8286E0FE013896DE0111968B
:1008000001900D928A95E1F78D8181110CC02981AB
:100810003A814B815C816D817E818F81CFD62D960F
:10082000E2E00C94B128CE010196F2DE8111EFCF07
:10083000F6CFFC012481213019F48081918159C4C3
:100840000895662321F00E94B4180C9482190E9426
:100850000619FBCFCF938823C1F0C82F8238B9F493
:100860000E94871E81FD11C089E30E94C01FE8D746
:100870002FEF87EE93E0215080409040E1F700C0D9
:10088000000089E30E94D71FDBD7CF9108958338FA
:1008900099F40E94871E80FDF8CF83E50E94C01F57
:1008A000CFD72FEF81EE94E0215080409040E1F7C8
:1008B00000C0000083E5E6CF843899F40E94871ECB
:1008C00082FDE3CF87E40E94C01FBAD72FEF81EEED
:1008D00094E0215080409040E1F700C0000087E4A0
:1008E000D1CF8CEF8C0F813A68F48C2F0E94361F89
:1008F000882321F08C2F0E94D71FA2D78C2F0E9413
:10090000C01FC2CF80E28C0F883040F4C77081E0F6
:1009100001C0880FCA95EAF7E9D6B6CFEBE5EC0F30
:10092000E33040F4F0E0E95AFE4F808190E00E940D
:10093000BA1EABCFE8E5EC0FEB3150F4F0E0EE0F70
:10094000FF1FEF5DFE4F808191810E94E11E9DCFD0
:1009500083E38C0F833108F098CF61E08C2F71DF37
:1009600094CF882309F44DC0823861F40E94871E19
:1009700081FF47C089E30E94C01F62D789E30E94BC
:10098000D71F5EC7833851F40E94871E80FF39C08D
:1009900083E50E94C01F54D783E5F1CF843851F41A
:1009A0000E94871E82FF2DC087E40E94C01F48D787
:1009B00087E4E5CF9CEF980F913A08F390E2980F07
:1009C000983048F4877091E001C0990F8A95EAF752
:1009D000892F92D6D6CF9BE5980F933020F490E0E4
:1009E00080E00C94BA1E98E5980F9B3120F490E0BB
:1009F00080E00C94E11E93E3980F933110F460E0D3
:100A000020CF08951F93CF93DF93182FEB0122DFA0
:100A1000209731F4812FA5DFDF91CF911F910895A9
:100A20008FE99FE00197F1F700C000002197F0CF18
:100A300070E060E0893311F460E570E0E3CF882373
:100A400011F054D6FDC60895882311F055D6F8C686
:100A50000895B0E0A0E0EFE2F5E00C948F286C017F
:100A6000D62FC72FFC011581068102950F7034D651
:100A7000E82E8823E9F0E12E1123D1F08C2F807F1E
:100A8000803461F080E28D0F883060F18C2F807EA1
:100A9000803221F4D23030F1002321F180919D0287
:100AA00082FF20C082E0F0D617D691E0E82EE9263A
:100AB000FC2EF2949FE0F922FBE0FF1508F43CC005
:100AC000EF2DF0E0EA59FA4F0C947828740574057C
:100AD000AB05AB05040625069C059C0529068C067E
:100AE00099069906E12CE4CF0C2F0F70C07F11F00E
:100AF0000295007F112381F0002349F080E28D0FE1
:100B0000883010F0D11105C0802FF0D599D68D2FE7
:100B100041C0802FFCD5FACF8D2F23DF002361F059
:100B200080E28D0F883010F0D11103C0802FE4D502
:100B300002C0802FF2D584D6EE2009F4B3C0C8D508
:100B400080FDB0C0F6011582BDD5FBD1C60163D1D1
:100B5000B9D501D2A7C02C2F2F70F22EC07FC03282
:100B600019F0F29480EFF822DD2341F0D13081F1C9
:100B7000112309F439C00023C9F0C9CF80919D0227
:100B800082FD10C0112341F0FF2019F08F2DAED54A
:100B900057D680E05FDED0CF80E0E3DEFF2061F259
:100BA0008F2DC5CF112359F0011103C08F2D47DFC1
:100BB000C3CF013009F0C0CF8F2DCBD5BDCF0111F0
:100BC000BBCF8F2D41DF8F2DCFD58F2DB4D5B4CF97
:100BD000112321F0063008F0AFCFE8CF053008F040
:100BE000ABCF8F2D31DFA8CF0023D9F3D93349F410
:100BF0008FEF97EEE3E081509040E040E1F700C0D6
:100C000000008D2FAEDE98CF8C2F86958695837051
:100C100041F0813081F088EF8F0D843008F08CCF67
:100C20003EC08D2F9C2F9370111102C080E090E088
:100C30000E94BA1E81CF8D2F9C2F9370111102C07C
:100C400080E090E00E94E11E77CF612F8D2FF9DDCB
:100C500073CF8C2F837089F5111121C04D2F4295D0
:100C600046954770440F440F8D2F8F70042E01C09E
:100C7000880F0A94EAF720E0D4FF07C02FE030E0A5
:100C800001C0220F4A95EAF72095822BC695C6959A
:100C9000C370C23071F078F4C13049F036D10E948F
:100CA000781E7BDDCDB7DEB7E8E00C94AB2829D108
:100CB000F6CF2FD1F4CF23D1F2CF8695112311F0A7
:100CC0008C2F8170882359F34D2F4295469547709C
:100CD000440F440F8D2F8F70042E01C0880F0A948B
:100CE000EAF720E0D4FF07C02FE030E001C0220F78
:100CF0004A95EAF72095822BC695C695C370C230F7
:100D000039F040F4C13011F03FD1C9CF39D1C7CF4C
:100D10003FD1C5CF08D1C3CFCF70112329F08C2F7D
:100D200010D18D2F8CDEBBCF8D2F8EDE8C2F13D16B
:100D3000B6CFD23F49F168F4D03FC9F0D13F89F036
:100D4000112309F441C0002309F43BC08D2F82DD3B
:100D500062CFD33FF9F0D43F99F780919D0282FD95
:100D600021C08C2F8F71112399F0EBD054CF112318
:100D700039F0053008F04FCF8C2F8F71F7D04BCF63
:100D8000063008F048CFF8CF8C2F8F71112369F30C
:100D9000E2D041CF112321F08C2F8F71CBD03BCFEC
:100DA000C7D039CF112329F063E08C2F8F7155D52F
:100DB00032CF81E069D5023008F42DCF82E064D5CE
:100DC0002ACF8C2F8F71D1CF002371F0D93349F402
:100DD000FFEF27EE83E0F15020408040E1F700C0B4
:100DE00000008D2FBEDD17CF8C2F8F71D1CF0F93C9
:100DF0001F93CF93DF93EC01688179818D8182D13C
:100E00008C01CAD07BD0B801CE0123DEDF91CF9117
:100E10001F910F910895CF93DF93FC01248122232A
:100E200081F0EC011BDC81110FC056D4882349F0FE
:100E30008D81882331F080919D0282FF02C082E083
:100E400023D5DF91CF910895CE01D1DFCE01F4DB20
:100E5000F8CF90E080E00E94BA1E90E080E00E940F
:100E6000E11E63D4EDD40E949E190C9482190E9455
:100E7000EE1FEFCF49D4FBCF92959F70963089F04B
:100E800050F49250923058F4803F19F030F4883E7C
:100E900030F481E008959A50F5CF843FD1F380E09B
:100EA0000895883EB0F3813FD1F7F3CFFC01248150
:100EB000222321F0808191811CD1DECF80E0089532
:100EC000A6E0B0E0E6E6F7E00C9495282696E2E08E
:100ED0000C94B128A7E0B0E0E0E7F7E00C94952887
:100EE0002796E2E00C94B1280895FECF0895FDCF37
:100EF0000895FADFFCDF8093CB0108950895F9CFC0
:100F000008959091CB01892BF4CF9091CB01892347
:100F1000F0CF9091CB018927ECCFE6CF0895FDCF9C
:100F20000895E2CF0895FDDFFADF8093CA010895A6
:100F300080E0F9CF91E001C0990F8A95EAF7892FF7
:100F4000F2CF21E030E001C0220F8A95EAF78091CC
:100F5000CA01822BE8CF21E030E001C0220F8A9540
:100F6000EAF720958091CA018223DDCF21E030E0AD
:100F700001C0220F8A95EAF78091CA018227D3CF58
:100F80009091CA01892BCFCF9091CA018923CBCFF1
:100F90009091CA018927C7CF0895CF93DF93282F57
:100FA000FA01862F8770A1E001C0AA0F8A95EAF79F
:100FB000CB0133E0969587953A95E1F763E070E0D1
:100FC0000E940528E80FF91F50E040E0822F90E0D2
:100FD0006191EF0121979C01042E02C0369527955F
:100FE0000A94E2F72170219526272A2326272883B1
:100FF0004F5F5F4F4330510559F7DF91CF9108950F
:10100000FB01A82FA77023E0969587952A95E1F715
:1010100063E070E00E940528E80FF91F50E040E00F
:1010200080E0219130E00A2E02C0369527950A947F
:10103000E2F721703327042E01C0220F0A94EAF749
:10104000822B4F5F5F4F4330510559F70895983019
:1010500088F4863078F4362F282F892F90E066E0C8
:1010600070E00E940528BC01620F711D48EB51E041
:10107000832F93CF0895983070F4863060F4282F32
:10108000892F90E066E070E00E94052868EB71E02F
:10109000820F911DB5CF80E00895CF92DF92FF922D
:1010A0000F931F93CF93DF936C010091CA0180913E
:1010B000CB01082BC3E0D0E010E0FC2EC8010C2EC1
:1010C00002C0959587950A94E2F780FD0CC02197A0
:1010D000A0F7F12C8F2DDF91CF911F910F91FF90F1
:1010E000DF90CF900895B6018C2F38D6019779F311
:1010F000F1CFCF93DF93EC01D0DFBE012FD6DF918C
:10110000CF9108951F93CF93DF93EB019091B70197
:10111000992331F0CB01EDDFDF91CF911F9108953D
:10112000882351F0CB01B9DF182F682FCE018FDF54
:10113000BE01812F13D6F0CFCB019DDF182FF8CF42
:10114000E1E0F0E0DF0102C0AA0FBB1F6A95E2F701
:10115000BD01DF0102C0AA0FBB1F4A95E2F76A2B4F
:1011600001C0EE0F2A95EAF7962F9823961302C036
:101170008E2B0895E0958E230895242F462F682FF7
:101180008091CA01DDDFCFCECF93DF93C091CC0138
:101190008091CD018C1303C0DF91CF910895D0E0F1
:1011A000CE0167E070E00E940528FC01E253FE4F8B
:1011B00020813181428153816481758186818ADEFB
:1011C0002196C770E5CF2091060230910702409129
:1011D00008025091090260910A0270910B028091FD
:1011E0000C0278CECF93DF9380910C02807F09F0C0
:1011F0004DC080910B02882309F448C02091CC0196
:101200004091CD01A0910702B0910602C091080261
:10121000D09109024217D1F130E0C90167E070E0D6
:101220000E94052882539E4FFC018481882389F106
:10123000C90167E070E00E940528FC01E253FE4FFF
:1012400081818A1326C080818B1323C085818111FF
:1012500020C0828193818C1B9D0B883C9105C8F432
:1012600080910C028F70806180930C02C90167E04D
:1012700070E00E940528FC01EC52FE4F90819F70A7
:101280009061908386E092E0C6DD7EDFDF91CF91B2
:1012900008952F5F3F4F2770BDCFA82FB62F209105
:1012A000CC014091CD01241302C080E0089530E0CC
:1012B000C90167E070E00E940528FC01E253FE4F7F
:1012C0008181B81306C08081A81303C08581811174
:1012D000EDCF2F5F3F4F2770E6CFA4E1B0E0E3E70B
:1012E000F9E00C948B288C0186E0F801DE011F9652
:1012F00001900D928A95E1F7F8018481E58096E0EE
:10130000A92E92E0B92E90910A0291111AC0882359
:10131000A9F0EE2089F0C801C9DDF82E882361F01C
:1013200087E0F801D50101900D928A95E1F7C5019A
:1013300080DA58DF48DF59C0C8016DDDFF24F3941F
:1013400054C0C080D18082809380F0900B022091A5
:10135000080230910902A401421B530BFF2009F43B
:10136000E8C0483C510508F09BC0882309F43DC003
:101370009091070280910C02282F207F09F055C020
:10138000D91214C090910602C91210C0E11047C0D2
:101390008F70806180930C0216DF86E092E03BDD67
:1013A00080910C02F8018683F12C1FC0E11037C038
:1013B0006D2D8C2D72DF6D2D8C2D6FDFE82E811140
:1013C000F3CFCF86D88A8F85988993DE292F2295EF
:1013D0002F70243078F49F70223098F09923A9F070
:1013E000F8019681907F89F4FE2C8F2D6496ECE0B5
:1013F0000C94A7282A50223060F0C8010CDDEF2C95
:10140000F3CF992311F0882379F3805E8830A8F711
:10141000EBCF803F48F3815F833078F7E5CF809151
:101420000C02816080930C02BFCFD91212C0909140
:101430000602C9120EC0E1100CC08683C801EBDCA5
:1014400087E0F801A6E0B2E001900D928A95E1F7FD
:1014500071CFC8012BDD882309F46ECFEE2009F48B
:101460006BCF80910C02803280F020910602309187
:101470000702398728879B868A8690910A029C8773
:101480001D868E87CE010896C6DC87E0F801A6E0AF
:10149000B2E001900D928A95E1F7A4DE94DE4ECF82
:1014A00090910C02292F207F89F4682D9A8A898ACD
:1014B000A6017A899E2D04DD86E092E0ACDC87E00F
:1014C000F50111928A95E9F77EDE6ECF882309F443
:1014D0008CCF809107028D110FC080910602C81237
:1014E0000BC0E11009C09683C80195DC87E0F501C7
:1014F00011928A95E9F779CFC801D8DC882309F4DD
:101500001BCFEE2009F418CF80910C02803208F432
:10151000BCCF20910602309107023A8329839C8236
:101520008B8290910A029D831E828F83CE01019649
:10153000ABCF483C5105A8F5882309F4FFCEFE2C1B
:10154000EE2009F4F9CE809107028D111EC0809122
:101550000602C8121AC080910C0280FD0DC0982F9F
:10156000907F51F08683903F09F468CF982F907F49
:10157000905F8F70892B61CF87E0F801A6E0B2E021
:1015800001900D928A95E1F730CFC8018FDC81116F
:101590007CCF80910C02816080930C02C8013BDCFF
:1015A00024CF682D9A8A898AA6017A899E2D88DCA3
:1015B00087E0F50111928A95E9F7BCCEAEE0B0E084
:1015C000E4EEFAE00C949528288739874A875B87F0
:1015D0006C877D878E87CE0108967FDE8823B9F1E0
:1015E0006C85662339F0288539854A855B857D853C
:1015F0008E8570DC8091CC019091CD01891709F422
:101600005DC090E067E070E00E94052882539E4F25
:1016100064DE882309F452C08091CC0190E067E039
:1016200070E00E940528FC01E253FE4F20813181C9
:10163000428153816481758186814CDC8091CC012B
:1016400090E00196877099278093CC01D3CF87E0F3
:10165000FE013896DE01119601900D928A95E1F710
:101660008C85882339F28091CD0190E09C012F5F19
:101670003F4F277033274091CC014217130691F05A
:1016800067E070E00E940528DC01A253BE4F97E09E
:10169000FE01319601900D929A95E1F72093CD01CC
:1016A00073DDA8CFE7DB1092CD011092CC0187E06B
:1016B000E6E0F2E0DF011D928A95E9F72E96E2E07E
:1016C0000C94B1288091350286958695869508956B
:1016D000809135028770089590913502977081E06E
:1016E00009F480E00895809161020895909161026B
:1016F000892B809361020895982F909580916102C3
:101700008923809361020895109261020895909157
:101710006002892B809360020895982F90958091A4
:1017200060028923809360020895109260020895F8
:101730000895FECF089590913602292F282329F08D
:101740008095892380933602F4CF08950895FECFC3
:10175000089590913702292F2823281721F0982BDC
:1017600090933702F4CF089590913702292F2823C0
:1017700029F08095892380933702E9CF08958091DD
:101780003702882321F01092370280E0E0CF0895DD
:10179000CF93C091610280916002C82B8091370283
:1017A000882329F0C82B0E94151F8111E8DF8C2F98
:1017B000CF910895CF93DF93C0910201D09103019F
:1017C000E7DF8883C0910201D091030148E050E037
:1017D0006DE272E0CE010E94BC28892B59F088E0AE
:1017E000FE01ADE2B2E001900D928A95E1F7CE01E3
:1017F0000E94891EDF91CF910895CF93DF93C0910E
:101800000001D0910101C4DF8983C0910001D09112
:10181000010140E250E06DE072E0CE010E94BC2880
:10182000892B59F080E2FE01ADE0B2E001900D920B
:101830008A95E1F7CE010E94961EDF91CF9108951F
:101840000E94711E882329F080919C0287FF01C0AD
:10185000D4CFB0CF0895FECF089590919D0292FF0E
:101860000EC0982F990F990F990F692B609335022D
:1018700068DB80913502869586958695ECCF61CBA5
:101880001092350280E0E7CF909135028095892350
:1018900080933502282F277059F4891749F09091C9
:1018A0009D0292FF05C086958695869554DBE8CF0C
:1018B000089590919D0292FB222720F9281749F064
:1018C00080FB92F990939D028CE992E04DD082E0EA
:1018D000DBCF089580919D0282FB882780F991E0FB
:1018E0008927E7CF81E0E5CF80E0E3CF60E070E0DB
:1018F000CB01CCC360E070E0CB01C2D3F7CFA4E052
:10190000B0E0E5E8FCE00C94952864D36FD31C822A
:10191000CE01049682D381E08093CB0188D31A82D2
:1019200019828A81846080618A83CE01019690D376
:101930001B82CE0103969ED30E94DD1CDBDF249622
:10194000E2E00C94B128DBCF089556C3089543D349
:1019500081110C94A31C089555C3089564C3089580
:1019600066C3089569C3089573C3089578C308953D
:1019700081C3089591C30895A6E0B0E0E2ECFCE0D5
:101980000C9493280E9416218C0180916202909100
:1019900063028017910781F019821A820E94162132
:1019A000682F49815A81792F80E090E00E94EC03F2
:1019B00010936302009362022696E4E00C94AF2831
:1019C0000E942221609370027093710280937202D0
:1019D0009093730260936C0270936D0280936E0219
:1019E00090936F02089508950895FDCF0895089586
:1019F000FEDFFBCF0895FECF08950895FEDFFBCFF5
:101A000083EA9FE08BD4F0DFF3CF81E00895FDCF30
:101A10000895FBCF0895089508950895FCDFFCDF35
:101A2000FCCF95DF811101C08EDF84E792E094DF67
:101A30008CE992E097DF5ED791DF61DA8091CA018D
:101A40006ECA0E940D210E94E91CCFD3EADF0E94DA
:101A5000CC0323D79DD4D2CFA6E0B0E0E2E3FDE0F3
:101A60000C948C28D4DF81110AC086DF5DD60E94D9
:101A7000C0190E94D4032696EBE00C94A828C7D383
:101A800084E6A82E82E0B82E750110E0F7010191DE
:101A90007F01812F0CD31F5F183009F43DC0081758
:101AA000A9F38091740281FD08D3B3DFC82E10E042
:101AB00099249394812FFBD2082FF50181915F0126
:101AC000081729F1F12CEE24E394D02ED8268D2D81
:101AD0008E21A9F0CC2099F0F9821A830E94162158
:101AE0009C838B839D8291E0802F8E2109F490E06E
:101AF00049815A816B817C818D810E94EC03F39432
:101B0000EE0CF6E0FF12E3CFF501319700831F5F83
:101B1000183081F655DFAACF0813C3CFA6CF1F9385
:101B2000CF93DF931DD1EC01C11580E5D807E8F50F
:101B3000C11580E4D80708F09BC0C03ED10518F558
:101B4000CD3CD10508F083C0C83AD10570F4C53A40
:101B5000D10508F074C0C130D10511F118F0C430BE
:101B6000D105F0F4D0E0C0E01BC0C33CD105D0F7F4
:101B7000C85AD0E0CC0FDD1FC65ADE4F0990D8817D
:101B8000C02DD4640DC0C11580E2D80708F0CDC0C7
:101B9000C11581E0D80708F05CC0C83ED10510F738
:101BA000CE01DF91CF911F910895C03682E5D8070D
:101BB00028F5C03482E5D80708F068C0C03282E555
:101BC000D80708F05CC0C11582E5D80708F495C0B5
:101BD0002C2F2695269530E085E0220F331F8A951D
:101BE000E1F78C2F8370C1E0D0E002C0CC0FDD1F85
:101BF0008A95E2F7C22BD32BDD68D2CFC03A82E5BB
:101C0000D80760F4C03882E5D80708F456C0CF7111
:101C1000D0E0DC2FCC27C46FD06AC2CFC03C82E5B5
:101C2000D80708F45FC0C03E82E5D80708F09ACF15
:101C3000DC2FCC27CC27DF71C06FD06AB1CFC55A5B
:101C4000D0E0C057DE4FC881D0E0D064A9CFD065C6
:101C5000A7CF8D2F29D1182FCE01992781D0C12F41
:101C6000D0E0DC2FCC27CC27DF71C82BD92B98CF25
:101C7000CE01992775D0CC27DF70D06AF6CFCF710F
:101C8000D0E0DC2FCC27C16FD06A8ACF2C2F2695CD
:101C90002695277030E0B5E0220F331FBA95E1F7A3
:101CA0008C2F8370C1E0D0E002C0CC0FDD1F8A957D
:101CB000E2F7DC68C22BD32B73CF2C2F2695269509
:101CC000277030E0A5E0220F331FAA95E1F78C2F93
:101CD0008370C1E0D0E002C0CC0FDD1F8A95E2F72F
:101CE000DA68E8CF8C2F8F71DFD0C82FD0E0DC2FDF
:101CF000CC27CC27DF71D06253CF8C2F8F71D4D0FB
:101D000055E0D695C7955A95E1F7CF70D0E0DC2F16
:101D1000CC27282F30E084FF06C044E0220F331F79
:101D20004A95E1F73327D069C5CF8D2F8F71BCD08D
:101D3000182FCE01992714D0C12FD0E0DC2FCC274B
:101D4000CC27DF71906291CF783028F4663018F498
:101D5000462F672F37C690E080E00895F5DFDFCE8D
:101D600082389105B9F1B0F48133910509F47DC051
:101D700048F48932910509F46DC08A32910509F45D
:101D800079C008958533910509F45FC089339105C1
:101D900009F10895833E9105D9F138F4803E91050B
:101DA00029F1823E910579F10895863E9105D9F198
:101DB000873E910509F43EC0843E910541F520918E
:101DC0009D0221FF24C080919C0284FD19C087EEF2
:101DD00090E0089520919C02237009F056C0209154
:101DE0009D0223FF14C089E290E0089520919C0297
:101DF00020FD38C030919D0230FF09C024FF3FC054
:101E000090E080E0089520919C0222FDF7CF089594
:101E100020919C0222FD36C030919D0230FD35C0DC
:101E200024FDEECFF4CF20919C0223FFF0CF24FDC0
:101E3000E7CFCDCF20919C0223FD2AC030919D0297
:101E400031FFEECF84EE90E0089520919C0225FDB5
:101E5000CACF089520919C0225FD1DC020919D02AE
:101E600023FFD5CF89E390E0089520919C0226FDC1
:101E700015C0089520919C0226FD13C0089583EE9D
:101E800090E0089582EE90E0089580EE90E008954D
:101E900086EE90E0089585E390E008958AE290E070
:101EA000089581E390E0B3CF90919C0292FF10C01F
:101EB00041E0282F2471243009F040E031E0282F40
:101EC0002871283009F030E0431711F02CE0822708
:101ED00093FF10C041E0282F2471243109F040E025
:101EE00031E0282F2871283109F030E0431711F034
:101EF0002CE0822730919D0230FF10C051E0282F46
:101F00002171213009F050E041E0282F287128305C
:101F100009F040E0541711F029E0822731FF10C08A
:101F200041E0282F2171213109F040E031E0282FD4
:101F30002871283109F030E0431711F029E0822799
:101F400094FD877E089580E00895CF939C01205EE4
:101F50003245C1E02032310538F4FB01C581C111A1
:101F600003C08F710E9481038C2FCF9108959C0133
:101F7000FB018581882391F02B35FCE73F0761F059
:101F80002C359CE7390729F02A353C4741F4AADC77
:101F900001C0A0DC80E00895A7DCFCCF81E00895BB
:101FA0009C01FB018581882399F02130FCE73F07E4
:101FB00061F023309CE7390739F021153C4749F49B
:101FC0000E94A70380E00895C0DC0E94AB03FACF13
:101FD00081E00895089590E080E00E94DA2821E0F1
:101FE000833E9E4F09F020E0822F089563EE7EEF3E
:101FF00090E080E00C9408296FEF7FEF90E080E0A4
:102000000C940829CF93DF93EC0182E090E00E94CA
:10201000D2288883DF91CF910895FC01608182E00E
:1020200090E00C94EE2883E090E00C94D228682F86
:1020300083E090E00C94EE28CF93DF93EC0184E0F2
:1020400090E00E94DA2899838883DF91CF910895E8
:10205000FC016081718184E090E00C940829CF93A9
:10206000DF93EC0186E090E00E94D2288883DF9124
:10207000CF910895FC01608186E090E00C94EE28F9
:10208000AB01BC018FE090E00C940029AB01BC01D6
:1020900083E190E00C940029682F8EE090E00C948E
:1020A000EE280895FECF08950895FECF0895E82FF5
:1020B000F0E0EA55FD4F80810895089580EA8A9501
:1020C000F1F7089500C00895F9CF0895F894E82F26
:1020D000E295EF70F0E031A1282F2F7081E090E0C1
:1020E00001C0880F2A95EAF7982F9095932391A322
:1020F00092A1892B82A3789408950F931F93CF9375
:10210000DF93C9E9D1E089918F3F09F0DFDF81E0FA
:10211000C13AD807C1F7C3E9D1E009E911E08991D3
:102120008F3F09F0D3DF0C171D07C9F7DF91CF915F
:102130001F910F910895B0E0A0E0E1EAF0E10C9466
:102140008F28EC01062F10E0C80187569E4F7C01B6
:10215000FC0190819F3F09F441C0D62EF894E92FED
:10216000E295EF70F0E081A19F7021E030E001C0C6
:10217000220F9A95EAF7822B81A382A1209528232A
:1021800022A378949FDFE3E9F1E031E0C12C2191B3
:102190002F3F49F1A22FA295AF70B0E090968C919D
:1021A00090E02F7002C0959587952A95E2F780FD03
:1021B0001AC0832FC82A330F81E0E939F80739F7AD
:1021C000F70180818F3F09F081DF61E0C11001C01C
:1021D00060E08D2D79DFC00FD11FC882CDB7DEB78B
:1021E000E8E00C94AB2880E0E5CF87DF88E0E6EA02
:1021F000F2E0DF01982F1D929A95E9F7EEE9F2E0FF
:10220000DF011D928A95E9F788E039D04BCFA8E02D
:10221000B0E0EDE0F1E10C9492288E010F5F1F4FCA
:1022200088E0F80111928A95E9F7F12C6F2DC80129
:1022300082DFF394F8E0FF12F9CF48E050E0B801F4
:102240008EE992E00E94BC2821E0009709F420E08A
:10225000892B41F088E0F801AEE9B2E001900D92DF
:102260008A95E1F748E066EA72E08EE992E008D0EC
:10227000182F1BDF812F2896E5E00C94AE280895D7
:10228000B0E0A0E0E6E4F1E10C948F286C017B0162
:10229000042FC22F222379F081E0809377020E94DD
:1022A0001621909376028093750280E0CDB7DEB759
:1022B000E8E00C94AB28D0917702DD23B1F3809154
:1022C0007502909176020E94AB20059770F310E0A2
:1022D000A801B601C7010E94BC28892B31F0A801D2
:1022E000B601C7010E94C928CD2F109277028C2F0A
:1022F000DDCFB2CB08950E94B4200E94D72280DBAC
:102300000E94EF229EDB0E94F8220E94FB22F1DF56
:102310000E9411230E94D12181DBF7CF9093B1015C
:102320008093B00108958EEA92E022CB8DE18093F4
:10233000AE028EEA92E01CCB8091AE028695869525
:10234000869508958091AE0281FD07C082608093DA
:10235000AE028EEA92E00CDBE8C108958091AE02F5
:1023600081FF07C08D7F8093AE028EEA92E000DB92
:10237000E6C108958091AE0281FF01C0EFCFE2CFA8
:102380008091AE0286958170089580910401089530
:102390008EEA92E0EBDA8091AE0282FFC7DF809195
:1023A000AE02803220F0877088618093AE02809107
:1023B000AE0280FF04C086958695869572C180E046
:1023C000FDCF8091AE02982F969596959695933075
:1023D00040F49F5F990F990F990F8770892B809315
:1023E000AE028091AE0281608093AE028EEA92E0EE
:1023F000BFDA8091AE0286958695869552C180910E
:10240000AE02982F987F81F088508093AE02887F2B
:1024100091E009F490E08091AE0290FB80F9809306
:10242000AE028EEA92E0A4DA8091AE02869586959D
:10243000869537C18091AE0280FD11C08160809386
:10244000AE02813019F489E08093AE028EEA92E008
:102450008FDA8091AE0286958695869522C1089581
:102460008091AE0280FF08C08E7F8093AE028EEA1C
:1024700092E07EDA80E015C108958091AE0280FF7F
:1024800001C0EECFD7CF9091AE02892F8695869569
:1024900086958F5F8F7197708430D8F4880F880F7E
:1024A000880F892B8093AE028091AE02887F91E0E5
:1024B00009F490E08091AE0290FB80F98093AE0227
:1024C0008EEA92E055DA8091AE02869586958695E1
:1024D000E8C09093AE02E8CF843008F083E090919A
:1024E000AE029770282F220F220F220F922B90936B
:1024F000AE02987F21E009F420E09091AE0220FB2B
:1025000090F99093AE02CDC0E7DF8EEA92E030CA38
:10251000FC01DB0115968C918823F9F0F857E73020
:10252000F105E0F4EA56FD4E0C9478289D12A112B4
:10253000A712A312A512A912AB1283E0E5DF80E077
:10254000089580E0FBCF5BDFFACF3BDFF8CF95DF6C
:10255000F6CF99DFF4CF0EDFF2CF81E00895509AE5
:1025600058980895589A089558980895B0E0A0E0B2
:10257000ECEBF2E10C948B288C0180918600909119
:1025800087006CE070E00E942F286017710758F0F8
:10259000C80169E070E00E942F28CB01CDB7DEB7FB
:1025A000ECE00C94A7288091860090918700E09041
:1025B0008600F0908700C0908600D0908700C6E02B
:1025C000D0E0BE010E942F2830E020E0060F171F48
:1025D000211D311D4801590185E0880C991CAA1C58
:1025E000BB1C8A95D1F7C701BE010E942F28F12C90
:1025F000E12CA7019601260F371F411D511DC50172
:10260000B4010E94562869017A01C0918600D091D8
:102610008700CA01B9010E9416289E0150E040E0DF
:102620000E941628A70196010E9416282FE0969571
:102630008795779567952A95D1F700918600109137
:10264000870030E020E0061717072807390708F051
:10265000A4CF60918600709187009FCF1F920F9248
:102660000FB60F9211242F933F934F935F936F9365
:102670007F938F939F93AF93BF93EF93FF9374DFF9
:10268000FF91EF91BF91AF919F918F917F916F914A
:102690005F914F913F912F910F900FBE0F901F9020
:1026A0001895CF93C82F843068F581112CC0809184
:1026B000880090918900892B51F080916F008D7F67
:1026C00080936F0080916F008E7F80936F004CDF4E
:1026D000609186007091870090E080E02C2F30E0C0
:1026E00050E040E00E94162823E030E040E050E057
:1026F0000E945628C9013ADF909389008093880090
:10270000CF910895C3E08091880090918900892B32
:10271000F9F680916F00826080936F0080916F0066
:10272000816080936F00D4CF089510927A02109246
:10273000790210927B0281E08093780208951092D2
:102740007802FADDAECF0F931F93CF93DF93809182
:10275000050191E0980F823039F090930501DF91E7
:10276000CF911F910F91089581E0809305010DDEB7
:10277000182FC0917902D0917A02219606DE90E05E
:1027800068E770E00E940528BC01CE010E942F2856
:102790009C0190937A0280937902812F90E068E700
:1027A00070E00E940528BC01660F672F661F770B3B
:1027B0007195C9010E942F2867FD6FE780917B0208
:1027C000823029F4603439F41092780204C08130E8
:1027D00011F46F37C9F3E62FF0E0EC50FE4FC491CF
:1027E0000091860010918700A7DDD82F6C2F70E034
:1027F00090E080E0980150E040E00E9416282FEF22
:1028000030E040E050E00E945628C90163E070E0EB
:102810000E942F28CB016D2F70E00E940528A6DEB4
:1028200090938900809388009ACF1F920F920FB6E1
:102830000F9211242F933F934F935F936F937F9346
:102840008F939F93AF93BF93EF93FF938091780201
:10285000811179DF20918800309189008091860074
:10286000909187006AEF70E00E942F286B5F7F4F86
:102870006217730708F476DEFF91EF91BF91AF9175
:102880009F918F917F916F915F914F913F912F9188
:102890000F900FBE0F901F90189561DE82E080931D
:1028A000800089E1809381008FEF9FEF90938700F4
:1028B000809386006DDD64DD811137CF08950C941F
:1028C000081F089542C8089580E0F1DB81700895E3
:1028D0009EDC2FEF86E791E0215080409040E1F7A9
:1028E00000C0000094DCF0DF882319F0EBDF0C94CB
:1028F00054210895EDCF0895A1E0B0E0E2E8F4E1BD
:102900000C9491287C01FC0160817181828193810A
:102910008E010F5F1F4F21E030E040E050E0A9D171
:102920008981F70140815181628173814F5F5F4FDF
:102930006F4F7F4F40835183628373832196E6E01C
:102940000C94AD2884E00895CDC0089501C1089588
:102950001F93CF93DF93C4D0D0E0C0E010C0412FCD
:102960006C2F8D2F0E94A1029C01412F6C2F8D2F67
:10297000EFD01F5F163099F7CF5FC83011F010E02D
:10298000EECFDF5FD43049F7DF91CF911F910895EB
:102990000F931F938A019B0150E040E0BC0190E03F
:1029A00080E003D11F910F9108950F931F938A0127
:1029B0009B0150E040E0BC0190E080E024D11F91F9
:1029C0000F910895843028F4683018F4463008F4E4
:1029D00089C090E080E0089580E1089545D1CB0161
:1029E00008950F931F938A019B0150E040E0BC01C2
:1029F00090E080E03ED11F910F9108950F931F93B7
:102A00008A019B0150E040E0BC0190E080E077D17A
:102A10001F910F91089565D0B6C14F925F926F924A
:102A20007F92BF92CF92DF92EF92FF920F931F930C
:102A3000CF93DF9300D000D0CDB7DEB7B82E8FE0B4
:102A40008B1518F111D161507109810991098E011D
:102A50000F5F1F4F21E030E040E050E00AD1898154
:102A6000811113C001D12B013C01C12CD12C760165
:102A7000B1101DC0C982DA82EB82FC8240E0BE0147
:102A80006F5F7F4F8CE794E103D60F900F900F900C
:102A90000F90DF91CF911F910F91FF90EF90DF90FA
:102AA000CF90BF907F906F905F904F900895C41427
:102AB000D504E604F70449F38E010F5F1F4F21E0B0
:102AC00030E040E050E0C701B601D3D089818111E8
:102AD00001C0BA948FEFC81AD80AE80AF80AC8CF1A
:102AE000089508950F931F93CF93DF93843068F573
:102AF000683058F5463048F5282F862F90E06CE076
:102B000070E00E940528C42FD0E0CC0FDD1FC80F55
:102B1000D91F822F90E060E670E00E940528C80F60
:102B2000D91FCE0189960E94D228082F10E0102FBD
:102B30000027CE018A960E94D2289801282BC9012D
:102B4000DF91CF911F910F91089590E080E0F8CF31
:102B50001F93CF93DF93843020F5683010F5463013
:102B600000F5122FE82F862F90E06CE070E00E94B5
:102B70000528C42FD0E0CC0FDD1FC80FD91F8E2F22
:102B800090E060E670E00E940528C80FD91F632F0F
:102B9000CE0189960E94EE28612FCE018A960E946E
:102BA000EE28DF91CF911F910895B0E0A0E0EBED0A
:102BB000F5E10C948B286B017C01E8014B015C0171
:102BC000820E931EA41EB51EC6018996C814D90490
:102BD000EA04FB0429F4CDB7DEB7ECE00C94A72897
:102BE00020E8C21621E0D206E104F10450F40E946C
:102BF000D228888321968FEFC81AD80AE80AF80AE3
:102C0000E3CF1882F7CFB0E0A0E0E9E0F6E10C9462
:102C10008B286B017C01EB014B015C01820E931E42
:102C2000A41EB51E9601C6018996C814D904EA04EB
:102C3000FB0429F4CDB7DEB7ECE00C94A72840E8FC
:102C4000C41641E0D406E104F10440F42C1B3D0B12
:102C5000F801E20FF31F60810E94EE288FEFC81A7F
:102C6000D80AE80AF80ADECF67E572E080E090E073
:102C700008954F925F926F927F928F929F92AF9240
:102C8000BF92EF92FF920F931F93CF93DF934B016D
:102C90005C0129013A017B01E801E01AF10A27E50C
:102CA000E21A2EEFF20AC7018C0F9D1FAE01401BE6
:102CB000510B70E060E0441555056605770578F026
:102CC000DF91CF911F910F91FF90EF90BF90AF9048
:102CD0009F908F907F906F905F904F900895480DD8
:102CE000591D6A1D7B1D473552406105710528F449
:102CF0000E94D22888832196D6CF1882FCCF4F928B
:102D00005F926F927F92AF92BF92CF92DF92EF92DB
:102D1000FF920F931F93CF93DF936B017C012901E7
:102D20003A015B0127E5A21A2EEFB20AD0E0C0E01B
:102D3000C5018C0F9D1FAE0170E060E04415550584
:102D40006605770578F0DF91CF911F910F91FF9085
:102D5000EF90DF90CF90BF90AF907F906F905F909B
:102D60004F9008954C0D5D1D6E1D7F1D47355240DF
:102D70006105710530F4F801EC0FFD1F60810E94C0
:102D8000EE282196D5CFA0E1B0E0E9ECF6E10C9475
:102D90008728CE0101965C0180E1F50111928A95A8
:102DA000E9F706E210E097E5492E92E0592E612CF2
:102DB000712C29EA822E992493946201F1E14F1635
:102DC0005104610471042CF080E1C82ED12CE12C57
:102DD000F12CA601B401C5010E94DF288C0C9D1CBA
:102DE0000D2C000CEE08FF084C185D086E087F08DB
:102DF0000150110911F76096E0E10C94A328CF93DC
:102E0000DF9386319C4719F5EB010E94730B9D817E
:102E1000992399F08A7A91E009F490E090937C02EA
:102E2000811109C089E20E94C01F0E94200C80E02D
:102E3000DF91CF91089585E3F6CF80917C028111D7
:102E400004C089E20E94D71FF0CF85E3FBCF81E069
:102E5000EFCFCF93DF93EC01FB018581882309F449
:102E6000F1C09E0130572332310508F0D1C08CE902
:102E700092E00E94B20CFE01E150F047E232F1050F
:102E800008F026C0EA5BF84E0C947828A2171418B4
:102E9000AA1774177817AE177C17B217BE178817C2
:102EA0000D188C17C2179017C617EE179417CA176C
:102EB000F5179A17D017D8178017B6178417BA17AF
:102EC0009E17D417E417FE170B186E17A6171B18BA
:102ED00080919C02816080939C0293C080919D02AE
:102EE000886080939D028DC080919C028260F3CFA8
:102EF00080919C028460EFCF80919C028860EBCF30
:102F000080919D028160EDCF80919D028260E9CF2A
:102F100080919C028061DFCF80919C028062DBCF38
:102F200080919C028064D7CF0E943A0780919C02D6
:102F30008068D1CF80919C028860DCCF80919D0217
:102F40008260E0CF80919C028E7FC5CF80919D02F0
:102F5000877FC7CF80919C028D7FBDCF80919C02DF
:102F60008B7FB9CF80919C02877FB5CF80919D02E6
:102F70008E7FB7CF80919D028D7FB3CF80919C02D1
:102F80008F7EA9CF80919C028F7DA5CF80919C02DE
:102F90008F7BA1CF0E943A0780919C028F779BCFB5
:102FA00080919C02877FDCCF80919D028D7FE0CF56
:102FB00080919C0282FB992790F921E0922790FB57
:102FC00082F990FB83F987CF80919D02982F90958D
:102FD00091708E7F892B90FB81F983CF90919C0219
:102FE000892F8F7B96FF806476CF0E943A0790915D
:102FF0009C02892F97FB87F980586DCF81E00E9452
:10300000BA0C8CE992E00E94B40C0E943A0780E06E
:10301000DF91CF91089580E0F2CF90919C02892FAB
:103020008F7E94FF806157CF90919C02892F8E7F75
:1030300090FF816050CF90919D02892F877F93FFF1
:1030400088604FCF81E0E4CF082E000C990B65EB30
:1030500070E00E94052897FF04C080589109892FCD
:10306000089580589F4FFBCF8091830280FF0DC051
:1030700060910B0170E0660F771F60387105A8F54D
:1030800061157105A1F1862F089581FF08C0609137
:103090000B0170E0660F771F660F771FEECF82FF80
:1030A00009C060910B0170E023E0660F771F2A953D
:1030B000E1F7E3CF809182028823A1F020910A01F9
:1030C00060910B0170E093E0660F771F9A95E1F72E
:1030D000821798F690E00E940528622F70E00E9407
:1030E0004328CBCF68E070E0CECF8FE7089581E032
:1030F00008958091830280FF0CC06091070170E009
:1031000075956795759567956115710559F1862FC8
:10311000089581FF06C06091070170E0759567957D
:10312000F3CF6091070170E082FD0CC060918102D5
:103130006623A9F0209106018091070190E06217B3
:1031400030F0BC0160387105F8F28FE7089570E047
:103150000E940528622F70E00E944328F3CF61E0AF
:1031600070E0D5CF81E008958D3C29F47DDF819515
:103170008093870208958E3C11F476DFF9CF8F3C5F
:1031800029F472DF8195809386020895803D11F4C1
:103190006BDFF9CF893D21F4ACDF8093880208957D
:1031A0008A3D19F4A6DF8195F8CF8B3D29F4A1DF84
:1031B00081958093890208958C3D11F49ADFF9CFAF
:1031C0009FE2980F983070F4815D990B21E030E018
:1031D00001C0220F8A95EAF780918502822B8093A5
:1031E000850208958D3D31F4809183028160809342
:1031F000830208958E3D21F4809183028260F7CF8F
:103200008F3DB9F7809183028460F1CF8D3CD9F472
:103210009091870297FF1DC01092870280918602CD
:10322000811106C080918702811102C01092820232
:1032300080918802811106C080918902811102C0AB
:103240001092810208958E3CD9F49091870219164C
:103250001CF39FE2980F983008F03FC0815D990BF6
:1032600021E030E0A90102C0440F551F8A95E2F722
:10327000CA01809590918502892380938502CECFE3
:10328000909186028F3C29F497FFE3CF109286023B
:10329000C5CF803D19F41916CCF3DBCF909188028D
:1032A000893D29F41916ACF610928802B7CF8A3DF1
:1032B00019F497FFCECFF8CF8B3D39F49091890266
:1032C00097FFC7CF10928902A9CF8C3D09F0C1CFDB
:1032D000909189021916B4F3BCCF8D3D31F48091E1
:1032E00083028E7F8093830299CF8E3D21F480915B
:1032F00083028D7FF7CF8F3D09F090CF80918302BD
:103300008B7FF0CF93D720918602211104C02091AA
:103310008702222321F09093800280937F022091E4
:103320008802211104C020918902222321F0909368
:103330007E0280937D0284E892E00AC586E0E4E89C
:10334000F2E0DF011D928A95E9F710928202109255
:103350008102109283020895FC01828181110EC0C6
:10336000838181110BC08481811108C091E0858126
:10337000811101C090E0892F8170089581E0FCCF18
:10338000A6E0B0E0E6ECF9E10C94942886E0E4E8ED
:10339000F2E0DE01119601900D928A95E1F710920C
:1033A00086021092870210928802109289028B8105
:1033B000811103C08C81882381F080917F029091DC
:1033C0008002C9D6FC01209182022223B9F18091AA
:1033D0000C018E171F0608F440C08D81811103C0B7
:1033E0008E81882389F080917D0290917E02B3D6F0
:1033F000FC0120918102222309F463C0809108011D
:103400008E171F0608F46CC0BE016F5F7F4F84E803
:1034100092E0FDD5811104C084E892E09DDF811126
:1034200071DF86E0FE013196A4E8B2E001900D92D2
:103430008A95E1F72696E3E00C94B02880910D017F
:1034400090E06AE070E00E9405288E179F0708F060
:10345000C4CF2F5F2093820202C02F3FD1F71B8180
:10346000112349F001DE6FEF11160CF461E00E94A8
:10347000FC27809386021C81112349F0F5DD6FEF54
:1034800011160CF461E00E94FC2780938702809162
:103490008602882309F4A1CF10918702112309F431
:1034A0009CCFD2DD882349F080938602812FCCDD2A
:1034B000882329F08093870290CF81E0F5CF81E0C7
:1034C000F9CF8091090190E06AE070E00E94052840
:1034D0008E179F0708F098CF2F5F2093810202C0BC
:1034E0002F3FD1F71D81112349F003DE6FEF111635
:1034F0000CF461E00E94FC27809388021E81112356
:1035000049F0F7DD6FEF11160CF461E00E94FC2723
:103510008093890280918802882309F475CF1091E5
:103520008902112309F470CF8FDD882349F080933D
:103530008802812F89DD882329F08093890264CF56
:1035400081E0F5CF81E0F9CFB0E0A0E0EAEAFAE16E
:103550000C948E28E82FF0E0EC58FD4FB490282F03
:1035600026952695269530E0F901EC5EFC4F0491F6
:10357000877010E0082E02C0159507950A94E2F7AF
:1035800001701127F901EC5FFC4FE490F12C082E3B
:1035900002C0F594E7940A94E2F791E0E922FF244F
:1035A000F901EC50FD4FC491D0E002C0D595C7950C
:1035B0008A95E2F7C170DD27C62ED12C01151105C1
:1035C00049F5E114F10431F086EE0E942A04C601A7
:1035D000009771F5B6018B2D0E940205C601009778
:1035E00079F5E114F104A1F50115110531F081EE31
:1035F0000E94B104C6010097C9F5CD2B31F08CE2D1
:103600000E941805C114D104C9F5CDB7DEB7E9E0B1
:103610000C94AA2881EE0E942A04C601009789F220
:10362000EFE9FFE03197F1F700C000000197F6CF16
:10363000EFE9FFE03197F1F700C000000197C8CF34
:10364000EFE9FFE03197F1F700C000000197C7CF25
:1036500086EE0E94B104C601009731F2EFE9FFE067
:103660003197F1F700C000000197F6CFEFE9FFE0D6
:103670003197F1F700C000000197BDCF8FE99FE0BF
:103680000197F1F700C0000091E0C91AD108BACF44
:10369000B0E0A0E0EEE4FBE10C948F288C017B010C
:1036A000D42FC701F80109958823A9F0813009F0CA
:1036B00057C0C701F8010995C82F813089F4C701A7
:1036C000F80109950E9418058D2F90E0009709F0E8
:1036D0003FC0C111E6CFCDB7DEB7E8E00C94AB2810
:1036E000823031F4C701F80109950E942A04ECCF19
:1036F000833031F4C701F80109950E94B104E4CF89
:10370000843011F7C701F8010995C82FD12CC12CBD
:103710008C2F8053990B9C010A9768F0C114D10437
:1037200099F2EFE9FFE03197F1F700C00000F1E016
:10373000CF1AD108F3CFC6016AE070E00E940528D5
:103740006901C80ED91EC701F8010995C82FE0CF3D
:10375000EFE9FFE03197F1F700C000000197B6CF25
:103760006D2FF2DE9ECF0F931F93CF93DF93C42F65
:10377000D22FFC0185818823C1F040938C0256D55D
:1037800090938B0280938A0280E28C0F883040F401
:10379000C77081E001C0880FCA95EAF70E941F0533
:1037A000DF91CF911F910F91089510918C02141306
:1037B00031C080918A0290918B02CDD4883C9105D2
:1037C00048F5C0E2CD0F1D17B9F080E2810F8830B7
:1037D00040F4177081E001C0880F1A95EAF70E9443
:1037E0002405C83010F581E09D2F977001C0880F27
:1037F0009A95EAF70E941F05802F0E941805C8308D
:1038000078F6D77081E001C0880FDA95EAF70E9458
:103810002405C6CF80E28C0F883010F6C77081E097
:1038200001C0880FCA95EAF7F2CF802F0E941805D1
:10383000B7CF0F93FC01E851FC47E730F10508F0E2
:1038400039C0CB01EA5DF34E0C9478283C1C421C35
:103850002D1C361C481C4E1C541C06E221EE41EE69
:103860006AE17CE780DF80E00F91089507E225EEB2
:1038700045EE6BE17CE7F6CF06E221EE40EE68E133
:103880007CE7F0CF07E225EE44EE69E17CE7EACF82
:1038900006E221EE42EE6CE17CE7E4CF07E225EEA2
:1038A00046EE6DE17CE7DECF08E221E045EE6EE119
:1038B0007CE7D8CFFB018581882319F010928C0218
:1038C000D3CF81E0D1CF1F93CF93DF9387372CE7FE
:1038D000920729F088379C4729F1C1E011C0FB010C
:1038E000C581CC2391F026D00E94A10729D0D82FE2
:1038F00024D0C82F1FD04D2F6C2F0E94BD08C0E0D0
:103900008C2FDF91CF911F91089514D00E94AB07A7
:1039100017D0182F12D0D82F0DD0412F6D2F0E9405
:10392000BD08EECFFB01C581CC2311F006D0DCCF62
:1039300004D0ECCF80911001089580910F0108957B
:1039400080910E010895A3E0B0E0E9EAFCE10C9457
:103950009528AE014F5F5F4FBE016E5F7F4FCE0176
:10396000039671D18B81853239F48A81893021F4B3
:1039700081E09981903209F080E081702396E2E045
:103980000C94B128882321F040E269E085E281C1EE
:103990004FEF6FEF8FEFFBCF08950895CF92DF9237
:1039A000EF92FF926B017C01F8DFC701B60190D165
:1039B000FF90EF90DF90CF90089544D180E0E2DF58
:1039C00060E070E0CB01EADF0E94A81424D881E017
:1039D000D9CFE2DF74D1E1DFB6DF811101C0EDCFD5
:1039E00008950C943D1208959C01FB018581882364
:1039F00049F0A90157574038510528F4C9010DD89D
:103A000080E0089581E008952FEFFC012083089560
:103A100080E00895CF93DF93EC018881813029F015
:103A2000823081F0DF91CF9108950E949C1190E047
:103A30006FEF70E00E94052863E070E00E942F287D
:103A40006983F0CF0E94C0118983ECCFFC01808193
:103A5000813019F0823071F00895818190E063E047
:103A600070E00E9405286FEF70E00E942F28862FDB
:103A70000C946C128181811102C00C94AE110C94D3
:103A8000A211FC019C012E5F3F4F9081983031F0D4
:103A9000993031F0973031F4C901D8CFC901BACF8C
:103AA0000C9493118FEF80830895FC0121812130C4
:103AB00009F4E7CFA9CF1F93CF93DF93EC01162F23
:103AC000A7DF81113BC0E881E150E33110F5F0E060
:103AD000E459F24E0C9478287F1D831DB61DC61D37
:103AE000CE1DD91DDC1DDC1DDC1D891D891DE01DC1
:103AF000E41DE81DF51D021E051E081E151E198277
:103B00008CE08A8317C089818230E1F028F481300B
:103B100061F08FEF88830EC08330B1F08430C9F735
:103B20001A821B821C821D8205C08CD39A838B83D0
:103B30007C836D83612FCE010E945F14DF91CF9152
:103B40001F910895BCD0F2CF2A81FE01339690E0F8
:103B500080E030E0A901480F591F4830510550F767
:103B6000119201968C319105A9F7E4CF89818230B9
:103B700029F0853071F68A8134DFDCCF6A817B8160
:103B80008C819D810E947E2809DFD4CF4B816A8180
:103B900089810E94A4149C838D83CCCF2C813D818C
:103BA0003227232732274B816A8189810E94A614FC
:103BB000C1CF0E94A814BECF612FCE0176DFBACF4D
:103BC0000E94EC148983B6CF0E94EE14998399CF9A
:103BD0006B8170E089819A81AE014C5F5F4F9827BD
:103BE000892798270E94F114A5CF6B8170E0898105
:103BF0009A81AE014C5F5F4F9827892798270E94D2
:103C0000FE1498CF0E940B1595CF0E94A214DACF14
:103C10006B8170E089819A81AE014C5F5F4F98277C
:103C2000892798270E94C81485CF6B8170E089810D
:103C30009A81AE014C5F5F4F9827892798270E9491
:103C4000D51478CF0895EF92FF920F931F93CF93DF
:103C5000DF937C018B01EA01892B31F085E290E052
:103C60000E94D228F70180830115110531F086E208
:103C700090E00E94D228F8018083209729F087E203
:103C800090E00E94D2288883CDB7DEB7E6E00C949E
:103C9000AD28CF93DF93D62FC42F682F85E290E015
:103CA0000E94EE286D2F86E290E00E94EE286C2F95
:103CB00087E290E00E94EE28DF91CF91089588E29C
:103CC00090E00E94D228682F70E090E080E0089594
:103CD00088E290E00C94EE289093920280939102F7
:103CE000089500D291E0813009F090E0892F089585
:103CF000E0919102F0919202309739F00190F081B9
:103D0000E02D309711F00995089580E00895F0CFE7
:103D10000895E0919102F0919202309731F0028083
:103D2000F381E02D309709F009950895E091910213
:103D3000F0919202309759F024813581232B39F08C
:103D400026E0DC012C930480F581E02D099508958F
:103D5000E0919102F0919202309759F026813781DB
:103D6000232B39F022E0DC012C930680F781E02D33
:103D700009950895A3E0B0E0E0ECFEE10C949528ED
:103D800020918F023091900228173907B1F090935B
:103D9000900280938F02E0919102F091920230970D
:103DA00061F00084F185E02D309739F023E029831C
:103DB0009B838A83CE01019609952396E2E00C94B9
:103DC000B128A3E0B0E0E7EEFEE10C949528209145
:103DD0008D0230918E0228173907B1F090938E0230
:103DE00080938D02E0919102F0919202309761F000
:103DF0000084F185E02D309739F024E029839B83FE
:103E00008A83CE01019609952396E2E00C94B128AD
:103E1000E0919102F0919202309731F00284F385A3
:103E2000E02D309709F009950895CF93DF93C09165
:103E30000201D0910301229654DF882381F0809102
:103E40009C0287FF0CC0C0910001D0910101229615
:103E50009EE180E0915028F4DF91CF91089596E0A3
:103E6000F8CF29912223B1F38F5FF4CFCF9388232A
:103E700021F1C82F36DF882319F180919C0287FF3A
:103E80001FC0EC2FE695E695E695EE31B0F48091F3
:103E9000000190910101E80FF92FF11D228130E01E
:103EA000C77081E090E002C0880F991FCA95E2F7C1
:103EB0002823392381E0232B09F480E0CF91089552
:103EC0008091020190910301FC01329608962191A4
:103ED0002C1721F0E817F907D1F7EFCF81E0EECFEB
:103EE0009C01FC0132969FEF80E04191461751F012
:103EF0009F3F19F4411101C0982F8F5F8630A9F7B9
:103F00009F3F09F40895290F311D97FD3A95F90156
:103F100062830895FC01329608962191261303C00E
:103F2000DF0111971C92E817F907B9F70895E62FFA
:103F3000E695E695E695EE3168F4E80FF92FF11D68
:103F4000677021E030E001C0220F6A95EAF78281B4
:103F5000822B82830895E62FE695E695E695EE316D
:103F600070F4E80FF92FF11D677021E030E001C017
:103F7000220F6A95EAF720958281282322830895EB
:103F8000CF93C82FAEDE6C2F882359F080919C020E
:103F900087FF07C08091000190910101C8DFCF9198
:103FA000089580910201909103019ADFF8CFCF9399
:103FB000C82F97DE6C2F882359F080919C0287FFD1
:103FC00007C08091000190910101C5DFCF91089554
:103FD00080910201909103019DDFF8CF82DE88235A
:103FE00079F080919C0287FF0BC0E0910001F09175
:103FF000010132968EE1DF011D928A95E9F708955D
:10400000E0910201F0910301329686E0F4CFDC01E9
:10401000FB0111969C9111978181981322C01296F1
:104020008C911297882319F0928189131AC01396E4
:104030008C911397882319F09381891312C01596D8
:104040008C911597882319F0958189130AC01496CD
:104050009C91992321F081E02481291303C080E001
:1040600001C081E0817008950895FECF0895811107
:104070000CC081E0809314016091110170911201D4
:104080008091130190911401F0CF82E0F3CF83E08F
:1040900080931401609111017091120180911301BC
:1040A00090911401E2CFE3CF089581E08093140151
:1040B000609111017091120180911301909114018E
:1040C000D4CFF3CF089591E0811101C090E0909397
:1040D000130160911101709112018091130190916F
:1040E0001401C3CF80911301089580931201609150
:1040F0001101709112018091130190911401B5CFBB
:1041000080911201089580931101609111017091C5
:1041100012018091130190911401A7CF8091110198
:10412000089508950895FECF089508950895F9CF4C
:104130000895CF93FADF0E940711F8DFC0E08C2FBB
:104140000E945710811105C0CF5FC830C1F7CF91D1
:10415000089581E0FCCFCF93DF93EC0167D08C1BF7
:104160009D0BDF91CF91089508951F920F920FB686
:104170000F9211248F939F93AF93BF9380919302DB
:10418000811113C08091AF029091B002A091B10251
:10419000B091B2024196A11DB11D8093AF029093E0
:1041A000B002A093B102B093B202BF91AF919F91C0
:1041B0008F910F900FBE0F901F9018958091B702AE
:1041C000843031F10E94AF031092930288E190E0B5
:1041D00020E40FB6F894A895809360000FBE20935A
:1041E000600083B7817F846083BF83B7816083BFB2
:1041F0007894889583B78E7F83BF0FB6F894A8957F
:1042000080916000886180936000109260000FBE12
:1042100008950E943A070C94B60382E084BD93E0AF
:1042200095BD9AEF97BD80936E0008952FB7F894CF
:104230008091AF029091B002A091B102B091B20210
:104240002FBF08952FB7F8946091AF027091B0021C
:104250008091B1029091B2022FBF089578941F927D
:104260000F920FB60F9211248F939F93AF93BF932A
:104270008091AF029091B002A091B102B091B202D0
:104280000196A11DB11D8093AF029093B002A0933F
:10429000B102B093B202BF91AF919F918F910F90F5
:1042A0000FBE0F901F90189581E08093E00080E290
:1042B0008093D8001092C9008FE19EE40197F1F736
:1042C00000C0000087E090EBDC018093C002909377
:1042D000C102A093C202B093C30288E19CE00FB672
:1042E000F894A895809360000FBE90936000FFCF74
:1042F00088E19CE00FB6F894A895809360000FBE0B
:1043000090936000FFCF9B019091B7029430E9F445
:104310008F708093E9008FEF9091E800815095FDB8
:1043200006C095ED9A95F1F700008111F5CF8091C7
:10433000E80085FF0AC0BA01C90150E040E0E3D1BE
:104340008091E8008E778093E8000895603229F428
:10435000BC0140E250E082E0D6CF089543E050E057
:10436000BC0184E0D0CF46E050E0BC0184E0CBCF7C
:1043700040E250E0BC0184E0C6CFCF93DF93EC0174
:10438000B1DE48E050E0BE0181E0BDDF88E0FE0123
:10439000A4E9B2E001900D928A95E1F7DF91CF9107
:1043A0000895A0E2B0E0E6EDF1E2BFC68091B70269
:1043B0008430F9F483E08093E9008091E80082FF83
:1043C00018C08091E80090E085FF08C050E040E010
:1043D00060E270E0CE010196E3D191E08091E800C7
:1043E0008B778093E800992321F060E2CE0101965B
:1043F00062DBA096E2E0B5C658DE81E064CE609153
:10440000B30281E0611101C080E041CE9091B7021A
:1044100081E0943009F080E06091B30244CE42E044
:1044200061EC81E0C3D242E261EC84E0BFD242E2BF
:1044300061EC82E0BBD242E260EC83E0B7D29091C3
:10444000B70281E0943009F080E06091B3020FCEB2
:104450008091B902833009F45EC030F48130C1F13B
:10446000823009F494C008958A3009F483C08B30F7
:1044700009F46BC0893009F04DC08091B8028132D7
:1044800009F048C08091BC029091BD02009719F0DC
:10449000029709F03FC08091E800877F8093E80091
:1044A0008091E80082FF32C08091F200823031F4C6
:1044B0008091F100813011F0863019F48091F10083
:1044C00014DE8091E8008B778093E800A3D222C0AD
:1044D0008091B802813AF1F48091E800877F80935F
:1044E000E8008091BC029091BD02892B59F468E0EC
:1044F00084E992E070E0A1D18091E8008B7780930D
:10450000E800089560E090E080E0F4CF8091B70289
:104510008111C6CF08958091B802813AD9F7809170
:10452000BC029091BD02892BA9F78091E800877F9A
:104530008093E8008091E80080FFFCCFD3DD80937A
:10454000F1008091E8008E77BFCF8091B802813270
:1045500009F78091BC029091BD02892BD9F6809118
:10456000E800877F8093E80055D28091BA02ABDDE6
:104570000C943A078091B802813261F68091E8008C
:10458000877F8093E80046D28091BB02BCCD8091AA
:10459000B802813A09F0BECF8091E800877F80930E
:1045A000E8008091E80080FFFCCFB8DDC8CF84B779
:1045B000877F84BF0FB6F894A895809160008861CA
:1045C00080936000109260000FBE80E890E00FB60C
:1045D000F89480936100909361000FBE72CD68D211
:1045E000B5D2E2EEF0E08081846080837894E9C403
:1045F00085E191E071CB8091B702853029F48091FB
:10460000B702853011F005CE0895D8DD92DD8823FC
:10461000B1F38091B502882391F35FD00E943A07ED
:10462000EECF08959A014091BE025091BF0200C0A2
:10463000492F55274330510579F158F44130510540
:10464000F1F04230510519F190E080E050E040E097
:104650001AC04132510599F142325105A9F7633030
:10466000710590F7FB01EE0FFF1FEC55FE4F4081E7
:1046700051816F557E4FFB01808190E004C082E143
:1046800090E041EA53E0F9015183408308958BE5BE
:1046900090E046E453E0F7CF99278130910561F02F
:1046A00028F0029789F6E4E2F3E002C0E2E4F3E0E6
:1046B000849190E0AF01E7CFE4E3F3E0F9CF63301A
:1046C000710508F0C1CF660F771FFB01E655FE4F5D
:1046D0004081518189E090E0D6CF84E089BD86E0B9
:1046E00089BD09B400FEFDCF8091D8008F7D8093F5
:1046F000D8008091E00082608093E0008091E0002B
:1047000081FDFCCF0895AF92BF92CF92DF92FF92CE
:104710000F931F93CF93DF936C01EB018A0199D123
:10472000F82E811123C00115110539F0F80180819F
:104730009181C81BD90BC80ED91EB12CA12C209772
:10474000A9F08091E80085FD21C08091E8008E7776
:104750008093E80001151105A1F0F8018081918195
:10476000A80EB91EB182A08285E0F82E8F2DDF91B0
:10477000CF911F910F91FF90DF90CF90BF90AF909E
:10478000089567D18823D9F2F82EF0CFF6018191F0
:104790006F018093F1002197FFEFAF1ABF0ACFCFCF
:1047A000AF92BF92CF92DF92FF920F931F93CF935E
:1047B000DF936C01EB018A014CD1F82E811123C0EB
:1047C0000115110539F0F80180819181C81BD90BC1
:1047D000C80ED91EB12CA12C2097A9F08091E80019
:1047E00085FD21C08091E8008B778093E80001155A
:1047F0001105A1F0F80180819181A80EB91EB18246
:10480000A08285E0F82E8F2DDF91CF911F910F911F
:10481000FF90DF90CF90BF90AF9008951AD188237A
:10482000D9F2F82EF0CF8091F100F60181936F015B
:104830002197FFEFAF1ABF0ACFCFFC018091BE02D4
:104840009091BF0286179707A0F06115710529F4B2
:104850009091E8009E779093E80090E061157105D3
:1048600051F4911108C08091E80082FF32C080E0CD
:104870000895BC01F2CF8091B7028823B1F1853051
:10488000B1F18091E80083FD2EC08091E80082FDA7
:10489000EACF8091E80080FFE1CF2091F20030E084
:1048A0006115710519F02830310558F091E0283074
:1048B000310509F090E02091E8002E772093E80080
:1048C000CDCF81918093F100615071092F5F3F4FEF
:1048D000E7CF8091B702882341F0853041F0809185
:1048E000E80083FFC0CF81E0089582E0089583E06F
:1048F0000895FC018091BE029091BF028617970730
:10490000A0F06115710529F48091E8008E778093FD
:10491000E80090E06115710551F4911108C0809193
:10492000E80082FF33C080E00895BC01F2CF80919F
:10493000B7028823B9F18530B9F18091E80083FD91
:104940002FC08091E80082FDEACF8091E80080FFCF
:10495000E1CF2091F20030E06115710519F02830A7
:10496000310558F091E02830310509F090E0809150
:10497000E8008E778093E800CDCF84918093F1009A
:104980003196615071092F5F3F4FE6CF8091B7029A
:10499000882341F0853041F08091E80083FFBFCF4C
:1049A00081E0089582E0089583E00895982F95307E
:1049B00028F08F708093E90081E008959093E900DA
:1049C000242F762F50E0981731F07091EC00209151
:1049D000ED005091F00021FD02C09F5FE8CF3091C3
:1049E000EB003E7F3093EB003091ED003D7F309344
:1049F000ED003091EB0031603093EB007093EC00F0
:104A00002093ED005093F0002091EE0027FDE5CFBC
:104A100080E008958091B80287FF13C08091E8007C
:104A200082FF06C08091E8008B778093E80004C085
:104A30008091B7028111F2CF08958091B702882347
:104A4000D9F38091E80080FFF8CF8091E8008E775D
:104A5000ECCF2091E4003091E50085E69091EC00E8
:104A600090FF06C09091E80090FF06C080E0089596
:104A70009091E80092FDFACF9091B702992391F0BE
:104A8000953091F09091EB0095FD10C04091E400BD
:104A90005091E5002417350709F381509A01F1F68A
:104AA00084E0089582E0089583E0089581E0089508
:104AB00056D058D0E0EEF0E0808181608083E8ED50
:104AC000F0E080818F77808319BCE3E6F0E080819D
:104AD000816080831092B602089541D043D08091C6
:104AE000D8008F778093D8008091D8008068809319
:104AF000D8008091D8008F7D8093D80084E089BD54
:104B000086E089BD09B400FEFDCF1092B702109275
:104B1000B3021092B5021092B40242E060E080E06D
:104B200045DF8091E1008E7F8093E1008091E2007B
:104B300081608093E2008091E20088608093E200CF
:104B40008091E0008E7F8093E0000895E3E6F0E03E
:104B500080818E7F808381E08093B602BECF1092E9
:104B6000E20008951092E10008951F920F920FB68F
:104B70000F9211242F933F934F935F936F937F93E3
:104B80008F939F93AF93BF93EF93FF938091E10037
:104B900082FF0AC08091E20082FF06C08091E1009E
:104BA0008B7F8093E1000CD28091E10080FF18C0E0
:104BB0008091E20080FF14C08091E2008E7F80939C
:104BC000E2008091E20080618093E2008091D80051
:104BD00080628093D80019BC85E08093B7020FDC17
:104BE0008091E10084FF28C08091E20084FF24C00E
:104BF00084E089BD86E089BD09B400FEFDCF8091C7
:104C0000D8008F7D8093D8008091E1008F7E8093C3
:104C1000E1008091E2008F7E8093E2008091E200CB
:104C200081608093E2008091B302882309F440C040
:104C300084E08093B702EADB8091E10083FF27C024
:104C40008091E20083FF23C08091E100877F809301
:104C5000E10082E08093B7021092B3028091E100FC
:104C60008E7F8093E1008091E2008E7F8093E2004E
:104C70008091E20080618093E20042E060E080E0A9
:104C800095DE8091F00088608093F000B5DBFF91A5
:104C9000EF91BF91AF919F918F917F916F915F91B4
:104CA0004F913F912F910F900FBE0F901F9018952D
:104CB0008091E30087FD02C081E0BBCF83E0B9CFE4
:104CC0001F920F920FB60F9211242F933F934F9381
:104CD0005F936F937F938F939F93AF93BF93CF9384
:104CE000EF93FF93C091E900CF708091EC00109298
:104CF000E9008091F000877F8093F00078941BD0CA
:104D00001092E9008091F00088608093F000C093D9
:104D1000E900FF91EF91CF91BF91AF919F918F915A
:104D20007F916F915F914F913F912F910F900FBEA7
:104D30000F901F901895AAE2B0E0E0EAF6E2F4C105
:104D4000E8EBF2E08091F100819322E0E03CF20791
:104D5000C9F77EDB8091E80083FF43C08091B802F1
:104D60009091B9029A3008F03CC0E92FF0E0E65487
:104D7000F94DBEC1C426EA26F126EA26F1264027CF
:104D80006127F126B527C227803889F0823849F596
:104D90008091BC028F70853020F58093E90080916E
:104DA000EB0085FB882780F91092E90006C080910E
:104DB000B4029091B502911182609091E800977FC2
:104DC0009093E8008093F1001092F1008091E80048
:104DD0008E7726C0282F2D7F21F4882399F08230EA
:104DE00019F18091E80083FF0AC08091E800877F75
:104DF0008093E8008091EB0080628093EB00AA969C
:104E0000E3E0AEC18091BA02813059F7933009F0E6
:104E100080E08093B5021092E9008091E800877FDE
:104E20008093E800F7DDDDCF8091BA028111F3CFE6
:104E30008091BC028F702FEF280F243090F6809362
:104E4000E9002091EB0020FFE6CF933031F4809110
:104E5000EB0080628093EB00DECF9091EB009061DD
:104E60009093EB0021E030E001C0220F8A95EAF731
:104E70002093EA001092EA008091EB008860EACF6C
:104E80008111AFCF1091BA021F778091E300807833
:104E9000812B8093E3008091E800877F8093E80076
:104EA000B9DD8091E80080FFFCCF8091E30080684D
:104EB0008093E30083E0111101C082E08093B70288
:104EC00090CF8058823008F08CCF8091BA029091B8
:104ED000BB028C3D23E0920799F583E08A838AE246
:104EE00089834FB7F894DE01139620E03EE051E24B
:104EF000E32FF0E050935700E49120FF03C0E295C8
:104F0000EF703F5FEF708E2F90E0EA30B8F0C796F9
:104F10008D939D932F5F243159F74FBF8091E80007
:104F2000877F8093E8006AE270E0CE01019685DC1D
:104F30008091E8008B778093E80053CFC096E8CF4C
:104F40006091BC027091BD02AE014F5F5F4F6ADBA2
:104F5000BC01892B09F445CF9091E800977F90938D
:104F6000E80089819A81C5DCE3CF803809F039CF28
:104F70008091E800877F8093E8008091B30280935E
:104F8000F10024CF81112DCF9091BA02923008F018
:104F900028CF8091E800877F8093E8009093B30248
:104FA00039DD8091B302882329F084E08093B70231
:104FB00036DA17CF8091E30087FDF7CF81E0F6CF97
:104FC0000895CF938091B702882391F0C091E900B2
:104FD000CF708091EC0080FD0DC080E0C82B109256
:104FE000E9008091E80083FDA6DECF70C093E90060
:104FF000CF91089580E8F2CF002480FD060E660F61
:1050000011F08695D1F7802D08950024552704C00E
:10501000080E591F880F991F009729F076956795FC
:10502000B8F37105B9F7802D952F0895EE27FF2766
:10503000AA27BB2708C0A20FB31FE41FF51F220F2A
:10504000331F441F551F969587957795679598F35D
:105050007040A9F7009799F7BD01CF010895AA1BE9
:10506000BB1B51E107C0AA1FBB1FA617B70710F053
:10507000A61BB70B881F991F5A95A9F78095909585
:10508000BC01CD01089597FB072E16F4009406D0BD
:1050900077FD08D0E4DF07FC05D03EF490958195BC
:1050A0009F4F0895709561957F4F0895A1E21A2E44
:1050B000AA1BBB1BFD010DC0AA1FBB1FEE1FFF1FBC
:1050C000A217B307E407F50720F0A21BB30BE40B0C
:1050D000F50B661F771F881F991F1A9469F7609553
:1050E0007095809590959B01AC01BD01CF0108950D
:1050F000EE0FFF1F0590F491E02D09946927962784
:10510000692778278727782708952F923F924F9213
:105110005F926F927F928F929F92AF92BF92CF9247
:10512000DF92EF92FF920F931F93CF93DF93CDB750
:10513000DEB7CA1BDB0B0FB6F894DEBF0FBECDBFC8
:1051400009942A88398848885F846E847D848C8499
:105150009B84AA84B984C884DF80EE80FD800C81A2
:105160001B81AA81B981CE0FD11D0FB6F894DEBF85
:105170000FBECDBFED010895FB01DC0104C08D9190
:105180000190801921F441505040C8F7881B990BB9
:105190000895FB01DC0102C001900D924150504086
:1051A000D8F70895F999FECF92BD81BDF89A992755
:1051B00080B50895A8E1B0E042E050E02FC0DC01E6
:1051C000A40FB51F4150504040F0CB01840F951FF4
:1051D0002E9105D041505040D8F70895262FF999C7
:1051E000FECF92BD81BDF89A019700B4021639F046
:1051F0001FBA20BD0FB6F894FA9AF99A0FBE089517
:105200000396272FECDFEADF252FE9DF242FE7CFF6
:105210000196272FE4DFE2CFDC01CB01FC01F999F5
:10522000FECF06C0F2BDE1BDF89A319600B40D92F2
:0C52300041505040B8F70895F894FFCFAB
:10523C00380258020601280850011E0A1401030204
:10524C0001000001008020BD21B821B321AE21A6B0
:10525C0021E200E900EA00B500B600B700CD0083FA
:10526C0001CC008A0192019401210223022402251F
:10527C0002260227022A02B300B4006F0070009FBE
:10528C0001CB019F02A002818283E200E900EA00C7
:10529C00B500B600B700CD008301CC008A019201A5
:1052AC0094012102230224022502260227022A024B
:1052BC00B300B4006F0070009F01CB019F02A002ED
:1052CC008182833334353637673096959493929137
:1052DC00624422B68B04B303D503580371039103C4
:00000001FF
