:100000000C9430030C9468030C9468030C946803FC
:100010000C9468030C9468030C9468030C946803B4
:100020000C9468030C9468030C9436240C940525F6
:100030000C94B91E0C9468030C9468030C94680328
:100040000C9468030C9468030C9468030C94680384
:100050000C9468030C94421F0C9468030C9468037E
:100060000C9468030C9468030C9468030C94680364
:100070000C9468030C9468030C9468030C94680354
:100080000C9468030C9468030C9468030C94680344
:100090000C9468030C9468030C9468030C94680334
:1000A0000C9468030C9468030C9468038506850619
:1000B000B106B106120730071108110835079D0770
:1000C000AE07AE078F169216C916DC16E416EF16A9
:1000D000F216F216F2163A173A17F716FA16FF1634
:1000E0000C1719171C1720172D179B170D18A3177E
:1000F0006D177117A7177417AA17B5177F1703186D
:100100008317B9178717BD17E7178B17C117F11793
:100110009117C717D1177817AE177B17B117961716
:10012000CC17DD17FD17FF1769179F1716188E19C3
:1001300084199119E119E519E519E119E519E5198C
:10014000B219E519BC19C619E519E519E519E5193A
:10015000E119E519E519E119E5199F19E519E519FD
:10016000D619D619D619D619D619D619D619D61917
:10017000D619E319E5198E198119E519E519E5195B
:10018000E519E519E519E519E519E519E519E31981
:10019000E519E519E119E519D419D419D419D419B7
:1001A000D419D419D419D419D419E3197E1C841C78
:1001B000721C781C8A1C901C961C6D2594258C261C
:1001C00094258C26E02503268C265A266926167C43
:1001D0001E001F0020002100220023002400250013
:1001E000260027002D002E002A002B0014001A00E4
:1001F0000800150017001C0018000C001200130066
:100200002F003000310039000400160007000900FB
:100210000A000B000D000E000F0033003400280010
:100220004C00E100E1001D001B0006001900050064
:1002300011001000360037003800E5005200E000E1
:10024000E300E2000000000000002C0000000000BD
:10025000E60021520000E700E400167C3A003B0073
:100260003C003D003E003F00400041004200430092
:10027000440045004C000100207821782378247840
:10028000257826782778287801004600470048001E
:10029000007C0100010001000100010001000100DB
:1002A0000100010001000100010001000100010046
:1002B00001000100010001000100137001000100B4
:1002C0000100010001000100010001000100010026
:1002D000000000000000010000000000010001001B
:1002E0000000010001000100010001000100010007
:1002F00001000100010001000100010001000100F6
:1003000001000100010001000100010001000100E5
:1003100001000100010001000100010001000100D5
:1003200001000100010001000100010001000100C5
:1003300001000100010001000100010001000100B5
:1003400001000100010001000100010001000100A5
:100350000100010001000100010001000000000097
:100360000000010000000000010001000000010089
:100370000100010001000100010001000100010075
:100380000100010001000100010001000100010065
:100390000100010001000100010001000100010055
:1003A0000100010001000100010001000100010045
:1003B0000100010001000100010001000100010035
:1003C0000100010001000100010001000100010025
:1003D0000100010001000100010001000100010015
:1003E0000100010001000100000000000000010008
:1003F00000000000010001000000010001000000F9
:100400000000000000002A2B28000000000000006F
:1004100000000000000000000029000000002C1E69
:100420003420212224342627252E362D3738271E26
:100430001F202122232425263333362E37381F044C
:1004400005060708090A0B0C0D0E0F1011121314E4
:1004500015161718191A1B1C1D2F3130232D3504A2
:1004600005060708090A0B0C0D0E0F1011121314C4
:1004700015161718191A1B1C1D2F3130354C00008A
:10048000000000000000000000000000000000006C
:10049000000000000000000000000000000000005C
:1004A00000007E0F00D4FFFFFFC70000007812039A
:1004B0004D0069006400770061007900360030006B
:1004C00000000E0346004A004C0061006200730009
:1004D00000000403090409025B00030100A0FA09FB
:1004E000040000010301010009211101000122445F
:1004F0000007058103080001090401000203000050
:1005000000092111010001222200070582032000B9
:100510000107050303200001090402000103000094
:100520000009211101000122B60007058403200003
:1005300001120100020000000874700210010001A5
:100540000200010660FF0961A1010962150026FF92
:10055000009520750881020963150026FF0095208B
:1005600075089102C005010902A10185020901A1D6
:100570000005091901290815002501950875018153
:10058000020501093009311581257F950275088121
:100590000609381581257F950175088106050C0A25
:1005A00038021581257F950175088106C0C00501B7
:1005B0000980A101850319012AB700150126B7009A
:1005C000950175108100C0050C0901A10185041970
:1005D000012AA002150126A002950175108100C014
:1005E00005010906A1018506050719E029E715009F
:1005F00025019508750181020507190029EF1500ED
:10060000250195F075018102050819012905950557
:1006100075019102950175039101C005010906A1BB
:1006200001050719E029E7150025019508750181E5
:10063000029501750881010507190029FF1500269B
:10064000FF009506750881000508190129051500A8
:100650002501950575019102950175039101C00071
:1006600011241FBECFEFDAE0DEBFCDBF04B603FE1C
:1006700018C08091D3029091D402A091D502B0917C
:10068000D6028730904BA740B04B59F41092D3025A
:100690001092D4021092D5021092D602E0E0F8E354
:1006A000099511E0A0E0B1E0E0E2FFE402C00590AE
:1006B0000D92AA3AB107D9F722E0AAEAB1E001C047
:1006C0001D92A33DB207E1F70E9457130C948E27A9
:1006D0000C9400008430B0F46530A0F44E3090F4F7
:1006E00096E4899FF00111248EE0689FE00DF11DD2
:1006F0001124E40FF11DEE0FFF1FE253FE4F859111
:100700009491089581E090E0089581E0089581E05A
:1007100008950E94870308950E94890308950E9406
:100720008703089508950E9492030895A6E0B0E01B
:10073000ECE9F3E00C94EA2649835A839E833091D6
:10074000B10189819A81311115C03E81332359F05D
:10075000222349F00E94AF09182F682F89819A81BE
:100760000E948B0903C00E949D09182F69817A811C
:10077000812F04C00E94AF0969817A810E94CB1049
:100780002696E3E00C940627FC01262F4081518138
:1007900062817381848195810E9496030895CF932D
:1007A000DF93EC0161E00E94C403BE010E948C0350
:1007B000DF91CF910895CF93DF93EC0160E00E9429
:1007C000C403BE010E949303DF91CF910895089561
:1007D0000E9486080E94E7032FE78AE196E02150F5
:1007E00080409040E1F700C0000008950E94E803B7
:1007F0000E94681F08950E94E8030E948C1F0895BC
:100800000F931F93CF93DF938C0161E00E94C40389
:10081000EC01B8010E945C16882309F450C0B801AD
:10082000CE010E948F03882309F449C0B801CE018C
:100830000E94661C882309F442C0B801CE010E94C0
:1008400045178823E1F1B801CE010E94CC1B882313
:10085000B1F1B801CE010E94A91C882381F1F801F1
:100860008581882341F1C3308CE7D807D1F040F46B
:10087000C115FCE7DF0791F0C130DC47A1F01BC0D8
:10088000CB35ECE7DE07A9F0CC35FCE7DF0771F0EC
:10089000CA35DC4781F40E940E0E0DC00E94F6039B
:1008A0000EC00E94160E0E94FB0309C00E94040E97
:1008B00002C00E94120EC8010E94850301C080E0A0
:1008C000DF91CF911F910F9108950E94911E0E9478
:1008D000930408950E9497040E949A1E0895089513
:1008E00081E0089581FF02C0479A089547980895CE
:1008F000CF93DF93D82F0E947004C82F882319F05C
:100900008D2F0E9472048C2FDF91CF9108953F9A12
:1009100047980895CF93C82F0E946F048C2F0E9490
:100920007804CF91089580E00E948A0408950E947F
:10093000F91C0E948A040895CF930E94F91CC82FC5
:100940008091AC01C81779F0C093AC010E94271FB9
:100950006093AD017093AE018093AF019093B001AD
:100960008C2F0E948A04CF910895ADE0B0E0EBEBAC
:10097000F4E00C94EB26488759876A877B878C873D
:100980009D8791110E94380DCE01019627E0FC0150
:1009900011922A95E9F726E0FE013896DC010190D4
:1009A0000D922A95E1F72D8121110AC029813A8102
:1009B0004B815C816D817E818F810E94820C04C09D
:1009C0000E94CF038111F2CF2D96E2E00C9407270D
:1009D000FC012481213021F4808191810E94DC0975
:1009E0000895662319F00E94EF1302C00E944A1472
:1009F0000E94C1140895CF93882309F4A9C0C82F79
:100A00008238C1F40E94061D81FDA2C069E3809175
:100A10000001909101010E94111E0E94640D2FEFB0
:100A200083EF91E0215080409040E1F700C000004A
:100A300069E319C0833801F50E94061D80FD88C056
:100A400063E580910001909101010E94111E0E94B6
:100A5000640D2FEF80E792E0215080409040E1F755
:100A600000C0000063E580910001909101010E94A7
:100A70001F1E0E94640D6CC08438C1F40E94061DC4
:100A800082FD66C067E480910001909101010E949F
:100A9000111E0E94640D2FEF80E792E021508040EC
:100AA0009040E1F700C0000067E4DDCF8CEF8C0FD1
:100AB000813AF8F48C2F0E94EC19811149C06C2FF7
:100AC00080910001909101010E94911D882349F0BD
:100AD0006C2F80910001909101010E941F1E0E94C5
:100AE000640D6C2F80910001909101010E94111EF4
:100AF000C0CF80E28C0F883048F4C77081E001C01D
:100B0000880FCA95EAF70E941B0DB3CFEBE5EC0FF7
:100B1000E33040F4F0E0E45BFE4F808190E00E941F
:100B2000311D16C0E8E5EC0FEB3150F4F0E0EE0FAC
:100B3000FF1FEA5EFE4F808191810E94561D08C012
:100B400083E38C0F833120F461E08C2F0E94F10449
:100B5000CF910895882309F468C0823879F40E94FF
:100B6000061D81FF62C069E380910001909101013F
:100B70000E94111E0E94640D69E310C08338B9F40D
:100B80000E94061D80FF51C063E580910001909195
:100B900001010E94111E0E94640D63E58091000115
:100BA000909101010E941F1E0E94640D08958438D7
:100BB00079F40E94061D82FF38C067E4809100012D
:100BC000909101010E94111E0E94640D67E4E6CF1E
:100BD0009CEF980F913A10F4682FE0CF90E2980FB5
:100BE000983050F4877091E001C0990F8A95EAF728
:100BF000892F0E94210DD8CF9BE5980F933028F4C0
:100C000080E090E00E94311D089598E5980F9B3197
:100C100028F480E090E00E94561D089593E3980F19
:100C2000933118F460E00E94F10408951F93CF936C
:100C3000DF93182FEB010E94FB04209741F08FEC0B
:100C400097E00197F1F700C000002197F6CF812FC0
:100C50000E94AA05DF91CF911F910895893319F061
:100C600060E070E002C060E570E00E941606089542
:100C7000882321F00E941B0D0E94640D0895882393
:100C800021F00E94210D0E94640D0895A0E0B0E0C3
:100C9000ECE4F6E00C94E5267C01162FC72FFC014E
:100CA000D581068102950F700E94110D8823E9F00D
:100CB000DD23D9F08C2F807F803451F080E2810FCA
:100CC000883098F0011104C08C2F807E803269F04A
:100CD0008091AD0282FF09C082E00E94D80D0E947F
:100CE000110D91E0D82ED92601C0D12CCC2EC29462
:100CF0008FE0C8228C2D90E08C30910508F091C1D6
:100D0000FC01EA5AFF4F0C94CE268C2F807FCF70C7
:100D1000882311F0C295C07FDD2399F0CC2309F41C
:100D20006CC180E2810F883010F0111104C08C2F4B
:100D30000E941B0D03C08C2F0E942B0D0E94640D7E
:100D40005CC1812F0E94AA05CC2309F46AC180E20C
:100D5000810F883038F1112329F18C2F0E94310D39
:100D600024C08C2F807FCF70803211F0C295C07F5D
:100D7000112319F0113099F13CC08091AD0282FD30
:100D800017C0DD2349F0CC2329F08C2F0E941B0DC6
:100D90000E94640D80E032C180E00E94AA05CC234D
:100DA00009F43FC18C2F0E94210D0E94640D39C1AE
:100DB000DD2349F0002309F1013009F032C18C2F05
:100DC0000E94420D2EC101112CC18C2F0E943F06A2
:100DD0008C2F0E944E0D8C2F0E94AB0D22C1DD2363
:100DE00021F0063008F01DC108C0053008F019C117
:100DF00015C0DD2331F0011100C18C2F0E9438068F
:100E000010C1002359F0193309F008C1FFEF23EF97
:100E100081E0F15020408040E1F7FEC08C2F0E941D
:100E20003F06FFC08C2F86958695837019F0813020
:100E300061F0F7C0DD2321F0812F9C2F937002C059
:100E400080E090E00E94311DF4C0DD2321F0812F6D
:100E50009C2F937002C080E090E00E94561DE9C074
:100E60006D2F812F0E94F104E4C08C2F837079F5DF
:100E7000D111DBC0412F429546954770440F440F76
:100E8000212F2F70042E01C0220F0A94EAF714FFBD
:100E900008C08FE090E001C0880F4A95EAF780957E
:100EA00001C080E0C695C695C370822BC23049F060
:100EB00058F4C13019F00E94DD08B7C00E94D7086D
:100EC000B4C00E94E308B1C00E94D408AEC0DD23C4
:100ED00019F08C2F817001C08695882309F4A5C074
:100EE000412F429546954770440F440F212F2F7094
:100EF000042E01C0220F0A94EAF714FF08C08FE005
:100F000090E001C0880F4A95EAF7809501C080E023
:100F1000C695C695C370822BC23049F058F4C130D3
:100F200019F00E94290981C00E9423097EC00E94F5
:100F30002F097BC00E94EC0878C0CF70DD2339F008
:100F40008C2F0E94FE08812F0E9438066EC0812FD0
:100F50000E943F068C2F0E940A0967C0123F21F1B0
:100F600028F4103F41F0113FC1F043C0133F19F185
:100F7000143F79F03EC0DD2341F0053008F051C048
:100F80008C2F8F710E9417094CC0063008F049C0A1
:100F9000F7CF8091AD0282FD18C0DD2339F08C2F90
:100FA0008F710E94FE083DC0DD23C9F38C2F8F7125
:100FB0000E940A0936C0DD2329F08C2F8F710E9410
:100FC000F5082FC00E94F1082CC0DD2349F0CF7135
:100FD0008C2F0E94FE0863E08C2F0E94BA0D21C066
:100FE00081E00E94D80D0230E0F082E00E94D80D2E
:100FF00018C0DD2331F0002391F2812F0E94FB0401
:1010000010C0002399F2193349F49FEFE3EFF1E0A8
:101010009150E040F040E1F700C00000812F0E94B5
:10102000AA0588EF8C0D843020F40E94F91C0E94E0
:101030008A04DD2089F00E940D0D80FD0DC0F701AE
:1010400015820E94070D0E94FE08C7010E944908F0
:101050000E94070D0E940A09CDB7DEB7E8E00C94A4
:1010600001270F931F93CF93DF93EC016881798160
:101070008D810E94E7098C010E9435090E94C708F2
:10108000B801CE010E944606DF91CF911F910F91CA
:101090000895CF93DF93FC0124812223D1F0EC014A
:1010A0000E94000481110FC00E94110D882389F055
:1010B0008D81882371F08091AD0282FF0AC082E0A9
:1010C0000E94D80D06C0CE010E943108CE010E94B8
:1010D000DB03DF91CF91089580E090E00E94311D05
:1010E00080E090E00E94561D0E94380D0E94640D21
:1010F0000E94E0140E94C114089580910001909113
:1011000001010E942D1E0E946C0808950E94280D66
:101110000E947D08089592959F70963079F010F4A2
:10112000925001C09A50923068F4803F69F018F4F0
:10113000883E40F409C0843F29F406C0883E20F070
:10114000813F11F080E0089581E00895FC01248141
:10115000222339F0808191810E94DC090E948B0852
:10116000089580E00895A6E0B0E0E9EBF8E00C9483
:10117000EB262696E2E00C940727A7E0B0E0E3EC2C
:10118000F8E00C94EB262796E2E00C9407270895EC
:1011900008950E94C80808950E94C90808950E94F1
:1011A000CC088093CE0108950E94CF0808959091B5
:1011B000CE01892B0E94CF0808959091CE018923FA
:1011C0000E94CF0808959091CE0189270E94CF08F0
:1011D00008950E94C80808950E94E9088093CD01EF
:1011E000089580E00E94EC08089591E001C0990FF5
:1011F0008A95EAF7892F0E94EC08089521E030E0F3
:1012000001C0220F8A95EAF78091CD01822B0E94BE
:10121000EC08089521E030E001C0220F8A95EAF73A
:1012200020958091CD0182230E94EC08089521E051
:1012300030E001C0220F8A95EAF78091CD01822724
:101240000E94EC0808959091CD01892B0E94EC0832
:1012500008959091CD0189230E94EC080895909102
:10126000CD0189270E94EC0808950895962F977064
:10127000A1E001C0AA0F9A95EAF793E076956795E9
:101280009A95E1F7FB01EE0FFF1F6E0F7F1FFA012A
:10129000E60FF71F40E050E0682F70E090819B015F
:1012A000042E02C0369527950A94E2F72170219505
:1012B00029272A23292721934F5F5F4F4330510568
:1012C00069F708959B01782F777043E0969587958D
:1012D0004A95E1F7FC01EE0FFF1F8E0F9F1FF901EA
:1012E000E80FF91F40E050E080E0219130E0072E48
:1012F00002C0369527950A94E2F721703327042E11
:1013000001C0220F0A94EAF7822B4F5F5F4F4330F0
:10131000510559F70895282F953070F48E3060F4F8
:10132000862F622F70E02EE0929F600D711D1124B8
:1013300042EB51E00E9436090895953070F48E30EA
:1013400060F4292F90E062EB71E03EE0239F800D76
:10135000911D11240E946209089580E00895CF92A2
:10136000DF92FF920F931F93CF93DF936C01009155
:10137000CD018091CE01082BC3E0D0E010E0C80180
:101380000C2E02C0959587950A94E2F780FD04C063
:101390002197A8F7F12C07C0FC2EB6018C2F0E94D4
:1013A000D7100197A9F38F2DDF91CF911F910F9146
:1013B000FF90DF90CF900895CF93DF93EC010E94D0
:1013C000AF09BE010E94D710DF91CF9108951F93FE
:1013D000CF93DF93EB019091B101992321F0CB01E1
:1013E0000E94DC0913C0882349F0CB010E94AF0999
:1013F000182F682FCE010E948B0904C0CB010E94D8
:101400009D09182FBE01812F0E94D710DF91CF9127
:101410001F910895E1E0F0E0DF0102C0AA0FBB1FB9
:101420006A95E2F7BD01DF0102C0AA0FBB1F4A9512
:10143000E2F7AD01462B01C0EE0F2A95EAF7942F93
:101440009823491302C08E2B0895E0958E230895AA
:10145000242F462F682F8091CD010E940A0A0E94F6
:10146000EC0808951F93CF93DF93C091CF0117E04D
:101470008091D001C817A1F0D0E01C9FF0011D9F02
:10148000F00D1124EF52FE4F2081318142815381B2
:101490006481758186810E94BD082196C770E8CF5E
:1014A000DF91CF911F9108952091090230910A0296
:1014B00040910B0250910C0260910D0270910E024E
:1014C00080910F020E94BD080895CF93DF93809111
:1014D0000F0282958F7009F04EC080910E02882312
:1014E00009F449C08091CF014091D00150910A0286
:1014F00060910902C0910B02D0910C0277E0841731
:10150000D1F190E0789FF001799FF00D1124DF0177
:10151000AF52BE4F14962C911497222349F1119685
:101520002C911197251324C02C91261321C01596B8
:101530002C91159721111CC012962D913C91139757
:101540002C1B3D0B283C310598F480910F028F70C5
:10155000806180930F02E952FE4F80818F7080611D
:10156000808389E092E00E9449080E94320A03C009
:1015700001968770C4CFDF91CF9108952091CF015C
:101580009091D00157E02917A9F030E0529FF00167
:10159000539FF00D1124EF52FE4F7181761306C058
:1015A0007081781303C07581741306C02F5F3F4F9D
:1015B0002770E9CF80E0089581E00895A4E1B0E0CC
:1015C000E4EEFAE00C94E1268C0186E0F801DE01FD
:1015D0001F9601900D928A95E1F7F8018481E580CC
:1015E00099E0A92E92E0B92E90910D02911118C0A8
:1015F000882309F480C1EE20D9F1C8010E94A60811
:10160000F82E8823A9F187E0F801D50101900D9209
:101610008A95E1F7C5010E94E8040E94650A98C016
:10162000F801C080D18082809380F0900E022091DA
:101630000B0230910C02A401421B530BFF2009F452
:1016400006C1483C510508F0AFC0882309F455C1D4
:1016500080910F02282F207F90910A02222361F0AF
:101660009D1509F462C0C8010E94A608811173C0CB
:10167000C8010E9449083FC19D1115C090910902FF
:101680009C1111C0E1100FC08F70806180930F0218
:101690000E94540A89E092E00E94490880910F025A
:1016A000F801868326C1E1103AC040E06D2D8C2DF3
:1016B0000E94BE0A40E06D2D8C2D0E94BE0AE82ECD
:1016C000811117C1CF86D88A8F8598890E94DC093D
:1016D000292F22952F70243020F49F70223028F07B
:1016E00009C02A50223080F014C0992349F081119A
:1016F00007C013C0992321F0F8019681907F69F00B
:10170000805E883030F409C0803F38F0815F8330DC
:1017100020F0C8010E944908EF2CFE2CEEC08091F9
:101720000F02816080930F02E4C0909109029C1126
:101730009ACFE11098CFF8018683C8010E9449082A
:1017400087E0F801A9E0B2E001900D928A95E1F7F7
:101750000E94540AD2C0EE2009F48ACF20910F02D1
:10176000822F82958F7090E002978CF08091090211
:1017700090910A02998788879B868A8680910D02BC
:101780008C871D862E87CE0108960E94490887E027
:10179000F801A9E0B2E001900D928A95E1F70E946C
:1017A000650A0E94540AA7C090910F02292F207F3A
:1017B000A1F4682D9A8A898AA6017A899E2D0E94B1
:1017C000B30889E092E00E94490887E0F501119290
:1017D0008A95E9F70E94540A8CC0882309F48DC0C9
:1017E00080910A028D1111C0809109028C110DC0E7
:1017F000E1100BC0F8019683C8010E94490887E0F8
:10180000F50111928A95E9F778C0C8010E94A608EF
:10181000882309F42DCFEE2009F42ACF20910F025E
:10182000822F82958F7090E002970CF4B0CF809158
:10183000090290910A029A8389839C828B8280910B
:101840000D028D831E822F83CE0101969ECF483CD0
:10185000510508F040C0882309F44DC0FE2CEE204D
:1018600009F406CF80910A028D1127C080910902E8
:101870008C1123C090910F0290FD16C0892F829584
:101880008F70282F30E02115310571F0F801968313
:101890002F30310509F451CF8F5F982F9295907FAB
:1018A00086818F70892B48CF87E0F801A9E0B2E0EC
:1018B00001900D928A95E1F720C0C8010E94A60808
:1018C000811165CF80910F02816080930F02C80162
:1018D0000E94490812C0682D9A8A898AA6017A89CD
:1018E0009E2D0E94B30887E0F50111928A95E9F7D1
:1018F0002FCFF12C02C0FF24F3948F2D6496ECE0DF
:101900000C94FD26AEE0B0E0E8E8FCE00C94EA269A
:10191000288739874A875B876C877D878E87CE01CA
:1019200008960E94DE0A882361F06C856623A9F17F
:10193000288539854A855B857D858E850E94BD0811
:101940002CC087E0FE013896DE01119601900D92C1
:101950008A95E1F76C85662301F12091D00130E092
:10196000C9010196877099274091CF0150E08417F3
:101970009507E1F16D8397E0929FD001939FB00DA1
:101980001124AF52BE4FFE01319601900D929A95EF
:10199000E1F78093D0010E94320A17E08091CF01D5
:1019A0009091D001891779F1189FC00111248F52AD
:1019B0009E4F0E94DE0A882331F1E091CF011E9FE5
:1019C000F0011124EF52FE4F208131814281538179
:1019D0006481758186810E94BD088091CF0190E06D
:1019E0000196877099278093CF01D8CF0E948608EF
:1019F0001092D0011092CF01E9E0F2E087E0DF0120
:101A00001D928A95E9F72E96E3E00C9406278091C3
:101A1000300286958695869508958091300287706C
:101A2000089590913002977081E009F480E0089564
:101A300080915402089590915402892B809354020E
:101A400008958095909154028923809354020895BB
:101A500010925402089590915302892B809353025F
:101A6000089580959091530289238093530208959D
:101A700010925302089508950E943B0D08950E940C
:101A80003C0D089590913202292F2823821729F0C6
:101A9000982B909332020E943F0D0895909132024C
:101AA000292F282331F080958923809332020E94C8
:101AB0003F0D089580913202882329F0109232025E
:101AC00080E00E943F0D0895CF93DF93E0910001E5
:101AD000F0910101809154028083E0910001F09126
:101AE0000101908180915302892B80838091320281
:101AF000882381F0E0910001F09101019081892B10
:101B0000808380910001909101010E947B1D8111D1
:101B10000E945A0DC0910001D091010140E250E0B5
:101B200060E172E0CE010E942627892B59F080E205
:101B3000FE01A0E1B2E001900D928A95E1F7CE019D
:101B40000E94091DDF91CF9108950E943B0D0895D9
:101B50000E94A50D089590913102292F282331F07C
:101B600080958923809331020E94A80D08950E94D8
:101B70003B0D08959091AD0292FF11C098E0899FAE
:101B800090011124262B209330020E94FE088091A0
:101B900030028695869586950E94B70D08950E941D
:101BA000FE0808951092300280E00E94B70D08955B
:101BB000909130028095892380933002282F2770DE
:101BC00069F4981759F09091AD0292FF07C086957D
:101BD000869586950E940A090E94D20D08959091DB
:101BE000AD0292FB222720F9281769F080FB92F9B9
:101BF0009093AD028091AC029091AD020E94380E9C
:101C000082E00E94D80D08958091AD0282FB882762
:101C100080F991E089270E94EF0D089581E00E94EC
:101C2000EF0D089580E00E94EF0D08956FEF7FEFB4
:101C300080E090E00E947827089580E090E00E9484
:101C40004427863E9E4F19F40E94F015089580E0C7
:101C5000089582E090E00E943C27089583E090E0A0
:101C60000E943C27089584E090E00E944427089554
:101C7000BC0184E090E00E9478270895AB01BC018C
:101C80008FE090E00E946C270895AB01BC0183E1D6
:101C900090E00E946C27089560E070E0CB010E9404
:101CA000450E089560E070E0CB010E943E0E0E9458
:101CB0004C0E0895A8E0B0E0E0E6FEE00C94EB26C0
:101CC00066EE7EEF80E090E00E94782760E082E0A0
:101CD00090E00E945A2760E083E090E00E945A273B
:101CE0001092CE0160E074E184E090E00E947827D9
:101CF00060E086E090E00E945A276FEF87E090E076
:101D00000E945A2740E050E0BA0188E090E00E942B
:101D10006C2760E084E290E00E945A2760E087E14F
:101D200090E00E945A2760E08CE090E00E945A27E1
:101D300060E08DE090E00E945A2719821A821B828F
:101D40001C821D821E821F82188648E050E068E1D6
:101D500070E0CE0101960E944A2740E050E0BA01AF
:101D600080E290E00E946C2780E00E9409160E94A9
:101D70003E160E94520E2896E2E00C9407270E941D
:101D80005A0E0895682F8EE090E00E945A27089519
:101D9000A6E0B0E0EEECFEE00C94E9260E941B1FEA
:101DA0008C0180915502909156020817190781F015
:101DB00019821A820E941B1F682F49815A81792F2C
:101DC00080E090E00E94B504109356020093550203
:101DD0002696E4E00C9405270E94271F6093650275
:101DE0007093660280936702909368026093610229
:101DF000709362028093630290936402089581E07D
:101E0000089581E008950E94010F089508950E94A9
:101E1000060F08950E94060F08950E940A0F089564
:101E20000E94060F08950E94100F08950E94060F49
:101E3000089587EC91E10E9464130E94160F0E949E
:101E4000130F08950E94070F0E94060F08950E9425
:101E5000E3110E94870408950E94121F0E944E16EB
:101E60000E94BC120E94270F0E940D0F0895A6E049
:101E7000B0E0EDE3FFE00C94DF260E94FF0E81113D
:101E800003C00E94C80E62C00E94D21227E5E22E53
:101E900022E0F22E5701D12CF501019111915F0141
:101EA0008D2D0E94FE1180279127D394F5E0DF1637
:101EB00019F0892B89F302C0892B19F380916902EB
:101EC00081FD0E9407120E94030F782E10E0662405
:101ED0006394812F0E94FE114C01F701A080B18014
:101EE000A826B926A114B10449F100E0CC24C3947A
:101EF000D12CC5018C219D21892BC1F07720B1F017
:101F000009831A830E941B1F9C838B836D8221E0AF
:101F1000C4018C219D21892B09F420E049815A813B
:101F20006B817C818D81922F0E94B5040F5FCC0C58
:101F3000DD1C0E30F1F6F701918280821F5FF2E026
:101F4000EF0EF11C153029F60E94EC0E0E940215CE
:101F50000E949C042696EEE00C94FB261F93CF93E0
:101F6000DF930E94DC10EC01C11580E5D807E8F58D
:101F7000C11590E4D90708F0A8C0C03ED10530F5DE
:101F8000CD3CD10508F094C0C83AD10578F4C53AE3
:101F9000D10508F083C0C130D10509F47CC008F434
:101FA000F2C0C430D10508F0F1C0EDC0C33CD1058A
:101FB00008F0E9C0C85AD0E0CC0FDD1FC15BDE4F8E
:101FC0000990D881C02DCE019464E1C0C11580E292
:101FD000D80708F0CBC0C11591E0D90708F06BC055
:101FE000C83ED10508F4D2C0CEC0C03682E5D807BD
:101FF00028F5C03492E5D90708F079C0C03282E5EF
:10200000D80708F06CC0C11592E5D90708F481C063
:102010004C2F4695469580E2489FA0011124C3703D
:1020200021E030E0C90102C0880F991FCA95E2F78C
:10203000EA01C82BD92BCE019D68A9C0C03A82E520
:10204000D807B8F48C2F8F71C03892E5D90708F003
:102050007BC08695869590E2899F90011124C3707C
:1020600081E090E002C0880F991FCA95E2F79A6854
:1020700068C0C03C82E5D80708F46DC0C03E92E558
:10208000D90708F080C0CF71DD27DC2FCC27CE0127
:10209000806F906A7CC081E090E079C0C55AD0E042
:1020A000CB57DE4F8881C82FD0E0CE0190646FC03F
:1020B000CE0190656CC08D2F0E947811182FCE0133
:1020C00099270E94DC101F715CC0CE0199270E94E5
:1020D000DC10CC27DF70D06A8C2B9D2B58C0CF71C1
:1020E000D0E0DC2FCC27CE01816F906A50C08C2FBE
:1020F0008F718695869590E2899F90011124C37017
:1021000081E090E002C0880F991FCA95E2F79C68B1
:1021100018C08C2F8F710E94781195E0D695C795C5
:102120009A95E1F7CF70D0E0DC2FCC27282F30E054
:1021300084FF05C084E0220F331F8A95E1F7D06940
:10214000CE01822B932B23C090E0D82FCC27CE0139
:10215000846F906A1CC08C2F8F710E9478118F71D0
:1021600090E0D82FCC27CE01906211C08D2F8F71B7
:102170000E947811182FCE0199270E94DC101F7140
:102180009062912B04C080E090E001C0CE01DF910D
:10219000CF911F910895753038F46E3028F4462F92
:1021A000672F0E94E41A089580E090E008950E944D
:1021B000CB100E94AE0F08958238910569F1B0F4FA
:1021C0008133910509F475C048F48932910509F409
:1021D00067C08A32910509F471C00895853391056D
:1021E00009F459C089339105B9F00895833E9105EA
:1021F00089F138F4803E9105D1F0823E910529F1B4
:102200000895863E9105C9F1873E9105D9F1843E36
:10221000910509F06CC027C02091AC0220FD57C089
:1022200021FD55C02091AD0223FD5BC00895809132
:10223000AC0280FD48C08091AD0280FF48C0809113
:10224000AC0284FD46C083EE51C08091AC0282FF97
:102250003CC0F5CF8091AC0282FD37C08091AD02C9
:1022600080FD35C0ECCF8091AD0281FF36C08091FA
:10227000AC0284FD2EC087EE39C08091AC0283FF92
:102280002AC0F5CF8091AC0283FD25C08091AD02BC
:1022900081FD23C0ECCF8091AC0285FD22C01FC020
:1022A0008091AC0285FD1BC08091AD0283FF19C0F7
:1022B0000AC08091AC0286FD16C017C08091AC02A6
:1022C00086FD13C010C089E311C082EE0FC080EEFE
:1022D0000DC080E00BC086EE09C084EE07C085E328
:1022E00005C089E203C08AE201C081E390E008955D
:1022F0009091AC0292FF10C041E0282F247124304D
:1023000009F040E031E0282F2871283009F030E052
:10231000431711F02CE0822793FF10C041E0282FD3
:102320002471243109F040E031E0282F2871283150
:1023300009F030E0431711F02CE082273091AD0214
:1023400030FF10C051E0282F2171213009F050E0FA
:1023500041E0282F2871283009F040E0541711F08F
:1023600029E0822731FF10C041E0282F217121315F
:1023700009F040E031E0282F2871283109F030E0E1
:10238000431711F029E0822794FD877E089580E0AD
:1023900008950E94160E08950E94D2128FE59AEEBB
:1023A0000197F1F700C000000E94D21280E00E9465
:1023B000FE1180FF04C00E94C9110E94681F089589
:1023C0000E94CC1108950E941D0E811102C00E942E
:1023D000BF0E0E94290E809369020E94330E9093D3
:1023E000AD028093AC020E94E0110E942E0E0E946A
:1023F000D4088091CD010E94E9080895E82FF0E00B
:10240000EE0FFF1FE854FD4F8081918108950895DC
:1024100080E58A95F1F7089500C008950E9408129A
:10242000089508950E94111208950E9412120895AD
:102430000E94111208950E9418120895F894E82F2E
:10244000E295EF70F0E031A1282F2F7081E090E04D
:1024500001C0880F2A95EAF7982F9095932391A3AE
:1024600092A1892B82A3789408950F931F93CF9301
:10247000DF93C6E9D1E089918F3F11F00E941E12CF
:1024800081E0CB39D807B9F7C8E8D1E006E911E017
:1024900089918F3F11F00E941E120C171D07C1F782
:1024A000DF91CF911F910F910895A0E0B0E0EBE58F
:1024B000F2E10C94E4268C01C62FD0E0CE018A56BE
:1024C0009E4F6C01FC0190819F3F09F450C0B62ED5
:1024D000F894E92FE295EF70F0E081A19F7021E080
:1024E00030E001C0220F9A95EAF7822B81A382A1E6
:1024F0002095282322A378940E940C12E8E8F1E0AA
:1025000046E951E021E030E0E12CF12C61916F3F90
:1025100089F0A62FA295AF70B0E090968C9190E0D4
:102520006F7002C0959587956A95E2F780FD02C0AD
:10253000C90102C080E090E0E82AF92A220F331F87
:102540004E175F0719F7F60180818F3F11F00E9447
:102550001E1261E0E114F10409F460E08B2D0E9489
:102560000E12CC0FDD1FC00FD11FF982E882CDB74C
:10257000DEB7E9E00C9400270E9435128AE0E8EB10
:10258000F2E0DF01982F1D929A95E9F7EEEAF2E06A
:10259000DF011D928A95E9F785E00E940D130E94E4
:1025A0001B120895AAE0B0E0E8EDF2E10C94E826F1
:1025B0008E010F5F1F4F8AE0F80111928A95E9F7AB
:1025C000F12C6F2DC8010E945512F394F5E0FF1213
:1025D000F8CF4AE050E0B8018EEA92E00E94262748
:1025E00021E0009709F420E0892B41F08AE0F8010E
:1025F000AEEAB2E001900D928A95E1F745E068EB12
:1026000072E08EEA92E00E940E13182F0E941512BB
:10261000812F2A96E5E00C9404270895EF92FF920B
:102620000F931F93CF93DF937C018B01C42F222341
:1026300049F081E080936C020E941B1F90936B0213
:1026400080936A0280916C02811102C080E01CC0FC
:1026500080916A0290916B020E94331F0597B0F33C
:10266000D0E0CC0FDD1FAE01B701C8010E942627C4
:10267000892B39F0AE01B701C8010E94332781E0F0
:1026800001C080E010926C02CDB7DEB7E6E00C949A
:1026900003270E941B210E942C0F0E9428210895CD
:1026A0000E942D210E94370F0E94472108950E9409
:1026B000B21E0E9401210E94190F0E9449130E941C
:1026C00050130E94220FFBCF9093AB018093AA017D
:1026D0000895282F35EB2303C001112497FF03C071
:1026E0008058910902C080589F4F892F089580918A
:1026F000730280FF06C06091070170E0660F771FCC
:1027000026C081FF04C06091070184E005C082FFFC
:1027100007C06091070188E0689FB001112417C0CD
:10272000909172029923D1F060910601961788F773
:102730002091070188E0289F90011124929FA00119
:10274000939F500D112470E0CA010E94BA26603890
:10275000710540F46115710519F406C068E070E078
:10276000862F08958FE7089581E008958091730280
:1027700080FF08C06091030170E0759567957595BD
:10278000679521C081FF06C06091030170E07595D7
:10279000679519C082FF04C06091030170E010C00A
:1027A00090917102992399F0609102019617A0F718
:1027B00080910301899FC001112470E00E94BA2614
:1027C0006038710540F46115710519F406C061E0C7
:1027D00070E0862F08958FE7089581E008958D3C7D
:1027E00021F40E947713819504C08E3C29F40E9445
:1027F00077138093770208958F3C21F40E9477131A
:10280000819504C0803D29F40E947713809376025D
:102810000895893D19F40E94B61305C08A3D31F42C
:102820000E94B61381958093780208958B3D21F420
:102830000E94B613819504C08C3D29F40E94B61302
:102840008093790208959FE2980F983078F421E000
:1028500030E0A90102C0440F551F9A95E2F7CA0162
:1028600090917502892B8093750208958D3D21F416
:102870008091730281600BC08E3D21F480917302C0
:10288000826005C08F3D29F480917302846080933B
:10289000730208958D3C39F49091770297FF35C00B
:1028A0001092770259C08E3C29F490917702191644
:1028B000BCF32BC0909176028F3C29F497FF25C082
:1028C0001092760249C0803D19F41916CCF31DC050
:1028D00090917802893D29F41916BCF4109278027F
:1028E0003BC08A3D19F497FF10C0F8CF8B3D39F4F7
:1028F0009091790297FF09C0109279022DC08C3D0A
:1029000021F4909179021916BCF39FE2980F983048
:1029100080F421E030E0A90102C0440F551F9A95D0
:10292000E2F7CA0180959091750289238093750220
:1029300013C08D3D21F4809173028E7F0BC08E3DBC
:1029400021F4809173028D7F05C08F3D29F4809121
:1029500073028B7F8093730280917602811106C08F
:1029600080917702811102C01092720280917802E8
:10297000811106C080917902811102C0109271020A
:1029800008950E941B1F20917602211104C02091FE
:102990007702222321F09093700280936F0220919E
:1029A0007802211104C020917902222321F0909312
:1029B0006E0280936D0284E792E00E94231D0895C9
:1029C000E4E7F2E086E0DF011D928A95E9F71092D4
:1029D000720210927102109273020895FC018281BA
:1029E00081110DC0838181110AC08481811107C0CA
:1029F00091E08581811101C090E0892F01C081E0C3
:102A000081700895A6E0B0E0E8E0F5E10C94EA26D4
:102A100086E0E4E7F2E0DE01119601900D928A95DE
:102A2000E1F71092760210927702109278021092DB
:102A300079028B81811104C08C81882309F456C0EE
:102A400080916F02909170020E94331FAC019091AF
:102A50007202992339F02091080130E024173507DC
:102A600058F044C0209109018AE0289F9001112468
:102A70002417350718F03AC09F3F19F09F5F9093D5
:102A800072021B81112361F00E947713111614F05A
:102A90009FEF01C091E0989F902D112490937602B2
:102AA0001C81112361F00E947713111614F09FEF1F
:102AB00001C091E0989F902D11249093770280910E
:102AC0007602882399F010917702112379F00E9401
:102AD0006913811101C081E080937602812F0E94E9
:102AE0006913811101C081E0809377028D8181118A
:102AF00004C08E81882309F456C080916D029091A4
:102B00006E020E94331FAC0190917102992339F03B
:102B10002091040130E02417350758F044C020917B
:102B200005018AE0289F900111242417350718F029
:102B30003AC09F3F19F09F5F909371021D8111234E
:102B400061F00E94B613111614F09FEF01C091E0DE
:102B5000989F902D1124909378021E81112361F08B
:102B60000E94B613111614F09FEF01C091E0989FD8
:102B7000902D11249093790280917802882399F006
:102B800010917902112379F00E946913811101C01B
:102B900081E080937802812F0E946913811101C026
:102BA00081E080937902BE016F5F7F4F84E792E0FE
:102BB0000E943F1E811105C084E792E00E94EE143E
:102BC00081110E94C11486E0FE013196A4E7B2E0B3
:102BD00001900D928A95E1F72696E3E00C94062782
:102BE00085E290E00E943C27833281F486E290E007
:102BF0000E943C27893051F487E290E00E943C27F4
:102C000091E0853209F090E0892F01C080E0817069
:102C10000895CF93C82F811102C06FEF01C063E206
:102C200085E290E00E945A27C11102C06FEF01C0F7
:102C300069E086E290E00E945A27C11102C06FEF5E
:102C400001C065E287E290E00E945A27CF91089583
:102C5000089588E290E00E943C27682F70E080E0B1
:102C600090E008950895CF93C62F0E9432166C2FDE
:102C700088E290E00E945A27CF91089580E00E9458
:102C8000091660E070E0CB010E9433160E94841A9E
:102C90000E94391B81E00E94091608950E9428169F
:102CA0000E9429160E9432160E94F015811102C05E
:102CB0000E943E16089508959C01FB01858188239A
:102CC00051F0A90157574038510530F4C9010E940D
:102CD000491B80E0089581E008952FEFFC012083D7
:102CE00008950E946D16089580E00895A0E0B0E078
:102CF000ECE7F6E10C94E326EC01D62E0E94741664
:102D00008111BEC0E8818E2F90E0FC013197E33144
:102D1000F10508F0AFC0EE59FF4F0C94CE26198292
:102D20008CE06BC08981823089F030F4813009F009
:102D3000A1C00E94271F0CC0833079F0843009F0B5
:102D400099C01A821B821C821D8296C00E9429167D
:102D50009A838B837C836D838FC0CA807E0100E061
:102D600010E0AC2CB12CC501800F911F059708F025
:102D700083C08C2D800F0E94FE11F7019383848302
:102D80000F5F1F4FF2E0EF0EF11C0E30110559F7E7
:102D900073C08981823039F0853009F06BC08A8137
:102DA0000E945B1669C06A817B818C819D810E9433
:102DB000D4260E94331660C04B816A8189810E94AB
:102DC000481A9C838D8358C02C813D81322723274C
:102DD00032274B816A8189810E94691A4DC00E9405
:102DE000841A4AC06D2DCE010E94711645C00E9402
:102DF000F01A24C00E94F21A99838A833DC06B8125
:102E000070E089819A81AE014C5F5F4F98278927D6
:102E100098270E94F51A30C06B8170E089819A81F1
:102E2000AE014C5F5F4F9827892798270E94181B97
:102E300023C00E94391B20C00E94351A89831CC000
:102E40006B8170E089819A81AE014C5F5F4F98275A
:102E5000892798270E94A21A0FC06B8170E0898190
:102E60009A81AE014C5F5F4F9827892798270E946F
:102E7000C41A02C08FEF88836D2DCE010E94F01F0F
:102E8000CDB7DEB7EAE00C94FF26CF93DF93FC01C9
:102E9000DB0115968C91882309F4DDC09F01305722
:102EA0002332310508F0D8C0EF010E94330E909311
:102EB000AD028093AC02FE01E150F047E232F10531
:102EC00020F4EB58FF4F0C94CE268091AC02816029
:102ED000AAC08091AD028860B2C08091AC028260CD
:102EE000A2C08091AC0220C08091AC0288609BC0DF
:102EF0008091AD021EC08091AD028260A0C0809121
:102F0000AC02806190C08091AC0280628CC08091E4
:102F1000AC02806488C00E9486088091AC02806800
:102F200082C08091AC02886084607DC08091AD02D7
:102F30008260816084C08091AC028E7F74C0809179
:102F4000AD02877F7CC08091AC028D7F6CC0809188
:102F5000AC0220C08091AC02877F65C08091AD0239
:102F60001EC08091AD028D7F6AC08091AC028F7EC1
:102F70005AC08091AC028F7D56C08091AC028F7B8D
:102F800052C00E9486088091AC028F774CC080911D
:102F9000AC02877F8B7F47C08091AD028D7F8E7F93
:102FA0004EC08091AC0282FB222720F991E092274B
:102FB00090FB82F990FB83F936C08091AD02982F87
:102FC000909591708E7F892B90FB81F938C080910C
:102FD000AC0286FB222720F991E0922790FB86F92C
:102FE00022C00E9486088091AC0287FB222720F92C
:102FF00091E0922790FB87F916C081E001C080E044
:103000000E94C20E1EC08091AC0284FB222720F9D0
:1030100091E0922790FB84F906C08091AC02982F32
:10302000909590FB80F98093AC020BC08091AD022B
:1030300083FB222720F991E0922790FB83F980936C
:10304000AD028091AC029091AD020E94380E0E94B8
:10305000860880E001C081E0DF91CF910895A0E073
:10306000B0E0E5E3F8E10C94E626E82FF0E0E2506A
:10307000FC4FD490282F26952695269530E0F9010F
:10308000E256FB4F0491877010E0082E02C01595A0
:1030900007950A94E2F701701127F901E257FB4FF7
:1030A000E490F12C082E02C0F594E7940A94E2F71C
:1030B00091E0E922FF24F901E258FB4FC491D0E0EE
:1030C00002C0D595C7958A95E2F7C170DD27011535
:1030D000110519F081EE0E94FB04E114F10419F0CE
:1030E00086EE0E94FB048D2D0E942E06E114F10451
:1030F00019F086EE0E94AA050115110519F081EE5E
:103100000E94AA05CD2B19F08CE20E942E06CDB7A5
:10311000DEB7E7E00C940227EF92FF920F931F9324
:10312000CF93DF93EC01162F0AE08881882309F4FE
:1031300055C0813009F043C08981813041F47E015E
:1031400082E0E80EF11C8A810E942E0609C08230BE
:1031500049F47E01E2E0EE0EF11C8A810E94FB043C
:10316000E7012FC0833041F47E01F2E0EF0EF11C45
:103170008A810E94AA05F4CF843011F0219621C0E3
:103180002A81229680E090E030E0205331092A30F5
:10319000310558F4089FA001099F500D1124C90161
:1031A000840F951F21962881EFCF009751F0EFEC07
:1031B000F7E03197F1F700C000000197F6CF0E94C9
:1031C0002F182196812F882309F4AFCFEFECF7E079
:1031D0003197F1F700C000008150F5CFCDB7DEB7D1
:1031E000E6E00C940327893289F1F0F4843171F11F
:1031F000B0F4873009F077C081E08093090184E161
:10320000809308018AE0809307018EE18093060194
:1032100088E08093030188E28093020164C092EE0B
:10322000980F9A30F0F05FC0803509F444C028F45C
:103230008F3409F058C08AE03FC0813529F08235CB
:1032400009F051C081E038C08FEF36C080917C0218
:10325000882379F110927C0210927B0210927A02FC
:1032600042C08D5180937C02833099F038F48130D4
:1032700069F08230D9F488E091E00DC0853099F092
:1032800078F0863099F482E091E005C089E091E021
:1032900002C087E091E090937B0280937A0223C082
:1032A00086E091E0F8CF83E091E0F5CF10927C02C8
:1032B0001AC080E0089586EFE0917A02F0917B02D7
:1032C000309789F02081082E000C990B820F911DF8
:1032D0008F3F910519F014F08FEF04C097FF02C0E3
:1032E000108201C0808381E00895482F50E0FA01E8
:1032F0003597EF33F10508F068C0E956FF4F0C949D
:10330000CE260E94BF0E5DC080916902817F8E7FB4
:103310008093690281E080937D0208950E94F60304
:1033200050C080916902982F9095917090FB80F920
:1033300080936902911145C0897F877F10C0809179
:10334000690281FB222720F991E0922790FB81F905
:10335000809369029923A9F1809169028160809329
:1033600069022FC08091690282FB222720F991E037
:10337000922790FB82F9ECCF8091690283FB222790
:1033800020F991E0922790FB83F9E2CF0E94860812
:103390008091AC0287FB222720F991E0922790FBD5
:1033A00087F98093AC020DC0895301C08D5191E023
:1033B00001C0990F8A95EAF7892F0E94D4080E94CC
:1033C000860881E0089581E0F8CF80E0089580E0EC
:1033D00008950E94E7190895CF93C82F80917D0228
:1033E000813069F038F08230C1F58C2F0E94F318DB
:1033F00081E039C00E94180D823289F504C00E9414
:10340000180D823261F48C2F0E94E919811104C0D9
:103410008C2F0E9475191FC081E090E01CC08C2F7A
:103420000E94E719811116C0C43189F058F4CB30DD
:1034300089F0C031B1F482E080937D0288E30E947C
:10344000F31808C0C93219F0C83321F00AC010922D
:103450007D0207C081E0817006C010927D0280E08D
:1034600002C080E0F8CFCF91089584E0089550E045
:10347000440F551F2CE1629F400D511D11249A01EC
:103480006CE8869F200D311D1124C901899608958D
:103490000F931F93CF93DF938430A0F4653090F4A3
:1034A0004E3080F40E94371A8C010E943C2790E035
:1034B000D82FCC27C80101960E943C279E01282BBB
:1034C000C90102C080E090E0DF91CF911F910F9180
:1034D00008950F931F93CF93DF93843080F465306A
:1034E00070F44E3060F4E9010E94371A8C016D2FA0
:1034F0000E945A276C2FC80101960E945A27DF911B
:10350000CF911F910F9108951F93CF93DF93D0E038
:10351000C0E010E0412F6C2F8D2F0E946A039C01A8
:10352000412F6C2F8D2F0E94691A1F5F1E3091F75B
:10353000CF5FC53071F7DF5FD43051F7DF91CF91A6
:103540001F910895EF92FF920F931F93CF93DF93F4
:10355000EA017A01E60EF71E8C01C8018996CE15A4
:10356000DF0569F0003322E0120720F40E943C27B7
:10357000888301C0188221960F5F1F4FEECFCDB711
:10358000DEB7E6E00C940327EF92FF920F931F93B0
:10359000CF93DF93EA017A01E60EF71E8C01C80192
:1035A0008996CE15DF0559F0003322E0120718F492
:1035B00068810E945A2721960F5F1F4FF0CFCDB729
:1035C000DEB7E6E00C940327843038F4653028F445
:1035D0004E3018F40E94481A089580E090E0089553
:1035E00080E1089587EA91E00895EF92FF920F93AA
:1035F0001F93CF93DF93EA017A01E60EF71E8C0149
:10360000C801875A9D4FCE15DF0569F0073A21E0C2
:10361000120720F40E943C27888301C0188221965B
:103620000F5F1F4FEDCFCDB7DEB7E6E00C94032759
:10363000EF92FF920F931F93CF93DF93EA017A01EA
:10364000E60EF71E8C01C801875A9D4FCE15DF0587
:1036500059F0073A21E0120718F468810E945A27AE
:1036600021960F5F1F4FEFCFCDB7DEB7E6E00C948A
:103670000327CF93DF93C9E5D2E060E0CE010E943B
:103680005A272196C11584E0D807B9F7DF91CF9169
:103690000895A8E0B0E0EFE4FBE10C94E126F82EF9
:1036A0008FE08F1508F474C08FEF93E00E943C27E1
:1036B00081116EC009E512E0FF2071F0011594E060
:1036C000190709F465C0C8010E943C27811101C097
:1036D000FA940F5F1F4FF0CFFE0131966F0188E023
:1036E00011928A95E9F77801FFEFEF1AFF0AC801F6
:1036F0000E943C2789831A82882309F449C08130BB
:1037000009F040C0580182E0A80EB11CC7010E9418
:103710003C278A838823E1F19FEF980F933060F470
:10372000780193E0E90EF11CC5010E943C278B83D0
:10373000882371F11C8226C0843019F54E01E3E024
:103740008E0E911C02E010E07501FFEFEF1AFF0AE8
:10375000C5010E943C27F40181934F018823C1F0E9
:103760008C3741F4E2E0F0E0EC0FFD1FE00FF11FB9
:10377000108208C00F5F1F4F57010730110521F756
:1037800007C0750160E0C6010E948C188701ABCFAD
:103790002896ECE00C94FD26CF93DF9386319C476E
:1037A00041F5EB010E94180D982F8D8120910001A9
:1037B00030910101882379F09A7A81E009F480E060
:1037C00080937E02911102C069E201C065E3C901E4
:1037D0000E94111E0AC080917E02811102C069E21E
:1037E00001C065E3C9010E941F1E0E94640D80E0B4
:1037F00001C081E0DF91CF9108950F931F93CF9384
:10380000DF93C42FD22FFC0185818823B1F0409330
:1038100081020E941B1F9093800280937F0280E2AE
:103820008C0F883008F04DC0C77081E001C0880F50
:10383000CA95EAF70E94380644C080918102481375
:1038400030C080917F02909180020E94331F883C9B
:10385000910538F510E21D0FCD17B9F080E28C0FFD
:10386000883040F4C77081E001C0880FCA95EAF73C
:103870000E943F06183010F581E09D2F977001C01F
:10388000880F9A95EAF70E943806802F0E942E062C
:103890001830B8F4D77081E001C0880FDA95EAF7E4
:1038A0000AC080E28C0F883060F4C77081E001C0EC
:1038B000880FCA95EAF70E943F0603C0802F0E9436
:1038C0002E06DF91CF911F910F9108950F93FC0168
:1038D000E851FC47E730F10590F5CB01EA52FF4F84
:1038E0000C94CE2606E221EE41EE6AE17CE723C08D
:1038F00007E225EE45EE6BE17CE71DC006E221EE16
:1039000040EE68E17CE717C007E225EE44EE69E18E
:103910007CE711C006E221EE42EE6CE17CE70BC0D1
:1039200007E225EE46EE6DE17CE705C008E221E006
:1039300045EE6EE17CE70E94FD1B80E008C0FB01C4
:103940008581882319F01092810201C081E00F91D6
:1039500008951F93CF93DF9387372CE7920721F0C9
:1039600088379C4759F031C0FB01C581CC2319F041
:103970000E94EB1C09C00E94EB1C18C0FB01C58112
:10398000CC2391F00E94EE1C0E94FE080E94F11CC4
:10399000D82F0E94EE1CC82F0E94EB1C4D2F6C2FBD
:1039A0000E94280AC0E012C00E94EE1C0E940A0970
:1039B0000E94F11C182F0E94EE1CD82F0E94EB1CB5
:1039C000412F6D2F0E94280A01C0C1E08C2FDF918A
:1039D000CF911F91089580910C01089580910B0162
:1039E000089580910A01089590938702809386023A
:1039F0000895E0918602F0918702309729F00190B6
:103A0000F081E02D0995089580E008950E94F91C49
:103A10000895FC01A0918602B0918702109791F061
:103A200080911501882341F08091AC0287FF04C08A
:103A30008081818386E08083CF011296ED91FC9195
:103A4000139709950895E0918602F09187023097C7
:103A500039F022E0DC012C930480F581E02D0995FA
:103A60000895A3E0B0E0E7E3FDE10C94EB2620919C
:103A700084023091850228173907A1F090938502BE
:103A800080938402E0918602F0918702309751F092
:103A900023E029839B838A830680F781E02DCE0172
:103AA000019609952396E2E00C940727A3E0B0E085
:103AB000ECE5FDE10C94EB2620918202309183022B
:103AC00028173907A1F09093830280938202E09136
:103AD0008602F0918702309751F024E029839B837E
:103AE0008A830680F781E02DCE0101960995239601
:103AF000E2E00C940727FC0132968091150188239F
:103B000031F08091AC0287FF02C09EE101C096E0D7
:103B100080E0915028F021912223D9F38F5FF9CFD3
:103B20000895662351F1209115012223E9F0209197
:103B3000AC0227FF19C0462F4695469546954E3153
:103B4000E0F4677021E030E002C0220F331F6A9575
:103B5000E2F7FC01E40FF11D828190E02823392374
:103B600081E0232B69F409C0FC013296089621916B
:103B7000621729F0E817F907D1F780E0089581E08E
:103B800008959C01FC0132969FEF80E04191461719
:103B900089F09F3F19F4411101C0982F8F5F863043
:103BA000A9F79F3F39F0F901E90FF11D97FDFA954B
:103BB0006283089508959C012A5F3F4FFC01428172
:103BC000461301C01282019682179307B9F7089530
:103BD000262F2695269526952E3168F4FC01E20FB6
:103BE000F11D677021E030E001C0220F6A95EAF70D
:103BF0008281282B22830895262F269526952695A7
:103C00002E3170F4FC01E20FF11D677021E030E00D
:103C100001C0220F6A95EAF720958281282322832A
:103C2000089520911501222339F02091AC0227FF3D
:103C300003C00E94E81D08950E94C11D08952091AF
:103C40001501222339F02091AC0227FF03C00E9406
:103C5000FC1D08950E94DB1D089520911501FC01B3
:103C60003296222331F08091AC0287FF02C08EE1B0
:103C700001C086E0DF011D928A95E9F70895DC0115
:103C8000FB0111969C9111978181981321C0129686
:103C90008C911297882319F09281891319C0139679
:103CA0008C911397882319F09381891311C015966D
:103CB0008C911597882319F09581891309C0149662
:103CC0009C91992339F081E02481291304C002C01A
:103CD00081E001C080E08170089508950E946D1E0A
:103CE000089583E0809388020E946E1E08958111DA
:103CF00002C081E001C082E0809388020E946E1EB3
:103D000008950E94771E089581E0809388020E94A2
:103D10006E1E08950E94841E089508950E948D1EAF
:103D200008950E948E1E08950E948D1E08950E947F
:103D30008D1E08950E948D1E0895CF930E94971E98
:103D40000E94D2120E94941EC0E08C2F0E94FE118D
:103D5000892B29F4CF5FC530C1F780E001C081E035
:103D6000CF91089585B7806885BF85B7806885BF86
:103D700008951F920F920FB60F9211248F939F9365
:103D8000AF93BF9380918902811113C08091C202C9
:103D90009091C302A091C402B091C5024196A11DA9
:103DA000B11D8093C2029093C302A093C402B0934A
:103DB000C502BF91AF919F918F910F900FBE0F9051
:103DC0001F9018958091CA02843031F10E946504D9
:103DD0001092890220E488E190E00FB6F894A8954B
:103DE000809360000FBE2093600083B7817F846062
:103DF00083BF83B7816083BF7894889583B78E7FB4
:103E000083BF0FB6F894A895809160008861809375
:103E10006000109260000FBE08950E9486080E9404
:103E20006A04089582E084BD93E095BD9DE797BD47
:103E300080936E0008952FB7F8948091C2029091FC
:103E4000C302A091C402B091C5022FBF08952FB73D
:103E5000F8946091C2027091C3028091C402909163
:103E6000C5022FBF08959C014FB7F8948091C202FC
:103E70009091C302A091C402B091C5024FBF821BB2
:103E8000930B089578941F920F920FB60F921124FE
:103E90008F939F93AF93BF938091C2029091C3027F
:103EA000A091C402B091C5020196A11DB11D8093DD
:103EB000C2029093C302A093C402B093C502BF9103
:103EC000AF919F918F910F900FBE0F901F901895FB
:103ED00081E08093E00080E28093D8001092C900D6
:103EE0008FE097E20197F1F700C0000087E090EBC8
:103EF000DC018093D3029093D402A093D502B093B7
:103F0000D6029CE088E10FB6F894A89580936000F3
:103F10000FBE90936000FFCF9CE088E10FB6F8944D
:103F2000A895809360000FBE90936000FFCF8091B2
:103F3000AA0208959B019091CA029430F1F48F7007
:103F40008093E9008FEF9091E800815095FD06C0C5
:103F50009AE69A95F1F700C08111F5CF8091E800BB
:103F600085FF0BC0BA01C90140E050E00E94EA2180
:103F70008091E8008E778093E800089543E050E058
:103F8000BC0184E00E949A1F089546E050E0BC0105
:103F900084E00E949A1F0895CF93DF93EC018091F3
:103FA0001501811105C048E050E0BE0181E00BC061
:103FB0008091AC0287FF03C040E284E002C048E089
:103FC00081E050E0BE010E949A1F80E2FE01AAE853
:103FD000B2E001900D928A95E1F7DF91CF910895BB
:103FE000603231F4BC0140E250E082E00E949A1F4E
:103FF00008958091C902811109C00E94BA230E94CC
:1040000017248091E20084608093E200089510926A
:10401000C90208950E948A1E08956091C60281E037
:10402000611101C080E00E94711E08959091CA0242
:1040300081E0943009F080E06091C6020E94771E12
:10404000089542E061EC81E00E94332342E261EC9A
:1040500084E00E94332342E261EC82E00E94332339
:1040600042E260EC83E00E9433239091CA0281E037
:10407000943009F080E06091C6020E94811E08958C
:104080008091CC02833009F463C030F4813071F048
:10409000823009F49DC008958A3009F489C08B30BC
:1040A00009F46EC0893009F0ABC020C08091CB020A
:1040B000813A09F0A5C08091E800877F8093E800ED
:1040C0008091CF029091D002892B21F460E28AE89E
:1040D00092E003C060E080E090E070E00E94742213
:1040E0008091E8008B778093E80008958091CB025F
:1040F000813209F085C08091CF029091D002009763
:1041000019F0029709F07CC08091E800877F8093C6
:10411000E8008091E80082FD05C08091CA0281110B
:10412000F8CF6EC02091F3008091F20090E0922BC6
:10413000029731F48091F100813011F0863021F442
:104140008091F1008093AA028091E8008B7754C09F
:104150008091CB02813A09F053C08091CF029091B7
:10416000D002892B09F04CC08091E800877F8093B2
:10417000E8008091E80080FFFCCF8091150137C0F6
:104180008091CB028132E1F58091CF029091D002F3
:10419000892BB1F58091E800877F8093E8000E9429
:1041A00068238091CD02809315010E9486080895AE
:1041B0008091CB02813221F58091E800877F809346
:1041C000E8000E9468238091CE028093AB0208959C
:1041D0008091CB02813AA1F48091E800877F80939F
:1041E000E8008091E80080FFFCCF8091AB028093D3
:1041F000F1008091E8008E778093E8000E946823A8
:10420000089584B7877F84BF0FB6F894A8958091EE
:104210006000886180936000109260000FBE90E0A3
:1042200080E80FB6F89480936100909361000FBE10
:104230000E94841E08950E94BA230E941724E2EE71
:10424000F0E080818460808378940E949F260895A6
:104250008DE091E00E94F41C08958091CA0285309F
:10426000A9F48091CA02853079F40E94E21E8091FF
:10427000C8028823B1F30E949D1E882391F30E94F7
:10428000D5210E948608EDCF0E940D1F0895A0E25F
:10429000B0E0EDE4F1E20C94EB268091CA028430A8
:1042A00011F583E08093E9008091E80082FF1BC054
:1042B0008091E80085FF0AC040E050E060E270E0D5
:1042C000CE0101960E942F2291E001C090E08091E2
:1042D000E8008B778093E800992329F060E2CE0113
:1042E00001960E947616A096E2E00C9407279A01A8
:1042F0004091D1025091D2020E947F210895492F0E
:10430000552743305105C9F060F44130510581F023
:104310004230510509F041C08BE590E046ED54E094
:1043200040C041325105E1F04232510531F135C012
:1043300082E190E041E355E034C099278130910556
:1043400049F028F0029749F5EEEAF4E005C0E2ED05
:10435000F4E002C0E2ECF4E0849190E0AF0121C00F
:1043600063307105D0F4660F771FFB01EC55FE4FEB
:104370004081518189E090E014C06330710568F498
:10438000FB01EE0FFF1FE256FE4F40815181FB0102
:10439000E556FE4F808190E004C080E090E040E070
:1043A00050E0F90151834083089519BC82E089BD32
:1043B00009B400FEFDCF8091D8008F7D8093D80096
:1043C0008091E00082608093E0008091E00081FDB8
:1043D000FCCF0895A0E0B0E0E0EFF1E20C94E52618
:1043E000EC018B017A010E948723811133C0E11413
:1043F000F10439F0F70180819181081B190BC80F76
:10440000D91FC12CD12C0115110519F18091E8009B
:1044100085FD16C08091E8008E778093E800E11456
:10442000F10449F0F70180819181C80ED91ED18233
:10443000C08285E00FC00E948723882321F30AC031
:1044400089918093F10001501109FFEFCF1ADF0A23
:10445000DACF80E0CDB7DEB7E8E00C940127A0E02A
:10446000B0E0E5E3F2E20C94E526EC018B017A0181
:104470000E948723811133C0E114F10439F0F70160
:1044800080819181081B190BC80FD91FC12CD12C19
:104490000115110519F18091E80085FD16C0809184
:1044A000E8008B778093E800E114F10449F0F7010C
:1044B00080819181C80ED91ED182C08285E00FC053
:1044C0000E948723882321F30AC08091F1008993F9
:1044D00001501109FFEFCF1ADF0ADACF80E0CDB724
:1044E000DEB7E8E00C9401272091D1023091D2028E
:1044F0002617370748F06115710539F42091E80057
:104500002E772093E80001C0B901FC0120E061157D
:10451000710579F18091CA028823F1F18530F1F1BA
:104520008091E80083FD3CC08091E80082FD2EC0B0
:104530008091E80080FFEBCF2091F3008091F200A2
:1045400090E0922B6115710551F08830910538F497
:1045500021912093F100615071090196F3CF21E080
:10456000089709F020E08091E8008E778093E800BA
:10457000CECF2111CFCF0AC08091CA02882361F02B
:10458000853061F08091E80083FD0AC08091E800E9
:1045900082FFF2CF80E0089582E0089583E00895DD
:1045A00081E008952091D1023091D2022617370779
:1045B00048F06115710539F42091E8002E772093B9
:1045C000E80001C0B901FC0120E06115710591F11D
:1045D0008091CA02882309F440C0853009F43FC0A5
:1045E0008091E80083FD3DC08091E80082FD2FC0EE
:1045F0008091E80080FFE9CF2091F3008091F200E4
:1046000090E0922B6115710559F08830910540F4C6
:1046100024912093F1003196615071090196F2CFF7
:1046200021E0089709F020E08091E8008E778093E0
:10463000E800CBCF2111CCCF0AC08091CA028823D9
:1046400061F0853061F08091E80083FD0AC08091BF
:10465000E80082FFF2CF80E0089582E0089583E0D1
:10466000089581E00895982F973068F59093E900B8
:10467000981739F07091EC002091ED005091F00006
:1046800003C0242F762F50E021FD02C09F5FECCFA6
:104690003091EB003E7F3093EB003091ED003D7F99
:1046A0003093ED003091EB0031603093EB0070936C
:1046B000EC002093ED005093F0002091EE0027FDD8
:1046C000E5CF80E008958F708093E90081E0089540
:1046D0008091CB0287FF11C08091E80082FD05C068
:1046E0008091CA028111F8CF11C08091E8008B77C8
:1046F0000BC08091CA02882349F08091E80080FFB6
:10470000F8CF8091E8008E778093E800089520919B
:10471000E4003091E50095E64091EC00842F817033
:1047200040FF23C08091E80080FD1DC08091CA0237
:10473000882399F0853099F08091EB0085FD11C0B8
:104740004091E4005091E5002417350729F391507A
:1047500011F09A01E1CF84E0089582E0089583E0AA
:10476000089581E0089580E008954091E80042FFB7
:10477000DDCF08950E9429240E943124E0EEF0E06C
:10478000808181608083E8EDF0E080818F77808395
:1047900019BCA7EDB0E08C918E7F8C9380818F7EC9
:1047A00080831092C90208950F931F93CF93DF93D4
:1047B0000E9429240E943124C8EDD0E088818F779F
:1047C000888388818068888388818F7D888319BCED
:1047D0001092CA021092C6021092C8021092C7022A
:1047E00000EE10E0F80180818B7F808388818160FA
:1047F000888342E060E080E00E943323E1EEF0E055
:1048000080818E7F8083E2EEF0E080818160808312
:10481000808188608083F80180818E7F8083888199
:1048200080618883DF91CF911F910F910895E8ED0A
:10483000F0E080818F7E8083E7EDF0E08081816011
:10484000808384E082BF81E08093C9020E94D423E8
:104850000895E8EDF0E080818E7F80831092E20081
:1048600008951092DA001092E10008951F920F92BD
:104870000FB60F9211242F933F934F935F936F9333
:104880007F938F939F93AF93BF93EF93FF93809109
:10489000E10082FF0BC08091E20082FF07C080919F
:1048A000E1008B7F8093E1000E949E268091DA00D8
:1048B00080FF1DC08091D80080FF19C08091DA0070
:1048C0008E7F8093DA008091D90019BC80FF0BC0E5
:1048D00082E089BD09B400FEFDCF81E08093CA0269
:1048E0000E94F91F04C01092CA020E940720809102
:1048F000E10080FF19C08091E20080FF15C0809127
:10490000E2008E7F8093E2008091E20080618093DC
:10491000E2008091D80080628093D80019BC85E0C5
:104920008093CA020E940D208091E10084FF2FC075
:104930008091E20084FF2BC019BC82E089BD09B4DC
:1049400000FEFDCF8091D8008F7D8093D8008091AC
:10495000E1008F7E8093E1008091E2008F7E809362
:10496000E2008091E20081608093E2008091C602C3
:10497000882311F084E007C08091E30087FD02C026
:1049800081E001C083E08093CA020E9416208091DA
:10499000E10083FF29C08091E20083FF25C0809160
:1049A000E100877F8093E10082E08093CA02109249
:1049B000C6028091E1008E7F8093E1008091E20049
:1049C0008E7F8093E2008091E20080618093E2001C
:1049D00042E060E080E00E9433238091F000886034
:1049E0008093F0000E940A20FF91EF91BF91AF9158
:1049F0009F918F917F916F915F914F913F912F91F7
:104A00000F900FBE0F901F9018951F920F920FB628
:104A10000F9211242F933F934F935F936F937F9344
:104A20008F939F93AF93BF93CF93DF93EF93FF93B6
:104A3000C091E900CF708091EC00D82FD17080FD3B
:104A4000D0E81092E9008091F000877F8093F00019
:104A500078940E9449251092E9008091F0008860C6
:104A60008093F000CD2BCF70C093E900FF91EF91C0
:104A7000DF91CF91BF91AF919F918F917F916F9176
:104A80005F914F913F912F910F900FBE0F901F900C
:104A90001895AAE2B0E0EFE4F5E20C94EA26EBEC1C
:104AA000F2E08091F100819322E0E33DF207C9F743
:104AB0000E9440208091E80083FF2EC18091CB02AC
:104AC0009091CC02492F50E04A30510508F024C1A2
:104AD000FA01E352FF4F0C94CE26803821F0823841
:104AE00009F01AC108C08091C7029091C8029923A9
:104AF00089F082600FC08091CF028F70873008F0FC
:104B00000BC18093E9008091EB0085FB882780F939
:104B10001092E9009091E800977F9093E8008093CD
:104B2000F1001092F100D1C0282F2D7F09F0F4C0C0
:104B3000882319F0823061F0EFC08091CD0281307E
:104B400009F0EAC0933009F080E08093C8022EC0DB
:104B50008091CD0281112AC08091CF028F702FEFFA
:104B6000280F263008F0D8C08093E9002091EB0090
:104B700020FF1CC0933021F48091EB00806214C0B0
:104B80009091EB0090619093EB0021E030E0A9015F
:104B900002C0440F551F8A95E2F74093EA00109235
:104BA000EA008091EB0088608093EB001092E900AE
:104BB0008091E800877F8093E8000E946823ACC062
:104BC0008111AAC01091CD021F778091E3008078F7
:104BD000812B8093E3008091E800877F8093E80039
:104BE0000E9468238091E80080FFFCCF8091E30061
:104BF00080688093E300111102C082E001C083E06D
:104C00008093CA0289C08058823008F085C08091A4
:104C1000CD029091CE028C3D53E0950779F583E06B
:104C20008A838AE289834FB7F894DE01139620E0E5
:104C30003EE051E2E32FF0E050935700E49120FF73
:104C400003C0E295EF703F5FEF708E2F90E0EA3087
:104C500010F0C79601C0C0968D939D932F5F2431AD
:104C600049F74FBF8091E800877F8093E8006AE2B0
:104C700070E0CE0101960E94742216C06091CF02AE
:104C80007091D002AE014F5F5F4F0E947721BC014F
:104C9000892B09F441C09091E800977F9093E80038
:104CA00089819A810E94D2228091E8008B7780933B
:104CB000E80032C0803881F58091E800877F8093DA
:104CC000E8008091C6028093F1008091E8008E7721
:104CD00072CF811121C08091CD029091CE0299278F
:104CE0000297D4F48091E800877F8093E800809158
:104CF000CD028093C6020E9468238091C602811172
:104D000006C08091E30087FD02C081E001C084E01D
:104D10008093CA020E9421208091E80083FF0AC08C
:104D20008091E800877F8093E8008091EB008062AB
:104D30008093EB00AA96E3E00C9406270895CF93A6
:104D40008091CA028823A1F0C091E900CF709091B0
:104D5000EC00892F817090FD80E8C82B1092E9004B
:104D60008091E80083FD0E944925CF70C093E9003F
:104D7000CF91089597FB072E16F4009407D077FD86
:104D800009D00E94122707FC05D03EF4909581952A
:104D90009F4F0895709561957F4F0895EE0FFF1F07
:104DA0000590F491E02D09946927962769277827C3
:104DB0008727782708952F923F924F925F926F92A4
:104DC0007F928F929F92AF92BF92CF92DF92EF929B
:104DD000FF920F931F93CF93DF93CDB7DEB7CA1B1C
:104DE000DB0B0FB6F894DEBF0FBECDBF09942A8847
:104DF000398848885F846E847D848C849B84AA84EF
:104E0000B984C884DF80EE80FD800C811B81AA817B
:104E1000B981CE0FD11D0FB6F894DEBF0FBECDBF46
:104E2000ED010895AA1BBB1B51E107C0AA1FBB1FC0
:104E3000A617B70710F0A61BB70B881F991F5A9526
:104E4000A9F780959095BC01CD010895FB01DC0187
:104E500004C08D910190801921F441505040C8F751
:104E6000881B990B0895FB01DC0102C001900D9293
:104E700041505040D8F70895F999FECF92BD81BDB9
:104E8000F89A992780B50895A8E1B0E042E050E093
:104E90000C948027DC01A40FB51F4150504048F00E
:104EA000CB01840F951F2E910E945B2741505040EB
:104EB000D0F70895262FF999FECF92BD81BDF89ABB
:104EC000019700B4021639F01FBA20BD0FB6F8944E
:104ED000FA9AF99A0FBE08950396272F0E945B272E
:104EE0000E945A27252F0E945B27242F0C945B27B2
:104EF0000196272F0E945B270C945A27DC01CB01D7
:104F0000FC01F999FECF06C0F2BDE1BDF89A3196D9
:104F100000B40D9241505040B8F70895F894FFCF77
:104F20003302280850011E0A1401030201971FCC06
:104F30001FC51FBE1F01E200E900EA00B500B60070
:104F4000B700CD008301CC008A01920194012102B7
:104F5000230224022502260227022A02B300B400FB
:104F60006F0070009F01CB019F02A002818283E24B
:104F700000E900EA00B500B600B700CD008301CC1F
:104F8000008A0192019401210223022402250226B3
:104F90000227022A02B300B4006F0070009F01CB09
:104FA000019F02A002818283F031323337909192C7
:104FB000939597343536F4F1F7F6F54422B61B068F
:0A4FC00043056505E804010521051D
:00000001FF
