:100000000C9499030C94E0030C94E0030C94E0032B
:100010000C94E0030C94E0030C94E0030C94E003D4
:100020000C94E0030C94E0030C946B290C943F2A8D
:100030000C94D7230C94E0030C94E0030C94E0039D
:100040000C94E0030C94E0030C94E0030C94E003A4
:100050000C94E0030C942E240C94E0030C94E00325
:100060000C94E0030C94E0030C94E0030C94E00384
:100070000C94E0030C94E0030C94E0030C94E00374
:100080000C94E0030C94E0030C94E0030C94E00364
:100090000C94E0030C94E0030C94E0030C94E00354
:1000A0000C94E0030C94E0030C94E00329001E0080
:1000B0001F0020002100220023002400250026002C
:1000C00027002D002E002A002A004C002B001400CF
:1000D0001A000800150017001C0018000C00120080
:1000E00013002F00300031000000490039000400E7
:1000F0001600070009000A000B000D000E000F009B
:10010000330034000000280000004B00E1002C0008
:100110001D001B000600190005001100100036002C
:1001200037003800E500520000004E00E000E30018
:10013000E20000002C0000002C0000002C00000059
:10014000E60001515000510000004F00005C3A00F1
:100150003B003C003D003E003F00400041004200AB
:100160004300440045000100010001000100C25CA1
:10017000C35CC55CC65CC75CC85CC95CCA5C01008A
:100180000100010001000100000001000100010068
:100190000100010001000100010001000100010057
:1001A0000100010000000100000001000100010049
:1001B00001000100BF5CBD5CBE5CC05C01000100D1
:1001C0000100010001000100000001000100010028
:1001D000010000000100000001000000010000001B
:1001E0000100010001000100000001000100010008
:1001F00001000100010001000100010001000100F7
:1002000001000100010001000100010001000100E6
:1002100001000100010001000100010001000100D6
:1002200001000100010001000000010001000100C7
:1002300001000100010001000100010001000100B6
:1002400001000100000001000000010001000100A8
:100250000100010001000100010001000100010096
:100260000100010001000100000001000100010087
:10027000010000000100000001000000010000007A
:100280000100010001000100000001000100010067
:100290000100010001000100010001000100010056
:1002A0000100010001000100010001000100010046
:1002B0000100010001000100010001000100010036
:1002C0000100010001000100000001000100010027
:1002D0000100010001000100010001000100010016
:1002E0000100010000000100000001000100010008
:1002F00001000100010001000100010001000100F6
:1003000001000100010001000000010001000100E6
:1003100001000000010000000100000001000000D9
:1003200001000100010001000000010000000000C8
:10033000000000002A2B2800000000000000000040
:100340000000000000000029000000002C1E3420E6
:10035000212224342627252E362D3738271E1F200C
:100360002122232425263333362E37381F04050651
:100370000708090A0B0C0D0E0F1011121314151695
:100380001718191A1B1C1D2F3130232D3504050693
:100390000708090A0B0C0D0E0F1011121314151675
:1003A0001718191A1B1C1D2F3130354C0000000086
:1003B000000000000000000000000000000000003D
:1003C000000000000000000000000000000000002D
:1003D0007E0F00D4FFFFFFC7000000781E0F05004E
:1003E000047F3F1F643214643214783C1E1E140ACA
:1003F000052223252628292A2C2D2F303233353665
:10040000383A3B3D3E4042434547494A4C4E5051A5
:10041000535557595A5C5E6062646668696B6D6FCC
:1004200071737577797B7D7F81838587898A8C8ECF
:1004300090929496989A9C9E9FA1A3A5A7A8AAACD7
:10044000AEAFB1B3B4B6B8B9BBBCBEBFC1C2C3C511
:10045000C6C7C9CACBCCCDCED0D1D2D2D3D4D5D6B3
:10046000D7D7D8D9D9DADADBDBDBDCDCDCDCDCDDE6
:10047000DDDDDDDCDCDCDCDCDBDBDBDADAD9D9D8CA
:10048000D7D7D6D5D4D3D2D2D1D0CECDCCCBCAC962
:10049000C7C6C5C3C2C1BFBEBCBBB9B8B6B4B3B191
:1004A000AFAEACAAA8A7A5A3A19F9E9C9A9896942C
:1004B00092908E8C8A89878583817F7D7B79777501
:1004C00073716F6D6B6968666462605E5C5A5957E0
:1004D000555351504E4C4A4947454342403E3D3B9F
:1004E0003A3836353332302F2D2C2A292826252329
:1004F00022FFAA7F55400001010101010101010114
:1005000002020202020202020203030303030303C4
:100510000304040404040404050505050506060691
:100520000606070707070708080808090909090A4E
:100530000A0A0B0B0B0C0C0C0D0D0D0E0E0E0F0FF3
:100540000F10101111111212131314141515161681
:100550001717181819191A1A1B1B1C1D1D1E1E1FF0
:100560002020212222232424252626272829292A3F
:100570002B2C2D2D2E2F3031323233343536373867
:10058000393A3B3C3D3E3F40414243444546474863
:10059000494A4C4D4E4F50515354555658595A5B39
:1005A0005D5E5F616264656668696B6C6D6F7072D9
:1005B000737577787A7B7D7E8082838587888A8C45
:1005C0008E8F91939596989A9C9EA0A2A3A5A7A979
:1005D000ABADAFB1B3B5B7BABCBEC0C2C4C6C9CB70
:1005E000CDCFD1D4D6D8DBDDDFE2E4E7E9EBEEF026
:1005F000F3F5F8FAFDFF22034B00650079002000B7
:1006000036003500200055006E0069007600650058
:100610007200730061006C000000100346006F0060
:10062000780020004C00610062000000040309040F
:1006300009025B00030100A0FA09040000010301A4
:100640000100092111010001224000070581030872
:10065000000A090401000203000000092111010041
:100660000122220007058203200001070503032061
:10067000000109040200010300000009211101002A
:10068000012232000705840320000A120110010034
:100690000000084C4604000100010200010660FF52
:1006A0000961A1010962150026FF009520750881E6
:1006B000020963150026FF00952075089102C00508
:1006C000010980A101850319012AB700150126B788
:1006D00000950175108100C0050C0901A101850478
:1006E00019012AA002150126A002950175108100AA
:1006F000C005010906A101050719E029E715002534
:100700000195087501810295017508810105071998
:100710000029FF150026FF009506750881000508D1
:10072000190129059505750191029501750391013E
:10073000C00011241FBECFEFDAE0DEBFCDBF04B68C
:1007400003FE27C08091EF029091F002A091F10288
:10075000B091F2028730904BA740B04BD1F4109289
:10076000EF021092F0021092F1021092F20214BE07
:1007700084B7877F84BF0FB6F894A89580916000F6
:10078000886180936000109260000FBEE0E0F8E3A3
:10079000099511E0A0E0B1E0E0E8FBE502C00590BA
:1007A0000D92A63DB107D9F722E0A6EDB1E001C058
:1007B0001D92AF3EB207E1F70E9429260C94732DDB
:1007C0000C94000081E0089581E008950C94E40306
:1007D00008950C94E8031F93CF93DF9300D000D0CB
:1007E0000F92CDB7DEB749835A836B8330912402D1
:1007F00089819A8131111DC06623B9F02223A9F0A5
:100800000E943421182F682F89819A810E94E1204B
:1008100069817A81812F0F900F900F900F900F9028
:10082000DF91CF911F910C9422150E940D21182F5A
:10083000EFCF0E94342169817A81EDCFFC01262F10
:10084000408151816281738184810C94EB03CF9349
:10085000DF93EC0160E00E941E04BE01DF91CF91A6
:100860000C94E9038F929F92AF92BF92CF92DF9246
:10087000EF92FF920F931F936B017C0181E090E058
:10088000A0E0B0E04C015D0104C0880C991CAA1CDA
:10089000BB1C4A95D2F7B501A4014C015D0104C00F
:1008A000880C991CAA1CBB1C2A95D2F748295929E7
:1008B0006A297B2904C0880F991FAA1FBB1F0A95AC
:1008C000D2F78A019B010C211D212E213F21041703
:1008D00015072607370789F48C299D29AE29BF29DA
:1008E000BC01CD011F910F91FF90EF90DF90CF9051
:1008F000BF90AF909F908F90089580959095A09510
:10090000B0958C219D21AE21BF21EACF0F93382FC6
:10091000262F60918F0270919002809191029091A8
:100920009202042F432F0E9432040F910C941F2037
:100930000E947D240E947322811102C00E94202304
:100940000E94E9050E943F120C94BB070C94BE075D
:1009500008950E94C31C0E94A8042FEF84E39CE02A
:10096000215080409040E1F700C000000C945224D8
:100970000F931F93CF93DF93EC0161E00E941E045D
:100980008C01BE010E94D2128823B9F1BE01C801B8
:100990000E94E603882389F1BE01C8010E94AB11C1
:1009A000882359F1BE01C8010E945916882329F1F4
:1009B000BE01C8010E94AB168823F9F0BE01C80130
:1009C0000E94CE178823C9F0BE01C8010E9468109A
:1009D000882399F08A81882339F001158CE518075E
:1009E00051F00E3D1C4579F0CE01DF91CF911F9162
:1009F0000F910C94E2030E94A90480E0DF91CF9153
:100A00001F910F9108950E942023F7CFDF92EF925C
:100A1000FF920F931F93CF93DF93E82FF0E0E45DF5
:100A2000FC4FD490282F26952695269530E0F90185
:100A3000E453FC4F0491877010E0082E02C0159516
:100A400007950A94E2F701701127F901E454FC4F6D
:100A5000E490F12C082E02C0F594E7940A94E2F792
:100A600091E0E922FF24F901E455FC4FC491D0E064
:100A700002C0D595C7958A95E2F7C170DD270115AB
:100A8000110519F081EE0E946E19E114F10419F0BC
:100A900086EE0E946E198D2D0E945E1AEF2819F0C5
:100AA00086EE0E94F819012B19F081EE0E94F819C8
:100AB000CD2B51F08CE2DF91CF911F910F91FF90E0
:100AC000EF90DF900C945E1ADF91CF911F910F9100
:100AD000FF90EF90DF900895EF92FF920F931F9396
:100AE000CF93DF93EC01162F0AE08881882309F465
:100AF00054C0813009F04EC08981813099F47E0163
:100B000022E0E20EF11C8A810E945E1AE701219622
:100B1000812F815050F3EFE9FFE03197F1F700C0EA
:100B20000000F7CF823041F47E0182E0E80EF11C34
:100B30008A810E946E19EACF833041F47E01E2E09F
:100B4000EE0EF11C8A810E94F819E0CF843011F07A
:100B50002196DDCF2A81229690E080E0AE014F5FA2
:100B60005F4F2053330B2A30310548F0019778F25C
:100B7000EFE9FFE03197F1F700C00000F7CF089FE1
:100B8000B001099F700D1124C901860F971F29819B
:100B9000EA01E4CF0E940605BACFDF91CF911F9101
:100BA0000F91FF90EF90089560E00C946C0508950C
:100BB0000C94D70581E00895CF93C82F0E94DA05E1
:100BC000882319F0C2FD03C0769ACF9108957698D4
:100BD000FCCF6E9A769A0895CF93C82F0E94D805BD
:100BE0008C2FCF910C94DC05CF93DF930E942215BC
:100BF0000E94E006EC01811522E59207E8F58115D7
:100C000031E5930708F0ACC0883E910510F5803EB1
:100C1000910570F5883A910570F4853A910508F0D0
:100C200078C08130910521F1009711F1049700F50A
:100C3000D0E0C0E01DC08F3B9105D0F7C85AD0E08E
:100C4000CC0FDD1FCC5DDE4F0990D881C02DD46460
:100C50000FC0811540E5940708F066C0C11580E417
:100C6000D80708F05EC0CE019A9581159F4100F724
:100C7000CE01DF91CF910895811536E5930718F5E0
:100C8000811545E5940708F083C0C11584E5D807B0
:100C900008F079C09C2F969596959E012370332776
:100CA000C115D34508F461C0C1E0D0E002C0CC0F4B
:100CB000DD1F2A95E2F730E2939FC0011124C82B73
:100CC000D92BDA68D5CFC1158AE5D80778F4C115D4
:100CD00099E5D90708F066C0C11528E5D20708F4E0
:100CE000A7CFDC2FCC27C06FD06AC2CFCE019056E1
:100CF0008115904208F09CCF8D2F8F710E9477074D
:100D000090E0982F882788279F719C012C2BE90160
:100D100047C0C55AD0E0CE5ADE4FC881D0E0D0647B
:100D2000A7CFDF70D06AA4CFE4E096958795EA95C7
:100D3000E1F783702C2F26952695237040E2249F9F
:100D400090011124382B8C2F8370C1E0D0E002C0B9
:100D5000CC0FDD1F8A95E2F7C22BD32BDC6888CF3E
:100D6000D82FCC27C16FD06A83CFC1E0D0E002C0BA
:100D7000CC0FDD1F2A95E2F720E2929FC0011124DB
:100D8000C82BD92BEBCFDC2FCC27C46FD06A70CF08
:100D90000E947707C82FD0E0DC2FCC27CC27DF714B
:100DA000D06266CF8C2F8F700E94770734E0D69583
:100DB000C7953A95E1F7CF709C2FEC01D06958CFD9
:100DC00082389105B1F1B0F48133910509F475C011
:100DD00048F48932910509F469C08A32910509F411
:100DE00073C008958533910509F459C0893391057D
:100DF00001F10895833E9105A9F138F4803E9105F3
:100E0000F9F0823E910549F10895863E9105A9F1D8
:100E1000873E9105C9F1843E910519F52091E102C3
:100E200021FF1FC08091E00284FD14C087EE90E096
:100E300008952091E0022370A1F080EE90E00895E3
:100E40002091E00220FD47C03091E10230FF09C04F
:100E500024FF44C090E080E004C02091E00222FD25
:100E6000F7CF08952091E00222FD3BC03091E102CE
:100E700030FDE3CF24FFF5CFEDCF2091E00223FF3B
:100E8000F0CF24FDE7CFD2CF2091E00223FD2CC08C
:100E90003091E10231FFEECF84EE90E00895209191
:100EA000E00225FFDECF89E290E008952091E00284
:100EB00025FFD7CF85E390E008952091E00226FF3B
:100EC000D0CF8AE290E008952091E00226FFC9CFBA
:100ED00081E390E0089589E390E0089583EE90E047
:100EE000089582EE90E0089586EE90E00895909146
:100EF000E00292FF06C0282F28712830F9F4877F7E
:100F0000846093FF06C0282F28712831F1F4877E72
:100F100084612091E10220FF06C0382F38713830FB
:100F2000D9F4877F816021FF06C0282F28712831DE
:100F3000D1F4877E816194FD877E0895282F2471E6
:100F40002430F9F68B7F8860DCCF282F2471243180
:100F500001F78B7E8861DDCF382F3171313019F781
:100F60008E7F8860E0CF282F2171213121F78E7E7E
:100F70008861E1CF08950C94BA0708950C94BD07D9
:100F8000E82FF0E0EE0FFF1FE654FD4F80819181C6
:100F90000895089580EA8A95F1F7089500C00895AC
:100FA0000C94CA07F894E82FE295EF70F0E031A1B5
:100FB000282F2F7081E090E001C0880F2A95EAF772
:100FC000982F9095932391A392A1892B82A3789433
:100FD00008950F931F93CF93DF9380E90E94D20768
:100FE00081E90E94D20780EF0E94D20784EF0E941D
:100FF000D20781EF0E94D207C5E5D1E005E611E0F6
:1010000089910E94D2070C171D07D1F71092B102E7
:101010001092B0021092BB021092BA021092B30268
:101020001092B2021092BD021092BC021092B50250
:101030001092B4021092BF021092BE021092B70238
:101040001092B6021092C1021092C0021092B90220
:101050001092B8021092C3021092C20285E00E9460
:10106000BB08DF91CF911F910F910C949804AF9220
:10107000BF92CF92DF92EF92FF920F931F93CF9385
:10108000DF9305E611E0C0EBD2E0C12CD12CEE24B9
:10109000E394F12CF80181918F01F894E82FE29507
:1010A000EF70F0E021A18F70A70102C0440F551F1F
:1010B0008A95E2F7CA01922F982B91A392A180956D
:1010C000892382A378940E94CE07E5E5F1E030E021
:1010D00020E0B12CA12C4191A42FA295AF70B0E0DB
:1010E00090968C9190E04F7002C0959587954A95A7
:1010F000E2F780FD3BC0C701022E02C0880F991F96
:101100000A94E2F7A82AB92A2F5F3F4F2031310510
:1011100011F7F801319780810E94D20754E0C5127F
:101120000E94D00788819981A816B90611F1B98269
:10113000A88281E0D82AC394229685E0C812AACF5B
:101140002D2D45E06AEB72E080EB92E00E94BC0836
:101150000E94A6048D2DDF91CF911F910F91FF90DA
:10116000EF90DF90CF90BF90AF90089590E080E037
:10117000C9CF80E0DFCF0895FF920F931F93CF93E5
:10118000DF93F82E092F162FD72FC42F222349F0D3
:1011900081E08093DA010E9407249093D901809323
:1011A000D8018091DA018823A1F08091D801909133
:1011B000D9010E941F24069760F0EF2DF02FA12F78
:1011C000BD2F90E080E0D0E08C179D0744F0109296
:1011D000DA01DF91CF911F910F91FF900895219136
:1011E00031912D933D930196EFCFEF92FF920F93A4
:1011F0001F93CF93DF93EB01E82FD11110C044234D
:1012000021F0F0E0EA50FB4FE4916E2F7E2F8E2FFD
:10121000DF91CF911F910F91FF90EF9008950D2FC7
:1012200010E0282F30E0442329F02A503B4FF901E9
:10123000249130E0F6E0CF9FC0011124EFEFF0E001
:10124000BF010E941B2CAB018C2F90E0880F991FCF
:10125000A5E5A49FB001A59F700D1124861B970BD7
:10126000982F990F980FBF01601B710B629FD001DF
:10127000639FB00D729FB00D11248B2F9D9FB00105
:101280001124672F7727EF01C61BD70BBE01629F82
:10129000E001639FD00D729FD00D11247F01E91AE8
:1012A000F108E09EB001E19E700DF09E700D1124DA
:1012B000672F7727E61BF70BE29F8001E39F100D56
:1012C000F29F100D1124E12F722F4230510599F039
:1012D00048F44115510569F04130510581F0EB2F7B
:1012E0008D2F07C04430510569F080F0463051051C
:1012F000B1F76E2F8DCFE22F7B2F812FFACFE22F08
:101300007D2FF7CFEB2F822F712FF3CF7B2F822FE3
:10131000ED2FEFCF41E00C94F50808950C948A0965
:10132000CF93DF93762FE901682F842F0E948E09D7
:10133000798368838A83DF91CF9108958091C40275
:10134000982F9E7F29F4817082608093C402089553
:101350008635E8F381708465F8CF88E090E00C94DE
:10136000142DCF92DF92EF92FF926B017C010E94CD
:101370009E09B701A60188E090E0FF90EF90DF9012
:10138000CF900C94322D6091C4027091C50280916F
:10139000C6029091C7020C94B109E4ECF2E083E03C
:1013A000808311828FEF82838383148260817181B5
:1013B000828193810C94B1098091C40280FF02C0A4
:1013C0008695089580E008959091C802933018F4AE
:1013D0009F5F9093C802882351F06091C40270917E
:1013E000C5028091C6029091C7020C94B10908957C
:1013F00081E00C94E4099091C802992319F091506E
:101400009093C802882351F06091C4027091C50284
:101410008091C6029091C7020C94B109089581E0B1
:101420000C94FB098091C80208958093C80266233A
:1014300051F06091C4027091C5028091C6029091F2
:10144000C7020C94B109089560E00C94150A8091CC
:10145000C50208958091C60208958091C70208953B
:1014600070E00C944F12609108018091C40280FFDB
:101470000AC08091070123E0829FC0011124875395
:101480009D4F0C94300A8091090190910A0123E04C
:10149000829FF0011124E753FD4F891750F7118205
:1014A000108212828F5F3396F8CF9091C40290FF22
:1014B00014C09091090120910A0133E0939FF0013B
:1014C0001124E753FD4F921710F00C94330A8183D7
:1014D000608342839F5F3396F6CF0895CF93DF9367
:1014E00000D00F92CDB7DEB79091C40290FF0AC032
:1014F0009E012F5F3F4F0E9490094B8169818A8135
:101500000E94550A0F900F900F90DF91CF91089590
:10151000CF93DF93EC01EC81F0E0EF50FC4F44916E
:10152000E4ECF2E0628181810E946E0A8C818F5F1F
:101530008C83DF91CF910895CF93DF93EC01E4EC9E
:10154000F2E0438162818C810E946E0A8C818F5F00
:101550008C83DF91CF9108950F931F93CF93DF93E7
:1015600000D00F92CDB7DEB78C018091DB018111E5
:101570000AC09E012F5F3F4F4FEF6FEF0E9490090F
:101580008A818093DB01F8016481613069F0809188
:10159000DB0140E0662361F040E0623011F44091ED
:1015A000DB0180E060E004C06091DB0140E080E0AE
:1015B0000E94550AF801848190E0019663E070E092
:1015C0000E942F2C84830F900F900F90DF91CF916A
:1015D0001F910F910895AF92BF92CF92DF92EF9239
:1015E000FF920F931F93CF93DF9300D00F92CDB74D
:1015F000DEB7182FF62E042FE22E9091C40290FF32
:1016000029C0E92FE695AE2FB0E0A659BE4F8C91C8
:10161000809305029E7F923059F59E012F5F3F4FC8
:10162000812F0E9490094B8169818A810E94550A0D
:101630001093C502F092C6020093C702EE2051F04B
:101640006091C4027091C5028091C6029091C70258
:101650000E94B1090F900F900F90DF91CF911F91D1
:101660000F91FF90EF90DF90CF90BF90AF900895D3
:10167000823019F40091C702DBCF863019F4109143
:10168000C502D6CF8930D9F3893191F6E9518E2F31
:101690008170D82EE695F0E0EF50FB4FA590B49006
:1016A000C12CBB2460910B01C61618F00E94330AAE
:1016B000BFCF2C2D30E0A29EC001A39E900DB29E04
:1016C000900D112470E00E941B2C812FD11013C0AB
:1016D000860F40910901420F532F511D9A01220F8D
:1016E000331F240F351F27533D4F402F6F2D0E946E
:1016F0009009C394D7CF861BECCFE4ECF2E0918144
:10170000282F4381628188E0890F0C94EB0A81E0E5
:101710000C947D0BE4ECF2E09181282F43816281EF
:1017200088EF890F0C94EB0A81E00C948A0BE4ECAF
:10173000F2E0628128E0620F08F46FEF282F438106
:1017400081810C94EB0A81E00C94970BE4ECF2E0BD
:10175000628128E0621B08F460E0282F43818181C8
:101760000C94EB0A81E00C94A60BE4ECF2E04381CC
:1017700028E0420F08F44FEF282F628181810C94FA
:10178000EB0A81E00C94B50BE4ECF2E0438128E035
:10179000421B08F440E0282F628181810C94EB0AFF
:1017A00081E00C94C40B20E00C94EB0AEF92FF92C2
:1017B0001F93CF93DF93EC0110E0EE24EA94F12C19
:1017C00060910B01161770F00E94330A9A818C8188
:1017D00090FF27C08F5F8C83DF91CF911F91FF9087
:1017E000EF90089520910901422F410F5527551F71
:1017F000CA019A01220F331F280F391F27533D4F6B
:1018000070E0C7010E942F2C962F8C814091C70257
:101810006091C602199F800D11240E9490091F5FDC
:10182000CFCF8150D8CFAF92BF92CF92DF92EF92BD
:10183000FF920F931F93CF93DF93FC0182810FEFF1
:1018400080FF01E010E046E0A42E80910B01181704
:10185000C8F00E94330A8091DD01013009F055C0C3
:10186000811102C080910B0181508093DD01DF91D5
:10187000CF911F910F91FF90EF90DF90CF90BF908D
:10188000AF900895C0910901C12ED12CCC0DDD2D52
:10189000D11DCE01880F991FC80FD91FC753DD4F27
:1018A000198218821A8234E0E32EF12CB12C809137
:1018B000DD018B0D87301CF16A2D0E940D2C892FC4
:1018C000082E000C990BC816D90691F48091C70216
:1018D0008E9DA0018F9D500D1124559547955595CE
:1018E00047959E016091C6028091C5020E949009B1
:1018F000B00EF1E0EF1AF108D1F61F5FA6CF87FF17
:10190000DFCF90910B01890FDBCF90E001966091C2
:101910000B0170E00E942F2CA8CF0F931F93CF9341
:10192000DF938091090190910A0123E0829FF001E9
:101930001124E753FD4F891740F1C0E0D3E06091D7
:101940000B01C61740F10E94330A209105018091D6
:10195000DC01820F8093DC0190910601920F90933D
:101960000601191654F4082E000C990B40910B0136
:101970004150550B841795071CF0219520930501C4
:10198000DF91CF911F910F910895118210821282E1
:101990008F5F3396D0CF0C2F10E070E0C8010E940B
:1019A0002F2C20910901820F482F50E02091DC015B
:1019B000022E000C330B02171307BCF02091060116
:1019C000022E000C330B201731077CF08D9F900105
:1019D000112427533D4F4091C7026091C602809168
:1019E000C5020E949009CF5FAACFFA01EE0FFF1F38
:1019F000E40FF51FE753FD4F118210821282F3CFDF
:101A00008F929F92AF92BF92CF92DF92EF92FF920E
:101A10000F931F93CF93DF93EC014C81042F10E0C1
:101A20009801D8010E947A2C9B01AC010E94902C55
:101A30004B015C01E0E2F0E0E01BF10BA5E5B0E05A
:101A4000AC019B010E94902C6B017C019F01DF0186
:101A50000E94722C9B01AC010E949B2C9B01AC014B
:101A6000280D391D4A1D5B1DC701B6010E94432C7C
:101A7000F22E822F90E039E23F1560F143E0249F7F
:101A80009001112435952795122F109500E085E5DA
:101A9000E82EEF1880910B01081758F10E94330AC5
:101AA0009C8181E0992319F0903219F48FEF809393
:101AB000040180910401890F8C83DF91CF911F91E4
:101AC0000F91FF90EF90DF90CF90BF90AF909F90DD
:101AD0008F90089525E530E0B901681B790B9B01D3
:101AE000220F331F260F371F37FFCCCF2F5F3F4FFB
:101AF000C9CF8E2D01FD8F2D20910901622F600F1E
:101B00007727771F9B01220F331F260F371F27537D
:101B10003D4F412F6091C6020E9490090F5FBACFDE
:101B20000F931F93CF93DF93EC0110E000E09091AF
:101B30000B019017110609F06CF40E94330A8C8196
:101B400090E00196817099278C83DF91CF911F914E
:101B50000F91089520910901A801420F511D9A018A
:101B6000220F331F240F351F27533D4F4C816091A7
:101B7000C6028091C50296959017110651F04CF05F
:101B8000442349F04091C7020E9490090F5F1F4F04
:101B9000CECF4423B9F340E0F7CF4F925F926F92DC
:101BA0007F928F929F92AF92BF92CF92DF92EF92ED
:101BB000FF920F931F93CF93DF93FC0162804480C9
:101BC00081E08483E1EFF3E07490E0E7F4E0E491F6
:101BD000812C75E0972EF2E0CF2EDD24D394AA2439
:101BE000AA94B12C55245A94E7190E2F10E0809135
:101BF0000B01881690F0DF91CF911F910F91FF900C
:101C0000EF90DF90CF90BF90AF909F908F907F909C
:101C10006F905F904F900C94330AE82CF12C82E087
:101C2000861568F09E9CF0019F9CF00D1124E252F5
:101C3000FE4F8091C50280838091C602818341104E
:101C400023C09E9CF0019F9CF00D1124E252FE4F98
:101C50001382128220910901C701820F911D9C01FC
:101C6000220F331F280F391F27533D4F9E9CF00131
:101C70009F9CF00D1124E252FE4F428161818081D0
:101C80000E9490098394B3CF9E9CE0019F9CD00D4D
:101C90001124C252DE4F8B818823E9F081508B835F
:101CA000859DC00111246C8170E00E941B2CFB01FA
:101CB000FF27EF50FC4F8491E82FE719E59DC00105
:101CC0001124B8010E941B2C8091C702689FB001AB
:101CD00011247A83BFCF0E94EF2C2091C702269552
:101CE00021582C9DA0012D9D500D1124452F5527C5
:101CF000841795070CF0AECF82E0861588F40E9419
:101D0000EF2CB5010E942F2C88830E94EF2C20918C
:101D1000C6022695622F70E00E942F2C280F29837F
:101D20009E9CF0019F9CF00D1124E252FE4F128206
:101D30008091C702893C58F088EC9E9CF0019F9CE2
:101D4000F00D1124E252FE4F8483838383CF8431CC
:101D5000A0F784E1F2CFE4ECF2E080818E7F808313
:101D600060817181828193810E94B1091092060283
:101D70002FEF80E792E0215080409040E1F700C0D3
:101D800000000C94330AE4ECF2E080818E7F8083C3
:101D9000109206022FEF80E792E0215080409040A1
:101DA000E1F700C000000C94330A10920602809103
:101DB000030281110AC081E0809303028091C40272
:101DC0008170809302020C94C30E08956091C40246
:101DD000669570E04BE050E08CE091E00E94FF2CB3
:101DE000892B19F481E0809306020E9407249093C6
:101DF000FD018093FC0108959091C40290FF35C0CD
:101E00009170811128C092609093C402662351F0B2
:101E10006091C4027091C5028091C6029091C70280
:101E20000E94B1096091C402669570E04BE050E0F9
:101E30008CE091E00E94FF2C892BA1F01092060209
:101E400081E08093FF014091C7026091C6028091BA
:101E5000C5020C94D30B8B3210F09465D5CF880F4C
:101E6000982BD2CF0E94E60EEBCF0895682F909169
:101E7000C402969581E0890F8B3208F081E00C94C2
:101E8000FC0E81E00C94360F682F9091C402969559
:101E90008FEF890F09F48AE20C94FC0E81E00C9418
:101EA000440F61E00C94FC0EE4ECF2E08081816070
:101EB000808386950C94510F8091C40280FD0C9410
:101EC000AB0E0C94540F60E00C94FC0E8091040255
:101ED00081112EC00E947322811104C00E94202310
:101EE0000E94CD090E94AD096093C4027093C5029F
:101EF0008093C6029093C7026E7F61F40E94CD0961
:101F00000E94AD096093C4027093C5028093C6021B
:101F10009093C7020E949E09109206028091C4020B
:101F200080FF03C086950E94630F81E080930402C6
:101F30000895E4ECF2E080818160808386950C94C2
:101F4000630F109203028091020281110E94990F87
:101F50000C94E60E0F931F93CF93DF9380910602AC
:101F6000882309F496C080910502E091C402E695A9
:101F7000E81BE093FE01823091F5F0E0E351FC4F65
:101F8000E491CE2FD0E008E81AE08091FF01882389
:101F900061F01092FF010E9407249093FD0180934D
:101FA000FC0110920102109200020E940724E091AD
:101FB000FC01F091FD018E1B9F0B8F3F9F4708F0A6
:101FC00068C0EC0FFD1FF093FD01E093FC018CEF66
:101FD00091E0F801DF91CF911F910F910994863024
:101FE00049F4F0E0E651FC4FE491CE2FD0E00CE94B
:101FF0001AE0CBCF893051F4E695F0E0E951FC4F7F
:10200000E491CE2FD0E006ED1BE0BFCF8F3051F42E
:10201000E695F0E0EC51FC4FE491CE2FD0E003E1E7
:102020001CE0B3CF853149F4F0E0EF51FC4FE4916F
:10203000CE2FD0E00DE81CE0A8CFC8E2D0E000E051
:102040001DE0883109F4A1CF833239F4EFEDF3E0DC
:10205000C591D4910CEA1AE098CFC4EFD1E000E921
:102060001DE0843209F491CFC0EDD7E00DE819E00E
:10207000853209F08ACF8E2F63E00E94012CE92F70
:10208000F0E0E452FC4FE491CE2FD0E00DEC1DE0E7
:102090007CCFDF91CF911F910F910895FA018111AB
:1020A00001C0FB010994CF93DF93C82FD62F0E9464
:1020B000DC098C1740F00E94DC098D1720F4DF91B9
:1020C000CF910C94410F8C2FDF91CF910C94510F35
:1020D0000F931F93CF938C01FB01C281CC2309F492
:1020E00065C00E94C9218272F801E25CFC45E431BE
:1020F000F10538F4EB58F24D0C94652C0E945C0FFE
:10210000C0E08C2FCF911F910F9108954EE45FE0B6
:1021100061E47FE00E944E10F3CF41E45FE06EE4A3
:102120007FE0F8CF44E95BE067E87BE0F3CF47E886
:102130005BE064E97BE0EECF42EB5BE063EA7BE0EF
:10214000E9CF43EA5BE062EB7BE0E4CF40ED5BE0AC
:1021500061EC7BE0DFCF41EC5BE060ED7BE0DACF70
:102160004FE05AE068EF79E0D5CF48EF59E06FE0F3
:102170007AE0D0CF81E00E94510FC2CF65E082E0CB
:102180000E945310BDCF68E086E0FACF6EE089E090
:10219000F7CF64E18FE0F4CF67E185E1F1CF88E12B
:1021A000EACF62E289E1ECCF83E2E5CFC1E0A9CFDB
:1021B0008091DB020C94A5228091DB0286958695A6
:1021C000869508950E947322811102C00E942023E7
:1021D0000E94A1228093DB02803320F08770886206
:1021E0008093DB029091DB02892F817090FF04C005
:1021F000892F8695869586950C94E0118091DB0257
:10220000982F969596959695953040F49F5F990FE7
:10221000990F990F8770892B8093DB028091DB02E5
:1022200081608093DB020E94A5228091DB0286956B
:10223000869586950C94E0118091DB02982F987F0B
:1022400079F088508093DB02887F91E009F490E078
:102250008091DB0290FB80F98093DB020E94A52233
:102260008091DB028695869586950C94E01180918D
:10227000DB0280FD13C081608093DB02813019F4A2
:1022800089E08093DB028091DB020E94A52280918D
:10229000DB028695869586950C94E01108958091D1
:1022A000DB0280FF08C08E7F8093DB020E94A522A4
:1022B00080E00C94E01108958091DB0280FD0C9485
:1022C0004F110C9437119091DB02892F86958695DA
:1022D00086958F5F8F7197708630D8F4880F880F3E
:1022E000880F892B8093DB028091DB02887F91E04D
:1022F00009F490E08091DB0290FB80F98093DB028F
:102300000E94A5228091DB028695869586950C9485
:10231000E0119093DB02E8CF863008F085E09091E1
:10232000DB029770282F220F220F220F922B9093FF
:10233000DB02987F21E009F420E09091DB0220FB92
:1023400090F99093DB020C94E0110E948C11809123
:10235000DB020C94A5229C01FB018281882349F1B8
:102360002D3BFCE53F07C9F040F42B3BECE53E0775
:1023700069F02C3B3C4579F008952F3B9CE53907EB
:1023800091F070F0203C3C4589F0089585E00E9472
:10239000A51180E0089580E0FACF0E941C11F9CFCA
:1023A0000E94FE10F6CF0E945C11F3CF0E946311D1
:1023B000F0CF81E00895279A2F9808952F980895D7
:1023C000CF92DF92EF92FF92CF93C82F863040F5E5
:1023D000811127C080918000877F809380000E94B8
:1023E000DE112C2F30E0AFEFBFEF0E947A2C25E0FA
:1023F00030E040E050E00E94432CC9012C3764E1FA
:102400003607A8F469E070E00E941B2C70938D00E1
:1024100060938C00CF91FF90EF90DF90CF90089564
:10242000C5E080918000886080938000DACF2A50D8
:10243000374D4F4F5F4F942F832F722F662725EF15
:1024400038E241E050E00E94432C69017A01CA0160
:10245000B9010E94F12B9B01AC01C701B6010E949A
:10246000F12B672F782F892F99276115710521E0AE
:102470008207910559F66FEF7FEFC8CF08950E944C
:10248000DB118AE08093800089E1809381008FEFE7
:102490009FEF90938700809386000C94E2106A9AD5
:1024A0004EB14B7F5EB15460EFB7F8949B01220FA1
:1024B000331F260F371F280F391F2817390741F4FC
:1024C000EFBF8FE594E00197F1F700C00000089599
:1024D000DC016D91CD0178E05EB9000000C067FFBE
:1024E0004EB9660F000000C000C000C04EB900C069
:1024F0007A9591F7E2CF82E290E00E940C2D813232
:1025000089F483E290E00E940C2D833059F484E238
:1025100090E00E940C2D91E0833209F090E0892F29
:102520008170089580E0FCCFCF93C82F6FEF8111A9
:1025300061E282E290E00E94202D6FEFC11163E022
:1025400083E290E00E94202D6FEFC11163E284E2EC
:1025500090E0CF910C94202D80E00E9494120C9476
:102560006D22089585E290E00E940C2D682F70E0A6
:1025700090E080E0089585E290E00C94202D0E9488
:10258000B1120E947B1281110CC060E070E0CB019F
:102590000E94BB120E949A140E94861581E00C943E
:1025A00094120895CF93FB01C281CC2309F19C01C1
:1025B00022513F452031310520F582510E94961568
:1025C000C0E08C2FCF91089581E00E94452043E028
:1025D00062E081E00E948604F3CF81E00E946620E1
:1025E00043E062E081E00E948604EBCF82E0F6CF18
:1025F0008031FFE59F0789F381319F45B9F3C1E041
:10260000E0CF8031EFE59E07F9F281319F45C9F6B1
:1026100082E0DBCF2FEFFC0120830895CF93DF937F
:10262000EC018881893029F08A3079F0DF91CF91EF
:1026300008950E94DC102FEF829FC001112465E0F5
:1026400070E00E941B2C6983F1CF1982EFCFFC014F
:102650002081293061F48181F5E08F9FC001112430
:102660006FEF70E00E941B2C862F0C948C11089544
:10267000CF93DF93EC0188818138A9F028F480386A
:1026800071F0DF91CF910895823881F08338C9F7D6
:102690000E94270A89830E942A0A8A83F2CF0E9415
:1026A0002D0A8983EECF0E94DC09FBCF0E94120A1B
:1026B000F8CFCF93DF93EC0188818138E1F028F4E3
:1026C000803869F0DF91CF910895823811F1833815
:1026D000C9F70E942D0A482F6A81898108C0D981D3
:1026E0000E942A0AC82F0E94270A4D2F6C2FDF91C3
:1026F000CF910C94D30B89810E94630F8981811142
:1027000004C0DF91CF910C94C30EDF91CF910C9454
:10271000990F8981DF91CF910C94240ADF92EF9277
:10272000FF920F931F93CF93DF93EC01D62EDC0122
:10273000ED918D01E150E33108F0B8C0F0E0E757CA
:10274000F24D0C94652C198289E08A836D2DCE019F
:10275000DF91CF911F910F91FF90EF90DF900C943C
:102760001E258981823069F0833071F08130D9F47F
:102770000E9413240E946B2C6A837B838C839D832D
:10278000E5CF0E94B212F6CF7E0110E0812F0E94A9
:10279000C007F701928383831F5FF2E0EF0EF11C05
:1027A0001530A1F7D3CF6D2DCE010E940A13CECFE5
:1027B00089818230C1F76A817B818C819D810E94F1
:1027C0006B2C0E94BB12C2CF4B816A8189810E940F
:1027D0006C149827892798279D838C83B7CF2C81E9
:1027E0003D813227232732274B816A8189810E94CC
:1027F0008514ACCF0E949A14A9CFCD010E94271353
:10280000C8010E945913A2CFCD010E940E13C80126
:102810000E9438139BCF0E94D8100E94C30996CF04
:102820000E942F15898392CF0E94311598278927FE
:1028300098279A8389838ACF6B8170E089819A81F6
:10284000AE014C5F5F4F9827892798270E94341567
:102850007DCF6B8170E089819A81AE014C5F5F4FC3
:102860009827892798270E945B1570CF0E948615AC
:102870006DCF0E945914D6CF6B8170E089819A8107
:10288000AE014C5F5F4F9827892798270E94D2148A
:102890005DCF6B8170E089819A81AE014C5F5F4FA3
:1028A0009827892798270E94F81450CF8FEF8883A4
:1028B0004DCF84E0089590E2699FB001112450E06B
:1028C000440F551F640F751F90EA899F600D711D9D
:1028D0001124CB01869608950F931F93CF93DF9316
:1028E0000E945B148C010E940C2DC82FD0E0DC2FBD
:1028F000CC27C80101960E940C2D9E01282BC901EE
:10290000DF91CF911F910F9108950F931F93CF9354
:10291000DF93122F032F0E945B14EC01602F0E94A3
:10292000202D612FCE010196DF91CF911F910F9144
:102930000C94202DAF92BF92CF92DF92EF92FF9234
:102940001F93CF93DF938CEAC82E80E0D82ED0E07F
:102950007601C0E014C0F50125913491412F6C2F10
:102960008D2F0E94851482E0A80EB11C1F5F1031CC
:1029700091F780E2E80EF11CCF5FC53019F05701E6
:1029800010E0E9CFDF5F80EAC80ED11CD43001F738
:10299000DF91CF911F91FF90EF90DF90CF90BF908C
:1029A000AF900895EF92FF920F931F93CF93DF9311
:1029B000EC018A017C01E60EF71ECE018696CE154B
:1029C000DF0539F4DF91CF911F910F91FF90EF90C8
:1029D0000895C03822E0D20740F40E940C2DF8017F
:1029E00080830F5F1F4F2196E8CFF8011082F9CF47
:1029F000CF92DF92EF92FF920F931F93CF93DF93CB
:102A00007C016A018C01060F171FEC01CE0186962E
:102A1000C017D10749F4DF91CF911F910F91FF901B
:102A2000EF90DF90CF900895C03822E0D20740F4B5
:102A3000FE01EE19FF09EC0DFD1D60810E94202DA5
:102A40002196E4CF462F843038F4753028F4603175
:102A500018F4672F0C946C1490E080E0089580E1E6
:102A600008958AE591E00895EF92FF920F931F93E6
:102A7000CF93DF93EC018A017C01E60EF71ECE01B5
:102A80008A559D4FCE15DF0539F4DF91CF911F9107
:102A90000F91FF90EF900895CA3521E0D20740F4DE
:102AA0000E940C2DF80180830F5F1F4F2196E7CF06
:102AB000F8011082F9CFCF92DF92EF92FF920F933D
:102AC0001F93CF93DF937C016A018C01060F171FC0
:102AD000EC01CE018A559D4FC017D10749F4DF9113
:102AE000CF911F910F91FF90EF90DF90CF900895BD
:102AF000CA3521E0D20740F4FE01EE19FF09EC0DC2
:102B0000FD1D60810E94202D2196E3CFCF93DF939E
:102B1000C6EAD2E060E0CE010E94202D2196C115C8
:102B200084E0D807B9F7DF91CF910895DF92EF9253
:102B3000FF920F931F93CF93DF9300D000D0CDB7B8
:102B4000DEB7F82E8FE08F1540F08FEF93E00E94F4
:102B50000C2D06EA12E08823C1F00F900F900F9021
:102B60000F90DF91CF911F910F91FF90EF90DF9029
:102B70000895011584E0180781F3C8010E940C2D07
:102B8000811101C0FA940F5F1F4FF110F2CF19822B
:102B90001A821B821C82DD24D39478018FEFE81AFD
:102BA000F80AC8010E940C2D89831A828823A9F291
:102BB0009FEF980F933078F48A83D9820E5F1F4F6E
:102BC000C7010E940C2D8B83882339F2CE01019618
:102BD0000E94D405E2CF8701F9CF0F931F93CF93C3
:102BE000DF93C42FD22FFC0182818823C9F0409348
:102BF00009020E940724909308028093070280E252
:102C00008C0F883008F050C0C77081E001C0880F79
:102C1000CA95EAF7DF91CF911F910F910C94661A34
:102C200010910902141335C0809107029091080297
:102C30000E941F24883C910560F5C0E2CD0F1D174E
:102C4000B9F080E2810F883040F4177081E001C054
:102C5000880F1A95EAF70E946D1AC83048F481E08F
:102C60009D2F977001C0880F9A95EAF70E94661A07
:102C7000802F0E945E1AC830B8F4D77081E001C07E
:102C8000880FDA95EAF7DF91CF911F910F910C949D
:102C90006D1A80E28C0F883038F4C77081E001C073
:102CA000880FCA95EAF7EFCFDF91CF911F910F916F
:102CB00008950F939C01CB01233F4CE5340759F154
:102CC000A8F4283DFCE53F0701F1293D4CE5340718
:102CD000D1F1273D3C4591F406E221EE41EE67ED4E
:102CE0007CE50E94ED1580E00F910895253FFCE5FD
:102CF0003F07E9F0B0F0263F3C45F9F0FC01828146
:102D0000882339F110920902EFCF07E225EE45EE54
:102D100068ED7CE5E6CF06E221EE40EE63EF7CE570
:102D2000E0CF07E225EE44EE64EF7CE5DACF06E281
:102D300021EE42EE65EF7CE5D4CF07E225EE46EECC
:102D400066EF7CE5CECF08E221E045EE69ED7CE55B
:102D5000C8CF81E0C9CFCF93DF93EC01FB01828123
:102D6000882309F419C1C230FCE5DF07C0F1C63180
:102D70009CE5D90730F09E012A5F3C45293031059A
:102D800070F50E9486229093E1028093E002C031A8
:102D9000ECE5DE0709F4CFC008F05BC0C8308CE575
:102DA000D80709F4B6C088F5C430ECE5DE0709F4AD
:102DB000A8C0C0F4C2308CE5D80709F49CC080914B
:102DC000E0028260C330DC4509F498C08091E002E3
:102DD0009091E1020E9494220E94C31C80E0DF9146
:102DE000CF9108958091E0028061C630ECE5DE0766
:102DF00009F484C08091E0028860C730DC4508F4A3
:102E00007DC08091E002806279C0CC308CE5D8072B
:102E100009F489C070F48091E0028C60CA30ECE55E
:102E2000DE0709F46BC008F478C08091E0028E7F61
:102E300065C0CE308CE5D80709F479C08091E002F6
:102E40008B7FCF30DC4508F459C08091E0028F7E43
:102E500055C0CB3FECE5DE0709F457C030F5C33170
:102E60008CE5D80709F46FC078F4C131ECE5DE07D2
:102E700009F465C0C231DC4509F0A8CF0E94C31C2B
:102E80008091E0028F773AC0C5318CE5D80709F40C
:102E900062C008F476C08091E1028160CA3FDC45DF
:102EA00009F094CF8093E10291CFCF3FFCE5DF079B
:102EB00009F44DC088F48091E1028D7FCD3F9CE5FF
:102EC000D90781F38091E1028E7FCE3FDC4550F33C
:102ED0008091E1028360E6CFC130FDE5DF0709F4B0
:102EE00059C008F444C080E0C230DD4509F06ECF1F
:102EF0000E9422236BCF8091E00281608093E002E8
:102F000065CF8091E0028460F9CF8091E102826018
:102F1000C9CF8091E0028064F1CF0E94C31C8091F0
:102F2000E0028068EBCF8091E0028D7FE7CF809157
:102F3000E002877FE3CF8091E0028F7DDFCF809139
:102F4000E0028F7BDBCF8091E002837FD7CF80913F
:102F5000E1028C7FA7CF8091E00282FB992790F954
:102F600021E0922790FB82F990FB83F9C7CF8091F3
:102F7000E102982F909591708E7F892B90FB81F9BB
:102F800091CF0E94C31C9091E002892F97FB87F993
:102F90008058B4CF81E0ACCF81E021CFCF93DF93D5
:102FA000EB0186319C4511F50E94C9219A81992334
:102FB00099F08A7A91E009F490E090930A028111E5
:102FC00009C089E20E94A4210E94082280E0DF91CA
:102FD000CF91089585E3F6CF80910A02811104C054
:102FE00089E20E94AB21F0CF85E3FBCF81E0EFCFF8
:102FF0009093100280930F020895E0910F02F091D8
:103000001002309721F00190F081E02D099480E0CA
:103010000895E0910F02F0911002309721F00280A4
:10302000F381E02D0994089520910D0230910E0254
:103030002817390771F090930E0280930D02E091EA
:103040000F02F0911002309721F00680F781E02DF9
:103050000994089520910B0230910C02281739072A
:1030600071F090930C0280930B02E0910F02F091AB
:103070001002309721F00084F185E02D0994089525
:103080000E941324609320027093210280932202F5
:103090009093230260931C0270931D0280931E0282
:1030A00090931F02089585B7806885BF85B78068B3
:1030B00085BF0895089508950C945A1808950C94A6
:1030C0005E180E9453188BE692E20E9476240E94BA
:1030D0005B180C945C1881E008950C946B180895AB
:1030E00008950E94FE230E94E9070E94BF120E94D9
:1030F00091240E94E2100E94660F0C945F188F9238
:103100009F92AF92BF92CF92DF92EF92FF920F9376
:103110001F93CF93DF93CDB7DEB72A970FB6F894FE
:10312000DEBF0FBECDBF0E946F180E9470180E94B4
:10313000370881110E94401852E1852E52E0952EE9
:1031400010E000E0A02E802F0E94C0076C01F40167
:10315000E190F1904F01E816F90609F45EC0809104
:10316000A40281FD0E94C907C7018C259D25B12CB1
:10317000EE24E394F12C9C012E213F21232B09F412
:1031800046C00E946D188823A9F0BE82AF82CE206F
:10319000DF2081E0CD2809F480E088870E940724A1
:1031A0008160782F9A8789874E815F8168858A85BB
:1031B0000E943719000F111FF801EE5EFD4F80814C
:1031C0009181E826F926F182E0820E94AA0F0E94EE
:1031D0003E120E94FD17909111028917A9F10E94D9
:1031E000FD17809311022A960FB6F894DEBF0FBE2A
:1031F000CDBFDF91CF911F910F91FF90EF90DF90A6
:10320000CF90BF90AF909F908F900C94EC05B394AB
:10321000EE0CFF1CF0E1BF12AECF0F5F1F4F053069
:10322000110509F08FCF8FEF89838A831B820E945B
:1032300007248160782F9D838C8349815A816B811B
:103240008D810E943719C1CF2A960FB6F894DEBF40
:103250000FBECDBFDF91CF911F910F91FF90EF90E7
:10326000DF90CF90BF90AF909F908F900895DF92A6
:10327000EF92FF920F931F93CF93DF93CDB7DEB7FB
:103280002B970FB6F894DEBF0FBECDBF7A878B8722
:10329000F42E052F162FE72ED82E61110E94E9215A
:1032A0001E821D827E2DEC82DD824F2D502F612FDC
:1032B0008D2D9E812B960FB6F894DEBF0FBECDBF2D
:1032C000DF91CF911F910F91FF90EF90DF900C94C1
:1032D000391FFC01808191810C947621CF93C82FF6
:1032E000882309F483C08238C1F40E94FD1781FD50
:1032F0007DC089E30E94A4210E9408222FEF81EE65
:1033000094E0215080409040E1F700C0000089E344
:103310000E94AB21CF910C9408228338A1F40E9423
:10332000FD1780FD63C083E50E94A4210E9408224E
:103330002FEF81EE94E0215080409040E1F700C0F3
:10334000000083E5E5CF8438A1F40E94FD1782FDDB
:103350004DC087E40E94A4210E9408222FEF81EE35
:1033600094E0215080409040E1F700C0000087E4E5
:10337000CFCF8CEF8C0F813A90F46C2F8091170196
:10338000909118010E943923882329F08C2F0E94E4
:10339000AB210E9408228C2F0E94A421BBCF80E287
:1033A0008C0F883048F4C77081E001C0880FCA953F
:1033B000EAF70E94CC21AECFEBE5EC0FE33040F40E
:1033C000F0E0ED53FE4F808190E0CF910C94141803
:1033D000C85AC73158F4EC2FF0E0EE0FFF1FEB5640
:1033E000FE4F80819181CF910C942A18CF9108953E
:1033F000882309F44BC0823871F40E94FD1781FFC5
:1034000045C089E30E94A4210E94082289E30E940A
:10341000AB210C940822833859F40E94FD1780FFD9
:1034200035C083E50E94A4210E94082283E5EFCFE6
:10343000843859F40E94FD1782FF28C087E40E9457
:10344000A4210E94082287E4E2CF9CEF980F913AD2
:10345000F0F290E2980F983050F4877091E001C03C
:10346000990F8A95EAF7892F0E94D221D2CF9BE546
:10347000980F933020F490E080E00C941418885A50
:10348000873120F490E080E00C942A1808951F936F
:10349000CF93DF93182FEB010E946E19209731F420
:1034A000812FDF91CF911F910C94F8198FE99FE044
:1034B0000197F1F700C000002197F0CF70E060E0C5
:1034C000893311F460E570E00C94471A882321F0E9
:1034D0000E94CC210C9408220895882321F00E9498
:1034E000D2210C9408220895BF92CF92DF92EF92DE
:1034F000FF920F931F93CF93DF936C01D62FC72FAB
:10350000FC011281058102950F700E94C221E82EF4
:103510008823A1F0E12E112389F08C2F807F803445
:1035200029F080E28D0FE12C883040F082E00E948B
:1035300053220E94C22191E0E82EE926BC2EB294CB
:103540009FE0B922FBE0FB1598F1EB2DF0E0E4568B
:10355000F24D0C94652C0C2F0F70C07F11F002956A
:10356000007F1123A9F0002359F080E28D0F8830ED
:1035700010F0D11109C0802F0E94CC210E94082296
:103580008D2F0E946E1914C0802F0E94DC21F6CF6F
:103590008D2F0E94F819002359F080E28D0F88309A
:1035A00010F0D1112CC0802F0E94D2210E9408223D
:1035B0002B2D2850330B2430310520F40E94FD17A9
:1035C0000E94EC05EE2009F483C10E94BE2180FD1B
:1035D0007FC1F60112820E94B8210E944520C601D7
:1035E0000E94891C0E94B821DF91CF911F910F91F9
:1035F000FF90EF90DF90CF90BF900C946620802FCB
:103600000E94E221D3CF2C2F2F70F22EC07FC03228
:1036100019F0F29480EFF822DD2369F0D13049F1FE
:10362000112391F1002351F1F601858180FFA8CF8C
:103630008F70858323C0112381F0011106C00E9481
:10364000EF218F290E94661AB3CF0130C1F70E9483
:10365000EF218F290E94F521ABCF011106C00E94F6
:10366000FE218F2D0E946D1AA3CF013009F4A0CF47
:10367000F6CF112329F0063008F09ACF8F2DE2CF34
:10368000053008F095CFEDCF002359F3D93349F435
:10369000FFEF27EE33E0F15020403040E1F700C06B
:1036A00000008D2F0E94F81983CF8C2F8695869568
:1036B000837069F0813009F07BCF8D2F9C2F937040
:1036C000111102C090E080E00E942A1871CF8D2F66
:1036D0009C2F9370111102C090E080E00E9414189A
:1036E00067CF8C2F837009F041C0111161CF4D2F2E
:1036F000429546954770440F440F0D2F0F7010E010
:1037000030E020E0042E04C0000F111F221F331FE1
:103710000A94D2F760E070E0CB01D4FF0FC06FE0F5
:1037200070E080E090E004C0660F771F881F991F4B
:103730004A95D2F76095709580959095C695C695F7
:10374000C370602B712B822B932BC23049F058F43D
:10375000C13019F00E94F71F2BCF0E94E51F28CF20
:103760000E94092025CF0E94E31F22CF86951123B6
:1037700011F08C2F8170882309F41ACF4D2F4295B8
:1037800046954770440F440F0D2F0F7010E030E046
:1037900020E0042E04C0000F111F221F331F0A94C3
:1037A000D2F760E070E0CB01D4FF0FC06FE070E0B3
:1037B00080E090E004C0660F771F881F991F4A952C
:1037C000D2F76095709580959095C695C695C37013
:1037D000602B712B822B932BC23049F058F4C130EF
:1037E00019F00E94BC20E4CE0E94AA20E1CE0E94E3
:1037F000CE20DECE0E941F20DBCECF70112329F019
:103800008C2F0E9445208D2F1DCF8D2F0E946D1A69
:103810008C2F0E946620CCCED23F89F160F4D03F3D
:10382000C9F0D13F29F1112309F442C00111A8CEFA
:103830008C2F8F7121C0D33F39F1D43FA1F71123D1
:1038400069F1CF718C2F0E94452063E08C2F0E947C
:103850003E22AECE112341F0053008F0A9CE8C2FC8
:103860008F710E948920A4CE063008F0A1CEF7CF38
:103870008C2F8F71112369F20E94452099CE8C2FD5
:103880008F711123C9F3C5CF112329F08C2F8F71AC
:103890000E9430208DCE0E942B208ACE81E00E9493
:1038A0005322023008F484CE82E00E94532280CE5C
:1038B000002359F0D93309F0F4CE8FEF97EEE3E00F
:1038C00081509040E040E1F7EACE8C2F8F71A1CF7C
:1038D000DF91CF911F910F91FF90EF90DF90CF90EC
:1038E000BF9008950F931F93CF93DF93EC016881EE
:1038F00079818A810E9480218C010E94E0200E94AF
:10390000E21FB801CE01DF91CF911F910F910C946E
:10391000741ACF93DF93EC018B819C81892B29F062
:103920008881998189238F3F59F4DF91CF91089540
:10393000CE010E94721CCE01DF91CF910C9427041E
:10394000CE010E94B8048111F3CF0E94C2218823C6
:1039500061F38A81882349F382E0DF91CF910C944F
:10396000532290E080E00E94141890E080E00E94D2
:103970002A180E94E9210E94EC210C9408220E943E
:10398000B2210C94B11C0E94D9210C94BF1CE92FC8
:10399000E295EF70E250EE3070F4F0E0E855F24D51
:1039A0000C94652C803F19F020F4883E20F481E0CF
:1039B0000895843FE1F380E00895883EC0F3813F9D
:1039C000D1F7F5CF93FB882780F908950E947621DF
:1039D0000C94C71CCF93DF9300D000D00F92CDB7CB
:1039E000DEB70F900F900F900F900F90DF91CF9157
:1039F0000895CF93DF9300D000D000D0CDB7DEB7CD
:103A000026960FB6F894DEBF0FBECDBFDF91CF91E3
:103A100008951F93CF93DF93C091250216E0809104
:103A200026028C1304C0DF91CF911F910895D0E03E
:103A30001C9FF0011D9FF00D1124E95DFD4F408199
:103A4000518162817381848195810E94F91C219644
:103A5000C770E5CF409157025091580260915902CA
:103A600070915A0280915B0290915C020C94F91C57
:103A70001F93CF93DF9380915C02807FA9F48091A4
:103A80005902882389F080912502C0912602609115
:103A9000570270915802A0915A02B0915B02D62F42
:103AA000D72316E0C81304C0DF91CF911F9108956A
:103AB00090E0109711F0DF3F19F401968770F2CF74
:103AC000189F9001199F300D1124F901E95DFD4FF8
:103AD00041814713F2CF40814613EFCF428141111C
:103AE000ECCF438154814A1B5B0B483C510528F7BE
:103AF00080915C028F70806180935C02F901E45DCB
:103B0000FD4F80818F708061808387E592E00E9405
:103B1000891CDF91CF911F910C94091DAF92BF9228
:103B2000CF92DF92EF92FF920F931F93CF93DF9389
:103B3000CDB7DEB761970FB6F894DEBF0FBECDBF2D
:103B40008C0185E0F801DE011D9601900D928A95A9
:103B5000E1F7F80140815181E28087E5C82E82E0DB
:103B6000D82E60915A0270915B026115710509F4BB
:103B700061C19091570220915802892F82238F3F73
:103B800009F458C1A380B480F0905902F501E61BF6
:103B9000F70BFF2009F4FCC080915C02382F307FC6
:103BA000E83CF10508F0B2C0311179C0FE2C2513B4
:103BB00023C0941321C0E1101FC08F7080618093D7
:103BC0005C020E942A1DC6010E94891C80915C0231
:103BD000F80185838F2D61960FB6F894DEBF0FBE76
:103BE000CDBFDF91CF911F910F91FF90EF90DF90AC
:103BF000CF90BF90AF900895AB2829F0842F8523F4
:103C00008F3F09F033C180E0F82FF170DF2E80FF85
:103C10003CC0809125022091260236E0821315C017
:103C20004D875E878D859E850E947621292F22955E
:103C30002F702230F0F0243018F59F70F1F0F80169
:103C40009581907FD1F4D12C1EC090E0389FF00177
:103C5000399FF00D1124E95DFD4F6181651306C0A8
:103C60006081641303C062816E110FC0019687707A
:103C7000D5CF9F7011F0882331F3805E883018F320
:103C8000C8010E94891CFD2CA5CFEE2009F4A2CF0B
:103C900080915C02816080935C02F12C9BCF2513A4
:103CA00006C0941304C0F801EE2009F48DC04D87BE
:103CB0005E878D859E850E94E61C882319F1EE2083
:103CC00009F180915C02803270F0209157023091AE
:103CD000580238872F831986BB86AA868C87CE0127
:103CE00007960E94891C86E0F801A7E5B2E00190E2
:103CF0000D928A95E1F70E94381D0E942A1DFF242B
:103D0000F39468CFC8010E94891CF9CF311113C008
:103D10007A2DB98AA88A6E2D89890E94EA1C87E5C6
:103D200092E00E94891C86E0F60111928A95E9F7DB
:103D30000E942A1DB2CF25130FC094130DC0E110AD
:103D40000BC0F8018583C8010E94891C86E0F6013A
:103D500011928A95E9F73ECF4D875E878D859E85C6
:103D60000E94E61C882371F2EE2061F280915C02D1
:103D7000803208F4B8CF20915702309158023A832C
:103D800029831B82BD82AC828E83CE010196A9CF8E
:103D9000E83CF10508F041C0FE2CEE2009F4B2CF5A
:103DA00025132AC0941328C080915C0280FD1BC09B
:103DB000982F907FC1F0F8018583903F31F0982FC4
:103DC000907F905F8F70892B8583C8010E94891C2A
:103DD00086E0F801A7E5B2E001900D928A95E1F73F
:103DE0000E942A1DF7CE86E0F801A7E5B2E0019017
:103DF0000D928A95E1F7EECE4D875E878D859E8583
:103E00000E94E61C81116FCF80915C0281608093DB
:103E10005C02C8010E94891CDDCE7A2DB98AA88A6D
:103E20006E2D89890E94EA1C86E0F60111928A951E
:103E3000E9F7D6CFEE2009F465CF4D875E878D85F3
:103E40009E850E94E61CF82E882309F45BCF86E04D
:103E5000F801A7E5B2E001900D928A95E1F787E5B8
:103E600092E00E9469190E94381DBACF81E08E2528
:103E7000CBCE1F93CF93DF93CDB7DEB72C970FB682
:103E8000F894DEBF0FBECDBF4F83588769877A870E
:103E90008B879C87CE0107960E948E1D882369F030
:103EA0008A859B85892B39F04F815885842F8523FE
:103EB0008F3F09F071C016E05FC086E0FE013796C3
:103EC000DE01119601900D928A95E1F78A859B8516
:103ED000892B89F38F81988589238F3F61F3209106
:103EE000260230E0C901019687709927409125028A
:103EF0004817190671F40E94C31C109226021092F2
:103F0000250286E0E7E5F2E0DF011D928A95E9F7F8
:103F1000D2CF96E0929FD001939FB00D1124A95D5E
:103F2000BD4FFE01319601900D929A95E1F7809375
:103F300026020E94091DBFCF819FC0011124895D07
:103F40009D4F0E948E1D8823E9F0E09125021E9F5F
:103F5000F0011124E95DFD4F40815181628173813F
:103F6000848195810E94F91C8091250290E0019640
:103F700087709927809325028091250290912602CF
:103F80008913DACF2C960FB6F894DEBF0FBECDBFE3
:103F9000DF91CF911F91089569857A858B859C85E6
:103FA0000E94F91C88CF08950C94D31F0E94D41F3F
:103FB000609393027093940280939502909396027B
:103FC0000C94B11C08950C94D61F0F931F9300916D
:103FD0009302109194022091950230919602602BE9
:103FE000712B822B932B1F910F910C94D61F0F9343
:103FF0001F930091930210919402209195023091A9
:10400000960260237123822393231F910F910C94B6
:10401000D61F0F931F930091930210919402209149
:1040200095023091960260277127822793271F916E
:104030000F910C94D61F0C94D31F0C941B200E943C
:104040001D2060938F027093900280939102909351
:1040500092020C94B11C60E070E0CB010C941F2024
:104060000F931F9341E050E060E070E08A019B01F4
:1040700004C0000F111F221F331F8A95D2F7C901F8
:10408000B8011F910F910C941F200F931F9341E0D3
:1040900050E060E070E004C0440F551F661F771FBA
:1040A0008A95D2F780918F0290919002A09191020F
:1040B000B09192028A019B01082B192B2A2B3B2BD2
:1040C000C901B8011F910F910C941F200F931F93EA
:1040D00041E050E060E070E004C0440F551F661FEF
:1040E000771F8A95D2F7CB01BA01609570958095BC
:1040F000909500918F021091900220919102309141
:10410000920260237123822393231F910F910C94B9
:104110001F200F931F9341E050E060E070E004C067
:10412000440F551F661F771F8A95D2F780918F0223
:1041300090919002A0919102B09192028A019B010C
:10414000082719272A273B27C901B8011F910F917A
:104150000C941F200F931F9300918F0210919002D7
:104160002091910230919202602B712B822B932B24
:104170001F910F910C941F200F931F9300918F029A
:10418000109190022091910230919202602371234C
:10419000822393231F910F910C941F200F931F9341
:1041A00000918F0210919002209191023091920221
:1041B00060277127822793271F910F910C941F204E
:1041C00008959295907F890F982F977041E001C0D4
:1041D000440F9A95EAF786958695869595E0899F8E
:1041E000F0011124E35AFD4F30E020E070E05191DE
:1041F000DF011197CB01022E02C0969587950A9494
:10420000E2F7817081958527842385278C932F5F22
:104210003F4F2530310559F708959295907F890FCA
:10422000982F977086958695869525E0829FF00158
:104230001124E35AFD4F50E040E080E0219130E04E
:10424000092E02C0369527950A94E2F7217033278C
:10425000042E01C0220F0A94EAF7822B4F5F5F4FB2
:104260004530510559F70895BF92CF92DF92EF92F2
:10427000FF920F931F93CF93DF938C01C0908F0217
:10428000D0909002E0909102F0909202809193027F
:1042900090919402A0919502B0919602C82AD92AD1
:1042A000EA2AFB2ACFE1D0E0BC2ED701C6010C2EB2
:1042B00004C0B695A795979587950A94D2F780FD87
:1042C0000EC0219788F7B12C8B2DDF91CF911F91D4
:1042D0000F91FF90EF90DF90CF90BF900895B801BD
:1042E0008C2F0E94F405019761F3EECFCF93DF93FB
:1042F000EC010E943421BE01DF91CF910C94F405B2
:104300001F93CF93DF93EB0190912402992331F017
:10431000CB01DF91CF911F910C947621882379F006
:10432000CB010E943421182F682FCE010E94E1207A
:10433000BE01812FDF91CF911F910C94F405CB0129
:104340000E940D21182FF4CF682F809117019091B2
:1043500018010C946F23682F809117019091180118
:104360000C94712380911701909118010C94732380
:1043700080919702859585958595089580919702FE
:104380008770089590919702977081E009F480E01A
:1043900008958091A30208959091A302892B8093A0
:1043A000A302089580959091A30298239093A3026D
:1043B00008951092A30208959091A202892B8093F0
:1043C000A202089580959091A20298239093A20250
:1043D00008951092A20208951092A102089580916A
:1043E0009802089508950C94F221909198029817DC
:1043F00021F0809398020C94F32108958091980203
:10440000882329F01092980280E00C94F3210895FB
:10441000E0911701F09118018091A3028083E0914F
:104420001701F091180180819091A202892B80835D
:10443000E0911701F091180180819091A102892BE0
:10444000808390919802992381F0E0911701F09177
:1044500018018081892B8083809117019091180128
:104460000E94272381110E94FE21809117019091C3
:1044700018010C94091808950C943B2298E0899F28
:1044800090011124622B609397020E944520809135
:1044900097028595859585950C943C2210929702FC
:1044A00080E00C943C229091970280958923809320
:1044B0009702282F277071F4282F082E000C330B39
:1044C0009217130639F08595859585950E9466208B
:1044D0000C944E22089580E008956FEF7FEF90E0F6
:1044E00080E00C943E2D90E080E00E941A2D21E0A7
:1044F0008B3E9E4F09F020E0822F089582E090E0ED
:104500000C940C2D83E090E00C940C2DCF9384E060
:1045100090E00E940C2DC82F81E290E00E940C2DAB
:10452000982F8C2FCF910895CF93C92F682F84E0B7
:1045300090E00E94202D6C2F81E290E0CF910C94AE
:10454000202D86E090E00C940C2D682F86E090E002
:104550000C94202DAB01BC018FE090E00C94322D27
:10456000AB01BC0183E190E00C94322D60E070E07F
:10457000CB010C94B02260E070E0CB010E94AA2233
:104580000C94B6226BEE7EEF90E080E00E943E2D10
:1045900060E082E090E00E94202D60E083E090E007
:1045A0000E94202D10929302109294021092950274
:1045B0001092960260E084E090E00E94202D60E07E
:1045C00081E290E00E94202D60E085E090E00E9472
:1045D000202D60E086E090E00E94202D6FEF87E0C4
:1045E00090E00E94202D40E050E0BA0188E090E089
:1045F0000E94322D60E08DE090E00E94202D40E08E
:1046000050E0BA0188E190E00E94322D60E087E13D
:1046100090E00E94202D40E050E0BA018CE190E053
:104620000E94322D60E080E290E00E94202D40E068
:1046300050E0BA0188E190E00E94322D0C94BB2238
:104640000C94C222682F8EE090E00C94202D9C01E7
:104650002E5F3F4FAC01485F5F4F80E02417350766
:1046600009F40895F90191919F019923B9F38F5F9E
:10467000F5CF662349F0FC01329608962191261762
:1046800029F0E817F907D1F780E0089581E008954F
:104690009C01FC0132969FEF80E04191461751F05A
:1046A0009F3F19F4411101C0982F8F5F8630A9F701
:1046B0009F3F09F40895290F311D97FD3A95F9019F
:1046C00062830895FC01329608962191261303C057
:1046D000DF0111971C92E817F907B9F708950C94B8
:1046E00048230C946223029626E0FC0111922A953D
:1046F000E9F70895089508950C947B238091E602CC
:10470000843009F42EC00E947C2380E00E94E011D6
:1047100080E00E94EC050E94D50E1092A50288E16F
:1047200090E020E40FB6F894A895809360000FBE47
:104730002093600083B7817F846083BF83B78160EB
:1047400083BF7894889583B78E7F83BF0FB6F89424
:10475000A89580916000886180936000109260004D
:104760000FBE08950895CF930E947A230E943708C0
:104770000E94B223C0E08C2F0E94C007892B31F425
:10478000CF5FC530C1F780E0CF91089581E0FCCFC5
:1047900008950C94C8230E94C31C0E94E2100E943A
:1047A000FD170E94EC050E94A10F0C94C9231F92D3
:1047B0001FB61F9211248F939F93AF93BF93809145
:1047C000A502811113C08091DC029091DD02A091BD
:1047D000DE02B091DF024196A11DB11D8093DC0283
:1047E0009093DD02A093DE02B093DF02BF91AF9100
:1047F0009F918F911F901FBE1F90189582E084BDDE
:1048000093E095BD9AEF97BD80936E0008952FB702
:10481000F8948091DC029091DD02A091DE02B091CB
:10482000DF022FBF08952FB7F8946091DC027091DA
:10483000DD028091DE029091DF022FBF08959C017E
:104840004FB7F8948091DC029091DD02A091DE02D6
:10485000B091DF024FBF821B930B089578941F9293
:104860001FB61F9211248F939F93AF93BF93809194
:10487000DC029091DD02A091DE02B091DF02019690
:10488000A11DB11D8093DC029093DD02A093DE0296
:10489000B093DF02BF91AF919F918F911F901FBE88
:1048A0001F90189581E08093E00080E28093D8000B
:1048B0001092C9008FE19EE40197F1F700C000005B
:1048C00087E090EBDC018093EF029093F002A093DD
:1048D000F102B093F20288E19CE00FB6F894A8953B
:1048E000809360000FBE90936000FFCF9093D7013C
:1048F0008093D60108950C94AC120E9437088FE380
:104900009CE90197F1F700C000000E94370880E0A1
:104910000E94C00780FF04C00E947B240C94522494
:1049200008950E947322811102C00E9420230E94D8
:104930007E228093A4020E9486229093E1028093BB
:10494000E0020E948222682F70E090E080E00E94E6
:10495000E31F60918F02709190028091910290917B
:1049600092020C941D208091AE0208950895CF9379
:10497000DF9300D00F92CDB7DEB79091E60294306E
:1049800011F589837B836A839093E9008FEF90917F
:10499000E800815095FD06C095ED9A95F1F700006D
:1049A0008111F5CF8091E80085FF0DC050E040E017
:1049B00063E070E0CE0101960E9411278091E8002B
:1049C0008E778093E8000F900F900F90DF91CF913A
:1049D0000895BC0184E00C94B724BC0183E00C94DE
:1049E000B724CF93DF93EC0181E08093E9008FEF50
:1049F0009091E800815095FD06C095ED9A95F1F7EC
:104A000000008111F5CF8091E80085FF14C050E0CF
:104A100040E068E070E0CE010E9411278091E8003C
:104A20008E778093E80088E0FE01A6EAB2E001906C
:104A30000D928A95E1F7DF91CF910895CF93FC0114
:104A4000603221F58091E602843001F5C091E900E1
:104A5000CF702091EC00922F917020FD90E8C92B2F
:104A600082E08093E9008091E80080FF0CC050E074
:104A700040E060E270E0CF010E9411278091E800E1
:104A80008E778093E800CF70C093E900CF910895AE
:104A90008091E502811109C00E94F0280E944D29F1
:104AA0008091E20084608093E20008951092E50214
:104AB000089508950895089542E061EC81E00E9410
:104AC0006C2842E261EC84E00E946C2842E261ECD6
:104AD00082E00E946C2842E260EC83E00C946C2837
:104AE0008091E802833009F461C030F48130D1F163
:104AF000823009F49DC008958A3009F489C08B3052
:104B000009F46FC0893009F050C08091E70281320A
:104B100009F04BC08091EB029091EC02009719F0E4
:104B2000029709F042C08091E800877F8093E800F7
:104B30008091E80082FF35C09091F3008091F200EF
:104B4000029729F48091F1008B7F813021F48091CC
:104B5000F1008093AE028091E8008B778093E800AB
:104B60000C94A0288091E702813AF9F48091E80042
:104B7000877F8093E8008091EB029091EC02892B73
:104B800061F468E086EA92E070E00E94AF278091CD
:104B9000E8008B778093E800089560E090E080E083
:104BA000F3CF8091E6028111C3CF08958091E7028F
:104BB000813AD9F78091EB029091EC02892BA9F709
:104BC0008091E800877F8093E8008091E80080FF73
:104BD000FCCF809123018093F1008091E8008E77D3
:104BE000BDCF8091E702813201F78091EB02909175
:104BF000EC02892BD1F68091E800877F8093E80052
:104C00000E94A0288091E902809323010C94C31C88
:104C10008091E702813249F68091E800877F809396
:104C2000E8000E94A0288091EA028093AF020895D4
:104C30008091E702813A09F0B8CF8091E800877F40
:104C40008093E8008091E80080FFFCCF8091AF0264
:104C5000C2CFCDB7DEB7A0970FB6F894DEBF0FBEB8
:104C6000CDBF84B7877F84BF0FB6F894A895809195
:104C70006000886180936000109260000FBE80E841
:104C800090E00FB6F89480936100909361000FBE9E
:104C90000E9461180E94F0280E944D298091E20034
:104CA00084608093E20078940E94D62B0E94711851
:104CB00089E191E00E94F81713E08091E6028530C7
:104CC000C9F00E947F188091E6028430D1F00E94E2
:104CD0006F180E947018F1CF0E947E238091E40229
:104CE000882341F00E94B323882321F00E94FB26F1
:104CF0000E94C31C8091E602853071F30E94CB2391
:104D0000E0CF1093E9008091E80082FFE0CF80912E
:104D1000E80090E085FF09C050E040E060E270E00C
:104D2000CE0101960E94602791E08091E8008B7788
:104D30008093E800992359F260E2CE0101960E9427
:104D40008E13C5CF0C94A426292F33272330310589
:104D500021F168F42130310509F443C022303105D6
:104D600009F444C090E080E030E020E026C0213229
:104D7000310551F122323105A9F76330710590F701
:104D8000FB01EE0FFF1FE753FE4F208131816A5375
:104D90007E4FFB01808190E010C099278130910502
:104DA00081F0009729F00297E9F6E6EFF5E002C0FE
:104DB000ECE2F6E0849190E09F01FA0131832083D8
:104DC0000895EAE1F6E0F6CF6330710558F6660F14
:104DD000771FFB01E153FE4F2081318189E090E094
:104DE000ECCF82E190E02BE836E0E7CF8BE590E076
:104DF00020E336E0E2CF80E189BD82E189BD09B4DC
:104E000000FEFDCF8091D8008F7D8093D8008091E7
:104E1000E00082608093E0008091E00081FDFCCFA3
:104E20000895AF92BF92CF92DF92FF920F931F939C
:104E3000CF93DF936C01EB018A010E94BF28F82E0B
:104E4000811123C00115110539F0F801808191818C
:104E5000C81BD90BC80ED91EB12CA12C2097A9F0C4
:104E60008091E80085FD22C08091E8008E778093D4
:104E7000E80001151105A1F0F80180819181A80ECB
:104E8000B91EB182A08285E0F82E8F2DDF91CF91DF
:104E90001F910F91FF90DF90CF90BF90AF9008953A
:104EA0000E94BF288823D1F2F82EEFCFF60181911E
:104EB0006F018093F1002197FFEFAF1ABF0ACECFA9
:104EC000AF92BF92CF92DF92FF920F931F93CF9337
:104ED000DF936C01EB018A010E94BF28F82E81113B
:104EE00023C00115110539F0F80180819181C81B9B
:104EF000D90BC80ED91EB12CA12C2097A9F08091F6
:104F0000E80085FD22C08091E8008B778093E8005F
:104F100001151105A1F0F80180819181A80EB91E3B
:104F2000B182A08285E0F82E8F2DDF91CF911F9165
:104F30000F91FF90DF90CF90BF90AF9008950E94A7
:104F4000BF288823D1F2F82EEFCF8091F100F6012F
:104F500081936F012197FFEFAF1ABF0ACECFFC01FB
:104F60008091ED029091EE0286179707A0F06115EF
:104F7000710529F49091E8009E779093E80090E005
:104F80006115710551F4911108C08091E80082FF0C
:104F900034C080E00895BC01F2CF8091E6028823FE
:104FA000C1F18530C1F18091E80083FD30C080916E
:104FB000E80082FDEACF8091E80080FFE1CF809198
:104FC000F3002091F200382F6115710519F0283097
:104FD000310558F091E02830310509F090E020913A
:104FE000E8002E772093E800CBCF81918093F100E9
:104FF000615071092F5F3F4FE7CF8091E602882310
:1050000041F0853041F08091E80083FFBECF81E020
:10501000089582E0089583E00895FC018091ED02F7
:105020009091EE0286179707A0F06115710529F49B
:105030008091E8008E778093E80090E0611571051B
:1050400051F4911108C08091E80082FF35C080E0E2
:105050000895BC01F2CF8091E6028823C9F1853022
:10506000C9F18091E80083FD31C08091E80082FDA4
:10507000EACF8091E80080FFE1CF8091F30020919A
:10508000F200382F6115710519F02830310558F0FC
:1050900091E02830310509F090E08091E8008E77AA
:1050A0008093E800CBCF84918093F10031966150DA
:1050B00071092F5F3F4FE6CF8091E602882341F0D0
:1050C000853041F08091E80083FFBDCF81E00895F5
:1050D00082E0089583E00895982F973028F08F702C
:1050E0008093E90081E008959093E900242F762FC2
:1050F00050E0981731F07091EC002091ED00509144
:10510000F00021FD02C09F5FE8CF3091EB003E7FB1
:105110003093EB003091ED003D7F3093ED00309106
:10512000EB0031603093EB007093EC002093ED00C6
:105130005093F0002091EE0027FDE5CF80E0089528
:105140008091E70287FF13C08091E80082FF06C0CC
:105150008091E8008B778093E80004C08091E6029C
:105160008111F2CF08958091E6028823D9F38091CE
:10517000E80080FFF8CF8091E8008E77ECCF209197
:10518000E4003091E50095E6A9012091EC00822F22
:10519000817020FF06C08091E80080FF06C080E09B
:1051A00008952091E80022FD1AC08091E60288232C
:1051B00089F0853089F08091EB0085FD0FC020914A
:1051C000E4003091E50042175307F9F29150E1F6FF
:1051D00084E0089582E0089583E0089581E00895D1
:1051E0000E945E290E946629E0EEF0E080818160E5
:1051F0008083E8EDF0E080818F77808319BCA7ED94
:10520000B0E08C918E7F8C9380818F7E8083109212
:10521000E50208950F931F93CF93DF930E945E29B9
:105220000E946629C8EDD0E088818F7788838881C5
:105230008068888388818F7D888319BC1092E602FC
:105240001092E2021092E4021092E30200EE10E0EB
:10525000F80180818B7F808388818160888342E030
:1052600060E080E00E946C28E1EEF0E080818E7FBB
:105270008083E2EEF0E080818160808380818860BD
:105280008083F80180818E7F80838881806188831C
:10529000DF91CF911F910F910895E8EDF0E08081AB
:1052A0008F7E8083E7EDF0E080818160808384E001
:1052B00082BF81E08093E5020C940A29E8EDF0E0DA
:1052C00080818E7F80831092E20008951092DA0030
:1052D0001092E10008951F920F920FB60F921124C1
:1052E0002F933F934F935F936F937F938F939F93EE
:1052F000AF93BF93EF93FF938091E10082FF0BC0C8
:105300008091E20082FF07C08091E1008B7F809353
:10531000E1000E94D52B8091DA0080FF19C08091B6
:10532000D80080FF15C08091DA008E7F8093DA006C
:105330008091D90080FF96C080E189BD82E189BD5E
:1053400009B400FEFDCF81E08093E6020E9448256B
:105350008091E10080FF19C08091E20080FF15C0BC
:105360008091E2008E7F8093E2008091E200806174
:105370008093E2008091D80080628093D80019BCAD
:1053800085E08093E6020E945A258091E10084FF27
:105390002BC08091E20084FF27C080E189BD82E1BB
:1053A00089BD89B5982F917080FFFBCF8091D8007F
:1053B0008F7D8093D8008091E1008F7E8093E10003
:1053C0008091E2008F7E8093E2008091E200816014
:1053D0008093E2008091E202882309F449C084E0CE
:1053E0008093E6020E945B258091E10083FF29C043
:1053F0008091E20083FF25C08091E100877F809348
:10540000E10082E08093E6021092E2028091E100E6
:105410008E7F8093E1008091E2008E7F8093E20096
:105420008091E20080618093E20042E060E080E0F1
:105430000E946C288091F00088608093F0000E94A8
:105440005925FF91EF91BF91AF919F918F917F91DE
:105450006F915F914F913F912F910F900FBE0F90E1
:105460001F90189519BC1092E6020E94562570CF25
:105470008091E30087FD93E09093E602B3CF1F9203
:105480000F920FB60F9211242F933F934F935F9378
:105490006F937F938F939F93AF93BF93CF93DF933C
:1054A000EF93FF93D091E900DF708091EC00C82F5B
:1054B000C17080FDC0E81092E9008091F000877F04
:1054C0008093F00078940E94832A1092E9008091E2
:1054D000F00088608093F000CD2BCF70C093E9007E
:1054E000FF91EF91DF91CF91BF91AF919F918F91FC
:1054F0007F916F915F914F913F912F910F900FBED0
:105500000F901F9018951F93CF93DF93CDB7DEB701
:10551000AA970FB6F894DEBF0FBECDBF87EE92E01C
:105520002091F100FC012193CF01F2E08F3E9F0713
:10553000B9F70E9470258091E80083FF1EC1809119
:10554000E7029091E8029A3008F017C1E92FF0E0E5
:10555000EA54F24D0C94652C803899F0823809F0A9
:105560000CC18091EB028F70873008F006C18093E8
:10557000E9008091EB0085FB882780F91092E90013
:1055800006C08091E3029091E402911182609091B3
:10559000E800977F9093E8008093F1001092F1006B
:1055A0008091E8008E77E5C0882309F4D3C082306B
:1055B00009F0E3C08091E9028111D6C08091EB022D
:1055C0008F702FEF280F263008F0D7C08093E900A6
:1055D0002091EB0020FFC8C0933031F48091EB00A4
:1055E00080628093EB00C0C09091EB00906190933B
:1055F000EB0021E030E001C0220F8A95EAF720930A
:10560000EA001092EA008091EB008860EACF8111F5
:10561000B4C01091E9021F778091E3008078812B5C
:105620008093E3008091E800877F8093E8000E94E8
:10563000A0288091E80080FFFCCF8091E300806883
:105640008093E30082E0111183E08093E60295C02D
:105650008058823008F091C08091E9029091EA026E
:105660008C3D23E09207A1F583E08A838AE2898357
:105670004FB7F894DE01139620E03EE051E2E32FAD
:10568000F0E050935700E49120FF03C0E295EF70E3
:105690003F5FEF708E2F90E0EA30C0F0C7968D9399
:1056A0009D932F5F243159F74FBF8091E800877F8A
:1056B0008093E8006AE270E0CE0101960E94AF2775
:1056C0008091E8008B778093E80057C0C096E7CFC1
:1056D0006091EB027091EC02AE014F5F5F4F0E9450
:1056E000A226BC01892B09F448C09091E800977F5D
:1056F0009093E80089819A810E940D28E1CF80383B
:10570000E1F58091E800877F8093E8008091E202D4
:105710008093F10045CF811130C09091E902923021
:1057200060F58091E800877F8093E8009093E20223
:105730000E94A0288091E202882311F084E005C035
:105740008091E30087FDFACF81E08093E6020E941A
:105750005C2513C08091E902813079F481E09330B7
:1057600009F080E08093E4021092E9008091E80063
:10577000877F8093E8000E94A0288091E80083FF43
:105780000AC08091E800877F8093E8008091EB0059
:1057900080628093EB00AA960FB6F894DEBF0FBE2E
:1057A000CDBFDF91CF911F9108950895CF93809140
:1057B000E6028823A1F0C091E900CF709091EC003F
:1057C000892F817090FD80E8C82B1092E9008091AC
:1057D000E80083FD0E94832ACF70C093E900CF9137
:1057E0000895DB018F939F930E94902CBF91AF91FE
:1057F000A29F800D911DA39F900DB29F900D11242B
:105800000895991B79E004C0991F961708F0961B1C
:10581000881F7A95C9F78095089587FB082E06267C
:1058200087FD819567FD61950E94012C0EF491958D
:1058300007FC81950895AA1BBB1B51E107C0AA1F55
:10584000BB1FA617B70710F0A61BB70B881F991F21
:105850005A95A9F780959095BC01CD01089597FBC5
:10586000072E16F4009407D077FD09D00E941B2C58
:1058700007FC05D03EF4909581959F4F0895709553
:1058800061957F4F0895A1E21A2EAA1BBB1BFD0153
:105890000DC0AA1FBB1FEE1FFF1FA217B307E4070F
:1058A000F50720F0A21BB30BE40BF50B661F771F67
:1058B000881F991F1A9469F7609570958095909547
:1058C0009B01AC01BD01CF010895EE0FFF1F0590B4
:1058D000F491E02D0994692796276927782787276F
:1058E000782708950E947A2C332312F48A1B9B0B8D
:1058F0000C948B2CA29FB001B39FC001A39F700D8D
:10590000811D1124911DB29F700D811D1124911DC7
:1059100008950E947A2CB7FF0895821B930B089577
:105920000E947A2CA59F900DB49F900DA49F800D8E
:10593000911D11240895B7FF0C94902C0E94902C77
:10594000821B930B08958F929F92AF92BF92CF923A
:10595000DF92EF92FF92CF93DF93EC016881798120
:105960008A819B81611571058105910521F464E2AD
:1059700079ED8BE597E02DE133EF41E050E00E94B7
:10598000542D49015A019B01AC01A7EAB1E40E94E0
:10599000902C6B017C01ACEEB4EFA50194010E9448
:1059A0009E2CDC01CB018C0D9D1DAE1DBF1DB7FFD4
:1059B00003C00197A109B04888839983AA83BB8358
:1059C0009F77DF91CF91FF90EF90DF90CF90BF90C6
:1059D000AF909F908F9008950E94A32C089580E02F
:1059E00091E00E94A32C0895B0E0A0E08093000114
:1059F00090930101A0930201B09303010895FC016B
:105A00004150504030F001900616D1F73197CF0148
:105A10000895882799270895F999FECF92BD81BDF1
:105A2000F89A992780B50895A6E1B0E044E050E0E7
:105A30000C94462DA8E1B0E042E050E00C94462DD5
:105A4000262FF999FECF92BD81BDF89A019700B437
:105A5000021639F01FBA20BD0FB6F894FA9AF99AD7
:105A60000FBE08950396272F0E94212D0E94202DFE
:105A7000252F0E94212D242F0C94212D0196272FB4
:105A80000E94212D0C94202DDC01CB01FC01F99901
:105A9000FECF06C0F2BDE1BDF89A319600B40D927A
:105AA00041505040B8F70895052E97FB1EF400941E
:105AB0000E946B2D57FD07D00E94432C07FC03D09A
:105AC0004EF40C946B2D50954095309521953F4F99
:105AD0004F4F5F4F089590958095709561957F4FDA
