:100000000C9401040C9439040C9439040C943904B4
:100010000C9439040C9439040C9439040C9439046C
:100020000C9439040C9439040C9477130C94B91281
:100030000C94901B0C9439040C9439040C943904DE
:100040000C9439040C9439040C9439040C9439043C
:100050000C9439040C9405150C9439040C9439044F
:100060000C9439040C9439040C9439040C9439041C
:100070000C9439040C9439040C9439040C9439040C
:100080000C9439040C9439040C9439040C943904FC
:100090000C9439040C9439040C9439040C943904EC
:1000A0000C9439040C9439040C943904D006440798
:1000B000D806A206A606DC06A906DF06EA06B406EE
:1000C0003A07B806EE06BC06F2061C07C006F6069E
:1000D0002607C606FC060607AD06E306B006E606DA
:1000E000CB0601071207320734079E06D4064D07D8
:1000F0006D0773076006670779077F078507BC07E9
:10010000DE07E307E807ED07F207F707FC0701083A
:1001100006080B081208680668066806680668067E
:10012000680668066806680699089908CC08CC082D
:100130004B09650A650A650A6909DD09EE09EE09D8
:100140008B0D8E0DCA0DE80DEF0DFA0DFD0DFD0D99
:10015000FD0D100F100F790E7B0E7F0EA40EC50E35
:10016000C80ECB0EEF0ED110F810A112F810A1128C
:1001700044116711A1125C126C1200000000000013
:10018000000000000000000000000000000000006F
:1001900000000000000000000000000000007E0FD2
:1001A00000D4FFFFFFC7000000780000000000003F
:1001B00000002A2B280000000000000000000000C2
:1001C000000000000029000000002C1E3420212225
:1001D00024342627252E362D3738271E1F2021228E
:1001E000232425263333362E37381F040506070807
:1001F000090A0B0C0D0E0F101112131415161718F7
:10020000191A1B1C1D2F3130232D35040506070834
:10021000090A0B0C0D0E0F101112131415161718D6
:10022000191A1B1C1D2F3130354C05010980A10105
:10023000850319012AB700150126B700950175102D
:100240008100C0050C0901A101850419012AA00241
:10025000150126A002950175108100C0050109064F
:10026000A1018506050719E029E715002501950874
:10027000750181020507190029EF1500250195F088
:10028000750181020508190129059505750191027D
:10029000950175039101C00660FF0961A101096222
:1002A000150026FF009520750881020963150026B8
:1002B000FF00952075089102C005010906A10105FE
:1002C0000719E029E71500250195087501810295B8
:1002D00001750881010507190029FF150026FF0097
:1002E00095067508810005081901290515002501E5
:1002F000950575019102950175039101C009025B95
:1003000000030100A0FA0904000001030101000933
:1003100021110100012244000705810308000109A1
:100320000401000203000000092111010001222242
:1003300000070582032000010705030320000109CF
:100340000402000103000000092111010001226DD7
:1003500000070584032000011201000200000008CC
:10036000524D010001000102000124034D0069000B
:100370006E007300680061007200610020004D0093
:100380006100720061007500640065007200000089
:100390000C03420042002D0036003600000004032A
:1003A000090400010101010101010101020202022F
:1003B000020202020203030303030303030404040F
:1003C00004040404050505050506060606060707D8
:1003D00007070708080808090909090A0A0A0B0B90
:1003E0000B0C0C0C0D0D0D0E0E0E0F0F0F1010112F
:1003F00011111212131314141515161617171818B5
:1004000019191A1A1B1B1C1D1D1E1E1F202021221C
:1004100022232424252626272829292A2B2C2D2D62
:100420002E2F30313232333435363738393A3B3C7F
:100430003D3E3F404142434445464748494A4C4D72
:100440004E4F50515354555658595A5B5D5E5F613B
:100450006264656668696B6C6D6F707273757778CE
:100460007A7B7D7E8082838587888A8C8E8F91932C
:100470009596989A9C9EA0A2A3A5A7A9ABADAFB153
:10048000B3B5B7BABCBEC0C2C4C6C9CBCDCFD1D438
:10049000D6D8DBDDDFE2E4E7E9EBEEF0F3F5F8FADE
:1004A000FDFF29003A003B003C003D003E003F00BC
:1004B0004000410035001E001F00200021002200E6
:1004C0002300240025002B0014001A00080015004A
:1004D00017001C0018000C0039000400160007006B
:1004E00009000A000B000D000E00E1001D001B00BA
:1004F000060019000500110010003600E000E300BE
:10050000E2000000000000002C00000000002900B4
:1005100047004600480000004500440043004200F8
:1005200056005500540053002A002E002D002700CD
:1005300026005700610060005F00310030002F008E
:100540001300120000005E005D005C000000280047
:10055000340033000F0058005B005A0059000000BF
:100560000000E50038003700000063000000620072
:10057000E4000000E700E600000029003A003B002C
:100580003C003D003E003F004000410035001E00A1
:100590001F002000210022002300240025002B0042
:1005A00014001A000800150017001C0018000C00A9
:1005B000390004001600070009000A000B000D00B6
:1005C0000E00E1001D001B000600190005001100CF
:1005D00010003600E000E300E20000000000000030
:1005E0002C000000000029004700460048000000E1
:1005F000450044004300420056005500540053009B
:100600002A002E002D002700260057006100600000
:100610005F00310030002F001300120000005E0068
:100620005D005C0000002800340033000F0058001B
:100630005B005A00590000000000E5003800370058
:100640000000630000006200E4000000E700E60034
:10065000000029003A003B003C003D003E003F0006
:100660004000410035001E001F0020002100220034
:100670002300240025002B0014001A000800150098
:1006800017001C0018000C003900040016000700B9
:1006900009000A000B000D000E00E1001D001B0008
:1006A000060019000500110010003600E000E3000C
:1006B000E2000000000000002C0000000000290003
:1006C0004700460048000000450044004300420047
:1006D00056005500540053002A002E002D0027001C
:1006E00026005700610060005F00310030002F00DD
:1006F0001300120000005E005D005C000000280096
:10070000340033000F0058005B005A00590000000D
:100710000000E500380037000000630000006200C0
:10072000E4000000E700E600000029003A003B007A
:100730003C003D003E003F004000410035001E00EF
:100740001F002000210022002300240025002B0090
:1007500014001A000800150017001C0018000C00F7
:10076000390004001600070009000A000B000D0004
:100770000E00E1001D001B0006001900050011001D
:1007800010003600E000E300E2000000000000007E
:100790002C0000000000290047004600480000002F
:1007A00045004400430042005600550054005300E9
:1007B0002A002E002D00270026005700610060004F
:1007C0005F00310030002F001300120000005E00B7
:1007D0005D005C0000002800340033000F0058006A
:1007E0005B005A00590000000000E50038003700A7
:1007F0000000630000006200E4000000E700E60083
:10080000000011241FBECFEFDAE0DEBFCDBF04B67B
:1008100003FE18C08091C3029091C402A091C5024A
:10082000B091C6028730904BA740B04B59F410925C
:10083000C3021092C4021092C5021092C602E0E0F8
:10084000F8E3099511E0A0E0B1E0E4E7F4E402C0C8
:1008500005900D92A836B107D9F722E0A8E6B1E0DD
:1008600001C01D92A33CB207E1F70E94CA0A0C9492
:1008700038220C940000A6E0B0E0E1E4F4E00C942F
:10088000CC2149835A8349815A81992361F02223DB
:1008900051F0CA010E94DE1E182F682F89819A81AB
:1008A0000E944E1F04C0CA010E941A1F182F69819E
:1008B0007A81812F0E9442172696E3E00C94E8216A
:1008C0000E94C51F2FEF84E39CE0215080409040A0
:1008D000E1F700C000009CE088E10FB6F894A8950D
:1008E000809360000FBE90936000FFCFABE1B0E05B
:1008F000ECE7F4E00C94CB214E8B5F8B688F798F03
:100900008A8F9B8F192F911110921902DE011F9669
:1009100087E0FD0111928A95E9F786E0FE0176965F
:1009200001900D928A95E1F70A8D002341F021E0B4
:100930004F85588969897A89C8010E943B040B8BCD
:100940001C8B87E0FE013F96DE01189601900D9208
:100950008A95E1F7CE0108960E947B1981112CC07F
:1009600087E0FE013896DE01119601900D928A957E
:10097000E1F76C85662301F12091DD0130E0C901CA
:100980000196877099274091160250E084179507C9
:1009900061F16D8397E0929FD001939FB00D112478
:1009A000A252BE4FFE01319601900D929A95E1F749
:1009B0008093DD010E94181917E080911602909132
:1009C000DD018917F9F0189FC001112482529E4F52
:1009D0000E947B198823B1F08091160290E0019665
:1009E0008770992780931602E8CF0E94C51F109246
:1009F000DD0110921602E6EDF1E087E0DF011D92C5
:100A00008A95E9F76B96E4E00C94E721A8E0B0E062
:100A1000ECE0F5E00C94BD21FC018481882309F40D
:100A2000B5C57F0121E0408151816281738195814B
:100A30000E943B048C01F7018581882309F438C1A9
:100A4000C80197578038910508F054C1003108F06B
:100A50003FC18FEF93E00E944421811139C138E8F2
:100A6000A32E33E0B32E002379F0A114F4E0BF06E7
:100A700009F42EC1C5010E944421811101C0015019
:100A80002FEFA21AB20AEFCFCE0101962C0188E017
:100A9000F20111928A95E9F72AE0322E85010F5F63
:100AA0001F4FC5010E94442189831A82882309F4BB
:100AB0000FC1813009F041C06501F2E0CF0ED11CB9
:100AC000C8010E9444218A83882309F401C19FEF51
:100AD000980F933060F423E0A20EB11CC6010E946F
:100AE00044218B83882309F4F3C01C8229C08430FD
:100AF00031F54E0133E0830E911C02E010E0560107
:100B00008FEFA81AB80AC6010E944421F40181930C
:100B10004F01882309F4DCC08C3741F4E2E0F0E0B7
:100B2000EC0FFD1FE00FF11F10820AC00F5F1F4F77
:100B300065010730110519F7CBC0580101C05601F6
:100B40008201F8012081222309F4A8CF213009F085
:100B500053C08181813081F46801F2E0CF0ED11C55
:100B6000F8018281893319F460E570E002C060E029
:100B700070E00E948D2015C0823049F46801F2E0D7
:100B8000CF0ED11CF80182810E9422200AC083303E
:100B900051F46801F2E0CF0ED11CF80182810E946D
:100BA000F81F860182C0843019F00F5F1F4F7DC08F
:100BB000F80122810E5F1F4F80E090E030E020536B
:100BC00031092A30310568F4389EA001399E500D54
:100BD0001124C901840F951F0F5F1F4FF801208159
:100BE000EDCF009709F461C0EFE9FFE03197F1F72D
:100BF00000C000000197F5CFE22FF0E0E655FE4F70
:100C00002490822F86958695869590E0FC01E65685
:100C1000FE4F64902770712C022E02C07594679469
:100C20000A94E2F7F1E06F227724FC01E657FE4FC9
:100C30008490912C022E02C0959487940A94E2F736
:100C400031E083229924FC01E658FE4FC490D12C58
:100C500002C0D594C7942A95E2F781E0C822DD242A
:100C60006114710419F081EE0E9422208114910414
:100C700019F086EE0E94222060E070E0822D0E9432
:100C80008D208114910419F086EE0E94F81F6114E2
:100C9000710419F081EE0E94F81FC114D10429F0EB
:100CA00060E070E08CE20E948D200F5F1F4F49CF03
:100CB000F801E851FC47E730F10508F03FC103C1F6
:100CC00006E221EE41EE6AE17CE7C7010E94B21C18
:100CD00080911702877009F459C4F7018581882330
:100CE00009F454C48091970282FF50C482E00E94AC
:100CF000EA184CC4F801E851FC47E730F10508F464
:100D0000E2C010928F02C8019057839708F003C188
:100D100084E090E00E945221909397028093960283
:100D2000F801E150F047E232F10520F4EA5AFF4FB2
:100D30000C94B021809196028160ACC080919702A2
:100D40008860B4C0809196028260A4C080919602AF
:100D500020C08091960288609DC0809197021EC03D
:100D6000809197028260A2C080919602806192C0B9
:100D70008091960280628EC08091960280648AC0C3
:100D80000E94C51F80919602806884C0809196025F
:100D9000886084607FC0809197028260816086C095
:100DA000809196028E7F76C080919702877F7EC069
:100DB000809196028D7F6EC08091960220C08091B6
:100DC0009602877F67C0809197021EC0809197022C
:100DD0008D7F6CC0809196028F7E5CC08091960260
:100DE0008F7D58C0809196028F7B54C00E94C51F92
:100DF000809196028F774EC080919602877F8B7F7D
:100E000049C0809197028D7F8E7F50C0809196025D
:100E100082FB222720F991E0922790FB82F990FB38
:100E200083F938C080919702982F909591708E7FAA
:100E3000892B90FB81F93AC08091960286FB22278C
:100E400020F991E0922790FB86F924C00E94C51FEB
:100E50008091960287FB222720F991E0922790FB50
:100E600087F918C061E001C060E08EE090E00E9468
:100E700068211EC08091960284FB222720F991E010
:100E8000922790FB84F906C080919602982F909546
:100E900090FB80F9809396020BC08091970283FBB0
:100EA000222720F991E0922790FB83F98093970203
:100EB000609196027091970284E090E00E948621F2
:100EC0000E94C51F05CFE858FF4F0C94B02107E2E0
:100ED00025EE45EE6BE17CE7F8CE06E221EE40EE32
:100EE00068E17CE7F2CE07E225EE44EE69E17CE7BB
:100EF000ECCE06E221EE42EE6CE17CE7E6CE07E2C4
:100F000025EE46EE6DE17CE7E0CE08E221E045EE1D
:100F10006EE17CE7DACE0631FCE71F0709F095C0E9
:100F2000809142028A7A91E009F490E090936A01FC
:100F3000811112C089E20E94E71B0BC006312CE729
:100F4000120761F480916A018111E7C289E20E946F
:100F5000B91B0E949818BCCE85E3EDCF8091420268
:100F60008272F801E052F847E531F10508F05FC000
:100F7000E158FF4F0C94B0218091850280FF17C08B
:100F8000282F2E7F20938502309186024091870280
:100F9000509188026091890270918A0280918B023F
:100FA00090918C020E94DF200E94F31D91CE8160FF
:100FB0008093850261E08695869536C044E351E2D0
:100FC0006FE371E22CC04FE351E264E371E227C0AA
:100FD0004FEB50E269EC70E222C049EC50E26FEB5B
:100FE00070E21DC045EA50E262EB70E218C042EBCD
:100FF00050E265EA70E213C044EC5EE161ED7EE12F
:101000000EC041ED5EE164EC7EE109C040E55BE1CC
:101010006AE67BE104C04AE65BE160E57BE10E94B1
:10102000EC1D56CE61E081E00E94052151CE0737CC
:10103000FCE71F0711F481E005C008372CE7120711
:1010400011F582E00E94861F08C007373CE71307AE
:1010500009F065C281E00E94931F43E062E081E0F5
:101060000E94021B35CE03309CE7190709F47AC2AF
:1010700008F05CC20115FCE71F0709F465C20130E6
:101080001C4709F475C2F70185810081118188230D
:1010900049F0C8010E94DE1ED82E682FC8010E94A8
:1010A0004E1F04C0C8010E941A1FD82EB8018D2DF2
:1010B0000E9442170E945017D82E192FA82EF70110
:1010C0000581C680C2949FE0C92280911702877073
:1010D00001F10023F1F0812F807F803469F080E2FC
:1010E0008D0D8830B0F0812F807E803229F4F1E0C0
:1010F000FD1578F4CC2069F08091970282FF09C039
:1011000082E00E94EA18809117028770BB24B39492
:101110008111B12C912E92948FE09822892D90E02C
:101120008C30910508F0D1C1FC01EC56FF4F0C94B6
:10113000B021812F807F1F70882311F01295107FBE
:101140000023B9F0112309F4AEC180E28D0D88307F
:1011500010F0A11006C090914202192B1093420288
:1011600005C090911902192B109319020E9498182A
:101170009AC18D2D0E94F81F112309F4A6C180E2A7
:101180008D0D883088F1AA2079F11095909119027F
:101190001923109319022BC0812F807F1F7080327A
:1011A00011F01295107F8D2DAA2029F021E0A216B2
:1011B00009F44CC057C08091970282FD1BC00023E8
:1011C00069F0112339F090914202192B10934202D9
:1011D0000E94981880E00E94222077C180E00E943F
:1011E000F81F112309F471C1812F0E9491180E94E8
:1011F00098186BC1002381F0CC20C1F131E0C312FB
:1012000064C190911802812F8923181709F45DC1D8
:10121000192B1093180259C1C11057C1812F0E9478
:10122000E71F80911802912F982329F0912F909514
:1012300089238093180220916B01812F822309F466
:1012400044C11095212320936B013FC1002329F055
:1012500085E08C1508F439C109C094E09C1508F4A8
:1012600034C115C0002331F0C1101DC1812F0E946F
:10127000EE1F2BC1CC2059F0893309F023C1EFEFC9
:10128000F7EE23E0E150F0402040E1F719C1812F53
:101290000E94E71F1AC1812F86958695837019F0E9
:1012A000813061F012C1002321F08D2D912F9370B8
:1012B00002C080E090E00E94431C0DC1002321F099
:1012C0008D2D912F937002C080E090E00E941E1C33
:1012D00002C1812F8370A9F50111FBC04D2D4295EC
:1012E00046954770440F440F8D2D8F7090E09C0100
:1012F000042E01C0220F0A94EAF7D4FE08C08FE042
:1013000090E001C0880F4A95EAF7809501C080E01F
:10131000169516951370123069F088F49091840137
:10132000113019F0822B892302C0922B892B0E9445
:101330009F1FCFC0822B909184018927F8CF822BE9
:10134000F6CF002319F0812F817001C08695882384
:1013500009F4BFC04D2D429546954770440F440F88
:101360008D2D8F7090E09C01042E01C0220F0A94F5
:10137000EAF7D4FE08C08FE090E001C0880F4A95DC
:10138000EAF7809501C080E016951695137012302B
:1013900059F078F490918501113019F0822B89234E
:1013A00009C0922B892B06C0822B90918501892739
:1013B00001C0822B0E94831F8CC01F70002339F054
:1013C000812F0E94931F8D2D0E94EE1F82C08D2DB4
:1013D0000E94E71F812F0E94861F7BC08D2D32EF58
:1013E000A31681F13A1538F090EFA91659F0E1EF04
:1013F000AE1619F154C0F3EFAF1659F124EFA2164F
:10140000C1F04DC0002381F034E03C1508F45DC00C
:101410001F7181E090E0012E01C0880F0A94EAF765
:1014200090918501892720C085E08C1508F44DC076
:10143000EFCF8091970282FD1AC0002329F0812FFF
:101440008F7120C00023D9F3812F8F710E94861FD6
:101450003CC0002341F01F7181E0012E01C0880FC4
:101460000A94EAF701C080E00E94831F2EC0002387
:1014700061F0812F8F7198E0899F90011124236082
:10148000209317020E94931F20C081E00E94EA1857
:10149000E1E0EC15D0F482E00E94EA1816C00023C7
:1014A00021F0CC2061F28D2D96CECC2069F28933CB
:1014B00049F4FFEF27EE33E0F15020403040E1F7F0
:1014C00000C000008D2D0E94F81F88EF890D843028
:1014D00010F40E94681CBB20A9F08091170280FDC7
:1014E00011C0F70115828695869586950E94931FF7
:1014F000C7010E94060580911702869586958695FC
:101500000E94861F20E0F701408151816281738132
:10151000848195810E943B0439C085E318CD08374A
:101520008CE7180709F09FCD82E095CD0B353CE79D
:10153000130741F10C358CE71807E1F00A351C4719
:1015400009F0A1CD81E01FC00E94C51FEFEFF4E3B9
:101550002CE0E150F0402040E1F700C000000E9484
:10156000E114B6CB6FEF7FEF80E090E00E94862120
:101570000E9460048091970282FB882780F991E0A5
:10158000892701C080E00E9401197DCD2896E2E103
:101590000C94D921A6E2B0E0E0EDFAE00C94BD2174
:1015A00085B7806885BF85B7806885BF84B7877F2A
:1015B00084BF0FB6F894A8958091600088618093ED
:1015C0006000109260000FBE90E080E80FB6F894C3
:1015D00080936100909361000FBE87E395E1909343
:1015E0006901809368010E94FD120E941C13809182
:1015F000E20084608093E20078948091CC0188239B
:10160000A1F01091E9001F709091EC00892F81707A
:1016100090FD80E8182B1092E9008091E80083FD8E
:101620000E94EE0F1F701093E90082E084BD93E0EA
:1016300095BD9AEF97BD80936E000E94991C811111
:1016400002C00E94AE1D0BE011E027E1E22E21E076
:10165000F22ED8018D918D018F3F11F00E946A16F4
:10166000E016F106B1F707E111E0F80181918F0171
:101670008F3F11F00E946A16F1E000321F07A9F7B0
:1016800088E1E3EAF1E0DF01282F1D922A95E9F7CE
:10169000ECE6F1E0DF011D928A95E9F780E090E049
:1016A0000E945221853E9E4F21F40E94991C811177
:1016B00063C065EE7EEF80E090E00E94862160E0EE
:1016C00082E090E00E94682181E08093840161E0E3
:1016D00083E090E00E94682160E074E184E090E0A3
:1016E0000E94862160E086E090E00E94682160E030
:1016F00087E090E00E94682140E050E0BA0188E075
:1017000090E00E947A2160E083E290E00E946821EC
:1017100060E08CE090E00E94682160E08DE090E065
:101720000E94682119821A821B821C821D821E82DD
:101730001F82188648E050E067E170E0CE01019614
:101740000E94582140E050E0BA018FE190E00E94F1
:101750007A2180E00E947A1C0E94AE1D40E050E099
:10176000BA018FE090E00E947A2140E050E0BA0197
:1017700083E190E00E947A2182E090E00E9444217F
:101780008093890184E090E00E9452219093970217
:10179000809396020E948116EFEFF6E721E0E15078
:1017A000F0402040E1F700C000000E9481168091C7
:1017B000A30180FF08C06FEF7FEF80E090E00E9400
:1017C00086210E94E11483E090E00E9444210E945F
:1017D0009F1F8091860181117DC088E090E00E946A
:1017E0004C214B015C0183E290E00E944421282FB0
:1017F00030E040E050E060E070E080E090E000E247
:101800000E94F421282939294A295B29209385023D
:101810003093860240938702509388026093890236
:1018200070938A0280938B0290938C022C7F09F034
:1018300041C025E020938502109286023FEF30934D
:101840008702309388021092890230E04FEF5FEFF9
:1018500060E00E94DF2088E090E00E944C216B0154
:101860007C0183E290E00E944421282F30E040E098
:1018700050E060E070E080E090E00E94F421B22F40
:10188000A32FF42FE52F5B0197018601BC29A12B23
:10189000F22BE32BB0938502A0938602F09387028C
:1018A000E093880260938902B0928A0280938B024F
:1018B00090938C020E94D3200E94241B8091850269
:1018C00080FF05C060E0869586950E94052181E035
:1018D0008093860180E091E090939302809392023E
:1018E00098E1492E512C8E010F5F1F4F8091CC0142
:1018F000853009F060C0B0E1EB2E82E1F82E8091D6
:10190000CC01853009F04CC08091CC01843009F4C1
:1019100034C08091880181110EC081E080938801DC
:1019200080918502982F9170909387018E7F80938C
:1019300085020E94F31D1092980290E40FB6F8946D
:10194000A895409260000FBE9093600083B7817F9E
:10195000846083BF83B7816083BF7894889583B7A1
:101960008E7F83BF0FB6F894A89580916000886140
:1019700080936000109260000FBE8091CB0188239D
:1019800009F4BDCF0E948116E3EAF1E081919191C3
:10199000892B09F04EC2A1E0EB3BFA07B9F7AFCFB4
:1019A0000E94C51F0E94681C1092880180918701C7
:1019B00081110E9429210E948116FAE8EF2EF1E0A0
:1019C000FF2EA3EA6A2EA1E07A2ED301F70121911E
:1019D00031918D919D918227932721E0E23AF20780
:1019E00019F0892BA1F305C0892B19F40E946D18F9
:1019F0003FC0312CD3018D909D903D01F701A08017
:101A0000B180A824B924A114B10449F1212CCC241B
:101A1000C394D12CC5018C219D21892BB9F029A219
:101A20003AA20E94841B9CA38BA3F1E0FDA391E04A
:101A300094012C213D21232B09F490E09EA349A180
:101A40005AA16BA17CA18DA10E9476042394CC0C99
:101A5000DD1C29E02212DECFD7018D929C923394B7
:101A6000B2E0EB0EF11CECE03E12C4CF0E942B154D
:101A70000E94681C9091A201891721F08093A20115
:101A80000E942B158091CC01843009F02FCF83E088
:101A90008093E9008091E80082FF28CF8091E800E0
:101AA00085FF23C00E944E1481111DC060E2E62E06
:101AB000F12CCE0101966C0109C08091F100D60194
:101AC0008D936D01B1E0EB1AF10869F08091E800A7
:101AD00085FDF3CF8091E8008B778093E8000E942A
:101AE0004E14882399F391E001C090E08091E800C2
:101AF0008B778093E800992309F4F8CE2981822F0F
:101B000090E0FC013197E331F10508F089C1E0561E
:101B1000FF4F0C94B0211A828CE0EFC08A81823092
:101B200009F49DC150F4813009F07AC10E942B154F
:101B30009B838C837D836E8375C1833041F08430B9
:101B400009F06EC11B821C821D821E826BC14B81FB
:101B5000DE01119680E090E0242F30E0B901680F9B
:101B6000791F6C30710508F05DC1E42FE80FF0E0DB
:101B7000EE0FFF1FED55FE4F5081618113966C9360
:101B8000139714965C931497019612968E309105D4
:101B900029F748C18A81823019F0853051F040C15F
:101BA0006B817C818D819E810E94B6210E94751C73
:101BB00039C18091850280FF08C0809185028E7FA7
:101BC000809385020E94F31D2DC10E9429212AC104
:101BD0004C816B818A810E94BE1D9D8347C12D81EE
:101BE0003E813227232732274C816B818A810E94D4
:101BF000521D18C10E94791D15C18A81823009F0D9
:101C00000FC12830B9F1293009F460C08B818230CE
:101C1000F9F098F4813009F005C18C81EFEF8E9FC7
:101C2000C00111246FEF70E00E949C21462F20E03C
:101C300060918702809186021AC08330A1F08430BF
:101C400009F0F0C020E0409188026D818C810FC0C6
:101C50008C81882309F4B1CF0E94292160E08C8116
:101C60000E940521DFC08C8180938902DBC00E9425
:101C7000091ED8C08B818230E1F078F4813009F000
:101C8000D1C080918802FFEF8F9FC00111246FEFB8
:101C900070E00E949C216C83C5C0833099F0843031
:101CA00009F0C0C0809186028C83809187028D8369
:101CB000B9C08091850280FF03C08695869504C0D7
:101CC00080E002C0809189028C83ACC020918502A3
:101CD000309186024091870250918802609189027A
:101CE00070918A0280918B0290918C020E94DF2079
:101CF00099C080E14EC01A8288E78B8393C0EA8046
:101D0000FB80FE24EF24FE24CC80D12C5801C70197
:101D100088579C4F9501201B310B2C153D0508F071
:101D200081C028E7E216F10430F40E944421D50175
:101D300014968C9302C0F5011482FFEFEF1AFF0A8C
:101D40002FEFA21AB20AE3CFEA80FB80FE24EF2431
:101D5000FE24CC80D12C5801C70188579C4F950197
:101D6000201B310B2C153D0508F05CC0A8E7EA16D6
:101D7000F10420F4F50164810E946821FFEFEF1A5D
:101D8000FF0A2FEFA21AB20AE7CF0E94421D4AC0F3
:101D900084E08A8347C0EA80FB80FE24EF24FE248F
:101DA000CC80D12C5801C70188969501201B310B9E
:101DB0002C153D05B8F5A0E6EA16A3E0FA0628F4CE
:101DC0000E944421F501848303C0D50114961C921E
:101DD000BFEFEB1AFB0AEFEFAE1ABE0AE4CFEA80C0
:101DE000FB80FE24EF24FE24CC80D12C5801C701B7
:101DF00088969501201B310B2C153D0598F4F0E6D3
:101E0000EF16F3E0FF0628F4D50114966C910E94BA
:101E10006821BFEFEB1AFB0AEFEFAE1ABE0AE7CF5D
:101E20008FEF898340E250E0B80182E00E94811484
:101E30005DCDE9BCF9BC09B400FEFDCF8091D800AE
:101E40008F7D8093D8008091E00082608093E000D5
:101E50008091E00081FDFCCF0E94C51F50CD87E23C
:101E600090E00E9444211B821C821D828E83DACF67
:101E70008091CE0187FF11C08091E80082FD05C0EE
:101E80008091CC018111F8CF11C08091E8008B774F
:101E90000BC08091CC01882349F08091E80080FF3D
:101EA000F8CF8091E8008E778093E8000895982F0E
:101EB000973068F59093E900981739F07091EC002D
:101EC0002091ED005091F00003C0242F762F50E0B8
:101ED00021FD02C09F5FECCF3091EB003E7F30933D
:101EE000EB003091ED003D7F3093ED003091EB0041
:101EF00031603093EB007093EC002093ED00509331
:101F0000F0002091EE0027FDE5CF80E008958F706E
:101F10008093E90081E008952091D4013091D501AA
:101F20002617370748F06115710539F42091E8004C
:101F30002E772093E80001C0B901FC0120E0611573
:101F4000710579F18091CC018823F1F18530F1F1AF
:101F50008091E80083FD3CC08091E80082FD2EC0A6
:101F60008091E80080FFEBCF2091F3008091F20098
:101F700090E0922B6115710551F08830910538F48D
:101F800021912093F100615071090196F3CF21E076
:101F9000089709F020E08091E8008E778093E800B0
:101FA000CECF2111CFCF0AC08091CC01882361F020
:101FB000853061F08091E80083FD0AC08091E800DF
:101FC00082FFF2CF80E0089582E0089583E00895D3
:101FD00081E0089508958091C1010895AAE2B0E0DA
:101FE000E4EFFFE00C94CC21EEECF1E086ED91E023
:101FF0002091F10021938E179F07D1F78091CF0197
:10200000833009F463C030F4813071F0823009F418
:102010009DC0B4C08A3009F489C08B3009F46EC009
:10202000893009F0ABC020C08091CE01813A09F01F
:10203000A5C08091E800877F8093E8008091D2015D
:102040009091D301892B21F468E082EC91E003C0E8
:1020500060E080E090E070E00E948C0F8091E800EA
:102060008B778093E8008AC08091CE01813209F09D
:1020700085C08091D2019091D301009719F0029709
:1020800009F07CC08091E800877F8093E800809110
:10209000E80082FD05C08091CC018111F8CF6EC0AF
:1020A0002091F3008091F20090E0922B029731F49E
:1020B0008091F100813011F0863021F48091F1009F
:1020C0008093C1018091E8008B7754C08091CE014C
:1020D000813A09F053C08091D2019091D301892BAC
:1020E00009F04CC08091E800877F8093E8008091E0
:1020F000E80080FFFCCF80910A0137C08091CE01BB
:102100008132E1F58091D2019091D301892BB1F513
:102110008091E800877F8093E8000E94380F8091CB
:10212000D00180930A010E94C51F28C08091CE0172
:10213000813221F58091E800877F8093E8000E943A
:10214000380F8091D1018093C00118C08091CE01D9
:10215000813AA1F48091E800877F8093E800809124
:10216000E80080FFFCCF8091C0018093F100809156
:10217000E8008E778093E8000E94380F8091E80095
:1021800083FFDFC18091CE019091CF01492F50E0B4
:102190004A30510508F0D5C1FA01ED54FF4F0C94B7
:1021A000B021803821F0823809F0CBC108C080917D
:1021B000CA019091CB01992389F082600FC0809170
:1021C000D2018F70873008F0BCC18093E900809104
:1021D000EB0085FB882780F91092E9009091E800D8
:1021E000977F9093E8008093F1001092F10070C106
:1021F000282F2D7F09F0A5C1882319F0823061F0C6
:10220000A0C18091D001813009F09BC1933009F0C9
:1022100080E08093CB012EC08091D00181112AC033
:102220008091D2018F702FEF280F263008F089C1DE
:102230008093E9002091EB0020FF1CC0933021F433
:102240008091EB00806214C09091EB0090619093BC
:10225000EB0021E030E0A90102C0440F551F8A9530
:10226000E2F74093EA001092EA008091EB00886068
:102270008093EB001092E9008091E800877F8093C3
:10228000E8000E94380F5DC181115BC11091D0013F
:102290001F778091E3008078812B8093E300809109
:1022A000E800877F8093E8000E94380F8091E80063
:1022B00080FFFCCF8091E30080688093E3001111E0
:1022C00002C082E001C083E08093CC013AC1805813
:1022D000823008F036C12091D0013091D1012C3DDF
:1022E00053E0350779F583E08A838AE289834FB723
:1022F000F894DE01139620E03EE051E2E32FF0E097
:1023000050935700E49120FF03C0E295EF703F5FC8
:10231000EF708E2F90E0EA3010F0C79601C0C096A3
:102320008D939D932F5F243149F74FBF8091E80033
:10233000877F8093E8006AE270E0CE0101960E94F8
:102340008C0FB4C08091D2019091D301432F5527B7
:1023500043305105A9F068F44130510509F400C13A
:102360004230510509F0EDC08BE590E0EDEFF2E071
:102370004BC04132510529F14232510589F1E1C08A
:10238000C901992781309105A1F058F0029709F011
:10239000D8C0EAE6F3E0E4918E2F90E0EAE6F3E0BD
:1023A00030C0EEE9F3E0E4918E2F90E0EEE9F3E047
:1023B00028C0E0E9F3E0E4918E2F90E0E0E9F3E05B
:1023C00020C08330910508F0BCC0880F991FFC0124
:1023D000E75DFE4F0190F081E02D89E090E014C0B0
:1023E0008330910508F0ADC0FC01EE0FFF1FED5DDD
:1023F000FE4F0190F081E02DDC01A05EBE4F8C917C
:1024000090E0009709F49DC02091E800277F209379
:10241000E8002091D4013091D5012817390708F43C
:10242000C90140E0009789F12091CC01222309F4F1
:102430003DC02530D9F12091E80023FD37C020911F
:10244000E80022FD2FC02091E80020FFEBCF409153
:10245000F3002091F20030E0342B009759F028303F
:10246000310540F444914093F100319601972F5F7C
:102470003F4FF3CF41E02830310509F040E0209193
:10248000E8002E772093E800CDCF4111CDCF0AC0D0
:102490008091CC01882351F0853041F08091E80093
:1024A00083FD04C08091E80082FFF2CF8091E800B4
:1024B0008B778093E80045C0803809F042C0809156
:1024C000E800877F8093E8008091CD018093F10040
:1024D0008091E8008E77D3CE811133C08091D001F6
:1024E0009091D1019927029764F58091E800877F48
:1024F0008093E8001091D0011093CD010E94380F15
:10250000111106C08091E30087FD02C081E001C087
:1025100084E08093CC0142E061EC81E00E94570F9F
:1025200042E261EC84E00E94570F42E261EC82E0FB
:102530000E94570F42E260EC83E00E94570F8091A7
:10254000CC018091E80083FF10C08091E800877F74
:102550008093E8008091EB0080628093EB0005C0DF
:1025600082E190E0E8E5F3E04FCFAA96E3E00C9437
:10257000E8211F920F920FB60F9211242F933F93D1
:102580004F935F936F937F938F939F93AF93BF937B
:10259000CF93DF93EF93FF93C091E900CF708091C9
:1025A000EC00D82FD17080FDD0E81092E900809126
:1025B000F000877F8093F00078940E94EE0F1092D5
:1025C000E9008091F00088608093F000CD2BCF70FF
:1025D000C093E900FF91EF91DF91CF91BF91AF914F
:1025E0009F918F917F916F915F914F913F912F912B
:1025F0000F900FBE0F901F901895E8EDF0E08081CE
:102600008E7F80831092E2001092DA001092E10037
:10261000A0EEB0E08C9181608C9380818F77808375
:1026200019BCA7EDB0E08C918E7F8C9380818F7E5A
:1026300080831092BF010895A0E0B0E0E2E2F3E1F0
:102640000C94C721C8EDD0E088818F7E8883E7EDA8
:10265000F0E080818160808384E082BF81E08093AC
:10266000BF0188818E7F888302EE10E0F80110821E
:102670001092DA0081EEC82ED12CF60110828881EA
:102680008F77888388818068888388818F7D88831D
:1026900019BC1092CC011092CD011092CB01109276
:1026A000CA0190EEE92EF12CF70180818B7F8083A7
:1026B00088818160888342E060E080E00E94570F5B
:1026C000F60180818E7F8083F80180818160808324
:1026D000808188608083F70180818E7F80838881FC
:1026E00080618883CDB7DEB7E8E00C94E3211F92C8
:1026F0000F920FB60F9211242F933F934F935F9336
:102700006F937F938F939F93AF93BF93EF93FF93B9
:102710008091E10082FF09C08091E20082FF05C044
:102720008091E1008B7F8093E1008091DA0080FF4F
:102730002AC08091D80080FF26C08091DA008E7F69
:102740008093DA008091D90080FF18C080E189BDB4
:1027500082E189BD09B400FEFDCF81E08093CC0108
:102760008091BF0181110FC00E94FD120E941C13B5
:102770008091E20084608093E20005C019BC109251
:10278000CC011092BF018091E10080FF17C08091C1
:10279000E20080FF13C08091E2008E7F8093E20010
:1027A0008091E20080618093E2008091D800806295
:1027B0008093D80019BC85E08093CC018091E10022
:1027C00084FF30C08091E20084FF2CC080E189BD8D
:1027D00082E189BD09B400FEFDCF8091D8008F7DD4
:1027E0008093D8008091E1008F7E8093E1008091FA
:1027F000E2008F7E8093E2008091E200816080930E
:10280000E2008091CD01882311F084E007C080911F
:10281000E30087FD02C081E001C083E08093CC012A
:102820008091CC018091E10083FF27C08091E2007C
:1028300083FF23C08091E100877F8093E10082E0E5
:102840008093CC011092CD018091E1008E7F809326
:10285000E1008091E2008E7F8093E2008091E200AF
:1028600080618093E20042E060E080E00E94570FC8
:102870008091F00088608093F000FF91EF91BF910C
:10288000AF919F918F917F916F915F914F913F9108
:102890002F910F900FBE0F901F9018952091E4007C
:1028A0003091E50095E64091EC00842F817040FF67
:1028B00023C08091E80080FD1DC08091CC01882359
:1028C00099F0853099F08091EB0085FD11C0409121
:1028D000E4005091E5002417350729F3915011F0D9
:1028E0009A01E1CF84E0089582E0089583E008959D
:1028F00081E0089580E008954091E80042FFDDCF37
:1029000008950F931F93CF93DF938B01EA0190916A
:10291000CC01943079F58F708093E9008FEF90911E
:10292000E800815095FD06C095ED9A95F1F70000FD
:102930008111F5CF8091E80085FF1CC00E944E14E4
:10294000882361F08091E8008E778093E80012C0C0
:10295000F80181918F018093F1002197209791F3E5
:102960008091E80085FDF4CF8091E8008E77809318
:10297000E800E4CFDF91CF911F910F91089543E0DC
:1029800050E0BC0184E00E948114089540E250E0D0
:10299000BC0184E00E9481140895CF93DF93EC0181
:1029A00048E050E0BC0181E00E94811488E0FE0113
:1029B000A2ECB1E001900D928A95E1F7DF91CF9101
:1029C000089581E08093E00080E28093D800109227
:1029D000C9008FE19EE40197F1F700C0000087E095
:1029E00090EBDC018093C3029093C402A093C502D4
:1029F000B093C6029CE088E10FB6F894A895809346
:102A000060000FBE90936000FFCF78941F920F92EA
:102A10000FB60F9211248F939F93AF93BF93809122
:102A2000BB019091BC01A091BD01B091BE01019686
:102A3000A11DB11D8093BB019093BC01A093BD016A
:102A4000B093BE01BF91AF919F918F910F900FBE38
:102A50000F901F9018952FB7F8946091BB0170915B
:102A6000BC018091BD019091BE012FBF089580E00F
:102A700008959091960292FF10C041E0282F247192
:102A8000243009F040E031E0282F2871283009F087
:102A900030E0431711F02CE0822793FF10C041E093
:102AA000282F2471243109F040E031E0282F2871CB
:102AB000283109F030E0431711F02CE082273091E3
:102AC000970230FF10C051E0282F2171213009F00A
:102AD00050E041E0282F2871283009F040E05417D9
:102AE00011F029E0822731FF10C041E0282F217129
:102AF000213109F040E031E0282F2871283109F018
:102B000030E0431711F029E0822794FD877E089575
:102B10008238910569F1B0F48133910509F475C0EB
:102B200048F48932910509F467C08A32910509F4A5
:102B300071C008958533910509F459C08933910511
:102B4000B9F00895833E910589F138F4803E9105EE
:102B5000D1F0823E910529F10895863E9105C9F193
:102B6000873E9105D9F1843E910509F06CC027C0DC
:102B70002091960220FD57C021FD55C0209197025B
:102B800023FD5BC008958091960280FD48C080912E
:102B9000970280FF48C08091960284FD46C083EE74
:102BA00051C08091960282FF3CC0F5CF8091960281
:102BB00082FD37C08091970280FD35C0ECCF8091B7
:102BC000970281FF36C08091960284FD2EC087EE69
:102BD00039C08091960283FF2AC0F5CF809196027A
:102BE00083FD25C08091970281FD23C0ECCF8091A9
:102BF000960285FD22C01FC08091960285FD1BC0F4
:102C00008091970283FF19C00AC08091960286FDC9
:102C100016C017C08091960286FD13C010C089E3CC
:102C200011C082EE0FC080EE0DC080E00BC086EEBA
:102C300009C084EE07C085E305C089E203C08AE2CB
:102C400001C081E390E008959091420280911902C1
:102C5000892B909118029923E1F0892B90910A0118
:102C6000992341F09091960297FF04C09EE122E5DE
:102C700032E003C096E02AE432E0F90120E091500E
:102C800028F031913323D9F32F5FF9CF211110921E
:102C900018020895209116029091DD0157E029173E
:102CA000A9F030E0529FF001539FF00D1124E25241
:102CB000FE4F7181761306C07081781303C0758151
:102CC000741306C02F5F3F4F2770E9CF80E008954F
:102CD00081E00895F894E82FE295EF70F0E031A1DB
:102CE000282F2F7081E090E001C0880F2A95EAF725
:102CF000982F9095932391A392A1892B82A37894E6
:102D00000895A8E1B0E0E7E8F6E10C94BF21AE0138
:102D10004F5F5F4F7A0188E1FA0111928A95E9F7D6
:102D20000BE011E06A0197E1492E91E0592E6624EB
:102D30006394712C30E2832E31E0932EF801808170
:102D40008F3F09F446C0F894E82FE295EF70F0E069
:102D500021A18F70A30102C0440F551F8A95E2F78D
:102D6000CA01922F982B91A392A18095892382A3C7
:102D7000789400C0E7E1F1E021E030E0A12CB12C33
:102D800041914F3F89F0A42FA295AF70B0E090968B
:102D90008C9190E04F7002C0959587954A95E2F727
:102DA00080FD02C0C90102C080E090E0A82AB92AD3
:102DB000220F331F8E169F0619F7F80180818F3F6F
:102DC00011F00E946A16F0EAFA95F1F7F601B18265
:102DD000A0820F5F1F4FF2E0CF0ED11C40165106AC
:102DE00009F0ACCF48E150E0B7018CE691E00E94D9
:102DF0002B22892B91F088E1F701ACE6B1E001903C
:102E00000D928A95E1F781E0809347020E94841B2E
:102E1000909346028093450217C080914702882311
:102E200099F020914502309146024FB7F894809175
:102E3000BB019091BC01A091BD01B091BE014FBFFB
:102E4000821B930B059710F480E018C048E150E016
:102E50006CE671E083EA91E00E942B22892B59F005
:102E600088E1ECE6F1E0A3EAB1E001900D928A95E9
:102E7000E1F781E001C080E0109247026896E0E14E
:102E80000C94DB217C3048F4693038F4843028F429
:102E9000462F672F0E94BE1D089580E090E00895A0
:102EA0001F93CF93DF930E948815EC01C11580E535
:102EB000D807E8F5C11590E4D90708F0A8C0C03ECE
:102EC000D10530F5CD3CD10508F094C0C83AD10504
:102ED00078F4C53AD10508F083C0C130D10509F4B2
:102EE0007CC008F4F2C0C430D10508F0F1C0EDC0D8
:102EF000C33CD10508F0E9C0C85AD0E0CC0FDD1FB3
:102F0000CE5CDE4F0990D881C02DCE019464E1C023
:102F1000C11580E2D80708F0CBC0C11591E0D907F0
:102F200008F06BC0C83ED10508F4D2C0CEC0C03690
:102F300082E5D80728F5C03492E5D90708F079C0B2
:102F4000C03282E5D80708F06CC0C11592E5D907F8
:102F500008F481C04C2F4695469580E2489FA00119
:102F60001124C37021E030E0C90102C0880F991F0D
:102F7000CA95E2F7EA01C82BD92BCE019D68A9C0FA
:102F8000C03A82E5D807B8F48C2F8F71C03892E52B
:102F9000D90708F07BC08695869590E2899F9001BD
:102FA0001124C37081E090E002C0880F991FCA9578
:102FB000E2F79A6868C0C03C82E5D80708F46DC0A3
:102FC000C03E92E5D90708F080C0CF71DD27DC2F25
:102FD000CC27CE01806F906A7CC081E090E079C000
:102FE000C55AD0E0C15DDE4F8881C82FD0E0CE0148
:102FF00090646FC0CE0190656CC08D2F0E94391512
:10300000182FCE0199270E9488151F715CC0CE0130
:1030100099270E948815CC27DF70D06A8C2B9D2BB6
:1030200058C0CF71D0E0DC2FCC27CE01816F906AE1
:1030300050C08C2F8F718695869590E2899F900164
:103040001124C37081E090E002C0880F991FCA95D7
:10305000E2F79C6818C08C2F8F710E94391595E09B
:10306000D695C7959A95E1F7CF70D0E0DC2FCC27A5
:10307000282F30E084FF05C084E0220F331F8A959B
:10308000E1F7D069CE01822B932B23C090E0D82F9B
:10309000CC27CE01846F906A1CC08C2F8F710E9448
:1030A00039158F7190E0D82FCC27CE01906211C0D6
:1030B0008D2F8F710E943915182FCE0199270E94EC
:1030C00088151F719062912B04C080E090E001C0D0
:1030D000CE01DF91CF911F910895A6E0B0E0E3E724
:1030E000F8E10C94CB210E94841B8C018091430257
:1030F000909144020817190781F019821A820E94E0
:10310000841B682F49815A81792F80E090E00E94CA
:10311000760410934402009343022696E4E00C9454
:10312000E72180959091420289238093420208957D
:1031300080910A01882351F18091960287FF26C071
:103140000E9424168093510240E250E06AE172E04E
:1031500080E592E00E942B22892BD9F180E2E0E504
:10316000F2E0AAE1B2E001900D928A95E1F7E091D8
:103170009202F0919302309761F186E080935002C1
:103180000480F581E02D80E592E022C00E942416A3
:103190008093480248E050E06AE372E088E492E0FD
:1031A0000E942B22892BA9F088E0E8E4F2E0AAE350
:1031B000B2E001900D928A95E1F7E0919202F091D0
:1031C0009302309731F00280F381E02D88E492E0A1
:1031D000099508959091170280958923809317028D
:1031E000282F277069F4981759F09091970292FF51
:1031F00007C08695869586950E94861F10921702B5
:1032000008959091970292FB222720F9281779F0D0
:1032100080FB92F9909397026091960270919702C9
:1032200084E090E00E94862182E00E94EA180895DE
:10323000809116029091DD01891719F08F5F8770D8
:10324000FBCF0895CF93DF938091DC0182958F703F
:1032500009F04EC08091DB01882309F449C08091B8
:1032600016024091DD015091D7016091D601C091C5
:10327000D801D091D90177E08417D1F190E0789FFF
:10328000F001799FF00D1124DF01A252BE4F149678
:103290002C911497222349F111962C911197251303
:1032A00024C02C91261321C015962C91159721111D
:1032B0001CC012962D913C9113972C1B3D0B283C62
:1032C000310598F48091DC018F7080618093DC017E
:1032D000EC51FE4F80818F708061808386ED91E09C
:1032E0000E9406050E94181903C001968770C4CF7A
:1032F000DF91CF910895A4E1B0E0E1E8F9E10C9409
:10330000C3218C0186E0F801DE011F9601900D9229
:103310008A95E1F7F8018481E58096ED892E91E0A8
:10332000992E9091DA01911120C0882309F463C18C
:10333000EE2009F442C0C8010E94A21FF82E882383
:10334000E1F187E0F801D40101900D928A95E1F74F
:103350008091DA01813031F48091D6019091D701CA
:103360000E940D1F0E94221948C1F801D080C1801F
:10337000A280B380F090DB012091D8013091D90177
:10338000FF2009F4E7C0A501421B530B483C51053F
:1033900008F09DC0882309F430C18091DC01282FFA
:1033A000207F9091D701222361F09C1509F460C021
:1033B000C8010E94A21F811163C0C8010E940605B6
:1033C0001AC19C1113C09091D6019D110FC0E1103C
:1033D0000DC08F7080618093DC0186ED91E00E94CA
:1033E00006058091DC01F801868303C1E1103AC033
:1033F00040E06C2D8D2D0E944A1640E06C2D8D2DE5
:103400000E944A16E82E8111F4C0DF86C88A8F8593
:1034100098890E940D1F292F22952F70243020F4A7
:103420009F70223028F009C02A50223080F014C04A
:10343000992349F0811107C013C0992321F0F801A5
:103440009681907F69F0805E883030F409C0803FBB
:1034500038F0815F833020F0C8010E940605EF2C10
:10346000FE2CCBC08091DC0181608093DC01C1C067
:103470009091D6019D119CCFE1109ACFF80198C090
:10348000EE2009F49ACF2091DC01822F82958F7073
:1034900090E002978CF08091D6019091D7019987A6
:1034A0008887BB86AA868091DA018C871D862E8745
:1034B000CE0108960E94060587E0F801A6EDB1E06E
:1034C00001900D928A95E1F70E94221994C0909183
:1034D000DC01292F207F51F486ED91E00E94060542
:1034E00087E0F40111928A95E9F783C0882309F4F3
:1034F00084C08091D7018C110CC08091D6018D11B0
:1035000008C0E11006C0F8019683C8010E940605B4
:103510006AC0C8010E94A21F882309F44ECFEE2082
:1035200009F44BCF2091DC01822F82958F7090E0BF
:10353000029714F28091D6019091D7019A838983E2
:10354000BC82AB828091DA018D831E822F83CE01F3
:103550000196B0CFA21AB30AF8ECAF16B10408F086
:1035600042C0882309F447C0FE2CEE2009F425CF81
:103570008091D7018C1129C08091D6018D1125C071
:103580009091DC0190FD18C0892F82958F70282FB3
:1035900030E02115310581F0F80196832F30310597
:1035A00041F08F5F982F9295907F86818F70892B45
:1035B0008683C8010E94060587E0F801A6EDB1E008
:1035C00001900D928A95E1F718C0C8010E94A21FD0
:1035D000811172CF8091DC0181608093DC01C80190
:1035E0000E9406050AC087E0F40111928A95E9F766
:1035F00004C0F12C02C0FF24F3948F2D6496ECE0FC
:103600000C94DF219091850121E030E0F90101C0A7
:10361000EE0F8A95EAF7D90102C0AA0FBB1F6A957F
:10362000E2F7BD016E2B01C0220F4A95EAF7892F00
:103630008623681303C0892F822B03C02095822F15
:1036400089230E94831F0895539A08952BB1277FE1
:103650003BB138604FB7F894FC01CB01880F991F3C
:10366000680F791F6E0F7F1FE617F70789F08191AA
:1036700098E03BB9000000C087FF2BB9880F00001D
:1036800000C000C000C02BB900C09A9591F7ECCFE4
:103690004FBF8FE594E00197F1F700C00000089557
:1036A00080918902882319F08150809389022091AA
:1036B0008502309186024091870250918802609184
:1036C000890270918A0280918B0290918C020E94F3
:1036D000DF20089580918902833018F48F5F8093F2
:1036E0008902209185023091860240918702509193
:1036F00088026091890270918A0280918B02909178
:103700008C020E94DF2008952FB7F8948091BB01AE
:103710009091BC01A091BD01B091BE012FBF089551
:103720001F920F920FB60F9211248F939F93AF9316
:10373000BF9380919802811113C08091BB01909139
:10374000BC01A091BD01B091BE014196A11DB11D6A
:103750008093BB019093BC01A093BD01B093BE01C7
:10376000BF91AF919F918F910F900FBE0F901F90BF
:10377000189590910A01992321F09091960297FD56
:1037800003C0E8E4F2E01DC0E82FE695E695E69573
:10379000EE31E0F4F0E0E05BFD4F877021E030E0D7
:1037A000A90102C0440F551F8A95E2F7CA0180950E
:1037B0009281892382830895319652E0EE34F50791
:1037C00029F092818913F8CF1282F6CF0895909153
:1037D0000A019923D1F09091960297FF16C0E82F25
:1037E000E695E695E695EE3140F5F0E0E05BFD4FBD
:1037F000877021E030E0A90102C0440F551F8A956F
:10380000E2F7CA019281892B16C0AAE4B2E0EFEF79
:1038100090E02D91821789F0EF3F19F4211101C03A
:10382000E92F9F5F9630A9F7EF3F39F00E2E000C7D
:10383000FF0BE85BFD4F828308950895A3E0B0E09D
:10384000E4E2FCE10C94CD212091940230919502A8
:1038500028173907A1F09093950280939402E09184
:103860009202F0919302309751F024E029839B83D8
:103870008A830084F185E02DCE0101960995239677
:10388000E2E00C94E921A3E0B0E0E9E4FCE10C946F
:10389000CD21209190023091910228173907A1F093
:1038A0009093910280939002E0919202F0919302A2
:1038B000309751F023E029839B838A830084F1852C
:1038C000E02DCE01019609952396E2E00C94E921C2
:1038D000E0919202F0919302309729F00190F081EB
:1038E000E02D0995089580E0089587E290E00E9418
:1038F00068210895CF93C82F811102C06FEF01C0D6
:1039000064E284E290E00E946821C11102C06FEF7E
:1039100001C068E085E290E00E946821C11102C008
:103920006FEF01C067E186E290E00E946821CF91CD
:10393000089584E290E00E944421843281F485E27B
:1039400090E00E944421883051F486E290E00E9489
:10395000442191E0873109F090E0892F01C080E097
:10396000817008950F931F93CF93DF93C42F122F6D
:10397000FC0185818823B1F040938F020E94841B53
:1039800090938E0280938D0280E28C0F883008F035
:1039900074C0C77081E001C0880FCA95EAF70E9421
:1039A000EE1F6BC080918F02481349C020918D0299
:1039B00030918E024FB7F8948091BB019091BC0179
:1039C000A091BD01B091BE014FBF821B930B883CFB
:1039D0009105A8F5D0E2D10FC117E9F080E28C0F74
:1039E000883040F4C77081E001C0880FCA95EAF7BB
:1039F0000E94E71FD83080F581E0912F977001C0B9
:103A0000880F9A95EAF70E94EE1F093359F560E591
:103A100070E089E32AC0093319F460E570E002C060
:103A200060E070E0802F0E948D20D83030F5212F8B
:103A3000277081E001C0880F2A95EAF70AC080E26A
:103A40008C0F8830D0F4C77081E001C0880FCA9510
:103A5000EAF70E94E71F11C0093351F460E570E0F6
:103A600089E309C060E070E0802F0E948D20DFCFE5
:103A700060E070E0802F0E948D20DF91CF911F9138
:103A80000F910895CF93DF93C8E8D3E060E0CE01B3
:103A90000E9468212196C11584E0D807B9F7DF910B
:103AA000CF9108951F93CF93DF93962F8430E8F43E
:103AB0006C30D8F44930C8F4632F122FC42FD0E0F3
:103AC000CC0FDD1F22E1929FC00DD11D112498ED76
:103AD000899FC00DD11D1124CE0188960E946821B6
:103AE000612FCE0189960E946821DF91CF911F91AD
:103AF0000895A0E0B0E0EFE7FDE10C94C521A12C12
:103B0000E12CF12CB12C00E010E0C0E0D0E0670126
:103B1000C00ED11EFE01EE0FFF1FEC0DFD1DEE5578
:103B2000FB4F259134914C2F6B2D8A2D0E94521DF5
:103B30002196C930D10571F70E5E1F4FB3948CE00A
:103B4000B812E3CF88EDE80EF11CA39484E0A8122C
:103B5000D9CFCDB7DEB7EAE00C94E12180E00E9436
:103B60007A1C60E070E0CB010E94751C0E94791DF8
:103B70000E94421D81E00E947A1C08950F931F93BA
:103B8000CF93DF93843008F56C30F8F44930E8F4D3
:103B9000C42FD0E0CC0FDD1F22E1629FC00DD11DEC
:103BA000112438ED839FC00DD11D1124CE018896BC
:103BB0000E94442190E0182F0027CE0189960E9490
:103BC00044219801282BC90102C080E090E0DF91D8
:103BD000CF911F910F910895882311F0FA0101C030
:103BE000FB01099508958091850280FF07C067E079
:103BF00070E080E792E00E94261B0895E0E7F2E083
:103C0000118210821282339682E0E538F807C1F7FC
:103C1000EECFA0E0B0E0EFE0FEE10C94C421909183
:103C2000850290FFACC0922E142FC62FD82F9C7FF8
:103C3000943009F08DC0E42FF0E0611106C0EE551C
:103C4000FC4FE491FE2F2E2F72C0E62EF12CEE5584
:103C5000FC4FF4910F2FCF2ED12C26E0829FC00174
:103C600011242FEF30E0B9010E949C214BEA46035A
:103C7000C001479F900D11248D0F911D8D0F911D37
:103C8000B82EBB0CB80EA9014E195F094C9DC0019E
:103C90004D9D900D5C9D900D1124E92FCB9DA001B1
:103CA0001124452F5527D901A41BB50BAC9DA001AC
:103CB000AD9D500DBC9D500D1124D901AB19B1091A
:103CC0005D01AE9CD001AF9CB00DBE9CB00D112427
:103CD000AB2FBB272A1B3B0B2C9DD0012D9DB00D7C
:103CE0003C9DB00D11242B2F6230710591F048F4EA
:103CF00061157105E1F061307105B9F42F2FF52FD1
:103D000016C06430710569F040F06630710579F0D5
:103D10000CC02F2FF92FEB2F0AC0F92FE02F252FE2
:103D200006C0292FEF2FFB2F02C0292FE52FA0E778
:103D3000B2E085E892E01196FC9311972C931296CD
:103D4000EC93129713968A179B07A9F70E94F31D0D
:103D5000D0938602C093870210938802992079F04D
:103D6000209185026091890270918A023D2F4C2F2B
:103D7000512F80918B0290918C020E94DF20CDB751
:103D8000DEB7EBE00C94E021E5E8F2E0438128E0C7
:103D9000421B08F440E021E0628181810E94091EFB
:103DA0000895E5E8F2E0438128E0420F08F44FEF80
:103DB00021E0628181810E94091E0895CF92DF92E5
:103DC000FF920F931F93CF93DF936C0100918501B6
:103DD00080918401082BC3E0D0E010E0C8010C2ED4
:103DE00002C0959587950A94E2F780FD04C021975B
:103DF000A8F7F12C09C0FC2EB6018C2F0E944217A7
:103E00000E945017019799F38F2DDF91CF911F9149
:103E10000F91FF90DF90CF900895CF93DF93EC0147
:103E20000E94DE1EBE010E9442170E945017DF91C1
:103E3000CF910895292F9C3078F5893068F590E06E
:103E400039E0239F800D911D1124682F677023E0B6
:103E5000969587952A95E1F7FC01EE0FFF1FE80F75
:103E6000F91FE756FD4F40E050E080E0219130E03F
:103E7000062E02C0369527950A94E2F72170332763
:103E8000042E01C0220F0A94EAF7822B4F5F5F4F86
:103E90004330510559F7089580E00895292F9C304B
:103EA00088F5893078F590E039E0239F800D911DE9
:103EB0001124282F277051E001C0550F2A95EAF7E9
:103EC00023E0969587952A95E1F7FC01EE0FFF1FF9
:103ED000E80FF91FE756FD4F20E030E070E0408129
:103EE000CB01022E02C0969587950A94E2F7817065
:103EF000819584278523842781932F5F3F4F23302B
:103F0000310569F7089580938501089521E030E037
:103F100001C0220F8A95EAF72095809185018223BE
:103F20000E94831F089521E030E001C0220F8A958E
:103F3000EAF780918501822B0E94831F0895809368
:103F400084010895FC0124812223D9F0808191818C
:103F50000E940D1F92959F70963079F010F4925048
:103F600001C09A50923068F4803F69F018F4883E9E
:103F700040F409C0843F29F406C0883E20F0813F08
:103F800011F080E0089581E008951092420280913E
:103F90000A01882341F08091960287FF04C08EE1D8
:103FA000E2E5F2E003C086E0EAE4F2E0DF011D9220
:103FB0008A95E9F780E090E00E94431C80E090E061
:103FC0000E941E1C109219020E94981808958823BE
:103FD00021F00E9491180E9498180895882339F0C2
:103FE00090914202892B809342020E949818089572
:103FF000882339F19CEF980F913A18F40E94B91B6D
:104000000DC090E2980F983060F4877091E001C085
:10401000990F8A95EAF7892F0E9491180E949818A3
:1040200008959BE5980F933028F480E090E00E947B
:10403000431C0895885A8B3120F480E090E00E9460
:104040001E1C0895CF93882309F465C0C82F8CEFF8
:104050008C0F813AA0F580910A018823E1F08091CC
:10406000960287FF18C0EC2FE695E695E695F0E0FE
:10407000E05BFD4F8281282F30E04C2F477081E0BC
:1040800090E002C0880F991F4A95E2F7822393239C
:10409000892B61F410C0EAE4F2E080E592E021911E
:1040A000C21721F08E179F07D1F705C08C2F0E94F1
:1040B000B91B0E9498188C2F0E94E71B10C080E249
:1040C0008C0F883078F4C77081E090E001C0880FD1
:1040D000CA95EAF790914202892B809342020E948E
:1040E000981819C0EBE5EC0FE33040F4F0E0E15D27
:1040F000FE4F808190E00E94431C0DC0C85ACB3116
:1041000050F4EC2FF0E0EE0FFF1FEE5CFE4F8081CD
:1041100091810E941E1CCF9108951F93CF93DF932E
:10412000182FEB010E942220209741F08FE99FE099
:104130000197F1F700C000002197F6CF812F0E9470
:10414000F81FDF91CF911F910895E5E8F2E06281B9
:1041500028E0621B08F460E021E0438181810E9435
:10416000091E0895E5E8F2E0628128E0620F08F494
:104170006FEF21E0438181810E94091E0895E5E8E7
:10418000F2E0818121E04381628188500E94091E12
:104190000895E5E8F2E0818121E043816281885F52
:1041A0000E94091E089580918502982F96959695F4
:1041B000913021F083708460809385020895A0E09F
:1041C000B0E0E5EEF0E20C94C32149015A016B0125
:1041D0007C010E94D3208401A4016A2D7B2D88E0FC
:1041E00090E00E947A2194014A2D5B2DB601C7010F
:1041F00000E20E940F22622F83E290E00E94682179
:10420000CDB7DEB7ECE00C94DF212091850220FFD2
:104210001FC02370246020938502662381F03091B3
:1042200086024091870250918802609189027091C4
:104230008A0280918B0290918C020E94DF2020E004
:104240004091880260918702809186020E94091E37
:104250000895E5E8F2E080818160808360E08695E2
:1042600086950E9405210895809185028695869500
:10427000815009F481E061E00E940521089561E028
:1042800081E00E9405210895F999FECF92BD81BD7C
:10429000F89A992780B50895A6E1B0E044E050E08F
:1042A0000C948E21A8E1B0E042E050E00C948E2105
:1042B000DC01A40FB51F4150504048F0CB01840FE2
:1042C000951F2E910E94692141505040D0F70895CA
:1042D000262FF999FECF92BD81BDF89A019700B4BF
:1042E000021639F01FBA20BD0FB6F894FA9AF99A5F
:1042F0000FBE08950396272F0E9469210E9468210E
:10430000252F0E946921242F0C9469210196272FC3
:104310000E9469210C946821DC01CB01FC01F99910
:10432000FECF06C0F2BDE1BDF89A319600B40D9201
:1043300041505040B8F70895AA1BBB1B51E107C07C
:10434000AA1FBB1FA617B70710F0A61BB70B881F25
:10435000991F5A95A9F780959095BC01CD010895B4
:10436000EE0FFF1F0590F491E02D09946927962721
:10437000692778278727782708952F923F924F92B1
:104380005F926F927F928F929F92AF92BF92CF92E5
:10439000DF92EF92FF920F931F93CF93DF93CDB7EE
:1043A000DEB7CA1BDB0B0FB6F894DEBF0FBECDBF66
:1043B00009942A88398848885F846E847D848C8437
:1043C0009B84AA84B984C884DF80EE80FD800C8140
:1043D0001B81AA81B981CE0FD11D0FB6F894DEBF23
:1043E0000FBECDBFED0108950F93083090F0982FC8
:1043F000872F762F652F542F432F322F22270850D7
:10440000F4CF220F331F441F551F661F771F881FCD
:10441000991F0A95B2F70F91089597FB10F816941B
:1044200000080F93083098F00850232F342F452FA1
:10443000562F672F782F892F902DF4CF05949795BD
:1044400087957795679557954795379527950A9559
:10445000AAF70F910895FB01DC0104C08D91019032
:10446000801921F441505040C8F7881B990B0895DA
:04447000F894FFCFEE
:10447400EB0FCD14C614EA0FBF140192946697C6CD
:104484003435379567F1F036323331F7F6F5F430D9
:1044940044226DB90297022A020F032803480381BC
:1044A4008283E200E900EA00B500B600B700CD005F
:1044B4008301CC008A019201940121022302240287
:1044C4002502260227022A02B300B4006F007000FE
:0844D4009F01CB019F02A00231
:00000001FF
