:100000000C9459030C9491030C9491030C94910358
:100010000C9491030C9491030C9491030C94910310
:100020000C9491030C9491030C944E210C94092090
:100030000C94F4220C9491030C9491030C9491036E
:100040000C9491030C9491030C9491030C949103E0
:100050000C9491030C94A7220C9491030C9491039B
:100060000C9491030C9491030C9491030C949103C0
:100070000C9491030C9491030C9491030C949103B0
:100080000C9491030C9491030C9491030C949103A0
:100090000C9491030C9491030C9491030C94910390
:1000A0000C9491030C9491030C949103030803089E
:1000B00036083608A908C708D509D509D20846095F
:1000C00057095709800E830EA40EB10EB80EC30E49
:1000D000C60E090F340FDA0FDA0F3F0F410F460F2C
:1000E0006C0F8F0F920F950FB90F32113D116811E0
:1000F000A511E3112512861289128C128F12921209
:10010000951298129B129E12A112A612AB12AE1259
:10011000B312601319141C1421142C142F143A1444
:100120003D1448144B145614591464149E1DC51DD7
:100130006E1FC51D6E1F111E341E6E1F291F391F15
:1001400000000000000000000000000000000000AF
:10015000000000000000000000000000000000009F
:10016000000000007E0F00D4FFFFFFC700000078F2
:1001700000000000000000002A2B28000000000002
:100180000000000000000000000000290000000046
:100190002C1E3420212224342627252E362D3738B4
:1001A000271E1F202122232425263333362E3738BD
:1001B0001F0405060708090A0B0C0D0E0F1011127B
:1001C000131415161718191A1B1C1D2F3130232D47
:1001D000350405060708090A0B0C0D0E0F10111245
:1001E000131415161718191A1B1C1D2F3130354CF6
:1001F00005010902A10185020901A10005091901F2
:1002000029081500250195087501810205010930AD
:1002100009311581257F95027508810609381581F8
:10022000257F950175088106050C0A380215812580
:100230007F950175088106C0C005010980A101856F
:100240000319012AB700150126B700950175108121
:1002500000C0050C0901A101850419012AA002159D
:100260000126A002950175108100C00660FF09619A
:10027000A1010962150026FF009520750881020979
:1002800063150026FF00952075089102C00501093D
:1002900006A101050719E029E71500250195087554
:1002A0000181029501750881010507190029FF15D3
:1002B0000026FF009506750881000508190129052B
:1002C000950575019102950175039101C009025BC5
:1002D00000030100A0FA0904000001030101000964
:1002E00021110100012240000705810308000109D6
:1002F0000401000203000000092111010001222273
:1003000000070582032000010705030320000109FF
:100310000402000103000000092111010001227BF9
:1003200000070584032000011201000200000008FC
:10033000646975000200010200010A0349004400DB
:100340003700350000000E03490044004F00420012
:1003500041004F0000000403090429001E001F0093
:100360002000210022002300240025002600270071
:100370002D002E00310035002B0014001A0008005B
:10038000150017001C0018000C00120013002F00AD
:1003900030002A004C003900040016000700090054
:1003A0000A000B000D000E000F003300340028007F
:1003B00028004B00E1001D001B000600190005008D
:1003C00011001000360037003800E500E50052004B
:1003D0004E00E000E300E2002C002C002C002C007A
:1003E0002C002C00E600E4000151500051004F00A9
:1003F000005C01000100010001000100010001009A
:1004000001000100010001000100010001000100E4
:1004100001000100010001000100010001000100D4
:1004200001000100010001000100010001000100C4
:1004300001000100010001000100010001000100B4
:1004400001000100010001000100010001000100A4
:100450000100010001000100010001000100010094
:100460000100010001000100010001000100010084
:100470000100010001000100010001000100010074
:100480000100010001000100010001000100010064
:100490000100010001000100010001000100010054
:1004A0000100010001000100010001000100010044
:1004B0000100010001000100010001000100010034
:1004C0000100010001000100010001000100010024
:1004D0000100010001000100010001000100010014
:1004E0000100010001000100010001000100010004
:1004F00001000100010001000100010001000100F4
:1005000001000100010001000100010001000100E3
:1005100001000100010001000100010001000100D3
:1005200001000100010001000100010001000100C3
:1005300001000100010001000100010001000100B3
:1005400001000100010001000100010001000100A3
:100550000100010001000100010001000100010093
:100560000100010001000100010001000100010083
:100570000100010001000100010001000100010073
:100580000100010001000100010001000100010063
:100590000100010001000100010001000100010053
:1005A0000100010001000100010001000100010043
:1005B0000100000101010101010101010202020229
:1005C00002020202020303030303030303040404FD
:1005D00004040404050505050506060606060707C6
:1005E00007070708080808090909090A0A0A0B0B7E
:1005F0000B0C0C0C0D0D0D0E0E0E0F0F0F1010111D
:1006000011111212131314141515161617171818A2
:1006100019191A1A1B1B1C1D1D1E1E1F202021220A
:1006200022232424252626272829292A2B2C2D2D50
:100630002E2F30313232333435363738393A3B3C6D
:100640003D3E3F404142434445464748494A4C4D60
:100650004E4F50515354555658595A5B5D5E5F6129
:100660006264656668696B6C6D6F707273757778BC
:100670007A7B7D7E8082838587888A8C8E8F91931A
:100680009596989A9C9EA0A2A3A5A7A9ABADAFB141
:10069000B3B5B7BABCBEC0C2C4C6C9CBCDCFD1D426
:1006A000D6D8DBDDDFE2E4E7E9EBEEF0F3F5F8FACC
:1006B000FDFF11241FBECFEFDAE0DEBFCDBF04B6D1
:1006C00003FE18C080913D0590913E05A0913F0525
:1006D000B09140058730904BA740B04B59F4109231
:1006E0003D0510923E0510923F0510924005E0E056
:1006F000F8E3099512E0A0E0B1E0ECE9FBE502C007
:1007000005900D92A43CB107D9F725E0A4ECB2E026
:1007100001C01D92AD33B207E1F70E94850A0C9427
:10072000CC2D0C9400000E9465292FEF84E39CE0FF
:10073000215080409040E1F700C000009CE088E13B
:100740000FB6F894A895809360000FBE9093600058
:10075000FFCFA7E1B0E0EFEAF3E00C948E2D4B8BD6
:100760005C8B6D8B7E8B8F8B61111092AF0386E05B
:100770009E01235F3F4FD901E82F1D92EA95E9F7CB
:1007800095E0FE017396D90101900D929A95E1F7DB
:100790009C894E895F897B897D879E876F87598B6E
:1007A000488BF901DE01179601900D928A95E1F7C9
:1007B000CE0107960E94D41881113EC086E0FE014A
:1007C0003796DE01119601900D928A95E1F7FF812F
:1007D000E8856A857B856115710531F0EF3F31F45D
:1007E00081E0FF3F19F403C081E001C080E080FD9B
:1007F00023C02091740330E0C901019687709927C6
:100800004091A50350E08417950779F1F983EA83B5
:100810007D836C8396E0929FD001939FB00D11244D
:10082000AB58BC4FFE01319601900D929A95E1F7BD
:10083000809374030E94541816E08091A503909150
:1008400074038917F9F0189FC00111248B589C4F2D
:100850000E94D4188823B1F08091A50390E00196FE
:10086000877099278093A503E8CF0E94652910928D
:1008700074031092A503EEE6F3E086E0DF011D921B
:100880008A95E9F76796E3E00C94AA2DA9E0B0E019
:10089000ECE4F4E00C94802DFC01808191812381B3
:1008A0003481232B31F09F3F31F491E08F3F19F4D5
:1008B00003C091E001C090E090FD23C67F0185E078
:1008C000DE01119601900D928A95E1F7F7012281E0
:1008D00089819A81222349F00E948A28182F682F43
:1008E00089819A810E94ED2803C00E94B928182F9F
:1008F00069817A81812F0E94F6238C01F701828120
:10090000882309F4F5C0980122513F452031310573
:1009100008F00AC18FEF93E00E94A52C8111F2C06C
:1009200002513FE7832E32E0932E002379F08114A9
:10093000F4E09F0609F4E6C0C4010E94A52C8111D1
:1009400001C001502FEF821A920AEFCF1E821F8240
:1009500018861986442443942AE0322E84010F5FBE
:100960001F4FC4010E94A52C8E831F82882309F487
:10097000C9C09FEF980F933060F48F834E8232E0AE
:10098000830E911CC8010E94A52C8887811102C08A
:10099000B9C048018E010A5F1F4FF8012081222350
:1009A000E9F2213009F04CC08181813049F46801BD
:1009B000F2E0CF0ED11CF80182810E94892A0AC080
:1009C000823051F46801F2E0CF0ED11CF80182812F
:1009D0000E94E529860189C0833049F46801F2E06C
:1009E000CF0ED11CF80182810E948229F3CF84307E
:1009F00019F00F5F1F4F79C0F80122810E5F1F4F62
:100A000080E090E030E0205331092A30310568F46D
:100A1000389EA001399E500D1124C901840F951FE5
:100A20000F5F1F4FF8012081EDCF009709F45DC0E3
:100A3000EFE9FFE03197F1F700C000000197F5CF33
:100A4000E22FF0E0E059FE4F5490822F8695869574
:100A5000869590E0FC01E05AFE4F64902770712C5F
:100A6000022E02C0759467940A94E2F7F1E06F22B7
:100A70007724FC01E05BFE4FA490B12C022E02C053
:100A8000B594A7940A94E2F731E0A322BB24FC01B9
:100A9000E05CFE4FC490D12C02C0D594C7942A9537
:100AA000E2F781E0C822DD246114710419F081EEBF
:100AB0000E94E529A114B10419F086EE0E94E529EF
:100AC000852D0E94892AA114B10419F086EE0E9496
:100AD00082296114710419F081EE0E948229C114E7
:100AE000D10419F08CE20E94892A0F5F1F4F55CF65
:100AF00000313FE5130709F077C481E00E94272900
:100B00000E945B1A8091A603877009F4FAC4F7016A
:100B10008281882309F4F5C48091D20282FFF1C456
:100B200082E00E941B18EDC40031FFE51F0711F49D
:100B300081E005C001312FE5120721F482E00E9417
:100B40003429DECF033FFCE51F0749F406E221EE1E
:100B500040EE63EF7CE5C7010E947D23D3CF043FC5
:100B60002CE5120708F069C1083D3CE5130731F494
:100B700007E225EE45EE68ED7CE5EDCF093D9CE50D
:100B8000190731F408E221E045EE69ED7CE5E3CF99
:100B9000073DECE51E0731F406E221EE41EE67ED7C
:100BA0007CE5D9CF882309F47DC11092020403307B
:100BB0009DE5190758F40A3FECE51E0780F4C801CB
:100BC00082509C45449708F057C109C00136FDE5A5
:100BD0001F0729F0053A2DE5120709F04DC10E94C3
:100BE0004A179093D2028093D10201313CE513075A
:100BF00009F4C9C008F043C009309CE5190709F49D
:100C00009EC008F50530FCE51F0709F488C080F494
:100C100003303CE5130709F47BC008F07DC00230C7
:100C20009CE5190709F0F9C08091D1028160F3C0F9
:100C30000730ECE51E0709F47AC008F07CC080910B
:100C4000D1028061E8C00D302CE5120709F489C09B
:100C500058F40B308CE5180709F47BC008F07DC010
:100C60008091D102886071C00F30ECE51E0709F455
:100C700082C008F084C08091D102877FCCC00D3F34
:100C80002CE5120709F473C008F505318CE5180747
:100C900009F487C068F40331ECE51E0709F477C056
:100CA00008F097C00E9465298091D1028F77B3C068
:100CB0000B3F2CE51207B9F108F056C00A3F8CE54E
:100CC000180709F0AAC08091D20241C001309DE509
:100CD000190709F48AC058F40F3FFCE51F0709F40F
:100CE0005BC008F06AC08091D202826030C00136D9
:100CF0003DE5130709F47FC0053A8DE5180709F4AF
:100D000084C002309DE5190709F087C060E06EC01D
:100D10008091D10282607FC08091D10216C0809103
:100D2000D102886078C08091D20282604FC08091E9
:100D3000D102806270C08091D10280646CC00E9438
:100D400065298091D102806866C0846064C081603A
:100D50003DC08091D1028E7F5EC08091D1028D7F97
:100D60005AC08091D10216C08091D20218C08091E1
:100D7000D2028D7F2BC08091D1028F7E4CC080919A
:100D8000D1028F7D48C08091D1028F7B44C0809179
:100D9000D102877F8B7F3FC08091D2028D7F8E7F73
:100DA00015C08091D10282FB222720F991E0922781
:100DB00090FB82F990FB83F92EC08091D202982F8C
:100DC000909591708E7F892B90FB81F98093D20250
:100DD00024C00E9465298091D10287FB222720F937
:100DE00091E0922790FB87F916C061E08EE090E0D9
:100DF0000E94C32C12C08091D10284FB222720F9CB
:100E000091E0922790FB84F906C08091D102982F3F
:100E1000909590FB80F98093D1026091D10210915E
:100E2000D20284E090E00E94C32C612F82E290E025
:100E30000E94C32C0E94652965CE053FFCE51F0773
:100E400031F406E221EE42EE65EF7CE584CE053F0B
:100E50002CE5120730F407E225EE44EE64EF7CE562
:100E60007ACE063F3CE5130709F09CCE07E225EE5B
:100E700046EE66EF7CE56FCE06318CE5180721F56E
:100E80008091B0038A7A91E009F490E09093C602D1
:100E9000882311F065E301C069E286E693E00E94D1
:100EA0002A230FC00631ECE51E0709F044C08091EB
:100EB000C602882309F49FC265E386E693E00E9498
:100EC0001D230E94DF171ECE0A359DE5190769F123
:100ED00058F40115FCE51F0781F00E3D1C4509F093
:100EE00045C00E94671717C00C353DE51307A9F0F0
:100EF000F0F0073A1D4579F039C00E946529EFEFFF
:100F0000F4E32CE0E150F0402040E1F700C00000A5
:100F10000E948322F7CD0E9493038091D20282FB2C
:100F2000882780F991E0892703C081E001C080E033
:100F30000E9438181BC08091B00382720A3CECE515
:100F40001E0709F4C5C208F458C20F3CFCE51F0790
:100F500009F4D2C208F484C2063D2CE5120708F455
:100F600091C20D358DE5180709F4CCCDF7018281CA
:100F700000811181882349F0C8010E948A28D82E57
:100F8000682FC8010E94ED2804C0C8010E94B9283A
:100F9000D82EB8018D2D0E94F6230E94B015B82ED0
:100FA000192F982EF7010281A580A2949FE0A92213
:100FB0008091A6038770B9F00023A9F0812F807F6C
:100FC000803421F080E28B0D883068F08091D2026D
:100FD00082FF09C082E00E941B188091A6038770DF
:100FE000DD24D3948111D12CC12EC2948FE0C8226C
:100FF0008C2D90E08C30910508F0D7C1FC01EA5AA5
:10100000FF4F0C94722D812F807F1F70882311F069
:101010001295107F0023B9F0112309F4B4C180E2C6
:101020008B0D883010F0911006C08091B003182B02
:101030001093B00305C08091AF03182B1093AF033A
:101040000E94DF17A0C18B2D0E948229112309F471
:10105000ACC180E28B0D883080F1992071F1109540
:101060008091AF0318231093AF032AC0812F807F94
:101070001F70803211F01295107F8B2D992021F076
:10108000F1E09F16D9F149C08091D20282FD1BC0C8
:10109000002369F0112339F08091B003182B1093CD
:1010A000B0030E94DF1780E00E94E5297EC180E046
:1010B0000E948229112309F478C1812F0E94D81738
:1010C0000E94DF1772C1002381F08091B103AA2032
:1010D00051F021E0A21207C0182B181709F465C1BE
:1010E0001093B10362C1812B10C0AA2021F031E01E
:1010F000A31609F45AC10E94D21727C0002341F059
:1011000085E08A1508F451C1812F0E9478294DC1CC
:1011100094E09A1508F449C118C0002349F0AA20A8
:1011200099F3F701858180FF2EC18F708583ECCF05
:10113000AA2059F0893309F035C1FFEF27EE33E0DB
:10114000F15020403040E1F72BC1812F0E947129DE
:101150002CC1812F86958695837019F0813061F0BE
:1011600024C1002321F08B2D912F937002C080E0C9
:1011700090E00E945A231FC1002321F08B2D912F54
:10118000937002C080E090E00E94442314C18B2D34
:10119000002319F00E94132802C00E945A270E94BF
:1011A000302709C1812F8370A9F5011102C14B2D90
:1011B000429546954770440F440F8B2D8F7090E0F9
:1011C0009C01042E01C0220F0A94EAF7B4FE08C065
:1011D0008FE090E001C0880F4A95EAF7809501C042
:1011E00080E0169516951370123069F088F490918E
:1011F000B203113019F0822B892302C0922B892B64
:101200000E944029D6C0822B9091B2038927F8CF43
:10121000822BF6CF002319F0812F817001C08695B3
:10122000882309F4C6C04B2D429546954770440F5C
:10123000440F8B2D8F7090E09C01042E01C0220F73
:101240000A94EAF7B4FE08C08FE090E001C0880F6E
:101250004A95EAF7809501C080E0169516951370BF
:10126000123059F078F49091FF03113019F0822B6D
:10127000892309C0922B892B06C0822B9091FF03F2
:10128000892701C0822B0E94222993C01F7000234E
:1012900039F0812F0E9434298B2D0E94782989C032
:1012A0008B2D0E947129812F0E94272982C08B2DAE
:1012B00092EF991681F1991538F0E0EF9E1659F0EA
:1012C000F1EF9F1619F15BC023EF921659F134EF3D
:1012D0009316C1F054C0002381F084E08A1508F40D
:1012E00064C01F7181E090E0012E01C0880F0A9454
:1012F000EAF79091FF03892720C095E09A1508F43A
:1013000054C0EFCF8091D20282FD1AC0002329F091
:10131000812F8F7127C00023D9F3812F8F710E94F5
:10132000272943C0002341F01F7181E0012E01C035
:10133000880F0A94EAF701C080E00E94222935C094
:10134000002399F01F71812F0E9434298091D202CD
:1013500082FF07C0E8E01E9FC001112483608093D4
:10136000A603812F0E94342920C081E00E941B180F
:10137000F1E0FA15D0F482E00E941B1816C0002399
:1013800021F0AA2029F28B2D8FCEAA2031F28933A9
:1013900049F42FEF37EE83E0215030408040E1F7F1
:1013A00000C000008B2D0E94822988EF8C0D8430B4
:1013B00010F40E947023DD2009F4A3C08091A603DD
:1013C00080FD9FC0F70112828595859585950E94C5
:1013D0003429C7010E9446048091A603859585950E
:1013E00085950E9427298DC001319FE5190709F0D5
:1013F000A9CB82E083CB69E260CD053C2CE51207E6
:1014000009F452C0D0F4033C9CE5190709F442C02A
:1014100008F045C0023CFCE51F0709F0A7CD9091FC
:10142000D00381E089278093D00310921601809128
:101430003D04816080933D0465CB073C2CE5120799
:10144000E9F1B8F1083C9CE51907E9F1093CECE544
:101450001E0709F08BCD4BEB5BE269EC7BE246C0EB
:101460000C3C3CE51307F1F1C0F10D3CECE51E0727
:1014700009F43FC00E3CFCE51F0709F077CD61E0A1
:1014800085E03CC0013D3CE5130708F03BCB61E043
:1014900082E134C042E25CE26DE27CE227C04DE2D0
:1014A0005CE262E27CE222C043EF5BE26EEF7BE251
:1014B0001DC04EEF5BE263EF7BE218C047ED5BE2DD
:1014C00065EE7BE213C045EE5BE267ED7BE20EC0AA
:1014D00049EC5BE26BEB7BE209C040EC5AE26EEC5C
:1014E0007AE204C04EEC5AE260EC7AE20E94A42B4D
:1014F00009CB61E081E002C061E08DE00E94092C2F
:1015000001CB2996E1E10C949C2DACE2B0E0EBE834
:10151000FAE00C947F2D85B7806885BF85B7806819
:1015200085BF84B7877F84BF0FB6F894A895809154
:101530006000886180936000109260000FBE90E0B0
:1015400080E80FB6F89480936100909361000FBE1D
:1015500080E994E19093C5028093C4020E944D20DB
:101560000E94F3208091E20084608093E2007894EE
:101570008091C2038823A1F01091E9001F7090911F
:10158000EC00892F817090FD80E8182B1092E90003
:101590008091E80083FD0E94BB1C1F701093E9003E
:1015A00082E084BD93E095BD9AEF97BD80936E0075
:1015B0000E948B2B811102C00E947B2B0AE111E05B
:1015C000FFE1EF2EF1E0FF2ED8018D918D018F3FCD
:1015D00011F00E94D514E016F106B1F70FE111E009
:1015E000EEE2EE2EE1E0FE2EF80181918F018F3FB9
:1015F00011F00E94D514E016F106B1F78AE0EFED84
:10160000F2E0DF01282F1D922A95E9F7E7ECF2E0DE
:10161000DF011D928A95E9F70E945B17811102C0D4
:101620000E94671782E090E00E94A52C8093D3026D
:101630000E944A179093D2028093D1020E94EC1428
:10164000EFE3FCE93197F1F700C000000E94EC14D1
:101650008091DF0280FF08C06FEF7FEF80E090E0B5
:101660000E94E12C0E94832283E090E00E94A52C3E
:101670000E9440291092D603EFEEF3E08FEF9FEF28
:101680008193919323E0EF3FF207D1F71092E902A3
:10169000E2E0F3E08FEF9FEF8193919333E0E2314B
:1016A000F307D1F70E945B17811104C00E946717EE
:1016B0000E94751446E050E06CE170E080ED93E02C
:1016C0000E94952C10923D048091D0038C7F11F4E0
:1016D0000E94751484E091E09093060480930504C1
:1016E00050E4352E60E1E62E70E1A72E8E010F5FEB
:1016F0001F4FBE01655F7F4F7CA76BA78091C20320
:10170000853009F047C042E1F42E8091C203853054
:1017100009F03CC08091C203843029F10E94451039
:101720001092090488E190E00FB6F894A895809390
:1017300060000FBE3092600083B7817F846083BFFA
:1017400083B7816083BF7894889583B78E7F83BF8A
:101750000FB6F894A895809160008861809360002E
:10176000109260000FBE8091C103882309F4CDCF91
:101770000E94EC14EFEDF2E081919191892B09F038
:1017800043C492E0E93EF907B9F7BFCF0E9465294B
:101790000E9470230E94EC1481110E94DC223FED14
:1017A000432E32E0532EE4EDF2E0D201612C712C95
:1017B000B62C8D909D9081919191882599250097C7
:1017C00009F44AC1F12CCC24C394D12C9C012C21C6
:1017D0003D21232B09F43AC1F9A2BAA28C209D2005
:1017E00081E08114910409F480E08BA30E94E82237
:1017F0008160782F9DA38CA349A15AA16BA18DA1D3
:101800000E94A903F301EE0FFF1FEC52FD4F8081F0
:101810009181C826D926D182C082892839F0A801B1
:101820006F2D8B2D0E943310282E01C0212CC22C2D
:10183000D12C8091E902D601A80FB11D19976CF146
:10184000A8E08A2E912C8C189D08B60166517D4F18
:10185000A4018AEE92E00E94C32DB6016E507D4F26
:10186000A40182EF92E00E94C32DA401440F551FF2
:10187000B601660F771F6E5F7C4F82E093E00E9497
:10188000C32DB60166507D4FA4018AEF92E00E94FD
:10189000C32D88E082198093E9024091E902680132
:1018A00020E0622F640F221631F170E0F6013191D1
:1018B0006F01832F90E0DB01A751BD4FFC01EE0FBC
:1018C000FF1FEB53FE4F508111965C931197880FC9
:1018D000991FFC01EA53FE4F808119968C9319974A
:1018E00051963C93660F771FFB01E751FD4F128E17
:1018F000118E2F5FD6CF6093E9028091D0038C7F49
:101900008C3409F0C1C0AFEFAB0DDD24D394DB0CF8
:101910005FEF5F0D41E04F0D5F1580F48FE0869D16
:10192000F001879DF00D1124E55EFC4FE50FF11DE0
:1019300020813E2D230F08F42FEF20832F2D30E040
:101940007FE0769DC001779D900D1124855E9C4FB0
:10195000FC01E20FF31F7081B0E26B2F760F08F4E9
:101960007FEF70834F3049F0FC01E40FF11D70816F
:101970006E2D760F08F47FEF708375E0D71609F4AB
:1019800031C0CD2CD12C5F1588F48FE08C9DF001F7
:101990008D9DF00D1124E55EFC4FE50FF11D80815A
:1019A0009DE0BC01670F08F46FEF6083EFE0EC9DF2
:1019B000C001ED9D900D1124855E9C4FFC01E20F4E
:1019C000F31F60817E2D670F08F46FEF60834F3047
:1019D00049F0FC01E40FF11D60817DE0670F08F420
:1019E0006FEF6083AB1508F04FC0B0E05F1580F477
:1019F0008FE08A9FF0018B9FF00D1124E55EFC4F74
:101A0000E50FF11D50816DE0560F08F45FEF508334
:101A10008FE08A9FF0018B9FF00D1124CF01855E2E
:101A20009C4FFC01E20FF31F20813E2D230F08F491
:101A30002FEF20834F3041F1FC01E40FF11D208195
:101A40003DE0230F08F42FEF20831EC0F394CC0C4D
:101A5000DD1C4FE0F412BACE6FEF661A760A75E01D
:101A60006716710409F0A4CE8FEF8EA38FA318A67A
:101A70000E94E8228160782F9AA789A74EA15FA1D2
:101A800068A58AA50E94A9030E94451086E0E9E1A5
:101A9000F4E0D80101900D928A95E1F710921B04B1
:101AA00010921C0410921D0410921E048B8181114F
:101AB00004C08C81882309F453C08091170490914D
:101AC00018040E94CD229C0190911304992309F4DB
:101AD000BAC22531310508F443C09F3F19F09F5F1A
:101AE00090931304FB80FF2061F00E94F3271F14E2
:101AF00014F491E001C09FEF899F802D1124809301
:101B00001B04FC80FF2061F00E94F3271F1414F4D3
:101B100091E001C09FEF899F802D112480931C04C8
:101B200030911B043323E1F020911C042223C1F0E7
:101B300045EB3403C0011124992319F090931B0441
:101B400003C081E080931B0465EB2603C0011124D0
:101B5000992319F090931C0403C081E080931C0426
:101B60008D81811104C08E81882309F453C0809136
:101B70001504909116040E94CD229C0190911204AC
:101B8000992309F465C22135310508F443C09F3F0C
:101B900019F09F5F90931204FD80FF2061F00E9476
:101BA000D1271F1414F491E001C09FEF899F802D6D
:101BB000112480931D04FE80FF2061F00E94D12734
:101BC0001F1414F491E001C09FEF899F802D112410
:101BD00080931E0430911D043323E1F020911E04F4
:101BE0002223C1F075EB3703C0011124992319F0AA
:101BF00090931D0403C081E080931D0435EB230303
:101C0000C0011124992319F090931E0403C081E0B0
:101C100080931E0446E050E0B80189E194E00E9400
:101C2000B62D892BA9F480911B0481110FC08091DE
:101C30001C0481110BC080911D04811107C081E03B
:101C400090911E04911103C080E001C081E080FDED
:101C50000E94302786E0F801A9E1B4E001900D92DE
:101C60008A95E1F70E9470239091DE028913809398
:101C7000DE028091C203843009F040CD83E080937E
:101C8000E9008091E80082FF39CD8091E80085FF6E
:101C900021C00E946C2081111BC080E2C82ED12C73
:101CA000480109C08091F100D4018D934D01B1E04C
:101CB000CB1AD10869F08091E80085FDF3CF8091BF
:101CC000E8008B778093E8000E946C20882399F3CA
:101CD00091E001C090E08091E8008B778093E8006C
:101CE000992309F40BCDE9818E2F90E0FC01319707
:101CF000E331F10508F05EC1EE59FF4F0C94722DEF
:101D00001A8289E0C1C08A81823009F493C183308C
:101D100051F0813009F04EC10E94DC229B838C83FC
:101D20007D836E8349C1F801D2018C9111969C91FB
:101D3000B2E04B0E511C9283838332962BA53CA5B7
:101D40002E173F0789F738C18A81823009F032C1E6
:101D50006B817C818D819E810E94782D0E94572B02
:101D60002BC14C816B818A810E94292B9D8369C183
:101D70002D813E813227232732274C816B818A8136
:101D80000E94022B19C10E94042416C18A81813845
:101D9000B1F050F4803809F00FC18091D10320E0F8
:101DA0004B816091D20331C0823819F1833809F038
:101DB00003C18B8120E04091D3036C8126C060E099
:101DC0008B810E94092C9B818091D003911107C0C7
:101DD000982F937011F0109216018C7F07C0982FE6
:101DE000937011F4109216018C7F81608093D00360
:101DF000E3C0EB81E43028F4F0E0E25DFE4F808147
:101E000001C08FE78093D403D7C090E00E94AB2B32
:101E1000D3C08A81813899F030F4803809F0CCC081
:101E20008091D30331C0823879F0833809F0C4C07F
:101E30008091D1038B838091D2038C83BDC080912C
:101E4000D0038695869520C08091D403873230F0E8
:101E50008F3530F08E3930F482E016C080E014C047
:101E600081E012C083E010C046E050E06CE170E019
:101E700080ED93E00E94B32C10923D049DC0AA8295
:101E80009BC081E08A8381E88B8396C0CA80DB8017
:101E9000DC24CD24DC246C80712C4801C6018158DF
:101EA0009D4F9401201B310B2615370508F084C087
:101EB00031E8C31631E0D30630F40E94A52CD401DA
:101EC00014968C9302C0F4011482FFEFCF1ADF0A3C
:101ED0002FEF821A920AE2CFCA80DB80DC24CD2465
:101EE000DC246C80712C4801C60181589D4F9401FF
:101EF000201B310B2615370508F05EC031E8C316EC
:101F000031E0D30628F4D40114966C910E94C32CBE
:101F1000BFEFCB1ADB0AEFEF8E1A9E0AE5CF0E94C5
:101F2000E6234AC084E08A8347C0CA80DB80DC2481
:101F3000CD24DC246C80712C4801C6018796940165
:101F4000201B310B26153705B8F5F8E5CF16F2E062
:101F5000DF0630F40E94A52CD40114968C9302C0A5
:101F6000F4011482FFEFCF1ADF0A2FEF821A920AD0
:101F7000E4CFCA80DB80DC24CD24DC246C80712C8F
:101F80004801C60187969401201B310B26153705A1
:101F900098F438E5C31632E0D30628F4D401149639
:101FA0006C910E94C32CBFEFCB1ADB0AEFEF8E1AA5
:101FB0009E0AE7CF8FEF89838091C203843009F0B6
:101FC0009DCB8091E9008F702091EC00922F917051
:101FD00020FD90E8F92EF82A82E08093E9008091B4
:101FE000E80080FF0CC040E050E060E270E0C80113
:101FF0000E94911C8091E8008E778093E8008F2DDD
:102000008F708093E9007ACBE9BCF9BC09B400FE7B
:10201000FDCF8091D8008F7D8093D8008091E00023
:1020200082608093E0008091E00081FDFCCF0E94FF
:1020300065296BCB86E290E00E94A52C1B821C8256
:102040001D828E83B9CF2B30310508F048CD88CD65
:102050002B30310508F09DCDDDCD0E94A82A0895D2
:102060000E94B42A08952FE0829FC0011124FC0130
:10207000E658FE4FE60FF11D80818F3F21F0FA01F7
:10208000808381E0089580E00895A9E0B0E0EBE46A
:10209000F0E10C947F2D8091120390911303A09195
:1020A0001403B09115032FB7F894C0900A04D09090
:1020B0000B04E0900C04F0900D042FBFC81AD90A4D
:1020C000EA0AFB0A0E94DC224B015C0160931203C6
:1020D000709313038093140390931503A091E90266
:1020E000E9EEF2E08A2F90E04FEF5FEF60E070E002
:1020F0004C195D096E097F09A91799F0218D328D60
:102100002901612C712C441555056605770510F4DD
:10211000815004C02C0D3D1D328F218F9F5F329660
:10212000EBCF8093E9028091D003982F937021F038
:10213000482E4694469401C0412C9091160191304E
:10214000E1F030F09230E1F1933009F444C0C9C3BA
:10215000109213018092CC039092CD03A092CE03F3
:10216000B092CF0389E2E9EEF2E0A6EDB3E0019090
:102170000D928A95E1F781E02BC0909111014912EF
:102180000CC0837090E04091100150E021E0841772
:10219000950709F420E0822F01C081E081708093CF
:1021A00015018091D50390911401981709F440C04E
:1021B0008093140140E060E080E00E942D1038C060
:1021C000409211018370809310010E94DC2A83E009
:1021D0008093160186C380913D04882351F046E028
:1021E00050E06CE170E080ED93E00E94B32C10921F
:1021F0003D044091CC035091CD036091CE0370918A
:10220000CF032FB7F89480910A0490910B04A0910A
:102210000C04B0910D042FBF841B950BA60BB70BBC
:102220004097A105B10508F45CC31092160159C38B
:10223000842D90E08132910580F0809113018F5FB1
:102240008093130182E08093160180911501811122
:1022500048C3442009F4BBCF44C3FC01EB58FF4FF3
:102260000C94722D80911501882329F040E060E0E4
:1022700080E00E942D1080E02CC38091130111E1B9
:10228000819F102D112401E1010F063508F005E5AD
:102290006091D1037091D2038091D3030E94A6264E
:1022A000F62EE72ED82E101708F02BC1E12FF0E004
:1022B000DF01A159BD4F8C9190911401982331F009
:1022C0002D2D4F2D6E2DCF010E9430101F5FEBCFB3
:1022D0001091130181E1189F102D112401E1010FCC
:1022E000063508F005E5E090D203F090D303D090D6
:1022F000D1036D2D7E2D8F2D0E94A626C62EB72EC2
:10230000A82E6091D4036D0D7E2D8F2D0E94A626E0
:10231000F62EE72ED82E101708F0F3C0812F90E08C
:10232000FC01E159FD4F308120911401232359F024
:1023300030FF04C02D2D4F2D6E2D03C02A2D4C2DA6
:102340006B2D0E9430101F5FE6CF1091130181E1C9
:10235000189F102D112401E1010F063508F005E545
:10236000E090D203B090D3032091D40370E4F72E11
:102370003F2D329F312D1124F32E101708F0C1C0CC
:10238000C12ED12CF601E159FD4F908180911401AD
:102390008923B9F0F601EE0FFF1FEA53FE4F80814B
:1023A00082958F706091D1038F9D600D11247E2DD9
:1023B0008B2D0E94A626462F282F672FC6010E942C
:1023C00030101F5FDACF1091130181E1189F102D9B
:1023D000112401E1010F063508F005E5C090D20394
:1023E000B090D3032091D40350E4D52E4D2D429FBD
:1023F000412D1124D42E101708F083C0E12EF12CAA
:10240000F701E159FD4F9081809114018923D9F0A2
:10241000F701EE0FFF1FEB53FE4F6081D69EB00118
:10242000112445E0759567954A95E1F78091D103B0
:10243000680F7C2D8B2D0E94A626462F282F672FF4
:10244000C7010E9430101F5FD6CF1091130181E1A8
:10245000189F102D112401E1010F063508F005E544
:10246000E090D103F090D203D090D3036091D403D5
:102470006695669566958091CC039091CD030E94F8
:102480009C26382F982F36FD9095E92FEF739F707B
:1024900036FD9F5FE295EF70EE0FF0E0EE5CFE4FD1
:1024A0008181899F802D212D112482958F70229505
:1024B000207F822B9081890F37FD819587FD819543
:1024C000880F282F3D2D239F212D1124822FB70106
:1024D0000E94A626F62EE72ED82E101790F4E12F94
:1024E000F0E0DF01A159BD4F8C9190911401982328
:1024F00031F02D2D4F2D6E2DCF010E9430101F5F1A
:10250000ECCF81E0053508F4E4C1B5CE81E695E273
:102510001AC085E395E217C085E296E221C087E004
:1025200096E21EC08CEE95E213C080ED95E210C0DD
:1025300083E395E208C08AE295E205C081E295E274
:1025400002C086E095E20E94471CC3C187EF94E277
:102550000E94CB1BBEC183E796E202C08FEB95E2DF
:102560000E94751BB6C18091130101E1809F002D6F
:10257000112441E1400F49874C3410F08BE48987E6
:1025800080911501882361F040E060E080E00E94C6
:102590002D108BE4EBE1F3E0DF011D928A95E9F762
:1025A00080911301811115C0809117039091180338
:1025B0000E94CD2221E08931910508F420E020938A
:1025C0001603499730F00E94E822909318038093F5
:1025D000170310E0B9856B2E712C2FE0322EFE010F
:1025E00031965F01061517050CF064C0C80165E05F
:1025F00070E00E945E2D7B014C01389EF001399EF7
:10260000F00D1124E55EFC4FE60FF71F5080A50189
:102610000E943310282E65018C2D8A19821508F02E
:1026200032C0D601EC91F0E0E159FD4F90818091EC
:102630001401892321F1352D25E5321B08F430E002
:102640007091D2032AEA452D240F08F42FEF409110
:10265000D30382E0289F200D11242E5F249F212D7B
:1026600011246AEA631B822F0E94A626462FD601F8
:102670009C91282F672F892F90E00E943010BFEF88
:10268000CB1ADB0AC9CF80911603882381F0252D50
:1026900031E0231B08F420E0389CC001399C900DE8
:1026A0001124855E9C4FFC01EE0DFF1D20830F5F02
:1026B0001F4F98CF81E049854B3408F40AC1DBCD28
:1026C0001091D30383E0189F70011124F694E794CE
:1026D000F694E7946E2C812E912C8FEF90E0B4014C
:1026E0000E945E2D062F80911501882371F040E035
:1026F00060E080E00E942D108BE4EBE1F3E0DF016D
:102700001D928A95E9F710921A03809119038F5F41
:10271000809319038BE1A82E83E0B82E712C8E18BC
:102720009F086501512C51100CC080911A03811132
:1027300008C00E94852C853595401CF4F501108356
:102740000CC0D6018C91882341F0811730F4909110
:102750001903091302C081508C93AE014F5F5F4F84
:10276000672D852D0E943310882311F1F6012081F9
:10277000E981621680F430E02E193F092E9DC001D8
:102780002F9D900D3E9D900D1124B4010E944A2D65
:10279000262F412F09C0129FC0011124B7010E94AA
:1027A0004A2D462F20E060E08E2F90E00E943010EE
:1027B0005394FFE0CF0ED11C25E05212B4CF739496
:1027C0003FEFA31AB30A4FE07412ABCF8091190305
:1027D000081302C01092190380911A038F5F8D3184
:1027E00018F480931A0347CD10921A0328E433E0BB
:1027F00084E04FEF410FABE1B3E0F9019FE084309B
:1028000041F4DC965C91DC97151303C0DC964C9385
:10281000DC975081511710F0408317879150319603
:1028200011969111ECCF81502F5031098111E3CFD6
:1028300022CD80EF94E202C08AEE94E20E94061B51
:1028400048C08091D60321E0382F321B08F430E0D5
:10285000832F61ED74E23BC061ED74E237C080917B
:10286000D60321E0482F421B08F440E0842F69E999
:1028700074E22DC069E974E229C08091D60321E099
:10288000382F321B08F430E0832F67E674E21FC054
:1028900067E674E21BC08091D60321E0482F421BFB
:1028A00008F440E0842F6FE474E211C06FE474E236
:1028B0000DC08091D60321E0382F321B08F430E0A0
:1028C000832F69E374E203C069E374E280E00E944D
:1028D000671A909113019F5F90931301882309F465
:1028E000B1CC2996E2E10C949B2DE0EDF3E085E379
:1028F00080838091170190911801A0911901818323
:102900009283A3838FE784838FEF858346E050E033
:102910006CE170E0CF010E94B32C10923D04089549
:1029200080E008959091D10292FF0DC0282F287168
:10293000283019F4877F846006C0282F2471243042
:1029400011F48B7F886093FF0DC0282F28712831E8
:1029500019F4877E846106C0282F2471243111F474
:102960008B7E88612091D20220FF0DC0382F3871F4
:10297000383019F4877F816006C0382F31713130CB
:1029800011F48E7F886021FF0DC0282F2871283117
:1029900019F4877E816106C0282F2171213111F43D
:1029A0008E7E886194FD877E0895F894E82FE295E5
:1029B000EF70F0E031A1282F2F7081E090E001C08E
:1029C000880F2A95EAF7982F9095932391A392A1C7
:1029D000892B82A378940895AAE0B0E0E2EFF4E1B5
:1029E0000C94852DAE014F5F5F4F7A018AE0FA01AA
:1029F00011928A95E9F70AE111E06A01AA24A394E9
:102A0000B12CF80180818F3F09F447C0F894E82F7A
:102A1000E295EF70F0E021A18F70A50102C0440F94
:102A2000551F8A95E2F7CA01922F982B91A392A184
:102A30008095892382A3789400C0EFE1F1E021E042
:102A400030E0812C912C41914F3F89F0A42FA29529
:102A5000AF70B0E090968C9190E04F7002C0959569
:102A600087954A95E2F780FD02C0C90102C080E067
:102A700090E0882A992A220F331F51E0EE32F507A1
:102A800011F7F80180818F3F11F00E94D514F0EA10
:102A9000FA95F1F7F601918280820F5F1F4FF2E005
:102AA000CF0ED11C41E00F31140709F0AACF4AE044
:102AB00050E0B70187EC92E00E94B62D11E000973C
:102AC00009F410E0892B89F08AE0F701A7ECB2E065
:102AD00001900D928A95E1F781E08093B5030E9401
:102AE000E8229093B4038093B3038091B5038823C5
:102AF00091F18091B3039091B4030E94CD22059788
:102B000050F18091C7029091C8029093E0028093A7
:102B1000DF028091C9029091CA029093E2028093F1
:102B2000E1028091CB029091CC029093E4028093D9
:102B3000E3028091CD029091CE029093E6028093C1
:102B4000E5028091CF029091D0029093E8028093A9
:102B5000E7021092B503812F2A96ECE00C94A12D88
:102B6000CF93DF938238910569F1B0F481339105F9
:102B700009F46FC048F48932910509F465C08A32BE
:102B8000910509F46BC08AC08533910509F457C0DB
:102B900089339105B9F082C0833E910571F138F413
:102BA000803E9105B1F0823E910511F177C0863EDD
:102BB0009105B9F1873E9105C9F1843E910509F06F
:102BC0006DC024C02091D10220FD53C021FD51C011
:102BD00065C08091D10280FD46C08091D20280FF05
:102BE00048C08091D10284FD50C183EE90E04FC176
:102BF0008091D10282FF3AC0F4CF8091D10282FD50
:102C000035C08091D20280FD34C0EBCF8091D202DA
:102C100081FF35C08091D10284FD37C187EE90E0FD
:102C200036C18091D10283FF27C0F4CF8091D102B9
:102C300083FD22C08091D20281FD21C0EBCF809123
:102C4000D10285FD1FC021C08091D10285FD1DC02C
:102C500019C08091D10286FD1BC01DC08091D10298
:102C600086FD19C015C089E390E011C182EE90E0A5
:102C70000EC180EE90E00BC186EE90E008C184EEBC
:102C800090E005C189E290E002C185E390E0FFC0D9
:102C90008AE290E0FCC081E390E0F9C0811531E563
:102CA000930708F069C0811540E59407F0F09C0196
:102CB00074E0369527957A95E1F7922F9370482F17
:102CC000437021E030E002C0220F331F4A95E2F743
:102CD0003C68392B982F9F709695969540E2949F6B
:102CE000C0011124822B932BD2C0883E910568F538
:102CF000803E910508F0CBC0883A9105B8F4853A3A
:102D0000910548F0855AE82FF0E0E65CFE4F80819F
:102D100090E09064BCC08130910509F4B3C008F420
:102D2000B4C08430910508F4B0C0B1C08F3B9105A8
:102D300008F0ABC0885AE82FF0E0EE0FFF1FE35C0D
:102D4000FE4F808191819464A2C0811520E2920798
:102D500058F4811531E0930708F099C0803F910540
:102D600008F493C0906593C0811540E4940708F47B
:102D70008CC09F70906A8BC0811525E5920708F082
:102D800042C0811534E5930728F0982F8827846F77
:102D9000906A7DC0811543E59407B0F09C012370D3
:102DA000332741E050E002C0440F551F2A95E2F757
:102DB000282F2695269580E2289F90011124CA018C
:102DC000822B932B9A6863C0811522E5920728F421
:102DD000982F8827816F906A5AC09C0123703327EF
:102DE00041E050E002C0440F551F2A95E2F7282F1A
:102DF0002695269580E2289F90011124CA01822BF6
:102E0000932B9C6844C0EC01811539E59307A8F425
:102E10008115984528F09C2F8827806F906A37C0CD
:102E2000C11586E5D80788F58C2F0E9492148F7102
:102E300090E0982F882790622AC081152AE5920792
:102E400090F48C2F8F700E94921494E0D695C795C1
:102E50009A95E1F7CF70D0E0DC2FCC27D0699E01A6
:102E6000282BC90114C090568115904270F48D2F03
:102E70008F710E949214282F2F71CE019927906292
:102E8000922B05C081E090E002C080E090E0DF91ED
:102E9000CF910895CF9384E090E00E94A52CC82F95
:102EA00082E290E00E94A52C2C2F30E0A901582B43
:102EB000CA01CF91089580E090E00E94AD2C883E39
:102EC0009E4F19F40E948B2B089580E0089568EEC0
:102ED0007EEF80E090E00E94E12C60E082E090E0F4
:102EE0000E94C32C60E083E090E00E94C32C10920B
:102EF000B20360E084E090E00E94C32C64E082E2D0
:102F000090E00E94C32C60E085E090E00E94C32C1A
:102F100060E086E090E00E94C32C6FEF87E090E0D5
:102F20000E94C32C40E050E0BA0188E090E00E948B
:102F3000D52C60E08DE090E00E94C32C40E050E092
:102F4000BA0188E190E00E94D52C60E087E190E032
:102F50000E94C32C40E050E0BA018CE190E00E9456
:102F6000D52C60E070E080E290E00E94E12C40E02F
:102F700050E0BA0188E190E00E94D52C80E00E94E8
:102F80005C2B0E947B2B40E050E0BA018FE090E088
:102F90000E94D52C40E050E0BA0183E190E00E940D
:102FA000D52C08958091B10381111092B103089539
:102FB00080959091B00389238093B00308959091F8
:102FC000B0038091AF03982B909366038091B10377
:102FD000882389F0892B80936603E8E6F3E097E085
:102FE00080E0915029F021912223D9F38F5FF9CF0E
:102FF00081110E94D21748E050E067EA73E086E64C
:1030000093E00E94B62D892BA9F088E0E6E6F3E074
:10301000A7EAB3E001900D928A95E1F7E0910504EB
:10302000F0910604309731F00280F381E02D86E6BE
:1030300093E0099508952091A603809582238093BB
:10304000A603982F977099F430E0482F082E000CB3
:10305000550B2417350759F09091D20292FF07C003
:103060008595859585950E9427291092A603089538
:10307000CF93C091D202C2FB992790F9981791F093
:1030800080FBC2F9C093D2026091D10284E090E04B
:103090000E94C32C6C2F82E290E00E94C32C82E03D
:1030A0000E941B18CF9108958091A50390917403FD
:1030B000891719F08F5F8770FBCF08950F931F93C7
:1030C000CF93DF938091730382958F7009F05AC07C
:1030D00080917003882309F455C08091A503109155
:1030E000740360916E0370916F03C0917103D0916E
:1030F000720391E06F3F09F090E0292F06E08117FD
:1031000009F440C0209721F07F3F21F030E003C058
:1031100031E001C0322F90E030FD31C0089FF00156
:10312000099FF00D1124DF01AB58BC4F11963C9163
:103130001197371324C03C91361321C012963C914D
:10314000129731111CC013964D915C9114974C1B32
:103150005D0B483C510598F4809173038F7080613A
:1031600080937303E658FC4F80818F708061808369
:103170008EE693E00E9446040E94541803C0019614
:103180008770BDCFDF91CF911F910F910895CF939D
:10319000DF93EC010E948A28BE010E94F6230E9460
:1031A000B015DF91CF910895A1E1B0E0EAEDF8E12B
:1031B0000C94862D8C0185E0F801DE011D960190AE
:1031C0000D928A95E1F7F801E28090916E0360918B
:1031D0006F0340917103509172034115510531F015
:1031E0006F3F31F481E09F3F19F403C081E001C0DB
:1031F00080E0F82FF1709F2E80FD1BC1F801308117
:103200002181C380D4808EE6A82E83E0B82EF09072
:103210007003F601E41BF50BFF2009F4C7C0809191
:103220007303E83CF10508F092C0482F407F09F095
:1032300051C0621311C093130FC0FE2CE1100CC0DB
:103240008F70806180937303C5010E944604809152
:103250007303F80185832AC1C114D10431F02F3FD3
:1032600031F481E03F3F19F403C081E001C080E008
:1032700080FD03C081E08E2502C080E090E0F82F41
:10328000F170FF2E80FF1CC08091A5034091740354
:1032900056E0841709F4E8C090E0589FF001599F68
:1032A000F00D1124EB58FC4F6181261306C060819C
:1032B000631303C06281E61203C001968770E9CFF1
:1032C000FE2CEE2009F4F2C080917303816080939C
:1032D000730349C0621306C0931304C0E11002C017
:1032E000F80186C0C8010E944529882351F1EE20CB
:1032F00041F120917303822F82958F7090E00297A5
:1033000074F080916E0390916F0398878F83198674
:10331000DB86CA862C87CE0107960E94460486E08B
:10332000F801AEE6B3E001900D928A95E1F70E94B4
:103330005E180AC06217C9F0C8010E9445298111B0
:103340001EC0C8010E944604FF24F394AFC0482F5A
:10335000407F81F78EE693E00E94460486E0F50107
:1033600011928A95E9F7F12CA1C09313E5CFE110F2
:10337000E3CFF8018583C8010E94460454C0EE20C3
:1033800001F320917303822F82958F7090E0029752
:1033900034F280916E0390916F039A8389831B822C
:1033A000DD82CC822E83CE010196B7CFE83CF105B9
:1033B000D0F5FE2CEE2029F2621327C0931325C00E
:1033C0002091730320FD18C0822F82958F70482FA3
:1033D00050E04115510581F0F80125834F3051052A
:1033E00041F08F5F982F9295907F822F8F70892B5D
:1033F0008583C8010E94460486E0F801AEE6B3E08A
:1034000001900D928A95E1F751C0C8010E944529AB
:10341000811185CF80917303816080937303C8010C
:103420000E94460443C086E0F50111928A95E9F7AF
:103430003DC0EE2009F485CFC8010E944529F82E31
:10344000882309F47ECF86E0F801AEE6B3E0019070
:103450000D928A95E1F780916E0390916F030E941F
:10346000C7180E945E1822C03D872E878D859E85D5
:103470000E94C718292F22952F70223028F49F70A0
:1034800039F0811105C00BC0243028F49F7049F435
:10349000805E883020F0C8010E9446049F2CF92CE1
:1034A00005C0F8019581907F99F7F9CF8F2D61962E
:1034B000EBE00C94A22D8091FF03982F967096302C
:1034C00011F4886001C0877F0E9422290895A7E037
:1034D000B0E0EDE6FAE10C947F2D282E4B0120910F
:1034E000130181E1289F802D11248E83182F1F5EE8
:1034F000163508F015E53091D60339839E81911772
:1035000008F07CC08E81682E712CF301E159FD4FCB
:10351000908180911401892309F46CC03090D1030B
:103520004090D203522C1F82C301880F991FDC01E7
:10353000AB53BE4FBB83AA83C301880F991FFC0105
:10354000EA53FE4FFD83EC83F9815F1608F040C01B
:10355000E52CF12CAA81BB81CC90D12CF701EA5249
:10356000FC4F8181C81AD108AC81BD81AC90B12CCF
:103570008185A81AB108CC9C9001CD9C300D300DEE
:103580001124AA9CC001AB9C900D900D1124820FB8
:10359000931F0E944226082F6091D40321E0620FFE
:1035A00008F46FEFF701EE0FFF1FEA52FC4F818D19
:1035B000928D0E949C267C019501A601632D742D9D
:1035C0008F81F4010995362E472E8F835394BCCFFB
:1035D0002091D3038F81382F329F312D1124832FD7
:1035E000632D742D0E94A626462F282F672FC30116
:1035F0000E9430108E818F5F8E8380CF81E01535E1
:1036000008F080E02796E2E10C949B2DA0E0B0E06A
:10361000ECE0FBE10C94892D8C01C091130181E158
:10362000C89FC02D1124D1E1DC0FD63508F0D5E5B7
:103630002091D40331E0230F08F42FEF30E040E075
:1036400050E06FEF7FEF80E090E00E94E72C79017F
:10365000CD1708F041C0CC2ED12CF601E159FD4F19
:103660009081809114018923A9F19091D603915002
:1036700097FD15C0492F092E000C550BFA01EA528F
:10368000FC4F8189C813F3CF440F551FFA01EA524A
:10369000FC4F218D328D2E153F0548F701C0970153
:1036A0006091D40341E0640F08F46FEFC9010E94F8
:1036B0009C26AC016091D1037091D2038091D30319
:1036C000F80109950E94A626462F282F672FC601CC
:1036D0000E943010CF5FBCCF81E0D53508F080E08C
:1036E000CDB7DEB7E8E00C94A52DA0E0B0E0EBE7A5
:1036F000FBE10C94892D6C01C091130181E1C89FFD
:10370000C02D1124D1E1DC0FD63508F0D5E560914C
:10371000D40366958091CC039091CD030E949C26A2
:10372000182FCD1778F5EC2EF12CF701E159FD4F4C
:10373000908180911401892319F1F701EE0FFF1F89
:10374000EA53FE4F208130E020523109F701EE0F9D
:10375000FF1FEB53FE4F408150E0405751096091ED
:10376000D1037091D2038091D303012FF601099503
:103770000E94A626462F282F672FC7010E943010CF
:10378000CF5FCFCF81E0D53508F080E0CDB7DEB791
:10379000E8E00C94A52D6F927F928F929F92AF924A
:1037A000BF92CF92DF92EF920F931F93CF93DF934D
:1037B0003C01C091130181E1C89FC02D1124D1E1CA
:1037C000DC0FD63508F0D5E56091D403669580917D
:1037D000CC039091CD030E949C26182FCD1708F0A2
:1037E00044C08C2E912CF401E159FD4F90818091C1
:1037F00014018923C1F1F401EE0FFF1FEB53FE4FBB
:10380000C080D12C80E7C81AD108F401EE0FFF1F49
:10381000EA53FE4FA080B12CE0E2AE1AB108CC9C76
:103820009001CD9C300D300D1124AA9CC001AB9CA1
:10383000900D900D1124820F931F0E944226082F95
:103840006091D1037091D2038091D303E12E950151
:10385000A601F30109950E94A626462F282F672F5F
:10386000C4010E943010CF5FB9CF81E0D53508F098
:1038700080E0DF91CF911F910F91EF90DF90CF907B
:10388000BF90AF909F908F907F906F900895A0E031
:10389000B0E0EDE4FCE10C948A2D8C01C0911301A1
:1038A00081E1C89FC02D1124D1E1DC0FD63508F08D
:1038B000D5E56091D4036695669521E0620F08F422
:1038C0006FEF8091CC039091CD030E949C26D82E5F
:1038D000CD17F0F4EC2EF12CF701E159FD4F90815A
:1038E00080911401892391F06091D1037091D203EA
:1038F0008091D3032D2D4C2FF80109950E94A62607
:10390000462F282F672FC7010E943010CF5FE0CFCE
:1039100081E0D53508F080E0CDB7DEB7E7E00C9464
:10392000A62DEF92FF920F931F93CF93DF937C010D
:103930008B010E946C20811119C0E701011511054E
:10394000A1F08091E80085FD0AC08091E8008E77A3
:103950008093E8000E946C20882381F307C089913E
:103960008093F10001501109E9CF80E0CDB7DEB7B7
:10397000E6E00C94A72DAAE2B0E0E1ECFCE10C94A7
:103980008E2DE4ECF3E08CEC93E02091F100219398
:103990008E179F07D1F78091C503833009F463C068
:1039A00030F4813071F0823009F49DC0B4C08A30A7
:1039B00009F489C08B3009F46EC0893009F0ABC0BE
:1039C00020C08091C403813A09F0A5C08091E8002D
:1039D000877F8093E8008091C8039091C903892B69
:1039E00021F468E088EB93E003C060E080E090E0C1
:1039F00070E00E9425228091E8008B778093E80098
:103A00008AC08091C403813209F085C08091C803C7
:103A10009091C903009719F0029709F07CC080913A
:103A2000E800877F8093E8008091E80082FD05C070
:103A30008091C2038111F8CF6EC02091F300809174
:103A4000F20090E0922B029731F48091F1008130E6
:103A500011F0863021F48091F1008093B7038091BA
:103A6000E8008B7754C08091C403813A09F053C0B9
:103A70008091C8039091C903892B09F04CC08091B3
:103A8000E800877F8093E8008091E80080FFFCCF0A
:103A90008091120137C08091C4038132E1F5809199
:103AA000C8039091C903892BB1F58091E800877F05
:103AB0008093E8000E949F208091C60380931201AA
:103AC0000E94652928C08091C403813221F580912C
:103AD000E800877F8093E8000E949F208091C703C1
:103AE0008093B60318C08091C403813AA1F48091F9
:103AF000E800877F8093E8008091E80080FFFCCF9A
:103B00008091B6038093F1008091E8008E778093D6
:103B1000E8000E949F208091E80083FFDFC1809130
:103B2000C4039091C503492F50E04A30510508F075
:103B3000D5C1FA01EA56FF4F0C94722D803821F05E
:103B4000823809F0CBC108C08091C0039091C103B5
:103B5000992389F082600FC08091C8038F708730ED
:103B600008F0BCC18093E9008091EB0085FB8827B9
:103B700080F91092E9009091E800977F9093E80017
:103B80008093F1001092F10070C1282F2D7F09F071
:103B9000A5C1882319F0823061F0A0C18091C603CD
:103BA000813009F09BC1933009F080E08093C1031C
:103BB0002EC08091C60381112AC08091C8038F70E6
:103BC0002FEF280F263008F089C18093E90020915B
:103BD000EB0020FF1CC0933021F48091EB00806249
:103BE00014C09091EB0090619093EB0021E030E0E5
:103BF000A90102C0440F551F8A95E2F74093EA00DD
:103C00001092EA008091EB0088608093EB001092A4
:103C1000E9008091E800877F8093E8000E949F2060
:103C20005DC181115BC11091C6031F778091E300D4
:103C30008078812B8093E3008091E800877F8093D8
:103C4000E8000E949F208091E80080FFFCCF8091D7
:103C5000E30080688093E300111102C082E001C09C
:103C600083E08093C2033AC18058823008F036C1A5
:103C70002091C6033091C7032C3D53E0350779F5F9
:103C800083E08A838AE289834FB7F894DE01139632
:103C900020E03EE051E2E32FF0E050935700E49142
:103CA00020FF03C0E295EF703F5FEF708E2F90E032
:103CB000EA3010F0C79601C0C0968D939D932F5F98
:103CC000243149F74FBF8091E800877F8093E80057
:103CD0006AE270E0CE0101960E942522B4C0809174
:103CE000C8039091C903432F552743305105A9F0CC
:103CF00068F44130510509F400C14230510509F022
:103D0000EDC08BE590E0EDECF2E04BC041325105A7
:103D100029F14232510589F1E1C0C9019927813069
:103D20009105A1F058F0029709F0D8C0EAE3F3E05A
:103D3000E4918E2F90E0EAE3F3E030C0E6E5F3E0B3
:103D4000E4918E2F90E0E6E5F3E028C0E6E4F3E0AE
:103D5000E4918E2F90E0E6E4F3E020C083309105FB
:103D600008F0BCC0880F991FFC01EC58FE4F019071
:103D7000F081E02D89E090E014C08330910508F0D7
:103D8000ADC0FC01EE0FFF1FE259FE4F0190F08124
:103D9000E02DDC01A559BE4F8C9190E0009709F40D
:103DA0009DC02091E800277F2093E8002091CA035E
:103DB0003091CB032817390708F4C90140E0009778
:103DC00089F12091C203222309F43DC02530D9F1A5
:103DD0002091E80023FD37C02091E80022FD2FC08C
:103DE0002091E80020FFEBCF4091F3002091F200FA
:103DF00030E0342B009759F02830310540F44491DD
:103E00004093F100319601972F5F3F4FF3CF41E090
:103E10002830310509F040E02091E8002E7720930A
:103E2000E800CDCF4111CDCF0AC08091C2038823D5
:103E300051F0853041F08091E80083FD04C080910D
:103E4000E80082FFF2CF8091E8008B778093E80052
:103E500045C0803809F042C08091E800877F809398
:103E6000E8008091C3038093F1008091E8008E7791
:103E7000D3CE811133C08091C6039091C703992797
:103E8000029764F58091E800877F8093E8001091A5
:103E9000C6031093C3030E949F20111106C0809196
:103EA000E30087FD02C081E001C084E08093C2038B
:103EB00042E061EC81E00E94BE2042E261EC84E0DD
:103EC0000E94BE2042E261EC82E00E94BE2042E2FB
:103ED00060EC83E00E94BE208091C2038091E800E4
:103EE00083FF10C08091E800877F8093E800809175
:103EF000EB0080628093EB0005C082E190E0E8E295
:103F0000F3E04FCFAA96E3E00C94AA2D0895809198
:103F1000B703089580930E047093100460930F0408
:103F20008091C2038430F9F48093E9008FEF90917F
:103F3000E800815095FD06C095ED9A95F1F70000D7
:103F40008111F5CF8091E80085FF0DC040E050E081
:103F500063E070E08EE094E00E94911C8091E800A4
:103F60008E778093E8000895BC0184E00E948A1F48
:103F70000895BC0183E00E948A1F089524E02093E5
:103F8000E9002FEF3091E800215035FD06C035EDF6
:103F90003A95F1F700002111F5CF2091E80025FFB7
:103FA0000BC040E050E066E070E00E94911C809100
:103FB000E8008E778093E8000895CF93DF9321E0A7
:103FC0002093E9002FEF3091E800215035FD06C025
:103FD00035ED3A95F1F700002111F5CF2091E80079
:103FE00025FF14C0EC0140E050E068E070E00E9462
:103FF000911C8091E8008E778093E80088E0FE01B4
:10400000A8EBB3E001900D928A95E1F7DF91CF9193
:1040100008951F920F920FB60F9211242F933F9382
:104020004F935F936F937F938F939F93AF93BF93C0
:10403000CF93DF93EF93FF93C091E900CF7080910E
:10404000EC00D82FD17080FDD0E81092E90080916B
:10405000F000877F8093F00078940E94BB1C109240
:10406000E9008091F00088608093F000CD2BCF7044
:10407000C093E900FF91EF91DF91CF91BF91AF9194
:104080009F918F917F916F915F914F913F912F9170
:104090000F900FBE0F901F901895E8EDF0E0808113
:1040A0008E7F80831092E2001092DA001092E1007D
:1040B000A0EEB0E08C9181608C9380818F778083BB
:1040C00019BCA7EDB0E08C918E7F8C9380818F7EA0
:1040D00080831092110408952091E4003091E5004E
:1040E00095E64091EC00842F817040FF23C08091C1
:1040F000E80080FD1DC08091C203882399F08530BF
:1041000099F08091EB0085FD11C04091E400509141
:10411000E5002417350729F3915011F09A01E1CFFA
:1041200084E0089582E0089583E0089581E0089591
:1041300080E008954091E80042FFDDCF089580912E
:10414000C40387FF11C08091E80082FD05C0809103
:10415000C2038111F8CF11C08091E8008B770BC0AA
:104160008091C203882349F08091E80080FFF8CF56
:104170008091E8008E778093E8000895982F97301B
:1041800068F59093E900981739F07091EC00209150
:10419000ED005091F00003C0242F762F50E021FD58
:1041A00002C09F5FECCF3091EB003E7F3093EB007D
:1041B0003091ED003D7F3093ED003091EB003160A8
:1041C0003093EB007093EC002093ED005093F000DF
:1041D0002091EE0027FDE5CF80E008958F70809359
:1041E000E90081E00895A0E0B0E0E9EFF0E20C948E
:1041F000892DC8EDD0E088818F7E8883E7EDF0E0DF
:1042000080818160808384E082BF81E0809311049B
:1042100088818E7F888302EE10E0F8011082109270
:10422000DA0081EEC82ED12CF601108288818F77BA
:10423000888388818068888388818F7D888319BC82
:104240001092C2031092C3031092C1031092C003D4
:1042500090EEE92EF12CF70180818B7F808388819D
:104260008160888342E060E080E00E94BE20F60129
:1042700080818E7F8083F80180818160808380814E
:1042800088608083F70180818E7F80838881806150
:104290008883CDB7DEB7E8E00C94A52D1F920F926E
:1042A0000FB60F9211242F933F934F935F936F9309
:1042B0007F938F939F93AF93BF93EF93FF938091DF
:1042C000E10082FF09C08091E20082FF05C0809179
:1042D000E1008B7F8093E1008091DA0080FF2AC0AB
:1042E0008091D80080FF26C08091DA008E7F809375
:1042F000DA008091D90080FF18C080E189BD82E199
:1043000089BD09B400FEFDCF81E08093C203809196
:10431000110481110FC00E944D200E94F320809152
:10432000E20084608093E20005C019BC1092C203D1
:10433000109211048091E10080FF17C08091E2008B
:1043400080FF13C08091E2008E7F8093E200809115
:10435000E20080618093E2008091D80080628093C7
:10436000D80019BC85E08093C2038091E10084FFEE
:1043700030C08091E20084FF2CC080E189BD82E1E1
:1043800089BD09B400FEFDCF8091D8008F7D809358
:10439000D8008091E1008F7E8093E1008091E2005F
:1043A0008F7E8093E2008091E20081608093E20042
:1043B0008091C303882311F084E007C08091E3005B
:1043C00087FD02C081E001C083E08093C203809139
:1043D000C2038091E10083FF27C08091E20083FF48
:1043E00023C08091E100877F8093E10082E0809389
:1043F000C2031092C3038091E1008E7F8093E1009D
:104400008091E2008E7F8093E2008091E2008061E3
:104410008093E20042E060E080E00E94BE20809154
:10442000F00088608093F000FF91EF91BF91AF9111
:104430009F918F917F916F915F914F913F912F91BC
:104440000F900FBE0F901F9018952091CA033091C6
:10445000CB032617370748F06115710539F4209111
:10446000E8002E772093E80001C0B901FC0120E0AC
:104470006115710579F18091C2038823F1F18530CE
:10448000F1F18091E80083FD3CC08091E80082FD5D
:104490002EC08091E80080FFEBCF2091F300809147
:1044A000F20090E0922B6115710551F08830910572
:1044B00038F421912093F100615071090196F3CFF6
:1044C00021E0089709F020E08091E8008E77809342
:1044D000E800CECF2111CFCF0AC08091C20388233C
:1044E00061F0853061F08091E80083FD0AC0809121
:1044F000E80082FFF2CF80E0089582E0089583E033
:10450000089581E0089581E08093E00080E2809347
:10451000D8001092C9008FE19EE40197F1F700C026
:10452000000087E090EBDC0180933D0590933E0511
:10453000A0933F05B09340059CE088E10FB6F89446
:10454000A895809360000FBE90936000FFCF789491
:104550001F920F920FB60F9211248F939F93AF93D8
:10456000BF9380910A0490910B04A0910C04B09128
:104570000D040196A11DB11D80930A0490930B04B4
:10458000A0930C04B0930D04BF91AF919F918F91B4
:104590000F900FBE0F901F9018959C014FB7F89485
:1045A00080910A0490910B04A0910C04B0910D0429
:1045B0004FBF821B930B08952FB7F89460910A04A4
:1045C00070910B0480910C0490910D042FBF0895FD
:1045D0002FB7F89480910A0490910B04A0910C04D9
:1045E000B0910D042FBF08951F920F920FB60F9236
:1045F00011248F939F93AF93BF93809109048111EE
:1046000013C080910A0490910B04A0910C04B09106
:104610000D044196A11DB11D80930A0490930B04D3
:10462000A0930C04B0930D04BF91AF919F918F9113
:104630000F900FBE0F901F9018959C012A5F3F4F5F
:10464000FC014281461301C0128201968217930732
:10465000B9F708959C01FC0132969FEF80E04191EB
:10466000461789F09F3F19F4411101C0982F8F5FC1
:104670008630A9F79F3F39F0F901E90FF11D97FD49
:10468000FA956283089508952091070430910804F3
:104690002817390771F09093080480930704E0917C
:1046A0000504F0910604309721F00084F185E02D97
:1046B00009950895209103043091040428173907BF
:1046C00071F09093040480930304E0910504F09149
:1046D0000604309721F00680F781E02D09950895B2
:1046E000E0910504F0910604309729F00190F081E3
:1046F000E02D0995089580E008950F931F93CF93BF
:10470000DF93C42FD22FFC0182818823B1F0409324
:1047100002040E94E822909301048093000480E246
:104720008C0F883008F04DC0C77081E001C0880F41
:10473000CA95EAF70E94782944C080910204481380
:1047400030C080910004909101040E94CD22883CE9
:10475000910538F510E21D0FCD17B9F080E28C0FEE
:10476000883040F4C77081E001C0880FCA95EAF72D
:104770000E947129183010F581E09D2F977001C0BB
:10478000880F9A95EAF70E947829802F0E94892A3B
:104790001830B8F4D77081E001C0880FDA95EAF7D5
:1047A0000AC080E28C0F883060F4C77081E001C0DD
:1047B000880FCA95EAF70E94712903C0802F0E94D2
:1047C000892ADF91CF911F910F910895CF93DF93A5
:1047D000CFE7D2E060E0CE010E94C32C2196C11544
:1047E00084E0D807B9F7DF91CF910895843048F479
:1047F000753038F46F3028F4462F672F0E94292B2C
:10480000089580E090E00895A0E0B0E0EAE0F4E2EE
:104810000C94872DA12CE12CF12CB12C00E010E0A0
:10482000C0E0D0E06701C00ED11EFE01EE0FFF1FF9
:10483000EC0DFD1DE65AFC4F259134914C2F6B2D4C
:104840008A2D0E94022B2196CF30D10571F7025E8E
:104850001F4FB39485E0B812E3CF86E9E80EF11C50
:10486000A39484E0A812D9CFCDB7DEB7EAE00C94C8
:10487000A32DEF92FF920F939701201B31092F3F39
:10488000310519F010F02FEF30E02095382F320F5E
:1048900008F43FEF832F0F91FF90EF900895EF9270
:1048A000FF920F939701201B31092F3F310519F01B
:1048B00010F02FEF30E0322F3095482F430F08F4DF
:1048C0004FEF842F620F0F91FF90EF900895EF92BA
:1048D000FF920F93972F093438F4B701601B7109C9
:1048E0006F3F710519F010F06FEF70E0485F5F4F98
:1048F0004131510540F0A901485F5F4F41315105F9
:1049000010F06FEF70E06095482F460F08F44FEFFE
:10491000842F37FF02C02D5F3F4F35952795359582
:1049200027956091D103620F792F0F91FF90EF903F
:104930000895EF92FF920F93E00EF11CF90137FFFB
:1049400003C0F195E195F10924E0EE0FFF1F2A95D0
:10495000E1F7EF3FF10519F014F0EFEFF0E09A0105
:1049600057FF03C031952195310994E0220F331F81
:104970009A95E1F72E173F070CF4F901EE0DFF1D94
:10498000EF3FF10519F010F0EFEFF0E02E2F20953A
:10499000382F320F08F43FEF832F0F91FF90EF90E5
:1049A0000895EF92FF920F93970195E0099F200DD4
:1049B000311D11242F3F310519F010F02FEF30E099
:1049C0002095382F320F08F43FEF832F0F91FF907F
:1049D000EF90089522E8241B08F420E0620F089568
:1049E0004095282F429F412D1124842F0895EF9246
:1049F0000F931F9393E0099F80011124159507954C
:104A00006E2D600F1F910F91EF900895A22F50E02F
:104A1000FA01EE0FFF1FEA53FE4F9081905297FD6F
:104A20009195440F551FFA01EB53FE4F3081232F10
:104A300030E02A1B3109290F311D97FD3A95620F8D
:104A40000895E42FF0E0EE0FFF1FEA53FE4F608160
:104A5000621B0895E42FF0E0EE0FFF1FEB53FE4FB3
:104A60006081621B0895622F0895E42FF0E0EE0F3D
:104A7000FF1FEB53FE4F408134EE439F412D112425
:104A8000E82FF0E050E0445E5F4FDA01A21BB1096D
:104A90009D01B7FF03C031952195310993E0220FA5
:104AA000331F9A95E1F7AF01421B530B9A0157FF51
:104AB00002C020E030E0582F259F212D1124822FA5
:104AC0000895E42FF0E0EE0FFF1FEB53FE4F4081FF
:104AD00034EE439F412D1124E72FF0E050E0445E77
:104AE0005F4FDA01A21BB1099D01B7FF03C03195E9
:104AF0002195310993E0220F331F9A95E1F7AF0119
:104B0000421B530B9A0157FF02C020E030E0279F61
:104B1000212D1124722F0895FC019B01009721F48F
:104B200077FF2BC080E80895AC0197FF04C04427AD
:104B30005527481B590BB901640F751F37FD0CC071
:104B4000241B350BC901A5E0880F991FAA95E1F731
:104B50000E945E2D80E20CC0CB0165E0880F991F9A
:104B60006A95E1F7BA01621B730B0E945E2D80E625
:104B7000861BF7FF03C08195089580E008950F9389
:104B8000CF93DF93D72FC82FC901BA010E948C257C
:104B9000682F600F7D2F8C2FDF91CF910F9108959B
:104BA000EF920F931F93CF93DF93D62FC72F182F1A
:104BB000C9010E19010FBA010E948C25081B202F74
:104BC000219F212D1124822F6D2F7C2FDF91CF91DA
:104BD0001F910F91EF900895EF920F931F93CF9332
:104BE000DF93D62F172FC82FC9010E19070FBA014F
:104BF0000E948C25702F781B719F712D11246D2FB1
:104C00008C2FDF91CF911F910F91EF900895FF921C
:104C10000F931F93CF93DF93F62ED72F182FC90131
:104C2000C12FC01BBA010E948C25982F990F890FA4
:104C3000C81B2C2F219F212D1124822F6F2D7D2FFA
:104C4000CDB7DEB7E5E00C94A82DFF920F931F932C
:104C5000CF93DF93F62E172FD82FC901C72FC01B74
:104C6000BA010E948C25982F990F890F7C2F781BF1
:104C7000719F712D11246F2D8D2FCDB7DEB7E5E01B
:104C80000C94A82DBC018230910508F40895613E72
:104C90008EE1780748F49B0195E0369527959A9523
:104CA000E1F748E0420F01C04FEF91E0242F30E0E0
:104CB000290F311D35952795229FF001239FF00D77
:104CC000F00D11246E177F0718F44FEF420F04C048
:104CD0002F3F39F091E0920F491740F78FEF890F7E
:104CE00008958FEF08950F93CF93DF93D72FC82F99
:104CF00047FD4195E8E3F0E0CF01841B910947FDB2
:104D00009395889FB001899F700D700D1124229F8B
:104D1000C001239F900D900D1124860F971F0E94B4
:104D20004226682F660F860F682F600F7D2F8C2F0D
:104D3000DF91CF910F91089520E030E0869F212DE3
:104D4000969F200D311D1124C9010895A0E0B0E007
:104D5000ECEAF6E20C94892DF62E472FE82FF0E0CE
:104D6000711106C0EE54FA4F8491782F682F73C0EA
:104D7000272F30E0EE54FA4FE491FE2F0E2F10E073
:104D800056E0659FC0011124CFEFD0E0BE010E9424
:104D90004A2D5BEA5603C001579F900D11248F0DD9
:104DA000911D8F0D911D982F990F980F7E01E21A7A
:104DB000F30AE09ED001E19EB00DF09EB00D1124EB
:104DC0008B2F499FA0011124452F55277E01E41AFE
:104DD000F50AE09EA001E19E500DF09E500D1124B9
:104DE0006E01C91AD108C29E7001C39EF00CD29EFA
:104DF000F00C11242F2D3327C21BD30BC09F900121
:104E0000C19F300DD09F300D1124932F623071055A
:104E100091F048F461157105E1F061307105B9F464
:104E20009E2FE52F16C06430710569F040F06630A2
:104E3000710579F00CC09E2FEB2F832F0AC0EB2F4A
:104E40008F2F952F06C09B2F8E2FE32F02C09B2FF5
:104E5000852F7E2F692FCDB7DEB7E8E00C94A52D06
:104E60000E94E82220911B04211104C020911C04FF
:104E7000222321F0909318048093170420911D049D
:104E8000211104C020911E04222321F090931604C6
:104E900080931504E0910504F0910604309749F0E1
:104EA00082E0809319040480F581E02D89E194E08B
:104EB00009950895803F39F490911C0497FF35C0FF
:104EC00010921C0459C0813F29F490911C041916BA
:104ED000BCF32BC090911B04823F29F497FF25C09F
:104EE00010921B0449C0833F19F41916CCF31DC05E
:104EF00090911D04893F29F41916BCF410921D04E9
:104F00003BC08A3F19F497FF10C0F8CF8B3F39F4AC
:104F100090911E0497FF09C010921E042DC08C3F73
:104F200021F490911E041916BCF39CE0980F953063
:104F300080F421E030E0A90102C0440F551F9A958A
:104F4000E2F7CA01809590911A04892380931A048C
:104F500013C08D3F21F4809114048E7F0BC08E3FCF
:104F600021F4809114048D7F05C08F3F29F4809136
:104F700014048B7F8093140480911B04811106C05C
:104F800080911C04811102C01092130480911D04B1
:104F9000811106C080911E04811102C0109212047A
:104FA00008958091140480FD16C081FD16C082FD15
:104FB00018C080911204882391F0883290F428E080
:104FC000829FC001112468E270E00E945E2D862F4E
:104FD000672B29F007C082E0089584E0089581E0FE
:104FE000089588E008958091140480FD14C081FD27
:104FF00014C082FD16C080911304882381F08E3185
:1050000080F420E5829FC00111246EE170E00E94CF
:105010005E2D862F089584E1089588E2089588E042
:10502000089580E50895803F21F40E94F32781953B
:1050300004C0813F29F40E94F32780931C04089543
:10504000823F21F40E94F327819504C0833F29F415
:105050000E94F32780931B040895893F19F40E944E
:10506000D12705C08A3F31F40E94D12781958093D2
:105070001D0408958B3F21F40E94D127819504C01F
:105080008C3F29F40E94D12780931E0408959CE050
:10509000980F953078F421E030E0A90102C0440F68
:1050A000551F9A95E2F7CA0190911A04892B8093B3
:1050B0001A0408958D3F21F48091140481600BC07F
:1050C0008E3F21F480911404826005C08F3F29F443
:1050D00080911404846080931404089580E090E02B
:1050E0000E945A2380E090E00E9444231092AF0374
:1050F0000E94DF17E9E1F4E086E0DF011D928A9566
:10510000E9F71092130410921204109214040E94F2
:1051100030270895CF92DF92FF920F931F93CF9382
:10512000DF936C010091FF038091B203082BC7E06D
:10513000D0E010E0C8010C2E02C0959587950A9426
:10514000E2F780FD04C02197A8F7F12C09C0FC2EDE
:10515000B6018C2F0E94F6230E94B015019799F397
:105160008F2DDF91CF911F910F91FF90DF90CF9006
:105170000895292F953078F58F3068F590E03FE05D
:10518000239F800D911D1124682F677023E0969551
:1051900087952A95E1F7FC01EE0FFF1FE80FF91F35
:1051A000E15EFB4F40E050E080E0219130E0062ED0
:1051B00002C0369527950A94E2F721703327042E12
:1051C00001C0220F0A94EAF7822B4F5F5F4F4330F2
:1051D000510559F7089580E00895292F953088F5F5
:1051E0008F3078F590E03FE0239F800D911D1124D2
:1051F000282F277051E001C0550F2A95EAF723E0C8
:10520000969587952A95E1F7FC01EE0FFF1FE80FB1
:10521000F91FE15EFB4F20E030E070E04081CB0100
:10522000022E02C0969587950A94E2F781708195C7
:1052300084278523842781932F5F3F4F23303105B7
:1052400069F708958093FF030E946E28089521E076
:1052500030E001C0220F8A95EAF720958091FF0384
:1052600082230E942229089521E030E001C0220F0C
:105270008A95EAF78091FF03822B0E9422290895E4
:105280008093B2030E946E280895FC018081918171
:105290000E94C71892959F70963079F010F4925042
:1052A00001C09A50923068F4803F69F018F4883E4B
:1052B00040F409C0843F29F406C0883E20F0813FB5
:1052C00011F080E0089581E008951092B00386E027
:1052D000E8E6F3E0DF011D928A95E9F70E946E2867
:1052E0000895882321F00E94D8170E94DF1708959F
:1052F000882339F09091B003892B8093B0030E94EA
:10530000DF170895882309F45FC0823869F40E948A
:10531000702381FF59C069E386E693E00E942A2347
:105320000E94DF1769E30EC0833899F40E9470234E
:1053300080FF4AC063E586E693E00E942A230E942C
:10534000DF1763E586E693E00E941D230E94DF17C6
:105350000895843869F40E94702382FF35C067E4A1
:1053600086E693E00E942A230E94DF1767E4EACFD3
:105370009CEF980F913A10F4682FE4CF90E2980FC9
:10538000983050F4877091E001C0990F8A95EAF740
:10539000892F0E94D817DACF9BE5980F933028F415
:1053A00080E090E00E945A23089598E5980F973185
:1053B00028F480E090E00E9444230895803F20F08C
:1053C0000E945A270E9430270895CF93882309F41A
:1053D0009EC0C82F8238B1F40E94702381FD97C00F
:1053E00069E386E693E00E942A230E94DF172FEFED
:1053F00081EE94E0215080409040E1F700C0000031
:1054000069E317C08338E1F40E94702380FD7FC0F8
:1054100063E586E693E00E942A230E94DF172FEFC0
:1054200081EE94E0215080409040E1F700C0000000
:1054300063E586E693E00E941D230E94DF1767C0A4
:105440008438B1F40E94702382FD61C067E486E66F
:1054500093E00E942A230E94DF172FEF81EE94E051
:10546000215080409040E1F700C0000067E4E1CFA8
:105470008CEF8C0F813A80F4E8E6F3E08EE693E05F
:105480002191C217E1F18E179F07D1F76C2F86E6A5
:1054900093E00E942A23D1CF80E28C0F883068F4F9
:1054A000C77081E090E001C0880FCA95EAF790913B
:1054B000B003892B8093B003C0CFEBE5EC0FE33052
:1054C00040F4F0E0E65CFE4F808190E00E945A23B9
:1054D0001EC0E8E5EC0FE73150F4F0E0EE0FFF1FDF
:1054E000E35CFE4F808191810E94442310C0C03F45
:1054F00070F08C2F0E9413280E94302708C06C2F58
:1055000086E693E00E941D230E94DF17BFCFCF9154
:1055100008951F93CF93DF93182F893319F0C0E0BC
:10552000D0E002C0C0E5D0E0812F0E94E52920979D
:1055300041F08FE99FE00197F1F700C0000021974B
:10554000F6CF812F0E948229DF91CF911F9108957C
:10555000EEE3F4E095E0ED33F90729F08183608311
:1055600042833396F7CF0895FC01EE0FFF1F8E0F95
:105570009F1FFC01E25CFB4F6183408322830895FF
:10558000E0EDF3E0248130E1231B08F420E02483E4
:1055900080913D04816080933D040895E0EDF3E047
:1055A000248130E1230F08F42FEF248380913D0400
:1055B000816080933D040895809A81B38E7F91B37A
:1055C00091602FB7F894EEE3F4E035E0ED33F307A4
:1055D00089F0319148E091BB000000C037FF81BBEA
:1055E000330F000000C000C000C081BB00C04A955E
:1055F00091F7EBCF2FBF8FE594E00197F1F700C053
:10560000000008951F93CF93DF93962F8430E8F422
:105610006530D8F44F30C8F4632F122FC42FD0E078
:10562000CC0FDD1F2EE1929FC00DD11D112496E9F4
:10563000899FC00DD11D1124CE0187960E94C32CD5
:10564000612FCE0188960E94C32CDF91CF911F91CC
:1056500008950F931F93CF93DF93843008F565303F
:10566000F8F44F30E8F4C42FD0E0CC0FDD1F2EE16A
:10567000629FC00DD11D112436E9839FC00DD11D3D
:105680001124CE0187960E94A52C90E0182F0027A8
:10569000CE0188960E94A52C9801282BC90102C032
:1056A00080E090E0DF91CF911F910F91089586E205
:1056B00090E00E94C32C0895CF93C82F811102C09F
:1056C0006FEF01C062E283E290E00E94C32CC1113F
:1056D00002C06FEF01C068E084E290E00E94C32C3A
:1056E000C11102C06FEF01C069E185E290E00E9444
:1056F000C32CCF91089580E00E945C2B60E070E0A5
:10570000CB010E94572B0E9404240E94E62381E0D3
:105710000E945C2B089583E290E00E94A52C8232C7
:1057200081F484E290E00E94A52C883051F485E257
:1057300090E00E94A52C91E0893109F090E0892F3A
:1057400001C080E081700895882311F0FA0101C042
:10575000FB01099508959091D003937059F08093BF
:10576000D1036093D2034093D30380913D04282B4F
:1057700020933D040895E0EDF3E0438120E1421BD6
:1057800008F440E0818121E0628190E00E94AB2B2F
:105790000895E0EDF3E0438120E1420F08F44FEF7C
:1057A000818121E0628190E00E94AB2B0895E0EDC1
:1057B000F3E0628120E1621B08F460E0818121E076
:1057C000438190E00E94AB2B0895E0EDF3E062810D
:1057D00020E1620F08F46FEF818121E0438190E0C6
:1057E0000E94AB2B0895E0EDF3E0818190E021E091
:1057F0004381628108970E94AB2B0895E0EDF3E0AE
:10580000818190E021E04381628108960E94AB2B68
:1058100008959091D0039370A1F0811102C094601B
:1058200007C0813210F0906803C0880F880F982B52
:105830009093D0031092160180913D04682B6093E1
:105840003D0408958091D00386958695815009F492
:1058500080E261E00E94092C08958091D003869532
:1058600086958F5F813208F081E061E00E94092C0B
:1058700008958F929F92AF92BF92CF92DF92EF9254
:10588000FF92CF93DF93EC01688179818A819B81BC
:10589000611571058105910521F464E279ED8BE5CF
:1058A00097E02DE133EF41E050E00E94E72C490101
:1058B0005A019B01AC01A7EAB1E40E94062D6B01DD
:1058C0007C01ACEEB4EFA50194010E94142DDC0123
:1058D000CB018C0D9D1DAE1DBF1DB7FF03C00197F1
:1058E000A109B04888839983AA83BB839F77DF91FE
:1058F000CF91FF90EF90DF90CF90BF90AF909F90AF
:105900008F9008950E94392C089580E091E00E94C4
:10591000392C0895A0E0B0E080930001909301013C
:10592000A0930201B09303010895DC01CB01FC01B7
:10593000F999FECF06C0F2BDE1BDF89A319600B4E8
:105940000D9241505040B8F70895F999FECF92BD9D
:1059500081BDF89A992780B50895A8E1B0E042E0AA
:1059600050E00C94972CDC01A40FB51F415050401F
:1059700048F0CB01840F951F2E910E94C42C4150FA
:105980005040D0F70895262FF999FECF92BD81BDE2
:10599000F89A019700B4021639F01FBA20BD0FB66D
:1059A000F894FA9AF99A0FBE08950396272F0E9449
:1059B000C42C0E94C32C252F0E94C42C242F0C948D
:1059C000C42C0196272F0E94C42C0C94C32C052EA6
:1059D00097FB1EF400940E94FE2C57FD07D00E94F6
:1059E000192D07FC03D04EF40C94FE2C50954095D5
:1059F000309521953F4F4F4F5F4F0895909580957B
:105A0000709561957F4F8F4F9F4F08950E943B2D5A
:105A1000A59F900DB49F900DA49F800D911D112402
:105A20000895B7FF0C94062D0E94062D821B930B40
:105A30000895A1E21A2EAA1BBB1BFD010DC0AA1FCF
:105A4000BB1FEE1FFF1FA217B307E407F50720F0E7
:105A5000A21BB30BE40BF50B661F771F881F991F62
:105A60001A9469F760957095809590959B01AC01AB
:105A7000BD01CF010895A29FB001B39FC001A39FB4
:105A8000700D811D1124911DB29F700D811D112477
:105A9000911D0895AA1BBB1B51E107C0AA1FBB1F84
:105AA000A617B70710F0A61BB70B881F991F5A95AA
:105AB000A9F780959095BC01CD01089597FB072E1D
:105AC00016F4009407D077FD09D00E944A2D07FCF8
:105AD00005D03EF4909581959F4F089570956195FE
