:10000000F8C300002EC400002CC400002AC4000065
:1000100028C4000026C4000024C4000022C400003C
:1000200020C400001EC400000C94402D0C940C2E23
:100030000C94112816C4000014C4000012C400005F
:1000400010C400000EC400000CC400000AC400006C
:1000500008C400000C948A2804C4000002C40000F4
:1000600000C40000FEC30000FCC30000FAC300008F
:10007000F8C30000F6C30000F4C30000F2C30000A0
:10008000F0C30000EEC30000ECC30000EAC30000B0
:10009000E8C30000E6C30000E4C30000E2C30000C0
:1000A000E0C30000DEC30000DCC300005D006000B0
:1000B0003F00200041003D002E00420053000A0096
:1000C00006003E002C00040009002F003900150036
:1000D0003700330024000C001D003C0013005C00BE
:1000E00058004000430017003A001E001F004F0058
:1000F00021520000000000000000620059002A00A8
:1001000036003B0008001A0011000000E300000068
:10011000000000000000310019001C003800000041
:100120004500500000000000E400000000005700FF
:100130005400280007000F00300034001800610050
:100140000000E000000000005F00560012002500E3
:10015000000027002D0051005E0000000000E600B6
:1001600000006300550016004C000B000D000E004F
:1001700021005B0000000000E20000004E004B0088
:1001800023002B0010002600290052005A00000016
:1001900000000000E50000004A00140005001B00FC
:1001A0004400220035000000000000000000E100D3
:1001B00001000100297801002778237801002878C0
:1001C000010001000100247801000100010001008C
:1001D000010001000100010001000100010026787A
:1001E0000100010001002A780100010020780100CF
:1001F00001000100010000000000000000000100FB
:10020000010001000100257801000100010000004B
:1002100001000000000000000000010001000100DA
:1002200001000000010001000000000001000000CA
:1002300000000100010001000100010001000100B7
:1002400001000100000001000000000001000100A9
:100250000100010000000100010001000100000098
:100260000000010000000100010001000100010088
:100270000100010001000100000000000100000079
:1002800001000100010001000100010021780100CE
:10029000010000000000000001000000010001005A
:1002A0000100010001000100010000000000000049
:1002B0000000010001000100010001000100010037
:1002C0000100010001000100010001000100010026
:1002D0000100010001000100010001000100010016
:1002E0000100010001000100010001000100010006
:1002F00001000100010001000100000000000000F9
:1003000000000100010001000100010001000100E6
:1003100001000000010000000000000000000100DA
:1003200001000100010000000100010000000000C8
:1003300001000000000001000100010001000100B7
:1003400001000100010001000000010000000000A8
:100350000100010001000100000001000100010096
:100360000100000000000100000001000100010088
:100370000100010001000100010001000000000077
:100380000100000001000100010001000100010066
:100390000100010001000000000000000100000059
:1003A0000100010001000100010001000100000046
:1003B00000000000000001001E0F0500047F3F1F29
:1003C000643214643214783C1E1E140A052223255C
:1003D0002628292A2C2D2F3032333536383A3B3D0A
:1003E0003E4042434547494A4C4E50515355575958
:1003F0005A5C5E6062646668696B6D6F7173757775
:10040000797B7D7F81838587898A8C8E9092949673
:10041000989A9C9E9FA1A3A5A7A8AAACAEAFB1B382
:10042000B4B6B8B9BBBCBEBFC1C2C3C5C6C7C9CAD2
:10043000CBCCCDCED0D1D2D2D3D4D5D6D7D7D8D994
:10044000D9DADADBDBDBDCDCDCDCDCDDDDDDDDDCF2
:10045000DCDCDCDCDBDBDBDADAD9D9D8D7D7D6D504
:10046000D4D3D2D2D1D0CECDCCCBCAC9C7C6C5C3C6
:10047000C2C1BFBEBCBBB9B8B6B4B3B1AFAEACAA13
:10048000A8A7A5A3A19F9E9C9A98969492908E8CC3
:100490008A89878583817F7D7B79777573716F6D9D
:1004A0006B6968666462605E5C5A59575553515077
:1004B0004E4C4A4947454342403E3D3B3A3836352B
:1004C0003332302F2D2C2A292826252322FFAA7FDC
:1004D0005540000101010101010101010202020276
:1004E00002020202020303030303030303040404DE
:1004F00004040404050505050506060606060707A7
:1005000007070708080808090909090A0A0A0B0B5E
:100510000B0C0C0C0D0D0D0E0E0E0F0F0F101011FD
:100520001111121213131414151516161717181883
:1005300019191A1A1B1B1C1D1D1E1E1F20202122EB
:1005400022232424252626272829292A2B2C2D2D31
:100550002E2F30313232333435363738393A3B3C4E
:100560003D3E3F404142434445464748494A4C4D41
:100570004E4F50515354555658595A5B5D5E5F610A
:100580006264656668696B6C6D6F7072737577789D
:100590007A7B7D7E8082838587888A8C8E8F9193FB
:1005A0009596989A9C9EA0A2A3A5A7A9ABADAFB122
:1005B000B3B5B7BABCBEC0C2C4C6C9CBCDCFD1D407
:1005C000D6D8DBDDDFE2E4E7E9EBEEF0F3F5F8FAAD
:1005D000FDFF00000000000000002A2B28000000A2
:1005E00000000000000000000000000000290000E2
:1005F00000002C1E3420212224342627252E362DBF
:100600003738271E1F202122232425263333362E58
:1006100037381F0405060708090A0B0C0D0E0F10CA
:100620001112131415161718191A1B1C1D2F31300F
:10063000232D350405060708090A0B0C0D0E0F10B3
:100640001112131415161718191A1B1C1D2F3130EF
:10065000354C000000000000000000000000000019
:10066000000000000000000000000000000000008A
:100670000000000000007E0F00D4FFFFFFC7000055
:1006800000780803390038003000000012034B00E6
:100690006100620065005F0044006F006E000000B2
:1006A0000403090409025B00030100A0FA09040025
:1006B000000103010100092111010001224400078A
:1006C000058103080001090401000203000000097C
:1006D00021110100012222000705820320000107E9
:1006E00005030320000109040200010300000009C2
:1006F0002111010001227B00070584032000011263
:1007000001000200000008444B38390100010200DA
:10071000010660FF0961A1010962150026FF00952D
:1007200020750881020963150026FF0095207508D1
:100730009102C005010902A10185020901A100057C
:10074000091901290815002501950875018102057F
:1007500001093009311581257F9502750881060947
:10076000381581257F950175088106050C0A380228
:100770001581257F950175088106C0C00501098096
:10078000A101850319012AB700150126B7009501BB
:1007900075108100C0050C0901A101850419012A09
:1007A000A002150126A002950175108100C0050167
:1007B0000906A101050719E029E71500250195089B
:1007C000750181029501750881010507190029FF4E
:1007D000150026FF009506750881000508190129F6
:1007E0000515002501950575019102950175039187
:1007F00001C011241FBECFEFDAE0DEBFCDBF04B6CB
:1008000003FE18C08091C6039091C703A091C8034E
:10081000B091C9038730904BA740B04B59F4109268
:10082000C6031092C7031092C8031092C903E0E0F8
:10083000F8E3099512E0A0E0B1E0E8E2F3E602C0D7
:1008400005900D92A030B107D9F723E0A0E0B2E007
:1008500001C01D92A63CB207E1F70E94B1130C94AF
:100860009231CECB8330B8F46A30A8F44D3098F48E
:10087000E42FF0E09DE0699FE00DF11D112492E866
:10088000899FE00DF11D1124EE0FFF1FE455FF4F6E
:1008900085919491089581E090E008959C013A95A6
:1008A00021153F4150F5FC01EE27F170BC01662790
:1008B0007270AC01442754709C012227387094FF59
:1008C0000EC080E0EF2B09F080E1672B09F0806219
:1008D000452B09F08064232B89F08068089581E01E
:1008E000EF2B09F480E0672B09F08260452B09F0BB
:1008F0008460232B19F08860089580E00895CF93D9
:10090000DF93EB01CBDFFE010995DF91CF910895D5
:10091000CF93DF93EC01805E9109089720F06EED94
:1009200078E0209711F464ED76E0CE01E8DF8C2FBB
:10093000ACD1DF91CF910895CF93DF93EC01EAD151
:10094000CE01805E9109089720F063EE78E0209751
:1009500011F469ED76E0CE01D2DFDF91CF910895F9
:100960000F931F93CF93DF938C01EB01D1DF20977F
:1009700039F4C801E1DFDF91CF911F910F91089504
:100980008FE99FE00197F1F700C000002197EFCFBA
:1009900070E060E08933910511F460E570E0E0CF2C
:1009A00081E00895FDCF0895FBCF0895F9CF089514
:1009B000F7CF0895FDCF089508950895FDCF0895C8
:1009C00008950895A6E0B0E0E8EEF4E00C9451300C
:1009D00049835A839E833091070289819A8131111C
:1009E00017C03E81332389F0222379F00AD5182FCE
:1009F000682F89819A81E4D469817A81812F0E944C
:100A00003A102696E3E00C946D30EBD4182FF4CF17
:100A1000F8D469817A81F3CFFC01262F408151817E
:100A20006281738184819581CDCFCF93DF93EC0177
:100A300061E0F2DFBE01B6DF882349F061E0CE015C
:100A4000EBDFBE01B1DF8170DF91CF91089580E0CF
:100A5000FACF0F931F93CF93DF93EC0160E0DCDFBD
:100A60008C01BE01AADFBE01C801A8DFDF91CF91D2
:100A70001F910F9108950F931F93CF93DF93EC0174
:100A800061E0CADF8C018D8181110E94591ABE017B
:100A9000C8018CDF811106C080E0DF91CF911F91EA
:100AA0000F910895BE01C80185DF8823A9F3BE0117
:100AB000C8010E94B324882379F3BE01C8010E94B3
:100AC0006C1A882349F3BE01C8010E94D8238823E9
:100AD00019F3BE01C8010E94E21E8823E9F2BE019B
:100AE000C8010E94B81E8823B9F2BE01C8010E9445
:100AF000C913882389F2BE01C8010E9422248823D9
:100B000059F2BE01C8010E943C11882329F2BE019E
:100B1000C8010E944E11882309F4BECFBE01C8014E
:100B20000E946711BACF91E001C0990F8A95EAF748
:100B3000892FA4C3CF93C82F81E00C2E01C0880F4A
:100B40000A94EAF70E94370E8C2FEDDFCF910895BB
:100B500081E00895FDCF0895FBCF0895CF93C82F6E
:100B600048D38C2FF7DF8C2FF7DF2FEF84E39CE047
:100B7000215080409040E1F700C00000CF910895DF
:100B800081E0ECDF0C94B02880E0E8DF0C94D428FE
:100B900017DF0E94E8271EC01FD013DF0C94EC273C
:100BA00081E0089581FD02C0769A089576980895AF
:100BB000CF93DF93D82FF4DFC82F882311F08D2F28
:100BC000F1DF8C2FDF91CF9108956E9A769A089578
:100BD000EFCF089580E0FCCF0E947026F9CFCF932D
:100BE0000E947026C82F809102028C1771F0C0936A
:100BF00002020E947E286093030270930402809395
:100C00000502909306028C2FE3DFCF910895ADE0AB
:100C1000B0E0EDE0F6E00C945230488759876A87DF
:100C20007B878C879D87911131D71F8286E0FE01DB
:100C30003896DE01119601900D928A95E1F78D812B
:100C400081110CC029813A814B815C816D817E814B
:100C50008F8167D62D96E2E00C946E30CE0101961E
:100C6000E4DE8111EFCFF6CFFC012481213019F4AD
:100C700080819181F2C30895662321F00E9464204F
:100C80000C9432210E94B620FBCFCF93882391F0A1
:100C9000C82F8CEF8C0F813A78F48C2F0E940A2792
:100CA000882321F08C2F0E944B2758D78C2F0E942D
:100CB000452754D7CF91089580E28C0F883040F4B7
:100CC000C77081E001C0880FCA95EAF7BDD6F1CFA1
:100CD000EBE5EC0FE33040F4F0E0E659FE4F8081A5
:100CE00090E00E94A026E6CFE8E5EC0FEB3150F44F
:100CF000F0E0EE0FFF1FEC5CFE4F808191810E94BF
:100D0000C726D8CF83E38C0F8331A0F661E08C2F08
:100D1000B3DFD0CF882351F19CEF980F913A18F4AC
:100D20000E944B271BC790E2980F983048F48770B9
:100D300091E001C0990F8A95EAF7892F8BD6F2CFFF
:100D40009BE5980F933020F490E080E00C94A0266F
:100D500098E5980F9B3120F490E080E00C94C72632
:100D600093E3980F933110F460E086CF08951F93BA
:100D7000CF93DF93182FEB0188DF209731F4812F79
:100D8000C9DFDF91CF911F9108958FE99FE001970F
:100D9000F1F700C000002197F0CF70E060E08933E8
:100DA00011F460E570E0E3CF882311F04DD6D6C68C
:100DB0000895882311F04ED6D1C60895B0E0A0E082
:100DC000E4EEF6E00C944C306C01D62FC72FFC01FA
:100DD0001581068102950F702DD6E82E8823E9F043
:100DE000E12E1123D1F08C2F807F803461F080E2DE
:100DF0008D0F883060F18C2F807E803221F4D230CC
:100E000030F1002321F18091450382FF20C082E070
:100E1000C1D610D691E0E82EE926FC2EF2949FE090
:100E2000F922FBE0FF1508F43CC0EF2DF0E0E55E91
:100E3000F84F0C940A302907290760076007B907A3
:100E4000DA0751075107DE0741084E084E08E12C2A
:100E5000E4CF0C2F0F70C07F11F00295007F11239B
:100E600081F0002349F080E28D0F883010F0D1111D
:100E700005C0802FE9D572D68D2F41C0802FF8D5BF
:100E8000FACF8D2F47DF002361F080E28D0F88308D
:100E900010F0D11103C0802FDDD502C0802FEED518
:100EA0005DD6EE2009F4B3C0C1D580FDB0C0F60117
:100EB0001582B6D505D2C60163D1B2D50BD2A7C073
:100EC0002C2F2F70F22EC07FC03219F0F29480EFD9
:100ED000F822DD2341F0D13081F1112309F439C02A
:100EE0000023C9F0C9CF8091450382FD10C01123B2
:100EF00041F0FF2019F08F2DA7D530D680E0C5DE58
:100F0000D0CF80E007DFFF2061F28F2DC5CF112306
:100F100059F0011103C08F2D47DFC3CF013009F015
:100F2000C0CF8F2DC7D5BDCF0111BBCF8F2D41DFD6
:100F30008F2DCBD58F2DB0D5B4CF112321F0063016
:100F400008F0AFCFE8CF053008F0ABCF8F2D31DF01
:100F5000A8CF0023D9F3D93349F48FEF97EEE3E01C
:100F600081509040E040E1F700C000008D2FD2DEBC
:100F700098CF8C2F86958695837041F0813081F0D3
:100F800088EF8F0D843008F08CCF3EC08D2F9C2FC2
:100F90009370111102C080E090E00E94A02681CFE2
:100FA0008D2F9C2F9370111102C080E090E00E9461
:100FB000C72677CF612F8D2F5FDE73CF8C2F837085
:100FC00089F5111121C04D2F429546954770440F68
:100FD000440F8D2F8F70042E01C0880F0A94EAF7FA
:100FE00020E0D4FF07C02FE030E001C0220F4A9577
:100FF000EAF72095822BC695C695C370C23071F072
:1010000078F4C13049F040D10E947026E1DDCDB7BF
:10101000DEB7E8E00C94683033D1F6CF39D1F4CFA5
:101020002DD1F2CF8695112311F08C2F817088235A
:1010300059F34D2F429546954770440F440F8D2F1D
:101040008F70042E01C0880F0A94EAF720E0D4FFC5
:1010500007C02FE030E001C0220F4A95EAF7209543
:10106000822BC695C695C370C23039F040F4C130AA
:1010700011F049D1C9CF43D1C7CF49D1C5CF12D182
:10108000C3CFCF70112329F08C2F1AD18D2F8CDE76
:10109000BBCF8D2F8EDE8C2F1DD1B6CFD23F49F125
:1010A00068F4D03FC9F0D13F89F0112309F441C061
:1010B000002309F43BC08D2FE8DD62CFD33FF9F068
:1010C000D43F99F78091450382FD21C08C2F8F7109
:1010D000112399F0F5D054CF112339F0053008F0E1
:1010E0004FCF8C2F8F7101D14BCF063008F048CFF6
:1010F000F8CF8C2F8F71112369F3ECD041CF1123DE
:1011000021F08C2F8F71D5D03BCFD1D039CF112387
:1011100029F063E08C2F8F7126D532CF81E03AD54C
:10112000023008F42DCF82E035D52ACF8C2F8F7175
:10113000D1CF002371F0D93349F4FFEF27EE83E0DC
:10114000F15020408040E1F700C000008D2FE2DD2B
:1011500017CF8C2F8F71D1CF0F931F93CF93DF9326
:10116000EC01688179818D8181D18C01D4D085D0C9
:10117000B801CE0123DEDF91CF911F910F91089529
:10118000CF93DF93FC012481222381F0EC0173DCF7
:1011900081110FC04FD4882349F08D81882331F00D
:1011A0008091450382FF02C082E0F4D4DF91CF91A9
:1011B0000895CE01D1DFCE014CDCF8CF882311F0A9
:1011C00057D4CCC40895882311F058D4C7C40895C7
:1011D00090E080E00E94A02690E080E00E94C72678
:1011E00055D4BCD40E944E210C9432210E94512728
:1011F000EFCF3BD4FBCF92959F70963089F050F49F
:101200009250923058F4803F19F030F4883E30F418
:1012100081E008959A50F5CF843FD1F380E008959E
:10122000883EB0F3813FD1F7F3CFFC012481222324
:1012300021F08081918111D1DECF80E00895A6E078
:10124000B0E0E5E2F9E00C9452302696E2E00C942E
:101250006E30A7E0B0E0EFE2F9E00C945230279650
:10126000E2E00C946E300895FECF0895FDCF08950E
:10127000FADFFCDF80933C0208950895F9CF0895CA
:1012800090913C02892BF4CF90913C028923F0CFBE
:1012900090913C028927ECCFE6CF0895FDCF0895C9
:1012A000E2CF0895FDDFFADF80933B02089580E0EE
:1012B000F9CF91E001C0990F8A95EAF7892FF2CF13
:1012C00021E030E001C0220F8A95EAF780913B02CD
:1012D000822BE8CF21E030E001C0220F8A95EAF7A7
:1012E000209580913B028223DDCF21E030E001C0D8
:1012F000220F8A95EAF780913B028227D3CF909103
:101300003B02892BCFCF90913B028923CBCF909189
:101310003B028927C7CF0895262F277091E001C08F
:10132000990F2A95EAF723E0769567952A95E1F7D4
:10133000FB01EE0FFF1FE60FF71FE40FF51F50E054
:1013400040E0682F70E08191DF0111979B01042E2E
:1013500002C0369527950A94E2F721702195282737
:10136000292328272C934F5F5F4F4330510559F7AE
:101370000895A82FA77023E0969587952A95E1F701
:10138000FC01EE0FFF1FE80FF91FE60FF71F50E0FB
:1013900040E080E0219130E00A2E02C0369527958A
:1013A0000A94E2F721703327042E01C0220F0A9419
:1013B000EAF7822B4F5F5F4F4330510559F708958D
:1013C000282F9A3068F48D3058F4862F622F70E001
:1013D0002DE0929F600D711D112448E052E09CCFDA
:1013E00008959A3060F48D3050F4292F90E068E031
:1013F00072E03DE0239F800D911D1124BACF80E063
:101400000895CF92DF92FF920F931F93CF93DF93B4
:101410006C0100913B0280913C02082BC2E0D0E0BD
:1014200010E0FC2EC8010C2E02C0959587950A94F9
:10143000E2F780FD0CC02197A0F7F12C8F2DDF91F2
:10144000CF911F910F91FF90DF90CF900895B6013B
:101450008C2F1BD6019779F3F1CFCF93DF93EC015B
:10146000D0DFBE0112D6DF91CF9108951F93CF93A5
:10147000DF93EB0190910702992331F0CB01EDDF6F
:10148000DF91CF911F910895882351F0CB01B9DFEF
:10149000182F682FCE0194DFBE01812FF6D5F0CF33
:1014A000CB019FDF182FF8CFE1E0F0E0DF0102C0B1
:1014B000AA0FBB1F6A95E2F7BD01DF0102C0AA0FA8
:1014C000BB1F4A95E2F76A2B01C0EE0F2A95EAF797
:1014D000962F9823961302C08E2B0895E0958E23A5
:1014E0000895242F462F682F80913B02DDDFDACE4E
:1014F0001F93CF93DF93C0913D0217E080913E028E
:101500008C1304C0DF91CF911F910895D0E01C9FF0
:10151000F0011D9FF00D1124E15CFD4F2081318110
:101520004281538164817581868193DE2196C770E3
:10153000E5CF209177023091780240917902509165
:101540007A0260917B0270917C0280917D0281CE53
:10155000CF93DF9380917D02807F09F04BC0809113
:101560007C02882309F446C0E0913D0250913E027E
:10157000C0917802D09177026091790270917A02DD
:1015800047E05E17B9F18E2F90E0E49FF00111243F
:10159000E15CFD4F2481222381F1489FF001499FA6
:1015A000F00D1124DF01A15CBD4F11962C91119714
:1015B0002C1323C02C912D1320C015962C91159718
:1015C00021111BC012962D913C91261B370B283CF4
:1015D000310598F480917D028F70806180937D0247
:1015E000EB5BFD4F80818F708061808387E792E0A5
:1015F000C7DD7EDFDF91CF910895FC013196E77062
:10160000C0CF482F20913D0290913E0257E0291310
:1016100002C080E0089530E0529FF001539FF00D2A
:101620001124E15CFD4F8181681306C0808148135D
:1016300003C085818111EECF2F5F3F4F2770E7CF29
:10164000A4E1B0E0E6E2FBE00C9448308C0186E0D7
:10165000F801DE011F9601900D928A95E1F7F801DD
:101660008481E58097E7A92E92E0B92E90917B02C4
:1016700091111AC08823A9F0EE2089F0C801D5DDA8
:10168000F82E882361F087E0F801D50101900D92D2
:101690008A95E1F7C501E8DA5BDF4BDF59C0C80185
:1016A0006FDDFF24F39454C0C080D180828093808A
:1016B000F0907C022091790230917A02A401421BC1
:1016C000530BFF2009F4E8C0483C510508F09BC0CB
:1016D000882309F43DC09091780280917D02282FE3
:1016E000207F09F055C0D91214C090917702C91219
:1016F00010C0E11047C08F70806180937D0219DFB8
:1017000087E792E03DDD80917D02F8018683F12C30
:101710001FC0E11037C06D2D8C2D73DF6D2D8C2D0A
:1017200070DFE82E8111F3CFCF86D88A8F85988914
:1017300094DE292F22952F70243078F49F70223068
:1017400098F09923A9F0F8019681907F89F4FE2CF6
:101750008F2D6496ECE00C9464302A50223060F0B7
:10176000C8010EDDEF2CF3CF992311F0882379F314
:10177000805E8830A8F7EBCF803F48F3815F8330ED
:1017800078F7E5CF80917D02816080937D02BFCFA5
:10179000D91212C090917702C9120EC0E1100CC08C
:1017A0008683C801EDDC87E0F801A7E7B2E001908D
:1017B0000D928A95E1F771CFC80137DD882309F4CE
:1017C0006ECFEE2009F46BCF80917D02803280F0E5
:1017D0002091770230917802398728879B868A8604
:1017E00090917B029C871D868E87CE010896C8DC6F
:1017F00087E0F801A7E7B2E001900D928A95E1F742
:10180000A7DE97DE4ECF90917D02292F207F89F4AD
:10181000682D9A8A898AA6017A899E2D10DD87E72C
:1018200092E0AEDC87E0F50111928A95E9F781DE5E
:101830006ECF882309F48CCF809178028D110FC070
:1018400080917702C8120BC0E11009C09683C801CD
:1018500097DC87E0F50111928A95E9F779CFC80105
:10186000E4DC882309F41BCFEE2009F418CF809123
:101870007D02803208F4BCCF20917702309178024B
:101880003A8329839C828B8290917B029D831E8266
:101890008F83CE010196ABCF483C5105A8F5882334
:1018A00009F4FFCEFE2CEE2009F4F9CE80917802E7
:1018B0008D111EC080917702C8121AC080917D02DE
:1018C00080FD0DC0982F907F51F08683903F09F4E2
:1018D00068CF982F907F905F8F70892B61CF87E0C2
:1018E000F801A7E7B2E001900D928A95E1F730CFB9
:1018F000C8019BDC81117CCF80917D028160809347
:101900007D02C8013DDC24CF682D9A8A898AA60110
:101910007A899E2D94DC87E0F50111928A95E9F78A
:10192000BCCEAEE0B0E0E7E9FCE00C945130288793
:1019300039874A875B876C877D878E87CE010896BB
:101940007FDE882399F16C85662339F028853985F7
:101950004A855B857D858E857CDC17E080913D0224
:1019600090913E02891709F457C0819FC00111244C
:10197000815C9D4F65DE882309F44EC0E0913D02F5
:101980001E9FF0011124E15CFD4F208131814281D5
:1019900053816481758186815CDC80913D0290E099
:1019A00001968770992780933D02D8CF87E0FE018A
:1019B0003896DE01119601900D928A95E1F78C859B
:1019C000882359F220913E0230E0C90101968770C8
:1019D000992740913D024817190691F097E0929F90
:1019E000D001939FB00D1124A15CBD4FFE01319633
:1019F00001900D929A95E1F780933E0279DDADCF8B
:101A0000F8DB10923E0210923D0287E0E7E7F2E039
:101A1000DF011D928A95E9F72E96E3E00C946D3074
:101A20008091860286958695869508958091860296
:101A30008770089590918602977081E009F480E0A4
:101A4000089580919202089590919202892B80933B
:101A500092020895982F9095809192028923809305
:101A6000920208958093920208951092920208952E
:101A700090919102892B809391020895982F9095CF
:101A8000809191028923809391020895109291028E
:101A900008950895FECF089590918702292F282355
:101AA00029F08095892380938702F4CF08950895C3
:101AB000FECF089590918802292F2823281721F01E
:101AC000982B90938802F4CF089590918802292F43
:101AD000282329F08095892380938802E9CF0895EF
:101AE00080918802882321F01092880280E0E0CF64
:101AF00008950F931F93CF93DF93009104011091EA
:101B00000501C091920280919102C82B80918802B8
:101B1000882329F0C82B0E94FB268111E1DFF80100
:101B2000C083C0910401D091050148E050E06EE708
:101B300072E0CE010E941131892B59F088E0FE013C
:101B4000AEE7B2E001900D928A95E1F7CE010E94D6
:101B50008126DF91CF911F910F910895CACF0895EB
:101B60000895FECF08959091450392FF0EC098E02E
:101B7000899F90011124622B60938602A1DB8091E2
:101B80008602869586958695ECCF9ACB1092860232
:101B900080E0E7CF9091860280958923809386022A
:101BA000282F277059F4891749F09091450392FF27
:101BB00005C08695869586958DDBE8CF0895909132
:101BC000450392FB222720F9281749F080FB92F960
:101BD0009093450384E493E04ED082E0DBCF0895F8
:101BE0008091450382FB882780F991E08927E7CF20
:101BF00081E0E5CF80E0E3CF60E070E0CB013EC460
:101C000060E070E0CB0134D4F7CFA4E0B0E0EBE0CB
:101C1000FEE00C94523075D380D31C82CE01049622
:101C200093D381E080933C0299D31A8219828A81EE
:101C3000846080618A83CE010196A1D3C2D61B82C3
:101C4000CE010396AED30E949C24DADF2496E2E014
:101C50000C946E30DACF089566C3089553D3811182
:101C60000C946224089565C3089574C3089576C3DF
:101C7000089579C3089583C3089588C3089591C3CF
:101C8000089595C30895D4C30895FEC30895A6E0AA
:101C9000B0E0EDE4FEE00C9450300E9472288C011C
:101CA00080919302909194028017910781F019829C
:101CB0001A820E947228682F49815A81792F80E008
:101CC00090E00E94070610939402009393022696D8
:101CD000E4E00C946C300E947E286093AD02709317
:101CE000AE028093AF029093B0026093A90270930A
:101CF000AA028093AB029093AC02089508950895D0
:101D0000FDCF08950895FEDFFBCF0895FECF08951F
:101D10000895FEDFFBCF8AE391E136D5F0DFF3CF04
:101D200081E00895FDCF0895FBCF089508950895AB
:101D30000895FCDFFCDFFCCF91DF811101C08ADF59
:101D400081EB92E090DF84E493E093DF0E94391C02
:101D50008CDF94DA80913B02A1CA0E9469280E941C
:101D6000A8245ED4E9DF0E94E5050E94BD1A0E9406
:101D70008819CFCFA6E0B0E0E0ECFEE00C9446304E
:101D8000D1DF81110BC083DF0E945A1A0E9470219B
:101D90000E94EF052696EEE00C94623053D425E9BC
:101DA000822E22E0922E640110E0F601E190F19083
:101DB0006F01812F74D31F5F1A3009F447C0E816F2
:101DC000F90699F38091B10281FD72D3ADDF782ECF
:101DD00010E066246394812F62D37C01F401A1900A
:101DE000B1904F018A159B0561F100E0CC24C394AA
:101DF000D12CAE24BF24C5018C219D21892BC1F09B
:101E00007720B1F009831A830E9472289C838B8308
:101E10006D8221E0C7018C219D21892B09F420E0EE
:101E200049815A816B817C818D81922F0E940706A6
:101E30000F5FCC0CDD1C0D30F1F6F4013297F1820E
:101E4000E0821F5F1A3039F646DF9ECFE816F906AA
:101E500009F499CFB7CF1F93CF93DF9318D1EC013B
:101E6000C11580E5D807E8F5C11580E4D80708F06A
:101E700099C0C03ED10518F5CD3CD10508F081C010
:101E8000C83AD10570F4C53AD10508F072C0C13026
:101E9000D10511F118F0C430D105F0F4D0E0C0E064
:101EA0001BC0C33CD105D0F7C85AD0E0CC0FDD1F12
:101EB000C359DE4F0990D881C02DD4640DC0C1151F
:101EC00080E2D80708F0C7C0C11581E0D80708F044
:101ED0005AC0C83ED10510F7CE01DF91CF911F91B6
:101EE0000895C03682E5D80718F5C03482E5D807D2
:101EF00008F066C0C03282E5D80708F05AC0C115A4
:101F000082E5D80708F48FC02C2F2695269580E20D
:101F1000289F900111248C2F8370C1E0D0E002C073
:101F2000CC0FDD1F8A95E2F7C22BD32BDD68D4CF0F
:101F3000C03A82E5D80760F4C03882E5D80708F4D3
:101F400054C0CF71D0E0DC2FCC27C46FD06AC4CF8F
:101F5000C03C82E5D80708F45BC0C03E82E5D807E4
:101F600008F09CCFDC2FCC27CC27DF71C06FD06A64
:101F7000B3CFC55AD0E0CD55DE4FC881D0E0D06494
:101F8000ABCFD065A9CF8D2F26D1182FCE019927A1
:101F90007ED0C12FD0E0DC2FCC27CC27DF71C82B1F
:101FA000D92B9ACFCE01992772D0CC27DF70D06A77
:101FB000F6CFCF71D0E0DC2FCC27C16FD06A8CCFA9
:101FC0002C2F26952695277080E2289F90011124BA
:101FD0008C2F8370C1E0D0E002C0CC0FDD1F8A954A
:101FE000E2F7DC68C22BD32B77CF2C2F26952695D2
:101FF000277080E2289F900111248C2F8370C1E00C
:10200000D0E002C0CC0FDD1F8A95E2F7DA68EACF94
:102010008C2F8F71E0D0C82FD0E0DC2FCC27CC27BD
:10202000DF71D06259CF8C2F8F71D5D055E0D69506
:10203000C7955A95E1F7CF70D0E0DC2FCC27282F39
:1020400030E084FF06C044E0220F331F4A95E1F7D9
:102050003327D069C7CF8D2F8F71BDD0182FCE01F8
:10206000992715D0C12FD0E0DC2FCC27CC27DF71EA
:10207000906295CF7A3030F46D3020F4462F672F80
:102080000C94A11C90E080E00895F4DFE4CE823847
:102090009105B9F1B0F48133910509F47DC048F49C
:1020A0008932910509F46DC08A32910509F479C02D
:1020B00008958533910509F45FC08933910509F1CD
:1020C0000895833E9105D9F138F4803E910529F1B8
:1020D000823E910579F10895863E9105D9F1873EBA
:1020E000910509F43EC0843E910541F520914503D8
:1020F00021FF24C08091440384FD19C087EE90E045
:10210000089520914403237009F056C0209145039F
:1021100023FF14C089E290E008952091440320FD3C
:1021200038C03091450330FF09C024FF3FC090E024
:1021300080E008952091440322FDF7CF0895209177
:10214000440322FD36C03091450330FD35C024FDE7
:10215000EECFF4CF2091440323FFF0CF24FDE7CF4F
:10216000CDCF2091440323FD2AC03091450331FF98
:10217000EECF84EE90E008952091440325FDCACF70
:1021800008952091440325FD1DC02091450323FFA0
:10219000D5CF89E390E008952091440326FD15C032
:1021A00008952091440326FD13C0089583EE90E026
:1021B000089582EE90E0089580EE90E0089586EE16
:1021C00090E0089585E390E008958AE290E0089514
:1021D00081E390E0B3CF9091440392FF10C041E0BF
:1021E000282F2471243009F040E031E0282F287195
:1021F000283009F030E0431711F02CE0822793FFDC
:1022000010C041E0282F2471243109F040E031E072
:10221000282F2871283109F030E0431711F02CE005
:1022200082273091450330FF10C051E0282F2171E3
:10223000213009F050E041E0282F2871283009F0C2
:1022400040E0541711F029E0822731FF10C041E02F
:10225000282F2171213109F040E031E0282F287129
:10226000283109F030E0431711F029E0822794FD6E
:10227000877E089580E00895CF939C01205E3245CB
:10228000C1E02032310538F4FB01C581C11103C022
:102290008F710E949A058C2FCF9108959C01FB01AC
:1022A0008581882391F02B35FCE73F0761F02C35C1
:1022B0009CE7390729F02A353C4741F499DC01C0F5
:1022C0008FDC80E0089596DCFCCF81E008959C01CE
:1022D000FB018581882399F02130FCE73F0761F0FD
:1022E00023309CE7390739F021153C4749F40E9417
:1022F000C00580E00895B0DC0E94C405FACF81E0FB
:102300000895089590E080E00E94343121E0833EFA
:102310009E4F09F020E0822F089563EE7EEF90E05B
:1023200080E00C9462316FEF7FEF90E080E00C94DE
:102330006231CF93DF93EC0182E090E00E9427317D
:102340008883DF91CF910895FC01608182E090E065
:102350000C94483183E090E00C942731682F83E09F
:1023600090E00C944831CF93DF93EC0184E090E04F
:102370000E94343199838883DF91CF910895FC01C5
:102380006081718184E090E00C946231CF93DF939F
:10239000EC018CE090E00E9427318883DF91CF919F
:1023A0000895FC0160818CE090E00C9448314F92DC
:1023B0005F926F927F928F929F92AF92BF920F9394
:1023C000CF93DF93EC0188E090E00E942F312B0146
:1023D0003C01688359828A837B821C821D821E8213
:1023E0001F8283E290E00E942731282F30E040E0F6
:1023F00050E060E070E080E090E000E20E94793020
:102400002429352946295729288339834A835B8320
:102410006C837D838E839F83DF91CF910F91BF90DB
:10242000AF909F908F907F906F905F904F900895A6
:102430000F93CF93DF93EC01488159816A817B81AF
:1024400088E090E00E945A31288139814A815B817D
:102450006C817D818E819F8100E20E949430622F89
:1024600083E290E00E944831DF91CF910F9108956F
:10247000AB01BC018FE090E00C945A31AB01BC0180
:1024800083E190E00C945A31682F8EE090E00C9438
:1024900048310895FECF08950895FECF0895E82F9E
:1024A000F0E0EE0FFF1FE65AFC4F80819181089506
:1024B000089580EA8A95F1F7089500C00895F9CF4C
:1024C0000895F894E82FE295EF70F0E031A1282FFD
:1024D0002F7081E090E001C0880F2A95EAF7982FCD
:1024E0009095932391A392A1892B82A37894089528
:1024F0000F931F93CF93DF93C6EAD1E089918F3F6B
:1025000009F0DFDF81E0C33BD807C1F7C3EBD1E0BF
:102510000DEB11E089918F3F09F0D3DF0C171D07F8
:10252000C9F7DF91CF911F910F9108958F929F92DC
:10253000BF92CF92DF92EF92FF920F931F93CF93B0
:10254000DF93C62FD0E0CA55DE4F28812F3F09F414
:1025500055C08A01F62EE92ED82EF894E22FE29586
:10256000EF70F0E091A1822F8F7021E030E001C088
:10257000220F8A95EAF7892F822B81A382A12095C9
:10258000282322A3789499DF83EB882E81E0982E6C
:10259000ED2DFE2DBF016C5E7F4FE12C6801C094D4
:1025A000D094D401BD904D0181919191AF014250E1
:1025B0005109BFEFBB1671F12B2D22952F7030E022
:1025C000D90190962C9130E0BB2DBF7002C035959B
:1025D0002795BA95E2F720FD1DC0802B912BDA01DB
:1025E0008D939C93EE24E3946E177F07D1F6888138
:1025F0008F3F09F066DF6E2D8F2D61DFDF91CF9168
:102600001F910F91FF90EF90DF90CF90BF909F9020
:102610008F9008958C219D21DA018D939C93E4CFB6
:1026200067DF84E1EAE5F3E0DF01982F1D929A95D8
:10263000E9F7E6E4F3E0DF011D928A95E9F78AE025
:1026400052D028CFCF92DF92FF920F931F93CF9358
:10265000DF93CDB7DEB764970FB6F894DEBF0FBE39
:10266000CDBF8E010F5F1F4F84E1F80111928A9553
:10267000E9F7F12CCC24C394D12CA6016F2DC8010D
:1026800055DFF394CC0CDD1CFDE0FF12F6CF44E1E6
:1026900050E0B80186E493E00E94113121E00097F8
:1026A00009F420E0892B41F084E1F801A6E4B3E0CD
:1026B00001900D928A95E1F74AE06AE573E086E4BD
:1026C00093E012D0182FE9DE812F64960FB6F894AC
:1026D000DEBF0FBECDBFDF91CF911F910F91FF9055
:1026E000DF90CF9008950895B0E0A0E0EAE7F3E12D
:1026F0000C944C306C017B01042FC22F222379F003
:1027000081E08093B4020E9472289093B302809378
:10271000B20280E0CDB7DEB7E8E00C946830D0912B
:10272000B402DD23B1F38091B2029091B3020E9412
:102730000128059770F310E0000F111FA801B601E2
:10274000C7010E941131892B31F0A801B601C701E0
:102750000E941E31CD2F1092B4028C2FDBCF0ACBFA
:1027600008950E940A280E94442AD5DA0E945C2A11
:10277000F4DA0E94652A0E94682AF1DF0E947E2A0C
:102780000E942929D6DAF7CF9093010280930002A4
:1027900008950F931F93CF93FB01C581CC2309F4B8
:1027A00047C08C014ED98272F801E052F847EB30F5
:1027B000F10588F4E252FC4E0C940A30E913F01350
:1027C000F413F813FC130014041408140C1410145C
:1027D000141496D5C0E08C2FCF911F910F910895BE
:1027E000882321F081D5F6CF8823E1F371D5F2CF8C
:1027F000882321F040D2EECF8823E1F331D2EACF13
:10280000882321F052D2E6CF8823E1F341D2E2CFF0
:10281000882321F064D2DECF8823E1F353D2DACFCC
:10282000882321F002D1D6CF8823E1F3EFD0D2CF95
:10283000C1E0D1CFEF92FF920F931F93CF93DF931D
:102840009B01682F31110EC0442329F0E82FF0E0DE
:10285000EE52FB4F6491762F862FCDB7DEB7E6E0C0
:102860000C946A30C32FD0E0E82FF0E0442321F02D
:10287000EE52FB4FE491F0E046E0249FC0011124AA
:102880000FEF10E0B8010E94C12FAB01822F90E042
:10289000880F991F25E5249FB001259F700D1124F5
:1028A000861B970B982F990F980FB8016C1B7D0B07
:1028B0006E9FD0016F9FB00D7E9FB00D11248B2FA6
:1028C000939F90011124232F3327B801621B730BB0
:1028D0006E9F90016F9F300D7E9F300D1124780107
:1028E000E91AF108EC9EB001ED9E700DFC9E700D92
:1028F0001124672F7727061B170B0E9FE0010F9FF0
:10290000D00D1E9FD00D11247D2F9E2F42305105DA
:10291000B1F048F44115510569F04130510561F0BD
:102920007B2F832F07C04430510589F060F046307B
:102930005105B1F7692F91CF7E2F932FFBCF9B2F9E
:102940008D2F7E2FF7CF732F9B2F8E2FF3CF9D2FA1
:102950007B2FFBCF41E06ECF0895FCCF089590917F
:102960000901291B922FE091EA01F091EB01242F3C
:10297000462F682F892F90E009950895CF93DF9314
:10298000762FE901682F842FE8DF962F672F9E01AD
:10299000482F892FE4DFDF91CF91089580916E0356
:1029A000982F9C7F29F48370846080936E03089530
:1029B0008C3AE8F38370886AF8CFF0DF8EE693E014
:1029C00062C9EEE6F3E085E0808311828FEF8283B7
:1029D00083831482CF0157C980916E0380FF03C0A7
:1029E00086958695089580E0089580916E038170A4
:1029F000089590917203933018F49F5F909372033F
:102A0000882319F08EE693E03EC9089581E0F1CF66
:102A100090917203992319F0915090937203882337
:102A200019F08EE693E02FC9089581E0F1CF8091EF
:102A30007203089580937203089580916F0308953F
:102A40008091700308958091710308950F931F93EF
:102A5000CF9380916E03C0910B010091EA01109118
:102A6000EB0180FF15C0E091EE01F091EF010995B7
:102A7000CF911F910F910895809109019C2F981B70
:102A8000892F20E040E060E090E0F8010995CF5FF9
:102A900080910C01C81780F3E6CFEF92FF920F935D
:102AA0001F93CF93DF9390916E0390FF0EC0042F7E
:102AB000162FD82FC0910B01E090EA01F090EB01A6
:102AC00080910C01C81730F0C1DFCDB7DEB7E6E06A
:102AD0000C946A30809109019C2F981B892F202F1C
:102AE000412F6D2F90E0F7010995CF5FE9CF9091CD
:102AF0006E0390FF09C0762F682F842F2EDF962F4C
:102B0000672F482F892FC9CF0895CF93DF93EC010A
:102B1000EC81F0E0E353FC4F4491EEE6F3E0628198
:102B20008181E5DF8C818F5F8C83DF91CF91089568
:102B3000CF93DF93EC01EEE6F3E0438162818C8179
:102B4000D6DF8C818F5F8C83DF91CF910895CF93F7
:102B5000DF93EC01409171039C8180E090FD842F14
:102B600060E091FD642F92FF40E097DF8C8190E060
:102B70000196877099278C83DF91CF910895B0E0FB
:102B8000A0E0E5ECF5E10C944D30D82FF62E042FA3
:102B9000E22E90916E0390FF21C0E92FE695E69515
:102BA000AE2FB0E0A354BE4F8C91809322039C7F44
:102BB0009430C9F46D2F7F2D842FCFDE962F672F91
:102BC000482F892F6ADFD0936F03F0927003009330
:102BD0007103EE2019F08EE693E055D8CDB7DEB73D
:102BE000E7E00C946930823019F400917103EBCF67
:102BF000863019F4D0916F03E6CF8930D9F389314B
:102C000011F7E9518E2F8170D82EE695F0E0E3534D
:102C1000FB4FC49110E060910D01161710F016DF04
:102C2000D2CF1C9FC001112470E00E94C12F8D2FB4
:102C3000D1100BC0860F20910B01210F3327331FBA
:102C4000402F6F2D9BDE1F5FE6CF861BF4CFEEE695
:102C5000F3E09181282F4381628188E0890F8FCF33
:102C600081E0F5CFEEE6F3E09181282F4381628188
:102C700088EF890F84CF81E0F5CFEEE6F3E0628143
:102C800028E0620F08F46FEF282F4381818177CF0E
:102C900081E0F3CFEEE6F3E0628128E0621B08F406
:102CA00060E0282F438181816ACF81E0F3CFEEE697
:102CB000F3E0438128E0420F08F44FEF282F6281B0
:102CC00081815DCF81E0F3CFEEE6F3E0438128E040
:102CD000421B08F440E0282F6281818150CF81E0BF
:102CE000F3CF20E04CCFEF92FF921F93CF93DF936F
:102CF000EC0110E0EE24EA94F12C60910D0116171E
:102D000068F0A4DE9A818C8190FF1DC08F5F8C8358
:102D1000DF91CF911F91FF90EF90089520910B01CB
:102D2000210F3327331F70E0C7010E94D52F962F44
:102D30008C814091710360917003199F800D112463
:102D40001DDE1F5FDACF8150E2CFB0E0A0E0EBEAFA
:102D5000F6E10C944A30FC018281D1E080FDDFEF86
:102D6000C0E00091EA011091EB0124E1A22E8091D4
:102D70000D01C81790F06ADE8091B602D13009F0DB
:102D80004FC0811102C080910D0181508093B60225
:102D9000CDB7DEB7EAE00C94663080910B019091DC
:102DA0000901891B8C0F20E040E060E090E0F80111
:102DB000099594E0E92EF12CB12CCC2ED12C8091E8
:102DC000B6028B0D853134F16A2D0E94B42F892F04
:102DD000082E000C990BC816D906A9F420910B01F6
:102DE0002C0D3D2D311D809171038E9DA0018F9D75
:102DF000500D112455954795559547956091700351
:102E000080916F03BBDDBD0EF1E0EF1AF108B9F65A
:102E1000CF5FADCF87FFDCCF90910D01890FD8CF69
:102E200090E0019660910D0170E00E94D52FAECF29
:102E30000F931F93CF93C0910B010091EA01109162
:102E4000EB0180910C01C81748F1C0E00091EA0144
:102E50001091EB0160910D01C61768F1F7DD20912B
:102E600007018091B502820F8093B502909108010D
:102E7000920F90930801191654F4082E000C990B28
:102E800040910D014150550B841795071CF0219579
:102E900020930701CF911F910F910895809109010F
:102EA0009C2F981B892F20E040E060E090E0F80123
:102EB0000995CF5FC6CFEC2FF0E070E0CF010E9404
:102EC000D52F20910B01820F2091B502022E000C0C
:102ED000330BE217F3079CF020910801022E000C3F
:102EE000330B2E173F075CF0282F30E04091710321
:102EF0006091700380916F0341DDCF5FABCF909104
:102F00000901891B20E040E060E090E0F8010995AC
:102F1000F4CFB0E0A0E0EFE8F7E10C944830EC012A
:102F20004C81042F10E09801D8010E941D309B01B4
:102F3000AC010E9432304B015C01E0E2F0E0E01BAA
:102F4000F10BA5E5B0E0AC019B010E9432306B01B2
:102F50007C019F01DF010E9417309B01AC010E94A0
:102F60003C309B01AC01280D391D4A1D5B1DC7017A
:102F7000B6010E94E82F022F30E00A3250F5C90155
:102F8000880F991F880F991F281B390B37FF02C024
:102F90002F5F3F4F359527951FEF120FF12C85E5D9
:102FA000E82EE01A80910D01F81628F14FDD9C8182
:102FB00081E0992319F0903219F48FEF8093060184
:102FC00080910601890F8C83CDB7DEB7ECE00C94BD
:102FD000643085E590E0821B930B9C01220F331F28
:102FE000220F331F821B930B97FD019695958795B2
:102FF0001FEF180FD3CF8E2DF1FC802F20910B01E6
:103000002F0D3327331F412F60917003B7DCF394EA
:10301000C9CF0F931F93CF93DF938C01D0E0C0E013
:1030200090910D019C171D0609F06CF40FDDF8015D
:10303000848190E00196817099278483DF91CF91FC
:103040001F910F910895F801448120910B012C0FDD
:103050003D2F311D6091700380916F0396959C17F1
:103060001D0641F03CF0442339F04091710386DCA9
:103070002196D6CF4423C9F340E0F9CFB0E0A0E0D9
:10308000E4E4F8E10C944430FC016280448081E087
:103090008483EDECF3E07490ECE4F4E0E491C0910F
:1030A0007103C695C158D0E0CC0FDD1FCD2FDD27B1
:1030B000812C25E0922EAA24AA94B12C55245A944E
:1030C000E719EE2EF12C80910D01881630F0BEDC50
:1030D000CDB7DEB7E0E10C946030C82CD12C82E093
:1030E000861568F09C9CF0019D9CF00D1124E9541C
:1030F000FD4F80916F038083809170038183411025
:103100001BC09C9CF0019D9CF00D1124E954FD4FC7
:103110001382128220910B012C0D3D2D311D9C9CA0
:10312000F0019D9CF00D1124E954FD4F4281618115
:10313000808124DC8394C7CF9C9C80019D9C100DD2
:10314000112409541D4FF80183818823F1F0815027
:103150008383859DC0011124648170E00E94C12F8A
:10316000FB01FF27E353FC4F8491E82FE719E59D0E
:10317000C0011124B7010E94C12F80917103689F83
:10318000B0011124F8017283C5CF0E94F630B50159
:103190000E94D52F8C179D070CF0BCCFF2E0F615DE
:1031A00098F40E94F630B5010E94D52FF801808373
:1031B0000E94F630209170032695622F70E00E94E5
:1031C000D52F280FF80121839C9CF0019D9CF00DC8
:1031D0001124E954FD4F128280917103893C58F00B
:1031E00088EC9C9CF0019D9CF00D1124E954FD4F4E
:1031F000848383838FCF8431A0F784E1F2CFEEE61E
:10320000F3E080818E7F8083CF010E94430E109275
:1032100023031CCCEEE6F3E080818E7F8083109246
:10322000230314CC60916E036695669570E04BE0C5
:1032300050E08EE091E00E940431892B19F481E086
:10324000809323030E94722890931C0380931B0396
:10325000089590916E0390FF25C09370811123C053
:10326000946090936E03662321F08EE693E00E94B3
:10327000430E60916E036695669570E04BE050E0FA
:103280008EE091E00E940431892BA9F01092230373
:1032900081E080931E0340917103609170038091DF
:1032A0006F031FCD08958B3210F0986ADACF880F24
:1032B000880F982BD6CFB6DFEBCF682F90916E0397
:1032C0009695969581E0890F8B3208F081E0C1CF09
:1032D00081E0F3CF682F90916E03969596958FEFCE
:1032E000890F09F48AE2B5CF81E0F4CF61E0B1CF74
:1032F000EEE6F3E080818160808386958695F6CF47
:1033000080916E0380FF01C07ACFF2CF60E0A1CF41
:103310008091210381111FC08EE693E00E94410E2F
:1033200080916E038C7F29F44CDB8EE693E00E9443
:10333000410E34DB10922303E091E801F091E901A2
:10334000099580916E0380FF03C086958695DEDF28
:1033500081E0809321030895EEE6F3E080818160AF
:10336000808386958695D2CF80916E0380FF01C0C1
:1033700051CFF2CF0F931F93CF93DF93809123030D
:103380008823C1F180912203E0916E03E695E695D2
:10339000E81BE0931D03823091F5F0E0E753FC4F0A
:1033A000E491CE2FD0E005E815E180911E0388233B
:1033B00061F010921E030E94722890931C03809368
:1033C0001B031092200310921F030E947228E091A9
:1033D0001B03F0911C038E1B9F0B8F3F9F4750F4E4
:1033E000EC0FFD1FF0931C03E0931B038BE193E0B4
:1033F000F8010995DF91CF911F910F9108958630C3
:1034000049F4F0E0EA53FC4FE491CE2FD0E008E914
:1034100015E1CBCF893051F4E695F0E0ED53FC4F48
:10342000E491CE2FD0E003E716E1BFCF8F3051F407
:10343000E695F0E0E054FC4FE491CE2FD0E005EAB1
:1034400016E1B3CF853149F4F0E0E354FC4FE49149
:10345000CE2FD0E008E117E1A8CFC8E2D0E009E81C
:1034600017E1883109F4A1CF833239F4EBEBF3E0B3
:10347000C591D49107EA15E198CFC4EFD1E009E0F6
:1034800018E1843209F491CFC0EDD7E00CEA14E1E1
:10349000853209F08ACF8E2F63E00E94A82FE92F92
:1034A000F0E0E854FC4FE491CE2FD0E00EE318E1B9
:1034B0007CCF08955FCF08950C94EE260895FB010C
:1034C0002581222339F097FF05C09F77BC0190E04A
:1034D00080E032D181E008950F931F93CF93DF9363
:1034E000EC018B01FB0185818823C1F00E94210D35
:1034F0008272FE01E053FC47E830F10578F4ED57A5
:10350000F54E0C940A308B1A961A9A1A9D1A9F1A25
:10351000A11AA31AA51A882359F043D0B801CE01E5
:10352000CEDFDF91CF911F910F9108958823A9F3EA
:1035300037D0F4CF80E028D0F1CF81E0FCCF82E01B
:10354000FACF83E0F8CF84E0F6CF85E0F4CF909116
:103550007703923069F48A3048F490E009966AE083
:1035600070E00E94D52F875A0C94CD068650FCCF70
:103570000C9469230895FECF089587E793E00E9495
:103580003D0E80917703F7CFCF93C82F80937703B9
:1035900087E793E00E943F0E8C2FEDDFCF910895D7
:1035A000089508950E947F26809376039091770373
:1035B000913029F481FF03C089E30E94CD060E9467
:1035C000210D809378030E94350D0E94460D809155
:1035D0007703823021F158F48823C1F08130D1F093
:1035E0008FE39CE90197F1F700C000000895843053
:1035F00051F18530A9F78BE191E00E94C80485E282
:1036000090E00E94C80488E290E006C082EE0E942A
:103610004506E6CF88E193E00E94C804E1CF80919F
:10362000760380FD03C083E50E94CD0682EE0E94F2
:1036300045068FE39CE90197F1F700C0000087E59C
:103640000E94CD06CDCF86EE0E94CD0688E1F8CF50
:1036500080917703823009F140F4882379F081303A
:1036600089F0809178030C94320D8430F9F0853024
:10367000C1F788E290E00E94C804F3CF82EE0E9476
:103680008A06EFCF8CE20E94CD068091760381FFFF
:10369000E8CF89E30E94CD06E4CF82EE0E948A063D
:1036A0008091760380FDDDCF83E5F4CF88E2F2CF11
:1036B0008F929F92AF92BF92EF92FF920F931F93C0
:1036C000CF93DF934B015C01D09177038CE1E82E1F
:1036D000F12C07E010E021E0D501C4010E2C04C05C
:1036E000B695A795979587950A94D2F7C82FCF706E
:1036F000222331F0D43041F4CA3030F080E027DFAB
:103700008C2F25DF20E005C0C111FACF0430110550
:10371000BCF30150110984E0E81AF1080F3F1007CB
:10372000D9F6DF91CF911F910F91FF90EF90BF904D
:10373000AF909F908F900895CF92DF92EF92FF927B
:103740006115710521E18207910590F561157105FB
:1037500021E08207910520F020917703223041F18A
:103760006B017C011FDFC114D10481E0E806F10484
:1037700020F180917703811120C021E0E21AF10845
:10378000C701B6012AE096958795779567952A95A2
:10379000D1F778528F4F9F4F8BDF83E0D822EE24F2
:1037A000FF24C701B60174528F4F9F4F81DF50DF56
:1037B000FF90EF90DF90CF900895C701B601F6CF4C
:1037C000279A0895FC01EE0FFF1FE80FF91FE75835
:1037D000FC4F6183408322830895E9E7F3E081830E
:1037E00060834283339693E0E53BF907C1F7089580
:1037F00085B18F7795B190682FB7F894E9E7F3E03A
:1038000033E0E53BF30741F42FBF8FE594E00197E8
:10381000F1F700C000000895319148E095B900002B
:1038200000C037FF85B9330F000000C000C000C0E2
:1038300085B900C04A9591F7E3CF0C942C0E0895FA
:1038400080E00E944F12817008950E9422132FEF92
:1038500086E791E0215080409040E1F700C00000F1
:103860000E942213EDDF882319F0E7DF0C94B028C3
:103870000895EBCF0895A1E0B0E0E1E4FCE10C9401
:103880004E307C01FC0160817181828193818E01C7
:103890000F5F1F4F21E030E040E050E0A4D189816C
:1038A000F70140815181628173814F5F5F4F6F4F9C
:1038B0007F4F40835183628373832196E6E00C94AB
:1038C0006A3083E00895CDC00895FEC008951F9327
:1038D000CF93DF93C4D0D0E0C0E010C0412F6C2F55
:1038E0008D2F0E9432049C01412F6C2F8D2FECD024
:1038F0001F5F1D3099F7CF5FCA3011F010E0EECF97
:10390000DF5FD33049F7DF91CF911F9108950F9377
:103910001F938A019B0150E040E0BC0190E080E0F1
:10392000FED01F910F9108950F931F938A019B0161
:1039300050E040E0BC0190E080E01FD11F910F916A
:103940000895833028F46A3018F44D3008F489C0A3
:1039500090E080E0089580E1089540D1CB01089582
:103960000F931F938A019B0150E040E0BC0190E05F
:1039700080E039D11F910F9108950F931F938A0111
:103980009B0150E040E0BC0190E080E072D11F91CB
:103990000F91089565D0B1C14F925F926F927F925F
:1039A000BF92CF92DF92EF92FF920F931F93CF932C
:1039B000DF9300D000D0CDB7DEB7B82E8FE08B15E7
:1039C00018F10CD161507109810991098E010F5FC5
:1039D0001F4F21E030E040E050E005D189818111A6
:1039E00013C0FCD02B013C01C12CD12C7601B110AD
:1039F0001DC0C982DA82EB82FC8240E0BE016F5FAB
:103A00007F4F8BE39CE1F5D50F900F900F900F90B7
:103A1000DF91CF911F910F91FF90EF90DF90CF90AA
:103A2000BF907F906F905F904F900895C414D5041D
:103A3000E604F70449F38E010F5F1F4F21E030E0E9
:103A400040E050E0C701B601CED08981811101C0AC
:103A5000BA948FEFC81AD80AE80AF80AC8CF0895AE
:103A600008950F931F93CF93DF93833050F56A30FF
:103A700040F54D3030F5C42FD0E0CC0FDD1F2AE1EA
:103A8000629FC00DD11D112424E031E0829FA0016E
:103A9000839F500D1124C40FD51FCE0189960E941B
:103AA0002731082F10E0102F0027CE018A960E94A0
:103AB00027319801282BC901DF91CF911F910F91D8
:103AC000089590E080E0F8CF1F93CF93DF93962F77
:103AD000833008F56A30F8F44D30E8F4632F122F84
:103AE000C42FD0E0CC0FDD1F2AE1929FC00DD11D65
:103AF000112424E031E0829FA001839F500D112406
:103B0000C40FD51FCE0189960E944831612FCE0186
:103B10008A960E944831DF91CF911F910895B0E0BD
:103B2000A0E0E5E9FDE10C9448306B017C01E8017F
:103B30004B015C01820E931EA41EB51EC601899620
:103B4000C814D904EA04FB0429F4CDB7DEB7ECE0CD
:103B50000C9464302CE0C21623E0D206E104F10498
:103B600050F40E942731888321968FEFC81AD80A13
:103B7000E80AF80AE3CF1882F7CFB0E0A0E0E3EC60
:103B8000FDE10C9448306B017C01EB014B015C01C1
:103B9000820E931EA41EB51E9601C6018996C814F6
:103BA000D904EA04FB0429F4CDB7DEB7ECE00C94A9
:103BB00064304CE0C41643E0D406E104F10440F460
:103BC0002C1B3D0BF801E20FF31F60810E9448316E
:103BD0008FEFC81AD80AE80AF80ADECF6BEC70E05B
:103BE00080E090E008954F925F926F927F928F9263
:103BF0009F92AF92BF92EF92FF920F931F93CF933A
:103C0000DF934B015C0129013A017B01E801E01AD5
:103C1000F10A8BECE81A8CEFF80AC7018C0F9D1F94
:103C2000AE01401B510B70E060E044155505660580
:103C3000770578F0DF91CF911F910F91FF90EF9072
:103C4000BF90AF909F908F907F906F905F904F90BC
:103C50000895480D591D6A1D7B1D4B3C510561059A
:103C6000710528F40E94273188832196D6CF1882C7
:103C7000FCCF4F925F926F927F92AF92BF92CF92A2
:103C8000DF92EF92FF920F931F93CF93DF936B011D
:103C90007C0129013A015B018BECA81A8CEFB80A70
:103CA000D0E0C0E0C5018C0F9D1FAE0170E060E068
:103CB000441555056605770578F0DF91CF911F9182
:103CC0000F91FF90EF90DF90CF90BF90AF907F90DB
:103CD0006F905F904F9008954C0D5D1D6E1D7F1D80
:103CE0004B3C51056105710530F4F801EC0FFD1FE7
:103CF00060810E9448312196D5CFA0E1B0E0E3E891
:103D0000FEE10C944430CE0101965C0180E1F501A6
:103D100011928A95E9F70DE010E09BEC492E512CA9
:103D2000612C712C25E3822E23E0922E6201F1E1B9
:103D30004F165104610471042CF080E1C82ED12C7F
:103D4000E12CF12CA601B401C5010E9439318C0C83
:103D50009D1C0D2C000CEE08FF084C185D086E0829
:103D60007F080150110911F76096E0E10C94603072
:103D7000CF93DF9386319C4719F5EB010E94210D0B
:103D80009D81992399F08A7A91E009F490E09093CB
:103D90002403811109C089E20E9445270E94AE0DCB
:103DA00080E0DF91CF91089585E3F6CF80912403E1
:103DB000811104C089E20E944B27F0CF85E3FBCF3D
:103DC00081E0EFCFCF93DF93EC01FB018581882366
:103DD00009F4F1C09E0130572332310508F0D1C0FB
:103DE00084E493E00E94390EFE01E150F047E23294
:103DF000F10508F026C0E150F14E0C940A305B1F2B
:103E0000CD1F631F2D1F311F671F351F6B1F771FAE
:103E1000411FC61F451F7B1F491F7F1FA71F4D1F27
:103E2000831FAE1F531F891F911F391F6F1F3D1F17
:103E3000731F571F8D1F9D1FB71FC41F271F5F1F95
:103E4000D41F8091440381608093440393C0809188
:103E500045038860809345038DC080914403826050
:103E6000F3CF809144038460EFCF80914403886056
:103E7000EBCF809145038160EDCF80914503826057
:103E8000E9CF809144038061DFCF80914403806259
:103E9000DBCF809144038064D7CF0E94F9088091E2
:103EA00044038068D1CF809144038860DCCF809147
:103EB00045038260E0CF809144038E7FC5CF80911F
:103EC0004503877FC7CF809144038D7FBDCF80910D
:103ED00044038B7FB9CF80914403877FB5CF809116
:103EE00045038E7FB7CF809145038D7FB3CF8091FF
:103EF00044038F7EA9CF809144038F7DA5CF80910D
:103F000044038F7BA1CF0E94F908809144038F77EF
:103F10009BCF80914403877FDCCF809145038D7FC9
:103F2000E0CF8091440382FB992790F921E092270A
:103F300090FB82F990FB83F987CF80914503982FFE
:103F4000909591708E7F892B90FB81F983CF909112
:103F50004403892F8F7B96FF806476CF0E94F908F7
:103F600090914403892F97FB87F980586DCF81E0AA
:103F70000E94450E84E493E00E943B0E0E94F908E3
:103F800080E0DF91CF91089580E0F2CF90914403DB
:103F9000892F8F7E94FF806157CF90914403892FA2
:103FA0008E7F90FF816050CF90914503892F877F4E
:103FB00093FF88604FCF81E0E4CF282F35EB2303B8
:103FC000C001112497FF04C080589109892F0895DA
:103FD00080589F4FFBCF80912B0380FF0DC06091D5
:103FE0001E0170E0660F771F6038710580F561155E
:103FF000710579F1862F089581FF07C060911E0138
:1040000084E0689FB0011124EFCF82FF04C060916B
:104010001E0188E0F6CF20912A032223A9F0909177
:104020001D0160911E0188E0689FB00111242917CD
:10403000D8F6269FA001279F500D1124692F70E00C
:10404000CA010E94D52FD0CF68E070E0D3CF8FE7B0
:10405000089581E0089580912B0380FF0CC060914A
:104060001A0170E0759567957595679561157105ED
:1040700049F1862F089581FF06C060911A0170E012
:1040800075956795F3CF60911A0182FD0BC09091F1
:1040900029039923A1F06091190180911A019617C3
:1040A00038F0682F70E06038710500F38FE70895ED
:1040B000899FC001112470E00E94D52FF4CF61E0E8
:1040C00070E0D7CF81E008958D3C29F484DF81959D
:1040D00080932F0308958E3C11F47DDFF9CF8F3C40
:1040E00029F479DF819580932E030895803D11F4A2
:1040F00072DFF9CF893D21F4AEDF8093300308955C
:104100008A3D19F4A8DF8195F8CF8B3D29F4A3DF10
:1041100081958093310308958C3D11F49CDFF9CF94
:104120009FE2980F983070F4815D990B21E030E0A8
:1041300001C0220F8A95EAF780912D03822B80938C
:104140002D0308958D3D31F480912B038160809380
:104150002B0308958E3D21F480912B038260F7CFCD
:104160008F3DB9F780912B038460F1CF8D3CD9F45A
:1041700090912F0397FF1DC010922F0380912E0363
:10418000811106C080912F03811102C010922A0371
:1041900080913003811106C080913103811102C0EA
:1041A0001092290308958E3CD9F490912F0319168B
:1041B0001CF39FE2980F983008F03FC0815D990B87
:1041C00021E030E0A90102C0440F551F8A95E2F7B3
:1041D000CA01809590912D03892380932D03CECF22
:1041E00090912E038F3C29F497FFE3CF10922E037A
:1041F000C5CF803D19F41916CCF3DBCF9091300375
:10420000893D29F41916ACF610923003B7CF8A3DD8
:1042100019F497FFCECFF8CF8B3D39F4909131034D
:1042200097FFC7CF10923103A9CF8C3D09F0C1CFC2
:10423000909131031916B4F3BCCF8D3D31F48091C8
:104240002B038E7F80932B0399CF8E3D21F4809199
:104250002B038D7FF7CF8F3D09F090CF80912B03FB
:104260008B7FF0CF3FD720912E03211104C02091E6
:104270002F03222321F0909328038093270320917A
:104280003003211104C020913103222321F09093A7
:104290002603809325038CE293E040C586E0ECE2A0
:1042A000F3E0DF011D928A95E9F710922A0310923C
:1042B000290310922B030895FC01828181110EC005
:1042C000838181110BC08481811108C091E08581B7
:1042D000811101C090E0892F8170089581E0FCCFA9
:1042E000A6E0B0E0E6E7F1E20C94513086E0ECE2C3
:1042F000F3E0DE01119601900D928A95E1F710929C
:104300002E0310922F0310923003109231038B81F1
:10431000811103C08C81882381F0809127039091C3
:1043200028036FD6AC0190912A039923B9F18091AB
:104330001F018417150608F43EC08D81811103C04A
:104340008E81882389F0809125039091260359D688
:10435000AC0190912903992309F463C080911B015A
:104360008417150608F46BC0BE016F5F7F4F8CE2A7
:1043700093E0A2D5811104C08CE293E09DDF81110E
:1043800071DF86E0FE013196ACE2B3E001900D9260
:104390008A95E1F72696E3E00C946D302091200198
:1043A0008AE0289F900111242417350730F69F5F7B
:1043B00090932A0302C09F3FD1F71B81112351F034
:1043C0000ADE9FEF11160CF491E0899F802D1124D5
:1043D00080932E031C81112351F0FDDD9FEF1116F8
:1043E0000CF491E0899F802D112480932F038091FC
:1043F0002E03882309F4A1CF10912F03112309F470
:104400009CCFDBDD882349F080932E03812FD5DDFF
:10441000882329F080932F0390CF81E0F5CF81E0AE
:10442000F9CF20911C018AE0289F900111242417C4
:10443000350708F099CF9F5F9093290302C09F3FF3
:10444000D1F71D81112351F006DE9FEF11160CF4F8
:1044500091E0899F802D1124809330031E811123C8
:1044600051F0F9DD9FEF11160CF491E0899F802D3A
:1044700011248093310380913003882309F474CF91
:1044800010913103112309F46FCF97DD882349F090
:1044900080933003812F91DD882329F080933103AD
:1044A00063CF81E0F5CF81E0F9CFB0E0A0E0EBE5AC
:1044B000F2E20C944B30E82FF0E0EE52FA4FB49059
:1044C000282F26952695269530E0F901EE58F94FCC
:1044D0000491877010E0082E02C0159507950A9484
:1044E000E2F701701127F901EE59F94FE490F12C30
:1044F000082E02C0F594E7940A94E2F791E0E922CD
:10450000FF24F901EE5AF94FC491D0E002C0D595CD
:10451000C7958A95E2F7C170DD27C62ED12C01150B
:10452000110549F5E114F10431F086EE0E944506CB
:10453000C601009771F5B6018B2D0E94B706C60122
:10454000009779F5E114F104A1F50115110531F099
:1045500081EE0E948A06C6010097C9F5CD2B31F085
:104560008CE20E94CD06C114D104C9F5CDB7DEB7E7
:10457000E9E00C94673081EE0E944506C601009781
:1045800089F2EFE9FFE03197F1F700C000000197F1
:10459000F6CFEFE9FFE03197F1F700C00000019797
:1045A000C8CFEFE9FFE03197F1F700C000000197B5
:1045B000C7CF86EE0E948A06C601009731F2EFE966
:1045C000FFE03197F1F700C000000197F6CFEFE967
:1045D000FFE03197F1F700C000000197BDCF8FE9F0
:1045E0009FE00197F1F700C0000091E0C91AD108DF
:1045F000BACFB0E0A0E0EFEFF2E20C944B308C01C8
:104600007B01D42F8AE0B82EC701F80109958823D1
:10461000A9F0813009F058C0C701F8010995C82FE9
:10462000813089F4C701F80109950E94CD068D2FCC
:1046300090E0009709F040C0C111E6CFCDB7DEB7DA
:10464000E9E00C946730823031F4C701F801099534
:104650000E944506ECCF833031F4C701F80109957B
:104660000E948A06E4CF843011F7C701F80109954A
:10467000C82FD12CC12C2C2F2053330BC9012A3029
:10468000310568F0C114D10491F28FE99FE00197E0
:10469000F1F700C0000091E0C91AD108F3CFBC9C2B
:1046A0009001BD9C300D11246C01C20ED31EC701B8
:1046B000F8010995C82FDFCFEFE9FFE03197F1F757
:1046C00000C000000197B5CF6D2FEFDE9DCF60E0F9
:1046D000ECCE982F9F709A50963010F0805DF7CFF7
:1046E000895AFDCF0F931F93CF93DF93C42FD22FFF
:1046F000FC0185818823C1F040933403F3D4909367
:1047000033038093320380E28C0F883040F4C7700B
:1047100081E001C0880FCA95EAF70E94D406DF91B4
:10472000CF911F910F91089510913403141331C04C
:10473000809132039091330364D4883C910548F50D
:10474000C0E2CD0F1D17B9F080E2810F883040F430
:10475000177081E001C0880F1A95EAF70E94D90608
:10476000C83010F581E09D2F977001C0880F9A9591
:10477000EAF70E94D406802F0E94CD06C83078F652
:10478000D77081E001C0880FDA95EAF70E94D90658
:10479000C6CF80E28C0F883010F6C77081E001C070
:1047A000880FCA95EAF7F2CF802F0E94CD06B7CFC7
:1047B0000F93FC01E851FC47E730F10508F039C0E0
:1047C000CB01EB51FC4D0C940A30FB230124EC236C
:1047D000F52307240D24132406E221EE41EE6AE1BD
:1047E0007CE780DF80E00F91089507E225EE45EE3B
:1047F0006BE17CE7F6CF06E221EE40EE68E17CE774
:10480000F0CF07E225EE44EE69E17CE7EACF06E26D
:1048100021EE42EE6CE17CE7E4CF07E225EE46EEC6
:104820006DE17CE7DECF08E221E045EE6EE17CE75A
:10483000D8CFFB018581882319F010923403D3CFA0
:1048400081E0D1CF1F93CF93DF9387372CE7920777
:1048500029F088379C4729F1C1E011C0FB01C581CF
:10486000CC2391F026D00E94600929D0D82F24D0E3
:10487000C82F1FD04D2F6C2F0E94710AC0E08C2FC3
:10488000DF91CF911F91089514D00E946A0917D02B
:10489000182F12D0D82F0DD0412F6D2F0E94710AE2
:1048A000EECFFB01C581CC2311F006D0DCCF04D0C4
:1048B000ECCF809123010895809122010895809189
:1048C00021010895A3E0B0E0E8E6F4E20C94523050
:1048D000AE014F5F5F4FBE016E5F7F4FCE0103960B
:1048E000B1D18B81853239F48A81813121F481E023
:1048F0009981973209F080E081702396E2E00C9470
:104900006E30882321F047E261E185E2C1C14FEFBB
:104910006FEF8FEFFBCF08950895CF92DF92EF9264
:10492000FF926B017C01F8DFC701B601D0D1FF9087
:10493000EF90DF90CF90089584D180E0E2DF60E0D7
:1049400070E0CB01EADF0E94671C24D881E0D9CF58
:10495000E2DFB4D1E1DFB6DF811101C0EDCF089510
:104960000C94B41908959C01FB018581882349F0BA
:10497000A90157574038510528F4C9010DD880E0E6
:10498000089581E008952FEFFC012083089580E0D1
:104990000895CF93DF93EC0188818230E9F028F409
:1049A000813071F0DF91CF9108958330F9F0843038
:1049B000C9F70E941D1589830E9420158A83F2CFB2
:1049C0000E9423152FEF829FC00111246FEF70E02A
:1049D0000E94C12F6983E6CF0E94F514882321F03D
:1049E0000E94EC148983DECF80E0FCCF0E94171573
:1049F000F9CFCF93DF93EC018881823021F128F445
:104A0000813069F0DF91CF910895833041F1843096
:104A1000C9F70E942315482F6A81898111C08981B5
:104A20002FEF829FC00111246FEF70E00E94C12F11
:104A3000D62F0E942015C82F0E941D154D2F6C2FB8
:104A40000E947116DFCF8981811103C00E940A196B
:104A5000D9CF0E94AC1989810E948619D3CF898150
:104A60000E941A15CFCFFC019C012E5F3F4F908111
:104A7000983031F0993031F0973031F4C901B9CF25
:104A8000C90187CF0C94DD148FEF80830895FC015A
:104A90002181223009F4E7CF76CFB0E0A0E0E3E552
:104AA000F5E20C944A30EC01D62E71DF81113BC047
:104AB000E881E150E33110F5F0E0EF59FA4D0C9444
:104AC0000A3074257825B525C525CD25D825DB25C3
:104AD000DB25DB257E257E25DF25E325E725F4255F
:104AE000012604260726142619828CE08A8317C023
:104AF00089818230E9F028F4813061F08FEF88837A
:104B00000EC08330B9F08430C9F71A821B821C8230
:104B10001D8205C0F3D29A838B837C836D836D2DB8
:104B2000CE010E945C1ACDB7DEB7EAE00C94663085
:104B3000C5D0F1CFCA807E0110E000E0AC2CB12CD2
:104B4000C501800F911F0A9750F78C2D800F0E948E
:104B50004F12F701938384830F5F1F4FF2E0EF0E34
:104B6000F11C0E30110561F7DACF8981823029F00E
:104B7000853021F68A81F4DED2CF6A817B818C81F7
:104B80009D810E941030C9DECACF4B816A81898124
:104B90000E94631C9C838D83C2CF2C813D81322770
:104BA000232732274B816A8189810E94651CB7CFF8
:104BB0000E94671CB4CF6D2DCE0169DFB0CF0E947B
:104BC000AB1C8983ACCF0E94AD1C99838FCF6B81C6
:104BD00070E089819A81AE014C5F5F4F98278927E9
:104BE00098270E94B01C9BCF6B8170E089819A81CD
:104BF000AE014C5F5F4F9827892798270E94BD1C04
:104C00008ECF0E94CA1C8BCF0E94611CDACF6B81B1
:104C100070E089819A81AE014C5F5F4F98278927A8
:104C200098270E94871C7BCF6B8170E089819A81D5
:104C3000AE014C5F5F4F9827892798270E94941CEC
:104C40006ECF0895EF92FF920F931F93CF93DF9350
:104C50007C018B01EA01892B31F085E290E00E9412
:104C60002731F70180830115110531F086E290E0CC
:104C70000E942731F8018083209729F087E290E095
:104C80000E9427318883CDB7DEB7E6E00C946A3006
:104C9000CF93DF93D62FC42F682F85E290E00E9438
:104CA00048316D2F86E290E00E9448316C2F87E2F8
:104CB00090E00E944831DF91CF91089588E290E022
:104CC0000E942731682F70E090E080E0089588E22C
:104CD00090E00C94483190933A03809339030895FF
:104CE000E0913903F0913A03309739F00190F08167
:104CF000E02D309711F00995089580E00895F0CFE8
:104D00000895E0913903F0913A03309731F0028031
:104D1000F381E02D309709F009950895E09139036A
:104D2000F0913A03309759F026813781232B39F0DF
:104D300022E0DC012C930680F781E02D099508958F
:104D4000A3E0B0E0E6EAF6E20C945230209137039B
:104D50003091380328173907B1F0909338038093C6
:104D60003703E0913903F0913A03309761F0008402
:104D7000F185E02D309739F023E029839B838A83E6
:104D8000CE01019609952396E2E00C946E30A3E0E3
:104D9000B0E0EDECF6E20C94523020913503309106
:104DA000360328173907B1F0909336038093350303
:104DB000E0913903F0913A03309761F00084F18576
:104DC000E02D309739F024E029839B838A83CE013C
:104DD000019609952396E2E00C946E30E091390338
:104DE000F0913A03309731F00284F385E02D30974B
:104DF00009F009950895E0910401F09105013296BA
:104E000097E080E0915009F4089521912223D1F395
:104E10008F5FF8CF882371F0209104013091050154
:104E2000F9013296285F3F4F9191981729F0E217C8
:104E3000F307D1F780E0089581E008959C01FC011B
:104E400032969FEF80E04191461751F09F3F19F451
:104E5000411101C0982F8F5F8630A9F79F3F09F459
:104E60000895290F311D97FD3A95F9016283089540
:104E7000FC01329608962191261303C0DF01119799
:104E80001C92E817F907B9F70895682F809104017B
:104E900090910501D3CF682F809104019091050175
:104EA000E7CFE0910401F0910501329686E0DF0141
:104EB0001D928A95E9F70895DC01FB0111969C91FA
:104EC00011978181981322C012968C911297882392
:104ED00019F0928189131AC013968C911397882325
:104EE00019F09381891312C015968C911597882318
:104EF00019F0958189130AC014969C91992321F089
:104F000081E02481291303C080E001C081E0817029
:104F100008950895FECF089581110CC081E080931B
:104F200027016091240170912501809126019091C3
:104F30002701F0CF82E0F3CF83E0809327016091D7
:104F40002401709125018091260190912701E2CFE3
:104F5000E3CF089581E0809327016091240170914F
:104F600025018091260190912701D4CFF3CF089598
:104F700091E0811101C090E090932601609124019D
:104F8000709125018091260190912701C3CF8091D6
:104F900026010895809325016091240170912501D7
:104FA0008091260190912701B5CF80912501089528
:104FB0008093240160912401709125018091260144
:104FC00090912701A7CF8091240108950895089515
:104FD000FECF089508950895F9CF0895CF93FADF8D
:104FE0000E942213F8DFC0E08C2F0E944F12892B01
:104FF00031F4CF5FCA30C1F780E0CF91089581E0EE
:10500000FCCFCF93DF93EC016DD08C1B9D0BDF9118
:10501000CF91089585B7806885BF85B7806885BFC3
:1050200008951F920F920FB60F9211248F939F93A2
:10503000AF93BF9380913B03811113C08091B5035F
:105040009091B603A091B703B091B8034196A11D0A
:10505000B11D8093B5039093B603A093B703B093AB
:10506000B803BF91AF919F918F910F900FBE0F909A
:105070001F9018958091BD03843031F10E94C805BE
:1050800010923B0388E190E020E40FB6F894A895D5
:10509000809360000FBE2093600083B7817F84609F
:1050A00083BF83B7816083BF7894889583B78E7FF1
:1050B00083BF0FB6F894A8958091600088618093B3
:1050C0006000109260000FBE08950E94F9080C94D1
:1050D000CC0582E084BD93E095BD9AEF97BD8093A7
:1050E0006E0008952FB7F8948091B5039091B603A0
:1050F000A091B703B091B8032FBF08952FB7F894CC
:105100006091B5037091B6038091B7039091B80395
:105110002FBF089578941F920F920FB60F9211240B
:105120008F939F93AF93BF938091B5039091B603F4
:10513000A091B703B091B8030196A11DB11D809352
:10514000B5039093B603A093B703B093B803BF9190
:10515000AF919F918F910F900FBE0F901F90189558
:1051600081E08093E00080E28093D8001092C90033
:105170008FE19EE40197F1F700C0000087E090EB1B
:10518000DC018093C6039093C703A093C803B09338
:10519000C90388E19CE00FB6F894A895809360005D
:1051A0000FBE90936000FFCF88E19CE00FB6F894AB
:1051B000A895809360000FBE90936000FFCF089584
:1051C0009B019091BD039430E9F48F708093E900C6
:1051D0008FEF9091E800815095FD06C095ED9A956E
:1051E000F1F700008111F5CF8091E80085FF0AC03A
:1051F000BA01C90150E040E0F3D18091E8008E7718
:105200008093E8000895603229F4BC0140E250E048
:1052100082E0D6CF089543E050E0BC0184E0D0CFD7
:1052200046E050E0BC0184E0CBCFCF93DF93EC01AC
:10523000AEDE48E050E0BE0181E0C2DF88E0FE0162
:10524000ACE3B3E001900D928A95E1F7DF91CF9145
:105250000895A0E2B0E0EEE2F9E224C78091BD0338
:105260008430F9F483E08093E9008091E80082FFC4
:1052700018C08091E80090E085FF08C050E040E051
:1052800060E270E0CE010196F8D191E08091E800F3
:105290008B778093E800992321F060E2CE0101969C
:1052A000FCDBA096E2E01AC78091BC03811107C025
:1052B00072D3C9D38091E20084608093E2000895A4
:1052C0001092BC03089546DE81E052CE6091B9038E
:1052D00081E0611101C080E02FCE9091BD0381E09B
:1052E000943009F080E06091B90332CE42E061EC85
:1052F00081E0CFD242E261EC84E0CBD242E261ECC9
:1053000082E0C7D242E260EC83E0C3D29091BD0359
:1053100081E0943009F080E06091B903FDCD809187
:10532000BF03833009F464C038F4813009F43DC010
:10533000823009F499C008958A3009F488C08B300E
:1053400009F470C0893009F052C08091BE038132E7
:1053500009F04DC08091C2039091C303009719F0EA
:10536000029709F044C08091E800877F8093E800AD
:105370008091E80082FF37C08091F3009091F200A5
:10538000892798278927029731F48091F10081308D
:1053900011F0863019F48091F100FCDD8091E80075
:1053A0008B778093E800A9D222C08091BE03813A16
:1053B000F1F48091E800877F8093E8008091C20338
:1053C0009091C303892B59F468E08CE393E070E07B
:1053D000A1D18091E8008B778093E800089560E088
:1053E00090E080E0F4CF8091BD038111C1CF08959A
:1053F0008091BE03813AD9F78091C2039091C30393
:10540000892BA9F78091E800877F8093E80080913D
:10541000E80080FFFCCFBBDD8093F1008091E800C5
:105420008E77BFCF8091BE03813209F78091C2038E
:105430009091C303892BD9F68091E800877F8093F0
:10544000E8005BD28091C00393DD0C94F908809151
:10545000BE03813261F68091E800877F8093E80087
:105460004CD28091C103A4CD8091BE03813A09F052
:10547000BECF8091E800877F8093E8008091E800AC
:1054800080FFFCCFA0DDC8CF84B7877F84BF0FB675
:10549000F894A895809160008861809360001092D4
:1054A00060000FBE80E890E00FB6F8948093610032
:1054B000909361000FBE5ACD6ED2C5D2E2EEF0E0FD
:1054C000808184608083789428C588E291E003CC51
:1054D0008091BD03853029F48091BD03853011F0A2
:1054E000F4CD0895C7DD7ADD8823B1F38091BB0345
:1054F000882391F35FD00E94F908EECF08959A01B6
:105500004091C4035091C50300C0492F5527433033
:10551000510579F158F441305105F1F0423051050F
:1055200019F190E080E050E040E01AC041325105AE
:1055300099F142325105A9F76330710590F7FB01EB
:10554000EE0FFF1FED50FE4F4081518160517E4FA5
:10555000FB01808190E004C082E190E04FEF56E0D3
:10556000F9015183408308958BE590E044EA56E0C9
:10557000F7CF99278130910561F028F0029789F6DD
:10558000E2E8F6E002C0E0EAF6E0849190E0AF01E4
:10559000E7CFECE8F6E0F9CF6330710508F0C1CF52
:1055A000660F771FFB01E750FE4F4081518189E074
:1055B00090E0D6CF80E189BD82E189BD09B400FECB
:1055C000FDCF8091D8008F7D8093D8008091E0003E
:1055D00082608093E0008091E00081FDFCCF08951F
:1055E000AF92BF92CF92DF92FF920F931F93CF9310
:1055F000DF936C01EB018A019FD1F82E811123C04A
:105600000115110539F0F80180819181C81BD90B72
:10561000C80ED91EB12CA12C2097A9F08091E800CA
:1056200085FD21C08091E8008E778093E800011508
:105630001105A1F0F80180819181A80EB91EB182F7
:10564000A08285E0F82E8F2DDF91CF911F910F91D1
:10565000FF90DF90CF90BF90AF9008956DD18823D9
:10566000D9F2F82EF0CFF60181916F018093F1000D
:105670002197FFEFAF1ABF0ACFCFAF92BF92CF9261
:10568000DF92FF920F931F93CF93DF936C01EB0197
:105690008A0152D1F82E811123C00115110539F06C
:1056A000F80180819181C81BD90BC80ED91EB12C7D
:1056B000A12C2097A9F08091E80085FD21C0809160
:1056C000E8008B778093E80001151105A1F0F8013F
:1056D00080819181A80EB91EB182A08285E0F82E4A
:1056E0008F2DDF91CF911F910F91FF90DF90CF9081
:1056F000BF90AF90089520D18823D9F2F82EF0CF33
:105700008091F100F60181936F012197FFEFAF1AAD
:10571000BF0ACFCFFC018091C4039091C5038617C7
:105720009707A0F06115710529F49091E8009E7724
:105730009093E80090E06115710551F4911108C053
:105740008091E80082FF35C080E00895BC01F2CF6F
:105750008091BD038823C9F18530C9F18091E800AB
:1057600083FD31C08091E80082FDEACF8091E8009E
:1057700080FFE1CF2091F3008091F200322F282F9B
:105780006115710519F02830310558F091E0283085
:10579000310509F090E02091E8002E772093E80091
:1057A000CACF81918093F100615071092F5F3F4F03
:1057B000E7CF8091BD03882341F0853041F080918F
:1057C000E80083FFBDCF81E0089582E0089583E083
:1057D0000895FC018091C4039091C5038617970733
:1057E000A0F06115710529F48091E8008E7780930F
:1057F000E80090E06115710551F4911108C08091A5
:10580000E80082FF36C080E00895BC01F2CF8091AD
:10581000BD038823D1F18530D1F18091E80083FD6B
:1058200032C08091E80082FDEACF8091E80080FFDD
:10583000E1CF2091F3008091F200322F282F6115E3
:10584000710519F02830310558F091E02830310504
:1058500009F090E08091E8008E778093E800CACF4D
:1058600084918093F1003196615071092F5F3F4F11
:10587000E6CF8091BD03882341F0853041F08091CF
:10588000E80083FFBCCF81E0089582E0089583E0C3
:105890000895982F973028F08F708093E90081E069
:1058A00008959093E900242F762F50E0981731F057
:1058B0007091EC002091ED005091F00021FD02C0AC
:1058C0009F5FE8CF3091EB003E7F3093EB0030914B
:1058D000ED003D7F3093ED003091EB00316030936F
:1058E000EB007093EC002093ED005093F0002091BA
:1058F000EE0027FDE5CF80E008958091BE0387FF8D
:1059000013C08091E80082FF06C08091E8008B7789
:105910008093E80004C08091BD038111F2CF089507
:105920008091BD038823D9F38091E80080FFF8CFF0
:105930008091E8008E77ECCF2091E4003091E50073
:1059400085E69091EC0090FF06C09091E80090FFF2
:1059500006C080E008959091E80092FDFACF909102
:10596000BD03992391F0953091F09091EB0095FD56
:1059700010C04091E4005091E5002417350709F369
:1059800081509A01F1F684E0089582E0089583E061
:10599000089581E0089567D06ED0E0EEF0E0808158
:1059A00081608083E8EDF0E080818F77808319BC8F
:1059B000A7EDB0E08C918E7F8C9380818F7E808369
:1059C0001092BC0308950F931F93CF93DF934BD096
:1059D00052D0C8EDD0E088818F7788838881806835
:1059E000888388818F7D888319BC1092BD031092B3
:1059F000B9031092BB031092BA0300EE10E0F80155
:105A000080818B7F808388818160888342E060E031
:105A100080E03FDFE1EEF0E080818E7F8083E2EE88
:105A2000F0E0808181608083808188608083F801DC
:105A300080818E7F8083888180618883DF91CF9190
:105A40001F910F910895E8EDF0E080818F7E8083B3
:105A5000E7EDF0E080818160808384E082BF81E0B7
:105A60008093BC03B0CFE8EDF0E080818E7F80832F
:105A70001092E20008951092DA001092E100089569
:105A80001F920F920FB60F9211242F933F934F93B3
:105A90005F936F937F938F939F93AF93BF93EF9396
:105AA000FF938091E10082FF0AC08091E20082FFB3
:105AB00006C08091E1008B7F8093E1002DD2809120
:105AC000DA0080FF18C08091D80080FF14C0809158
:105AD000DA008E7F8093DA008091D90080FF8FC03A
