:100000000C9404030C943C030C943C030C943C03AC
:100010000C943C030C943C030C943C030C943C0364
:100020000C943C030C943C030C94001F0C94D21FC2
:100030000C9498190C943C030C943C030C943C03D2
:100040000C943C030C943C030C943C030C943C0334
:100050000C943C030C94211A0C943C030C943C0328
:100060000C943C030C943C030C943C030C943C0314
:100070000C943C030C943C030C943C030C943C0304
:100080000C943C030C943C030C943C030C943C03F4
:100090000C943C030C943C030C943C030C943C03E4
:1000A0000C943C030C943C030C943C03A805A80559
:1000B000D405D40535062F072F072F075306BB0697
:1000C000CC06CC0670137313AB13BE13C613D11337
:1000D000D413D413D4131C141C14D913DC13E1133C
:1000E000EE13FB13FE1302140F147D14EF1485148A
:1000F0004F145314891456148C1497146114E51476
:1001000065149B1469149F14C9146D14A314D3149B
:100110007314A914B3145A1490145D14931478141E
:10012000AE14BF14DF14E1144B148114F8141E181C
:100130002418121818182A18301836183A20612076
:10014000592161205921AD20D02059212721362164
:10015000167C1E001F002000210022002300240026
:100160002500260027002D002E0000002A0049004F
:100170004A004B002B00000014001A000800150074
:1001800017001C0018000C00120013002F00300094
:1001900031004C004D004E003900000004001600F4
:1001A000070009000A000B000D000E000F003300CD
:1001B000340028000000000000000000E100000002
:1001C0001D001B000600190005001100100036007C
:1001D000370038000000E500000000005200000079
:1001E000E000E3000000E200000000002C0000003E
:1001F00000000000E600350000000000E4005000B0
:1002000051004F0001003A003B003C003D003E0021
:100210003F00400041004200430044004500000010
:1002200001000100010001000100000001000100C7
:1002300001000100010001000100010001000100B6
:1002400001000100010001000100010001000000A7
:100250000100010001000100010001000100010096
:10026000010001000100010000000000000000008A
:100270000100000001000100010001000100010077
:100280000100010001000100000001000000000069
:10029000010000000100010000000100000000005A
:1002A000010000000000000001000100000000004B
:1002B0000100010001000100010001000100010036
:1002C0000100010001000100010001000100010026
:1002D0000100000001000100010001000100000018
:1002E0000100010001000100010001000100010006
:1002F00001000100010001000100010001000100F6
:1003000001000000010001000100010001000100E6
:1003100001000100010001000100010000000000D7
:1003200000000000010000000100010001000100C8
:1003300001000100010001000100010000000100B6
:1003400000000000010000000100010000000100A9
:10035000000000000100000000000000010001009A
:100360000000000001000100010001000100010087
:100370000100010001000100010001000100010075
:100380000100010001000000010001000100010066
:100390000100000001000100010001000100010056
:1003A0000100010001000100010001000100010045
:1003B0000100010001000000010001000100010036
:1003C0000100010001000100010001000100010025
:1003D000000000000000000001000000010001001A
:1003E0000100010001000100010001000100010005
:1003F00000000100000000000100000001000100F9
:1004000000000100000000000100000000000000EA
:1004100001000100000000000100010001000100D6
:1004200000000000000000002A2B2800000000004F
:100430000000000000000000000000290000000093
:100440002C1E3420212224342627252E362D373801
:10045000271E1F202122232425263333362E37380A
:100460001F0405060708090A0B0C0D0E0F101112C8
:10047000131415161718191A1B1C1D2F3130232D94
:10048000350405060708090A0B0C0D0E0F10111292
:10049000131415161718191A1B1C1D2F3130354C43
:1004A000000000000000000000000000000000004C
:1004B000000000000000000000000000000000003C
:1004C000000000007E0F00D4FFFFFFC7000000788F
:1004D0001E0358004F005800200037003000200055
:1004E00048006F0074007300770061007000000026
:1004F0000C034D006F006B006500790000000403E1
:10050000090409025B00030100A0FA0904000001CC
:1005100003010100092111010001224400070581A6
:100520000308000109040100020300000009211171
:1005300001000122220007058203200001070503B4
:100540000320000109040200010300000009211139
:10055000010001223200070584032000011201007E
:100560000200000008536671330100010200010619
:1005700060FF0961A1010962150026FF0095207541
:100580000881020963150026FF0095207508910275
:10059000C005010980A101850319012AB7001501D1
:1005A00026B700950175108100C0050C0901A10155
:1005B000850419012AA002150126A00295017510D3
:1005C0008100C005010906A101050719E029E71509
:1005D00000250195087501810295017508810105C5
:1005E00007190029FF150026FF00950675088100F0
:1005F00005081901290515002501950575019102C8
:10060000950175039101C00011241FBECFEFDAE000
:10061000DEBFCDBF04B603FE18C080919D0290914D
:100620009E02A0919F02B091A0028730904BA740FC
:10063000B04B59F410929D0210929E0210929F02AC
:100640001092A002E0E0F8E3099511E0A0E0B1E02B
:10065000EAE6F4E402C005900D92A63AB107D9F794
:1006600022E0A6EAB1E001C01D92AD39B207E1F780
:100670000E94BF120C9433220C9400008430B0F41A
:100680006530A0F4423190F49AE5899FF00111247D
:1006900082E1689FE00DF11D1124E40FF11DEE0FC2
:1006A000FF1FE05BFE4F85919491089581E090E0FB
:1006B000089581E0089581E008950E945B03089504
:1006C0000E945D0308950E945B03089508950E94AF
:1006D00066030895A6E0B0E0E0E7F3E00C94A32100
:1006E00049835A839E833091AD0189819A8131116A
:1006F00015C03E81332359F0222349F00E94C908D6
:10070000182F682F89819A810E94A50803C00E9432
:10071000B708182F69817A81812F04C00E94C90807
:1007200069817A810E9408102696E3E00C94BF212B
:10073000FC01262F408151816281738184819581E2
:100740000E946A030895CF93DF93EC0161E00E9459
:100750009803BE010E946003DF91CF910895CF936B
:10076000DF93EC0160E00E949803BE010E946703E2
:10077000DF91CF91089508950E94A0070E94BB03C6
:100780002FEF84E39CE0215080409040E1F700C0CF
:10079000000008950E94BC030E94471A08950E9419
:1007A000BC030E946B1A08950F931F93CF93DF939E
:1007B0008C0161E00E949803EC01B8010E943D1396
:1007C000882309F450C0B801CE010E946303882336
:1007D00009F449C0B801CE010E940618882309F423
:1007E00042C0B801CE010E9427148823E1F1B8016C
:1007F000CE010E946C178823B1F1B801CE010E948E
:100800004918882381F1F8018581882341F1C3309B
:100810008CE7D807D1F040F4C115FCE7DF0791F071
:10082000C130DC47A1F01BC0CB35ECE7DE07A9F0F7
:10083000CC35FCE7DF0771F0CA35DC4781F40E9454
:10084000280D0DC00E94CA030EC00E94300D0E94E8
:10085000CF0309C00E941E0D02C00E942C0DC801CA
:100860000E94590301C080E0DF91CF911F910F9149
:1008700008950E946E190E94600408950E94640405
:100880000E9477190895089581E008950895CF93FF
:10089000DF93D82F0E944404C82F882319F08D2F8E
:1008A0000E9446048C2FDF91CF9108950895CF9335
:1008B000C82F0E9443048C2F0E944704CF910895B3
:1008C00080E00E94570408950E9499180E945704DE
:1008D0000895CF930E949918C82F8091A801C81736
:1008E00079F0C093A8010E94061A6093A901709341
:1008F000AA018093AB019093AC018C2F0E94570406
:10090000CF910895ADE0B0E0E8E8F4E00C94A421C4
:10091000488759876A877B878C879D8791110E94BA
:10092000520CCE01019627E0FC0111922A95E9F7BD
:1009300026E0FE013896DC0101900D922A95E1F740
:100940002D8121110AC029813A814B815C816D8101
:100950007E818F810E949C0B04C00E94A3038111A1
:10096000F2CF2D96E2E00C94C021FC0124812130CD
:1009700021F4808191810E94F6080895CF93882305
:1009800009F447C0C82F8CEF8C0F813AD0F46C2F3C
:1009900080910001909101010E940719882349F07C
:1009A0006C2F80910001909101010E9440190E94DA
:1009B0007E0C6C2F80910001909101010E943D19E5
:1009C0000CC080E28C0F883058F4C77081E001C001
:1009D000880FCA95EAF70E94350C0E947E0C19C058
:1009E000EBE5EC0FE33040F4F0E0EC5BFE4F808190
:1009F00090E00E94B1180DC0C85ACB3150F4EC2FD2
:100A0000F0E0EE0FFF1FE25FFE4F808191810E94B8
:100A1000D618CF910895882359F1682F8CEF860F4F
:100A2000813A38F480910001909101010E944019AF
:100A30000CC080E2860F883058F4677081E001C0F6
:100A4000880F6A95EAF70E943B0C0E947E0C08957D
:100A50008BE5860F833028F480E090E00E94B11887
:100A60000895685A6B3120F480E090E00E94D61817
:100A700008951F93CF93DF93182FEB010E94BE04BC
:100A8000209741F08FE99FE00197F1F700C0000047
:100A90002197F6CF812F0E940B05DF91CF911F91F7
:100AA0000895893319F060E070E002C060E570E0FD
:100AB0000E9439050895882321F00E94350C0E9478
:100AC0007E0C0895882321F00E943B0C0E947E0C2E
:100AD0000895A0E0B0E0EFE6F5E00C949E217C01E3
:100AE000162FC72FFC01D581068102950F700E9439
:100AF0002B0C8823E9F0DD23D9F08C2F807F803404
:100B000051F080E2810F883098F0011104C08C2FE1
:100B1000807E803269F08091630282FF09C082E0AA
:100B20000E94F20C0E942B0C91E0D82ED92601C015
:100B3000D12CCC2EC2948FE0C8228C2D90E08C302A
:100B4000910508F08CC1FC01EA5AFF4F0C948721F3
:100B50008C2F807FCF70882311F0C295C07FDD235A
:100B600099F0CC2309F467C180E2810F883010F03E
:100B7000111104C08C2F0E94350C03C08C2F0E94D1
:100B8000450C0E947E0C57C1812F0E940B05CC237F
:100B900009F465C180E2810F883038F1112329F111
:100BA0008C2F0E944B0C24C08C2F807FCF70803202
:100BB00011F0C295C07F112319F0113099F13CC09A
:100BC0008091630282FD17C0DD2349F0CC2329F018
:100BD0008C2F0E94350C0E947E0C80E02DC180E09D
:100BE0000E940B05CC2309F43AC18C2F0E943B0CC8
:100BF0000E947E0C34C1DD2349F0002309F101304D
:100C000009F02DC18C2F0E945C0C29C1011127C154
:100C10008C2F0E9462058C2F0E94680C8C2F0E94E2
:100C2000C50C1DC1DD2321F0063008F018C108C035
:100C3000053008F014C115C0DD2331F00111FBC0EF
:100C40008C2F0E945B050BC1002359F0193309F06A
:100C500003C1FFEF27EE83E0F15020408040E1F731
:100C6000F9C08C2F0E946205FAC08C2F869586955C
:100C7000837019F0813061F0F2C0DD2321F0812F03
:100C80009C2F937002C080E090E00E94B118EFC0EA
:100C9000DD2321F0812F9C2F937002C080E090E033
:100CA0000E94D618E4C08C2F837079F5D111DBC077
:100CB000412F429546954770440F440F212F2F70C6
:100CC000042E01C0220F0A94EAF714FF08C08FE037
:100CD00090E001C0880F4A95EAF7809501C080E056
:100CE000C695C695C370822BC23049F058F4C13006
:100CF00019F00E94F707B7C00E94F107B4C00E9424
:100D0000FD07B1C00E94EE07AEC0DD2319F08C2FA5
:100D1000817001C08695882309F4A5C0412F4295B2
:100D200046954770440F440F212F2F70042E01C0A9
:100D3000220F0A94EAF714FF08C08FE090E001C088
:100D4000880F4A95EAF7809501C080E0C695C69560
:100D5000C370822BC23049F058F4C13019F00E94A0
:100D6000430881C00E943D087EC00E9449087BC0A4
:100D70000E94060878C0CF70DD2339F08C2F0E94C6
:100D80001808812F0E945B056EC0812F0E946205AA
:100D90008C2F0E94240867C0123F21F128F4103FD5
:100DA00041F0113FC1F043C0133F19F1143F79F0F6
:100DB0003EC0DD2341F0053008F051C08C2F8F710B
:100DC0000E9431084CC0063008F049C0F7CF80912E
:100DD000630282FD18C0DD2339F08C2F8F710E94D1
:100DE00018083DC0DD23C9F38C2F8F710E942408A1
:100DF00036C0DD2329F08C2F8F710E940F082FC081
:100E00000E940B082CC0DD2349F0CF718C2F0E946B
:100E1000180863E08C2F0E94D40C21C081E00E944E
:100E2000F20C0230E0F082E00E94F20C18C0DD23E8
:100E300031F0002391F2812F0E94BE0410C00023E4
:100E400099F2193349F49FEFE7EEF3E09150E04057
:100E5000F040E1F700C00000812F0E940B0588EFF1
:100E60008C0D843020F40E9499180E945704DD20D4
:100E700089F00E94270C80FD0DC0F70115820E94A9
:100E8000210C0E941808C7010E9467070E94210CCC
:100E90000E942408CDB7DEB7E8E00C94BA210F9386
:100EA0001F93CF93DF93EC01688179818D810E943C
:100EB00001098C010E944F080E94E107B801CE0190
:100EC0000E946905DF91CF911F910F910895CF93F3
:100ED000DF93FC0124812223D1F0EC010E94D40392
:100EE00081110FC00E942B0C882389F08D818823EB
:100EF00071F08091630282FF0AC082E00E94F20CCE
:100F000006C0CE010E944F07CE010E94AF03DF91C1
:100F1000CF91089580E090E00E94B11880E090E0C9
:100F20000E94D6180E94520C0E947E0C0895809157
:100F30000001909101010E9443190E948A070895BF
:100F40000E94420C0E949707089592959F709630D8
:100F500079F010F4925001C09A50923068F4803FBA
:100F600069F018F4883E40F409C0843F29F406C0B3
:100F7000883E20F0813F11F080E0089581E00895DF
:100F8000FC012481222339F0808191810E94F6089E
:100F90000E94A507089580E00895A6E0B0E0E3ED83
:100FA000F7E00C94A4212696E2E00C94C021A7E07F
:100FB000B0E0EDEDF7E00C94A4212796E2E00C946C
:100FC000C021089508950E94E20708950E94E30752
:100FD00008950E94E6078093D30108950E94E907CF
:100FE00008959091D301892B0E94E907089590916B
:100FF000D30189230E94E90708959091D30189279D
:101000000E94E90708950E94E20708950E940308DC
:101010008093D201089580E00E940608089591E02F
:1010200001C0990F8A95EAF7892F0E940608089552
:1010300021E030E001C0220F8A95EAF78091D201C9
:10104000822B0E940608089521E030E001C0220FA3
:101050008A95EAF720958091D20182230E940608A2
:10106000089521E030E001C0220F8A95EAF78091CF
:10107000D20182270E94060808959091D201892BFF
:101080000E94060808959091D20189230E940608C3
:1010900008959091D20189270E9406080895089525
:1010A000962F9770A1E001C0AA0F9A95EAF793E0F6
:1010B000769567959A95E1F7FB01EE0FFF1F6E0F8E
:1010C0007F1FFA01E60FF71F40E050E0682F70E045
:1010D00090819B01042E02C0369527950A94E2F771
:1010E0002170219529272A23292721934F5F5F4FBC
:1010F0004330510569F708959B01782F777043E0DD
:10110000969587954A95E1F7FC01EE0FFF1F8E0F2C
:101110009F1FF901E80FF91F40E050E080E02191A6
:1011200030E0072E02C0369527950A94E2F7217029
:101130003327042E01C0220F0A94EAF7822B4F5F57
:101140005F4F4330510559F70895282F953070F4BB
:10115000823160F4862F622F70E022E1929F600D51
:10116000711D11244EEA51E00E94500808959530F7
:1011700070F4823160F4292F90E06EEA71E032E180
:10118000239F800D911D11240E947C08089580E00A
:101190000895CF92DF92FF920F931F93CF93DF9327
:1011A0006C010091D2018091D301082BC3E0D0E003
:1011B00010E0C8010C2E02C0959587950A94E2F7BD
:1011C00080FD04C02197A8F7F12C07C0FC2EB601C2
:1011D0008C2F0E9414100197A9F38F2DDF91CF91CE
:1011E0001F910F91FF90DF90CF900895CF93DF93E1
:1011F000EC010E94C908BE010E941410DF91CF913A
:1012000008951F93CF93DF93EB019091AD01992344
:1012100021F0CB010E94F60813C0882349F0CB01CE
:101220000E94C908182F682FCE010E94A50804C08B
:10123000CB010E94B708182FBE01812F0E94141005
:10124000DF91CF911F910895E1E0F0E0DF0102C04E
:10125000AA0FBB1F6A95E2F7BD01DF0102C0AA0F0A
:10126000BB1F4A95E2F7AD01462B01C0EE0F2A9550
:10127000EAF7942F9823491302C08E2B0895E09526
:101280008E230895242F462F682F8091D2010E942B
:1012900024090E94060808951F93CF93DF93C091FD
:1012A000D40117E08091D501C817A1F0D0E01C9FB0
:1012B000F0011D9FF00D1124EA52FE4F2081318173
:1012C000428153816481758186810E94D70721966E
:1012D000C770E8CFDF91CF911F91089520910E0242
:1012E00030910F0240911002509111026091120250
:1012F00070911302809114020E94D7070895CF9332
:10130000DF938091140282958F7009F04EC0809116
:101310001302882309F449C08091D4014091D5017A
:1013200050910F0260910E02C0911002D0911102F3
:1013300077E08417D1F190E0789FF001799FF00D6C
:101340001124DF01AA52BE4F14962C911497222328
:1013500049F111962C911197251324C02C91261335
:1013600021C015962C91159721111CC012962D9114
:101370003C9113972C1B3D0B283C310598F4809130
:1013800014028F70806180931402E452FE4F8081BA
:101390008F70806180838EE092E00E9467070E94D8
:1013A0004C0903C001968770C4CFDF91CF91089597
:1013B0002091D4019091D50157E02917A9F030E090
:1013C000529FF001539FF00D1124EA52FE4F71819C
:1013D000761306C07081781303C07581741306C03C
:1013E0002F5F3F4F2770E9CF80E0089581E0089597
:1013F000A4E1B0E0EEEFF9E00C949A218C0186E0D4
:10140000F801DE011F9601900D928A95E1F7F8012F
:101410008481E5809EE0A92E92E0B92E909112027F
:10142000911118C0882309F480C1EE20D9F1C801B8
:101430000E94C007F82E8823A9F187E0F801D501A2
:1014400001900D928A95E1F7C5010E94B5040E94B2
:101450007F0998C0F801C080D18082809380F0908D
:1014600013022091100230911102A401421B530B70
:10147000FF2009F406C1483C510508F0AFC088239D
:1014800009F455C180911402282F207F90910F02FA
:10149000222361F09D1509F462C0C8010E94C007B3
:1014A000811173C0C8010E9467073FC19D1115C01B
:1014B00090910E029C1111C0E1100FC08F708061DD
:1014C000809314020E946E098EE092E00E946707EA
:1014D00080911402F801868326C1E1103AC040E0F1
:1014E0006D2D8C2D0E94D80940E06D2D8C2D0E9411
:1014F000D809E82E811117C1CF86D88A8F8598899F
:101500000E94F608292F22952F70243020F49F7016
:10151000223028F009C02A50223080F014C09923CC
:1015200049F0811107C013C0992321F0F801968179
:10153000907F69F0805E883030F409C0803F38F0D9
:10154000815F833020F0C8010E946707EF2CFE2CDA
:10155000EEC080911402816080931402E4C09091E7
:101560000E029C119ACFE11098CFF8018683C80132
:101570000E94670787E0F801AEE0B2E001900D92AB
:101580008A95E1F70E946E09D2C0EE2009F48ACF55
:1015900020911402822F82958F7090E002978CF038
:1015A00080910E0290910F02998788879B868A8688
:1015B000809112028C871D862E87CE0108960E948C
:1015C000670787E0F801AEE0B2E001900D928A95DE
:1015D000E1F70E947F090E946E09A7C09091140252
:1015E000292F207FA1F4682D9A8A898AA6017A89F9
:1015F0009E2D0E94CD078EE092E00E94670787E053
:10160000F50111928A95E9F70E946E098CC0882332
:1016100009F48DC080910F028D1111C080910E02CE
:101620008C110DC0E1100BC0F8019683C8010E9417
:10163000670787E0F50111928A95E9F778C0C8013C
:101640000E94C007882309F42DCFEE2009F42ACF89
:1016500020911402822F82958F7090E002970CF4F3
:10166000B0CF80910E0290910F029A8389839C8261
:101670008B82809112028D831E822F83CE01019670
:101680009ECF483C510508F040C0882309F44DC066
:10169000FE2CEE2009F406CF80910F028D1127C099
:1016A00080910E028C1123C09091140290FD16C0FF
:1016B000892F82958F70282F30E02115310571F028
:1016C000F80196832F30310509F451CF8F5F982FA1
:1016D0009295907F86818F70892B48CF87E0F801A3
:1016E000AEE0B2E001900D928A95E1F720C0C8010A
:1016F0000E94C007811165CF8091140281608093A0
:101700001402C8010E94670712C0682D9A8A898A4C
:10171000A6017A899E2D0E94CD0787E0F5011192DE
:101720008A95E9F72FCFF12C02C0FF24F3948F2D77
:101730006496ECE00C94B621AEE0B0E0E2EAFBE0A7
:101740000C94A321288739874A875B876C877D871C
:101750008E87CE0108960E94F809882361F06C8577
:101760006623A9F1288539854A855B857D858E8527
:101770000E94D7072CC087E0FE013896DE01119643
:1017800001900D928A95E1F76C85662301F1209115
:10179000D50130E0C9010196877099274091D401A5
:1017A00050E084179507E1F16D8397E0929FD00197
:1017B000939FB00D1124AA52BE4FFE0131960190A5
:1017C0000D929A95E1F78093D5010E944C0917E09C
:1017D0008091D4019091D501891779F1189FC001AA
:1017E00011248A529E4F0E94F809882331F1E0911A
:1017F000D4011E9FF0011124EA52FE4F2081318155
:10180000428153816481758186810E94D7078091CE
:10181000D40190E00196877099278093D401D8CFA6
:101820000E94A0071092D5011092D401EEE0F2E0E0
:1018300087E0DF011D928A95E9F72E96E3E00C948C
:10184000BF2180911D028695869586950895809189
:101850001D028770089590911D02977081E009F430
:1018600080E0089580912902089590912902892BA2
:10187000809329020895809590912902892380936D
:101880002902089510922902089590912802892B27
:10189000809328020895809590912802892380934F
:1018A0002802089510922802089508950E94550C68
:1018B00008950E94560C089590911F02292F282305
:1018C000821729F0982B90931F020E94590C0895BB
:1018D00090911F02292F282331F08095892380932E
:1018E0001F020E94590C089580911F02882329F03D
:1018F00010921F0280E00E94590C0895CF93DF934D
:10190000E0910001F0910101809129028083E09132
:101910000001F0910101908180912802892B808340
:1019200080911F02882381F0E0910001F091010174
:101930009081892B808380910001909101010E9408
:10194000FB1881110E94740CC0910001D09101011B
:1019500048E050E065E172E0CE010E94CB21892B86
:1019600059F088E0FE01A5E1B2E001900D928A9560
:10197000E1F7CE010E94A618DF91CF9108950E9451
:10198000550C08950E94BF0C089590911E02292FB6
:10199000282331F08095892380931E020E94C20C77
:1019A00008950E94550C08959091630292FF11C012
:1019B00098E0899F90011124262B20931D020E94FC
:1019C000180880911D028695869586950E94D10CF7
:1019D00008950E941808089510921D0280E00E9448
:1019E000D10C089590911D028095892380931D024A
:1019F000282F277069F4981759F09091630292FF8D
:101A000007C08695869586950E9424080E94EC0C56
:101A100008959091630292FB222720F9281769F01C
:101A200080FB92F99093630280916202909163022D
:101A30000E94520D82E00E94F20C08958091630290
:101A400082FB882780F991E089270E94090D08957B
:101A500081E00E94090D089580E00E94090D08951B
:101A60006FEF7FEF80E090E00E941D22089580E0FC
:101A700090E00E94E921863E9E4F19F40E94D11207
:101A8000089580E0089582E090E00E94E1210895A9
:101A900083E090E00E94E121089584E090E00E94BC
:101AA000E9210895BC0184E090E00E941D22089580
:101AB000AB01BC018FE090E00E9411220895AB01C0
:101AC000BC0183E190E00E941122089560E070E083
:101AD000CB010E945F0D089560E070E0CB010E9491
:101AE000580D0E94660D0895A8E0B0E0EAE7FDE019
:101AF0000C94A42166EE7EEF80E090E00E941D220F
:101B000060E082E090E00E94FF2160E083E090E0EE
:101B10000E94FF211092D30160E074E184E090E024
:101B20000E941D2260E086E090E00E94FF216FEF9E
:101B300087E090E00E94FF2140E050E0BA0188E099
:101B400090E00E94112260E084E290E00E94FF2178
:101B500060E087E190E00E94FF2160E08CE090E08F
:101B60000E94FF2160E08DE090E00E94FF21198239
:101B70001A821B821C821D821E821F82188648E0E8
:101B800050E068E170E0CE0101960E94EF2140E054
:101B900050E0BA0180E290E00E94112280E00E94B1
:101BA000EA120E941F130E946C0D2896E2E00C942A
:101BB000C0210E94740D0895682F8EE090E00E946D
:101BC000FF210895A6E0B0E0E8EEFDE00C94A2212C
:101BD0000E94FA198C0180912A0290912B02081719
:101BE000190781F019821A820E94FA19682F498117
:101BF0005A81792F80E090E00E94820410932B029A
:101C000000932A022696E4E00C94BE210E94061A54
:101C1000609344027093450280934602909347027A
:101C2000609340027093410280934202909343027A
:101C3000089581E0089581E008950E941B0E0895A3
:101C400008950E94200E08950E94200E08950E947B
:101C5000240E08950E94200E08950E942A0E0895D1
:101C60000E94200E089584E091E10E94CC120E940F
:101C7000300E0E942D0E08950E94210E0E94200E0B
:101C800008950E9423110E94560408950E94F1199C
:101C90000E942F130E9423120E94410E0E94270EC1
:101CA0000895A8E0B0E0E7E5FEE00C9494210E94DE
:101CB000190E811103C00E94E20D87C00E943912E3
:101CC0008CE292E098878F838C01D12CF80181906F
:101CD0009190A190B1908F018D2D0E943E11DC0159
:101CE000CB0188259925AA25BB25D394F5E0DF16DD
:101CF00029F0892B8A2B8B2B49F304C0892B8A2B43
:101D00008B2BC9F28091480281FD0E944A110E94EA
:101D10001D0E282E10E033243394812F0E943E1193
:101D20002B013C01EF81F88580809180A280B380F7
:101D300086269726A826B92681149104A104B10409
:101D4000C9F100E0C12CD12C7601C394D501C401A6
:101D50008C219D21AE21BF21892B8A2B8B2BE9F071
:101D60002220D9F009831A830E94FA199C838B835D
:101D70003D8221E0D301C2018C219D21AE21BF21F2
:101D8000892B8A2B8B2B09F420E049815A816B81A6
:101D90007C818D81922F0E9482040F5FCC0CDD1C10
:101DA000EE1CFF1C023191F6EF81F88540825182D2
:101DB000628273821F5F8F819885049698878F83D4
:101DC000153009F0AACF0E94060E0E9469042896D9
:101DD000E2E10C94B0211F93CF93DF930E9419107E
:101DE000EC01C11580E5D807E8F5C11590E4D907E5
:101DF00008F0A8C0C03ED10530F5CD3CD10508F0B3
:101E000094C0C83AD10578F4C53AD10508F083C02A
:101E1000C130D10509F47CC008F4F2C0C430D1054A
:101E200008F0F1C0EDC0C33CD10508F0E9C0C85AC4
:101E3000D0E0CC0FDD1FC95BDE4F0990D881C02DEB
:101E4000CE019464E1C0C11580E2D80708F0CBC090
:101E5000C11591E0D90708F06BC0C83ED10508F460
:101E6000D2C0CEC0C03682E5D80728F5C03492E58E
:101E7000D90708F079C0C03282E5D80708F06CC0F5
:101E8000C11592E5D90708F481C04C2F46954695B7
:101E900080E2489FA0011124C37021E030E0C90115
:101EA00002C0880F991FCA95E2F7EA01C82BD92B07
:101EB000CE019D68A9C0C03A82E5D807B8F48C2F3E
:101EC0008F71C03892E5D90708F07BC0869586955A
:101ED00090E2899F90011124C37081E090E002C0DC
:101EE000880F991FCA95E2F79A6868C0C03C82E5DE
:101EF000D80708F46DC0C03E92E5D90708F080C04D
:101F0000CF71DD27DC2FCC27CE01806F906A7CC09B
:101F100081E090E079C0C55AD0E0C358DE4F888197
:101F2000C82FD0E0CE0190646FC0CE0190656CC028
:101F30008D2F0E94B510182FCE0199270E941910DD
:101F40001F715CC0CE0199270E941910CC27DF7049
:101F5000D06A8C2B9D2B58C0CF71D0E0DC2FCC27C2
:101F6000CE01816F906A50C08C2F8F7186958695B7
:101F700090E2899F90011124C37081E090E002C03B
:101F8000880F991FCA95E2F79C6818C08C2F8F7133
:101F90000E94B51095E0D695C7959A95E1F7CF7058
:101FA000D0E0DC2FCC27282F30E084FF05C084E070
:101FB000220F331F8A95E1F7D069CE01822B932B34
:101FC00023C090E0D82FCC27CE01846F906A1CC02C
:101FD0008C2F8F710E94B5108F7190E0D82FCC2775
:101FE000CE01906211C08D2F8F710E94B510182FF5
:101FF000CE0199270E9419101F719062912B04C085
:1020000080E090E001C0CE01DF91CF911F91089553
:10201000753038F4623128F4462F672F0E948416F9
:10202000089580E090E008950E9408100E94EB0E51
:1020300008958238910569F1B0F48133910509F46E
:1020400075C048F48932910509F467C08A32910558
:1020500009F471C008958533910509F459C0893395
:102060009105B9F00895833E910589F138F4803ED9
:102070009105D1F0823E910529F10895863E9105A2
:10208000C9F1873E9105D9F1843E910509F06CC0F4
:1020900027C02091620220FD57C021FD55C020912C
:1020A000630223FD5BC008958091620280FD48C0F9
:1020B0008091630280FF48C08091620284FD46C027
:1020C00083EE51C08091620282FF3CC0F5CF8091C7
:1020D000620282FD37C08091630280FD35C0ECCF83
:1020E0008091630281FF36C08091620284FD2EC020
:1020F00087EE39C08091620283FF2AC0F5CF8091BC
:10210000620283FD25C08091630281FD23C0ECCF74
:102110008091620285FD22C01FC08091620285FD10
:102120001BC08091630283FF19C00AC080916202C4
:1021300086FD16C017C08091620286FD13C010C0D4
:1021400089E311C082EE0FC080EE0DC080E00BC0AD
:1021500086EE09C084EE07C085E305C089E203C0AE
:102160008AE201C081E390E008959091620292FFBB
:1021700010C041E0282F2471243009F040E031E004
:10218000282F2871283009F030E0431711F02CE097
:10219000822793FF10C041E0282F2471243109F0D9
:1021A00040E031E0282F2871283109F030E0431752
:1021B00011F02CE082273091630230FF10C051E013
:1021C000282F2171213009F050E041E0282F28719B
:1021D000283009F040E0541711F029E0822731FF40
:1021E00010C041E0282F2171213109F040E031E099
:1021F000282F2871283109F030E0431711F029E029
:10220000822794FD877E089580E008950E94300D16
:1022100008950E9439122FEF86E791E02150804007
:102220009040E1F700C000000E94391280E00E9457
:102230003E1160FF04C00E9406110E94471A0895D3
:102240000E94091108950E94370D811102C00E9459
:10225000D90D0E94430D809348020E944D0D90932A
:102260006302809362020E9420110E94480D0E9426
:10227000EE078091D2010E940308089524E0829F16
:10228000C0011124FC01E858FD4F608171818281F9
:1022900093810895089580EA8A95F1F7089500C022
:1022A00008950E944B11089508950E9454110895B5
:1022B0000E94551108950E94541108950E945B11C7
:1022C0000895F894E82FE295EF70F0E031A1282FFF
:1022D0002F7081E090E001C0880F2A95EAF7982FCF
:1022E0009095932391A392A1892B82A3789408952A
:1022F0000F931F93CF93DF93C2E9D1E089918F3F72
:1023000011F00E94611181E0C739D807B9F7C0E820
:10231000D1E002E911E089918F3F11F00E94611133
:102320000C171D07C1F7DF91CF911F910F910895F1
:102330004F925F926F927F928F929F92AF92BF92D5
:10234000DF92EF92FF920F931F93CF93DF938C0155
:10235000C62FD0E0CE018E569E4F7C01FC019081AD
:102360009F3F09F460C0D62EF894E92FE295EF70F4
:10237000F0E081A19F7021E030E001C0220F9A952A
:10238000EAF7822B81A382A12095282322A37894A7
:102390000E944F11E0E8F1E022E931E0412C512C9C
:1023A00032014394812C912C540181918F3F99F0FB
:1023B000A82FA295AF70B0E090964C9150E08F702E
:1023C000BA0102C0759567958A95E2F760FD03C072
:1023D000D301C20103C080E090E0DC01882A992A81
:1023E000AA2ABB2A440C551C661C771C2E173F07D3
:1023F000E1F6F70180818F3F11F00E94611161E0E9
:1024000081149104A104B10409F460E08D2D0E94AF
:102410005111CC0FDD1FCC0FDD1FC00FD11F8882E3
:102420009982AA82BB82DF91CF911F910F91FF9079
:10243000EF90DF90BF90AF909F908F907F906F90C4
:102440005F904F9008950E94781184E1E8E7F2E0F0
:10245000DF01982F1D929A95E9F7E4E6F2E0DF019B
:102460001D928A95E9F785E00E9474120E945E1120
:102470000895A4E1B0E0EFE3F2E10C94A1218E0114
:102480000F5F1F4F84E1F80111928A95E9F7F12C53
:102490006F2DC8010E949811F394F5E0FF12F8CF58
:1024A00044E150E0B80184E692E00E94CB2121E0B3
:1024B000009709F420E0892B41F084E1F801A4E6BB
:1024C000B2E001900D928A95E1F745E068E772E08D
:1024D00084E692E00E947512182F0E945811812FF5
:1024E0006496E5E00C94BD210895EF92FF920F935E
:1024F0001F93CF93DF937C018B01C42F222349F0DC
:1025000081E080934B020E94FA1990934A028093D3
:10251000490280914B02811102C080E01DC0809170
:10252000490290914A020E94121A0597B0F384E082
:10253000C89FE0011124AE01B701C8010E94CB2160
:10254000892B39F0AE01B701C8010E94D82181E082
:1025500001C080E010924B02CDB7DEB7E6E00C94EC
:10256000BC210E94E41B0E94460E0E94F11B0895AC
:102570000E94F61B0E94510E0E94101C08950E949A
:1025800091190E94CA1B0E94330E0E94B1120E9430
:10259000B8120E943C0EFBCF9093A7018093A60136
:1025A000089585E290E00E94E121833281F486E281
:1025B00090E00E94E121893051F487E290E00E948E
:1025C000E12191E0853209F090E0892F01C080E09F
:1025D00081700895CF93C82F811102C06FEF01C0A1
:1025E00063E285E290E00E94FF21C11102C06FEF1B
:1025F00001C069E086E290E00E94FF21C11102C0A3
:102600006FEF01C065E287E290E00E94FF21CF9169
:102610000895089588E290E00E94E121682F70E01B
:1026200080E090E008950895CF93C62F0E94131381
:102630006C2F88E290E00E94FF21CF91089580E006
:102640000E94EA1260E070E0CB010E9414130E9425
:1026500024160E94D91681E00E94EA1208950E9471
:1026600009130E940A130E9413130E94D1128111B0
:1026700002C00E941F13089508959C01FB018581EB
:10268000882351F0A90157574038510530F4C9014A
:102690000E94E91680E0089581E008952FEFFC0183
:1026A000208308950E944E13089580E00895A0E0CD
:1026B000B0E0EDE5F3E10C949C21EC01D62E0E94F4
:1026C00055138111BFC0E8818E2F90E0FC01319736
:1026D000E331F10508F0B0C0EE59FF4F0C948721AB
:1026E00019828CE06CC08981823089F030F48130AD
:1026F00009F0A2C00E94061A0CC0833079F0843021
:1027000009F09AC01A821B821C821D8297C00E9407
:102710000A139A838B837C836D8390C0CA807E0169
:1027200000E010E0AC2CB12CC501800F911F059783
:1027300008F084C08C2D800F0E943E11F701838326
:10274000748365830F5F1F4FF3E0EF0EF11C0930B8
:10275000110551F773C08981823039F0853009F055
:102760006BC08A810E943C1369C06A817B818C8125
:102770009D810E948D210E94141360C04B816A814B
:1027800089810E94E8159C838D8358C02C813D81EE
:102790003227232732274B816A8189810E940916BB
:1027A0004DC00E9424164AC06D2DCE010E945213C6
:1027B00045C00E94901624C00E94921699838A8375
:1027C0003DC06B8170E089819A81AE014C5F5F4FA3
:1027D0009827892798270E94951630C06B8170E052
:1027E00089819A81AE014C5F5F4F9827892798278E
:1027F0000E94B81623C00E94D91620C00E94D51589
:1028000089831CC06B8170E089819A81AE014C5F25
:102810005F4F9827892798270E9442160FC06B8127
:1028200070E089819A81AE014C5F5F4F98278927BC
:1028300098270E94641602C08FEF88836D2DCE0109
:102840000E94B91ACDB7DEB7EAE00C94B821CF9355
:10285000DF93FC01DB0115968C91882309F4DDC020
:102860009F0130572332310508F0D8C0EF010E9494
:102870004D0D9093630280936202FE01E150F04798
:10288000E232F10520F4EB58FF4F0C948721809140
:1028900062028160AAC0809163028860B2C08091A8
:1028A00062028260A2C08091620220C080916202B6
:1028B00088609BC0809163021EC080916302826029
:1028C000A0C080916202806190C0809162028062AB
:1028D0008CC080916202806488C00E94A0078091B1
:1028E0006202806882C080916202886084607DC0DC
:1028F000809163028260816084C0809162028E7FD9
:1029000074C080916302877F7CC0809162028D7F5A
:102910006CC08091620220C080916202877F65C096
:10292000809163021EC0809163028D7F6AC0809196
:1029300062028F7E5AC0809162028F7D56C0809164
:1029400062028F7B52C00E94A007809162028F7743
:102950004CC080916202877F8B7F47C08091630269
:102960008D7F8E7F4EC08091620282FB222720F9EC
:1029700091E0922790FB82F990FB83F936C0809119
:102980006302982F909591708E7F892B90FB81F92F
:1029900038C08091620286FB222720F991E09227BD
:1029A00090FB86F922C00E94A0078091620287FBFB
:1029B000222720F991E0922790FB87F916C081E049
:1029C00001C080E00E94DC0D1EC08091620284FB89
:1029D000222720F991E0922790FB84F906C080918C
:1029E0006202982F909590FB80F9809362020BC051
:1029F0008091630283FB222720F991E0922790FBCC
:102A000083F98093630280916202909163020E9435
:102A1000520D0E94A00780E001C081E0DF91CF91BC
:102A20000895A0E0B0E0E7E1F5E10C949F21E82FE4
:102A3000F0E0E05EFB4FD490282F26952695269552
:102A400030E0F901E054FB4F0491877010E0082E4C
:102A500002C0159507950A94E2F701701127F90154
:102A6000E055FB4FE490F12C082E02C0F594E7945A
:102A70000A94E2F791E0E922FF24F901E056FB4FC6
:102A8000C491D0E002C0D595C7958A95E2F7C17090
:102A9000DD270115110519F081EE0E94BE04E11435
:102AA000F10419F086EE0E94BE048D2D0E9451059E
:102AB000E114F10419F086EE0E940B0501151105D1
:102AC00019F081EE0E940B05CD2B19F08CE20E94CB
:102AD0005105CDB7DEB7E7E00C94BB21EF92FF9232
:102AE0000F931F93CF93DF93EC01162F0AE0888199
:102AF000882309F455C0813009F043C089818130B1
:102B000041F47E0182E0E80EF11C8A810E945105A9
:102B100009C0823049F47E01E2E0EE0EF11C8A81A8
:102B20000E94BE04E7012FC0833041F47E01F2E031
:102B3000EF0EF11C8A810E940B05F4CF843011F056
:102B4000219621C02A81229680E090E030E0205337
:102B500031092A30310558F4089FA001099F500D12
:102B60001124C901840F951F21962881EFCF00976A
:102B700051F0EFE9FFE03197F1F700C00000019755
:102B8000F6CF0E9411152196812F882309F4AFCF2B
:102B9000EFE9FFE03197F1F700C000008150F5CF79
:102BA000CDB7DEB7E6E00C94BC2184E0089550E098
:102BB000440F551F24E2629F400D511D11249A01BC
:102BC00064EB869F200D311D1124C901899608955B
:102BD0000F931F93CF93DF938430A0F4653090F46C
:102BE000423180F40E94D7158C010E94E12190E0CF
:102BF000D82FCC27C80101960E94E1219E01282BE5
:102C0000C90102C080E090E0DF91CF911F910F9148
:102C100008950F931F93CF93DF93843080F4653032
:102C200070F4423160F4E9010E94D7158C016D2FD8
:102C30000E94FF216C2FC80101960E94FF21DF91A5
:102C4000CF911F910F9108951F93CF93DF93D0E001
:102C5000C0E010E0412F6C2F8D2F0E943E039C019D
:102C6000412F6C2F8D2F0E9409161F5F123191F793
:102C7000CF5FC53071F7DF5FD43051F7DF91CF916F
:102C80001F910895EF92FF920F931F93CF93DF93BD
:102C9000EA017A01E60EF71E8C01C8018996CE156D
:102CA000DF0569F0003D22E0120720F40E94E121D7
:102CB000888301C0188221960F5F1F4FEECFCDB7DA
:102CC000DEB7E6E00C94BC21EF92FF920F931F93C6
:102CD000CF93DF93EA017A01E60EF71E8C01C8015B
:102CE0008996CE15DF0559F0003D22E0120718F451
:102CF00068810E94FF2121960F5F1F4FF0CFCDB753
:102D0000DEB7E6E00C94BC21843038F4653028F45A
:102D1000423118F40E94E815089580E090E008958B
:102D200080E1089587E091E00895EF92FF920F937C
:102D30001F93CF93DF93EA017A01E60EF71E8C0111
:102D4000C80187509D4FCE15DF0569F0073021E09F
:102D5000120720F40E94E121888301C01882219685
:102D60000F5F1F4FEDCFCDB7DEB7E6E00C94BC216F
:102D7000EF92FF920F931F93CF93DF93EA017A01B3
:102D8000E60EF71E8C01C80187509D4FCE15DF055A
:102D900059F0073021E0120718F468810E94FF21E2
:102DA00021960F5F1F4FEFCFCDB7DEB7E6E00C9453
:102DB000BC21CF93DF93C9EFD2E060E0CE010E9447
:102DC000FF212196C11584E0D807B9F7DF91CF9193
:102DD0000895A8E0B0E0EFEEF6E10C949A21F82E09
:102DE0008FE08F1508F474C08FEF93E00E94E1210B
:102DF00081116EC009EF12E0FF2071F0011594E01F
:102E0000190709F465C0C8010E94E121811101C0C0
:102E1000FA940F5F1F4FF0CFFE0131966F0188E0EB
:102E200011928A95E9F77801FFEFEF1AFF0AC801BE
:102E30000E94E12189831A82882309F449C08130E4
:102E400009F040C0580182E0A80EB11CC7010E94E1
:102E5000E1218A838823E1F19FEF980F933060F49A
:102E6000780193E0E90EF11CC5010E94E1218B83FA
:102E7000882371F11C8226C0843019F54E01E3E0ED
:102E80008E0E911C02E010E07501FFEFEF1AFF0AB1
:102E9000C5010E94E121F40181934F018823C1F013
:102EA0008C3741F4E2E0F0E0EC0FFD1FE00FF11F82
:102EB000108208C00F5F1F4F57010730110521F71F
:102EC00007C0750160E0C6010E946E158701ABCF97
:102ED0002896ECE00C94B621CF93DF9386319C4783
:102EE00041F5EB010E94320C982F8D812091000159
:102EF00030910101882379F09A7A81E009F480E029
:102F000080934C02911102C069E201C065E3C901DE
:102F10000E943D190AC080914C02811102C069E2F1
:102F200001C065E3C9010E9440190E947E0C80E047
:102F300001C081E0DF91CF9108950F931F93CF934C
:102F4000DF93C42FD22FFC0185818823B1F04093F9
:102F50004F020E94FA1990934E0280934D0280E234
:102F60008C0F883008F04DC0C77081E001C0880F19
:102F7000CA95EAF70E945B0544C080914F0248134E
:102F800030C080914D0290914E020E94121A883CEE
:102F9000910538F510E21D0FCD17B9F080E28C0FC6
:102FA000883040F4C77081E001C0880FCA95EAF705
:102FB0000E946205183010F581E09D2F977001C0C6
:102FC000880F9A95EAF70E945B05802F0E945105B1
:102FD0001830B8F4D77081E001C0880FDA95EAF7AD
:102FE0000AC080E28C0F883060F4C77081E001C0B5
:102FF000880FCA95EAF70E94620503C0802F0E94DD
:103000005105DF91CF911F910F9108950F93FC010E
:10301000E851FC47E730F10590F5CB01E956FF4F49
:103020000C94872106E221EE41EE6AE17CE723C0A1
:1030300007E225EE45EE6BE17CE71DC006E221EEDE
:1030400040EE68E17CE717C007E225EE44EE69E157
:103050007CE711C006E221EE42EE6CE17CE70BC09A
:1030600007E225EE46EE6DE17CE705C008E221E0CF
:1030700045EE6EE17CE70E949D1780E008C0FB01F1
:103080008581882319F010924F0201C081E00F91D1
:1030900008951F93CF93DF9387372CE7920721F092
:1030A00088379C4759F031C0FB01C581CC2319F00A
:1030B0000E948B1809C00E948B1818C0FB01C581A3
:1030C000CC2391F00E948E180E9418080E9491183B
:1030D000D82F0E948E18C82F0E948B184D2F6C2F4E
:1030E0000E944209C0E012C00E948E180E9424086B
:1030F0000E949118182F0E948E18D82F0E948B18AA
:10310000412F6D2F0E94420901C0C1E08C2FDF9139
:10311000CF911F910895809104010895809103013A
:10312000089580910201089590935502809354026E
:103130000895E0915402F0915502309729F00190E2
:10314000F081E02D0995089580E00895E091540202
:10315000F0915502309721F00280F381E02D09951E
:103160000895A3E0B0E0E7EBF8E10C94A4212091EE
:1031700052023091530228173907A1F0909353025D
:1031800080935202E0915402F0915502309751F031
:1031900023E029839B838A830680F781E02DCE017B
:1031A000019609952396E2E00C94C021A3E0B0E0DB
:1031B000ECEDF8E10C94A4212091500230915102E1
:1031C00028173907A1F09093510280935002E091A3
:1031D0005402F0915502309751F024E029839B83EB
:1031E0008A830680F781E02DCE010196099523960A
:1031F000E2E00C94C021FC01329697E080E091500F
:1032000029F021912223D9F38F5FF9CF0895662306
:1032100049F0FC01329608962191621729F0E817CF
:10322000F907D1F780E0089581E008959C01FC0141
:1032300032969FEF80E04191461789F09F3F19F445
:10324000411101C0982F8F5F8630A9F79F3F39F059
:10325000F901E90FF11D97FDFA956283089508952C
:103260009C012A5F3F4FFC014281461301C012823C
:10327000019682179307B9F708950E9416190895C9
:103280000E9430190895029626E0FC0111922A95B9
:10329000E9F7089508950E944A19089583E08093FC
:1032A00056020E944B190895811102C081E001C0AD
:1032B00082E0809356020E944B1908950E9454198F
:1032C000089581E0809356020E944B1908950E9450
:1032D0006119089508950E946A1908950E946B1952
:1032E00008950E946A1908950E946A1908950E941B
:1032F0006A190895CF930E9474190E9439120E948E
:103300007119C0E08C2F0E943E11672B682B692B2E
:1033100029F4CF5FC530B1F780E001C081E0CF91E3
:10332000089585B7806885BF85B7806885BF089593
:103330001F920F920FB60F9211248F939F93AF930A
:10334000BF9380915702811113C080918C0290919C
:103350008D02A0918E02B0918F024196A11DB11DE8
:1033600080938C0290938D02A0938E02B0938F0273
:10337000BF91AF919F918F910F900FBE0F901F90B3
:10338000189580919402843031F10E943904109292
:10339000570220E488E190E00FB6F894A895809356
:1033A00060000FBE2093600083B7817F846083BF7D
:1033B00083B7816083BF7894889583B78E7F83BFFE
:1033C0000FB6F894A89580916000886180936000A2
:1033D000109260000FBE08950E94A0070E943E0454
:1033E000089582E084BD93E095BD9AEF97BD8093E8
:1033F0006E0008952FB7F89480918C0290918D0201
:10340000A0918E02B0918F022FBF08952FB7F8942C
:1034100060918C0270918D0280918E0290918F024A
:103420002FBF08959C014FB7F89480918C02909122
:103430008D02A0918E02B0918F024FBF821B930B21
:10344000089578941F920F920FB60F9211248F93C4
:103450009F93AF93BF9380918C0290918D02A09126
:103460008E02B0918F020196A11DB11D80938C0236
:1034700090938D02A0938E02B0938F02BF91AF9173
:103480009F918F910F900FBE0F901F90189581E024
:103490008093E00080E28093D8001092C9008FE111
:1034A0009EE40197F1F700C0000087E090EBDC019B
:1034B00080939D0290939E02A0939F02B093A002DE
:1034C0009CE088E10FB6F894A895809360000FBE49
:1034D00090936000FFCF9CE088E10FB6F894A89528
:1034E000809360000FBE90936000FFCF80916002D8
:1034F000089508959B01909194029430F1F48F7097
:103500008093E9008FEF9091E800815095FD06C00F
:1035100095ED9A95F1F700008111F5CF8091E800C3
:1035200085FF0BC0BA01C90140E050E00E94B41C05
:103530008091E8008E778093E800089543E050E0A2
:10354000BC0184E00E947A1A0895CF93DF93EC01C6
:1035500048E050E0BC0181E00E947A1A88E0FE0158
:10356000A8E5B2E001900D928A95E1F7DF91CF9145
:103570000895603231F4BC0140E250E082E00E94E4
:103580007A1A089580919302811109C00E94841EC5
:103590000E94E11E8091E20084608093E200089521
:1035A0001092930208950E94671908956091900205
:1035B00081E0611101C080E00E944E190895909150
:1035C000940281E0943009F080E0609190020E94C2
:1035D0005419089542E061EC81E00E94FD1D42E231
:1035E00061EC84E00E94FD1D42E261EC82E00E94F9
:1035F000FD1D42E260EC83E00E94FD1D909194026B
:1036000081E0943009F080E0609190020E945E19A0
:10361000089580919602833009F463C030F48130BC
:1036200071F0823009F49DC008958A3009F489C090
:103630008B3009F46EC0893009F0ABC020C0809196
:103640009502813A09F0A5C08091E800877F8093B8
:10365000E8008091990290919A02892B21F468E008
:1036600088E592E003C060E080E090E070E00E94B6
:103670003E1D8091E8008B778093E800089580914B
:103680009502813209F085C08091990290919A0249
:10369000009719F0029709F07CC08091E800877FBD
:1036A0008093E8008091E80082FD05C0809194023B
:1036B0008111F8CF6EC02091F3008091F20090E06C
:1036C000922B029731F48091F100813011F0863015
:1036D00021F48091F100809360028091E8008B7763
:1036E00054C080919502813A09F053C080919902AB
:1036F00090919A02892B09F04CC08091E800877F55
:103700008093E8008091E80080FFFCCF80910D015C
:1037100037C0809195028132E1F5809199029091B4
:103720009A02892BB1F58091E800877F8093E800A9
:103730000E94321E8091970280930D010E94A00783
:10374000089580919502813221F58091E800877F6C
:103750008093E8000E94321E80919802809361025B
:10376000089580919502813AA1F48091E800877FC5
:103770008093E8008091E80080FFFCCF8091610297
:103780008093F1008091E8008E778093E8000E949A
:10379000321E089584B7877F84BF0FB6F894A8952A
:1037A00080916000886180936000109260000FBE7D
:1037B00090E080E80FB6F8948093610090936100E8
:1037C0000FBE0E94611908950E94841E0E94E11E8E
:1037D000E2EEF0E080818460808378940E946C2126
:1037E000089585E091E00E949418089580919402D4
:1037F0008530A9F480919402853079F40E94C11932
:10380000809192028823B1F30E947A19882391F360
:103810000E949E1C0E94A007EDCF0E94EC19089503
:10382000A0E2B0E0E6E1FCE10C94A42180919402D6
:10383000843011F583E08093E9008091E80082FFF5
:103840001BC08091E80085FF0AC040E050E060E2C4
:1038500070E0CE0101960E94F91C91E001C090E059
:103860008091E8008B778093E800992329F060E24B
:10387000CE0101960E945713A096E2E00C94C0215D
:103880009A0140919B0250919C020E94481C08950D
:10389000492F552743305105C9F060F44130510597
:1038A00081F04230510509F041C08BE590E042E0E3
:1038B00055E040C041325105E1F04232510531F14D
:1038C00035C082E190E04DE555E034C09927813064
:1038D000910549F028F0029749F5E0EDF4E005C0C4
:1038E000EEEFF4E002C0E0EFF4E0849190E0AF018D
:1038F00021C063307105D0F4660F771FFB01E056DD
:10390000FE4F4081518189E090E014C06330710521
:1039100068F4FB01EE0FFF1FE656FE4F4081518118
:10392000FB01E956FE4F808190E004C080E090E00A
:1039300040E050E0F90151834083089580E189BD62
:1039400082E189BD09B400FEFDCF8091D8008F7D52
:103950008093D8008091E00082608093E0008091A5
:10396000E00081FDFCCF0895A0E0B0E0EAEBFCE1CF
:103970000C949E21EC018B017A010E94511E811151
:1039800033C0E114F10439F0F70180819181081B03
:10399000190BC80FD91FC12CD12C0115110519F114
:1039A0008091E80085FD16C08091E8008E778093B5
:1039B000E800E114F10449F0F70180819181C80E1B
:1039C000D91ED182C08285E00FC00E94511E88237B
:1039D00021F30AC089918093F10001501109FFEF92
:1039E000CF1ADF0ADACF80E0CDB7DEB7E8E00C947B
:1039F000BA21A0E0B0E0EFEFFCE10C949E21EC01D5
:103A00008B017A010E94511E811133C0E114F1042F
:103A100039F0F70180819181081B190BC80FD91F5C
:103A2000C12CD12C0115110519F18091E80085FDFB
:103A300016C08091E8008B778093E800E114F104D0
:103A400049F0F70180819181C80ED91ED182C082D0
:103A500085E00FC00E94511E882321F30AC0809187
:103A6000F100899301501109FFEFCF1ADF0ADACF75
:103A700080E0CDB7DEB7E8E00C94BA2120919B023C
:103A800030919C022617370748F06115710539F40B
:103A90002091E8002E772093E80001C0B901FC01D5
:103AA00020E06115710579F1809194028823F1F18C
:103AB0008530F1F18091E80083FD3CC08091E80001
:103AC00082FD2EC08091E80080FFEBCF2091F300B3
:103AD0008091F20090E0922B6115710551F08830D1
:103AE000910538F421912093F100615071090196FC
:103AF000F3CF21E0089709F020E08091E8008E776D
:103B00008093E800CECF2111CFCF0AC080919402DC
:103B1000882361F0853061F08091E80083FD0AC060
:103B20008091E80082FFF2CF80E0089582E008955E
:103B300083E0089581E0089520919B0230919C02DA
:103B40002617370748F06115710539F42091E80010
:103B50002E772093E80001C0B901FC0120E0611537
:103B6000710591F180919402882309F440C0853059
:103B700009F43FC08091E80083FD3DC08091E800DA
:103B800082FD2FC08091E80080FFE9CF2091F300F3
:103B90008091F20090E0922B6115710559F0883008
:103BA000910540F424912093F10031966150710900
:103BB0000196F2CF21E0089709F020E08091E8001B
:103BC0008E778093E800CBCF2111CCCF0AC08091B3
:103BD0009402882361F0853061F08091E80083FDD4
:103BE0000AC08091E80082FFF2CF80E0089582E071
:103BF000089583E0089581E00895982F973068F53F
:103C00009093E900981739F07091EC002091ED0045
:103C10005091F00003C0242F762F50E021FD02C008
:103C20009F5FECCF3091EB003E7F3093EB00309103
:103C3000ED003D7F3093ED003091EB00316030932B
:103C4000EB007093EC002093ED005093F000209176
:103C5000EE0027FDE5CF80E008958F708093E900A6
:103C600081E008958091950287FF11C08091E8005E
:103C700082FD05C0809194028111F8CF11C080911E
:103C8000E8008B770BC080919402882349F08091E3
:103C9000E80080FFF8CF8091E8008E778093E800FD
:103CA00008952091E4003091E50095E64091EC0004
:103CB000842F817040FF23C08091E80080FD1DC0EB
:103CC00080919402882399F0853099F08091EB00DF
:103CD00085FD11C04091E4005091E500241735079F
:103CE00029F3915011F09A01E1CF84E0089582E028
:103CF000089583E0089581E0089580E0089540915B
:103D0000E80042FFDDCF08950E94F31E0E94FB1ED3
:103D1000E0EEF0E0808181608083E8EDF0E080817A
:103D20008F77808319BCA7EDB0E08C918E7F8C9348
:103D300080818F7E80831092930208950F931F934A
:103D4000CF93DF930E94F31E0E94FB1EC8EDD0E0CC
:103D500088818F77888388818068888388818F7D38
:103D6000888319BC109294021092900210929202D1
:103D70001092910200EE10E0F80180818B7F808329
:103D800088818160888342E060E080E00E94FD1DC0
:103D9000E1EEF0E080818E7F8083E2EEF0E08081D2
:103DA00081608083808188608083F80180818E7F3C
:103DB0008083888180618883DF91CF911F910F91EB
:103DC0000895E8EDF0E080818F7E8083E7EDF0E0FC
:103DD00080818160808384E082BF81E08093930250
:103DE0000E949E1E0895E8EDF0E080818E7F808322
:103DF0001092E20008951092DA001092E100089506
:103E00001F920F920FB60F9211242F933F934F934F
:103E10005F936F937F938F939F93AF93BF93EF9332
:103E2000FF938091E10082FF0BC08091E20082FF4E
:103E300007C08091E1008B7F8093E1000E946B219D
:103E40008091DA0080FF1FC08091D80080FF1BC0E6
:103E50008091DA008E7F8093DA008091D90080FF14
:103E60000DC080E189BD82E189BD09B400FEFDCFAE
:103E700081E0809394020E94C21A05C019BC10927E
:103E800094020E94D01A8091E10080FF19C08091B5
:103E9000E20080FF15C08091E2008E7F8093E200F7
:103EA0008091E20080618093E2008091D80080627E
:103EB0008093D80019BC85E0809394020E94D61AA2
:103EC0008091E10084FF30C08091E20084FF2CC02B
:103ED00080E189BD82E189BD09B400FEFDCF8091FA
:103EE000D8008F7D8093D8008091E1008F7E8093F1
:103EF000E1008091E2008F7E8093E2008091E200F9
:103F000081608093E20080919002882311F084E028
:103F100007C08091E30087FD02C081E001C083E01B
:103F2000809394020E94DF1A8091E10083FF29C0F0
:103F30008091E20083FF25C08091E100877F80931C
:103F4000E10082E080939402109290028091E1005F
:103F50008E7F8093E1008091E2008E7F8093E2006B
:103F60008091E20080618093E20042E060E080E0C6
:103F70000E94FD1D8091F00088608093F0000E94F7
:103F8000D31AFF91EF91BF91AF919F918F917F9144
:103F90006F915F914F913F912F910F900FBE0F90B6
:103FA0001F9018951F920F920FB60F9211242F9306
:103FB0003F934F935F936F937F938F939F93AF93B1
:103FC000BF93CF93DF93EF93FF93C091E900CF703E
:103FD0008091EC00D82FD17080FDD0E81092E900DC
:103FE0008091F000877F8093F00078940E941620E3
:103FF0001092E9008091F00088608093F000CD2B52
:10400000CF70C093E900FF91EF91DF91CF91BF9105
:10401000AF919F918F917F916F915F914F913F9160
:104020002F910F900FBE0F901F901895AAE2B0E04D
:10403000ECE1F0E20C94A321E5E9F2E08091F100DB
:10404000819322E0ED39F207C9F70E94091B8091A4
:10405000E80083FF2EC18091950290919602492F2E
:1040600050E04A30510508F024C1FA01E256FF4FF2
:104070000C948721803821F0823809F01AC108C0D9
:104080008091910290919202992389F082600FC0F1
:10409000809199028F70873008F00BC18093E900FE
:1040A0008091EB0085FB882780F91092E9009091C0
:1040B000E800977F9093E8008093F1001092F10060
:1040C000D1C0282F2D7F09F0F4C0882319F0823049
:1040D00061F0EFC080919702813009F0EAC093301F
:1040E00009F080E0809392022EC0809197028111A6
:1040F0002AC0809199028F702FEF280F263008F088
:10410000D8C08093E9002091EB0020FF1CC09330C1
:1041100021F48091EB00806214C09091EB009061DB
:104120009093EB0021E030E0A90102C0440F551F3D
:104130008A95E2F74093EA001092EA008091EB0042
:1041400088608093EB001092E9008091E800877FFF
:104150008093E8000E94321EACC08111AAC0109169
:1041600097021F778091E3008078812B8093E30092
:104170008091E800877F8093E8000E94321E809142
:10418000E80080FFFCCF8091E30080688093E3002B
:10419000111102C082E001C083E08093940289C0C3
:1041A0008058823008F085C08091970290919802E3
:1041B0008C3D53E0950779F583E08A838AE2898311
:1041C0004FB7F894DE01139620E03EE051E2E32F72
:1041D000F0E050935700E49120FF03C0E295EF70A8
:1041E0003F5FEF708E2F90E0EA3010F0C79601C06D
:1041F000C0968D939D932F5F243149F74FBF8091D7
:10420000E800877F8093E8006AE270E0CE010196C3
:104210000E943E1D16C06091990270919A02AE01F3
:104220004F5F5F4F0E94401CBC01892B09F441C0C5
:104230009091E800977F9093E80089819A810E948D
:104240009C1D8091E8008B778093E80032C0803815
:1042500081F58091E800877F8093E800809190024B
:104260008093F1008091E8008E7772CF811121C098
:10427000809197029091980299270297D4F48091A7
:10428000E800877F8093E8008091970280939002F6
:104290000E94321E80919002811106C08091E3003D
:1042A00087FD02C081E001C084E0809394020E94F7
:1042B000EA1A8091E80083FF0AC08091E800877FB6
:1042C0008093E8008091EB0080628093EB00AA96D7
:1042D000E3E00C94BF210895CF938091940288234A
:1042E000A1F0C091E900CF709091EC00892F81700E
:1042F00090FD80E8C82B1092E9008091E80083FDD2
:104300000E941620CF70C093E900CF910895EE0F60
:10431000FF1F0590F491E02D0994692796276927DE
:1043200078278727782708952F923F924F925F92A0
:104330006F927F928F929F92AF92BF92CF92DF92B5
:10434000EF92FF920F931F93CF93DF93CDB7DEB71A
:10435000CA1BDB0B0FB6F894DEBF0FBECDBF0994AE
:104360002A88398848885F846E847D848C849B8405
:10437000AA84B984C884DF80EE80FD800C811B8113
:10438000AA81B981CE0FD11D0FB6F894DEBF0FBE42
:10439000CDBFED010895FB01DC0104C08D910190BA
:1043A000801921F441505040C8F7881B990B08959B
:1043B000FB01DC0102C001900D9241505040D8F742
:1043C0000895F999FECF92BD81BDF89A992780B5DD
:1043D0000895A8E1B0E042E050E00C942522DC0111
:1043E000A40FB51F4150504048F0CB01840F951FDA
:1043F0002E910E94002241505040D0F70895262F60
:10440000F999FECF92BD81BDF89A019700B40216CA
:1044100039F01FBA20BD0FB6F894FA9AF99A0FBE78
:1044200008950396272F0E9400220E94FF21252F26
:104430000E940022242F0C9400220196272F0E9414
:1044400000220C94FF21DC01CB01FC01F999FECF85
:1044500006C0F2BDE1BDF89A319600B40D9241500C
:0A4460005040B8F70895F894FFCF1C
:10446A002002030201761AA51A791A9E1A01E2009D
:10447A00E900EA00B500B600B700CD008301CC0020
:10448A008A019201940121022302240225022602B2
:10449A0027022A02B300B4006F0070009F01CB010B
:1044AA009F02A002818283E200E900EA00B500B619
:1044BA0000B700CD008301CC008A0192019401214A
:1044CA0002230224022502260227022A02B300B48A
:1044DA00006F0070009F01CB019F02A002818283BE
:1044EA00F667F4F5F1369092939197949596343550
:1044FA006637F737F5F130442232C3056F05910567
:06450A0014052D054D050E
:00000001FF
