:10000000D7C30000F2C300000AC40000EEC3000022
:10001000ECC30000EAC30000E8C30000E6C3000030
:10002000E4C30000E2C300000C94B51FDEC300006F
:10003000DCC30000DAC30000D8C30000D6C3000050
:10004000D4C30000D2C30000D0C30000CEC3000060
:10005000CCC3000000000000000000000000000011
:100060000000000000000000000000000000000090
:1000700000000000000000007E0F00D4FFFFFFC75B
:100080000000007800000000000000002A2B28007B
:100090000000000000000000000000000000002937
:1000A000000000002C1E3420212224342627252E77
:1000B000362D3738271E1F202122232425263333AF
:1000C000362E37381F0405060708090A0B0C0D0EDB
:1000D0000F101112131415161718191A1B1C1D2FA7
:1000E0003130232D350405060708090A0B0C0D0EC7
:1000F0000F101112131415161718191A1B1C1D2F87
:100100003130354C1E0F057F3F1F643214783C1E82
:100110001E140A0500010101010101010101020291
:1001200002020202020202030303030303030304A5
:100130000404040404040505050505060606060670
:10014000070707070708080808090909090A0A0A2A
:100150000B0B0B0C0C0C0D0D0D0E0E0E0F0F0F10CC
:100160001011111112121313141415151616171756
:10017000181819191A1A1B1B1C1D1D1E1E1F2020C2
:10018000212222232424252626272829292A2B2C0C
:100190002D2D2E2F30313232333435363738393A2F
:1001A0003B3C3D3E3F404142434445464748494A27
:1001B0004C4D4E4F50515354555658595A5B5D5EF5
:1001C0005F616264656668696B6C6D6F7072737590
:1001D00077787A7B7D7E8082838587888A8C8E8FF4
:1001E00091939596989A9C9EA0A2A3A5A7A9ABAD22
:1001F000AFB1B3B5B7BABCBEC0C2C4C6C9CBCDCF10
:10020000D1D4D6D8DBDDDFE2E4E7E9EBEEF0F3F5BD
:10021000F8FAFDFFFFAA7F55402223252628292A28
:100220002C2D2F3032333536383A3B3D3E40424359
:100230004547494A4C4E5051535557595A5C5E6098
:1002400062646668696B6D6F71737577797B7D7FAA
:1002500081838587898A8C8E90929496989A9C9EA9
:100260009FA1A3A5A7A8AAACAEAFB1B3B4B6B8B9C5
:10027000BBBCBEBFC1C2C3C5C6C7C9CACBCCCDCE2D
:10028000D0D1D2D2D3D4D5D6D7D7D8D9D9DADADB10
:10029000DBDBDCDCDCDCDCDDDDDDDDDCDCDCDCDC9C
:1002A000DBDBDBDADAD9D9D8D7D7D6D5D4D3D2D2DB
:1002B000D1D0CECDCCCBCAC9C7C6C5C3C2C1BFBEC3
:1002C000BCBBB9B8B6B4B3B1AFAEACAAA8A7A5A32E
:1002D000A19F9E9C9A98969492908E8C8A898785ED
:1002E00083817F7D7B79777573716F6D6B696866CC
:1002F0006462605E5C5A5957555351504E4C4A499E
:1003000047454342403E3D3B3A3836353332302F45
:100310002D2C2A29282625232229003A003B003C9F
:10032000003D003E003F004000410000004200430D
:1003300000440045004900AE0035001E001F0020AB
:100340000021002200230024002500260027002D84
:10035000002E002A002A004A002B0014001A000870
:1003600000150017001C0018000C00120013002FCD
:10037000003000310000004D003900040016000775
:100380000009000A000B000D000E000F00330034BE
:10039000002800000000004B00E1001D001B0006CB
:1003A000001900050011001000360037003800E584
:1003B000000000000052004E00E000E300E20000F8
:1003C000002C00000000000000E6002152E4005074
:1003D000000000000051004F000100010001000179
:1003E0000001000100010001000100000001000106
:1003F00000010001000100010001000100010001F5
:1004000000010001000100010001000100010001E4
:10041000000100007C007C0100010020782178238D
:10042000782478257826782778287801000100013B
:1004300000010001000000010001000100010001B5
:1004400000010001000100010001000100010001A4
:100450000001000000000001000100010001000196
:10046000000378027804780578010001000100019A
:100470000000000000010001000100010001000077
:100480000001000000000000000100010001000167
:100490000000000000010001000100010001000156
:1004A0000001000100010001000100000001000145
:1004B0000001000100010001000100010001000134
:1004C0000001000100010001000100010001000124
:1004D0000001000100010001000100010001000114
:1004E0000001000100010001000100010001000104
:1004F00000010001000000010001000100010001F5
:1005000000010001000100010001000100010001E3
:1005100000010000000000010001000100010001D5
:1005200000010001000100010001000100010001C3
:1005300000000000000100010001000100010000B6
:1005400000010000000000000001000100010001A6
:100550000000000000010001000100010001000195
:100560000001000100010001000100000001000184
:100570000001000100010001000100010001000173
:100580000001000100010001000100010001000163
:100590000001000100010001000100010001000153
:1005A0000001000100010001000100010001000143
:1005B0000001000100000001000100010001000134
:1005C0000001000100010001000100010001000123
:1005D0000001000000000001000100010001000115
:1005E0000001000100010001000100010001000103
:1005F00000000000000100010001000100010000F6
:1006000000010000000000000001000100010001E5
:10061000000000000001000100AA00A90001000183
:1006200000010001000100010005010902A101858E
:10063000020901A1000509190129081500250195E4
:1006400008750181020501093009311581257F9561
:10065000027508810609381581257F950175088185
:1006600006050C0A38021581257F9501750881065B
:10067000C0C005010980A101850319012AB7001531
:100680000126B700950175108100C0050C0901A174
:1006900001850419012AA002150126A00295017501
:1006A000108100C00660FF0961A1010962150026E2
:1006B000FF009520750881020963150026FF00954B
:1006C0002075089102C005010906A101050719E07E
:1006D00029E7150025019508750181029501750826
:1006E00081030507190029FF150026FF00950675EF
:1006F00008810005081901290515002501950575D2
:10070000019102950175039103C01E03520041003F
:100710005200540037003500200048006F0074007C
:1007200073007700610070000000120341006C004C
:100730006100620061006800750079000000040338
:10074000090409025B00030100A0FA09040000018A
:100750000301010009210101000122440007058174
:10076000030800010904010002030000000921013F
:100770000100012222000705840308000107050487
:10078000030800010904020001030000000921011F
:10079000010001227B0007058303080001120110FC
:1007A00001000000084C41755503000102000100E2
:1007B00011241FBECFE5D8E0DEBFCDBF11E0A0E61B
:1007C000B0E0E0E8F0E502C005900D92AA30B10774
:1007D000D9F722E0AAE0B1E001C01D92A83CB2071F
:1007E000E1F70E94DB1F0C943E280ACCA82FB92FFA
:1007F00080E090E041E050EA609530E009C02D9142
:1008000082279795879510F084279527305EC8F347
:100810006F5FA8F30895EADF8D939D930895CF93BA
:10082000CFB7CF93DF93C395839BE9F7839B10C02A
:10083000839B0EC0839B0CC0839B0AC0839B08C014
:10084000839B06C0C091A202C395C093A2028EC032
:100850006F93C091A102DD27CA55DD4F2F9365E547
:10086000839B03C02F916F91E1CF0F931F934F9301
:1008700020E040E15F9300B30C7003FB27F93F9346
:1008800050E03BE039C01C7040642F77012F5F5F60
:100890001EC0406810B31C702F7752501FC04064B8
:1008A00000B32F770C70D1F15F5F00C023C04062AE
:1008B00010B32F771C7091F15F5F00C025C00C70E2
:1008C0001027515012F45D5F0000115027952C3F06
:1008D00010B3C8F61C700127015027952C3FC8F6AD
:1008E0004227499300B30C7010274F73115027957E
:1008F0002C3FA8F64695469510B31C7079F0012759
:10090000015027952C3F98F66B5A60F3315000B395
:10091000B0F600C010E81ABF00271CC03B5031954C
:10092000C31BD04010E81ABF0881033C21F10B34EF
:1009300011F120919F021981110F1213EDCF4A81FD
:10094000441F093679F10D3211F0013E29F74F703D
:1009500009F0042F0093A5023F915F914F911F91E1
:100960000F912F916F91CAB7C7FD5DCFDF91CF91E6
:10097000CFBFCF9118952091A502222369F3109142
:10098000A302112309F049C034300AF448C030935F
:10099000A3022093A0021091A1023BE0311B3093EF
:1009A000A1023DC00091A3020130BCF50AE54F70E1
:1009B00049F43091880034FD33C000938800CCE7BF
:1009C000D2E032C0433059F0443091F03091870288
:1009D00034FD26C000938702C8E8D2E025C03091DC
:1009E000BC0234FD1DC00093BC02CDEBD2E01CC0A4
:1009F0003091930234FD14C000939302C4E9D2E015
:100A000013C0052710E000C0000002BB1AC0052774
:100A100010E0221F1DC010E021C04AE502C032EDE7
:100A2000432FC4E1D0E032E011B31C60939A02B3CB
:100A300011BB5CE020E865E320FF052702BB27959A
:100A400017951C3FF0F66695B8F7B1F720FF05271C
:100A500002BB279517951C3FD0F62795179517FFD2
:100A6000052700001C3F02BBB0F629913A9519F703
:100A7000037F1091A402110FC651D04002BB11F0A8
:100A800010939F0210E81ABF086011B3137F402F24
:100A9000437F54E05A95F1F702BB11BB42BB5CCFD8
:100AA000482F209170029091370257E0291302C01D
:100AB00080E0089530E0529FF001539FF00D112423
:100AC000E85CFD4F8181681306C08081481303C034
:100AD00085818111EECF2F5F3F4F2770E7CFFC015B
:100AE0008381833071F130F48130D9F0823009F1A3
:100AF00080E008958132F1F18232D1F7248135818D
:100B00002130310509F455C008F44BC022303105BD
:100B100079F789E296E090933602809335028BE76D
:100B200008958DE997E0909336028093350282E133
:100B3000089582E497E090933602809335028BE526
:100B400008958281813099F050F0823089F68AE0F0
:100B500097E090933602809335028EE108958EE3FC
:100B600097E0909336028093350284E008958AE2FC
:100B700097E0D9CF848195818130910579F030F06B
:100B8000029709F0B5CF8DE897E002C084E597E0C1
:100B9000909336028093350289E008958DE697E0C0
:100BA000F7CF86EC96E0909336028093350284E48A
:100BB000089524EA36E030933602209335020895F2
:100BC0000895089588E198E00FB6F894A89581BD3E
:100BD0000FBE91BDA895F894D8E0CEE528E32993FF
:100BE00020E0299314BEFFCF2FB7F8948091FE0127
:100BF0009091FF01A0910002B09101022FBF0895D2
:100C0000CF93DF938091A202882371F01092A20209
:100C1000EBDF909304028093030210920202809112
:100C20000202DF91CF910895809102028111F7CFE6
:100C3000C0910302D0910402D7DF8C1B9D0B069755
:100C400070F381E080930202EACF809184000895DE
:100C5000ECE0F1E09281891301C01282319691E0BB
:100C6000E231F907B9F70895AEE0B1E0EFEF90E0B7
:100C70002D91821751F0EF3F19F4211101C0E92F96
:100C80009F5F9630A9F7EF3F09F408950E2E000CF0
:100C9000FF0BE45FFE4F82830895A3E0B0E0E3E53D
:100CA000F6E00C94C7272091FC013091FD01281734
:100CB0003907B1F09093FD018093FC01E091FA01B6
:100CC000F091FB01309761F00084F185E02D3097C1
:100CD00039F024E029839B838A83CE01019609950C
:100CE0002396E2E00C94E327A3E0B0E0EAE7F6E025
:100CF0000C94C7272091F8013091F9012817390782
:100D0000B1F09093F9018093F801E091FA01F0912C
:100D1000FB01309761F00084F185E02D309739F0C8
:100D200023E029839B838A83CE010196099523962C
:100D3000E2E00C94E327E091FA01F091FB01309797
:100D400039F00190F081E02D309711F00995089568
:100D500080E0089549DF2091F401211104C0209121
:100D6000F501222321F09093F1018093F00120916D
:100D7000F601211104C02091F701222321F0909364
:100D8000EF018093EE01E091FA01F091FB013097C1
:100D900059F00680F781E02D309731F082E08093A2
:100DA000F20182EF91E0099508958091ED0180FFB5
:100DB0000CC06091820070E0759567957595679598
:100DC0006115710549F1862F089581FF06C0609174
:100DD000820070E075956795F3CF6091820082FD87
:100DE0000BC09091EC019923A1F06091810080915A
:100DF0008200961738F0682F70E06038710500F3B4
:100E00008FE70895899FC001112470E00E94972701
:100E1000F4CF61E070E0D7CF81E008958091ED01DB
:100E200080FF0DC06091800070E0660F771F603812
:100E3000710580F56115710579F1862F089581FF9F
:100E400007C06091800084E0689FB0011124EFCF5B
:100E500082FF04C06091800088E0F6CF2091EB0112
:100E60002223A9F090917F006091800088E0689F24
:100E7000B00111242917D8F6269FA001279F500DF5
:100E80001124692F70E0CA010E949727D0CF68E033
:100E900070E0D3CF8FE7089581E00895282F35EBD8
:100EA0002303C001112497FF04C080589109892FA2
:100EB000089580589F4FFBCFFC01EE0FFF1FE80FF6
:100EC000F91FE853FE4F6183408322830895A09A5F
:100ED000089521E3611122E383B390E02F7002C0F3
:100EE000959587952A95E2F78170089521E3611120
:100EF00022E334B32F7081E090E001C0880F2A957F
:100F0000EAF7982F9095932394BB95B3892B85BBD3
:100F100008959091C201E92FF0E04091C3019F0133
:100F20002F5F3F4F2370332742171306A9F0EC536E
:100F3000FE4F282F2F7780818078822B60FB87F9E6
:100F400080839F5F93709093C2018091C0018F5FF7
:100F50008093C00181E0089580E00895CF93DF93EE
:100F60008091740280FD0BC0D0E0C0E020E040E042
:100F700060E0CE01A1DF2196CB30D105B9F70E9408
:100F8000C512DF91CF910895FF920F931F93CF93D6
:100F9000DF939091740290FF0FC0F42E062F182F4C
:100FA000D0E0C0E02F2D402F612FCE0185DF2196AC
:100FB000CB30D105B9F7D2DFCDB7DEB7E5E00C9481
:100FC000E02780917402982F9C7F61F48370846085
:100FD0008093740280917702813F18F080EF8093B4
:100FE000770208958838B0F383708468F1CFB0E059
:100FF000A0E0EDEFF7E00C94BF27362F472FE82F46
:10100000F0E0EC5EFE4F71110AC0E4918E2F2E2F9E
:101010006E2F722FCDB7DEB7EAE00C94DB27C72F17
:10102000D0E02491F22FE22EF12C56E0659FC00112
:1010300011240FEF10E0B8010E948327832F90E066
:10104000880F991F35E5369FD001379FB00D1124C9
:101050008A1B9B0B982F990F980F6801CC1ADD0AF9
:10106000CE9CD001CF9CB00DDE9CB00D11248B2FF7
:10107000499FA0011124452F55276801C41AD50A9C
:10108000CE9CA001CF9C500DDE9C500D1124E52F6D
:101090005801A91AB108AC9E6001AD9ED00CBC9E4F
:1010A000D00C1124CD2CDD240C191D090E9DE0015E
:1010B0000F9DD00D1E9DD00D112462307105B1F031
:1010C00058F46115710579F06130710509F4A0CF0C
:1010D000E22F2B2F852F9CCF6430710571F048F0E3
:1010E00066307105A9F7E22F2D2F92CFEB2F8D2FB0
:1010F0008FCFEB2F822F252F8BCF2B2F8F2FED2FE5
:1011000087CFCF93762FC22F682F842F70DF472F82
:10111000282F8C2F90E0D0DECF910895CF93DF93CE
:10112000D0E0C0E020E040E060E0CE01C5DE2196E6
:10113000CB30D105B9F7D0E0C0E080918801082E0E
:10114000000C990BC817D90774F180917E00082E06
:10115000000C990B8C179D0734F140917702413FA9
:1011600008F040EF9E016091760280917502C9DF20
:101170002196CB30D10509F7F1DE80917D00909169
:101180008801980F9093880120917E00280F20936A
:101190007E00121614F49A301CF0819580937D0025
:1011A000DF91CF91089520E040E060E0CE0184DE41
:1011B000DFCFFF920F931F93CF93DF93EC01F12CBE
:1011C00010E000E040917702413F08F040EF8C8151
:1011D0009801609176028F0D94DF0F5F1F4F87E1BA
:1011E000F80E0B30110571F7B9DE9A818C8190FFF2
:1011F00007C08F5F8C83CDB7DEB7E5E00C94E027A6
:101200008150F8CF9091740290FF0CC0413F08F0DC
:1012100040EF762F682F842FEADE962F672F482F16
:10122000892FB2CE0895CF93DF93EC01E4E7F2E08B
:10123000438162818C81E6DF8C818F5F8C83DF91BB
:10124000CF910895CF93DF93EC01EC81F0E0E75E5E
:10125000FD4F4491E4E7F2E062818181D3DF8C812C
:101260008F5F8C83DF91CF91089580E00895F8948B
:10127000E82FE295EF70F0E031A9282F2F7081E080
:1012800090E001C0880F2A95EAF7982F9095932354
:1012900091AB92A9892B82AB7894089590915E01CD
:1012A00092FF10C041E0282F2471243009F040E063
:1012B00031E0282F2871283009F030E0431711F071
:1012C0002CE0822793FF10C041E0282F24712431A5
:1012D00009F040E031E0282F2871283109F030E092
:1012E000431711F02CE0822730915F0130FF10C0CE
:1012F00051E0282F2171213009F050E041E0282FE2
:101300002871283009F040E0541711F029E08227B5
:1013100031FF10C041E0282F2171213109F040E058
:1013200031E0282F2871283109F030E0431711F0FF
:1013300029E0822794FD877E089582389105B9F1CE
:10134000B0F48133910509F47DC048F489329105E8
:1013500009F46DC08A32910509F479C00895853386
:10136000910509F45FC08933910509F10895833E21
:101370009105D9F138F4803E910529F1823E91051D
:1013800079F10895863E9105D9F1873E910509F4DA
:101390003EC0843E910541F520915F0121FF24C0AC
:1013A00080915E0184FD19C087EE90E00895209140
:1013B0005E01237009F056C020915F0123FF14C025
:1013C00089E290E0089520915E0120FD38C03091BF
:1013D0005F0130FF09C024FF3FC090E080E0089526
:1013E00020915E0122FDF7CF089520915E0122FD3C
:1013F00036C030915F0130FD35C024FDEECFF4CF13
:1014000020915E0123FFF0CF24FDE7CFCDCF2091C7
:101410005E0123FD2AC030915F0131FFEECF84EEE3
:1014200090E0089520915E0125FDCACF0895209196
:101430005E0125FD1DC020915F0123FFD5CF89E30B
:1014400090E0089520915E0126FD15C00895209139
:101450005E0126FD13C0089583EE90E0089582EEAC
:1014600090E0089580EE90E0089586EE90E0089573
:1014700085E390E008958AE290E0089581E390E0AA
:10148000B3CF1F93CF93DF9358DFEC01C11580E5F5
:10149000D807E8F5C11580E4D80708F099C0C03E28
:1014A000D10518F5CD3CD10508F081C0C83AD10569
:1014B00070F4C53AD10508F072C0C130D10511F100
:1014C00018F0C430D105F0F4D0E0C0E01BC0C33C3C
:1014D000D105D0F7C85AD0E0CC0FDD1FC457DF4F7D
:1014E0000990D881C02DD4640DC0C11580E2D80701
:1014F00008F0C7C0C11581E0D80708F05AC0C83E3F
:10150000D10510F7CE01DF91CF911F910895C0361C
:1015100082E5D80718F5C03482E5D80708F066C020
:10152000C03282E5D80708F05AC0C11582E5D80755
:1015300008F48FC02C2F2695269580E2289F9001D5
:1015400011248C2F8370C1E0D0E002C0CC0FDD1FCE
:101550008A95E2F7C22BD32BDD68D4CFC03A82E55F
:10156000D80760F4C03882E5D80708F454C0CF71BA
:10157000D0E0DC2FCC27C46FD06AC4CFC03C82E55A
:10158000D80708F45BC0C03E82E5D80708F09CCFBE
:10159000DC2FCC27CC27DF71C06FD06AB3CFC55A00
:1015A000D0E0C757DF4FC881D0E0D064ABCFD06563
:1015B000A9CF8D2F73DE182FCE019927BEDEC12F44
:1015C000D0E0DC2FCC27CC27DF71C82BD92B9ACFCA
:1015D000CE019927B2DECC27DF70D06AF6CFCF716B
:1015E000D0E0DC2FCC27C16FD06A8CCF2C2F269572
:1015F0002695277080E2289F900111248C2F8370FC
:10160000C1E0D0E002C0CC0FDD1F8A95E2F7DC68B4
:10161000C22BD32B77CF2C2F26952695277080E2CF
:10162000289F900111248C2F8370C1E0D0E002C06C
:10163000CC0FDD1F8A95E2F7DA68EACF8C2F8F7125
:101640002DDEC82FD0E0DC2FCC27CC27DF71D06275
:1016500059CF8C2F8F7122DE55E0D695C7955A95BC
:10166000E1F7CF70D0E0DC2FCC27282F30E084FFCB
:1016700006C044E0220F331F4A95E1F73327D069B3
:10168000C7CF8D2F8F710ADE182FCE01992755DE17
:10169000C12FD0E0DC2FCC27CC27DF71906295CF13
:1016A000982F909580914A01892380934A0108954B
:1016B00080914A0190914901892B90914801992389
:1016C00051F0892BEEE0F1E027E090E02150A1F409
:1016D00091111092480180930C01E091FA01F09170
:1016E000FB01309741F00280F381E02D309719F033
:1016F0008CE091E0099508953191332339F39F5F90
:10170000E5CF8091700290913702981301C008953F
:101710008F5F8770FACFA82FA77023E096958795E3
:101720002A95E1F7FC01EE0FFF1FE80FF91FE60F06
:10173000F71F50E040E080E0219130E00A2E02C027
:10174000369527950A94E2F721703327042E01C0BD
:10175000220F0A94EAF7822B4F5F5F4F4330510507
:1017600059F70895963060F4803150F440E1949F29
:10177000900111246CE171E0820F932F911DCBCF6A
:101780009C5F923020F469E171E090E0F8CF80E056
:101790000895262F277091E001C0990F2A95EAF746
:1017A00023E0769567952A95E1F7FB01EE0FFF1F81
:1017B000E60FF71FE40FF51F50E040E0682F70E0E0
:1017C0008191DF0111979B01042E02C03695279568
:1017D0000A94E2F7217021952827292328272C93A2
:1017E0004F5F5F4F4330510559F70895282F862FDB
:1017F000963060F4203150F430E1939FB001112411
:10180000620F711D4CE151E0C4CF08959C5F92308E
:10181000E0F7622F70E049E151E0F6CF80935D017F
:10182000089590915D0121E030E0F90101C0EE0FD3
:101830008A95EAF7D90102C0AA0FBB1F6A95E2F7A1
:10184000EA2B01C0220F4A95EAF7892F8E23E8136D
:1018500003C0292B822FE2CF20952923FBCF21E043
:1018600030E001C0220F8A95EAF7209580915D0152
:101870008223D4CF9091470180958923809347019B
:10188000282F277061F4891751F090915F0192FF22
:1018900006C0869586958695E2DF109247010895E9
:1018A00021E030E001C0220F8A95EAF780915D01C6
:1018B000822BB4CF80934B010895882311F0F0DE82
:1018C000F7CE0895882331F090914A01892B8093B7
:1018D0004A01EECE0895662309F453C08D3C29F4E5
:1018E0009DDA81958093F50135CA8E3C11F496DA24
:1018F000F9CF8F3C29F492DA81958093F401F4CFEB
:10190000803D11F48BDAF9CF893D21F44EDA8093D2
:10191000F601EACF8A3D19F448DA8195F8CF8B3D7C
:1019200029F443DA81958093F701DECF8C3D11F4E1
:101930003CDAF9CF9FE2980F983070F4815D990BF3
:1019400021E030E001C0220F8A95EAF78091F3018F
:10195000822B8093F301C8CF8D3D31F48091ED014E
:1019600081608093ED01C0CF8E3D21F48091ED0127
:101970008260F7CF8F3D09F0B7CF8091ED01846091
:10198000F0CF8D3CD9F49091F50197FF1DC01092D6
:10199000F5018091F401811106C08091F50181115A
:1019A00002C01092EB018091F60181119DCF8091D0
:1019B000F701811199CF1092EC0196CF8E3CD9F4AA
:1019C0009091F50119161CF39FE2980F983008F0DA
:1019D0003FC0815D990B21E030E0A90102C0440FB6
:1019E000551F8A95E2F7CA0180959091F3018923EA
:1019F0008093F301CECF9091F4018F3C29F497FFAF
:101A0000E3CF1092F401C5CF803D19F41916CCF341
:101A1000DBCF9091F601893D29F41916ACF61092AE
:101A2000F601B7CF8A3D19F497FFCECFF8CF8B3DA3
:101A300039F49091F70197FFC7CF1092F701A9CF22
:101A40008C3D09F0C1CF9091F7011916B4F3BCCFCA
:101A50008D3D31F48091ED018E7F8093ED0199CF22
:101A60008E3D21F48091ED018D7FF7CF8F3D09F000
:101A700090CF8091ED018B7FF0CF882309F444C093
:101A8000823849F458D981FF3FC089E3EDD810DE90
:101A900089E3DED80DCE833841F44DD980FF34C0C0
:101AA00083E5E2D805DE83E5F4CF843841F443D9F9
:101AB00082FF2AC087E4D8D8FBDD87E4EACF9CEF19
:101AC000980F913A30F390E2980F983048F487706D
:101AD00091E001C0990F8A95EAF7892FE1DDDACF0D
:101AE0009BE5980F933018F490E080E0FDC898E5EE
:101AF000980F9B3118F490E080E0CFC893E3980FE3
:101B0000933110F460E0E7CE089581FD03C0949A0C
:101B100081E008959498FCCF0F93CF93DF93C4E7AF
:101B2000D2E0488159816A817B8188E090E00E94FF
:101B3000FE26288139814A815B816C817D818E817D
:101B40009F8100E20E940928622F83E290E00E94B8
:101B5000ED26DF91CF910F910895B0E0A0E0E3EB87
:101B6000FDE00C94BC27082FD62E142FC22E909186
:101B7000740290FF24C0E92FE695E695AE2FB0E001
:101B8000A851BF4F8C91809386019C7F9430E1F4E3
:101B9000842F413F08F080EF602F7D2D28DA962FAB
:101BA000672F482F892FF0D900937502D0927602C3
:101BB00010937702CC2019F084E792E0ADDFCDB727
:101BC000DEB7EDE00C94D827823019F4109177023B
:101BD000EBCF863019F400917502E6CF8930D9F346
:101BE000823111F7E2518E2F8170782EE695F0E068
:101BF000EC5EFD4FE491CE2FD0E0B12CA12CF12C66
:101C0000E12C8BE0882E912CC501B4010E94832722
:101C1000802F711013C0860F412F113F08F040EF45
:101C200097016D2D6EDA8FEFE81AF80AAC0EBD1E23
:101C30008BE0E816F10441F791D9B6CF861BECCFC3
:101C4000E4E7F2E0438128E0421B08F440E021E0B1
:101C50006281818182CFE4E7F2E0438128E0420F94
:101C600008F44FEF21E06281818177CFE4E7F2E071
:101C7000628128E0621B08F460E021E043818181F9
:101C80006CCFE4E7F2E0628128E0620F08F46FEFC6
:101C900021E04381818161CFE4E7F2E0818121E0AD
:101CA00043816281885059CFE4E7F2E0818121E0ED
:101CB00043816281885F51CF80917802882319F037
:101CC00081508093780284E792E026CF8091780259
:101CD000833018F48F5F8093780284E792E01CCF02
:101CE000E4E7F2E085E0808311828FEF828380EF6A
:101CF00083831482CF0110CF0F931F93CF93DF9371
:101D0000843000F561111EC094E0899FE001112428
:101D1000C75DDC4F82E090E0442311F090E080E06A
:101D2000632F022F142F8C0F9D1F0E94ED2683E03E
:101D300090E0112311F081E090E0602F8C0F9D1F47
:101D40000E94ED26DF91CF911F910F9108951F936F
:101D5000CF93DF93C62F8430E8F46630D8F4403157
:101D6000C8F4632F122F90E2C99FE001112450E0C4
:101D7000440F551FC40FD51F90EC899FC00DD11D76
:101D80001124CE0189960E94ED26612FCE018A96FC
:101D90000E94ED26DF91CF911F910895B0E0A0E061
:101DA000E4EDFEE00C94BF2709E116E0D12CC12C34
:101DB000B12C7601A12C18C0FE01EE0DFF1DEE0F17
:101DC000FF1FE75EFC4F259134914C2F6A2D8B2D20
:101DD000BEDF2196C031D10579F780E1E80EF11C14
:101DE000A39486E0A81619F0D0E0C0E0E5CFF80192
:101DF0002591349141E060E08B2D7EDFF801329631
:101E00002591349140E060E08B2D76DF0C5F1F4F11
:101E1000B39480E6C80ED11C84E0B812CACFCDB707
:101E2000DEB7EAE00C94DB274F925F926F927F92CD
:101E30008F929F92AF92BF920F93CF93DF9388E0E0
:101E400090E00E94D4262B013C01C4E7D2E06883D5
:101E500059828A837B821C821D821E821F8283E2BA
:101E600090E00E94CC26282F30E040E050E060E077
:101E700070E080E090E000E20E94EE2724293529FE
:101E800046295729288339834A835B836C837D8362
:101E90008E839F83DF91CF910F91BF90AF909F90E2
:101EA0008F907F906F905F904F900895CF93DF93C6
:101EB00085E290E00E94CC26D82F86E290E00E9436
:101EC000CC26C82F87E290E00E94CC26D53259F468
:101ED000C83049F491E0843109F090E0892F817095
:101EE000DF91CF91089580E0FACFA1E0B0E0EBE779
:101EF000FFE00C94C7279B01275C3C4F673C7105B2
:101F00008105910530F0198289812196E2E00C94D7
:101F1000E327C9010E94CC268983F6CFCF92DF92B6
:101F2000EF92FF92CF93DF93EC01C880D980EA80D3
:101F3000FB80C701B601D9DF9FEFC91AD90AE90AA8
:101F4000F90AC882D982EA82FB82DF91CF91FF90A1
:101F5000EF90DF90CF900895FF920F931F93CF9350
:101F6000DF93843048F5611127C024E0829F80010F
:101F70001124075D1C4F82E090E0442311F090E0B3
:101F800080E0F42E800F911F0E94CC26C82FD0E055
:101F9000DC2FCC2783E090E0FF2011F081E090E07F
:101FA000800F911F0E94CC269E01282BC901CDB71E
:101FB000DEB7E5E00C94E02790E080E0F8CF0F93E7
:101FC0001F93CF93DF93843030F5663020F5403196
:101FD00010F520E2629FE001112450E0440F551FEC
:101FE000C40FD51F30EC839FC00DD11D1124CE012D
:101FF00089960E94CC26082F10E0102F0027CE01D2
:102000008A960E94CC269801282BC901DF91CF9196
:102010001F910F91089590E080E0F8CF462F672F31
:10202000763028F4403150F4843040F4C8CF7D3FFE
:1020300041F4411103C041E0843048F090E080E079
:1020400008957C3FD9F74111F9CF8430B8F760E0AB
:1020500083CFCF92DF92FF920F931F93CF93DF93A3
:102060006C0100915D0180914B01082BC3E0D0E031
:1020700010E0FC2EC8010C2E02C0959587950A949D
:10208000E2F780FD0CC02197A0F7F12C8F2DDF9196
:10209000CF911F910F91FF90DF90CF900895B601DF
:1020A0008C2FBCDFEED9019771F3F0CFCF93DF9384
:1020B000EC01CFDFBE01B2DFE4D9DF91CF9108950B
:1020C000FC0124812223B1F080819181EFDF929580
:1020D0009F70963089F050F49250923058F4803FBF
:1020E00019F030F4883E30F481E008959A50F5CF2D
:1020F000843FD1F380E00895883EB0F3813FD1F76B
:10210000F3CFA6E0B0E0E7E8F0E10C94C62726E0C4
:10211000FC01DE01119601900D922A95E1F7FC0178
:10212000258189819A81222381F0662371F091DFD4
:10213000182F682F89819A8159DB69817A81812FD3
:102140006DDF2696E3E00C94E2270CDB182FF5CF29
:10215000CF93DF938091A302835087FD14C09091A9
:10216000A102CCE0D0E0C91BD109CA55DD4F909146
:10217000A002903108F074C0883009F45CC010925D
:1021800025021092A3028091880084FF47C08091AD
:1021900087008F3F09F442C0C82F893008F0C8E09B
:1021A000982F9C1B9093870090917C0228E892279F
:1021B00090937C02882329F1809135029091360218
:1021C00020913402AC014C57524026FF2DC1ACE7A0
:1021D000B2E02C2FFA01EA0FFB1FE4911196EC9369
:1021E0001197215011962111F5CF9C012F5F3F4F80
:1021F0008FEF8C0F820F932F911D90933602809357
:1022000035026C2F8DE792E00E940B04CC5FCC303E
:1022100019F08FEF80938700C093880084E190B31A
:102220009C7031F48150D9F71092A40210929F0251
:10223000DF91CF91089580912502893108F09FCFD9
:10224000E82FF0E0EB5FFD4F9E01285F3F4F999133
:102250009193C217D307D9F7885F8093250291CF56
:102260009D3209F0C5C0883009F08BCF83EC809394
:102270007C028AE5809388001092340288818076FF
:1022800009F468C0803249F48981833009F44AC076
:1022900030F4813041F18230C9F180E02FC08A30C2
:1022A00009F447C08B3009F448C08930B1F78A81FE
:1022B0009B818115924069F48C819D81892B49F421
:1022C00081E0809333028E819F81909332028093CC
:1022D0003102888187FF8AC08E8190E89093340212
:1022E000809387004ECF8C819D81892BB1F688E247
:1022F00092E0909336028093350288E09F8191119D
:10230000EFCF9E81981760F7892FEACF80918300E5
:102310008093270287E292E0909336028093350201
:1023200081E0ECCF809185008093260286E292E0E6
:10233000F3CF8B8180938300B0CF8C819D81892BDB
:1023400009F0ABCF81E09A81911101C080E08093C8
:102350008500A3CF2A8110928502998191110AC02C
:102360001092860225E832E082E030933602209314
:102370003502C4CF953029F42093A40225E832E039
:10238000F4CF9630C9F49B81913051F4CE010E9474
:102390006F0590E4909334028F3F09F49ACFAECF4B
:1023A0009230A1F3933091F3913281F3923271F331
:1023B00090E490933402A2CF983089F0993019F4C8
:1023C00020933002DBCF9A3071F09B30B9F69BE45A
:1023D000909388029093BD0290939402CFCF20E314
:1023E00032E081E0C2CF25E832E0FBCF8FEF75CF3E
:1023F0008091340287FFC5CE8091310290913202E4
:10240000892B71F080913302813051F4888180935F
:102410008400109232021092310210928700B1CEE5
:102420008EE180938800ADCEECE7F2E02C2FDA014C
:10243000AE0FBF1F3C913183215031962111F7CF50
:10244000D4CE1F93CF93DF93162FEA01288124FF68
:1024500017C0298138E823272983212FFC01CE01C9
:102460000296DC0131913D9321501216DCF3612F6D
:102470000E940B041C5F1883DF91CF911F91089578
:102480002AE52883EACFFF920F931F93CF93DF9320
:10249000D82F8B01F42EC5E0D33091F0D430B9F0B1
:1024A000D13049F48091870284FF18C047E852E098
:1024B0006F2DC801C6DFCDB7DEB7E5E00C94E0278D
:1024C0008091BC0284FF0AC04CEB52E0F1CF8091B6
:1024D000930284FF03C043E952E0EACF39DE8FE183
:1024E0009EE40197F1F700C00000C150A9F6E3CFC8
:1024F000B0E0A0E0EEE7F2E10C94C127E82E8B01FA
:10250000EA016A0183E0D694C7948A95E1F7F12C39
:10251000FC141D0460F0C77029F04C2F50E0B80186
:102520008E2DB1DFCDB7DEB7E8E00C94DD2748E0B3
:1025300050E0B8018E2DA7DF085F1F4FF394E8CF5E
:1025400043E050E0BC0183E0D3CF46E050E0BC0163
:1025500083E0CECFCF93DF93EC0148E050E0BC01A5
:1025600081E0C6DF88E0FE01A8E2B2E001900D92B2
:102570008A95E1F7DF91CF910895603229F4BC018B
:1025800040E250E084E0B4CF089585B38E7F95B3E8
:1025900091602FB7F894E8ECF1E031E0E93EF30701
:1025A00041F42FBF8FE594E00197F1F700C00000E0
:1025B0000895319148E095BB000000C037FF85BB0E
:1025C000330F000000C000C000C085BB00C04A95AA
:1025D00091F7E3CFA0E1B0E0E0EFF2E10C94B9278E
:1025E000CE0101965C0180E1F50111928A95E9F72F
:1025F0000EE010E097EC492E512C612C712C29E350
:10260000822E23E0922E0150110921F46096E0E120
:102610000C94D5276201F1E14F1651046104710455
:102620002CF080E1C82ED12CE12CF12CA601B401B4
:10263000C5010E94DE268C0C9D1C0D2C000CEE08A2
:10264000FF084C185D086E087F08DDCF6FEF85E24C
:1026500090E00E94ED266FEF86E290E00E94ED266A
:102660006FEF87E290E00E94ED2660E088E290E064
:102670000E94ED2693DBAEDF65E285E290E00E94EA
:10268000ED2668E086E290E00E94ED2664E187E2B4
:1026900090E00C94ED26B0E0A0E0E1E5F3E10C94CD
:1026A000BB27FC018280648081E08483E9E1F2E061
:1026B0009490E8E9F2E0E4910091770206950158E0
:1026C00010E0000F111F012F1127C9E8D1E0D12C14
:1026D000C12CAA24AA94B12C77247A94E919EE2E5D
:1026E000F12C82E0881530F080917502888380910A
:1026F0007602898361101AC01B821A824A81413F87
:1027000008F040EF9601698188810E9481088FEF6F
:10271000C81AD80A25968BE0C816D10411F70E9472
:10272000AE07CDB7DEB7EEE00C94D7278B818823B8
:10273000E9F081508B83879DC00111246C8170E08A
:102740000E948327FB01FF27E75EFD4F8491E82F5E
:10275000E919E79DC0011124B7010E9483278091E8
:102760007702689FB00111247A83C8CF0E94BE26E9
:10277000B5010E949727801791070CF0BFCF82E028
:10278000881588F40E94BE26B5010E949727888389
:102790000E94BE26209176022695622F70E00E944C
:1027A0009727280F29831A8280917702893C20F08D
:1027B00088EC8C838B83A2CF8431D8F784E1F9CF66
:1027C000609174026695669570E04BE050E082E798
:1027D00090E00E942428892B19F481E080938701DE
:1027E0000E94F40590938101809380010895909157
:1027F000740290FF25C09370811123C09460909360
:102800007402662319F084E792E086D9609174021D
:102810006695669570E04BE050E082E790E00E949C
:102820002428892BB1F01092870181E080938301E5
:1028300020E04091770260917602809175028DC907
:102840000895823210F09468DACF880F880F982BA1
:10285000D6CFB6DFEACFE4E7F2E080818160808303
:1028600060E086958695C3CF8091740286958695A3
:10287000815009F481E261E0BACF809174028695BB
:1028800086958F5F823208F081E061E0B0CF63EE21
:102890007EEF90E080E00E94062760E082E090E01A
:1028A0000E94ED2681E080934B0161E083E090E09F
:1028B0000E94ED2660E074E184E090E00E9406272B
:1028C0000FDAC4DE40E050E0BA018FE090E00E94F1
:1028D000FE2640E050E0BA0183E190E00C94FE2631
:1028E00090915F0192FB222720F9281779F080FB55
:1028F00092F990935F0160915E0170915F0184E0B5
:1029000090E00E94062782E00C943A0C0895CF9341
:1029100010924A01C6E0EEE0F1E0DF018C2F1D923B
:102920008A95E9F790E080E00E94740690E080E0EC
:102930000E944D06109249010E94580BE2EFF1E00F
:10294000DF011D92CA95E9F71092EB011092EC019C
:102950001092ED010E94AA06CF9108958B3109F4DF
:102960006FC040F58B3071F078F4863009F44FC0B9
:1029700020F4853059F180E00895873009F451C082
:102980008830C9F781E00895803109F467C068F4A0
:102990008E3089F79091EA01892F8B7F92FF8460B6
:1029A0008093EA0182FD56C0EDCF863159F389311B
:1029B00049F3E1CF8A3249F1B0F4873209F120F4CA
:1029C0008E31C8F28D5156C08932A9F6A0DF2FEFA3
:1029D00084E39CE0215080409040E1F700C000007B
:1029E0000E94E205CFCF833440F48A3308F041C01F
:1029F000853331F0883331F2BECF833409F0BBCF59
:102A000081E00E945A0C83DFBDCF41DFBBCF8091B4
:102A1000EA01817F8E7F8093EA0181E08093E90162
:102A200008959091EA01892F8E7F90FF81608093B5
:102A3000EA0180FDA7CF897F877F8093EA01A2CF3B
:102A40009091EA01892F8D7F91FF82608093EA0146
:102A500081FF98CF8091EA018160EFCF9091EA01E8
:102A6000892F877F93FF88608093EA0183FDF2CFEF
:102A700089CF895391E001C0990F8A95EAF7892F90
:102A8000C0CFCF938823D1F0C82F8238C9F40E94D9
:102A90009B0681FD13C089E30E9434060E94580BF7
:102AA0002FEF87EE93E0215080409040E1F700C087
:102AB000000089E30E9428060E94580BCF910895D8
:102AC0008338A1F40E949B0680FDF8CF83E50E9425
:102AD00034060E94580B2FEF81EE94E02150804085
:102AE0009040E1F700C0000083E5E4CF8438A1F412
:102AF0000E949B0682FDE2CF87E40E9434060E947A
:102B0000580B2FEF81EE94E0215080409040E1F788
:102B100000C0000087E4CECF8CEF8C0F813A08F024
:102B2000BEC08091E9018130E9F098F08230A9F1CE
:102B30001092E901EEE0F1E084E191E02191C21709
:102B400009F4E2C08E179F07C9F78C2F0E94340644
:102B5000B3CF80914A01823269F78C2FFFDE811159
:102B6000ADCFE8CF80914A018232B9F3C43171F020
:102B700038F4CB3049F0C03161F080E08170EFCFA4
:102B8000C93221F0C833C9F781E0F8CF1092E901CA
:102B9000F4CF82E08093E901F7CFC93209F453C042
:102BA00080F5C43109F44FC0B0F4C73009F086CFC6
:102BB00081E08093700084E1809371008AE08093CB
:102BC00080008EE180937F0088E08093820088E21D
:102BD0008093810073CF82EE8C0F8A3008F06ECF25
:102BE000CD51C0931801C33009F448C0C0F5C130BD
:102BF00009F441C081E790E0C230C1F110921801A0
:102C00005DCFC03509F443C0C0F48AE0CF3409F089
:102C100055CFE0911601F0911701309709F44ECF8E
:102C20002081082E000C990B820F911D8F3F91057A
:102C300091F18CF18FEF808341CFC13551F181E06B
:102C4000C23539F33BCF80911801882309F436CF80
:102C50001092180110921701109216012FCFC53053
:102C600099F078F081E890E0C63041F69093170132
:102C70008093160123CF80E790E0F8CF80E890E0C2
:102C8000F5CF8FE790E0F2CF82E890E0EFCF86EFCC
:102C9000C0CF8FEFBECF97FFCECF10820FCF80E295
:102CA0008C0F883068F4C77021E030E001C0220F3B
:102CB000CA95EAF780914A01822B80934A01FCCEA3
:102CC000EBE5EC0FE33040F4F0E0E757FF4F808195
:102CD00090E00E947406F2CEE8E5EC0FEB3150F480
:102CE000F0E0EE0FFF1FE457FF4F808191810E94BB
:102CF0004D06E4CE83E38C0F833108F0DFCE61E034
:102D00008C2F0E946B0CDACE8C2F0E9428060E941A
:102D1000580B1BCFFCDD2FEF84E39CE0215080405B
:102D20009040E1F700C0000088E198E00FB6F89409
:102D3000A89581BD0FBE91BDFFCFACE0B0E0E3EA46
:102D4000F6E10C94BB278E010F5F1F4F8CE0F8015A
:102D500011928A95E9F792ECE92E90E0F92E68013C
:102D600066246394712C38ED832E30E0932EF701A6
:102D700081917F018F3F09F445C0F894E82FE295D7
:102D8000EF70F0E021A98F70A30102C0440F551F1E
:102D90008A95E2F7CA01922F982B91AB92A9809560
:102DA000892382AB789400C0E8ECF0E021E030E0C9
:102DB000B12CA12C41914F3F09F44DC0A42FA295F5
:102DC000AF70B0E0D0968C9190E04F7002C09595B6
:102DD00087954A95E2F780FD3EC0C901A82AB92A25
:102DE000220F331F8E169F0629F7F7013197808136
:102DF0008F3F11F00E94370950EA5A95F1F7F6011A
:102E0000B182A082F2E0CF0ED11C48ECE41640E083
:102E1000F40609F0ACCF4CE050E0B80181E591E058
:102E20000E943128892BE1F08CE0F801A1E5B1E0A6
:102E300001900D928A95E1F781E0809350010E9404
:102E4000F40590934F0180934E0110E0812F2C9652
:102E5000EEE00C94D72790E080E0C0CF10E021C0D6
:102E600010915001112389F3E0904E01F0904F0131
:102E70000E94F4058E199F09059738F34CE050E045
:102E800061E571E084E791E00E943128892B31F3FC
:102E90008CE0E1E5F1E0A4E7B1E001900D928A95C4
:102EA000E1F710925001D2CF1F93CF93DF93182FE9
:102EB000EB01E7DD209739F4812F0E943D0DDF9172
:102EC000CF911F9108958FE99FE00197F1F700C01E
:102ED00000002197EFCFEF92FF920F931F93CF93B4
:102EE000DF93C62FD42F122FFC0185818823A9F0F0
:102EF000609373020E94F4059093720280937102B2
:102F0000C77081E001C0880FCA95EAF70E94620C81
:102F1000CDB7DEB7E6E00C94DF278091730268132B
:102F200035C0E0907102F09072020E94F4058E1993
:102F30009F09883C910550F500E20D0FCD17B9F0BF
:102F400080E28C0F883040F4C77081E001C0880FA8
:102F5000CA95EAF70E945D0C0830F8F481E09D2FD5
:102F6000977001C0880F9A95EAF70E94620C70E092
:102F700060E0812F99DF083058F6D77081E001C0FA
:102F8000880FDA95EAF70E945D0CC2CFC77081E026
:102F900001C0880FCA95EAF7F6CF70E060E0812F94
:102FA00083DFB6CFA4E0B0E0E8EDF7E10C94BD27F5
:102FB000FC012481222309F488C06C0161E0A1D8BE
:102FC0008C01F6019581992309F4EEC098013757D9
:102FD0002038310508F014C5003108F067C066ECF0
:102FE00070E080E090E00E94750F81115FC0812C3D
:102FF000912C5401011122C089829A82AB82BC8239
:103000004AE0842ECE0101960E948E0F882309F497
:103010004DC0813009F073C0CE0101960E948E0F21
:103020008130F9F4CE0101960E948E0F60E570E0C8
:10303000893311F070E060E037DFE4CFF7EC8F16F2
:103040009104A104B10491F1C501B4010E94750F6E
:10305000811101C001502FEF821A920AA20AB20A0E
:10306000C9CF823031F4CE0101960E948E0F09DD66
:10307000C9CF833039F4CE0101960E948E0F0E9491
:103080003D0DC0CF843081F4CE0101960E948E0F99
:1030900010E000E0482F4053550B9A014A3051058B
:1030A000C0F00115110511F58111ACCF80914701D8
:1030B000877059F0F6018581882339F080915F018E
:1030C00082FF03C082E00E943A0C2496ECE00C944C
:1030D000D927809EC001819E900D11248901080F7F
:1030E000191FCE0101960E948E0FD4CFEFE9FFE0A9
:1030F0003197F1F700C0000001501109D2CFE82F3D
:10310000F0E0EC57FF4F9490282F269526952695B2
:1031100030E0F901EC58FF4FE4908770F12C082E55
:1031200002C0F594E7940A94E2F7F1E0EF22FF245D
:10313000F901EC59FF4FA490B12C082E02C0B594B0
:10314000A7940A94E2F741E0A422BB24F901EC5AC7
:10315000FF4F049110E002C0159507958A95E2F79C
:1031600001701127E114F10411F081EE8ADCA11441
:10317000B10411F086EE85DC70E060E0892D94DE0C
:10318000A114B10419F086EE0E943D0DE114F10482
:1031900019F081EE0E943D0D0115110509F432CFA1
:1031A00070E060E08CE248CFF801E851FC47E7307E
:1031B000F10540F5E252F74E0C94AA27EF18F318E8
:1031C000E518EB18F718FB18FF1826E241EE61EE40
:1031D000C60181DE6BCF27E245EE65EEF9CF26E230
:1031E00041EE60EEF5CF27E245EE64EEF1CF26E248
:1031F00041EE62EEEDCF27E245EE66EEE9CF28E242
:1032000041E0EBCF06315CE7150709F4C5C007378D
:103210002CE7120709F45BC108373CE7130709F0F4
:1032200032C182E055C180915E01816080935E0170
:1032300092C080915F01886080935F018CC0809113
:103240005E018260F3CF80915E018460EFCF809158
:103250005E018860EBCF80915F018160EDCF80914E
:103260005F018260E9CF80915E018061DFCF809154
:103270005E018062DBCF80915E018064D7CF47DB47
:1032800080915E018068D2CF80915E018860DDCF41
:1032900080915F018260E1CF80915E018E7FC6CF19
:1032A00080915F01877FC8CF80915E018D7FBECF07
:1032B00080915E018B7FBACF80915E01877FB6CF10
:1032C00080915F018E7FB8CF80915F018D7FB4CFF9
:1032D00080915E018F7EAACF80915E018F7DA6CF07
:1032E00080915E018F7BA2CF12DB80915E018F7790
:1032F0009DCF80915E01877FDDCF80915F018D7FC3
:10330000E1CF80915E0182FB992790F921E092271D
:1033100090FB82F990FB83F989CF80915F01982F10
:10332000909591708E7F892B90FB81F985CF90913C
:103330005E01892F8F7B96FF806478CFE8DA9091C9
:103340005E01892F97FB87F9805870CF61E08EE08E
:1033500090E00E94ED2660915E0170915F0184E033
:1033600090E00E940627D3DAA1CE60E0F0CF9091E2
:103370005E01892F8F7E94FF806158CF90915E010E
:10338000892F8E7F90FF816051CF90915F01892FAF
:10339000877F93FF886050CF8091140181110AC00C
:1033A00089E20E94280603C085E30E9434060E9439
:1033B000580B7CCE85E3F5CF8272F801E052F847D6
:1033C000EB30F10508F057C0E851F64E0C94AA27EF
:1033D000F3190B1A0F1A131A181A1D1A221A271A80
:1033E0002C1A311A361A8091740280FF0CC08E7F1D
:1033F0008093740284E792E00E948C0D1092870102
:103400000E94AE0753CE81608093740261E086957E
:103410008695EDD94BCE882321F026DA47CE882336
:10342000E1F32BDA43CE882329F00E944C0E3ECEE6
:103430008823D9F30E94540E39CE882329F00E94A4
:10344000360E34CE8823D9F30E94410E2FCE882326
:1034500029F00E94200E2ACE8823D9F30E942B0E39
:1034600025CE882329F00E945C0E20CE8823D9F334
:103470000E94660E1BCE07378CE71807F9F0083755
:10348000ECE71E0741F19801205E324520323105FC
:1034900020F5911134C00F7181E090E09C0102C0D1
:1034A000220F331F0A95E2F78901622F83E090E033
:1034B0000E94ED26802F0E945A0CF8CD81E00E94D8
:1034C000500C43E062E081E00E94110CEFCD81E0FE
:1034D0000E942F0CF6CF82E0F2CF992381F00330C7
:1034E0003CE7130709F483C008F066C001155CE7E8
:1034F000150709F46FC001301C4709F47EC0F601BE
:10350000858100811181882309F483C0C8010E944C
:103510002910F82E682FC8010E94F60BB8018F2DD4
:103520000E940E100E94410A8C01982EF601B5806F
:10353000A680A2943FE0A32280914701877009F101
:10354000EB2CBB20F9F0812F807F803469F080E282
:10355000800F8830B0F0812F807E803229F4F1E036
:10356000F01778F4AA2069F080915F0182FF09C00A
:1035700082E00E943A0C809147018770EE24E39428
:103580008111E12CF12EF2942FE0F2222BE02F1585
:1035900008F4A9C0EF2DF0E0E053F54E0C94AA27F3
:1035A0000E1B0E1B471B471BDA1BF91B731B731BE0
:1035B000FE1B6E1C7F1C7F1C0B359CE7190739F125
:1035C0000C35ECE71E07D1F00A351C4709F097CF00
:1035D00081E01BC09CD92FEF34E34CE021503040F8
:1035E0004040E1F700C000000E94E2055FCD6FEFB0
:1035F0007FEF90E080E00E9406278CDB80915F01E6
:1036000082FB882780F991E089276AD978CF80E00A
:10361000FCCFC8010E94B20BF82E80CF312F3F7033
:10362000F32E107F19F0F29490EFF922802FBB2037
:10363000B9F0FF2069F090E2900F983010F001117E
:1036400009C080914A01F82AF0924A010E94580B61
:10365000802F42C080914901F82AF0924901F6CFAB
:103660000E943D0DFF2009F43EC0005E083010F0BE
:10367000911004C08F2D0E94500B06C0F0948091D1
:103680004901F822F09249010E94580B2CC0412FA9
:103690004F70F42E107F103219F0F29480EFF82260
:1036A000992051F051E0951609F464C0BB2009F44B
:1036B00070C0AA20A1F1CCCF80915F0182FD2BC008
:1036C000BB2061F0FF2039F080914A01F82AF09286
:1036D0004A010E94580B80E0D4D905C080E00E94C6
:1036E0003D0DF110C7CFEE2009F4B6C0809147011F
:1036F00080FDB2C0F60115828695869586950E945A
:10370000500CC6014FDC80914701869586958695C1
:103710000E942F0CA1C0BB2099F0A11004C08F2DD6
:103720000E94620CE0CF81E0A812DDCF80914801B9
:103730009F2D9823F916B9F2F82AF0924801D3CFB9
:10374000A110D1CF8F2D0E945D0C909148018F2D3B
:10375000892329F08F2D80958923809348018091BA
:1037600015019F2D982309F4BECFF094F822F09212
:103770001501B9CFBB2029F095E09A1508F4B3CF15
:10378000CECFE4E0EA1508F4AECF8F2D0E945D0C99
:10379000AACFAA20D1F3093349F4FFEF27EE33E093
:1037A000F15020403040E1F700C00000802F0E941F
:1037B0003D0D99CF812F86958695837041F081309C
:1037C00079F088EF8F0D843008F08DCF41C0C801AB
:1037D0009370B11002C080E090E00E94740683CF25
:1037E000C8019370B11002C080E090E00E944D06C5
:1037F0007ACF6B2D802F0E946B0C75CF812F837039
:10380000C1F5B11025C0402F429546954770440F31
:10381000440F802F8F70042E01C0880F0A94EAF79E
:1038200020E004FF07C02FE030E001C0220F4A95DE
:10383000EAF720951695169513701230A9F090F4BA
:1038400030914B01113069F0822B83230E945A0C76
:103850000E949B060E94850D60E0C6010E948110B7
:1038600034CC832B822BF2CF282B80914B018227E3
:10387000EDCF8695BB2011F0812F8170882341F315
:10388000402F429546954770440F440F802F8F700C
:10389000042E01C0880F0A94EAF720E004FF07C055
:1038A0002FE030E001C0220F4A95EAF720951695E7
:1038B00016951370123069F050F430915D0111309B
:1038C00029F0822B83230E940E0CC2CF832B822BE4
:1038D000FACF282B80915D018227F5CF1F70BB2086
:1038E00039F0812F0E94500C802F0E94620CB0CFC3
:1038F000802F0E945D0C812F0E942F0CA9CF802F5A
:1039000042EF9416D9F1491578F050EF9516E9F089
:1039100091EF991699F0BB2009F45EC0AA2009F432
:1039200058C0802FAED84DCFE3EF9E1671F1F4EF63
:103930009F12F1CF90915F0192FD32C0812F8F7164
:10394000BB2001F10E94500C3CCFBB2091F024E041
:103950002A1508F436CF1F7181E090E0012E01C0D6
:10396000880F0A94EAF790915D0189270E940E0C56
:1039700028CF35E03A1508F424CFEDCF812F8F7191
:10398000BB2001F30E942F0C1CCF80E0BB2071F301
:103990001F7181E0012E01C0880F0A94EAF7E6CF7B
:1039A000BB2061F0812F8F7192FFCCCF48E0849FC4
:1039B00090011124236020934701C4CF81E00E942D
:1039C0003A0C51E05A1508F0FCCE82E00E943A0C05
:1039D000F8CE812F8F71B6CFAA2079F0893349F4C0
:1039E0008FEF97EEE3E081509040E040E1F700C0B8
:1039F0000000802F0E943D0DE4CE812F8F71C2CF39
:103A0000F801E851FC47E730F10508F4D3CB1092F8
:103A10007302980130572332310508F035C084E035
:103A200090E00E94D92690935F0180935E01F80197
:103A3000E150F047E232F10508F0F5CBEE5DF24ED1
:103A40000C94AA274C19BE1954191F192319581977
:103A500027195C1968193319B71937196C193B19EB
:103A6000701997193F1974199E19441979198119F8
:103A70002B1960192F19641948197D198D19A61968
:103A8000B51919195019C51980914A010631FCE779
:103A90001F0709F091CC8A7A91E009F490E09093A5
:103AA0001401811181CC89E280CCCF93DF93809186
:103AB0004601807F09F04CC080914501882309F4BC
:103AC00047C0E091700250913702C0914101D091FE
:103AD0004001609142017091430147E05E17C1F1DE
:103AE0008E2F90E0E49FF0011124E85CFD4F2481CB
:103AF000222389F1489FF001499FF00D1124DF0135
:103B0000A85CBD4F11962C9111972C1324C02C91B9
:103B10002D1321C015962C91159721111CC01296BA
:103B20002D913C91261B370B283C3105A0F4809148
:103B300046018F70806180934601E25CFD4F808179
:103B40008F708061808380E491E02CDA0E94810B89
:103B5000DF91CF910895FC013196E770BFCFA4E1CA
:103B6000B0E0E5EBFDE10C94BD278C0186E0F801A7
:103B7000DE011F9601900D928A95E1F7F80184818C
:103B8000E58090E4A92E91E0B92E90914401911125
:103B900026C0882309F1EE20E9F0C8010E946010D8
:103BA000F82E8823B9F087E0F801D50101900D9235
:103BB0008A95E1F780914401813031F48091400190
:103BC000909141010E94561070DF8F2D6496ECE0B9
:103BD0000C94D927C801E6D9FF24F394F6CFD080FE
:103BE000C18082809380F090450120914201309104
:103BF0004301A401421B530BFF2009F4D2C0483CEF
:103C0000510508F08DC0882301F390914101809106
:103C10004601282F207F09F053C0C91213C090918C
:103C20004001D9120FC0E11045C08F7080618093B0
:103C3000460180E491E0B6D980914601F80186837F
:103C4000F12CC3CFE11036C06C2D8D2D0E94500594
:103C50006C2D8D2D0E945005E82E8111F1CFDF864D
:103C6000C88A8F8598890E945610292F22952F7017
:103C7000243058F49F70223078F0992389F0F801AD
:103C80009681907F69F4FE2CA0CF2A50223060F0FC
:103C9000C80188D9EF2CF7CF992311F0882399F325
:103CA000805E8830A8F7EFCF803F68F3815F833074
:103CB00078F7E9CF80914601816080934601C0CFBB
:103CC000C91207C090914001D91203C0EE2009F437
:103CD00089C0C8010E946010882309F47BCFEE20C0
:103CE00009F478CF80914601803280F02091400124
:103CF00030914101398728879B868A8690914401BB
:103D00009C871D868E87CE0108964CD987E0F801E6
:103D1000A0E4B1E001900D928A95E1F7C6DE5CCF98
:103D200090914601292F207F49F480E491E03AD90F
:103D300087E0F50111928A95E9F782CF882309F48B
:103D400044CF809141018C110FC080914001D81265
:103D50000BC0E11009C09683C80124D987E0F501A2
:103D600011928A95E9F731CFC8010E94601088232B
:103D700009F430CFEE2009F42DCF80914601803236
:103D800028F220914001309141013A8329839C829D
:103D90008B82909144019D831E828F83CE01019678
:103DA000B4CF483C5105D0F6882309F415CFFE2C3A
:103DB000EE2009F40FCF809141018C111FC080913A
:103DC0004001D8121BC08091460180FD0EC0982F83
:103DD000907F59F08683903F31F0982F907F905FCD
:103DE0008F70892B8683C801DDD887E0F801A0E4B5
:103DF000B1E001900D928A95E1F7E7CEC8010E94EB
:103E00006010811183CF80914601816080934601CB
:103E1000C801C8D8DACEABE1B0E0E1E1FFE10C9433
:103E2000C6274E8B5F8B688F798F8A8F9B8F9111FE
:103E3000109249011D8A86E0FE017696DE011F96EA
:103E400001900D928A95E1F78B89882351F061E00A
:103E5000CE010F960E94811061E0CE010F960E9464
:103E6000811087E0FE013F96DE01189601900D92C9
:103E70008A95E1F7CE01089672DE81112AC087E0AB
:103E8000FE013896DE01119601900D928A95E1F7B8
:103E90008C858823F1F02091370230E0C90101962A
:103EA00087709927409170024817190651F197E0E1
:103EB000929FD001939FB00D1124A85CBD4FFE01CD
:103EC000319601900D929A95E1F7809337020E9406
:103ED000810B17E080917002909137028917F1F001
:103EE000819FC0011124885C9D4F39DE8823B1F089
:103EF0008091700290E001968770992780937002FC
:103F0000E9CF0E948714109237021092700287E066
:103F1000E0E4F1E0DF011D928A95E9F76B96E3E0BA
:103F20000C94E227A6E0B0E0E8E9FFE10C94C52795
:103F30000E94F4058C0180914C0190914D018017F5
:103F4000910779F019821A820E94F405682F49813D
:103F50005A81792F80E090E05EDF10934D0100934D
:103F60004C012696E4E00C94E12778941F920F927E
:103F70000FB60F9211248F939F93AF93BF938091AD
:103F8000FE019091FF01A0910002B0910102019603
:103F9000A11DB11D8093FE019093FF01A09300022B
:103FA000B0930102BF91AF919F918F910F900FBE7F
:103FB0000F901F901895ACE1B0E0E0EEFFE1D7C79D
:103FC00084B7806884BF84B7806884BF0E94F4058A
:103FD000909304028093030285E399E090930B0190
:103FE00080930A0185B7886085BF8BB780688BBFD7
:103FF0008BE4809388028093BD02809394028AE5CB
:10400000809387028093BC02809393028B9A80E016
:10401000815009F033C18B9878948BE083BF8AEF8D
:104020008CBF82E089BF0E94560F811102C00E949E
:104030002613E0ECF1E088E0DF011D928A95E9F7B4
:1040400081E08093710160E080E00E94760761E08A
:1040500080E00E947607EFE8F1E03197F1F700C0C9
:10406000000010E080917101181708F40FC102ECF4
:1040700010E078ECE72E70E0F72ED8018D918D01DD
:104080008F3F11F00E943709E016F106B1F708ECF6
:1040900010E0F80181918F018F3F11F00E943709E4
:1040A000F0E0083D1F07A9F78CE0E4E7F1E0DF014D
:1040B000282F1D922A95E9F7E1E5F1E0DF011D9235
:1040C0008A95E9F790E080E074D6833E9E4F21F414
:1040D0000E94560F811102C00E94471482E090E0B6
:1040E0005BD68093EA0184E090E063D690935F0111
:1040F00080935E010E949D16EFEFF6E721E0E1500C
:10410000F0402040E1F700C000000E949D16809121
:10411000740181FF07C06FEF7FEF90E080E076D6FB
:104120000E94E20583E090E037D60E945A0C8C9AF8
:10413000949A80916001811120C084E792E00E94EE
:10414000140F809174028C7F31F40E94700E84E70A
:1041500092E00E94140F0E94E107109287010E94D2
:1041600067078091740280FF05C060E086958695A0
:104170000E94F71381E08093600184E690E09093C1
:10418000FB018093FA013FEF40E752E0315040409D
:104190005040E1F700C000007724739466246394D4
:1041A0000E9400068111ACC00E94A81080913002CC
:1041B000882309F464C28091870284FF60C20E9450
:1041C0009D1653E6A52E51E0B52E64E7862E61E0DC
:1041D000962ED401F501219131918D919D914FE65B
:1041E00051E04E175F0709F49FC02817390799F36C
:1041F000512CD4010D911D914D01F501C190D1902B
:104200005F01C016D10651F1412CEE24E394F12C4C
:10421000C026D126C6018E219F21892BA9F04B8A69
:104220005C8A0E94F4059E8B8D8B6F8A91E09801C9
:104230002E213F21232B09F490E0988F4B895C8934
:104240006D897E898F89E7DD4394EE0CFF1CF0E1D8
:104250004F12E0CFF501329711830083539426E08B
:104260005212C7CF8FB7F8944091FE015091FF01D1
:1042700060910002709101028FBF5BC0A895AFE909
:10428000BFE01197F1F700C00000C2CE60E0812FBF
:104290000E946907082F61E0812F0E946907E12FC2
:1042A000F0E0E059FE4F880F802B80831F5FDACE4D
:1042B000809102028823B1F080E00E94850D109267
:1042C00087018091620181110DC06092620180912D
:1042D0007402982F9170909361018E7F8093740285
:1042E0000E94AE070E949D16E4E7F1E08191919152
:1042F000892B09F028C480E891E08E179F07B1F759
:104300000E9400068111D4CF0E9487140E949B0650
:104310000E94850D109262018091610181110E94BD
:104320002B140E94E01340CF2817390709F060CF03
:10433000F9DD809187018823D9F180918601E09190
:104340007402E695E695E81BE0938201823009F05D
:104350003FC0F0E0E05FFE4FE4910E2F10E022E25C
:10436000E22E29E0F22E80918301882361F01092E1
:1043700083010E94F4059093810180938001109243
:104380008501109284010E94F405E0918001F09172
:1043900081018E1B9F0B8F3F9F4750F4E00FF11F51
:1043A000F0938101E093800180E891E0F7010995A5
:1043B00080917201882351F0109272018091C201A4
:1043C0008093C3018091C0018093C101F12C79C019
:1043D000863059F4F0E0E35FFE4FE4910E2F10E0D9
:1043E00093E1E92E99E0F92EBECF893061F4E6958C
:1043F000F0E0E65FFE4FE4910E2F10E089EDE82E2D
:1044000088E0F82EB0CF8F3059F4F0E0E95FFE4F2E
:10441000E4910E2F10E0BEE8EB2EB8E0FB2EA3CF08
:1044200000ED17E0F0EEEF2EF5E0FF2E8C3109F0F5
:104430009ACF8E2F63E05BD5E92FF0E0EC5FFE4F63
:10444000E4910E2F10E0ABE4EA2EA3E1FA2E8BCF1D
:1044500061E08F2D0E946907182F60E08F2D0E9468
:104460006907E12FEE0F8E2B0F2D10E0D801A05918
:10447000BE4FEC919E2F9370891711F1EE0FEE0F46
:10448000E82BEC93EF70F0E0E852FF4F01591E4F1C
:104490008081D801EC90E80EEC92B3E060E0BE15AC
:1044A00024F0EDEFEE1624F461E08F2D0E948907D1
:1044B0008E2DEE0C990B64E070E039D5D8018C9309
:1044C000F39480917101F81618F290E05CEFF52EEC
:1044D00063E0E62E7DEFD72EE2E0CE2E8091C30181
:1044E0002091C201281709F448C3E82FF0E0EC53EB
:1044F000FE4F108117FB002700F91F778F5F837035
:104500008093C3018091C1018F5F8093C10101112C
:1045100008C00E94F4051F83F8869A878987EB8676
:1045200007C00E94F4051F83D8869A878987CB86A7
:104530007C864F81588569857A858B859C856BDC67
:10454000002389F00E94F4051D87DE86988B8F87F3
:10455000C98A1A8A4D855E856F85788989899A8985
:104560005ADC91E0BBCF0E94F4051D87FE86988B34
:104570008F87E98AEECF20917000BAE02B9F9001DF
:1045800011242417350708F038C39F5F9093EB017F
:1045900002C09F3FD1F7DD2059F00E940E0791E045
:1045A0001D140CF09FEF899F802D11248093F4013E
:1045B000CC2059F00E940E079FEF1C140CF491E0E0
:1045C000899F802D11248093F5018091F401882327
:1045D00009F413C3F090F501FF2009F40EC30E9403
:1045E0004E07882351F08093F4018F2D0E944E07CF
:1045F000882331F08093F50100C37092F401F5CF68
:104600007092F501FAC27092F6013BC37092F70105
:1046100040C381E080FD13C08091F40181115FC02F
:104620008091F50181115BC08091F601811157C025
:1046300081E09091F701911101C080E080FD0E941E
:10464000AA0686E0FE013196A2EFB1E001900D923C
:104650008A95E1F70E949B0690917301891779F082
:10466000809373019FB7F8944091FE015091FF0130
:1046700060910002709101029FBF0E94850D0E940F
:10468000A81080913002882309F48ACD809193028A
:1046900084FF86CD80912502803209F081CD809102
:1046A0000502EFEFE80FE53108F03AC0F0E0E65A16
:1046B000FC4D50C471238823D923FE2307241724DB
:1046C0001A241A241A2490239023942498249E2494
:1046D000D424052508250A254F2582258F2581E02C
:1046E000ADCF10920602ECE0E0930702E091FA01F0
:1046F000F091FB01309749F00284F385E02D30976B
:1047000021F060E285E092E009951092250248CD03
:1047100080910602823009F4DBC230F4813089F0E6
:104720008FEF80930502E2CF8330F9F08430C1F738
:1047300010920702109208021092090210920A02C7
:10474000D5CF2FB7F8948091FE019091FF01A091F1
:104750000002B09101022FBFB0930702A09308029C
:104760009093090280930A02C1CF60910702A5E0ED
:10477000B2E090E080E0262F30E0A901480F591FF9
:104780004630510508F0B2CFE62FE80FF0E0EE0F0B
:10479000FF1FEC58FE4F4081518113965C93139795
:1047A00014964C931497019612968E30910529F722
:1047B0009DCF80910602823089F0853009F0B0CF1C
:1047C0008091740280FF17C0809174028E7F809365
:1047D0007402109287010E94AE0788CF6091070291
:1047E000709108028091090290910A02B9D388E27F
:1047F00090E0F3D27BCF0E942B1478CF4091080237
:1048000060910702809106020E94DF0FA9CF2091DC
:10481000090230910A0232272327322740910802E9
:1048200060910702809106020E94A70E5FCF0E944E
:10483000CE0E5CCF90910602923009F071CF883095
:10484000E1F1893009F469C080910702823019F1E1
:10485000A8F4813009F04ACF80910802F0EF8F9FD1
:10486000C00111246FEF70E04ED3462F20E060911D
:104870007602809175020E94AD0D38CF8330C1F071
:10488000843009F033CF20E0409177026091090233
:1048900080910802F0CF80910802882309F494CF18
:1048A0000E942B1460E0809108020E94F7131ECF33
:1048B000809108028093780219CF8091070282309C
:1048C000F1F078F4813009F011CF809177022FEF69
:1048D000829FC001112460EF70E015D3609308023D
:1048E00005CF8330B9F0843009F000CF8091750294
:1048F000809308028091760280930902F7CE80911E
:10490000740280FF05C08695869580930802EECEDE
:1049100080E0FBCF80917802F8CF0E94E10784E726
:1049200092E00E948C0DE2CE80E180930602DECE02
:104930001092060287EC80930702D8CEE090060220
:10494000F0900702FE24EF24FE2480900802912CB0
:10495000B12CA12C1701512C412C05E012E0A7012C
:104960004C5C5E4F7A01C701800F911FA801455032
:10497000524070E060E0481559056A057B0508F073
:10498000B5CE420D531D641D751D473C5105610593
:10499000710538F401D2D80114968C930F5F1F4F24
:1049A000E2CFF8011482FACF0091060210910702BB
:1049B00010270127102780900802912CB12CA12CE0
:1049C0001801512C412C075C1C4FF12CE12CC80123
:1049D0008E0D9F1DA70170E060E0481559056A051E
:1049E0007B0508F083CE420D531D641D751D473CA9
:1049F00051056105710528F4F701EB5FFD4F6481F6
:104A0000ECD1FFEFEF1AFF0AE2CF0E94EA126ECE5E
:104A100084E08BCF00910602109107021027012736
:104A2000102780910802282F30E050E040E0298FC5
:104A30003A8F4B8F5C8F4801B12CA12C85E0E82E7A
:104A400082E0F82E212C312C21010C5D1140C8018F
:104A50008E0D9F1D298D3A8D4B8D5C8D2216330650
:104A60004406550608F042CEB501A401420D531D7F
:104A7000641D751D411553406105710568F48CD1A5
:104A8000D70114968C93FFEF2F1A3F0A4F0A5F0A43
:104A90002FEFE21AF20ADBCFF7011482F4CF009174
:104AA000060210910702102701271027C090080264
:104AB000D12CF12CE12C4801B12CA12C075D1F4F0A
:104AC000212C312C21012C143D044E045F0408F0EC
:104AD0000DCED501C401820D931DA41DB51D8115F8
:104AE0009340A105B10530F4F101EB5FFD4F648106
:104AF000C80173D10F5F1F4F4FEF241A340A440AC5
:104B0000540AE1CF41E080910802811101C040E0E8
:104B100060910702809106020E94AC0F21CE209185
:104B2000090230910A0232272327322741E080917F
:104B30000802811101C040E06091070280910602E5
:104B40000E947C0ED3CDF89491B3939A892F8C60F8
:104B500081BB82B35CE0852782BB8FE7A8E3B1E02D
:104B60008150A040B040E1F700C0000082B385272B
:104B700082BB91BB93987894C3CB992359F08FB79C
:104B8000F8944091FE015091FF01609100027091F4
:104B900001028FBF86E0E2EFF1E0DE0111960190A5
:104BA0000D928A95E1F7B090F301D090F401C09096
:104BB000F5010091F6011091F7011092F4011092A5
:104BC000F5011092F6011092F701D11002C0CC202D
:104BD000A1F0E090F001F090F1010E94F405AC0129
:104BE0004E195F099091EB01992309F4C4CC80918F
:104BF00071008417150608F4CCCC011103C01123F1
:104C000009F447C0E090EE01F090EF010E94F40536
:104C10009C012E193F099091EC01992309F462C07F
:104C200021353105B0F19F3F19F09F5F9093EC0162
:104C3000002359F00E94D50691E010160CF09FEF6A
:104C4000899F802D11248093F601112359F00E9431
:104C5000D5069FEF11160CF491E0899F802D112449
:104C60008093F7018091F601882399F0F090F70185
:104C7000FF2079F00E944E07882309F4C4CC80936A
:104C8000F6018F2D0E944E07882309F4BFCC809334
:104C9000F7018091F301B812BCCC8091F401882314
:104CA00011F08D11B6CC8091F501882311F08C1193
:104CB000B0CC8091F701882311F01813AACC909101
:104CC000F601992319F081E00913A4CC80E0A2CC6D
:104CD00088E290E061D010920702109208021092D0
:104CE000090240CD2B30310508F09FCFD2CF8F92F3
:104CF0009F92AF92BF92CF92DF92EF92FF92CF93AB
:104D0000DF93EC01688179818A819B81611571054E
:104D10008105910521F464E279ED8BE597E02DE1C1
:104D200033EF41E050E086D049015A019B01AC01CC
:104D3000A7EAB1E49BD06B017C01ACEEB4EFA50116
:104D40009401A0D0DC01CB018C0D9D1DAE1DBF1DBB
:104D5000B7FF03C00197A109B04888839983AA834C
:104D6000BB839F77DF91CF91FF90EF90DF90CF9043
:104D7000BF90AF909F908F900895B9CF80E690E05C
:104D8000B6CFB0E0A0E08093600090936100A09364
:104D90006200B09363000895E199FECF9FBB8EBB84
:104DA000E09A99278DB30895A6E1B0E044E050E081
:104DB00033C0A8E1B0E042E050E02EC0DC01A40F17
:104DC000B51F4150504040F0CB01840F951F2E91EC
:104DD00005D041505040D8F70895262FE199FECFD5
:104DE0009FBB8EBBE09A01970DB2021631F02DBB2E
:104DF0000FB6F894E29AE19A0FBE08950396272F12
:104E0000EDDFEBDF252FEADF242FE8CF0196272FF8
:104E1000E5DFE3CFDC01CB01FC01E199FECF06C069
:104E2000FFBBEEBBE09A31960DB20D92415050405F
:104E3000B8F70895052E97FB16F400940FD057FD90
:104E400005D024D007FC02D046F408C05095409508
:104E5000309521953F4F4F4F5F4F08959095809526
:104E6000709561957F4F8F4F9F4F089531D0A59FCB
:104E7000900DB49F900DA49F800D911D1124089555
:104E8000B7FFF4CFF3DF821B930B0895A1E21A2E34
:104E9000AA1BBB1BFD010DC0AA1FBB1FEE1FFF1FDE
:104EA000A217B307E407F50720F0A21BB30BE40B2E
:104EB000F50B661F771F881F991F1A9469F7609575
:104EC0007095809590959B01AC01BD01CF0108952F
:104ED000A29FB001B39FC001A39F700D811D11243B
:104EE000911DB29F700D811D1124911D0895991B74
:104EF00079E004C0991F961708F0961B881F7A95D1
:104F0000C9F780950895AA1BBB1B51E107C0AA1FD2
:104F1000BB1FA617B70710F0A61BB70B881F991F5A
:104F20005A95A9F780959095BC01CD01089597FBFE
:104F3000072E16F4009406D077FD08D0E4DF07FCB6
:104F400005D03EF4909581959F4F08957095619599
:104F50007F4F0895EE0FFF1F0590F491E02D099407
:104F600069279627692778278727782708952F921A
:104F70003F924F925F926F927F928F929F92AF92E9
:104F8000BF92CF92DF92EF92FF920F931F93CF9336
:104F9000DF93CDB7DEB7CA1BDB0B0FB6F894DEBFCD
:104FA0000FBECDBF09942A88398848885F846E84F3
:104FB0007D848C849B84AA84B984C884DF80EE803D
:104FC000FD800C811B81AA81B981CE0FD11D0FB646
:104FD000F894DEBF0FBECDBFED010895002E08305E
:104FE00090F0982F872F762F652F542F432F322F35
:104FF00022270850F4CF220F331F441F551F661F6E
:10500000771F881F991F0A95B2F7002D089597FD05
:105010001094002E083098F00850232F342F452F7D
:10502000562F672F782F892F912DF4CF15949795B0
:1050300087957795679557954795379527950A955D
:10504000AAF71124002D0895FC014150504030F082
:1050500001900616D1F73197CF0108958827992737
:105060000895FB01DC0104C08D910190801921F4A9
:1050700041505040C8F7881B990B0895F894FFCF12
:10508000010000002506AA12E105A512A012BD121A
:1050900001140112131415161718191A1B01021EF8
:1050A0000A280800000100FF5A818283E200E9001B
:1050B000EA00B500B600B700CD008301CC008A013C
:1050C00092019401210223022402250226022702D2
:1050D0002A02B300B4006F0070009F01CB019F0251
:1050E000A002050607003534646362616090919206
:1050F000939495969737363300FF0100010000FF27
:10510000FF0000010001FF0000010202020206068A
:10511000060909090909090F0F0F121212121212BA
:0A512000121212121C1C1C1C1C1C95
:00000001FF
