:10000000F2C1000028C2000026C2000024C2000085
:1000100022C2000020C200001EC200001CC200005C
:100020001AC2000018C200000C94C6210C9492223F
:100030000C94931C10C200000EC200000CC2000001
:100040000AC2000008C2000006C2000004C200008C
:1000500002C200000C940C1DFEC10000FCC1000097
:10006000FAC10000F8C10000F6C10000F4C10000B0
:10007000F2C10000F0C10000EEC10000ECC10000C0
:10008000EAC10000E8C10000E6C10000E4C10000D0
:10009000E2C10000E0C10000DEC10000DCC10000E0
:1000A000DAC10000D8C10000D6C1000029003A0022
:1000B0003C003E00400042004400000047000000B9
:1000C0003B003D003F004100430045004600480022
:1000D00035001F0021002300250027002E002A00E4
:1000E0004A001E0020002200240026002D002A00C5
:1000F00049004B002B001A0015001C000C001300D7
:10010000300000004D001400080017001800120015
:100110002F0031004C004E003900160009000B0082
:100120000E003300280000000000040007000A0051
:100130000D000F003400000000000000E1001D0071
:100140000600050010003700E50000005200000026
:100150001B00190011003600380021520000000079
:10016000E000E200000000000000E6006500000082
:100170005100E300000000002C000000E700E40054
:1001800050004F0000000000000000002A2B280053
:100190000000000000000000000000000000002936
:1001A000000000002C1E3420212224342627252E76
:1001B000362D3738271E1F202122232425263333AE
:1001C000362E37381F0405060708090A0B0C0D0EDA
:1001D0000F101112131415161718191A1B1C1D2FA6
:1001E0003130232D350405060708090A0B0C0D0EC6
:1001F0000F101112131415161718191A1B1C1D2F86
:100200003130354C0000000000000000000000000C
:1002100000000000000000000000000000000000DE
:1002200000000000000000007E0F00D4FFFFFFC7A9
:10023000000000780A034F00520038003700000029
:100240001603520065006C006100700073006500C9
:100250002D004B00420000000403090409025B006A
:10026000030100A0FA0904000001030101000921B3
:10027000110100012244000705810308000109045F
:1002800001000203000000092111010001222200E7
:10029000070582032000010705030320000109046C
:1002A0000200010300000009211101000122B60033
:1002B0000705840320000112010002000000082D40
:1002C0007201000001010200010660FF0961A10145
:1002D0000962150026FF0095207508810209631543
:1002E0000026FF00952075089102C005010902A1B2
:1002F0000185020901A10005091901290815002538
:100300000195087501810205010930093115812522
:100310007F95027508810609381581257F9501753D
:10032000088106050C0A38021581257F950175089C
:100330008106C0C005010980A101850319012AB702
:1003400000150126B700950175108100C0050C0944
:1003500001A101850419012AA002150126A0029518
:100360000175108100C005010906A1018506050778
:1003700019E029E715002501950875018102050797
:10038000190029EF1500250195F075018102050876
:1003900019012905950575019102950175039101D2
:1003A000C005010906A101050719E029E715002587
:1003B00001950875018102950175088101050719EC
:1003C0000029FF150026FF00950675088100050825
:1003D0001901290515002501950575019102950161
:1003E00075039101C00011241FBECFEFDAE0DEBF1C
:1003F000CDBF04B603FE18C08091090390910A0393
:10040000A0910B03B0910C038730904BA740B04BE9
:1004100059F41092090310920A0310920B031092E0
:100420000C03E0E0F8E3099511E0A0E0B1E0E6EFAD
:10043000F9E402C005900D92A63BB107D9F723E07D
:10044000A6EBB1E001C01D92A930B207E1F70E940E
:1004500079100C94F924D4CD811112C06C3080F441
:10046000493070F4E42FF0E089E0689FE00DF11D61
:100470001124EE0FFF1FE455FF4F859194910895CD
:1004800081E090E0089581E00895FDCF0895FBCFCD
:10049000089581E00895F7CF0895F5CF0895FDCF31
:1004A000089508950895FDCF089508950895A6E04C
:1004B000B0E0EDE5F2E00C945D2449835A839E831D
:1004C0003091BD0189819A81311117C03E8133235A
:1004D00089F0222379F017D5182F682F89819A8106
:1004E000F1D469817A81812F0E94D00D2696E3E0B4
:1004F0000C947924F8D4182FF4CF05D569817A812A
:10050000F3CFFC01262F4081518162817381848168
:100510009581CDCFCF93DF93EC0161E0F2DFBE0197
:10052000B4DF882349F061E0CE01EBDFBE01AFDF2D
:100530008170DF91CF91089580E0FACF0F931F93E0
:10054000CF93DF93EC0160E0DCDF8C01BE01AADF1A
:10055000BE01C801A8DFDF91CF911F910F910895CF
:1005600091E001C0990F8A95EAF7892F09C4CF93CA
:10057000C82F81E00C2E01C0880F0A94EAF70E9470
:10058000DC0B8C2FEDDFCF91089581E00895FDCF36
:100590000895FBCF0895CF93C82FADD38C2FF7DFED
:1005A0008C2FF7DF2FEF84E39CE0215080409040B8
:1005B000E1F700C00000CF91089581E0ECDF0C94DA
:1005C000321D80E0E8DF0C94561D0F931F93CF93EC
:1005D000DF938C0161E095DFEC01B8015CDF8111F4
:1005E00006C080E0DF91CF911F910F910895B8016F
:1005F000CE0155DF8823A9F3B801CE010E940F195F
:10060000882379F3B801CE010E943618882349F374
:10061000B801CE010E944C13882319F3B801CE0112
:100620000E9423138823E9F2B801CE010E948018AA
:100630008823B9F2B801CE010E94D10E882389F235
:10064000F8018581882361F0C330FCE7DF07D9F02A
:1006500050F4C115ECE7DE07A1F0C130DC47A9F08A
:10066000C80117DFBFCFCB358CE7D80799F0CC3561
:10067000ECE7DE0761F0CA35DC4791F70E94A20B78
:10068000EFCF9BDFAECF0E94D10B9BDFAACF0E94A2
:100690009A0BE6CF0E94A40BE3CF07DF0E946A1CEF
:1006A00025C026D003DF0C946E1C81E0089581FFE5
:1006B00005C02B9A82FF04C02A9A08952B98FACF7E
:1006C0002A980895CF93DF93D82FEFDFC82F882380
:1006D00011F08D2FECDF8C2FDF91CF910895239AAD
:1006E0002B98229A2A980895EDCF089580E0FCCFA8
:1006F0000E94511AF9CFCF930E94511AC82F8091AE
:10070000B8018C1771F0C093B8010E94001D60936E
:10071000B9017093BA018093BB019093BC018C2FF7
:10072000E3DFCF910895ADE0B0E0E9E9F3E00C94A8
:100730005E24488759876A877B878C879D879111BC
:1007400024D71F8286E0FE013896DE0111960190C3
:100750000D928A95E1F78D8181110CC029813A8132
:100760004B815C816D817E818F815DD62D96E2E02B
:100770000C947A24CE010196CDDE8111EFCFF6CF15
:10078000FC012481213019F480819181E8C308950E
:10079000662321F00E94CD140C949B150E941F1516
:1007A000FBCFCF93882391F0C82F8CEF8C0F813A29
:1007B00078F48C2F0E940D1B882321F08C2F0E942F
:1007C000AE1B6ED78C2F0E94971B6AD7CF910895CE
:1007D00080E28C0F883040F4C77081E001C0880F40
:1007E000CA95EAF7B3D6F1CFEBE5EC0FE33040F46E
:1007F000F0E0EB5AFE4F808190E00E94911AE6CF24
:10080000E8E5EC0FEB3150F4F0E0EE0FFF1FE15E96
:10081000FE4F808191810E94B81AD8CF83E38C0F5C
:100820008331A0F661E08C2FB3DFD0CF882351F164
:100830009CEF980F913A18F40E94AE1B31C790E2DA
:10084000980F983048F4877091E001C0990F8A950D
:10085000EAF7892F81D6F2CF9BE5980F933020F4E9
:1008600090E080E00C94911A98E5980F9B3120F469
:1008700090E080E00C94B81A93E3980F933110F451
:1008800060E086CF08951F93CF93DF93182FEB017D
:1008900088DF209731F4812FC9DFDF91CF911F913D
:1008A00008958FE99FE00197F1F700C000002197BC
:1008B000F0CF70E060E0893311F460E570E0E3CFE1
:1008C000882311F043D6ECC60895882311F044D64E
:1008D000E7C60895B0E0A0E0E0E7F4E00C94582407
:1008E0006C01D62FC72FFC011581068102950F7070
:1008F00023D6E82E8823E9F0E12E1123D1F08C2FA6
:10090000807F803461F080E28D0F883060F18C2F21
:10091000807E803221F4D23030F1002321F18091A9
:10092000C70282FF20C082E0DFD606D691E0E82E23
:10093000E926FC2EF2949FE0F922FBE0FF1508F473
:100940003CC0EF2DF0E0E955FB4F0C944124B50479
:10095000B504EC04EC0445056605DD04DD046A0518
:10096000CD05DA05DA05E12CE4CF0C2F0F70C07F3E
:1009700011F00295007F112381F0002349F080E2FD
:100980008D0F883010F0D11105C0802FDFD588D6AB
:100990008D2F41C0802FEBD5FACF8D2F47DF00235D
:1009A00061F080E28D0F883010F0D11103C0802FEC
:1009B000D3D502C0802FE1D573D6EE2009F4B3C0A1
:1009C000B7D580FDB0C0F6011582ACD5FBD1C6010C
:1009D00063D1A8D501D2A7C02C2F2F70F22EC07FD3
:1009E000C03219F0F29480EFF822DD2341F0D130CB
:1009F00081F1112309F439C00023C9F0C9CF8091D6
:100A0000C70282FD10C0112341F0FF2019F08F2D85
:100A10009DD546D680E0C5DED0CF80E007DFFF2041
:100A200061F28F2DC5CF112359F0011103C08F2D15
:100A300047DFC3CF013009F0C0CF8F2DBAD5BDCF6E
:100A40000111BBCF8F2D41DF8F2DBED58F2DA3D5AB
:100A5000B4CF112321F0063008F0AFCFE8CF053036
:100A600008F0ABCF8F2D31DFA8CF0023D9F3D933D6
:100A700049F48FEF97EEE3E081509040E040E1F7DA
:100A800000C000008D2FD2DE98CF8C2F86958695E2
:100A9000837041F0813081F088EF8F0D843008F051
:100AA0008CCF3EC08D2F9C2F9370111102C080E01F
:100AB00090E00E94911A81CF8D2F9C2F937011117D
:100AC00002C080E090E00E94B81A77CF612F8D2F8E
:100AD0005FDE73CF8C2F837089F5111121C04D2FEC
:100AE000429546954770440F440F8D2F8F70042E0A
:100AF00001C0880F0A94EAF720E0D4FF07C02FE076
:100B000030E001C0220F4A95EAF72095822BC69566
:100B1000C695C370C23071F078F4C13049F036D157
:100B20000E94511AE1DDCDB7DEB7E8E00C947424E1
:100B300029D1F6CF2FD1F4CF23D1F2CF869511232F
:100B400011F08C2F8170882359F34D2F42954695D3
:100B50004770440F440F8D2F8F70042E01C0880FF3
:100B60000A94EAF720E0D4FF07C02FE030E001C08C
:100B7000220F4A95EAF72095822BC695C695C37039
:100B8000C23039F040F4C13011F03FD1C9CF39D172
:100B9000C7CF3FD1C5CF08D1C3CFCF70112329F024
:100BA0008C2F10D18D2F8CDEBBCF8D2F8EDE8C2F16
:100BB00013D1B6CFD23F49F168F4D03FC9F0D13F4D
:100BC00089F0112309F441C0002309F43BC08D2FA3
:100BD000E8DD62CFD33FF9F0D43F99F78091C702A7
:100BE00082FD21C08C2F8F71112399F0EBD054CF4F
:100BF000112339F0053008F04FCF8C2F8F71F7D0CB
:100C00004BCF063008F048CFF8CF8C2F8F711123CF
:100C100069F3E2D041CF112321F08C2F8F71CBD01B
:100C20003BCFC7D039CF112329F063E08C2F8F71D0
:100C300044D532CF81E058D5023008F42DCF82E080
:100C400053D52ACF8C2F8F71D1CF002371F0D93398
:100C500049F4FFEF27EE83E0F15020408040E1F7B8
:100C600000C000008D2FE2DD17CF8C2F8F71D1CF08
:100C70000F931F93CF93DF93EC01688179818D816E
:100C800077D18C01CAD07BD0B801CE0123DEDF91B1
:100C9000CF911F910F910895CF93DF93FC01248191
:100CA000222381F0EC0191DC81110FC045D488230F
:100CB00049F08D81882331F08091C70282FF02C004
:100CC00082E012D5DF91CF910895CE01D1DFCE0120
:100CD00035DCF8CF90E080E00E94911A90E080E04F
:100CE0000E94B81A52D4DCD40E94B7150C949B15FC
:100CF0000E94C51BEFCF38D4FBCF92959F709630E2
:100D000089F050F49250923058F4803F19F030F44A
:100D1000883E30F481E008959A50F5CF843FD1F3B6
:100D200080E00895883EB0F3813FD1F7F3CFFC0116
:100D30002481222321F08081918111D1DECF80E0B6
:100D40000895A6E0B0E0E7EAF6E00C945E2426966B
:100D5000E2E00C947A24A7E0B0E0E1EBF6E00C943A
:100D60005E242796E2E00C947A240895FECF08953D
:100D7000FDCF0895FADFFCDF8093E901089508951F
:100D8000F9CF08959091E901892BF4CF9091E90171
:100D90008923F0CF9091E9018927ECCFE6CF089520
:100DA000FDCF0895E2CF0895FDDFFADF8093E801DB
:100DB000089580E0F9CF91E001C0990F8A95EAF794
:100DC000892FF2CF21E030E001C0220F8A95EAF7A7
:100DD0008091E801822BE8CF21E030E001C0220FB2
:100DE0008A95EAF720958091E8018223DDCF21E002
:100DF00030E001C0220F8A95EAF78091E80182274E
:100E0000D3CF9091E801892BCFCF9091E80189232E
:100E1000CBCF9091E8018927C7CF0895262F27705F
:100E200091E001C0990F2A95EAF723E0769567953E
:100E30002A95E1F7FB01EE0FFF1FE60FF71FE40F06
:100E4000F51F50E040E0682F70E08191DF011197BD
:100E50009B01042E02C0369527950A94E2F7217073
:100E600021952827292328272C934F5F5F4F433054
:100E7000510559F70895A82FA77023E096958795F7
:100E80002A95E1F7FC01EE0FFF1FE80FF91FE60FAF
:100E9000F71F50E040E080E0219130E00A2E02C0D0
:100EA000369527950A94E2F721703327042E01C066
:100EB000220F0A94EAF7822B4F5F5F4F43305105B0
:100EC00059F70895282F9C3068F4893058F4862FFC
:100ED000622F70E029E0929F600D711D11244EEB8E
:100EE00051E09CCF08959C3060F4893050F4292F54
:100EF00090E06EEB71E039E0239F800D911D11248D
:100F0000BACF80E00895CF92DF92FF920F931F93A4
:100F1000CF93DF936C010091E8018091E901082BE8
:100F2000C3E0D0E010E0FC2EC8010C2E02C0959565
:100F300087950A94E2F780FD0CC02197A0F7F12C69
:100F40008F2DDF91CF911F910F91FF90DF90CF9068
:100F50000895B6018C2F2ED6019779F3F1CFCF9358
:100F6000DF93EC01D0DFBE0125D6DF91CF9108954C
:100F70001F93CF93DF93EB019091BD01992331F043
:100F8000CB01EDDFDF91CF911F910895882351F0C0
:100F9000CB01B9DF182F682FCE0194DFBE01812F5E
:100FA00009D6F0CFCB019FDF182FF8CFE1E0F0E0BA
:100FB000DF0102C0AA0FBB1F6A95E2F7BD01DF0186
:100FC00002C0AA0FBB1F4A95E2F76A2B01C0EE0FC1
:100FD0002A95EAF7962F9823961302C08E2B089530
:100FE000E0958E230895242F462F682F8091E801E5
:100FF000DDDFDACE1F93CF93DF93C091EA0117E0D4
:101000008091EB018C1304C0DF91CF911F91089563
:10101000D0E01C9FF0011D9FF00D1124E451FE4F04
:10102000208131814281538164817581868193DE83
:101030002196C770E5CF209124023091250240917E
:101040002602509127026091280270912902809116
:101050002A0281CECF93DF9380912A02807F09F00C
:101060004BC080912902882309F446C0E091EA012F
:101070005091EB01C0912502D0912402609126028B
:101080007091270247E05E17B9F18E2F90E0E49F40
:10109000F0011124E451FE4F2481222381F1489F65
:1010A000F001499FF00D1124DF01A451BE4F1196AC
:1010B0002C9111972C1323C02C912D1320C0159621
:1010C0002C91159721111BC012962D913C91261B36
:1010D000370B283C310598F480912A028F7080618B
:1010E00080932A02EE50FE4F80818F708061808352
:1010F00084E292E0D1DD7EDFDF91CF910895FC01A3
:101100003196E770C0CF482F2091EA019091EB0112
:1011100057E0291302C080E0089530E0529FF001AB
:10112000539FF00D1124E451FE4F8181681306C0D6
:101130008081481303C085818111EECF2F5F3F4F1F
:101140002770E7CFA4E1B0E0E8EAF8E00C9454247B
:101150008C0186E0F801DE011F9601900D928A95C0
:10116000E1F7F8018481E58094E2A92E92E0B92E9E
:101170009091280291111AC08823A9F0EE2089F0DD
:10118000C801D5DDF82E882361F087E0F801D5018C
:1011900001900D928A95E1F7C501F2DA5BDF4BDF32
:1011A00059C0C80179DDFF24F39454C0C080D180B8
:1011B00082809380F09029022091260230912702AC
:1011C000A401421B530BFF2009F4E8C0483C510521
:1011D00008F09BC0882309F43DC0909125028091BE
:1011E0002A02282F207F09F055C0D91214C09091EF
:1011F0002402C91210C0E11047C08F708061809333
:101200002A0219DF84E292E047DD80912A02F80188
:101210008683F12C1FC0E11037C06D2D8C2D73DF3C
:101220006D2D8C2D70DFE82E8111F3CFCF86D88AFB
:101230008F85988994DE292F22952F70243078F499
:101240009F70223098F09923A9F0F8019681907F41
:1012500089F4FE2C8F2D6496ECE00C9470242A50B7
:10126000223060F0C80118DDEF2CF3CF992311F084
:10127000882379F3805E8830A8F7EBCF803F48F36E
:10128000815F833078F7E5CF80912A028160809377
:101290002A02BFCFD91212C090912402C9120EC0E7
:1012A000E1100CC08683C801F7DC87E0F801A4E2F6
:1012B000B2E001900D928A95E1F771CFC80137DD58
:1012C000882309F46ECFEE2009F46BCF80912A02B7
:1012D000803280F0209124023091250239872887BE
:1012E0009B868A86909128029C871D868E87CE01D8
:1012F0000896D2DC87E0F801A4E2B2E001900D92FA
:101300008A95E1F7A7DE97DE4ECF90912A02292F2A
:10131000207F89F4682D9A8A898AA6017A899E2D70
:1013200010DD84E292E0B8DC87E0F50111928A9545
:10133000E9F781DE6ECF882309F48CCF80912502F6
:101340008D110FC080912402C8120BC0E11009C09A
:101350009683C801A1DC87E0F50111928A95E9F72F
:1013600079CFC801E4DC882309F41BCFEE2009F40F
:1013700018CF80912A02803208F4BCCF2091240239
:10138000309125023A8329839C828B829091280296
:101390009D831E828F83CE010196ABCF483C5105C1
:1013A000A8F5882309F4FFCEFE2CEE2009F4F9CE2F
:1013B000809125028D111EC080912402C8121AC08E
:1013C00080912A0280FD0DC0982F907F51F0868376
:1013D000903F09F468CF982F907F905F8F70892B92
:1013E00061CF87E0F801A4E2B2E001900D928A9506
:1013F000E1F730CFC8019BDC81117CCF80912A02BC
:10140000816080932A02C80147DC24CF682D9A8A24
:10141000898AA6017A899E2D94DC87E0F5011192D4
:101420008A95E9F7BCCEAEE0B0E0E9E1FAE00C94D1
:101430005D24288739874A875B876C877D878E87FD
:10144000CE0108967FDE882399F16C85662339F0FA
:10145000288539854A855B857D858E857CDC17E00E
:101460008091EA019091EB01891709F457C0819F9F
:10147000C001112484519E4F65DE882309F44EC0BB
:10148000E091EA011E9FF0011124E451FE4F2081FA
:101490003181428153816481758186815CDC8091D8
:1014A000EA0190E00196877099278093EA01D8CFEE
:1014B00087E0FE013896DE01119601900D928A9523
:1014C000E1F78C85882359F22091EB0130E0C901C6
:1014D0000196877099274091EA014817190691F003
:1014E00097E0929FD001939FB00D1124A451BE4F5D
:1014F000FE01319601900D929A95E1F78093EB01F0
:1015000079DDADCFF8DB1092EB011092EA0187E0B4
:10151000E4E2F2E0DF011D928A95E9F72E96E3E01E
:101520000C9479248091530286958695869508952A
:10153000809153028770089590915302977081E0D3
:1015400009F480E0089580917F02089590917F02D0
:10155000892B80937F020895982F909580917F0228
:10156000892380937F02089510927F0208959091BD
:101570007E02892B80937E020895982F909580910A
:101580007E02892380937E02089510927E02089540
:101590000895FECF089590915402292F282329F011
:1015A0008095892380935402F4CF08950895FECF47
:1015B000089590915502292F2823281721F0982B60
:1015C00090935502F4CF089590915502292F282326
:1015D00029F08095892380935502E9CF0895809161
:1015E0005502882321F01092550280E0E0CF089543
:1015F000CF93C0917F0280917E02C82B80915502CB
:10160000882329F0C82B0E94EC1A8111E8DF8C2F67
:10161000CF910895CF93DF93C0910201D091030140
:10162000E7DF8883C0910201D091030148E050E0D8
:101630006BE472E0CE010E949924892B59F088E076
:10164000FE01ABE4B2E001900D928A95E1F7CE0184
:101650000E94601ADF91CF910895CF93DF93C091DC
:101660000001D0910101C4DF8983C0910001D091B4
:10167000010140E250E06BE272E0CE010E94992449
:10168000892B59F080E2FE01ABE2B2E001900D92AD
:101690008A95E1F7CE010E946D1ADF91CF910895EE
:1016A0000E944A1A882329F08091C60287FF01C050
:1016B000D4CFB0CF0895FECF08959091C70292FF86
:1016C0000EC098E0899F90011124622B6093530211
:1016D00079DB80915302869586958695ECCF72CB07
:1016E0001092530280E0E7CF9091530280958923B6
:1016F00080935302282F277059F4891749F090914D
:10170000C70292FF05C086958695869565DBE8CF72
:1017100008959091C70292FB222720F9281749F0DB
:1017200080FB92F99093C70286EC92E049D082E068
:10173000DBCF08958091C70282FB882780F991E072
:101740008927E7CF81E0E5CF80E0E3CF60E070E07C
:10175000CB0184C360E070E0CB017AD3F7CFA3E084
:10176000B0E0E5EBFBE00C945E242DD338D31B8274
:10177000CE0103964BD381E08093E90151D31A82C5
:1017800019828A81846080618A83CE01019659D34F
:101790000E94FA18DFDF2396E2E00C947A24DFCF70
:1017A000089523C3089510D381110C94C01808958F
:1017B00022C3089531C3089533C3089536C30895ED
:1017C00040C3089551C30895A6E0B0E0EAEEFBE0FF
:1017D0000C945C240E94F41C8C01809180029091F6
:1017E00081028017910781F019821A820E94F41CED
:1017F000682F49815A81792F80E090E00E949303FD
:1018000010938102009380022696E4E00C947824E1
:101810000E94001D60939E0270939F028093A0021D
:101820009093A10260939A0270939B0280939C0212
:1018300090939D02089508950895FDCF0895089509
:10184000FEDFFBCF0895FECF08950895FEDFFBCFA6
:101850008FEC9EE061D4F0DFF3CF81E00895FDCFFF
:101860000895FBCF0895089508950895FCDFFCDFE7
:10187000FCCF99DF811101C092DF82EA92E098DF0C
:1018800086EC92E09BDF68D495DF7ADA8091E801FC
:1018900087CA0E94EB1C0E940619A3D3EADF0E94AC
:1018A0006F03D4CFA6E0B0E0E8E5FCE00C9452244E
:1018B000D6DF811109C088DF0E94D9150E947B0301
:1018C0002696EEE00C946E249ED322E8822E22E02F
:1018D000922E640110E0F601E190F1906F01812FEA
:1018E000CED21F5F1C3009F447C0E816F90699F301
:1018F0008091A20281FDCCD2B4DF782E10E0662464
:101900006394812FBCD27C01F401A190B1904F016E
:101910008A159B0561F100E0CC24C394D12CAE2440
:10192000BF24C5018C219D21892BC1F07720B1F006
:1019300009831A830E94F41C9C838B836D8221E0AF
:10194000C7018C219D21892B09F420E049815A810E
:101950006B817C818D81922F0E9493030F5FCC0C51
:10196000DD1C0930F1F6F4013297F182E0821F5F4D
:101970001C3039F64DDFA0CFE816F90609F49BCFED
:10198000B7CF1F93CF93DF9317D1EC01C11580E53B
:10199000D807E8F5C11580E4D80708F099C0C03E23
:1019A000D10518F5CD3CD10508F081C0C83AD10564
:1019B00070F4C53AD10508F072C0C130D10511F1FB
:1019C00018F0C430D105F0F4D0E0C0E01BC0C33C37
:1019D000D105D0F7C85AD0E0CC0FDD1FC85ADE4F72
:1019E0000990D881C02DD4640DC0C11580E2D807FC
:1019F00008F0C7C0C11581E0D80708F05AC0C83E3A
:101A0000D10510F7CE01DF91CF911F910895C03617
:101A100082E5D80718F5C03482E5D80708F066C01B
:101A2000C03282E5D80708F05AC0C11582E5D80750
:101A300008F48FC02C2F2695269580E2289F9001D0
:101A400011248C2F8370C1E0D0E002C0CC0FDD1FC9
:101A50008A95E2F7C22BD32BDD68D4CFC03A82E55A
:101A6000D80760F4C03882E5D80708F454C0CF71B5
:101A7000D0E0DC2FCC27C46FD06AC4CFC03C82E555
:101A8000D80708F45BC0C03E82E5D80708F09CCFB9
:101A9000DC2FCC27CC27DF71C06FD06AB3CFC55AFB
:101AA000D0E0C257DE4FC881D0E0D064ABCFD06564
:101AB000A9CF8D2F25D1182FCE0199277DD0C12FE9
:101AC000D0E0DC2FCC27CC27DF71C82BD92B9ACFC5
:101AD000CE01992771D0CC27DF70D06AF6CFCF71B5
:101AE000D0E0DC2FCC27C16FD06A8CCF2C2F26956D
:101AF0002695277080E2289F900111248C2F8370F7
:101B0000C1E0D0E002C0CC0FDD1F8A95E2F7DC68AF
:101B1000C22BD32B77CF2C2F26952695277080E2CA
:101B2000289F900111248C2F8370C1E0D0E002C067
:101B3000CC0FDD1F8A95E2F7DA68EACF8C2F8F7120
:101B4000DFD0C82FD0E0DC2FCC27CC27DF71D062CC
:101B500059CF8C2F8F71D4D055E0D695C7955A9513
:101B6000E1F7CF70D0E0DC2FCC27282F30E084FFC6
:101B700006C044E0220F331F4A95E1F73327D069AE
:101B8000C7CF8D2F8F71BCD0182FCE01992714D0BD
:101B9000C12FD0E0DC2FCC27CC27DF71906295CF0E
:101BA0007C3028F4693018F4462F672F3DC390E04D
:101BB00080E00895F5DFE5CE82389105B9F1B0F403
:101BC0008133910509F47DC048F48932910509F407
:101BD0006DC08A32910509F479C008958533910565
:101BE00009F45FC08933910509F10895833E910599
:101BF000D9F138F4803E910529F1823E910579F1C1
:101C00000895863E9105D9F1873E910509F43EC0BD
:101C1000843E910541F52091C70221FF24C08091A7
:101C2000C60284FD19C087EE90E008952091C60297
:101C3000237009F056C02091C70223FF14C089E227
:101C400090E008952091C60220FD38C03091C7026F
:101C500030FF09C024FF3FC090E080E0089520914C
:101C6000C60222FDF7CF08952091C60222FD36C09C
:101C70003091C70230FD35C024FDEECFF4CF209166
:101C8000C60223FFF0CF24FDE7CFCDCF2091C602BF
:101C900023FD2AC03091C70231FFEECF84EE90E0E1
:101CA00008952091C60225FDCACF08952091C6024D
:101CB00025FD1DC02091C70223FFD5CF89E390E009
:101CC00008952091C60226FD15C008952091C602F0
:101CD00026FD13C0089583EE90E0089582EE90E013
:101CE000089580EE90E0089586EE90E0089585E3F3
:101CF00090E008958AE290E0089581E390E0B3CF08
:101D00009091C60292FF10C041E0282F2471243028
:101D100009F040E031E0282F2871283009F030E048
:101D2000431711F02CE0822793FF10C041E0282FC9
:101D30002471243109F040E031E0282F2871283146
:101D400009F030E0431711F02CE082273091C702F0
:101D500030FF10C051E0282F2171213009F050E0F0
:101D600041E0282F2871283009F040E0541711F085
:101D700029E0822731FF10C041E0282F2171213155
:101D800009F040E031E0282F2871283109F030E0D7
:101D9000431711F029E0822794FD877E089580E0A3
:101DA0000895CF939C01205E3245C1E02032310579
:101DB00038F4FB01C581C11103C08F710E94B702C5
:101DC0008C2FCF910895089590E080E00E94B72471
:101DD00021E0833E9E4F09F020E0822F089563EEBC
:101DE0007EEF90E080E00C94E5246FEF7FEF90E0D1
:101DF00080E00C94E524CF93DF93EC0182E090E047
:101E00000E94AF248883DF91CF910895FC01608107
:101E100082E090E00C94CB2483E090E00C94AF241B
:101E2000682F83E090E00C94CB24CF93DF93EC01F8
:101E300084E090E00E94B72499838883DF91CF915A
:101E40000895FC016081718184E090E00C94E524A8
:101E5000AB01BC018FE090E00C94DD24AB01BC0130
:101E600083E190E00C94DD24682F8EE090E00C94E8
:101E7000CB240895FECF08950895FECF0895E82F4E
:101E8000F0E0EE0FFF1FE052FD4F80819181089539
:101E9000089580EA8A95F1F7089500C00895F9CF72
:101EA0000895F894E82FE295EF70F0E031A1282F23
:101EB0002F7081E090E001C0880F2A95EAF7982FF3
:101EC0009095932391A392A1892B82A3789408954E
:101ED0000F931F93CF93DF93CAE9D1E089918F3F8E
:101EE00009F0DFDF81E0C63AD807C1F7C1E9D1E0E8
:101EF0000AE911E089918F3F09F0D3DF0C171D0724
:101F0000C9F7DF91CF911F910F910895AF92BF92C2
:101F1000DF92EF92FF920F931F93CF93DF93EC0129
:101F2000062F10E0C80186569E4F7C01FC0190816F
:101F30009F3F09F449C0D62EF894E92FE295EF703F
:101F4000F0E081A19F7021E030E001C0220F9A955E
:101F5000EAF7822B81A382A12095282322A37894DB
:101F60009CDFE1E9F1E041E050E0B12CA12C2191AE
:101F70002F3FA1F1A22FA295AF70B0E090968C9167
:101F800090E02F7002C0959587952A95E2F780FD25
:101F900025C0CA01A82AB92A440F551F81E0EA3991
:101FA000F80729F7F70180818F3F09F07ADF61E0B8
:101FB000A114B10409F460E08D2D71DF000F111F31
:101FC000C00FD11FB982A882DF91CF911F910F91CD
:101FD000FF90EF90DF90BF90AF90089590E080E089
:101FE000D9CF76DF88E1E0EEF2E0DF01982F1D9295
:101FF0009A95E9F7E8ECF2E0DF011D928A95E9F79E
:102000008CE039D037CFA8E1B0E0E9E0F0E10C9402
:102010005B248E010F5F1F4F88E1F80111928A95B2
:10202000E9F7F12C6F2DC80171DFF394FCE0FF128A
:10203000F9CF48E150E0B80188EC92E00E94992481
:1020400021E0009709F420E0892B41F088E1F801B4
:10205000A8ECB2E001900D928A95E1F74CE060EEB9
:1020600072E088EC92E008D0182F07DF812F689685
:10207000E5E00C9477240895B0E0A0E0E2E4F0E11C
:102080000C9458246C017B01042FC22F222379F079
:1020900081E08093A5020E94F41C9093A402809397
:1020A000A30280E0CDB7DEB7E8E00C947424D091B1
:1020B000A502DD23B1F38091A3029091A4020E94B6
:1020C000831C059770F310E0000F111FA801B601E3
:1020D000C7010E949924892B31F0A801B601C701DC
:1020E0000E94A624CD2F1092A5028C2FDBCFDACB35
:1020F00008950E948C1C0E94CA1EAADB0E94E21E48
:10210000C8DB0E94EB1E0E94EE1EF1DF0E94041F3E
:102110000E94AF1DABDBF7CF9093B7018093B60160
:1021200008950C94DF1A08953CCB089580E0A7DE53
:102130008170089568DF2FEF86E791E0215080409D
:102140009040E1F700C000005EDFF0DF882319F067
:10215000EBDF0C94321D0895EDCF0895A1E0B0E0BF
:10216000E4EBF0E10C945A247C01FC016081718164
:10217000828193818E010F5F1F4F21E030E040E0AC
:1021800050E09CD18981F701408151816281738146
:102190004F5F5F4F6F4F7F4F4083518362837383E5
:1021A0002196E6E00C94762484E00895CDC008954D
:1021B000FAC008951F93CF93DF93C4D0D0E0C0E05E
:1021C00010C0412F6C2F8D2F0E942C029C01412F9B
:1021D0006C2F8D2FE8D01F5F193099F7CF5FCC306F
:1021E00011F010E0EECFDF5FD43049F7DF91CF91EF
:1021F0001F9108950F931F938A019B0150E040E0C7
:10220000BC0190E080E0F6D01F910F9108950F93EC
:102210001F938A019B0150E040E0BC0190E080E008
:1022200017D11F910F910895843028F46C3018F461
:10223000493008F489C090E080E0089580E1089575
:1022400038D1CB0108950F931F938A019B0150E071
:1022500040E0BC0190E080E031D11F910F910895E2
:102260000F931F938A019B0150E040E0BC0190E076
:1022700080E06AD11F910F91089565D0A9C14F9256
:102280005F926F927F92BF92CF92DF92EF92FF9216
:102290000F931F93CF93DF9300D000D0CDB7DEB75D
:1022A000B82E8FE08B1518F104D1615071098109A6
:1022B00091098E010F5F1F4F21E030E040E050E0B8
:1022C000FDD08981811113C0F4D02B013C01C12CB8
:1022D000D12C7601B1101DC0C982DA82EB82FC825A
:1022E00040E0BE016F5F7F4F8EEA90E1EBD50F902B
:1022F0000F900F900F90DF91CF911F910F91FF9052
:10230000EF90DF90CF90BF907F906F905F904F9055
:102310000895C414D504E604F70449F38E010F5F51
:102320001F4F21E030E040E050E0C701B601C6D0C9
:102330008981811101C0BA948FEFC81AD80AE80ABE
:10234000F80AC8CF089508950F931F93CF93DF9392
:10235000843030F56C3020F5493010F5C42FD0E0D2
:10236000CC0FDD1F22E1629FC00DD11D112438ED7D
:10237000839FC00DD11D1124CE0189960E94AF24E8
:10238000082F10E0102F0027CE018A960E94AF245C
:102390009801282BC901DF91CF911F910F910895CA
:1023A00090E080E0F8CF1F93CF93DF93962F843097
:1023B000E8F46C30D8F44930C8F4632F122FC42FDE
:1023C000D0E0CC0FDD1F22E1929FC00DD11D112462
:1023D00098ED899FC00DD11D1124CE0189960E94D0
:1023E000CB24612FCE018A960E94CB24DF91CF911E
:1023F0001F910895B0E0A0E0E0E0F2E10C945424D5
:102400006B017C01E8014B015C01820E931EA41E4E
:10241000B51EC6018996C814D904EA04FB0429F440
:10242000CDB7DEB7ECE00C94702420E6C21623E0B2
:10243000D206E104F10450F40E94AF24888321966F
:102440008FEFC81AD80AE80AF80AE3CF1882F7CF44
:10245000B0E0A0E0EEE2F2E10C9454246B017C01C8
:10246000EB014B015C01820E931EA41EB51E96016A
:10247000C6018996C814D904EA04FB0429F4CDB72F
:10248000DEB7ECE00C94702440E6C41643E0D406BA
:10249000E104F10440F42C1B3D0BF801E20FF31FA3
:1024A00060810E94CB248FEFC81AD80AE80AF80A84
:1024B000DECF67E770E080E090E008954F925F9292
:1024C0006F927F928F929F92AF92BF92EF92FF9204
:1024D0000F931F93CF93DF934B015C0129013A01C6
:1024E0007B01E801E01AF10A87E7E81A8CEFF80AA5
:1024F000C7018C0F9D1FAE01401B510B70E060E0C7
:10250000441555056605770578F0DF91CF911F9149
:102510000F91FF90EF90BF90AF909F908F907F9022
:102520006F905F904F900895480D591D6A1D7B1D57
:10253000473751056105710528F40E94AF2488834F
:102540002196D6CF1882FCCF4F925F926F927F92E6
:10255000AF92BF92CF92DF92EF92FF920F931F93B1
:10256000CF93DF936B017C0129013A015B0187E77F
:10257000A81A8CEFB80AD0E0C0E0C5018C0F9D1FEF
:10258000AE0170E060E0441555056605770578F00A
:10259000DF91CF911F910F91FF90EF90DF90CF903F
:1025A000BF90AF907F906F905F904F9008954C0DCB
:1025B0005D1D6E1D7F1D473751056105710530F4A6
:1025C000F801EC0FFD1F60810E94CB242196D5CF2E
:1025D000A0E1B0E0EEEEF2E10C945024CE010196C1
:1025E0005C0180E1F50111928A95E9F708E010E0BD
:1025F00097E7492E512C612C712C29E8822E23E07B
:10260000922E6201F1E14F165104610471042CF025
:1026100080E1C82ED12CE12CF12CA601B401C5011A
:102620000E94BC248C0C9D1C0D2C000CEE08FF0895
:102630004C185D086E087F080150110911F760966B
:10264000E0E10C946C24CF93DF9386319C4711F525
:10265000EB010E94A30A9D81992391F08A7A91E06F
:1026600009F490E09093A602811108C089E20E94CB
:10267000971B16D880E0DF91CF91089585E3F7CFBF
:102680008091A602811104C089E20E94AE1BF1CFA5
:1026900085E3FBCF81E0EFCFCF93DF93EC01FB012C
:1026A0008581882309F4F0C09E013057233231051B
:1026B00008F0D0C086EC92E081D8FE01E150F047EE
:1026C000E232F10508F026C0E859FC4E0C94412492
:1026D000C4133614CC1396139A13D0139E13D41329
:1026E000E013AA132F14AE13E413B213E81310145B
:1026F000B613EC131714BC13F213FA13A213D81366
:10270000A613DC13C013F613061420142D14901313
:10271000C8133D148091C60281608093C60293C0A5
:102720008091C70288608093C7028DC08091C602E5
:102730008260F3CF8091C6028460EFCF8091C602A1
:102740008860EBCF8091C7028160EDCF8091C70296
:102750008260E9CF8091C6028061DFCF8091C6029E
:102760008062DBCF8091C6028064D7CF0E947B0657
:102770008091C6028068D1CF8091C6028860DCCF8C
:102780008091C7028260E0CF8091C6028E7FC5CF64
:102790008091C702877FC7CF8091C6028D7FBDCF52
:1027A0008091C6028B7FB9CF8091C602877FB5CF5B
:1027B0008091C7028E7FB7CF8091C7028D7FB3CF44
:1027C0008091C6028F7EA9CF8091C6028F7DA5CF52
:1027D0008091C6028F7BA1CF0E947B068091C602AA
:1027E0008F779BCF8091C602877FDCCF8091C70215
:1027F0008D7FE0CF8091C60282FB992790F921E07E
:10280000922790FB82F990FB83F987CF8091C702D2
:10281000982F909591708E7F892B90FB81F983CFB3
:102820009091C602892F8F7B96FF806476CF0E949D
:102830007B069091C602892F97FB87F980586DCF50
:1028400081E00E94E20B86EC92E00E94E00B0E9485
:102850007B0680E0DF91CF91089580E0F2CF9091E8
:10286000C602892F8F7E94FF806157CF9091C60258
:10287000892F8E7F90FF816050CF9091C702892F62
:10288000877F93FF88604FCF81E0E4CF282F35EB1F
:102890002303C001112497FF04C080589109892F98
:1028A000089580589F4FFBCF8091AD0280FF0DC0EF
:1028B0006091090170E0660F771F6038710580F53F
:1028C0006115710579F1862F089581FF07C0609128
:1028D000090184E0689FB0011124EFCF82FF04C09A
:1028E0006091090188E0F6CF2091AC022223A9F083
:1028F000909108016091090188E0689FB00111245E
:102900002917D8F6269FA001279F500D1124692F63
:1029100070E0CA010E942E24D0CF68E070E0D3CFCF
:102920008FE7089581E008958091AD0280FF0CC08B
:102930006091050170E075956795759567956115CE
:10294000710549F1862F089581FF06C06091050148
:1029500070E075956795F3CF6091050182FD0BC01E
:102960009091AB029923A1F060910401809105013F
:10297000961738F0682F70E06038710500F38FE724
:102980000895899FC001112470E00E942E24F4CF85
:1029900061E070E0D7CF81E008958D3C29F484DFB9
:1029A00081958093B10208958E3C11F47DDFF9CFBB
:1029B0008F3C29F479DF81958093B0020895803DA2
:1029C00011F472DFF9CF893D21F4AEDF8093B202BA
:1029D00008958A3D19F4A8DF8195F8CF8B3D29F43D
:1029E000A3DF81958093B30208958C3D11F49CDFA1
:1029F000F9CF9FE2980F983070F4815D990B21E038
:102A000030E001C0220F8A95EAF78091AF02822B55
:102A10008093AF0208958D3D31F48091AD028160C5
:102A20008093AD0208958E3D21F48091AD028260C5
:102A3000F7CF8F3DB9F78091AD028460F1CF8D3C27
:102A4000D9F49091B10297FF1DC01092B10280910C
:102A5000B002811106C08091B102811102C01092B2
:102A6000AC028091B202811106C08091B302811143
:102A700002C01092AB0208958E3CD9F49091B1023D
:102A800019161CF39FE2980F983008F03FC0815D43
:102A9000990B21E030E0A90102C0440F551F8A952F
:102AA000E2F7CA0180959091AF0289238093AF022B
:102AB000CECF9091B0028F3C29F497FFE3CF1092D4
:102AC000B002C5CF803D19F41916CCF3DBCF90913D
:102AD000B202893D29F41916ACF61092B202B7CFB2
:102AE0008A3D19F497FFCECFF8CF8B3D39F4909102
:102AF000B30297FFC7CF1092B302A9CF8C3D09F064
:102B0000C1CF9091B3021916B4F3BCCF8D3D31F40F
:102B10008091AD028E7F8093AD0299CF8E3D21F4DE
:102B20008091AD028D7FF7CF8F3D09F090CF8091DE
:102B3000AD028B7FF0CF58D72091B002211104C095
:102B40002091B102222321F09093AA028093A9023E
:102B50002091B202211104C02091B302222321F05E
:102B60009093A8028093A7028EEA92E0C8C486E000
:102B7000EEEAF2E0DF011D928A95E9F71092AC02CD
:102B80001092AB021092AD020895FC018281811176
:102B90000EC0838181110BC08481811108C091E036
:102BA0008581811101C090E0892F8170089581E0B5
:102BB000FCCFA6E0B0E0EFEDF5E10C945D2486E0FB
:102BC000EEEAF2E0DE01119601900D928A95E1F7AE
:102BD0001092B0021092B1021092B2021092B3029F
:102BE0008B81811103C08C81882381F08091A9029F
:102BF0009091AA0288D6AC019091AC029923B9F1C8
:102C000080910A018417150608F43EC08D81811158
:102C100003C08E81882389F08091A7029091A80239
:102C200072D6AC019091AB02992309F463C08091F4
:102C300006018417150608F46BC0BE016F5F7F4F55
:102C40008EEA92E0BBD5811104C08EEA92E09DDF4E
:102C5000811171DF86E0FE013196AEEAB2E00190AB
:102C60000D928A95E1F72696E3E00C947924209161
:102C70000B018AE0289F900111242417350730F6B4
:102C80009F5F9093AC0202C09F3FD1F71B8111233D
:102C900051F00ADE9FEF11160CF491E0899F802D10
:102CA00011248093B0021C81112351F0FDDD9FEFB0
:102CB00011160CF491E0899F802D11248093B102AC
:102CC0008091B002882309F4A1CF1091B1021123A1
:102CD00009F49CCFDBDD882349F08093B002812F7B
:102CE000D5DD882329F08093B10290CF81E0F5CF24
:102CF00081E0F9CF209107018AE0289F90011124FB
:102D00002417350708F099CF9F5F9093AB0202C05C
:102D10009F3FD1F71D81112351F006DE9FEF111661
:102D20000CF491E0899F802D11248093B2021E81C2
:102D3000112351F0F9DD9FEF11160CF491E0899FFA
:102D4000802D11248093B3028091B202882309F46C
:102D500074CF1091B302112309F46FCF97DD88234C
:102D600049F08093B202812F91DD882329F080936E
:102D7000B30263CF81E0F5CF81E0F9CFB0E0A0E00E
:102D8000E4ECF6E10C945724E82FF0E0EC57FE4F0A
:102D9000B490282F26952695269530E0F901EC5D14
:102DA000FD4F0491877010E0082E02C0159507951D
:102DB0000A94E2F701701127F901EC5EFD4FE490EF
:102DC000F12C082E02C0F594E7940A94E2F791E002
:102DD000E922FF24F901EC5FFD4FC491D0E002C06D
:102DE000D595C7958A95E2F7C170DD27C62ED12CFF
:102DF0000115110549F5E114F10431F086EE0E9448
:102E0000D103C601009771F5B6018B2D0E944304D2
:102E1000C601009779F5E114F104A1F5011511053A
:102E200031F081EE0E941604C6010097C9F5CD2B42
:102E300031F08CE20E945904C114D104C9F5CDB718
:102E4000DEB7E9E00C94732481EE0E94D103C60141
:102E5000009789F2EFE9FFE03197F1F700C0000039
:102E60000197F6CFEFE9FFE03197F1F700C00000DE
:102E70000197C8CFEFE9FFE03197F1F700C00000FC
:102E80000197C7CF86EE0E941604C601009731F263
:102E9000EFE9FFE03197F1F700C000000197F6CFAE
:102EA000EFE9FFE03197F1F700C000000197BDCFD7
:102EB0008FE99FE00197F1F700C0000091E0C91A87
:102EC000D108BACFB0E0A0E0E8E6F7E10C945724CF
:102ED0008C017B01D42F8AE0B82EC701F801099537
:102EE0008823A9F0813009F058C0C701F80109957D
:102EF000C82F813089F4C701F80109950E9459044F
:102F00008D2F90E0009709F040C0C111E6CFCDB7FA
:102F1000DEB7E9E00C947324823031F4C701F80184
:102F200009950E94D103ECCF833031F4C701F80139
:102F300009950E941604E4CF843011F7C701F80107
:102F40000995C82FD12CC12C2C2F2053330BC9012C
:102F50002A30310568F0C114D10491F28FE99FE065
:102F60000197F1F700C0000091E0C91AD108F3CF32
:102F7000BC9C9001BD9C300D11246C01C20ED31E6F
:102F8000C701F8010995C82FDFCFEFE9FFE03197BE
:102F9000F1F700C000000197B5CF6D2FEFDE9DCF98
:102FA0000F931F93CF93DF93C42FD22FFC01858102
:102FB0008823C1F04093B60217D59093B502809351
:102FC000B40280E28C0F883040F4C77081E001C009
:102FD000880FCA95EAF70E946004DF91CF911F9194
:102FE0000F9108951091B602141331C08091B4026C
:102FF0009091B50288D4883C910548F5C0E2CD0F88
:103000001D17B9F080E2810F883040F4177081E01D
:1030100001C0880F1A95EAF70E946504C83010F5C0
:1030200081E09D2F977001C0880F9A95EAF70E9462
:103030006004802F0E945904C83078F6D77081E070
:1030400001C0880FDA95EAF70E946504C6CF80E2D6
:103050008C0F883010F6C77081E001C0880FCA95C8
:10306000EAF7F2CF802F0E945904B7CF0F93FC01EB
:10307000E851FC47E730F10508F039C0CB01ED5BC2
:10308000F74E0C94412459185F184A1853186518C4
:103090006B18711806E221EE41EE6AE17CE780DFF1
:1030A00080E00F91089507E225EE45EE6BE17CE7A5
:1030B000F6CF06E221EE40EE68E17CE7F0CF07E2D2
:1030C00025EE44EE69E17CE7EACF06E221EE42EE2E
:1030D0006CE17CE7E4CF07E225EE46EE6DE17CE7AC
:1030E000DECF08E221E045EE6EE17CE7D8CFFB01C0
:1030F0008581882319F01092B602D3CF81E0D1CF19
:103100001F93CF93DF9387372CE7920729F08837F7
:103110009C4729F1C1E011C0FB01C581CC2391F08E
:1031200026D00E94E20629D0D82F24D0C82F1FD045
:103130004D2F6C2F0E94F307C0E08C2FDF91CF91B1
:103140001F91089514D00E94EC0617D0182F12D0AA
:10315000D82F0DD0412F6D2F0E94F307EECFFB012A
:10316000C581CC2311F006D0DCCF04D0ECCF809108
:103170000E01089580910D01089580910C0108952C
:10318000A3E0B0E0E6ECF8E10C945E24AE014F5F02
:103190005F4FBE016E5F7F4FCE0103962DD18B81B5
:1031A000853239F48A81863021F481E09981953223
:1031B00009F080E081702396E2E00C947A24882361
:1031C00021F045E266E085E23DC14FEF6FEF8FEF02
:1031D000FBCF08950895CF92DF92EF92FF926B019B
:1031E0007C01F8DFC701B6014CD1FF90EF90DF9072
:1031F000CF90089500D180E0E2DF60E070E0CB0185
:10320000EADF0E94DA1039D881E0D9CFE2DF30D18D
:10321000E1DFB6DF811101C0EDCF089508959C0173
:10322000FB018581882349F0A90157574038510592
:1032300028F4C90124D880E0089581E008952FEF93
:10324000FC0120830895FBCF089580E00895B0E04D
:10325000A0E0EDE2F9E10C945624EC01D62EF5DF66
:1032600081113BC0E881E150E33110F5F0E0E55C0D
:10327000F64E0C9441244E1952198F199F19A71913
:10328000B219B519B519B51958195819B919BD197F
:10329000C119CE19DB19DE19E119EE1919828CE07A
:1032A0008A8317C089818230E9F028F4813061F087
:1032B0008FEF88830EC08330B9F08430C9F71A824B
:1032C0001B821C821D8205C09BD39A838B837C83C7
:1032D0006D836D2DCE010E949110CDB7DEB7EAE06F
:1032E0000C947224C5D0F1CFCA807E0110E000E0BA
:1032F000AC2CB12CC501800F911F0C9750F78C2D71
:10330000800F0E943F0FF701938384830F5F1F4F4D
:10331000F2E0EF0EF11C0E30110561F7DACF898172
:10332000823029F0853021F68A8178DFD2CF6A8118
:103330007B818C819D810E9447244DDFCACF4B81C8
:103340006A8189810E94D6109C838D83C2CF2C8193
:103350003D813227232732274B816A8189810E9450
:10336000D810B7CF0E94DA10B4CF6D2DCE016BDF2D
:10337000B0CF0E941E118983ACCF0E942011998387
:103380008FCF6B8170E089819A81AE014C5F5F4F76
:103390009827892798270E9423119BCF6B8170E083
:1033A00089819A81AE014C5F5F4F982789279827C2
:1033B0000E9430118ECF0E943D118BCF0E94D410FD
:1033C000DACF6B8170E089819A81AE014C5F5F4FEB
:1033D0009827892798270E94FA107BCF6B8170E08D
:1033E00089819A81AE014C5F5F4F98278927982782
:1033F0000E9407116ECF0895EF92FF920F931F93D3
:10340000CF93DF937C018B01EA01892B31F085E2B8
:1034100090E00E94AF24F70180830115110531F07F
:1034200086E290E00E94AF24F8018083209729F083
:1034300087E290E00E94AF248883CDB7DEB7E6E054
:103440000C947624CF93DF93D62FC42F682F85E278
:1034500090E00E94CB246D2F86E290E00E94CB2466
:103460006C2F87E290E00E94CB24DF91CF910895EA
:1034700088E290E00E94AF24682F70E090E080E046
:10348000089588E290E00C94CB249093BC02809342
:10349000BB020895FED191E0813009F090E0892FC0
:1034A0000895E091BB02F091BC02309739F0019091
:1034B000F081E02D309711F00995089580E008958E
:1034C000E091BB02F091BC02309731F00280F381B1
:1034D000E02D309709F009950895E091BB02F09135
:1034E000BC02309759F024813581232B39F026E036
:1034F000DC012C930480F581E02D09950895E0917D
:10350000BB02F091BC02309759F026813781232B02
:1035100039F022E0DC012C930680F781E02D09953B
:103520000895A3E0B0E0E7E9FAE10C945E2420916D
:10353000B9023091BA0228173907B1F09093BA0254
:103540008093B902E091BB02F091BC02309761F028
:103550000084F185E02D309739F023E029839B83A7
:103560008A83CE01019609952396E2E00C947A2491
:10357000A3E0B0E0EEEBFAE10C945E242091B702F8
:103580003091B80228173907B1F09093B8028093B0
:10359000B702E091BB02F091BC02309761F0008469
:1035A000F185E02D309739F024E029839B838A83CD
:1035B000CE01019609952396E2E00C947A24E091DD
:1035C000BB02F091BC02309731F00284F385E02D0C
:1035D000309709F009950895CF93DF93C0910201C8
:1035E000D0910301229656DF882381F08091C60294
:1035F00087FF0CC0C0910001D091010122969EE18D
:1036000080E0915028F4DF91CF91089596E0F8CFB3
:1036100029912223B1F38F5FF4CFCF93882321F137
:10362000C82F38DF882319F18091C60287FF1FC099
:10363000EC2FE695E695E695EE31B0F48091000129
:1036400090910101E80FF92FF11D228130E0C77040
:1036500081E090E002C0880F991FCA95E2F7282305
:10366000392381E0232B09F480E0CF9108958091E4
:10367000020190910301FC013296089621912C17CA
:1036800021F0E817F907D1F7EFCF81E0EECF9C01E9
:10369000FC0132969FEF80E04191461751F09F3F29
:1036A00019F4411101C0982F8F5F8630A9F79F3F11
:1036B00009F40895290F311D97FD3A95F9016283A8
:1036C0000895FC01329608962191261303C0DF016C
:1036D00011971C92E817F907B9F70895E62FE695B8
:1036E000E695E695EE3168F4E80FF92FF11D677065
:1036F00021E030E001C0220F6A95EAF78281822B37
:1037000082830895E62FE695E695E695EE3170F40E
:10371000E80FF92FF11D677021E030E001C0220FA2
:103720006A95EAF720958281282322830895CF9312
:10373000C82FB0DE6C2F882359F08091C60287FF16
:1037400007C08091000190910101C8DFCF910895D9
:1037500080910201909103019ADFF8CFCF93C82F97
:1037600099DE6C2F882359F08091C60287FF07C02D
:103770008091000190910101C5DFCF910895809162
:103780000201909103019DDFF8CF84DE882379F058
:103790008091C60287FF0BC0E0910001F09101010A
:1037A00032968EE1DF011D928A95E9F70895E09146
:1037B0000201F0910301329686E0F4CFDC01FB01B7
:1037C00011969C9111978181981322C012968C9129
:1037D0001297882319F0928189131AC013968C913D
:1037E0001397882319F09381891312C015968C9131
:1037F0001597882319F0958189130AC014969C9116
:10380000992321F081E02481291303C080E001C0C5
:1038100081E0817008950895FECF089581110CC054
:1038200081E08093120160910F01709110018091ED
:10383000110190911201F0CF82E0F3CF83E08093E9
:10384000120160910F01709110018091110190910E
:103850001201E2CFE3CF089581E0809312016091DD
:103860000F01709110018091110190911201D4CF3C
:10387000F3CF089591E0811101C090E09093110180
:1038800060910F01709110018091110190911201CE
:10389000C3CF8091110108958093100160910F01B1
:1038A000709110018091110190911201B5CF80911A
:1038B0001001089580930F0160910F017091100124
:1038C0008091110190911201A7CF80910F0108956D
:1038D00008950895FECF089508950895F9CF0895A5
:1038E000CF93FADF0E940310F8DFC0E08C2F0E9414
:1038F0003F0F892B31F4CF5FCC30C1F780E0CF91FF
:10390000089581E0FCCFCF93DF93EC016DD08C1B49
:103910009D0BDF91CF91089585B7806885BF85B7EE
:10392000806885BF08951F920F920FB60F921124E1
:103930008F939F93AF93BF938091BD02811113C06A
:103940008091F8029091F902A091FA02B091FB02E5
:103950004196A11DB11D8093F8029093F902A093A6
:10396000FA02B093FB02BF91AF919F918F910F909C
:103970000FBE0F901F90189580910003843031F195
:103980000E944D031092BD0288E190E020E40FB642
:10399000F894A895809360000FBE2093600083B7D1
:1039A000817F846083BF83B7816083BF789488956B
:1039B00083B78E7F83BF0FB6F894A895809160007F
:1039C000886180936000109260000FBE08950E948D
:1039D0007B060C94510382E084BD93E095BD9AEF81
:1039E00097BD80936E0008952FB7F8948091F802E8
:1039F0009091F902A091FA02B091FB022FBF0895B5
:103A00002FB7F8946091F8027091F9028091FA0250
:103A10009091FB022FBF089578941F920F920FB6DA
:103A20000F9211248F939F93AF93BF938091F802CD
:103A30009091F902A091FA02B091FB020196A11DAA
:103A4000B11D8093F8029093F902A093FA02B0930B
:103A5000FB02BF91AF919F918F910F900FBE0F907E
:103A60001F90189581E08093E00080E28093D80059
:103A70001092C9008FE19EE40197F1F700C00000A9
:103A800087E090EBDC018093090390930A03A093F5
:103A90000B03B0930C0388E19CE00FB6F894A89553
:103AA000809360000FBE90936000FFCF88E19CE0A0
:103AB0000FB6F894A895809360000FBE90936000B5
:103AC000FFCF9B01909100039430E9F48F708093B5
:103AD000E9008FEF9091E800815095FD06C095EDCB
:103AE0009A95F1F700008111F5CF8091E80085FFEC
:103AF0000AC0BA01C90150E040E0F8D18091E80065
:103B00008E778093E8000895603229F4BC0140E28A
:103B100050E082E0D6CF089543E050E0BC0184E05D
:103B2000D0CF46E050E0BC0184E0CBCF40E250E093
:103B3000BC0184E0C6CFCF93DF93EC01AADE48E05E
:103B400050E0BE0181E0BDDF88E0FE01AEEBB2E0F7
:103B500001900D928A95E1F7DF91CF910895A0E24F
:103B6000B0E0E4EBFDE1AAC6809100038430F9F4F3
:103B700083E08093E9008091E80082FF18C0809183
:103B8000E80090E085FF08C050E040E060E270E0AF
:103B9000CE010196F8D191E08091E8008B77809377
:103BA000E800992321F060E2CE01019650DBA09657
:103BB000E2E0A0C68091FF02811107C072D3C9D391
:103BC0008091E20084608093E20008951092FF02E9
:103BD000089542DE81E04ECE6091FC0281E06111E9
:103BE00001C080E02BCE9091000381E0943009F079
:103BF00080E06091FC022ECE42E061EC81E0CFD209
:103C000042E261EC84E0CBD242E261EC82E0C7D2D6
:103C100042E260EC83E0C3D29091000381E09430F3
:103C200009F080E06091FC02F9CD809102038330BD
:103C300009F464C038F4813009F43DC0823009F4DD
:103C400099C008958A3009F488C08B3009F470C097
:103C5000893009F052C080910103813209F04DC0D2
:103C60008091050390910603009719F0029709F0DF
:103C700044C08091E800877F8093E8008091E8004D
:103C800082FF37C08091F3009091F2008927982736
:103C90008927029731F48091F100813011F086304C
:103CA00019F48091F100F8DD8091E8008B77809322
:103CB000E800A9D222C080910103813AF1F48091F9
:103CC000E800877F8093E8008091050390910603C8
:103CD000892B59F468E08EEB92E070E0A1D18091DD
:103CE000E8008B778093E800089560E090E080E042
:103CF000F4CF809100038111C1CF08958091010319
:103D0000813AD9F78091050390910603892BA9F791
:103D10008091E800877F8093E8008091E80080FF31
:103D2000FCCFB7DD8093F1008091E8008E77BFCFA4
:103D300080910103813209F7809105039091060378
:103D4000892BD9F68091E800877F8093E8005BD2C9
:103D5000809103038FDD0C947B06809101038132F7
:103D600061F68091E800877F8093E8004CD28091D3
:103D70000403A0CD80910103813A09F0BECF809168
:103D8000E800877F8093E8008091E80080FFFCCF07
:103D90009CDDC8CF84B7877F84BF0FB6F894A89501
:103DA00080916000886180936000109260000FBE77
:103DB00080E890E00FB6F8948093610090936100E2
:103DC0000FBE56CD6ED2C5D2E2EEF0E080818460A7
:103DD0008083789428C583E191E057CB80910003DC
:103DE000853029F480910003853011F0F0CD0895DD
:103DF000C3DD76DD8823B1F38091FE02882391F341
:103E00005FD00E947B06EECF08959A014091070390
:103E10005091080300C0492F55274330510579F1CF
:103E200058F441305105F1F04230510519F190E05C
:103E300080E050E040E01AC04132510599F1423231
:103E40005105A9F76330710590F7FB01EE0FFF1FD5
:103E5000E755FE4F408151816A557E4FFB018081BD
:103E600090E004C082E190E047EB52E0F901518319
:103E7000408308958BE590E04CE552E0F7CF992719
:103E80008130910561F028F0029789F6E4E3F2E0D1
:103E900002C0E8E5F2E0849190E0AF01E7CFE0E412
:103EA000F2E0F9CF6330710508F0C1CF660F771FDC
:103EB000FB01E155FE4F4081518189E090E0D6CF72
:103EC00080E189BD82E189BD09B400FEFDCF80910A
:103ED000D8008F7D8093D8008091E000826080932D
:103EE000E0008091E00081FDFCCF0895AF92BF9289
:103EF000CF92DF92FF920F931F93CF93DF936C01CA
:103F0000EB018A019FD1F82E811123C00115110503
:103F100039F0F80180819181C81BD90BC80ED91ED8
:103F2000B12CA12C2097A9F08091E80085FD21C03B
:103F30008091E8008E778093E80001151105A1F0CB
:103F4000F80180819181A80EB91EB182A08285E01E
:103F5000F82E8F2DDF91CF911F910F91FF90DF9061
:103F6000CF90BF90AF9008956DD18823D9F2F82EED
:103F7000F0CFF60181916F018093F1002197FFEF5F
:103F8000AF1ABF0ACFCFAF92BF92CF92DF92FF920C
:103F90000F931F93CF93DF936C01EB018A0152D1F2
:103FA000F82E811123C00115110539F0F801808127
:103FB0009181C81BD90BC80ED91EB12CA12C2097FA
:103FC000A9F08091E80085FD21C08091E8008B7701
:103FD0008093E80001151105A1F0F801808191811D
:103FE000A80EB91EB182A08285E0F82E8F2DDF9138
:103FF000CF911F910F91FF90DF90CF90BF90AF9026
:10400000089520D18823D9F2F82EF0CF8091F100C5
:10401000F60181936F012197FFEFAF1ABF0ACFCF4F
:10402000FC01809107039091080386179707A0F081
:104030006115710529F49091E8009E779093E8004E
:1040400090E06115710551F4911108C08091E8006C
:1040500082FF35C080E00895BC01F2CF809100035B
:104060008823C9F18530C9F18091E80083FD31C012
:104070008091E80082FDEACF8091E80080FFE1CFE7
:104080002091F3008091F200322F282F61157105E5
:1040900019F02830310558F091E02830310509F049
:1040A00090E02091E8002E772093E800CACF81911C
:1040B0008093F100615071092F5F3F4FE7CF8091EE
:1040C0000003882341F0853041F08091E80083FFB0
:1040D000BDCF81E0089582E0089583E00895FC015A
:1040E000809107039091080386179707A0F0611548
:1040F000710529F48091E8008E778093E80090E0C4
:104100006115710551F4911108C08091E80082FF9A
:1041100036C080E00895BC01F2CF8091000388236F
:10412000D1F18530D1F18091E80083FD32C08091DA
:10413000E80082FDEACF8091E80080FFE1CF209186
:10414000F3008091F200322F282F6115710519F0CC
:104150002830310558F091E02830310509F090E021
:104160008091E8008E778093E800CACF8491809395
:10417000F1003196615071092F5F3F4FE6CF80917A
:104180000003882341F0853041F08091E80083FFEF
:10419000BCCF81E0089582E0089583E00895982FD0
:1041A000973028F08F708093E90081E00895909314
:1041B000E900242F762F50E0981731F07091EC0031
:1041C0002091ED005091F00021FD02C09F5FE8CFEB
:1041D0003091EB003E7F3093EB003091ED003D7F5E
:1041E0003093ED003091EB0031603093EB00709331
:1041F000EC002093ED005093F0002091EE0027FD9D
:10420000E5CF80E008958091010387FF13C080917E
:10421000E80082FF06C08091E8008B778093E80079
:1042200004C0809100038111F2CF089580910003B2
:104230008823D9F38091E80080FFF8CF8091E800CF
:104240008E77ECCF2091E4003091E50085E69091E7
:10425000EC0090FF06C09091E80090FF06C080E05F
:1042600008959091E80092FDFACF90910003992370
:1042700091F0953091F09091EB0095FD10C0409138
:10428000E4005091E5002417350709F381509A01A5
:10429000F1F684E0089582E0089583E0089581E0D6
:1042A000089567D06ED0E0EEF0E080818160808379
:1042B000E8EDF0E080818F77808319BCA7EDB0E056
:1042C0008C918E7F8C9380818F7E80831092FF02F1
:1042D00008950F931F93CF93DF934BD052D0C8ED27
:1042E000D0E088818F7788838881806888838881FF
:1042F0008F7D888319BC109200031092FC021092EB
:10430000FE021092FD0200EE10E0F80180818B7F2A
:10431000808388818160888342E060E080E03FDFC5
:10432000E1EEF0E080818E7F8083E2EEF0E080813C
:1043300081608083808188608083F80180818E7FA6
:104340008083888180618883DF91CF911F910F9155
:104350000895E8EDF0E080818F7E8083E7EDF0E066
:1043600080818160808384E082BF81E08093FF024E
:10437000B0CFE8EDF0E080818E7F80831092E20084
:1043800008951092DA001092E10008951F920F92A2
:104390000FB60F9211242F933F934F935F936F9318
:1043A0007F938F939F93AF93BF93EF93FF938091EE
:1043B000E10082FF0AC08091E20082FF06C0809186
:1043C000E1008B7F8093E1002DD28091DA0080FFA5
:1043D00018C08091D80080FF14C08091DA008E7FD1
:1043E0008093DA008091D90080FF8FC080E189BD81
:1043F00082E189BD09B400FEFDCF81E08093000316
:10440000D9DB8091E10080FF18C08091E20080FF3D
:1044100014C08091E2008E7F8093E2008091E200E0
:1044200080618093E2008091D80080628093D80000
:1044300019BC85E080930003CFDB8091E10084FF0D
:1044400028C08091E20084FF24C080E189BD82E120
:1044500089BD09B400FEFDCF8091D8008F7D809387
:10446000D8008091E1008F7E8093E1008091E2008E
:104470008F7E8093E2008091E20081608093E20071
:104480008091FC02882309F445C084E080930003F6
:10449000AADB8091E10083FF27C08091E20083FFC7
:1044A00023C08091E100877F8093E10082E08093C8
:1044B00000031092FC028091E1008E7F8093E10066
:1044C0008091E2008E7F8093E2008091E200806123
:1044D0008093E20042E060E080E061DE8091F000E5
:1044E00088608093F00075DBFF91EF91BF91AF91F1
:1044F0009F918F917F916F915F914F913F912F91FC
:104500000F900FBE0F901F90189519BC10920003CA
:104510005DDB77CF8091E30087FD02C081E0B6CFFD
:1045200083E0B4CF1F920F920FB60F9211242F93F6
:104530003F934F935F936F937F938F939F93AF932B
:10454000BF93CF93EF93FF93C091E900CF70809119
:10455000EC001092E9008091F000877F8093F000DA
:1045600078941BD01092E9008091F00088608093CD
:10457000F000C093E900FF91EF91CF91BF91AF910F
:104580009F918F917F916F915F914F913F912F916B
:104590000F900FBE0F901F901895AAE2B0E0E2EDC9
:1045A000F2E28BC1E1E0F3E08091F100819323E03E
:1045B000E930F207C9F739DB8091E80083FF43C097
:1045C00080910103909102039A3008F03CC0E92FDA
:1045D000F0E0E451FD4D55C1F6221C2323231C239A
:1045E0002323722393232323E723F423803889F0A2
:1045F000823849F5809105038F70873020F58093CC
:10460000E9008091EB0085FB882780F91092E90092
:1046100006C08091FD029091FE02911182609091FE
:10462000E800977F9093E8008093F1001092F100EA
:104630008091E8008E7726C0282F2D7F21F48823D3
:1046400099F0823019F18091E80083FF0AC08091CF
:10465000E800877F8093E8008091EB008062809380
:10466000EB00AA96E3E045C180910303813059F73E
:10467000933009F080E08093FE021092E90080916F
:10468000E800877F8093E800BEDDDDCF80910303E3
:104690008111F3CF809105038F702FEF280F263003
:1046A00090F68093E9002091EB0020FFE6CF933055
:1046B00031F48091EB0080628093EB00DECF90912B
:1046C000EB0090619093EB0021E030E001C0220FFD
:1046D0008A95EAF72093EA001092EA008091EB00B5
:1046E0008860EACF8111AFCF109103031F778091CB
:1046F000E3008078812B8093E3008091E800877F3E
:104700008093E80080DD8091E80080FFFCCF8091FD
:10471000E30080688093E30083E0111101C082E030
:104720008093000390CF8058823008F08CCF809126
:104730000303909104038C3D23E0920799F583E0F5
:104740008A838AE289834FB7F894DE01139620E0CA
:104750003EE051E2E32FF0E050935700E49120FF58
:1047600003C0E295EF703F5FEF708E2F90E0EA306C
:10477000B8F0C7968D939D932F5F243159F74FBFA3
:104780008091E800877F8093E8006AE270E0CE01C4
:10479000019646DC8091E8008B778093E80053CF48
:1047A000C096E8CF6091050370910603AE014F5F9C
:1047B0005F4F2BDBBC01892B09F445CF9091E800BA
:1047C000977F9093E80089819A8189DCE3CF8038D4
:1047D00009F039CF8091E800877F8093E8008091CD
:1047E000FC028093F10024CF81112DCF909103031F
:1047F000923008F028CF8091E800877F8093E8000E
:104800009093FC0200DD8091FC02882329F084E073
:1048100080930003F1D917CF8091E30087FDF7CF94
:1048200081E0F6CF0895CF9380910003882391F023
:10483000C091E900CF708091EC0080FD0DC080E058
:10484000C82B1092E9008091E80083FDA6DECF70AE
:10485000C093E900CF91089580E8F2CF97FB072E2F
:1048600016F4009406D077FD08D04FD007FC05D091
:104870003EF4909581959F4F0895709561957F4F77
:104880000895EE0FFF1F0590F491E02D099469271C
:104890009627692778278727782708952F923F92B0
:1048A0004F925F926F927F928F929F92AF92BF9240
:1048B000CF92DF92EF92FF920F931F93CF93DF93EC
:1048C000CDB7DEB7CA1BDB0B0FB6F894DEBF0FBE49
:1048D000CDBF09942A88398848885F846E847D8496
:1048E0008C849B84AA84B984C884DF80EE80FD8098
:1048F0000C811B81AA81B981CE0FD11D0FB6F8940E
:10490000DEBF0FBECDBFED010895AA1BBB1B51E159
:1049100007C0AA1FBB1FA617B70710F0A61BB70B2F
:10492000881F991F5A95A9F780959095BC01CD01D4
:104930000895FB01DC0104C08D910190801921F4E0
:1049400041505040C8F7881B990B0895FB01DC01CA
:1049500002C001900D9241505040D8F70895F99946
:10496000FECF92BD81BDF89A992780B50895A8E140
:10497000B0E042E050E02FC0DC01A40FB51F415071
:10498000504040F0CB01840F951F2E9105D041502F
:104990005040D8F70895262FF999FECF92BD81BDDA
:1049A000F89A019700B4021639F01FBA20BD0FB66D
:1049B000F894FA9AF99A0FBE08950396272FECDF20
:1049C000EADF252FE9DF242FE7CF0196272FE4DF49
:1049D000E2CFDC01CB01FC01F999FECF06C0F2BDAC
:1049E000E1BDF89A319600B40D9241505040B8F7AD
:0649F0000895F894FFCFCA
:1049F60056027602280850011E0A1401030201001D
:104A0600000100571C9B1D961D911D8C1D841DE2E7
:104A160000E900EA00B500B600B700CD008301CC7E
:104A2600008A019201940121022302240225022612
:104A36000227022A02B300B4006F0070009F01CB68
:104A4600019F02A002818283E200E900EA00B5002C
:104A5600B600B700CD008301CC008A019201940113
:104A66002102230224022502260227022A02B3007B
:104A7600B4006F0070009F01CB019F02A0028182EB
:104A860083F76766363534979037F5F6F4F1F030EC
:104A96009694959392914422B6A103C902EB026EB5
:064AA600028702A70200D6
:00000001FF
