:100000000C94C3020C94E0020C94FB020C94E002EA
:100010000C94E0020C94E0020C94E0020C94E002D8
:100020000C94E0020C94E0020C94BB1D0C94E002D2
:100030000C94E0020C94E0020C94E0020C94E002B8
:100040000C94E0020C94E0020C94E0020C94E002A8
:100050000C94E0024E074E077A077A07DB07F90790
:10006000DA08DA08FE076608770877083E174117AE
:1000700078178B1793179E17A117A117A117E917C8
:10008000E917A617A917AE17BB17C817CB17CF17B5
:10009000DC174A18BC1852181C18201856182318B8
:1000A000591864182E18B2183218681836186C18B7
:1000B00096183A187018A018401876188018271843
:1000C0005D182A18601845187B188C18AC18AE18E3
:1000D00018184E18C518EB1BF11BDF1BE51BF71B8F
:1000E000FD1B031C290035001E001F0020002100FD
:1000F0002200230024002500260027002D002E00CA
:100100002A002A004B002B0014001A0008001500DA
:10011000170000001C0018000C00120013002F0034
:10012000300031004E0039000400160007000900BD
:100130000A0000000B000D000E000F003300340019
:10014000000028000000E1001D001B00060019004F
:1001500005000000050011001000360037003800CF
:10016000E50021520000E0000000E2002C00000049
:100170002152000000002C000000E60000000000FA
:100180000000E400007C01003A003B003C003D0020
:100190003E003F0040004100420043004400450053
:1001A0004C004C004A000100010052000100010017
:1001B0000100000001000100010001000100010038
:1001C000010001004D000100500051004F000100EE
:1001D0000100000001000100010001000100010018
:1001E0000000010000000100010001000100010009
:1001F00001000000010001000100010001000100F8
:1002000001000100000001000000010001000000E9
:1002100001000000000001000000010000000000DB
:1002200000000100010001000100010001000100C7
:1002300001000100010001000100010001000100B6
:1002400001000100010001000100010001000100A6
:100250000100000001000100010001000100010097
:100260000100010001000100010001000100010086
:100270000100000001000100010001000100010077
:100280000000010000000100010001000100010068
:100290000100000001000100010001000100010057
:1002A0000100010000000100000001000100000049
:1002B000010000000000010000000100000000003B
:1002C0000000010001000100010001000100010027
:1002D0000100010001000100010001000100010016
:1002E0000100010001000100010001000100010006
:1002F00001000000010001000100010001000100F7
:1003000001000100010001000100010001000100E5
:1003100001000000010001000100010001000100D6
:1003200000000100000001000100010001000100C7
:1003300001000000010001000100010001000100B6
:1003400001000100000001000000010001000000A8
:10035000010000000000010000000100000000009A
:100360000000010000000000000000002A2B28000F
:100370000000000000000000000000000000002954
:10038000000000002C1E3420212224342627252E94
:10039000362D3738271E1F202122232425263333CC
:1003A000362E37381F0405060708090A0B0C0D0EF8
:1003B0000F101112131415161718191A1B1C1D2FC4
:1003C0003130232D350405060708090A0B0C0D0EE4
:1003D0000F101112131415161718191A1B1C1D2FA4
:1003E0003130354C0000000000000000000000002B
:1003F00000000000000000000000000000000000FD
:1004000000000000000000007E0F00D4FFFFFFC7C7
:100410000000007809025B00030100A0FA09040053
:10042000000103010100092101010001224400072C
:10043000058103080001090401000203000000090E
:1004400021010100012222000705840308000107A1
:10045000050403080001090402000103000000096B
:100460002101010001227B0007058303080001121E
:10047000011001000000086BB160E41200010200ED
:10048000010E03410045004C0049005400480000A3
:10049000000E0352004D0049002D004B00420000A9
:1004A00000040309040660FF0961A1010962150047
:1004B00026FF009520750881020963150026FF00BC
:1004C000952075089102C005010902A10185020964
:1004D00001A10005091901290815002501950875D4
:1004E0000181020501093009311581257F950275C9
:1004F00008810609381581257F9501750881060553
:100500000C0A38021581257F950175088106C0C047
:1005100005010980A101850319012AB700150126EB
:10052000B700950175108100C0050C0901A1018576
:100530000419012AA002150126A002950175108157
:1005400000C005010906A101050719E029E715000A
:10055000250195087501810295017508810305073C
:10056000190029FF150026FF009506750881000572
:1005700008190129051500250195057501910295B8
:100580000175039103C011241FBECFE5D8E0DEBF83
:10059000CDBF10E0A0E6B0E0ECE3F4E402C00590CB
:1005A0000D92AE3FB107D9F722E0AEEFB0E001C047
:1005B0001D92A03CB207E1F70E9406140C941C2285
:1005C0000C940000A82FB92F80E090E041E050EAA1
:1005D000609530E009C02D9182279795879510F09E
:1005E00084279527305EC8F36F5FA8F30895EADF8C
:1005F0008D939D930895CF93CFB7CF93DF93C395FA
:10060000839BE9F7839B10C0839B0EC0839B0CC028
:10061000839B0AC0839B08C0839B06C0C09197023E
:10062000C395C09397028EC06F93C0919602DD2749
:10063000C256DD4F2F9365E5839B03C02F916F91C9
:10064000E1CF0F931F934F9320E040E15F9300B3FE
:100650000C7003FB27F93F9350E03BE039C01C705E
:1006600040642F77012F5F5F1EC0406810B31C707D
:100670002F7752501FC0406400B32F770C70D1F118
:100680005F5F00C023C0406210B32F771C7091F1F0
:100690005F5F00C025C00C701027515012F45D5FE1
:1006A0000000115027952C3F10B3C8F61C7001278D
:1006B000015027952C3FC8F64227499300B30C7090
:1006C00010274F73115027952C3FA8F64695469555
:1006D00010B31C7079F00127015027952C3F98F634
:1006E0006B5A60F3315000B3B0F600C010E81ABF87
:1006F00000271CC03B503195C31BD04010E81ABFE7
:100700000881033C21F10B3411F1209193021981EE
:10071000110F1213EDCF4A81441F093679F10D32C2
:1007200011F0013E29F74F7009F0042F00939C024D
:100730003F915F914F911F910F912F916F91CAB788
:10074000C7FD5DCFDF91CF91CFBFCF91189520919D
:100750009C02222369F310919A02112309F049C0E7
:1007600034300AF448C030939A02209395021091D5
:1007700096023BE0311B309396023DC000919A02F5
:100780000130BCF50AE54F7049F43091760034FD34
:1007900033C000937600C0E7D2E032C0433059F056
:1007A000443091F030917B0234FD26C000937B02EF
:1007B000CCE7D2E025C03091B40234FD1DC00093D7
:1007C000B402C5EBD2E01CC03091870234FD14C0E6
:1007D00000938702C8E8D2E013C0052710E000C0EC
:1007E000000002BB1AC0052710E0221F1DC010E048
:1007F00021C04AE502C032ED432FC4E1D0E032E02F
:1008000011B31C60939A02B311BB5CE020E865E36E
:1008100020FF052702BB279517951C3FF0F666952C
:10082000B8F7B1F720FF052702BB279517951C3FA6
:10083000D0F62795179517FF052700001C3F02BB30
:10084000B0F629913A9519F7037F10919B02110F89
:10085000C651D04002BB11F01093930210E81ABFAA
:10086000086011B3137F402F437F54E05A95F1F78E
:1008700002BB11BB42BB5CCF8430C8F46530B8F416
:100880004031A8F4E62FF0E095E0899FE00DF11DDE
:10089000112484E0EE0FFF1F8A95E1F7E40FF11DAC
:1008A000EE0FFF1FEC51FF4F85919491089581E069
:1008B00090E0089581E0089581E008950E945C042D
:1008C00008950E945E0408950E945C0408950895AE
:1008D0000E9467040895A6E0B0E0E1E7F4E00C941C
:1008E000792149835A839E833091050189819A81B8
:1008F000311115C03E81332359F0222349F00E9463
:10090000780A182F682F89819A810E94540A03C09F
:100910000E94660A182F69817A81812F04C00E9483
:10092000780A69817A810E947E112696E3E00C9410
:100930009521FC01262F4081518162817381848140
:1009400095810E946B040895CF93DF93EC0161E0E1
:100950000E949904BE010E946104DF91CF91089525
:10096000CF93DF93EC0160E00E949904BE010E94E6
:100970006804DF91CF91089508950E944F090E9465
:10098000BC042FEF84E39CE0215080409040E1F7CD
:1009900000C0000008950E94BD040E94E11D08955A
:1009A0000E94BD040E94F41D08950F931F93CF93DE
:1009B000DF938C0161E00E949904EC01B8010E9470
:1009C0000B17882309F450C0B801CE010E946404BB
:1009D000882309F449C0B801CE010E94D31B8823A3
:1009E00009F442C0B801CE010E94F4178823E1F156
:1009F000B801CE010E94391B8823B1F1B801CE01A4
:100A00000E94161C882381F1F8018581882341F119
:100A1000C3308CE7D807D1F040F4C115FCE7DF07FD
:100A200091F0C130DC47A1F01BC0CB35ECE7DE070D
:100A3000A9F0CC35FCE7DF0771F0CA35DC4781F45B
:100A40000E94C10E0DC00E94CB040EC00E94C90EB0
:100A50000E94D00409C00E94B70E02C00E94C50EB9
:100A6000C8010E945A0401C080E0DF91CF911F911C
:100A70000F9108950E945A1D0E94610508950E94D9
:100A800065050E94631D0895089581E00895089505
:100A9000CF93DF93D82F0E944505C82F882319F0E4
:100AA0008D2F0E9447058C2FDF91CF9108950895D7
:100AB000CF93C82F0E9444058C2F0E944805CF91E8
:100AC000089580E00E94580508950E94661C0E94C7
:100AD00058050895CF930E94661CC82F809100018D
:100AE000C81779F0C09300010E94A01D6093010116
:100AF0007093020180930301909304018C2F0E9454
:100B00005805CF910895ADE0B0E0E9E8F5E00C9428
:100B10007A21488759876A877B878C879D879111BF
:100B20000E94010ECE01019627E0FC0111922A9548
:100B3000E9F726E0FE013896DC0101900D922A9536
:100B4000E1F72D8121110AC029813A814B815C8115
:100B50006D817E818F810E944B0D04C00E94A40490
:100B60008111F2CF2D96E2E00C949621FC012481B4
:100B7000213021F4808191810E94A50A0895662385
:100B800019F00E949E1402C00E94F9140E94701570
:100B90000895CF93882309F4A4C0C82F8238C1F4E4
:100BA0000E94731C81FD9DC069E38091600090915B
:100BB00061000E941B1D0E942D0E2FEF87EE93E017
:100BC000215080409040E1F700C0000069E319C067
:100BD000833801F50E94731C80FD83C063E580911A
:100BE0006000909161000E941B1D0E942D0E2FEF4E
:100BF00081EE94E0215080409040E1F700C0000079
:100C000063E580916000909161000E941E1D0E942A
:100C10002D0E67C08438C1F40E94731C82FD61C030
:100C200067E480916000909161000E941B1D0E940A
:100C30002D0E2FEF81EE94E0215080409040E1F79F
:100C400000C0000067E4DDCF8CEF8C0F813AD0F458
:100C50006C2F80916000909161000E94E51C8823B8
:100C600049F06C2F80916000909161000E941E1DE0
:100C70000E942D0E6C2F80916000909161000E9467
:100C80001B1DC5CF80E28C0F883048F4C77081E00F
:100C900001C0880FCA95EAF70E94E40DB8CFEBE5D2
:100CA000EC0FE33040F4F0E0E355FF4F808190E03B
:100CB0000E948F1C16C0E8E5EC0FEB3150F4F0E019
:100CC000EE0FFF1FE958FF4F808191810E94B41CF5
:100CD00008C083E38C0F833120F461E08C2F0E94E5
:100CE000BF05CF910895882309F468C0823879F44C
:100CF0000E94731C81FF62C069E380916000909143
:100D000061000E941B1D0E942D0E69E310C08338F4
:100D1000B9F40E94731C80FF51C063E580916000AC
:100D2000909161000E941B1D0E942D0E63E5809131
:100D30006000909161000E941E1D0E942D0E08957A
:100D4000843879F40E94731C82FF38C067E4809174
:100D50006000909161000E941B1D0E942D0E67E4AF
:100D6000E6CF9CEF980F913A10F4682FE0CF90E215
:100D7000980F983050F4877091E001C0990F8A95D0
:100D8000EAF7892F0E94EA0DD8CF9BE5980F9330A0
:100D900028F480E090E00E948F1C089598E5980F59
:100DA0009B3128F480E090E00E94B41C089593E306
:100DB000980F933118F460E00E94BF0508951F93C7
:100DC000CF93DF93182FEB010E94C905209741F0C4
:100DD0008FE99FE00197F1F700C000002197F6CF5F
:100DE000812F0E947306DF91CF911F91089589335F
:100DF00019F060E070E002C060E570E00E94DF067C
:100E00000895882321F00E94E40D0E942D0E08957C
:100E1000882321F00E94EA0D0E942D0E0895A0E083
:100E2000B0E0E5E1F7E00C9474217C01162FC72FA8
:100E3000FC01D581068102950F700E94DA0D88238E
:100E4000E9F0DD23D9F08C2F807F803451F080E2EF
:100E5000810F883098F0011104C08C2F807E803281
:100E600069F08091570282FF09C082E00E948B0ED8
:100E70000E94DA0D91E0D82ED92601C0D12CCC2EBB
:100E8000C2948FE0C8228C2D90E08C30910508F040
:100E900091C1FC01E65DFF4F0C945D218C2F807F9A
:100EA000CF70882311F0C295C07FDD2399F0CC2349
:100EB00009F46CC180E2810F883010F0111104C078
:100EC0008C2F0E94E40D03C08C2F0E94F40D0E9411
:100ED0002D0E5CC1812F0E947306CC2309F46AC1D8
:100EE00080E2810F883038F1112329F18C2F0E9484
:100EF000FA0D24C08C2F807FCF70803211F0C29504
:100F0000C07F112319F0113099F13CC08091570234
:100F100082FD17C0DD2349F0CC2329F08C2F0E94DD
:100F2000E40D0E942D0E80E032C180E00E94730625
:100F3000CC2309F43FC18C2F0E94EA0D0E942D0E94
:100F400039C1DD2349F0002309F1013009F032C134
:100F50008C2F0E940B0E2EC101112CC18C2F0E94D0
:100F600008078C2F0E94170E8C2F0E945E0E22C144
:100F7000DD2321F0063008F01DC108C0053008F05F
:100F800019C115C0DD2331F0011100C18C2F0E9461
:100F9000010710C1002359F0193309F008C1FFEF10
:100FA00027EE83E0F15020408040E1F7FEC08C2F17
:100FB0000E940807FFC08C2F86958695837019F0D4
:100FC000813061F0F7C0DD2321F0812F9C2F9370D9
:100FD00002C080E090E00E948F1CF4C0DD2321F06D
:100FE000812F9C2F937002C080E090E00E94B41C7F
:100FF000E9C06D2F812F0E94BF05E4C08C2F837044
:1010000079F5D111DBC0412F429546954770440FC9
:10101000440F212F2F70042E01C0220F0A94EAF7EB
:1010200014FF08C08FE090E001C0880F4A95EAF7EE
:10103000809501C080E0C695C695C370822BC230F2
:1010400049F058F4C13019F00E94A609B7C00E94B7
:10105000A009B4C00E94AC09B1C00E949D09AEC0F5
:10106000DD2319F08C2F817001C08695882309F447
:10107000A5C0412F429546954770440F440F212F3C
:101080002F70042E01C0220F0A94EAF714FF08C043
:101090008FE090E001C0880F4A95EAF7809501C083
:1010A00080E0C695C695C370822BC23049F058F4D3
:1010B000C13019F00E94F20981C00E94EC097EC083
:1010C0000E94F8097BC00E94B50978C0CF70DD236B
:1010D00039F08C2F0E94C709812F0E9401076EC032
:1010E000812F0E9408078C2F0E94D30967C0123FEE
:1010F00021F128F4103F41F0113FC1F043C0133FEC
:1011000019F1143F79F03EC0DD2341F0053008F0BD
:1011100051C08C2F8F710E94E0094CC0063008F03E
:1011200049C0F7CF8091570282FD18C0DD2339F006
:101130008C2F8F710E94C7093DC0DD23C9F38C2F0E
:101140008F710E94D30936C0DD2329F08C2F8F7157
:101150000E94BE092FC00E94BA092CC0DD2349F0AD
:10116000CF718C2F0E94C70963E08C2F0E946D0EF7
:1011700021C081E00E948B0E0230E0F082E00E94EC
:101180008B0E18C0DD2331F0002391F2812F0E94D5
:10119000C90510C0002399F2193349F49FEFE7EE17
:1011A000F3E09150E040F040E1F700C00000812FF3
:1011B0000E94730688EF8C0D843020F40E94661C18
:1011C0000E945805DD2089F00E94D60D80FD0DC0DB
:1011D000F70115820E94D00D0E94C709C7010E9425
:1011E00012090E94D00D0E94D309CDB7DEB7E8E006
:1011F0000C9490210F931F93CF93DF93EC016881A0
:1012000079818D810E94B00A8C010E94FE090E94A2
:101210009009B801CE010E940F07DF91CF911F9175
:101220000F910895CF93DF93FC0124812223D1F005
:10123000EC010E94D50481110FC00E94DA0D8823B1
:1012400089F08D81882371F08091570282FF0AC056
:1012500082E00E948B0E06C0CE010E94FA08CE01E9
:101260000E94B004DF91CF91089580E090E00E9449
:101270008F1C80E090E00E94B41C0E94010E0E942E
:101280002D0E0E948F150E947015089580916000A8
:10129000909161000E94211D0E94350908950E94CD
:1012A000F10D0E944609089592959F70963079F04D
:1012B00010F4925001C09A50923068F4803F69F067
:1012C00018F4883E40F409C0843F29F406C0883EE3
:1012D00020F0813F11F080E0089581E00895FC0145
:1012E0002481222339F0808191810E94A50A0E94E5
:1012F0005409089580E00895A6E0B0E0E2E8F9E03E
:101300000C947A212696E2E00C949621A7E0B0E0B6
:10131000ECE8F9E00C947A212796E2E00C9496210F
:10132000089508950E94910908950E9492090895D0
:101330000E9495098093250108950E9498090895B7
:1013400090912501892B0E9498090895909125017B
:1013500089230E94980908959091250189270E9468
:10136000980908950E94910908950E94B2098093F6
:101370002401089580E00E94B509089591E001C01C
:10138000990F8A95EAF7892F0E94B509089521E0FF
:1013900030E001C0220F8A95EAF780912401822B68
:1013A0000E94B509089521E030E001C0220F8A951E
:1013B000EAF720958091240182230E94B5090895BF
:1013C00021E030E001C0220F8A95EAF780912401E4
:1013D00082270E94B509089590912401892B0E94CB
:1013E000B50908959091240189230E94B5090895B3
:1013F0009091240189270E94B50908950895962F98
:101400009770A1E001C0AA0F9A95EAF793E076954C
:1014100067959A95E1F7FB01EE0FFF1F6E0F7F1F97
:10142000FA01E60FF71F40E050E0682F70E090816E
:101430009B01042E02C0369527950A94E2F721708D
:10144000219529272A23292721934F5F5F4F433076
:10145000510569F708959B01782F777043E09695C1
:1014600087954A95E1F7FC01EE0FFF1F8E0F9F1F36
:10147000F901E80FF91F40E050E080E0219130E0F1
:10148000072E02C0369527950A94E2F7217033277C
:10149000042E01C0220F0A94EAF7822B4F5F5F4FA0
:1014A0004330510559F70895282F953070F4803155
:1014B00060F4862F622F70E020E1929F600D711D15
:1014C000112446E051E00E94FF090895953070F420
:1014D000803160F4292F90E066E071E030E1239FD5
:1014E000800D911D11240E942B0A089580E008951B
:1014F000CF92DF92FF920F931F93CF93DF936C01F4
:101500000091240180912501082BC3E0D0E010E078
:10151000C8010C2E02C0959587950A94E2F780FDCC
:1015200004C02197A8F7F12C07C0FC2EB6018C2F20
:101530000E948A110197A9F38F2DDF91CF911F91FE
:101540000F91FF90DF90CF900895CF93DF93EC0140
:101550000E94780ABE010E948A11DF91CF910895FE
:101560001F93CF93DF93EB0190910501992321F015
:10157000CB010E94A50A13C0882349F0CB010E9429
:10158000780A182F682FCE010E94540A04C0CB019C
:101590000E94660A182FBE01812F0E948A11DF91D6
:1015A000CF911F910895E1E0F0E0DF0102C0AA0FA2
:1015B000BB1F6A95E2F7BD01DF0102C0AA0FBB1F86
:1015C0004A95E2F7AD01462B01C0EE0F2A95EAF7E6
:1015D000942F9823491302C08E2B0895E0958E23F3
:1015E0000895242F462F682F809124010E94D30A4A
:1015F0000E94B50908951F93CF93DF93C0912601F0
:1016000017E080912701C817A1F0D0E01C9FF001DE
:101610001D9FF00D1124E85DFE4F20813181428134
:1016200053816481758186810E9486092196C770E5
:10163000E8CFDF91CF911F91089520916001309103
:101640006101409162015091630160916401709168
:101650006501809166010E9486090895CF93DF930A
:101660008091660182958F7009F04EC0809165016E
:10167000882309F449C080912601409127015091A7
:10168000610160916001C0916201D091630177E0D6
:101690008417D1F190E0789FF001799FF00D11242B
:1016A000DF01A85DBE4F14962C911497222349F1B7
:1016B00011962C911197251324C02C91261321C02B
:1016C00015962C91159721111CC012962D913C91C5
:1016D00013972C1B3D0B283C310598F48091660133
:1016E0008F70806180936601E25DFE4F80818F7014
:1016F0008061808380E691E00E9412090E94FB0ACB
:1017000003C001968770C4CFDF91CF9108952091D7
:1017100026019091270157E02917A9F030E0529F48
:10172000F001539FF00D1124E85DFE4F7181761397
:1017300006C07081781303C07581741306C02F5FD3
:101740003F4F2770E9CF80E0089581E00895A4E13C
:10175000B0E0EDEAFBE00C9470218C0186E0F8012A
:10176000DE011F9601900D928A95E1F7F8018481C0
:10177000E58090E6A92E91E0B92E90916401911137
:1017800018C0882309F480C1EE20D9F1C8010E9455
:101790006F09F82E8823A9F187E0F801D50101909F
:1017A0000D928A95E1F7C5010E94B6050E942E0BA5
:1017B00098C0F801C080D18082809380F09065014C
:1017C0002091620130916301A401421B530BFF2061
:1017D00009F406C1483C510508F0AFC0882309F45C
:1017E00055C180916601282F207F909161012223AD
:1017F00061F09D1509F462C0C8010E946F09811152
:1018000073C0C8010E9412093FC19D1115C090917B
:1018100060019C1111C0E1100FC08F708061809336
:1018200066010E941D0B80E691E00E9412098091E2
:101830006601F801868326C1E1103AC040E06D2DB3
:101840008C2D0E94870B40E06D2D8C2D0E94870B04
:10185000E82E811117C1CF86D88A8F8598890E947A
:10186000A50A292F22952F70243020F49F70223052
:1018700028F009C02A50223080F014C0992349F082
:10188000811107C013C0992321F0F8019681907F40
:1018900069F0805E883030F409C0803F38F0815FA5
:1018A000833020F0C8010E941209EF2CFE2CEEC0FC
:1018B00080916601816080936601E4C0909160012F
:1018C0009C119ACFE11098CFF8018683C8010E943D
:1018D000120987E0F801A0E6B1E001900D928A9527
:1018E000E1F70E941D0BD2C0EE2009F48ACF2091AF
:1018F0006601822F82958F7090E002978CF0809124
:10190000600190916101998788879B868A86809182
:1019100064018C871D862E87CE0108960E941209CD
:1019200087E0F801A0E6B1E001900D928A95E1F719
:101930000E942E0B0E941D0BA7C090916601292FBB
:10194000207FA1F4682D9A8A898AA6017A899E2D22
:101950000E947C0980E691E00E94120987E0F5016F
:1019600011928A95E9F70E941D0B8CC0882309F417
:101970008DC0809161018D1111C0809160018C1129
:101980000DC0E1100BC0F8019683C8010E94120936
:1019900087E0F50111928A95E9F778C0C8010E94A5
:1019A0006F09882309F42DCFEE2009F42ACF209166
:1019B0006601822F82958F7090E002970CF4B0CF71
:1019C00080916001909161019A8389839C828B82CE
:1019D000809164018D831E822F83CE0101969ECF5C
:1019E000483C510508F040C0882309F44DC0FE2C46
:1019F000EE2009F406CF809161018D1127C08091FE
:101A000060018C1123C09091660190FD16C0892F52
:101A100082958F70282F30E02115310571F0F80183
:101A200096832F30310509F451CF8F5F982F92950F
:101A3000907F86818F70892B48CF87E0F801A0E6E0
:101A4000B1E001900D928A95E1F720C0C8010E9493
:101A50006F09811165CF8091660181608093660175
:101A6000C8010E94120912C0682D9A8A898AA601AB
:101A70007A899E2D0E947C0987E0F50111928A9552
:101A8000E9F72FCFF12C02C0FF24F3948F2D649639
:101A9000ECE00C948C21AEE0B0E0E1E5FDE00C94CC
:101AA0007921288739874A875B876C877D878E876E
:101AB000CE0108960E94A70B882361F06C856623EF
:101AC000A9F1288539854A855B857D858E850E94AB
:101AD00086092CC087E0FE013896DE011196019040
:101AE0000D928A95E1F76C85662301F1209127011B
:101AF00030E0C9010196877099274091260150E096
:101B000084179507E1F16D8397E0929FD001939F31
:101B1000B00D1124A85DBE4FFE01319601900D92CB
:101B20009A95E1F7809327010E94FB0A17E08091C4
:101B3000260190912701891779F1189FC00111247E
:101B4000885D9E4F0E94A70B882331F1E09126010A
:101B50001E9FF0011124E85DFE4F208131814281FA
:101B600053816481758186810E9486098091260156
:101B700090E001968770992780932601D8CF0E9424
:101B80004F091092270110922601E0E6F1E087E06C
:101B9000DF011D928A95E9F72E96E3E00C949521DA
:101BA0008091670186958695869508958091670155
:101BB0008770089590916701977081E009F480E043
:101BC000089580917301089590917301892B8093FA
:101BD0007301089580959091730189238093730117
:101BE000089510927301089590917201892B80934A
:101BF00072010895809590917201892380937201FA
:101C0000089510927201089508950E94040E089597
:101C10000E94050E089590916901292F28238217AB
:101C200029F0982B909369010E94080E08959091D5
:101C30006901292F282331F0809589238093690138
:101C40000E94080E089580916901882329F010925E
:101C5000690180E00E94080E0895E0916000F09113
:101C60006100809173018083E0916000F0916100D8
:101C7000908180917201892B8083809169018823F2
:101C800081F0E0916000F09161009081892B808368
:101C900080916000909161000E94D91C81110E9486
:101CA000230E80916000909161000E94761C08953F
:101CB0000E94040E08950E94580E089590916801A4
:101CC000292F282331F080958923809368010E9471
:101CD0005B0E08950E94040E08959091570292FFA2
:101CE00011C098E0899F90011124262B2093670151
:101CF0000E94C709809167018695869586950E9406
:101D00006A0E08950E94C70908951092670180E045
:101D10000E946A0E089590916701809589238093AF
:101D20006701282F277069F4981759F0909157028E
:101D300092FF07C08695869586950E94D3090E94DA
:101D4000850E08959091570292FB222720F92817BB
:101D500069F080FB92F9909357028091560290911E
:101D600057020E94EB0E82E00E948B0E0895809134
:101D7000570282FB882780F991E089270E94A20EF2
:101D8000089581E00E94A20E089580E00E94A20EB4
:101D900008956FEF7FEF80E090E00E9406220895A3
:101DA00080E090E00E94D321863E9E4F19F40E946D
:101DB0009F16089580E0089582E090E00E94CB2174
:101DC000089583E090E00E94CB21089584E090E0A4
:101DD0000E94D3210895BC0184E090E00E94062275
:101DE0000895AB01BC018FE090E00E94FA210895B4
:101DF000AB01BC0183E190E00E94FA21089560E00C
:101E000070E0CB010E94F80E089560E070E0CB0115
:101E10000E94F10E0E94FF0E0895A8E0B0E0E3E1F9
:101E2000FFE00C947A2166EE7EEF80E090E00E9465
:101E3000062260E082E090E00E94E92160E083E019
:101E400090E00E94E9211092250160E074E184E0B5
:101E500090E00E94062260E086E090E00E94E92186
:101E60006FEF87E090E00E94E92140E050E0BA0186
:101E700088E090E00E94FA2160E084E290E00E9415
:101E8000E92160E087E190E00E94E92160E08CE0D8
:101E900090E00E94E92160E08DE090E00E94E9215D
:101EA00019821A821B821C821D821E821F82188642
:101EB00048E050E068E170E0CE0101960E94D9212F
:101EC00040E050E0BA0180E290E00E94FA2180E018
:101ED0000E94B8160E94ED160E94050F2896E2E0B7
:101EE0000C9496210E940D0F0895682F8EE090E0CB
:101EF0000E94E9210895A6E0B0E0E1E8FFE00C943B
:101F000078210E94941D8C0180917401909175013B
:101F10000817190781F019821A820E94941D682FF0
:101F200049815A81792F80E090E00E9483051093C7
:101F30007501009374012696E4E00C9494210E94AC
:101F4000A01D609384017093850180938601909316
:101F50008701609380017093810180938201909347
:101F60008301089581E0089581E008950E94B40FEF
:101F7000089508950E94B90F08950E94B90F089519
:101F80000E94BD0F08950E94B90F08950E94C30FCB
:101F900008950E94B90F08958AE792E10E941314F0
:101FA0000E94C90F0E94C60F08950E94BA0F0E9496
:101FB000B90F08950E9499120E94570508950E9432
:101FC0008D1D0E94FD160E9472130E94DA0F0E945E
:101FD000C00F0895A6E0B0E0E0EFFFE00C946E21A2
:101FE0000E94B20F811103C00E947B0F62C00E9449
:101FF000881326E7E22E21E0F22E5701D12CF501BD
:10200000019111915F018D2D0E94B41280279127BB
:10201000D394F5E0DF1619F0892B89F302C0892BE0
:1020200019F38091880181FD0E94BD120E94B60FB4
:10203000782E10E066246394812F0E94B4124C0124
:10204000F701A080B180A826B926A114B10449F1F6
:1020500000E0CC24C394D12CC5018C219D21892B77
:10206000C1F07720B1F009831A830E94941D9C83EC
:102070008B836D8221E0C4018C219D21892B09F481
:1020800020E049815A816B817C818D81922F0E9451
:1020900083050F5FCC0CDD1C0031F1F6F701918256
:1020A00080821F5FF2E0EF0EF11C153029F60E94CE
:1020B0009F0F0E94B1150E946A052696EEE00C94CF
:1020C0008A211F93CF93DF930E948F11EC01C115DA
:1020D00080E5D807E8F5C11590E4D90708F0A8C055
:1020E000C03ED10530F5CD3CD10508F094C0C83ACA
:1020F000D10578F4C53AD10508F083C0C130D105C7
:1021000009F47CC008F4F2C0C430D10508F0F1C075
:10211000EDC0C33CD10508F0E9C0C85AD0E0CC0FEF
:10212000DD1FC055DF4F0990D881C02DCE019464CA
:10213000E1C0C11580E2D80708F0CBC0C11591E01D
:10214000D90708F06BC0C83ED10508F4D2C0CEC094
:10215000C03682E5D80728F5C03492E5D90708F0E3
:1021600079C0C03282E5D80708F06CC0C11592E58D
:10217000D90708F481C04C2F4695469580E2489FC8
:10218000A0011124C37021E030E0C90102C0880F12
:10219000991FCA95E2F7EA01C82BD92BCE019D6899
:1021A000A9C0C03A82E5D807B8F48C2F8F71C03827
:1021B00092E5D90708F07BC08695869590E2899FC5
:1021C00090011124C37081E090E002C0880F991F34
:1021D000CA95E2F79A6868C0C03C82E5D80708F45F
:1021E0006DC0C03E92E5D90708F080C0CF71DD27F1
:1021F000DC2FCC27CE01806F906A7CC081E090E01C
:1022000079C0C55AD0E0CA51DF4F8881C82FD0E0CD
:10221000CE0190646FC0CE0190656CC08D2F0E947E
:102220002B12182FCE0199270E948F111F715CC0AD
:10223000CE0199270E948F11CC27DF70D06A8C2B9A
:102240009D2B58C0CF71D0E0DC2FCC27CE01816F01
:10225000906A50C08C2F8F718695869590E2899FE9
:1022600090011124C37081E090E002C0880F991F93
:10227000CA95E2F79C6818C08C2F8F710E942B12B0
:1022800095E0D695C7959A95E1F7CF70D0E0DC2F11
:10229000CC27282F30E084FF05C084E0220F331FB5
:1022A0008A95E1F7D069CE01822B932B23C090E071
:1022B000D82FCC27CE01846F906A1CC08C2F8F71D1
:1022C0000E942B128F7190E0D82FCC27CE01906204
:1022D00011C08D2F8F710E942B12182FCE019927BC
:1022E0000E948F111F719062912B04C080E090E0DA
:1022F00001C0CE01DF91CF911F910895753038F460
:10230000603128F4462F672F0E94511A089580E00B
:1023100090E008950E947E110E9461100895823815
:10232000910569F1B0F48133910509F475C048F461
:102330008932910509F467C08A32910509F471C0A8
:1023400008958533910509F459C089339105B9F091
:102350000895833E910589F138F4803E9105D1F0CE
:10236000823E910529F10895863E9105C9F1873E87
:102370009105D9F1843E910509F06CC027C02091E8
:10238000560220FD57C021FD55C02091570223FD64
:102390005BC008958091560280FD48C0809157022D
:1023A00080FF48C08091560284FD46C083EE51C034
:1023B0008091560282FF3CC0F5CF8091560282FD8B
:1023C00037C08091570280FD35C0ECCF8091570215
:1023D00081FF36C08091560284FD2EC087EE39C041
:1023E0008091560283FF2AC0F5CF8091560283FD6B
:1023F00025C08091570281FD23C0ECCF8091560209
:1024000085FD22C01FC08091560285FD1BC08091B2
:10241000570283FF19C00AC08091560286FD16C07C
:1024200017C08091560286FD13C010C089E311C009
:1024300082EE0FC080EE0DC080E00BC086EE09C0BA
:1024400084EE07C085E305C089E203C08AE201C0CB
:1024500081E390E008959091560292FF10C041E010
:10246000282F2471243009F040E031E0282F287112
:10247000283009F030E0431711F02CE0822793FF59
:1024800010C041E0282F2471243109F040E031E0F0
:10249000282F2871283109F030E0431711F02CE083
:1024A00082273091570230FF10C051E0282F217150
:1024B000213009F050E041E0282F2871283009F040
:1024C00040E0541711F029E0822731FF10C041E0AD
:1024D000282F2171213109F040E031E0282F2871A7
:1024E000283109F030E0431711F029E0822794FDEC
:1024F000877E089580E008950E94C90E08950E9485
:1025000088132FEF86E791E0215080409040E1F75B
:1025100000C000000E94881380E00E94B41280FF77
:1025200004C00E947C120E94E11D08950E947F1247
:1025300008950E94D00E811102C00E94720F0E9465
:10254000DC0E809388010E94E60E909357028093E0
:1025500056020E9496120E94E10E0E949D098091EF
:1025600024010E94B2090895E82FF0E0EE0FFF1F4A
:10257000EE59FD4F808191810895089580EA8A95F2
:10258000F1F7089500C008950E94BE1208950895BD
:102590000E94C71208950E94C81208950E94C7128F
:1025A00008950E94CE120895F894E82FE295EF70F6
:1025B000F0E031A9282F2F7081E090E001C0880F52
:1025C0002A95EAF7982F9095932391AB92A9892B9E
:1025D00082AB789408950F931F93CF93DF93C9EF45
:1025E000D0E089918F3F11F00E94D41280E0CE3F5D
:1025F000D807B9F7C9EED0E009EF10E089918F3F15
:1026000011F00E94D4120C171D07C1F7DF91CF9172
:102610001F910F910895A0E0B0E0E1E1F3E10C9487
:1026200073218C01C62FD0E0CE0187509F4F6C01E3
:10263000FC0190819F3F09F450C0B62EF894E92F19
:10264000E295EF70F0E081A99F7021E030E001C0D9
:10265000220F9A95EAF7822B81AB82A92095282335
:1026600022AB78940E94C212E9EEF0E049EF50E00C
:1026700021E030E0E12CF12C61916F3F89F0A62F31
:10268000A295AF70B0E0D0968C9190E06F7002C0D0
:10269000959587956A95E2F780FD02C0C90102C051
:1026A00080E090E0E82AF92A220F331F4E175F07D7
:1026B00019F7F60180818F3F11F00E94D41261E07A
:1026C000E114F10409F460E08B2D0E94C412CC0FD8
:1026D000DD1FC00FD11FF982E882CDB7DEB7E9E078
:1026E0000C948F210E94EB128AE0E2E6F2E0DF0117
:1026F000982F1D929A95E9F7E8E5F2E0DF011D9227
:102700008A95E9F785E00E94C3130E94D1120895CB
:10271000AAE0B0E0EEE8F3E10C9477218E010F5FC0
:102720001F4F8AE0F80111928A95E9F7F12C6F2D7D
:10273000C8010E940B13F394F5E0FF12F8CF4AE0B2
:1027400050E0B80188E592E00E94B52121E00097B1
:1027500009F420E0892B41F08AE0F801A8E5B2E015
:1027600001900D928A95E1F745E062E672E088E516
:1027700092E00E94C413182F0E94CB12812F2A9638
:10278000E5E00C9493210895EF92FF920F931F932D
:10279000CF93DF937C018B01C42F222349F081E08A
:1027A00080938B010E94941D90938A0180938901EC
:1027B00080918B01811102C080E01CC08091890151
:1027C00090918A010E94AC1D0597B0F3D0E0CC0F28
:1027D000DD1FAE01B701C8010E94B521892B39F078
:1027E000AE01B701C8010E94C22181E001C080E0B2
:1027F00010928B01CDB7DEB7E6E00C9492210E94D7
:10280000041E0E94DF0F0E94151E08950E947B1D6A
:102810000E94FD1D0E94CC0F0E94FF130E94231EE8
:102820000E94D50FFBCF9093FF008093FE00089588
:10283000282F35EB2303C001112497FF03C08058D4
:10284000910902C080589F4F892F0895809192016D
:1028500080FF06C06091670070E0660F771F26C09A
:1028600081FF04C06091670084E005C082FF07C05B
:102870006091670088E0689FB001112417C09091B3
:1028800091019923D1F060916600961788F7209105
:10289000670088E0289F90011124929FA001939FD8
:1028A000500D112470E0CA010E9449216038710561
:1028B00040F46115710519F406C068E070E0862FD8
:1028C00008958FE7089581E008958091920180FF37
:1028D00008C06091630070E0759567957595679580
:1028E00021C081FF06C06091630070E07595679517
:1028F00019C082FF04C06091630070E010C0909125
:102900009001992399F0609162009617A0F7809149
:102910006300899FC001112470E00E944921603842
:10292000710540F46115710519F406C061E070E0AD
:10293000862F08958FE7089581E008958D3C21F456
:102940000E942614819504C08E3C29F40E9426140E
:102950008093960108958F3C21F40E94261481955E
:1029600004C0803D29F40E942614809395010895A7
:10297000893D19F40E94651405C08A3D31F40E9416
:10298000651481958093970108958B3D21F40E94F1
:102990006514819504C08C3D29F40E9465148093D0
:1029A000980108959FE2980F983078F421E030E084
:1029B000A90102C0440F551F9A95E2F7CA019091F0
:1029C0009401892B8093940108958D3D21F4809189
:1029D000920181600BC08E3D21F480919201826052
:1029E00005C08F3D29F4809192018460809392010B
:1029F00008958D3C39F49091960197FF35C010925F
:102A0000960159C08E3C29F4909196011916BCF399
:102A10002BC0909195018F3C29F497FF25C010920F
:102A2000950149C0803D19F41916CCF31DC0909151
:102A30009701893D29F41916BCF4109297013BC007
:102A40008A3D19F497FF10C0F8CF8B3D39F490916F
:102A5000980197FF09C0109298012DC08C3D21F478
:102A6000909198011916BCF39FE2980F983080F46A
:102A700021E030E0A90102C0440F551F9A95E2F70A
:102A8000CA0180959091940189238093940113C089
:102A90008D3D21F4809192018E7F0BC08E3D21F4FB
:102AA000809192018D7F05C08F3D29F48091920124
:102AB0008B7F8093920180919501811106C0809156
:102AC0009601811102C010929101809197018111AC
:102AD00006C080919801811102C010929001089562
:102AE0000E94941D20919501211104C0209196010E
:102AF000222321F090938F0180938E0120919701E2
:102B0000211104C020919801222321F090938D017E
:102B100080938C0183E991E00E94811C0895E3E990
:102B2000F1E086E0DF011D928A95E9F710929101AC
:102B300010929001109292010895FC0182818111FE
:102B40000DC0838181110AC08481811107C091E089
:102B50008581811101C090E0892F01C081E08170E1
:102B60000895A6E0B0E0E7EBF5E10C94792186E06A
:102B7000E3E9F1E0DE01119601900D928A95E1F70B
:102B8000109295011092960110929701109298015F
:102B90008B81811104C08C81882309F456C08091F7
:102BA0008E0190918F010E94AC1DAC01909191011A
:102BB000992339F02091680030E02417350758F048
:102BC00044C0209169008AE0289F900111242417B5
:102BD000350718F03AC09F3F19F09F5F909391011D
:102BE0001B81112361F00E942614111614F09FEF2F
:102BF00001C091E0989F902D1124909395011C8124
:102C0000112361F00E942614111614F09FEF01C0E9
:102C100091E0989F902D11249093960180919501B9
:102C2000882399F010919601112379F00E941814CD
:102C3000811101C081E080939501812F0E941814B9
:102C4000811101C081E0809396018D81811104C0C2
:102C50008E81882309F456C080918C0190918D015A
:102C60000E94AC1DAC0190919001992339F0209104
:102C7000640030E02417350758F044C02091650007
:102C80008AE0289F900111242417350718F03AC0D4
:102C90009F3F19F09F5F909390011D81112361F078
:102CA0000E946514111614F09FEF01C091E0989FE7
:102CB000902D1124909397011E81112361F00E94A1
:102CC0006514111614F09FEF01C091E0989F902DAC
:102CD00011249093980180919701882399F0109185
:102CE0009801112379F00E941814811101C081E02C
:102CF00080939701812F0E941814811101C081E0F7
:102D000080939801BE016F5F7F4F83E991E00E943D
:102D1000281D811105C083E991E00E949D15811154
:102D20000E94701586E0FE013196A3E9B1E00190A2
:102D30000D928A95E1F72696E3E00C94952185E2C1
:102D400090E00E94CB21833281F486E290E00E94E1
:102D5000CB21893051F487E290E00E94CB2191E0B1
:102D6000853209F090E0892F01C080E081700895DC
:102D7000CF93C82F811102C06FEF01C063E285E2DB
:102D800090E00E94E921C11102C06FEF01C069E02B
:102D900086E290E00E94E921C11102C06FEF01C0FC
:102DA00065E287E290E00E94E921CF9108950895BD
:102DB00088E290E00E94CB21682F70E080E090E0F4
:102DC00008950895CF93C62F0E94E1166C2F88E2D4
:102DD00090E00E94E921CF91089580E00E94B8160A
:102DE00060E070E0CB010E94E2160E94F1190E949F
:102DF000A61A81E00E94B81608950E94D7160E9474
:102E0000D8160E94E1160E949F16811102C00E94EE
:102E1000ED16089508959C01FB018581882351F0EA
:102E2000A90157574038510530F4C9010E94B61A1C
:102E300080E0089581E008952FEFFC01208308953C
:102E40000E941C17089580E00895A0E0B0E0EBE236
:102E5000F7E10C947221EC01D62E0E942317811108
:102E6000BEC0E8818E2F90E0FC013197E331F1057F
:102E700008F0AFC0EA5CFF4F0C945D2119828CE032
:102E80006BC08981823089F030F4813009F0A1C0B3
:102E90000E94A01D0CC0833079F0843009F099C0E5
:102EA0001A821B821C821D8296C00E94D8169A83A9
:102EB0008B837C836D838FC0CA807E0100E010E02D
:102EC000AC2CB12CC501800F911F059708F083C071
:102ED0008C2D800F0E94B412F701938384830F5FBF
:102EE0001F4FF2E0EF0EF11C0E30110559F773C0C1
:102EF0008981823039F0853009F06BC08A810E9467
:102F00000A1769C06A817B818C819D810E9463213F
:102F10000E94E21660C04B816A8189810E94B519C6
:102F20009C838D8358C02C813D81322723273227F3
:102F30004B816A8189810E94D6194DC00E94F11986
:102F40004AC06D2DCE010E94201745C00E945D1A17
:102F500024C00E945F1A99838A833DC06B8170E010
:102F600089819A81AE014C5F5F4F98278927982706
:102F70000E94621A30C06B8170E089819A81AE0133
:102F80004C5F5F4F9827892798270E94851A23C096
:102F90000E94A61A20C00E94A21989831CC06B81BE
:102FA00070E089819A81AE014C5F5F4F9827892735
:102FB00098270E940F1A0FC06B8170E089819A8157
:102FC000AE014C5F5F4F9827892798270E94311ADE
:102FD00002C08FEF88836D2DCE010E94F21ECDB707
:102FE000DEB7EAE00C948E21CF93DF93FC01DB0186
:102FF00015968C91882309F4DDC09F013057233248
:10300000310508F0D8C0EF010E94E60E90935702F8
:1030100080935602FE01E150F047E232F10520F4C0
:10302000E75BFF4F0C945D21809156028160AAC03E
:10303000809157028860B2C0809156028260A2C01F
:103040008091560220C08091560288609BC080917A
:1030500057021EC0809157028260A0C08091560224
:10306000806190C08091560280628CC0809156022F
:10307000806488C00E944F0980915602806882C097
:1030800080915602886084607DC080915702826082
:10309000816084C0809156028E7F74C080915702F7
:1030A000877F7CC0809156028D7F6CC080915602D4
:1030B00020C080915602877F65C0809157021EC054
:1030C000809157028D7F6AC0809156028F7E5AC0D0
:1030D000809156028F7D56C0809156028F7B52C0E0
:1030E0000E944F09809156028F774CC08091560202
:1030F000877F8B7F47C0809157028D7F8E7F4EC028
:103100008091560282FB222720F991E0922790FBC2
:1031100082F990FB83F936C080915702982F9095E1
:1031200091708E7F892B90FB81F938C08091560277
:1031300086FB222720F991E0922790FB86F922C096
:103140000E944F098091560287FB222720F991E0C7
:10315000922790FB87F916C081E001C080E00E94B1
:10316000750F1EC08091560284FB222720F991E042
:10317000922790FB84F906C080915602982F909573
:1031800090FB80F9809356020BC08091570283FB1D
:10319000222720F991E0922790FB83F98093570230
:1031A00080915602909157020E94EB0E0E944F09A7
:1031B00080E001C081E0DF91CF910895A0E0B0E010
:1031C000E4EEF8E10C947521E82FF0E0EC59FC4FA7
:1031D000D490282F26952695269530E0F901EC5FAE
:1031E000FB4F0491877010E0082E02C015950795DB
:1031F0000A94E2F701701127F901EC50FC4FE490BA
:10320000F12C082E02C0F594E7940A94E2F791E0BD
:10321000E922FF24F901EC51FC4FC491D0E002C037
:10322000D595C7958A95E2F7C170DD27011511057F
:1032300019F081EE0E94C905E114F10419F086EE3F
:103240000E94C9058D2D0E94F706E114F10419F0C2
:1032500086EE0E9473060115110519F081EE0E9499
:103260007306CD2B19F08CE20E94F706CDB7DEB7BE
:10327000E7E00C949121EF92FF920F931F93CF936D
:10328000DF93EC01162F0AE08881882309F455C0EA
:10329000813009F043C08981813041F47E0182E0B0
:1032A000E80EF11C8A810E94F70609C0823049F4B9
:1032B0007E01E2E0EE0EF11C8A810E94C905E70161
:1032C0002FC0833041F47E01F2E0EF0EF11C8A81C1
:1032D0000E947306F4CF843011F0219621C02A8118
:1032E000229680E090E030E0205331092A30310509
:1032F00058F4089FA001099F500D1124C901840FA3
:10330000951F21962881EFCF009751F0EFE9FFE05C
:103310003197F1F700C000000197F6CF0E94DE1848
:103320002196812F882309F4AFCFEFE9FFE0319791
:10333000F1F700C000008150F5CFCDB7DEB7E6E071
:103340000C94922184E0089550E0440F551F20E230
:10335000629F400D511D11249A0160EA869F200D45
:10336000311D1124C901899608950F931F93CF939E
:10337000DF938430A0F4653090F4403180F40E94F3
:10338000A4198C010E94CB2190E0D82FCC27C80132
:1033900001960E94CB219E01282BC90102C080E02A
:1033A00090E0DF91CF911F910F9108950F931F939C
:1033B000CF93DF93843080F4653070F4403160F453
:1033C000E9010E94A4198C016D2F0E94E9216C2F44
:1033D000C80101960E94E921DF91CF911F910F91C1
:1033E00008951F93CF93DF93D0E0C0E010E0412F0A
:1033F0006C2F8D2F0E943C049C01412F6C2F8D2F30
:103400000E94D6191F5F103191F7CF5FC53071F759
:10341000DF5FD43051F7DF91CF911F910895EF9284
:10342000FF920F931F93CF93DF93EA017A01E60E89
:10343000F71E8C01C8018996CE15DF0569F00038AA
:1034400022E0120720F40E94CB21888301C0188259
:1034500021960F5F1F4FEECFCDB7DEB7E6E00C949D
:103460009221EF92FF920F931F93CF93DF93EA0184
:103470007A01E60EF71E8C01C8018996CE15DF058C
:1034800059F0003822E0120718F468810E94E921FF
:1034900021960F5F1F4FF0CFCDB7DEB7E6E00C945B
:1034A0009221843038F4653028F4403118F40E94B9
:1034B000B519089580E090E0089580E1089587E5CA
:1034C00091E00895EF92FF920F931F93CF93DF93B4
:1034D000EA017A01E60EF71E8C01C80187559D4F5F
:1034E000CE15DF0569F0073521E0120720F40E94B0
:1034F000CB21888301C0188221960F5F1F4FEDCF2B
:10350000CDB7DEB7E6E00C949221EF92FF920F93D5
:103510001F93CF93DF93EA017A01E60EF71E8C0129
:10352000C80187559D4FCE15DF0559F0073521E0BD
:10353000120718F468810E94E92121960F5F1F4F3E
:10354000EFCFCDB7DEB7E6E00C949221CF93DF93B7
:10355000C9EAD2E060E0CE010E94E9212196C115BE
:1035600084E0D807B9F7DF91CF910895A8E0B0E0E3
:10357000ECEBFAE10C947021F82E8FE08F1508F433
:1035800074C08FEF93E00E94CB2181116EC009EAD5
:1035900012E0FF2071F0011594E0190709F465C0ED
:1035A000C8010E94CB21811101C0FA940F5F1F4F07
:1035B000F0CFFE0131966F0188E011928A95E9F70C
:1035C0007801FFEFEF1AFF0AC8010E94CB2189831F
:1035D0001A82882309F449C0813009F040C058019B
:1035E00082E0A80EB11CC7010E94CB218A838823E8
:1035F000E1F19FEF980F933060F4780193E0E90ECA
:10360000F11CC5010E94CB218B83882371F11C82A0
:1036100026C0843019F54E01E3E08E0E911C02E0C5
:1036200010E07501FFEFEF1AFF0AC5010E94CB21E0
:10363000F40181934F018823C1F08C3741F4E2E01B
:10364000F0E0EC0FFD1FE00FF11F108208C00F5FCC
:103650001F4F57010730110521F707C0750160E0C2
:10366000C6010E943B198701ABCF2896ECE00C9471
:103670008C21CF93DF9386319C4741F5EB010E946B
:10368000E10D982F8D812091600030916100882399
:1036900079F09A7A81E009F480E0809399019111A0
:1036A00002C069E201C065E3C9010E941B1D0AC096
:1036B00080919901811102C069E201C065E3C901ED
:1036C0000E941E1D0E942D0E80E001C081E0DF914E
:1036D000CF9108950F931F93CF93DF93C42FD22FD1
:1036E000FC0185818823B1F040939C010E94941DC8
:1036F00090939B0180939A0180E28C0F883008F0B0
:103700004DC0C77081E001C0880FCA95EAF70E94DA
:10371000010744C080919C01481330C080919A01F8
:1037200090919B010E94AC1D883C910538F510E2F8
:103730001D0FCD17B9F080E28C0F883040F4C770B0
:1037400081E001C0880FCA95EAF70E940807183087
:1037500010F581E09D2F977001C0880F9A95EAF7C8
:103760000E940107802F0E94F7061830B8F4D77026
:1037700081E001C0880FDA95EAF70AC080E28C0F79
:10378000883060F4C77081E001C0880FCA95EAF7FD
:103790000E94080703C0802F0E94F706DF91CF9197
:1037A0001F910F9108950F93FC01E851FC47E730FA
:1037B000F10590F5CB01E559FF4F0C945D2106E230
:1037C00021EE41EE6AE17CE723C007E225EE45EEFB
:1037D0006BE17CE71DC006E221EE40EE68E17CE78C
:1037E00017C007E225EE44EE69E17CE711C006E26E
:1037F00021EE42EE6CE17CE70BC007E225EE46EEDF
:103800006DE17CE705C008E221E045EE6EE17CE772
:103810000E946A1B80E008C0FB018581882319F0A3
:1038200010929C0101C081E00F9108951F93CF93E6
:10383000DF9387372CE7920721F088379C4759F0B0
:1038400031C0FB01C581CC2319F00E94581C09C06E
:103850000E94581C18C0FB01C581CC2391F00E9426
:103860005B1C0E94C7090E945E1CD82F0E945B1C33
:10387000C82F0E94581C4D2F6C2F0E94F10AC0E0E7
:1038800012C00E945B1C0E94D3090E945E1C182F6C
:103890000E945B1CD82F0E94581C412F6D2F0E9444
:1038A000F10A01C0C1E08C2FDF91CF911F910895E3
:1038B00080916C00089580916B00089580916A005A
:1038C00008959093A2018093A1010895E091A10130
:1038D000F091A201309729F00190F081E02D099537
:1038E000089580E008950E94661C0895E091A1016A
:1038F000F091A201309721F00280F381E02D09952B
:103900000895E091A101F091A201309739F022E0F1
:10391000DC012C930480F581E02D09950895A3E046
:10392000B0E0E5E9FCE10C947A2120919F0130910F
:10393000A00128173907A1F09093A00180939F015F
:10394000E091A101F091A201309751F023E0298389
:103950009B838A830680F781E02DCE01019609952D
:103960002396E2E00C949621A3E0B0E0EAEBFCE1C0
:103970000C947A2120919D0130919E0128173907DE
:10398000A1F090939E0180939D01E091A101F0919F
:10399000A201309751F024E029839B838A8306801B
:1039A000F781E02DCE01019609952396E2E00C9473
:1039B0009621FC01329697E080E0915029F0219108
:1039C0002223D9F38F5FF9CF0895662349F0FC01D4
:1039D000329608962191621729F0E817F907D1F776
:1039E00080E0089581E008959C01FC0132969FEFEC
:1039F00080E04191461789F09F3F19F4411101C0C1
:103A0000982F8F5F8630A9F79F3F39F0F901E90FB2
:103A1000F11D97FDFA956283089508959C012A5F30
:103A20003F4FFC014281461301C01282019682176A
:103A30009307B9F708950E94F41C08950E940E1D83
:103A40000895029626E0FC0111922A95E9F708955F
:103A5000DC01FB0111969C9111978181981321C083
:103A600012968C911297882319F09281891319C0AC
:103A700013968C911397882319F09381891311C0A1
:103A800015968C911597882319F09581891309C093
:103A900014969C91992339F081E02481291304C064
:103AA00002C081E001C080E08170089508950E9405
:103AB000561D08950E94571D08950E94561D089591
:103AC0000E94561D08950E94561D0895CF930E948E
:103AD000601D0E9488130E945D1DC0E08C2F0E9413
:103AE000B412892B29F4CF5FC530C1F780E001C043
:103AF00081E0CF91089584B7806884BF84B78068DF
:103B000084BF08958091A50181110E943A0508950E
:103B10000E944F090E943F0508958BE083BF8AEF02
:103B20008CBF82E089BF08952FB7F89480916C0212
:103B300090916D02A0916E02B0916F022FBF089517
:103B40002FB7F89460916C0270916D0280916E02B3
:103B500090916F022FBF08959C014FB7F894809108
:103B60006C0290916D02A0916E02B0916F024FBFF6
:103B7000821B930B089578941F920F920FB60F92A9
:103B800011248F939F93AF93BF9380916C02909178
:103B90006D02A0916E02B0916F020196A11DB11D40
:103BA00080936C0290936D02A0936E02B0936F02AB
:103BB000BF91AF919F918F910F900FBE0F901F906B
:103BC000189598E088E10FB6F894A89581BD0FBECE
:103BD00091BDA895F894D8E0CEE528E3299320E09C
:103BE000299314BEFFCF089598E088E10FB6F894AA
:103BF000A89581BD0FBE91BDFFCF0E94941D9093EB
:103C0000A4018093A30108950E942E218B9A80E045
:103C1000815041F0A895EFE9FFE03197F1F700C03E
:103C20000000F6CF8B98789408950E94281F0E9478
:103C3000611C2FEF80E792E0215080409040E1F737
:103C400000C00000089580919702882389F01092A7
:103C500097020E94941D9093A4018093A3018091E8
:103C6000A5018823D1F11092A5010E94881D11C0E1
:103C70008091A501811111C08091A3019091A401AF
:103C80000E94AC1D069728F081E08093A5010E9458
:103C9000821D8091A501882301F10E94821D0E944E
:103CA000661D882391F1F89421B3939A822F8C603A
:103CB00081BB92B38CE0982792BB3FE748E391E049
:103CC000315040409040E1F700C0000092B3892796
:103CD00082BB21BB9398789408950E9437208091ED
:103CE0009D02882329F080917B0284FD0E94EA0FC7
:103CF0000E94991E0E94372080919D02882329F0FE
:103D00008091870284FD0E941C1F089580915502B6
:103D100008952091B40224FF03C063E00E942D2087
:103D200008952091B40224FF03C066E00E942D2074
:103D30000895CF93DF93CAE0D0E080917B0284FFA7
:103D400018C08091D2019091D3019817E1F028E03A
:103D5000829FC001112468E08C529E4F0E9428204F
:103D60008091D20190E001968F7099278093D201C3
:103D70000AC00E9437208FE99FE00197F1F700C049
:103D800000002197D1F6DF91CF910895CF93DF9373
:103D9000EC01A091D301B0E0CD0101968F7099277D
:103DA0002091D201281779F093E0AA0FBB1F9A95B2
:103DB000E1F7AC52BE4F98E0FE0101900D929A954A
:103DC000E1F78093D3010E9437200E94991E88E07A
:103DD000FE01AAECB1E001900D928A95E1F7DF9126
:103DE000CF9108950F931F93CF93DF93EC0160322F
:103DF000F1F48C01005E1F4F8091870284FD03C0A7
:103E00000E943720F9CF68E0CE010E943220289628
:103E10000C171D0789F78091870284FD03C00E945B
:103E20003720F9CF60E080E090E00E943220DF91FF
:103E3000CF911F910F9108958091A901803239F49B
:103E400060E28AEA91E00E9425171092A901089584
:103E50008DE690E00895FC01808180768032A1F5A6
:103E60008181813061F484819581892B69F58AECA7
:103E700091E0909399028093980288E008958230AF
:103E800041F484E592E0909399028093980281E056
:103E900008958A3021F483818093540215C08930BB
:103EA00099F4828193818115924081F48481958176
:103EB000892B61F481E08093A8018681978190939A
:103EC000A7018093A60102C080E008958FEF0895B6
:103ED0002091A6013091A701232B71F02091A80118
:103EE000213051F4FC018081809355021092A7018A
:103EF0001092A60181E008958FEF0895683019F0BF
:103F00001092A90108952091A901A22FB0E0A93132
:103F1000B105B4F7FC01A655BE4F089631913D930B
:103F2000E817F907D9F7285F2093A9010895FC0144
:103F300093819330D9F068F4913081F0923009F098
:103F400063C084E194E090939902809398028BE59A
:103F50000895913229F19232B9F156C08FE694E07A
:103F6000909399028093980282E108958281813032
:103F700079F030F0823009F047C081E894E00AC05F
:103F800081EA94E0909399028093980284E00895E6
:103F900081E994E090939902809398028EE00895CD
:103FA0008281813049F028F0823071F58FE594E00C
:103FB00005C086E294E002C08FE394E090939902FA
:103FC0008093980289E008958481958181309105DC
:103FD00099F050F00297C1F487EC94E09093990225
:103FE000809398028BE7089582E495E0909399027C
:103FF0008093980284E4089585EA94E0909399026E
:104000008093980282E2089580E008951F93CF93F1
:10401000DF93162FEA01288124FF05C0398128E8A3
:104020002327298302C02AE52883212FFC01CE0102
:104030000296DC0131913D9321501216DCF3612F81
:104040000E94F7021C5F1883DF91CF911F910895A2
:104050004BE752E00E940620089544EB52E00E9494
:104060000620089547E852E00E9406200895CF9365
:10407000DF9360919A02635067FD93C0809196022E
:10408000CCE0D0E0C81BD109C256DD4F809195022B
:10409000803120F4CE010E947E1F81C08D3209F054
:1040A0006EC0683009F07BC083EC809370028AE5B3
:1040B00080937600109294028881807621F0CE0160
:1040C0000E942B1F49C09A81109279028981811127
:1040D00006C010927A0229E732E082E038C08530CB
:1040E00019F490939B0230C08630A1F48B8181300B
:1040F00041F0823031F0833021F0813211F0823290
:1041000021F4CE010E94971F01C080E090E49093BB
:10411000940222C0883089F0893019F490939D026E
:1041200013C08A3069F08B3079F48BE480937C0281
:104130008093B5028093880207C02DE932E002C067
:1041400029E732E081E003C029E732E080E03093E4
:1041500099022093980209C08F3F39F4988197FD06
:104160008E8190E89093940207C09F81911104C0C2
:104170009E81981708F4892F8093750010C0809154
:10418000940287FF0CC0CE010E94681F8F3F21F46C
:104190008EE18093760003C0811110927500109219
:1041A0009A028091760084FF4CC0809175008F3F09
:1041B00009F447C0C82F893008F0C8E08C1B8093F1
:1041C00075009091700288E8892780937002CC2353
:1041D00059F180919802909199022091940226FFC2
:1041E00012C0A0E7B2E02C2FAC0140575240FA01B8
:1041F000EA0FFB1FE4911196EC9311972150119651
:104200002111F5CF08C0E1E7F2E0DC012C2F3D9150
:1042100031932150E1F701962FEF2C0F820F911D62
:1042200090939902809398026C2F81E792E00E940C
:10423000F702CC5FCC3019F08FEF80937500C093FC
:10424000760084E190B39C7031F48150D9F71092DC
:104250009B0210929302DF91CF910895CF93DF9349
:1042600085B7886085BF8BB780688BBFCBE7D2E00E
:104270008BE48983A4EBB2E011968C931197E7E865
:10428000F2E081838AE588838C938083DF91CF91EC
:10429000089597FB072E16F4009407D077FD09D0F8
:1042A0000E94A12107FC05D03EF4909581959F4F77
:1042B0000895709561957F4F0895EE0FFF1F05904B
:1042C000F491E02D09946927962769277827872795
:1042D000782708952F923F924F925F926F927F922C
:1042E0008F929F92AF92BF92CF92DF92EF92FF9206
:1042F0000F931F93CF93DF93CDB7DEB7CA1BDB0BB2
:104300000FB6F894DEBF0FBECDBF09942A88398856
:1043100048885F846E847D848C849B84AA84B9845D
:10432000C884DF80EE80FD800C811B81AA81B98169
:10433000CE0FD11D0FB6F894DEBF0FBECDBFED017D
:104340000895AA1BBB1B51E107C0AA1FBB1FA617DC
:10435000B70710F0A61BB70B881F991F5A95A9F72E
:1043600080959095BC01CD010895FB01DC0104C04E
:104370008D910190801921F441505040C8F7881B5D
:10438000990B0895FB01DC0102C001900D92415090
:104390005040D8F70895E199FECF9FBB8EBBE09ABD
:1043A00099278DB30895A8E1B0E042E050E00C9465
:1043B0000E22DC01A40FB51F4150504048F0CB0144
:1043C000840F951F2E910E94EA2141505040D0F752
:1043D0000895262FE199FECF9FBB8EBBE09A0197EF
:1043E0000DB2021631F02DBB0FB6F894E29AE19AA5
:1043F0000FBE08950396272F0E94EA210E94E9210B
:10440000252F0E94EA21242F0C94EA210196272FC0
:104410000E94EA210C94E921DC01CB01FC01E19925
:10442000FECF06C0FFBBEEBBE09A31960DB20D92F7
:0C44300041505040B8F70895F894FFCFB9
:10443C006A01280850011E0A1401030201861EC6D7
:10444C001E911E891EFF5AE200E900EA00B500B673
:10445C0000B700CD008301CC008A019201940121A8
:10446C0002230224022502260227022A02B300B4E8
:10447C00006F0070009F01CB019F02A0028182831C
:10448C00E200E900EA00B500B600B700CD008301F8
:10449C00CC008A01920194012102230224022502FC
:1044AC00260227022A02B300B4006F0070009F019D
:1044BC00CB019F02A0028182830730313233343525
:0E44CC003637969590919293940501000697CD
:00000001FF
