:100000000C94FD020C9435030C9435030C943503C9
:100010000C9435030C9435030C9435030C94350380
:100020000C9435030C9435030C944F220C9421232B
:100030000C94E61C0C9435030C9435030C94350396
:100040000C9435030C9435030C9435030C94350350
:100050000C9435030C946F1D0C9435030C943503EC
:100060000C9435030C9435030C9435030C94350330
:100070000C9435030C9435030C9435030C94350320
:100080000C9435030C9435030C9435030C94350310
:100090000C9435030C9435030C9435030C94350300
:1000A0000C9435030C9435030C9435037F067F06BE
:1000B000AB06AB0619073707180818083C07A40752
:1000C000B507B50768166B169516A816B016BB16B9
:1000D000BE16BE16BE1606170617C316C616CB16D4
:1000E000D816E516E816EC16F9166717D9176F1724
:1000F00039173D1773174017761781174B17CF170E
:100100004F17851753178917B31757178D17BD1733
:100110005D1793179D1744177A1747177D176217B6
:100120009817A917C917CB1735176B17E2179D1B1F
:10013000A31B911B971BA91BAF1BB51B8923B023C6
:10014000A824B023A824FC231F24A82476248524D3
:1001500035001E001F0020002100220023000000A7
:1001600024002500260027002D002E002A002A004A
:1001700029002B0014001A000800150017000000C9
:100180001C0018000C00120013002F00300031007A
:100190004B00390004001600070009000A000000A7
:1001A0000B000D000E000F0033003400280000008B
:1001B0004E00E1001D001B000600190005000000B4
:1001C000050011001000360037003800E500E3009C
:1001D0000000E0000000E20000002C002C410000C4
:1001E00000002C000000E600000000000000E40019
:1001F00001003A003B003C003D003E003F00000093
:10020000400041004200430044004500010001005D
:100210000100010001005200010001000100000086
:1002200001000100010001000100010001000100C6
:1002300001000100500051004F00010001000000CA
:1002400001000100010001000100010001000000A7
:10025000007C01000100010001000100010000001C
:100260000100010001000100010001000100010086
:10027000000001000000010000000100010000007A
:10028000000001000000010000000000000001006B
:100290000100010001000100010001000100000057
:1002A0000100010001000100010001000100010046
:1002B0000100010001000100010001000100000037
:1002C0000100010001000100010001000100010026
:1002D0000100010001000100010001000100000017
:1002E0000100010001000100010001000100000007
:1002F00001000100010001000100010001000000F7
:1003000001000100010001000100010001000100E5
:1003100000000100000001000000010001000000D9
:1003200000000100000001000000000000000100CA
:1003300001000100010001000100010001000000B6
:1003400001000100010001000100010001000100A5
:100350000100010001000100010001000100000096
:100360000100010001000100010001000100010085
:100370000100010001000100010001000100000076
:100380000100010001000100010001000100000066
:100390000100010001000100010001000100000056
:1003A0000100010001000100010001000100010045
:1003B0000000010000000100000001000100000039
:1003C000000001000000010000000000000001002A
:1003D00000000000000000002A2B280000000000A0
:1003E00000000000000000000000002900000000E4
:1003F0002C1E3420212224342627252E362D373852
:10040000271E1F202122232425263333362E37385A
:100410001F0405060708090A0B0C0D0E0F10111218
:10042000131415161718191A1B1C1D2F3130232DE4
:10043000350405060708090A0B0C0D0E0F101112E2
:10044000131415161718191A1B1C1D2F3130354C93
:10045000000000000000000000000000000000009C
:10046000000000000000000000000000000000008C
:10047000000000007E0F00D4FFFFFFC700000078DF
:10048000160341006C0069006300650043006C00C6
:100490006F006E0065000000120353006E006500DF
:1004A00061006B0062006F00780000000403090423
:1004B00009025B00030100A0FA0904000001030126
:1004C00001000921110100012240000705810308F4
:1004D00000010904010002030000000921110100CC
:1004E00001222200070582032000010705030320E3
:1004F00000010904020001030000000921110100AC
:1005000001227B0007058403200001120100020084
:10051000000008425301000100010200010660FFD3
:100520000961A1010962150026FF00952075088167
:10053000020963150026FF00952075089102C00589
:10054000010902A10185020901A10005091901297A
:10055000081500250195087501810205010930097A
:10056000311581257F950275088106093815812589
:100570007F950175088106050C0A38021581257FD3
:10058000950175088106C0C005010980A101850398
:1005900019012AB700150126B700950175108100D1
:1005A000C0050C0901A101850419012AA002150149
:1005B00026A002950175108100C005010906A10160
:1005C000050719E029E71500250195087501810245
:1005D0009501750881010507190029FF150026FFFF
:1005E000009506750881000508190129059505750E
:1005F000019102950175039101C011241FBECFEF37
:10060000DAE0DEBFCDBF04B603FE18C080918C02D5
:1006100090918D02A0918E02B0918F028730904B05
:10062000A740B04B59F410928C0210928D02109298
:100630008E0210928F02E0E0F8E3099511E0A0E04D
:10064000B1E0E8E3FBE402C005900D92AE3AB107D9
:10065000D9F722E0AEEAB1E001C01D92AC38B20792
:10066000E1F70E940A130C949A250C940000579A03
:10067000569A549A0E94E80E0895CF93C82F0E946C
:100680008104882379F0C0FF02C05F9A01C05F989F
:10069000C1FF02C05E9A01C05E98C2FF02C05C9AB0
:1006A00001C05C98CF910895823038F4662311F030
:1006B00081E501C082E50E942E0681E0089584E074
:1006C00008958430C8F46A30B8F44830A8F4E62FAE
:1006D000F0E09AE0899FE00DF11D112483E0EE0F18
:1006E000FF1F8A95E1F7E40FF11DEE0FFF1FE05B9E
:1006F000FE4F85919491089580E090E0089581E007
:10070000089581E008950E948103089508950E944C
:1007100086030895A5E0B0E0E0E9F3E00C94062537
:1007200049835A833091B50189819A81311114C06E
:10073000662359F0222349F00E94D209182F682F0E
:1007400089819A810E94AE0903C00E94C009182FB6
:1007500069817A81812F04C00E94D20969817A81DE
:100760000E9498102596E3E00C942225FC01262F88
:10077000408151816281738184810E948A0308953E
:1007800081E00895CF93DF93EC0160E00E94B6030F
:10079000BE010E948703DF91CF910895E1E0F0E070
:1007A000DF0102C0AA0FBB1F6A95E2F7BD01DF019E
:1007B00002C0AA0FBB1F4A95E2F7AD01462B01C04C
:1007C000EE0F2A95EAF7942F9823491302C08E2B37
:1007D0000895E0958E230895242F462F682F809149
:1007E000D4010E94CE030E940F0908950E94D911DE
:1007F00008950E94D311089508950E949B080E94B5
:10080000FC032FEF84E39CE0215080409040E1F70F
:1008100000C0000008950E94FD030E94951D0895E8
:100820000E94FD030E94B91D08950F931F93CF935B
:10083000DF938C0161E00E94B603EC01B8010E94D5
:100840000E16882309F449C0B801CE010E94830323
:10085000882309F442C0B801CE010E94851B882379
:10086000E1F1B801CE010E9411178823B1F1B8015E
:10087000CE010E94EB1A882381F1F801828188233E
:1008800041F1C3308CE7D807D1F040F4C115FCE743
:10089000DF0791F0C130DC47A1F01BC0CB35ECE79E
:1008A000DE07A9F0CC35FCE7DF0771F0CA35DC477D
:1008B00081F40E94080E0DC00E940B040EC00E941D
:1008C000100E0E94100409C00E94FE0D02C00E947A
:1008D0000C0EC8010E947F0301C080E0DF91CF9120
:1008E0001F910F9108950E94BF1C0E948D040895CE
:1008F0000E9491040E94C81C089508950E947D04DE
:10090000089581E008950895CF93C82F0E947E0432
:100910008C2F0E943D03CF91089580E00E948404B3
:1009200008950E94D21B0E9484040895CF930E94D0
:10093000D21BC82F8091B001C81779F0C093B001C5
:100940000E94541D6093B1017093B2018093B30172
:100950009093B4018C2F0E948404CF910895ABE052
:10096000B0E0E5EBF4E00C9407254F8358876987E6
:100970007A878B8761110E94460D9E012F5F3F4F42
:1009800086E0F90111928A95E9F785E0FE01379634
:10099000D90101900D928A95E1F789819A814C8164
:1009A0005D81452B31F09F3F31F491E08F3F19F489
:1009B00003C091E001C090E090FF09C049815A81D5
:1009C0006B817C818D819E810E94720C05C0C90162
:1009D0000E94C0038111F2CF2B96E2E00C942325F4
:1009E000FC01808191810E94FF090895662319F01E
:1009F0000E948F1302C00E94EA130E94611408959E
:100A0000CF93882309F4A4C0C82F8238C1F40E9470
:100A1000D21B81FD9DC069E380910001909101018D
:100A20000E94841C0E946A0D2FEF87EE93E02150F4
:100A300080409040E1F700C0000069E319C08338AE
:100A400001F50E94D21B80FD83C063E58091000107
:100A5000909101010E94841C0E946A0D2FEF81EE8B
:100A600094E0215080409040E1F700C0000063E531
:100A700080910001909101010E94871C0E946A0DE3
:100A800067C08438C1F40E94D21B82FD61C067E454
:100A900080910001909101010E94841C0E946A0DC6
:100AA0002FEF81EE94E0215080409040E1F700C0AC
:100AB000000067E4DDCF8CEF8C0F813AD0F46C2F0F
:100AC00080910001909101010E944E1C882349F001
:100AD0006C2F80910001909101010E94871C0E945F
:100AE0006A0D6C2F80910001909101010E94841C7D
:100AF000C5CF80E28C0F883048F4C77081E001C018
:100B0000880FCA95EAF70E94290DB8CFEBE5EC0FE4
:100B1000E33040F4F0E0EB5BFE4F808190E00E9418
:100B2000F81B16C0E8E5EC0FE93150F4F0E0EE0FE9
:100B3000FF1FED5EFE4F808191810E941D1C08C049
:100B400083E38C0F833120F461E08C2F0E94F60444
:100B5000CF910895882309F468C0823879F40E94FF
:100B6000D21B81FF62C069E3809100019091010175
:100B70000E94841C0E946A0D69E310C08338B9F496
:100B80000E94D21B80FF51C063E5809100019091CB
:100B900001010E94841C0E946A0D63E5809100019E
:100BA000909101010E94871C0E946A0D089584386B
:100BB00079F40E94D21B82FF38C067E48091000163
:100BC000909101010E94841C0E946A0D67E4E6CFA7
:100BD0009CEF980F913A10F4682FE0CF90E2980FB5
:100BE000983050F4877091E001C0990F8A95EAF728
:100BF000892F0E942F0DD8CF9BE5980F933028F4B2
:100C000080E090E00E94F81B089598E5980F9931D4
:100C100028F480E090E00E941D1C089593E3980F53
:100C2000933118F460E00E94F60408951F93CF9367
:100C3000DF93182FEB010E940005209741F08FE908
:100C40009FE00197F1F700C000002197F6CF812FB8
:100C50000E94AA05DF91CF911F910895893319F061
:100C600060E070E002C060E570E00E941606089542
:100C7000882321F00E94290D0E946A0D089588237F
:100C800021F00E942F0D0E946A0D0895A0E0B0E0AF
:100C9000ECE4F6E00C9401257C01162FC72FFC0133
:100CA000D281058102950F700E941F0D8823B9F033
:100CB000DD23A9F08C2F807F803421F080E2810F2A
:100CC000883068F08091660282FF09C082E00E944D
:100CD000CC0D0E941F0D91E0D82ED92601C0D12C39
:100CE000CC2EC2948FE0C8228C2D90E08C309105E0
:100CF00008F09EC1FC01EA5AFF4F0C94EA248C2FA5
:100D0000807FCF70882311F0C295C07FDD2399F0DA
:100D1000CC2309F479C180E2810F883010F01111E1
:100D200004C08C2F0E94290D03C08C2F0E94390D06
:100D30000E946A0D69C1812F0E94AA05CC2309F483
:100D400077C180E2810F883038F1112329F18C2F8F
:100D50000E943F0D24C08C2F807FCF70803211F015
:100D6000C295C07F112319F01130D1F143C0809199
:100D7000660282FD17C0DD2349F0CC2329F08C2FB9
:100D80000E94290D0E946A0D80E03FC180E00E9410
:100D9000AA05CC2309F44CC18C2F0E942F0D0E9470
:100DA0006A0D46C1DD2371F0002341F0013031F4BA
:100DB0000E94490D8C2B0E94530D3AC10E94490D8F
:100DC0008C2B23C0011103C00E94600D2EC0013086
:100DD00009F42EC18C2F0E943F060E94600D28C18D
:100DE000DD2321F0063008F023C10EC0053008F0E5
:100DF0001FC11BC0DD2361F0002331F0F7018581A5
:100E000080FF02C18F7085838C2F0E94380610C12D
:100E1000002359F0193309F008C1FFEF27EE83E0F2
:100E2000F15020408040E1F7FEC08C2F0E943F0629
:100E3000FFC08C2F86958695837019F0813061F004
:100E4000F7C0DD2321F0812F9C2F937002C080E03A
:100E500090E00E94F81BF4C0DD2321F0812F9C2F2D
:100E6000937002C080E090E00E941D1CE9C06D2FCD
:100E7000812F0E94F604E4C08C2F837079F5D11184
:100E8000DBC0412F429546954770440F440F212FF8
:100E90002F70042E01C0220F0A94EAF714FF08C035
:100EA0008FE090E001C0880F4A95EAF7809501C075
:100EB00080E0C695C695C370822BC23049F058F4C5
:100EC000C13019F00E940009B7C00E94FA08B4C0EE
:100ED0000E940609B1C00E94F708AEC0DD2319F0D8
:100EE0008C2F817001C08695882309F4A5C0412FFD
:100EF000429546954770440F440F212F2F70042EC2
:100F000001C0220F0A94EAF714FF08C08FE090E0B6
:100F100001C0880F4A95EAF7809501C080E0C69528
:100F2000C695C370822BC23049F058F4C13019F015
:100F30000E944C0981C00E9446097EC00E9452094D
:100F40007BC00E940F0978C0CF70DD2339F08C2F51
:100F50000E942109812F0E9438066EC0812F0E94B5
:100F60003F068C2F0E942D0967C0123F21F128F403
:100F7000103F41F0113FC1F043C0133F19F1143F3E
:100F800079F03EC0DD2341F0053008F051C08C2FD0
:100F90008F710E943A094CC0063008F049C0F7CF63
:100FA0008091660282FD18C0DD2339F08C2F8F718D
:100FB0000E9421093DC0DD23C9F38C2F8F710E944F
:100FC0002D0936C0DD2329F08C2F8F710E9418095E
:100FD0002FC00E9414092CC0DD2349F0CF718C2F43
:100FE0000E94210963E08C2F0E94AE0D21C081E098
:100FF0000E94CC0D0230E0F082E00E94CC0D18C0BF
:10100000DD2331F0002391F2812F0E94000510C0F2
:10101000002399F2193349F49FEFE7EEF3E0915082
:10102000E040F040E1F700C00000812F0E94AA05D7
:1010300088EF8C0D843020F40E94D21B0E9484041F
:10104000DD2089F00E941B0D80FD0DC0F70112828A
:101050000E94150D0E942109C7010E9450080E949C
:10106000150D0E942D09CDB7DEB7E8E00C941D25C3
:101070000F931F93CF93DF93EC01688179818A816D
:101080000E940A0A8C010E9458090E94EA08B801CD
:10109000CE010E944606DF91CF911F910F910895D6
:1010A000CF93DF93EC01988189812B813C81232BA5
:1010B00031F08F3F31F481E09F3F19F403C081E0AC
:1010C00001C080E080FD1AC0CE010E94150481118C
:1010D0000FC00E941F0D882389F08A81882371F038
:1010E0008091660282FF0AC082E00E94CC0D06C099
:1010F000CE010E943808CE010E94C203DF91CF9139
:10110000089580E090E00E94F81B80E090E00E944B
:101110001D1C0E94460D0E946A0D0E9480140E94B0
:101120006114089580910001909101010E948A1C30
:101130000E94810808950E94360D0E949208089529
:1011400092959F70963079F010F4925001C09A50A9
:10115000923068F4803F69F018F4883E40F409C08A
:10116000843F29F406C0883E20F0813F11F080E0E2
:10117000089581E00895FC0190818181238134816B
:10118000232B31F08F3F31F481E09F3F19F403C0EE
:1011900081E001C080E080FD07C0808191810E94D4
:1011A000FF090E94A008089580E00895A5E0B0E03E
:1011B000ECEDF8E00C9407252596E2E00C9423254D
:1011C000A6E0B0E0E6EEF8E00C9407252696E2E013
:1011D0000C942325089508950E94EB0808950E9419
:1011E000EC0808950E94EF088093D50108950E94AD
:1011F000F20808959091D501892B0E94F208089574
:101200009091D50189230E94F20808959091D5010B
:1012100089270E94F20808950E94EB0808950E9411
:101220000C098093D401089580E00E940F0908956D
:1012300091E001C0990F8A95EAF7892F0E940F0962
:10124000089521E030E001C0220F8A95EAF78091ED
:10125000D401822B0E940F09089521E030E001C0E3
:10126000220F8A95EAF720958091D40182230E946B
:101270000F09089521E030E001C0220F8A95EAF7B6
:101280008091D40182270E940F0908959091D40182
:10129000892B0E940F0908959091D40189230E94FF
:1012A0000F0908959091D40189270E940F0908958C
:1012B0000895962F9770A1E001C0AA0F9A95EAF7BA
:1012C00093E0769567959A95E1F7FB01EE0FFF1F86
:1012D0006E0F7F1FFA01E60FF71F40E050E0682F06
:1012E00070E090819B01042E02C0369527950A94E8
:1012F000E2F72170219529272A23292721934F5F7F
:101300005F4F4330510569F708959B01782F77703F
:1013100043E0969587954A95E1F7FC01EE0FFF1F94
:101320008E0F9F1FF901E80FF91F40E050E080E0A9
:10133000219130E0072E02C0369527950A94E2F7F6
:1013400021703327042E01C0220F0A94EAF7822B62
:101350004F5F5F4F4330510559F70895282F9A305A
:1013600070F4883060F4862F622F70E028E0929F3E
:10137000600D711D112446EB51E00E94590908953A
:101380009A3070F4883060F4292F90E066EB71E0B9
:1013900038E0239F800D911D11240E948509089536
:1013A00080E00895CF92DF92FF920F931F93CF9327
:1013B000DF936C010091D4018091D501082BC7E027
:1013C000D0E010E0C8010C2E02C0959587950A94D4
:1013D000E2F780FD04C02197A8F7F12C07C0FC2E8E
:1013E000B6018C2F0E94A4100197A9F38F2DDF91D5
:1013F000CF911F910F91FF90DF90CF900895CF93E1
:10140000DF93EC010E94D209BE010E94A410DF917B
:10141000CF9108951F93CF93DF93EB019091B50186
:10142000992321F0CB010E94FF0913C0882349F0C2
:10143000CB010E94D209182F682FCE010E94AE095D
:1014400004C0CB010E94C009182FBE01812F0E9449
:10145000A410DF91CF911F9108951F93CF93DF9335
:10146000C091D60116E08091D701C81799F0D0E05D
:101470001C9FF0011D9FF00D1124E852FE4F40818A
:10148000518162817381848195810E94E008219657
:10149000C770E9CFDF91CF911F9108954091080265
:1014A0005091090260910A0270910B0280910C0226
:1014B00090910D020E94E00808950F931F93CF931F
:1014C000DF9380910D0282958F7009F05AC0809150
:1014D0000A02882309F455C08091D6011091D701E2
:1014E0006091080270910902C0910B02D0910C0228
:1014F00091E06F3F09F090E0292F06E0811709F491
:1015000040C0209721F07F3F21F030E003C031E060
:1015100001C0322F90E030FD31C0089FF001099FDB
:10152000F00D1124DF01A852BE4F11963C91119786
:10153000371324C03C91361321C012963C91129768
:1015400031111CC013964D915C9114974C1B5D0B8F
:10155000483C510598F480910D028F708061809312
:101560000D02E352FE4F80818F708061808388E09E
:1015700092E00E9450080E942D0A03C001968770D5
:10158000BDCFDF91CF911F910F910895A1E1B0E000
:10159000ECECFAE00C94FE248C0185E0F801DE010D
:1015A0001D9601900D928A95E1F7F801E2809091E5
:1015B00008026091090220910B0230910C02211562
:1015C000310531F06F3F31F481E09F3F19F403C0E2
:1015D00081E001C080E0F82FF1709F2E80FD40C1B6
:1015E000F80140815181A380B48088E0C82E82E058
:1015F000D82EF0900A02F501E21BF30BFF2009F44C
:10160000DAC080910D02E83CF10508F096C0282F61
:10161000207F09F053C0561313C0491311C0FE2C8C
:10162000E1100EC08F70806180930D020E944E0AFF
:10163000C6010E94500880910D02F80185834DC1BA
:10164000A114B10431F05F3F31F481E04F3F19F450
:1016500003C081E001C080E080FD03C081E08E25F1
:1016600002C080E090E0F82FF170FF2E80FF1CC0D8
:101670008091D6012091D70136E0821709F40BC181
:1016800090E0389FF001399FF00D1124E852FE4F91
:101690006181561306C06081461303C06281E61261
:1016A00003C001968770E9CFFE2CEE2009F415C126
:1016B00080910D02816080930D0254C0561306C0C4
:1016C000491304C0E11002C0F80199C0C8010E948A
:1016D000BB08882361F1EE2051F120910D02822F89
:1016E00082958F7090E0029774F08091080290913B
:1016F000090298878F831986BB86AA862C87CE011C
:1017000007960E94500886E0F801A8E0B2E0019038
:101710000D928A95E1F70E945D0A0E944E0A0AC066
:10172000561711F1C8010E94BB0881112CC0C801D5
:101730000E945008FF24F394D0C0282F207F81F707
:101740007A2DB98AA88A6E2D89890E94D60888E0E8
:1017500092E00E94500886E0F60111928A95E9F71E
:101760000E944E0AF12CB9C04913DCCFE110DACF48
:10177000F8018583C8010E94500886E0F6011192A5
:101780008A95E9F7AAC0EE2091F220910D02822FEE
:1017900082958F7090E002970CF4B5CF809108028B
:1017A000909109029A8389831B82BD82AC822E8329
:1017B000CE010196A6CFE83CF10508F044C0FE2C0E
:1017C000EE2009F4B4CF561330C049132EC0209137
:1017D0000D0220FD21C0822F82958F70482F50E08E
:1017E00041155105C9F0F80125834F30510541F0ED
:1017F0008F5F982F9295907F822F8F70892B858392
:10180000C8010E94500886E0F801A8E0B2E001900B
:101810000D928A95E1F73CC086E0F801A8E0B2E0BD
:1018200001900D928A95E1F758C0C8010E94BB084B
:10183000811169CF80910D02816080930D02C801F2
:101840000E9450084AC07A2DB98AA88A6E2D8989CB
:101850000E94D60886E0F60111928A95E9F718C031
:10186000EE2009F464CFC8010E94BB08F82E88233B
:1018700009F45DCF86E0F801A8E0B2E001900D9296
:101880008A95E1F788E092E00E94F0040E945D0AE8
:101890000E944E0A22C04D875E878D859E850E94DC
:1018A000FF09292F22952F70223028F49F7039F0DC
:1018B000811105C00BC0243028F49F7049F4805E6C
:1018C000883020F0C8010E9450089F2CF92C05C0D8
:1018D000F8019581907F99F7F9CF8F2D6196EBE014
:1018E0000C941A25ACE0B0E0E8E7FCE00C94062587
:1018F0004F83588769877A878B879C87CE010796A5
:101900000E94C60A8823D1F09F8188852A853B855D
:10191000232B31F08F3F31F481E09F3F19F403C056
:1019200081E001C080E080FD47C04F815885698516
:101930007A858B859C850E94E0083EC086E0FE018A
:101940003796DE01119601900D928A95E1F7FF819D
:10195000E8856A857B856115710531F0EF3F31F4CB
:1019600081E0FF3F19F403C081E001C080E080FD09
:1019700023C02091D70130E0C901019687709927D3
:101980004091D60150E084179507F1F1F983EA837D
:101990007D836C8396E0929FD001939FB00D1124BC
:1019A000A852BE4FFE01319601900D929A95E1F733
:1019B0008093D7010E942D0A16E08091D601909164
:1019C000D701891771F1189FC001112488529E4FC9
:1019D0000E94C60A882329F1E091D6011E9FF001DA
:1019E0001124E852FE4F40815181628173818481CC
:1019F00095810E94E0088091D60190E00196877061
:101A000099278093D601D9CF0E949B081092D701C5
:101A10001092D601E8E0F2E086E0DF011D928A959F
:101A2000E9F72C96E3E00C94222580911602859527
:101A300085958595089580911602877008959091F7
:101A40001602977081E009F480E0089580912102E8
:101A5000089590912102892B809321020895809509
:101A600090912102892380932102089510922102EE
:101A7000089590912002892B8093200208958095EB
:101A800090912002892380932002089510922002D1
:101A9000089580911702089508950E944C0D0895AD
:101AA0000E944D0D08959091660292FF08C090919A
:101AB0001702981721F0809317020E94500D089585
:101AC00080911702882329F01092170280E00E946B
:101AD000500D0895CF93DF93E0910001F091010143
:101AE000809121028083E0910001F09101019081B9
:101AF00080912002892B808380911702882381F0B6
:101B0000E0910001F09101019081892B8083809107
:101B10000001909101010E94421C81110E94600D00
:101B2000C0910001D091010148E050E06EE072E008
:101B3000CE010E944225892B59F088E0FE01AEE0DB
:101B4000B2E001900D928A95E1F7CE010E94DF1B71
:101B5000DF91CF9108950E944C0D089590916602F7
:101B600092FF11C098E0899F90011124262B2093A9
:101B700016020E942109809116028595859585950A
:101B80000E94AB0D08950E9421090895109216023B
:101B900080E00E94AB0D089520911602809582236B
:101BA00080931602982F977099F430E0482F082EF2
:101BB000000C550B2417350759F09091660292FFDF
:101BC00007C08595859585950E942D090E94C60DB3
:101BD00008959091660292FB222720F9281769F058
:101BE00080FB92F990936602809165029091660263
:101BF0000E94320E82E00E94CC0D08958091660210
:101C000082FB882780F991E089270E94E90D0895D9
:101C100081E00E94E90D089580E00E94E90D089599
:101C20006FEF7FEF80E090E00E948425089580E0D0
:101C300090E00E946025873E9E4F19F40E94A215F5
:101C4000089580E0089582E090E00E94582508956C
:101C500083E090E00E945825089584E090E00E947F
:101C600060250895BC0184E090E00E9484250895D9
:101C7000AB01BC018FE090E00E9478250895AB0194
:101C8000BC0183E190E00E947825089560E070E057
:101C9000CB010E943F0E089560E070E0CB010E94EE
:101CA000380E0E94460E089567EE7EEF80E090E0C9
:101CB0000E94842560E082E090E00E94662560E05A
:101CC00083E090E00E9466251092D50160E074E107
:101CD00084E090E00E94842560E086E090E00E942D
:101CE00066256FEF87E090E00E94662540E050E0B7
:101CF000BA0188E090E00E94782560E08DE090E0F5
:101D00000E94662540E050E0BA0188E190E00E9420
:101D1000782560E087E190E00E94662540E050E091
:101D2000BA018CE190E00E94782560E070E080E2EA
:101D300090E00E94842540E050E0BA0188E190E004
:101D40000E94782580E00E94BB150E94F0150E9439
:101D50004C0E08950E94540E0895682F8EE090E076
:101D60000E94662508950E94541D60933602709368
:101D70003702809338029093390260933202709355
:101D80003302809334029093350208950E94541DCB
:101D90006093360270933702809338029093390231
:101DA00060932E0270932F02809330029093310241
:101DB000089581E008950E94D90E089508950E9423
:101DC000DE0E08950E94DE0E08950E94E20E089530
:101DD0000E94DE0E08950E94DE0E089588E891E1CB
:101DE0000E94C81B0E94EB0E0E94370308950E94B8
:101DF000DF0E0E94DE0E08950E94A4110E9483044B
:101E000008950E943F1D0E9400160E94C9180E945A
:101E100071120E94FC0E0E94E50E0895AAE0B0E047
:101E2000E4E1FFE00C94FF240E94871284E2E82E94
:101E300082E0F82E670100E0F60111916F01802F1A
:101E40000E94BF1181270F5F0A3019F08823A1F388
:101E500022C0811120C00E94481D8C018091220265
:101E6000909123020817190709F450C08FEF898356
:101E70008A831B820E94481D8160782F9D838C83FA
:101E800049815A816B818D810E94AF041093230296
:101E9000009322023BC080913A0281FD0E94C5114D
:101EA0000E94DB0EA82E10E0812F0E94BF11B82ED9
:101EB000F701C080C82611F100E0DD24D3948C2DF9
:101EC0008D21B1F0AA20A1F00E831F8391E08B2D0C
:101ED0008D2109F490E098870E94481D8160782F39
:101EE0009A8789874E815F8168858A850E94AF04C1
:101EF0000F5FDD0C083019F7F701B0821F5FFFEFAD
:101F0000EF1AFF0A1A3081F60E94B30E0E94E718FA
:101F100081110E94C60E0E94A2140E9496042A9665
:101F2000EAE00C941B25CF93DF930E94A910EC01EB
:101F3000811520E59207E0F5811530E4930708F05C
:101F40009FC0803E910528F58D3C910508F096C014
:101F5000883A910570F4853A910508F085C0813082
:101F6000910509F47EC008F4DCC0049708F0DCC0D9
:101F7000D8C0813C910508F0D4C0C85AD0E0CC0F3D
:101F8000DD1FC85BDE4F0990D881C02DCE0194645F
:101F9000CCC0811540E2940708F0B8C0811551E02B
:101FA000950708F0C1C0883E910508F4BDC0B9C0CE
:101FB000803662E5960720F5803472E5970708F0D1
:101FC0006CC0C03282E5D80708F05EC0C11592E54A
:101FD000D90708F489C02C2F2695269560E2269F04
:101FE00090011124C37081E090E002C0880F991F16
:101FF000CA95E2F7E901C82BD92BCE019D6895C09F
:10200000803A22E59207E0F48F71C03832E5D307B9
:1020100008F059C08695869570E2879F900111243B
:102020009C2F9370C1E0D0E0AE0102C0440F551F59
:102030009A95E2F7EA01DA68C9018C2B9D2B75C0ED
:10204000803C42E5940708F445C0803E924508F084
:1020500068C0CF71DD27DC2FCC27CE01806F906A5E
:1020600064C081E090E061C0C55AD0E0C658DE4F40
:102070008881C82FD0E0CE01906457C0906555C0CC
:10208000DF70CE01906A51C0CF718C2F90E0D82FB5
:10209000CC27CE01816F906A48C08F718695869556
:1020A00070E2879FA00111249C2F937021E030E003
:1020B000B90102C0660F771F9A95E2F7CB019C68C1
:1020C000842B952B32C090E0D82FCC27CE01846F83
:1020D000906A2BC08F710E9445118F7190E0D82FAC
:1020E000CC27CE01906221C08C2F8F710E944511A8
:1020F00095E0D695C7959A95E1F7CF70D0E0DC2FA3
:10210000CC27D069BE01682BCB010FC08D2F8F71FA
:102110000E944511DD27D0628F719E01382BC901C5
:1021200004C080E090E001C0CE01DF91CF9108951E
:102130007A3038F4683028F4462F672F0E94031A4B
:10214000089580E090E008950E9498100E94930FF7
:1021500008958238910569F1B0F48133910509F44D
:1021600075C048F48932910509F467C08A32910537
:1021700009F471C008958533910509F459C0893374
:102180009105B9F00895833E910589F138F4803EB8
:102190009105D1F0823E910529F10895863E910581
:1021A000C9F1873E9105D9F1843E910509F06CC0D3
:1021B00027C02091650220FD57C021FD55C0209108
:1021C000660223FD5BC008958091650280FD48C0D2
:1021D0008091660280FF48C08091650284FD46C000
:1021E00083EE51C08091650282FF3CC0F5CF8091A3
:1021F000650282FD37C08091660280FD35C0ECCF5C
:102200008091660281FF36C08091650284FD2EC0F8
:1022100087EE39C08091650283FF2AC0F5CF809197
:10222000650283FD25C08091660281FD23C0ECCF4D
:102230008091650285FD22C01FC08091650285FDE9
:102240001BC08091660283FF19C00AC0809165029D
:1022500086FD16C017C08091650286FD13C010C0B0
:1022600089E311C082EE0FC080EE0DC080E00BC08C
:1022700086EE09C084EE07C085E305C089E203C08D
:102280008AE201C081E390E008959091650292FF97
:102290000DC0282F2871283019F4877F846006C06C
:1022A000282F2471243011F48B7F886093FF0DC098
:1022B000282F2871283119F4877E846106C0282FC1
:1022C0002471243111F48B7E88612091660220FFF5
:1022D0000DC0382F3871383019F4877F816006C0FF
:1022E000382F3171313011F48E7F886021FF0DC09D
:1022F000282F2871283119F4877E816106C0282F84
:102300002171213111F48E7E886194FD877E0895BC
:1023100080E008950E94100E08950E9487128FE3B6
:102320009CE90197F1F700C000000E94871282E04B
:102330000E94BF1180FF04C00E948A110E94951D57
:1023400008950E948D1108950E94170E811102C0F8
:102350000E94AA0E0E94230E80933A020E942D0E24
:1023600090936602809365020E94A1110E94280E3C
:102370000E94F7088091D4010E940C090895E82F6B
:10238000F0E0EF58FD4F80810895089580EA8A9526
:10239000F1F7089500C008950E94C61108950895A8
:1023A0000E94CF1108950E94D01108950E94CF116C
:1023B00008950E94D6110895F894E82FE295EF70E1
:1023C000F0E031A1282F2F7081E090E001C0880F4C
:1023D0002A95EAF7982F9095932391A392A1892BA0
:1023E00082A3789408950F931F93CF93DF93C5E84A
:1023F000D1E089918F3F11F00E94DC1181E0CF384C
:10240000D807B9F7CDE7D1E005E811E089918F3F12
:1024100011F00E94DC110C171D07C1F7DF91CF915D
:102420001F910F910895A0E0B0E0E9E1F2E10C9472
:1024300001258C01C62FD0E0CE018B579E4F7C0129
:10244000FC0190819F3F09F447C0D62EF894E92FF4
:10245000E295EF70F0E081A19F7021E030E001C0D3
:10246000220F9A95EAF7822B81A382A12095282337
:1024700022A378940E94CA11EDE7F1E045E851E00B
:1024800031E0C12C21912F3F89F0A22FA295AF708E
:10249000B0E090968C9190E02F7002C09595879552
:1024A0002A95E2F780FD02C0832F01C080E0C82A90
:1024B000330F4E175F0731F7F70180818F3F11F01F
:1024C0000E94DC1161E0C11001C060E08D2D0E940E
:1024D000CC11C00FD11FC882CDB7DEB7E8E00C9495
:1024E0001D250E94F3118AE0E1E7F2E0DF01982F59
:1024F0001D929A95E9F7E7E6F2E0DF011D928A95D1
:10250000E9F78AE00E94C2120E94F6030895AAE049
:10251000B0E0EDE8F2E10C9404258E010F5F1F4F4F
:102520008AE0F80111928A95E9F7F12C6F2DC80124
:102530000E941312F394FAE0FF12F8CF4AE050E041
:10254000B80187E692E00E94422521E0009709F455
:1025500020E0892B41F08AE0F801A7E6B2E0019083
:102560000D928A95E1F74AE061E772E087E692E032
:102570000E94C312182F0E94F903812F2A96E5E0CA
:102580000C9420250895EF92FF920F931F93CF9301
:10259000DF937C018B01C42F222349F081E08093DB
:1025A0003D020E94481D90933C0280933B02809123
:1025B0003D02811102C080E01AC080913B029091DF
:1025C0003C020E94601D0597B0F3D0E0AE01B70158
:1025D000C8010E944225892B39F0AE01B701C8011C
:1025E0000E944F2581E001C080E010923D02CDB7EE
:1025F000DEB7E6E00C941F250E94381F0E94010FF1
:102600000E94451F08950E944A1F0E940E0F0E94BB
:10261000641F08950E94DF1C0E941E1F0E94EE0E80
:102620000E94FC120E9403130E94F70EFBCF8091C0
:10263000440280FF06C06091070170E0660F771FBB
:1026400026C081FF04C06091070184E005C082FFBD
:1026500007C06091070188E0689FB001112417C08E
:10266000909143029923D1F060910601961788F763
:102670002091070188E0289F90011124929FA001DA
:10268000939F500D112470E0CA010E94D624603837
:10269000710540F46115710519F406C068E070E039
:1026A000862F08958FE7089581E008958091440270
:1026B00080FF08C06091030170E07595679575957E
:1026C000679521C081FF06C06091030170E0759598
:1026D000679519C082FF04C06091030170E010C0CB
:1026E00090914202992399F0609102019617A0F708
:1026F00080910301899FC001112470E00E94D624BB
:102700006038710540F46115710519F406C061E087
:1027100070E0862F08958FE7089581E008958D3C3D
:1027200021F40E941713819504C08E3C29F40E9465
:1027300017138093480208958F3C21F40E941713C9
:10274000819504C0803D29F40E94171380934702AD
:102750000895893D19F40E94561305C08A3D31F44D
:102760000E94561381958093490208958B3D21F470
:102770000E945613819504C08C3D29F40E94561383
:1027800080934A0208959FE2980F983078F421E0F0
:1027900030E0A90102C0440F551F9A95E2F7CA0123
:1027A00090914602892B8093460208958D3D21F435
:1027B0008091440281600BC08E3D21F480914402DF
:1027C000826005C08F3D29F480914402846080932B
:1027D000440208958D3C39F49091480297FF35C02A
:1027E0001092480259C08E3C29F490914802191663
:1027F000BCF32BC0909147028F3C29F497FF25C072
:102800001092470249C0803D19F41916CCF31DC03F
:1028100090914902893D29F41916BCF4109249029D
:102820003BC08A3D19F497FF10C0F8CF8B3D39F4B7
:1028300090914A0297FF09C010924A022DC08C3D28
:1028400021F490914A021916BCF39FE2980F983038
:1028500080F421E030E0A90102C0440F551F9A9591
:10286000E2F7CA018095909146028923809346023F
:1028700013C08D3D21F4809144028E7F0BC08E3DAC
:1028800021F4809144028D7F05C08F3D29F4809111
:1028900044028B7F8093440280914702811106C0DD
:1028A00080914802811102C0109243028091490236
:1028B000811106C080914A02811102C01092420229
:1028C00008950E94481D20914702211104C02091C3
:1028D0004802222321F090934102809340022091EC
:1028E0004902211104C020914A02222321F0909331
:1028F0003F0280933E0285E492E00E94EA1B089525
:10290000E5E4F2E086E0DF011D928A95E9F7109296
:10291000430210924202109244020895FC01828107
:1029200081110DC0838181110AC08481811107C08A
:1029300091E08581811101C090E0892F01C081E083
:1029400081700895A6E0B0E0E8EAF4E10C94062571
:1029500086E0E5E4F2E0DE01119601900D928A95A1
:10296000E1F7109247021092480210924902109229
:102970004A028B81811104C08C81882309F45FC0D5
:1029800080914002909141020E94601DAC019091A3
:102990004302992339F02091080130E024173507CC
:1029A00058F04DC0209109018AE0289F9001112420
:1029B0002417350718F043C09F3F19F09F5F90938D
:1029C00043021B81112361F00E941713111614F0AA
:1029D0009FEF01C091E0989F902D112490934702A2
:1029E0001C81112361F00E941713111614F09FEF40
:1029F00001C091E0989F902D11249093480230914E
:102A000047023323E1F0209148022223C1F045EB35
:102A10003403C0011124992319F09093470203C095
:102A200081E08093470235EB2303C00111249923F1
:102A300019F09093480203C081E0809348028D8191
:102A4000811104C08E81882309F45FC080913E0209
:102A500090913F020E94601DAC0190914202992327
:102A600039F02091040130E02417350758F04DC0AB
:102A7000209105018AE0289F900111242417350731
:102A800018F043C09F3F19F09F5F909342021D8151
:102A9000112361F00E945613111614F09FEF01C02C
:102AA00091E0989F902D1124909349021E8111234B
:102AB00061F00E945613111614F09FEF01C091E0CF
:102AC000989F902D112490934A023091490233230C
:102AD000E1F020914A022223C1F045EB3403C0010A
:102AE0001124992319F09093490203C081E0809347
:102AF000490235EB2303C0011124992319F0909367
:102B00004A0203C081E080934A02BE016F5F7F4F9B
:102B100085E492E00E94911C811105C085E492E059
:102B20000E948E1481110E94611486E0FE0131968C
:102B3000A5E4B2E001900D928A95E1F72696E3E0D4
:102B40000C94222582E290E00E945825833281F481
:102B500083E290E00E945825813051F484E290E0B5
:102B60000E94582591E0833209F090E0892F01C03E
:102B700080E081700895CF93C82F811102C06FEF5C
:102B800001C063E282E290E00E946625C11102C0AA
:102B90006FEF01C061E083E290E00E946625C11101
:102BA00002C06FEF01C063E284E290E00E946625FC
:102BB000CF910895089585E290E00E945825682FEE
:102BC00070E080E090E008950895CF93C62F0E94B2
:102BD000E4156C2F85E290E00E946625CF91089560
:102BE00080E00E94BB1560E070E0CB010E94E5151B
:102BF0000E9496190E94581A81E00E94BB15089500
:102C00000E94DA150E94DB150E94E4150E94A215AD
:102C1000811102C00E94F01508950895CF93FB0121
:102C2000C281CC23E9F09C01225037472031310585
:102C300020F482500E94681A0CC08115F7E79F07A4
:102C400051F481E00E94210943E062E081E00E94AA
:102C5000EC03C0E018C081309747A9F482E0F2CFBE
:102C60008115E7E79E0711F481E004C081309747A2
:102C700049F482E00E942D0943E062E081E00E9475
:102C8000EC0301C0C1E08C2FCF9108952FEFFC0120
:102C9000208308950E944616089580E00895EF92DB
:102CA000FF920F931F93CF93DF93EC01062F0E94A7
:102CB0004D168111B1C0E8818E2F90E0FC01319753
:102CC000E331F10508F0A2C0EE59FF4F0C94EA245D
:102CD00019828BE05EC08981823089F030F48130C6
:102CE00009F094C00E94541D0CC0833079F08430E8
:102CF00009F08CC01A821B821C821D8289C00E942E
:102D0000DB159A838B837C836D8382C07E0182E096
:102D1000E80EF11C10E0812F0E94BF11F701819392
:102D20007F011F5F1A30B9F773C08981823039F093
:102D3000853009F06BC08A810E940D1669C06A81D6
:102D40007B818C819D810E94F0240E94E51560C0EA
:102D50004B816A8189810E945A199C838D8358C056
:102D60002C813D813227232732274B816A8189813B
:102D70000E947B194DC00E9496194AC0602FCE0157
:102D80000E944A1645C00E940F1A24C00E94111AC0
:102D900099838A833DC06B8170E089819A81AE01FD
:102DA0004C5F5F4F9827892798270E94141A30C0DC
:102DB0006B8170E089819A81AE014C5F5F4F9827EB
:102DC000892798270E94371A23C00E94581A20C0CA
:102DD0000E94471989831CC06B8170E089819A81A8
:102DE000AE014C5F5F4F9827892798270E94C11931
:102DF0000FC06B8170E089819A81AE014C5F5F4F9B
:102E00009827892798270E94E31902C08FEF8883AB
:102E1000602FCE010E940D1ECDB7DEB7E6E00C9408
:102E20001F25CF93DF93FC01DB0112968C91882341
:102E300009F4DDC09F0130572332310508F0D8C0B6
:102E4000EF010E942D0E9093660280936502FE01B1
:102E5000E150F047E232F10520F4EB58FF4F0C94BB
:102E6000EA24809165028160AAC080916602886030
:102E7000B2C0809165028260A2C08091650220C0CC
:102E80008091650288609BC0809166021EC080911F
:102E900066028260A0C080916502806190C08091CE
:102EA000650280628CC080916502806488C00E9447
:102EB0009B0880916502806882C08091650288606D
:102EC00084607DC0809166028260816084C0809150
:102ED00065028E7F74C080916602877F7CC080917E
:102EE00065028D7F6CC08091650220C08091650273
:102EF000877F65C0809166021EC0809166028D7FCB
:102F00006AC0809165028F7E5AC0809165028F7D74
:102F100056C0809165028F7B52C00E949B088091B1
:102F200065028F774CC080916502877F8B7F47C099
:102F3000809166028D7F8E7F4EC08091650282FBFC
:102F4000222720F991E0922790FB82F990FB83F9E8
:102F500036C080916602982F909591708E7F892B54
:102F600090FB81F938C08091650286FB222720F909
:102F700091E0922790FB86F922C00E949B088091E5
:102F8000650287FB222720F991E0922790FB87F9C1
:102F900016C081E001C080E00E94AD0E1EC080918D
:102FA000650284FB222720F991E0922790FB84F9A7
:102FB00006C080916502982F909590FB80F98093D0
:102FC00065020BC08091660283FB222720F991E005
:102FD000922790FB83F9809366028091650290911D
:102FE00066020E94320E0E949B0880E001C081E0D0
:102FF000DF91CF910895A0E0B0E0E1E0F8E10C941A
:103000000225E82FF0E0E053FC4FD490282F2695BE
:103010002695269530E0F901E059FB4F0491877021
:1030200010E0082E02C0159507950A94E2F701708A
:103030001127F901E05AFB4FE490F12C082E02C051
:10304000F594E7940A94E2F791E0E922FF24F9016C
:10305000E05BFB4FC491D0E002C0D595C7958A953F
:10306000E2F7C170DD270115110519F081EE0E940C
:103070000005E114F10419F086EE0E9400058D2D83
:103080000E942E06E114F10419F086EE0E94AA05B2
:103090000115110519F081EE0E94AA05CD2B19F03A
:1030A0008CE20E942E06CDB7DEB7E7E00C941E2519
:1030B000EF92FF920F931F93CF93DF93EC01162FA4
:1030C0000AE08881882309F455C0813009F043C0A3
:1030D0008981813041F47E0182E0E80EF11C8A8111
:1030E0000E942E0609C0823049F47E01E2E0EE0E15
:1030F000F11C8A810E940005E7012FC0833041F452
:103100007E01F2E0EF0EF11C8A810E94AA05F4CF45
:10311000843011F0219621C02A81229680E090E02F
:1031200030E0205331092A30310558F4089FA001BE
:10313000099F500D1124C901840F951F21962881E4
:10314000EFCF009751F0EFE9FFE03197F1F700C0C2
:1031500000000197F6CF0E94FB172196812F88234C
:1031600009F4AFCFEFE9FFE03197F1F700C00000BD
:103170008150F5CFCDB7DEB7E6E00C941F258FE880
:1031800091E00197F1F700C0000008950E945403F8
:10319000089581E080934C0253985B9A52985A9A12
:1031A0000E94BF1830914C02EEE4F2E090E09317D9
:1031B00069F089B183FB882780F94A9902C020E031
:1031C00001C022E0822B81939F5FF1CF0895EF929F
:1031D000FF920F931F93CF93DF9310E000E0809155
:1031E0004C02181708F04DC0C12FD0E0E9B1E3FB45
:1031F000EE27E0F94A9902C080E001C082E08E2B00
:10320000DE01A25BBD4FEC912E2F237030E0482FE2
:10321000082E000C550B2417350789F1EE0FEE0F21
:10322000E82BEC93EF70F0E0E157FE4FCE01835BAB
:103230009D4F7C019081F7018081890F8083181652
:1032400064F4FE01E55BFD4F80818F5F808360E069
:10325000812F0E94C61881E001C080E0F7019081B3
:1032600097FF0AC0C55BDD4F88818150888361E08C
:10327000812F0E94C61881E0F7011082082B1F5F82
:10328000AECF802FCDB7DEB7E6E00C941F2584E0EB
:10329000089550E0440F551F20E1629F400D511DDD
:1032A00011249A0160EA869F200D311D1124C90165
:1032B000869608950F931F93CF93DF938430A0F4E5
:1032C0006A3090F4483080F40E9449198C010E94C1
:1032D000582590E0D82FCC27C80101960E94582588
:1032E0009E01282BC90102C080E090E0DF91CF91C0
:1032F0001F910F9108950F931F93CF93DF93843005
:1033000080F46A3070F4483060F4E9010E94491991
:103310008C016D2F0E9466256C2FC80101960E94BA
:103320006625DF91CF911F910F9108950F931F9301
:10333000CF93DF93C0E0D0E010E000E00E945F0395
:1033400090E0C817D9073CF4402F612F8C2F0E94C2
:1033500061039C0102C021E030E0402F612F8C2FDF
:103360000E947B190F5F083049F71F5F1A3029F759
:103370002196C430D10501F7DF91CF911F910F91B4
:103380000895EF92FF920F931F93CF93DF93EA017B
:103390007A01E60EF71E8C01C8018696CE15DF0570
:1033A00069F0003822E0120720F40E945825888333
:1033B00001C0188221960F5F1F4FEECFCDB7DEB749
:1033C000E6E00C941F25EF92FF920F931F93CF938B
:1033D000DF93EA017A01E60EF71E8C01C80186969A
:1033E000CE15DF0559F0003822E0120718F4688185
:1033F0000E94662521960F5F1F4FF0CFCDB7DEB735
:10340000E6E00C941F25843038F46A3028F4483004
:1034100018F40E945A19089580E090E0089580E120
:1034200008958AE591E00895EF92FF920F931F931C
:10343000CF93DF93EA017A01E60EF71E8C01C801F3
:103440008A559D4FCE15DF0569F00A3521E0120738
:1034500020F40E945825888301C0188221960F5FAE
:103460001F4FEDCFCDB7DEB7E6E00C941F25EF92EE
:10347000FF920F931F93CF93DF93EA017A01E60E39
:10348000F71E8C01C8018A559D4FCE15DF0559F0F6
:103490000A3521E0120718F468810E9466252196FA
:1034A0000F5F1F4FEFCFCDB7DEB7E6E00C941F25BF
:1034B000CF93DF93C6EAD2E060E0CE010E9466259A
:1034C0002196C11584E0D807B9F7DF91CF9108950F
:1034D000A8E0B0E0EEE6FAE10C94FD24F82E8FE0CF
:1034E0008F1508F474C08FEF93E00E945825811166
:1034F0006EC006EA12E0FF2071F0011594E0190792
:1035000009F465C0C8010E945825811101C0FA94D0
:103510000F5F1F4FF0CFFE0131966F0188E01192CF
:103520008A95E9F77801FFEFEF1AFF0AC8010E94B8
:10353000582589831A82882309F449C0813009F00B
:1035400040C0580182E0A80EB11CC7010E94582556
:103550008A838823E1F19FEF980F933060F478011C
:1035600093E0E90EF11CC5010E9458258B83882346
:1035700071F11C8226C0843019F54E01E3E08E0EF5
:10358000911C02E010E07501FFEFEF1AFF0AC50180
:103590000E945825F40181934F018823C1F08C3794
:1035A00041F4E2E0F0E0EC0FFD1FE00FF11F1082AC
:1035B00008C00F5F1F4F57010730110521F707C0E3
:1035C000750160E0C6010E9458188701ABCF2896AC
:1035D000ECE00C941925CF93DF9386319C4741F59D
:1035E000EB010E94260D982F8A81209100013091D5
:1035F0000101882379F09A7A81E009F480E08093D0
:103600004F02911102C069E201C065E3C9010E9445
:10361000841C0AC080914F02811102C069E201C07E
:1036200065E3C9010E94871C0E946A0D80E001C009
:1036300081E0DF91CF9108950F931F93CF93DF9394
:10364000C42FD22FFC0182818823B1F04093520213
:103650000E94481D909351028093500280E28C0F8B
:10366000883008F04DC0C77081E001C0880FCA954E
:10367000EAF70E94380644C080915202481330C0D5
:1036800080915002909151020E94601D883C9105EA
:1036900038F510E21D0FCD17B9F080E28C0F88309D
:1036A00040F4C77081E001C0880FCA95EAF70E9414
:1036B0003F06183010F581E09D2F977001C0880FEC
:1036C0009A95EAF70E943806802F0E942E0618303D
:1036D000B8F4D77081E001C0880FDA95EAF70AC024
:1036E00080E28C0F883060F4C77081E001C0880FE1
:1036F000CA95EAF70E943F0603C0802F0E942E065B
:10370000DF91CF911F910F9108950F93FC01E85124
:10371000FC47E730F10590F5CB01E956FF4F0C94DB
:10372000EA2406E221EE41EE6AE17CE723C007E2EB
:1037300025EE45EE6BE17CE71DC006E221EE40EE92
:1037400068E17CE717C007E225EE44EE69E17CE71B
:1037500011C006E221EE42EE6CE17CE70BC007E20D
:1037600025EE46EE6DE17CE705C008E221E045EE7E
:103770006EE17CE70E941C1B80E008C0FB01828197
:10378000882319F01092520201C081E00F91089530
:103790009093AF018093AE01089590935802809367
:1037A00057020895E0915702F0915802309729F09E
:1037B0000190F081E02D0995089580E00895E09151
:1037C0005702F0915802309721F00280F381E02DEA
:1037D00009950895E0915702F0915802309739F019
:1037E00022E0DC012C930480F581E02D09950895F9
:1037F000A3E0B0E0EEEFFBE10C9407252091550229
:103800003091560228173907A1F090935602809301
:103810005502E0915702F0915802309751F023E0A1
:1038200029839B838A830680F781E02DCE01019650
:1038300009952396E2E00C942325A3E0B0E0E3E2AF
:10384000FCE10C9407252091530230915402281773
:103850003907A1F09093540280935302E0915702EC
:10386000F0915802309751F024E029839B838A839A
:103870000680F781E02DCE01019609952396E2E0BE
:103880000C942325FC01329697E080E0915029F0BA
:1038900021912223D9F38F5FF9CF0895662349F050
:1038A000FC01329608962191621729F0E817F90772
:1038B000D1F780E0089581E008959C01FC013296E3
:1038C0009FEF80E04191461789F09F3F19F4411125
:1038D00001C0982F8F5F8630A9F79F3F39F0F9011B
:1038E000E90FF11D97FDFA956283089508959C01F3
:1038F0002A5F3F4FFC014281461301C012820196AC
:1039000082179307B9F708950E945D1C08950E94DD
:10391000771C0895029626E0FC0111922A95E9F79A
:10392000089546E050E00E94422521E0892B09F4E9
:1039300020E0822F089508950E949B1C089583E043
:10394000809359020E949C1C0895811102C081E05D
:1039500001C082E0809359020E949C1C08950E943D
:10396000A51C089581E0809359020E949C1C089533
:103970000E94B21C089508950E94BB1C08950E94E5
:10398000BC1C08950E94BB1C08950E94BB1C089596
:103990000E94BB1C0895CF930E94C51C0E948712F1
:1039A0000E94C21CC0E08C2F0E94BF11811104C074
:1039B000CF5FCA30C1F701C081E0CF91089585B7CC
:1039C000806885BF85B7806885BF08951F920F9274
:1039D0000FB60F9211248F939F93AF93BF93809153
:1039E0005A02811113C080917B0290917C02A091B8
:1039F0007D02B0917E024196A11DB11D80937B0294
:103A000090937C02A0937D02B0937E02BF91AF9110
:103A10009F918F910F900FBE0F901F9018958091DE
:103A20008302843031F10E94730410925A0220E420
:103A300088E190E00FB6F894A895809360000FBEDF
:103A40002093600083B7817F846083BF83B78160E8
:103A500083BF7894889583B78E7F83BF0FB6F89421
:103A6000A89580916000886180936000109260004A
:103A70000FBE08950E949B080E947804089582E07A
:103A800084BD93E095BD9AEF97BD80936E00089535
:103A90002FB7F89480917B0290917C02A0917D02D7
:103AA000B0917E022FBF08952FB7F89460917B02EA
:103AB00070917C0280917D0290917E022FBF0895CB
:103AC0009C014FB7F89480917B0290917C02A09169
:103AD0007D02B0917E024FBF821B930B08957894B4
:103AE0001F920F920FB60F9211248F939F93AF9353
:103AF000BF9380917B0290917C02A0917D02B09156
:103B00007E020196A11DB11D80937B0290937C02E1
:103B1000A0937D02B0937E02BF91AF919F918F9150
:103B20000F900FBE0F901F90189581E08093E000DA
:103B300080E28093D8001092C9008FE19EE4019743
:103B4000F1F700C0000087E090EBDC0180938C026D
:103B500090938D02A0938E02B0938F029CE088E137
:103B60000FB6F894A895809360000FBE9093600004
:103B7000FFCF9CE088E10FB6F894A8958093600091
:103B80000FBE90936000FFCF8091630208959B0168
:103B9000909183029430F1F48F708093E9008FEF5D
:103BA0009091E800815095FD06C095ED9A95F1F74A
:103BB00000008111F5CF8091E80085FF0BC0BA01AC
:103BC000C90140E050E00E9403208091E8008E7718
:103BD0008093E800089543E050E0BC0184E00E9437
:103BE000C71D089546E050E0BC0184E00E94C71D57
:103BF0000895CF93DF93EC0148E050E0BC0181E0F1
:103C00000E94C71D88E0FE01ABE5B2E001900D9275
:103C10008A95E1F7DF91CF910895603231F4BC01CC
:103C200040E250E082E00E94C71D08958091820228
:103C3000811109C00E94D3210E9430228091E200AC
:103C400084608093E20008951092820208950E9499
:103C5000B81C089560917F0281E0611101C080E08D
:103C60000E949F1C08959091830281E0943009F096
:103C700080E060917F020E94A51C089542E061EC03
:103C800081E00E944C2142E261EC84E00E944C21E0
:103C900042E261EC82E00E944C2142E260EC83E06F
:103CA0000E944C219091830281E0943009F080E0E1
:103CB00060917F020E94AF1C08958091850283303D
:103CC00009F463C030F4813071F0823009F49DC092
:103CD00008958A3009F489C08B3009F46EC08930A8
:103CE00009F0ABC020C080918402813A09F0A5C0E0
:103CF0008091E800877F8093E8008091880290910E
:103D00008902892B21F468E08BE592E003C060E032
:103D100080E090E070E00E948D208091E8008B7739
:103D20008093E800089580918402813209F085C073
:103D30008091880290918902009719F0029709F00A
:103D40007CC08091E800877F8093E8008091E80044
:103D500082FD05C0809183028111F8CF6EC0209151
:103D6000F3008091F20090E0922B029731F4809161
:103D7000F100813011F0863021F48091F1008093C0
:103D800063028091E8008B7754C080918402813A6D
:103D900009F053C08091880290918902892B09F023
:103DA0004CC08091E800877F8093E8008091E80014
:103DB00080FFFCCF8091120137C080918402813254
:103DC000E1F58091880290918902892BB1F580916B
:103DD000E800877F8093E8000E948121809186021D
:103DE000809312010E949B08089580918402813281
:103DF00021F58091E800877F8093E8000E9481216F
:103E00008091870280936402089580918402813AB0
:103E1000A1F48091E800877F8093E8008091E8001A
:103E200080FFFCCF809164028093F1008091E800D4
:103E30008E778093E8000E948121089584B7877F60
:103E400084BF0FB6F894A895809160008861809334
:103E50006000109260000FBE90E080E80FB6F8940A
:103E600080936100909361000FBE0E94B21C089580
:103E70000E94D3210E943022E2EEF0E08081846033
:103E8000808378940E94BB2408958AE091E00E9488
:103E9000CD1B0895809183028530A9F4809183021F
:103EA000853079F40E940F1D809181028823B1F33F
:103EB0000E94CB1C882391F30E94ED1F0E949B0857
:103EC000EDCF0E943A1D0895A0E2B0E0EAE6FFE1DE
:103ED0000C94072580918302843011F583E0809350
:103EE000E9008091E80082FF1BC08091E80085FF17
:103EF0000AC040E050E060E270E0CE0101960E940E
:103F0000482091E001C090E08091E8008B77809399
:103F1000E800992329F060E2CE0101960E944F1635
:103F2000A096E2E00C9423250E94971F0895292F64
:103F3000332723303105C9F060F42130310581F099
:103F40002230310509F041C08BE590E020EB34E0F0
:103F500040C021323105E1F02232310531F135C066
:103F600082E190E02BE035E034C099278130910563
:103F700049F028F0029749F5E0E8F4E005C0ECEAE2
:103F8000F4E002C0E8E9F4E0849190E09F0121C0F0
:103F900063307105D0F4660F771FFB01E855FE4FC3
:103FA0002081318189E090E014C06330710568F4AC
:103FB000FB01EE0FFF1FEE55FE4F20813181FB010B
:103FC000E156FE4F808190E004C080E090E020E068
:103FD00030E0FA0131832083089580E189BD82E1D8
:103FE00089BD09B400FEFDCF8091D8008F7D8093FC
:103FF000D8008091E00082608093E0008091E00032
:1040000081FDFCCF0895A0E0B0E0E9E0F0E20C947F
:104010000125EC018B017A010E94A021811133C09E
:10402000E114F10439F0F70180819181081B190B2B
:10403000C80FD91FC12CD12C0115110519F1809180
:10404000E80085FD16C08091E8008E778093E80037
:10405000E114F10449F0F70180819181C80ED91E65
:10406000D182C08285E00FC00E94A021882321F365
:104070000AC089918093F10001501109FFEFCF1A16
:10408000DF0ADACF80E0CDB7DEB7E8E00C941D257B
:10409000A0E0B0E0EEE4F0E20C940125EC018B012D
:1040A0007A010E94A021811133C0E114F10439F09A
:1040B000F70180819181081B190BC80FD91FC12CF2
:1040C000D12C0115110519F18091E80085FD16C06C
:1040D0008091E8008B778093E800E114F10449F0C7
:1040E000F70180819181C80ED91ED182C08285E0FE
:1040F0000FC00E94A021882321F30AC08091F10003
:10410000899301501109FFEFCF1ADF0ADACF80E05F
:10411000CDB7DEB7E8E00C941D2520918A023091DE
:104120008B022617370748F06115710539F4209185
:10413000E8002E772093E80001C0B901FC0120E0DF
:104140006115710579F1809183028823F1F1853041
:10415000F1F18091E80083FD3CC08091E80082FD90
:104160002EC08091E80080FFEBCF2091F30080917A
:10417000F20090E0922B6115710551F088309105A5
:1041800038F421912093F100615071090196F3CF29
:1041900021E0089709F020E08091E8008E77809375
:1041A000E800CECF2111CFCF0AC0809183028823AF
:1041B00061F0853061F08091E80083FD0AC0809154
:1041C000E80082FFF2CF80E0089582E0089583E066
:1041D000089581E0089520918A0230918B0226177C
:1041E000370748F06115710539F42091E8002E7702
:1041F0002093E80001C0B901FC0120E061157105C0
:1042000091F180918302882309F440C0853009F43C
:104210003FC08091E80083FD3DC08091E80082FDB1
:104220002FC08091E80080FFE9CF2091F3008091BA
:10423000F20090E0922B6115710559F088309105DC
:1042400040F424912093F100319661507109019658
:10425000F2CF21E0089709F020E08091E8008E7706
:104260008093E800CBCF2111CCCF0AC0809183028C
:10427000882361F0853061F08091E80083FD0AC0F9
:104280008091E80082FFF2CF80E0089582E00895F7
:1042900083E0089581E00895982F973068F5909312
:1042A000E900981739F07091EC002091ED005091E1
:1042B000F00003C0242F762F50E021FD02C09F5F45
:1042C000ECCF3091EB003E7F3093EB003091ED006E
:1042D0003D7F3093ED003091EB0031603093EB0087
:1042E0007093EC002093ED005093F0002091EE00CD
:1042F00027FDE5CF80E008958F708093E90081E08D
:1043000008958091840287FF11C08091E80082FDAA
:1043100005C0809183028111F8CF11C08091E8001F
:104320008B770BC080918302882349F08091E8004D
:1043300080FFF8CF8091E8008E778093E8000895A1
:104340002091E4003091E50095E64091EC00842F47
:10435000817040FF23C08091E80080FD1DC08091E6
:104360008302882399F0853099F08091EB0085FDD8
:1043700011C04091E4005091E5002417350729F35E
:10438000915011F09A01E1CF84E0089582E0089500
:1043900083E0089581E0089580E008954091E80069
:1043A00042FFDDCF08950E9442220E944A22E0EEA1
:1043B000F0E0808181608083E8EDF0E080818F779C
:1043C000808319BCA7EDB0E08C918E7F8C938081A7
:1043D0008F7E80831092820208950F931F93CF9354
:1043E000DF930E9442220E944A22C8EDD0E08881D9
:1043F0008F77888388818068888388818F7D888390
:1044000019BC1092830210927F02109281021092C6
:10441000800200EE10E0F80180818B7F808388812C
:104420008160888342E060E080E00E944C21E1EE00
:10443000F0E080818E7F8083E2EEF0E08081816019
:104440008083808188608083F80180818E7F808373
:10445000888180618883DF91CF911F910F910895AA
:10446000E8EDF0E080818F7E8083E7EDF0E08081F1
:104470008160808384E082BF81E0809382020E9419
:10448000ED210895E8EDF0E080818E7F8083109229
:10449000E20008951092DA001092E10008951F9250
:1044A0000F920FB60F9211242F933F934F935F9368
:1044B0006F937F938F939F93AF93BF93EF93FF93EC
:1044C0008091E10082FF0BC08091E20082FF07C073
:1044D0008091E1008B7F8093E1000E94BA2480915B
:1044E000DA0080FF1FC08091D80080FF1BC0809140
:1044F000DA008E7F8093DA008091D90080FF0DC0B2
:1045000080E189BD82E189BD09B400FEFDCF81E073
:10451000809383020E94161E05C019BC109283026C
:104520000E94241E8091E10080FF19C08091E2006A
:1045300080FF15C08091E2008E7F8093E200809121
:10454000E20080618093E2008091D80080628093D5
:10455000D80019BC85E0809383020E942A1E8091B6
:10456000E10084FF30C08091E20084FF2CC080E134
:1045700089BD82E189BD09B400FEFDCF8091D800DC
:104580008F7D8093D8008091E1008F7E8093E10041
:104590008091E2008F7E8093E2008091E200816052
:1045A0008093E20080917F02882311F084E007C0AD
:1045B0008091E30087FD02C081E001C083E0809329
:1045C00083020E94331E8091E10083FF29C0809105
:1045D000E20083FF25C08091E100877F8093E100A6
:1045E00082E08093830210927F028091E1008E7FAF
:1045F0008093E1008091E2008E7F8093E2008091C1
:10460000E20080618093E20042E060E080E00E948E
:104610004C218091F00088608093F0000E94271E5A
:10462000FF91EF91BF91AF919F918F917F916F918A
:104630005F914F913F912F910F900FBE0F901F9060
:1046400018951F920F920FB60F9211242F933F933C
:104650004F935F936F937F938F939F93AF93BF938A
:10466000CF93DF93EF93FF93C091E900CF708091D8
:10467000EC00D82FD17080FDD0E81092E900809135
:10468000F000877F8093F00078940E946523109259
:10469000E9008091F00088608093F000CD2BCF700E
:1046A000C093E900FF91EF91DF91CF91BF91AF915E
:1046B0009F918F917F916F915F914F913F912F913A
:1046C0000F900FBE0F901F901895AAE2B0E0EBE696
:1046D000F3E20C940625E4E8F2E08091F100819386
:1046E00022E0EC38F207C9F70E945D1E8091E800D5
:1046F00083FF2EC18091840290918502492F50E062
:104700004A30510508F024C1FA01E256FF4F0C94DB
:10471000EA24803821F0823809F01AC108C080915B
:10472000800290918102992389F082600FC080916C
:1047300088028F70873008F00BC18093E900809168
:10474000EB0085FB882780F91092E9009091E80042
:10475000977F9093E8008093F1001092F100D1C010
:10476000282F2D7F09F0F4C0882319F0823061F0E2
:10477000EFC080918602813009F0EAC0933009F0E1
:1047800080E0809381022EC08091860281112AC030
:10479000809188028F702FEF280F263008F0D8C044
:1047A0008093E9002091EB0020FF1CC0933021F49E
:1047B0008091EB00806214C09091EB009061909327
:1047C000EB0021E030E0A90102C0440F551F8A959B
:1047D000E2F74093EA001092EA008091EB008860D3
:1047E0008093EB001092E9008091E800877F80932E
:1047F000E8000E948121ACC08111AAC010918602FC
:104800001F778091E3008078812B8093E300809173
:10481000E800877F8093E8000E9481218091E80072
:1048200080FFFCCF8091E30080688093E30011114A
:1048300002C082E001C083E08093830289C0805877
:10484000823008F085C080918602909187028C3D6D
:1048500053E0950779F583E08A838AE289834FB72D
:10486000F894DE01139620E03EE051E2E32FF0E001
:1048700050935700E49120FF03C0E295EF703F5F33
:10488000EF708E2F90E0EA3010F0C79601C0C0960E
:104890008D939D932F5F243149F74FBF8091E8009E
:1048A000877F8093E8006AE270E0CE0101960E9463
:1048B0008D2016C06091880270918902AE014F5F11
:1048C0005F4F0E94941FBC01892B09F441C0909155
:1048D000E800977F9093E80089819A810E94EB20FD
:1048E0008091E8008B778093E80032C0803881F5B2
:1048F0008091E800877F8093E80080917F02809319
:10490000F1008091E8008E7772CF811121C08091F3
:1049100086029091870299270297D4F48091E8004B
:10492000877F8093E8008091860280937F020E94B7
:10493000812180917F02811106C08091E30087FD73
:1049400002C081E001C084E0809383020E943E1E89
:104950008091E80083FF0AC08091E800877F809300
:10496000E8008091EB0080628093EB00AA96E3E080
:104970000C9422250895CF93809183028823A1F07F
:10498000C091E900CF709091EC00892F817090FD6B
:1049900080E8C82B1092E9008091E80083FD0E9416
:1049A0006523CF70C093E900CF91089597FB072E40
:1049B00016F4009407D077FD09D00E942E2507FC3D
:1049C00005D03EF4909581959F4F0895709561951F
:1049D0007F4F0895EE0FFF1F0590F491E02D09948D
:1049E00069279627692778278727782708952F92A0
:1049F0003F924F925F926F927F928F929F92AF926F
:104A0000BF92CF92DF92EF92FF920F931F93CF93BB
:104A1000DF93CDB7DEB7CA1BDB0B0FB6F894DEBF52
:104A20000FBECDBF09942A88398848885F846E8478
:104A30007D848C849B84AA84B984C884DF80EE80C2
:104A4000FD800C811B81AA81B981CE0FD11D0FB6CB
:104A5000F894DEBF0FBECDBFED010895AA1BBB1BAE
:104A600051E107C0AA1FBB1FA617B70710F0A61B6E
:104A7000B70B881F991F5A95A9F780959095BC018F
:104A8000CD010895FB01DC0104C08D9101908019D6
:104A900021F441505040C8F7881B990B0895FB0141
:104AA000DC0102C001900D9241505040D8F70895AA
:104AB000F999FECF92BD81BDF89A992780B50895E6
:104AC000A8E1B0E042E050E00C948C25262FF99943
:104AD000FECF92BD81BDF89A019700B4021639F05D
:104AE0001FBA20BD0FB6F894FA9AF99A0FBE08952E
:104AF0000396272F0E9467250E946625252F0E9476
:104B00006725242F0C9467250196272F0E9467257F
:104B10000C946625DC01CB01FC01F999FECF06C09F
:104B2000F2BDE1BDF89A319600B40D92415050406B
:084B3000B8F70895F894FFCFD7
:104B38001802280850011E0A1401C41DF91DF21D8F
:104B4800EB1D01E200E900EA00B500B600B700CDB0
:104B5800008301CC008A01920194012102230224DE
:104B6800022502260227022A02B300B4006F007051
:104B7800009F01CB01818283E200E900EA00B500D1
:104B8800B600B700CD008301CC008A0192019401E0
:104B98002102230224022502260227022A02B30048
:104BA800B4006F0070009F01CB01818283F0906791
:104BB8006636353491F1C6F431F532F633F73700FD
:104BC800FF0100010000FFFF0000010001FF00409D
:0E4BD800227BBA051D053F05C204DB04FB0469
:00000001FF
