:100000000C94B6030C94EE030C94EE030C94EE03E4
:100010000C94EE030C94EE030C94EE030C94EE039C
:100020000C94EE030C94EE030C949E2C0C94702D07
:100030000C94C7260C94EE030C94EE030C94EE0380
:100040000C94EE030C94EE030C94EE030C94EE036C
:100050000C94EE030C9450270C94EE030C94EE03D6
:100060000C94EE030C94EE030C94EE030C94EE034C
:100070000C94EE030C94EE030C94EE030C94EE033C
:100080000C94EE030C94EE030C94EE030C94EE032C
:100090000C94EE030C94EE030C94EE030C94EE031C
:1000A0000C94EE030C94EE030C94EE03F306F306AB
:1000B0001F071F078707A5078C088C08B0071808BB
:1000C00029082908AC1EAF1ECF1EE01EE81EF31E35
:1000D000F61EF91EFC1E421F421FFF1E021F071FB5
:1000E000141F211F241F281F351F2A2220222D22E2
:1000F0007D22812281227D22812281224E22812223
:100100005822622281228122812281227D22812223
:1001100081227D2281223B2281228122722272222F
:1001200072227222722272227222722272227F2222
:1001300081222A221D228122812281228122812262
:10014000812281228122812281227F228122812299
:100150007D228122702270227022702270227022F1
:100160007022702270227F22D82DFF2DF72EFF2DB6
:10017000F72E4B2E6E2EF72EC52ED42E165C1400A5
:100180001A000800150017001C0018000C001200CF
:1001900013002A002B0004001600070009000A00C3
:1001A0000B000D000E000F0033002800E1001D00C1
:1001B0001B00060019000500110010003600370072
:1001C00052000151E0000151E30000000000000076
:1001D00000002C000000500051004F00165C14007D
:1001E0001A000800150017001C0018000C0012006F
:1001F00013002A002B0004001600070009000A0063
:100200000B000D000E000F0033002800E1001D0060
:100210001B00060019000500110010003600370011
:1002200052000151E0000151E30000000000000015
:1002300000002C000000500051004F00165C14001C
:100240001A000800150017001C0018000C0012000E
:1002500013002A002B0004001600070009000A0002
:100260000B000D000E000F0033002800E1001D0000
:100270001B000600190005001100100036003700B1
:1002800052000151E0000151E300000000000000B5
:1002900000002C000000500051004F00165C1400BC
:1002A0001A000800150017001C0018000C001200AE
:1002B00013002A002B0004001600070009000A00A2
:1002C0000B000D000E000F0033002800E1001D00A0
:1002D0001B00060019000500110010003600370051
:1002E00052000151E0000151E30000000000000055
:1002F00000002C000000500051004F0000047F3F20
:100300001F643214643214783C1E1E140A05222322
:10031000252628292A2C2D2F3032333536383A3BE2
:100320003D3E4042434547494A4C4E505153555734
:10033000595A5C5E6062646668696B6D6F71737553
:1003400077797B7D7F81838587898A8C8E90929453
:1003500096989A9C9E9FA1A3A5A7A8AAACAEAFB160
:10036000B3B4B6B8B9BBBCBEBFC1C2C3C5C6C7C9AA
:10037000CACBCCCDCED0D1D2D2D3D4D5D6D7D7D864
:10038000D9D9DADADBDBDBDCDCDCDCDCDDDDDDDDB6
:10039000DCDCDCDCDCDBDBDBDADAD9D9D8D7D7D6BE
:1003A000D5D4D3D2D2D1D0CECDCCCBCAC9C7C6C575
:1003B000C3C2C1BFBEBCBBB9B8B6B4B3B1AFAEACBB
:1003C000AAA8A7A5A3A19F9E9C9A98969492908E66
:1003D0008C8A89878583817F7D7B79777573716F3F
:1003E0006D6B6968666462605E5C5A59575553511B
:1003F000504E4C4A4947454342403E3D3B3A3836D1
:10040000353332302F2D2C2A292826252322FFAAE6
:100410007F554000010101010101010101020202B9
:1004200002020202020203030303030303030404A0
:10043000040404040405050505050606060606076A
:100440000707070708080808090909090A0A0A0B23
:100450000B0B0C0C0C0D0D0D0E0E0E0F0F0F1010C4
:10046000111111121213131414151516161717184B
:100470001819191A1A1B1B1C1D1D1E1E1F202021B6
:100480002222232424252626272829292A2B2C2DFD
:100490002D2E2F30313232333435363738393A3B1E
:1004A0003C3D3E3F404142434445464748494A4C13
:1004B0004D4E4F50515354555658595A5B5D5E5FDF
:1004C000616264656668696B6C6D6F707273757775
:1004D000787A7B7D7E8082838587888A8C8E8F91D7
:1004E000939596989A9C9EA0A2A3A5A7A9ABADAF01
:1004F000B1B3B5B7BABCBEC0C2C4C6C9CBCDCFD1EB
:10050000D4D6D8DBDDDFE2E4E7E9EBEEF0F3F5F893
:10051000FAFDFF00000000000000002A2B28000068
:1005200000000000000000000000000000002900A2
:100530000000002C1E3420212224342627252E36AC
:100540002D3738271E1F202122232425263333361A
:100550002E37381F0405060708090A0B0C0D0E0F6D
:10056000101112131415161718191A1B1C1D2F31F0
:1005700030232D350405060708090A0B0C0D0E0F54
:10058000101112131415161718191A1B1C1D2F31D0
:1005900030354C00000000000000000000000000AA
:1005A000000000000000000000000000000000004B
:1005B000000000000000007E0F00D4FFFFFFC70016
:1005C0000000780E034A0065007400560061006E5A
:1005D0000000000E036500760061006E0067007386
:1005E0000000000403090409025B00030100A0FAF3
:1005F0000904000001030101000921110100012289
:1006000040000705810308000109040100020300FE
:1006100000000921110100012222000705820320A8
:100620000001070503032000010904020001030083
:10063000000009211101000122B6000705840320F2
:1006400000011201000200000008AEFE58880100FF
:10065000010200010660FF0961A10109621500267F
:10066000FF009520750881020963150026FF00959B
:100670002075089102C005010902A1018502090146
:10068000A100050919012908150025019508750122
:1006900081020501093009311581257F9502750810
:1006A000810609381581257F950175088106050C9D
:1006B0000A38021581257F950175088106C0C0059D
:1006C000010980A101850319012AB700150126B788
:1006D00000950175108100C0050C0901A101850478
:1006E00019012AA002150126A002950175108100AA
:1006F000C005010906A1018506050719E029E715CE
:100700000025019508750181020507190029EF15DB
:1007100000250195F075018102050819012905954B
:100720000575019102950175039101C00501090646
:10073000A101050719E029E71500250195087501B4
:1007400081029501750881010507190029FF15002F
:1007500026FF0095067508810005081901290595F1
:100760000575019102950175039101C011241FBE09
:10077000CFEFDAE0DEBFCDBF04B603FE18C0809134
:10078000120390911303A0911403B09115038730C5
:10079000904BA740B04B59F41092120310921303E0
:1007A0001092140310921503E0E0F8E3099511E0AC
:1007B000A0E0B1E0E6EDF0E602C005900D92A03DAC
:1007C000B107D9F723E0A0EDB1E001C01D92A2313D
:1007D000B207E1F70E94A0130C9469300C9400005A
:1007E00084E0089581E0089581E008950E94F40373
:1007F000089508950E94F9030895A5E0B0E0E3E0AC
:10080000F4E00C94CA2F49835A833091D70189812F
:100810009A81311114C0662359F0222349F00E94B5
:100820004A0A182F682F89819A810E94260A03C0DC
:100830000E94380A182F69817A81812F04C00E9492
:100840004A0A69817A810E94A3232596E3E00C94E9
:10085000E62FFC01262F40815181628173818481C2
:100860000E94FD03089581E00895CF93DF93EC018A
:1008700060E00E942904BE010E94FA03DF91CF913B
:100880000895E1E0F0E0DF0102C0AA0FBB1F6A9506
:10089000E2F7BD01DF0102C0AA0FBB1F4A95E2F7D4
:1008A000AD01462B01C0EE0F2A95EAF7942F98234D
:1008B000491302C08E2B0895E0958E230895242FAE
:1008C000462F682F8091EA010E9441040E94850909
:1008D00008950E94641208950E945E12089508957A
:1008E0000E940F090E946F042FEF84E39CE02150C7
:1008F00080409040E1F700C0000008950E9470041D
:100900000E94762708950E9470040E949A270895F5
:100910000F931F93CF93DF938C0161E00E94290412
:10092000EC01B8010E94F61D882309F44EC0B801FD
:10093000CE010E94F603882309F447C0B801CE0116
:100940000E94F024882309F440C0B801CE010E941F
:100950004D1F8823D1F1B801CE010E94562488236F
:10096000A1F1B801CE010E94911C882371F1F80118
:100970008281882331F1CA358DE5D807E9F050F43A
:10098000C115FCE5DF0779F0CE3DDC45D1F40E94CE
:100990003F0F0CC0CC35EDE5DE0759F080F0C73ACB
:1009A000DD4521F00EC00E947E040FC00E9483042A
:1009B0000CC00E94760E05C00E94800E02C00E94EC
:1009C000840EC8010E94F20301C080E0DF91CF9144
:1009D0001F910F9108950E949F260E940805089577
:1009E0000E940C050E94A826089508950E94F5040F
:1009F000089581E008950E94F90408950895CF9321
:100A0000C82F0E94F6048C2F0E94FB04CF910895FA
:100A100080E00E94FF0408950E944C250E94FF047C
:100A20000895CF930E944C25C82F8091D201C817FA
:100A300079F0C093D2010E9435276093D30170935F
:100A4000D4018093D5019093D6018C2F0E94FF048E
:100A5000CF910895ABE0B0E0E0E3F5E00C94CB2F4C
:100A60004F83588769877A878B8761110E94BE0DF3
:100A70009E012F5F3F4F86E0F90111928A95E9F7B9
:100A800085E0FE013796D90101900D928A95E1F734
:100A900089819A814C815D81452B31F09F3F31F4F2
:100AA00091E08F3F19F403C091E001C090E090FF06
:100AB00009C049815A816B817C818D819E810E9410
:100AC000EA0C05C0C9010E9433048111F2CF2B96B4
:100AD000E2E00C94E72FFC01808191810E94770A6B
:100AE0000895CF93882309F4A8C0C82F8238C1F491
:100AF0000E944C2581FDA1C069E380910001909185
:100B000001010E9443260E94E20D2FEF87EE93E041
:100B1000215080409040E1F700C0000069E319C017
:100B2000833801F50E944C2580FD87C063E58091E4
:100B30000001909101010E9443260E94E20D2FEFD7
:100B400081EE94E0215080409040E1F700C0000029
:100B500063E580910001909101010E9451260E945D
:100B6000E20D6BC08438C1F40E944C2582FD65C043
:100B700067E480910001909101010E9443260E9448
:100B8000E20D2FEF81EE94E0215080409040E1F79C
:100B900000C0000067E4DDCF8CEF8C0F813AF8F4E1
:100BA0008C2F0E948822811148C06C2F80910001F7
:100BB000909101010E94C325882349F06C2F8091F8
:100BC0000001909101010E9451260E94E20D6C2FBC
:100BD00080910001909101010E944326C0CF80E2E4
:100BE0008C0F883048F4C77081E001C0880FCA9527
:100BF000EAF70E94A10DB3CFEBE5EC0FE33040F430
:100C0000F0E0E85AFE4F808190E00E94812515C0F7
:100C1000E8E5EC0FE73150F4F0E0EE0FFF1FE65D82
:100C2000FE4F808191810E94972507C0C03F28F028
:100C30008C2F0E9425140E94F714CF9108958823C9
:100C400009F467C0823879F40E944C2581FF61C0A5
:100C500069E380910001909101010E9443260E9466
:100C6000E20D69E310C08338B9F40E944C2580FF7F
:100C700050C063E580910001909101010E944326DC
:100C80000E94E20D63E580910001909101010E94B4
:100C900051260E94E20D0895843879F40E944C2573
:100CA00082FF37C067E480910001909101010E94AA
:100CB00043260E94E20D67E4E6CF9CEF980F913A3D
:100CC00010F4682FE0CF90E2980F983050F48770BE
:100CD00091E001C0990F8A95EAF7892F0E94A70D2C
:100CE000D8CF9BE5980F933028F480E090E00E94E5
:100CF0008125089598E5980F973128F480E090E0D9
:100D00000E9497250895803F20F00E9480140E9441
:100D1000F71408951F93CF93DF93182FEB010E94D0
:100D20007105209741F08FE99FE00197F1F700C02E
:100D300000002197F6CF812F0E941F06DF91CF91EF
:100D40001F910895893319F060E070E002C060E5FA
:100D500070E00E948A060895882321F00E94A10D68
:100D60000E94E20D0895882321F00E94A70D0E94A1
:100D7000E20D0895A0E0B0E0E0ECF6E00C94C52FA1
:100D80007C01162FC72FFC01D281058102950F70BF
:100D90000E94970D8823B9F0DD23A9F08C2F807F66
:100DA000803421F080E2810F883068F08091CD029C
:100DB00082FF09C082E00E94440E0E94970D91E0DC
:100DC000D82ED92601C0D12CCC2EC2948FE0C822B7
:100DD0008C2D90E08C30910508F09EC1FC01EA5A00
:100DE000FF4F0C947D2F8C2F807FCF70882311F0C4
:100DF000C295C07FDD2399F0CC2309F479C180E24C
:100E0000810F883010F0111104C08C2F0E94A10DA9
:100E100003C08C2F0E94B10D0E94E20D69C1812F89
:100E20000E941F06CC2309F477C180E2810F88302D
:100E300038F1112329F18C2F0E94B70D24C08C2F7B
:100E4000807FCF70803211F0C295C07F112319F0DE
:100E50001130A1F13DC08091CD0282FD17C0DD238C
:100E600049F0CC2329F08C2F0E94A10D0E94E20DA5
:100E700080E03FC180E00E941F06CC2309F44CC1F2
:100E80008C2F0E94A70D0E94E20D46C1DD2371F058
:100E9000002341F0013031F40E94C10D8C2B0E94DF
:100EA000CB0D3AC10E94C10D8C2B1DC0002319F03F
:100EB000013009F431C10E94D80D25C0DD2321F095
:100EC000063008F029C10EC0053008F025C11BC04E
:100ED000DD2361F0002331F0F701858180FF08C137
:100EE0008F7085838C2F0E94AC0616C1002359F0A9
:100EF000193309F00EC1FFEF27EE83E0F1502040D7
:100F00008040E1F704C18C2F0E94B30605C18C2FED
:100F100086958695837019F0813061F0FDC0DD23E0
:100F200021F0812F9C2F937002C080E090E00E94FE
:100F30008125FAC0DD2321F0812F9C2F937002C000
:100F400080E090E00E949725EFC0812FDD2319F00B
:100F50000E94251402C00E9480140E94F714E4C06D
:100F60008C2F837079F5D111DBC0412F42954695C6
:100F70004770440F440F212F2F70042E01C0220F01
:100F80000A94EAF714FF08C08FE090E001C0880FD0
:100F90004A95EAF7809501C080E0C695C695C37072
:100FA000822BC23049F058F4C13019F00E94760902
:100FB000B7C00E947009B4C00E947C09B1C00E94F1
:100FC0006D09AEC0DD2319F08C2F817001C08695AC
:100FD000882309F4A5C0412F429546954770440FD8
:100FE000440F212F2F70042E01C0220F0A94EAF71C
:100FF00014FF08C08FE090E001C0880F4A95EAF71F
:10100000809501C080E0C695C695C370822BC23022
:1010100049F058F4C13019F00E94C40981C00E94FF
:10102000BE097EC00E94CA097BC00E94850978C0A3
:10103000CF70DD2339F08C2F0E949909812F0E94F7
:10104000AC066EC0812F0E94B3068C2F0E94A509AA
:1010500067C0123F21F128F4103F41F0113FC1F069
:1010600043C0133F19F1143F79F03EC0DD2341F036
:10107000053008F051C08C2F8F710E94B2094CC00E
:10108000063008F049C0F7CF8091CD0282FD18C02C
:10109000DD2339F08C2F8F710E9499093DC0DD232B
:1010A000C9F38C2F8F710E94A50936C0DD2329F06A
:1010B0008C2F8F710E9490092FC00E948C092CC028
:1010C000DD2349F0CF718C2F0E94990963E08C2FAA
:1010D0000E94260E21C081E00E94440E0230E0F002
:1010E00082E00E94440E18C0DD2331F0002391F20B
:1010F000812F0E94710510C0002399F2193349F421
:101100009FEFE7EEF3E09150E040F040E1F700C0E0
:101110000000812F0E941F0688EF8C0D843020F480
:101120000E944C250E94FF04DD2089F00E94930D4F
:1011300080FD0DC0F70112820E948D0D0E94990959
:10114000C7010E94C4080E948D0D0E94A509CDB759
:10115000DEB7E8E00C94E12F0F931F93CF93DF935A
:10116000EC01688179818A810E94820A8C010E9447
:10117000D0090E945E09B801CE010E94BA06DF9133
:10118000CF911F910F910895CF93DF93EC01988138
:1011900089812B813C81232B31F08F3F31F481E019
:1011A0009F3F19F403C081E001C080E080FD1AC0B8
:1011B000CE010E94880481110FC00E94970D8823E0
:1011C00089F08A81882371F08091CD0282FF0AC064
:1011D00082E00E94440E06C0CE010E94AC08CE01FF
:1011E0000E943504DF91CF91089580E090E00E9445
:1011F000812580E090E00E9497250E94BE0D0E940C
:10120000E20D0E9416150E94F714089580910001C6
:10121000909101010E945F260E94F50808950E94A6
:10122000AE0D0E940609089592959F70963079F050
:1012300010F4925001C09A50923068F4803F69F0E7
:1012400018F4883E40F409C0843F29F406C0883E63
:1012500020F0813F11F080E0089581E00895FC01C5
:101260009081818123813481232B31F08F3F31F4B0
:1012700081E09F3F19F403C081E001C080E080FD60
:1012800007C0808191810E94770A0E941409089505
:1012900080E00895A5E0B0E0E0E5F9E00C94CB2F04
:1012A0002596E2E00C94E72FA6E0B0E0EAE5F9E04D
:1012B0000C94CB2F2696E2E00C94E72F0895089526
:1012C0000E945F0908950E94600908950E946309C1
:1012D0008093EB010E94F50808950E946609089525
:1012E0009091EB01892B0E94660908959091EB0182
:1012F00089230E94660908959091EB0189270E9435
:10130000660908950E945F0908950E9482098093EA
:10131000EA010E94F508089580E00E948509089579
:1013200091E001C0990F8A95EAF7892F0E948509FB
:10133000089521E030E001C0220F8A95EAF78091FC
:10134000EA01822B0E948509089521E030E001C066
:10135000220F8A95EAF720958091EA0182230E9464
:101360008509089521E030E001C0220F8A95EAF74F
:101370008091EA0182270E94850908959091EA01EF
:10138000892B0E94850908959091EA0189230E9482
:10139000850908959091EA0189270E948509089599
:1013A0000895962F9770A1E001C0AA0F9A95EAF7C9
:1013B00093E0769567959A95E1F7FB01EE0FFF1F95
:1013C0006E0F7F1FFA01E60FF71F40E050E0682F15
:1013D00070E090819B01042E02C0369527950A94F7
:1013E000E2F72170219529272A23292721934F5F8E
:1013F0005F4F4330510569F708959B01782F77704F
:1014000043E0969587954A95E1F7FC01EE0FFF1FA3
:101410008E0F9F1FF901E80FF91F40E050E080E0B8
:10142000219130E0072E02C0369527950A94E2F705
:1014300021703327042E01C0220F0A94EAF7822B71
:101440004F5F5F4F4330510559F70895282F94306F
:1014500070F48C3060F4862F622F70E02CE0929F45
:10146000600D711D112448ED51E00E94D1090895CD
:10147000943070F48C3060F4292F90E068ED71E0C6
:101480003CE0239F800D911D11240E94FD090895C9
:1014900080E00895CF92DF92FF920F931F93CF9336
:1014A000DF936C010091EA018091EB01082BC7E00A
:1014B000D0E010E0C8010C2E02C0959587950A94E3
:1014C000E2F780FD04C02197A8F7F12C07C0FC2E9D
:1014D000B6018C2F0E942C110197A9F38F2DDF915B
:1014E000CF911F910F91FF90DF90CF900895CF93F0
:1014F000DF93EC010E944A0ABE010E942C11DF9189
:10150000CF9108951F93CF93DF93EB019091D70173
:10151000992321F0CB010E94770A13C0882349F058
:10152000CB010E944A0A182F682FCE010E94260A7A
:1015300004C0CB010E94380A182FBE01812F0E94DF
:101540002C11DF91CF911F9108951F93CF93DF93BB
:10155000C091EC0116E08091ED01C81799F0D0E040
:101560001C9FF0011D9FF00D1124E251FE4F4081A0
:10157000518162817381848195810E9454092196F1
:10158000C770E9CFDF91CF911F91089540911E025E
:1015900050911F02609120027091210280912202DD
:1015A000909123020E94540908950F931F93CF93A3
:1015B000DF938091230282958F7009F05AC0809149
:1015C0002002882309F455C08091EC011091ED01AF
:1015D00060911E0270911F02C0912102D0912202DF
:1015E00091E06F3F09F090E0292F06E0811709F4A0
:1015F00040C0209721F07F3F21F030E003C031E070
:1016000001C0322F90E030FD31C0089FF001099FEA
:10161000F00D1124DF01A251BE4F11963C9111979C
:10162000371324C03C91361321C012963C91129777
:1016300031111CC013964D915C9114974C1B5D0B9E
:10164000483C510598F4809123028F70806180930B
:101650002302ED50FE4F80818F70806180838EE188
:1016600092E00E94C4080E94A50A03C001968770F8
:10167000BDCFDF91CF911F910F910895A1E1B0E00F
:10168000E4E4FBE00C94C22F8C0185E0F801DE015C
:101690001D9601900D928A95E1F7F801E2809091F4
:1016A0001E0260911F022091210230912202211519
:1016B000310531F06F3F31F481E09F3F19F403C0F1
:1016C00081E001C080E0F82FF1709F2E80FD40C1C5
:1016D000F80140815181A380B4808EE1C82E82E060
:1016E000D82EF0902002F501E21BF30BFF2009F445
:1016F000DAC080912302E83CF10508F096C0282F5B
:10170000207F09F053C0561313C0491311C0FE2C9B
:10171000E1100EC08F708061809323020E94C60A80
:10172000C6010E94C40880912302F80185834DC13F
:10173000A114B10431F05F3F31F481E04F3F19F45F
:1017400003C081E001C080E080FD03C081E08E2500
:1017500002C080E090E0F82FF170FF2E80FF1CC0E7
:101760008091EC012091ED0136E0821709F40BC164
:1017700090E0389FF001399FF00D1124E251FE4FA7
:101780006181561306C06081461303C06281E61270
:1017900003C001968770E9CFFE2CEE2009F415C135
:1017A0008091230281608093230254C0561306C0A7
:1017B000491304C0E11002C0F80199C0C8010E9499
:1017C0002F09882361F1EE2051F120912302822F0D
:1017D00082958F7090E0029774F080911E02909134
:1017E0001F0298878F831986BB86AA862C87CE0115
:1017F00007960E94C40886E0F801AEE1B2E00190CD
:101800000D928A95E1F70E94D50A0E94C60A0AC085
:10181000561711F1C8010E942F0981112CC0C8016F
:101820000E94C408FF24F394D0C0282F207F81F7A2
:101830007A2DB98AA88A6E2D89890E944A098EE17B
:1018400092E00E94C40886E0F60111928A95E9F7B9
:101850000E94C60AF12CB9C04913DCCFE110DACFDF
:10186000F8018583C8010E94C40886E0F601119240
:101870008A95E9F7AAC0EE2091F220912302822FE7
:1018800082958F7090E002970CF4B5CF80911E0284
:1018900090911F029A8389831B82BD82AC822E8322
:1018A000CE010196A6CFE83CF10508F044C0FE2C1D
:1018B000EE2009F4B4CF561330C049132EC0209146
:1018C000230220FD21C0822F82958F70482F50E087
:1018D00041155105C9F0F80125834F30510541F0FC
:1018E0008F5F982F9295907F822F8F70892B8583A1
:1018F000C8010E94C40886E0F801AEE1B2E00190A0
:101900000D928A95E1F73CC086E0F801AEE1B2E0C5
:1019100001900D928A95E1F758C0C8010E942F09E5
:10192000811169CF80912302816080932302C801D5
:101930000E94C4084AC07A2DB98AA88A6E2D898966
:101940000E944A0986E0F60111928A95E9F718C0CB
:10195000EE2009F464CFC8010E942F09F82E8823D5
:1019600009F45DCF86E0F801AEE1B2E001900D929E
:101970008A95E1F78EE192E00E946B050E94D50AFC
:101980000E94C60A22C04D875E878D859E850E9473
:10199000770A292F22952F70223028F49F7039F072
:1019A000811105C00BC0243028F49F7049F4805E7B
:1019B000883020F0C8010E94C4089F2CF92C05C073
:1019C000F8019581907F99F7F9CF8F2D6196EBE023
:1019D0000C94DE2FACE0B0E0E0EFFCE00C94CA2FFA
:1019E0004F83588769877A878B879C87CE010796B4
:1019F0000E943E0B8823D1F09F8188852A853B85F4
:101A0000232B31F08F3F31F481E09F3F19F403C065
:101A100081E001C080E080FD47C04F815885698525
:101A20007A858B859C850E9454093EC086E0FE0124
:101A30003796DE01119601900D928A95E1F7FF81AC
:101A4000E8856A857B856115710531F0EF3F31F4DA
:101A500081E0FF3F19F403C081E001C080E080FD18
:101A600023C02091ED0130E0C901019687709927CC
:101A70004091EC0150E084179507F1F1F983EA8376
:101A80007D836C8396E0929FD001939FB00D1124CB
:101A9000A251BE4FFE01319601900D929A95E1F749
:101AA0008093ED010E94A50A16E08091EC019091CF
:101AB000ED01891771F1189FC001112482519E4FC9
:101AC0000E943E0B882329F1E091EC011E9FF0015A
:101AD0001124E251FE4F40815181628173818481E2
:101AE00095810E9454098091EC0190E001968770E5
:101AF00099278093EC01D9CF0E940F091092ED0134
:101B00001092EC01EEE1F2E086E0DF011D928A9591
:101B1000E9F72C96E3E00C94E62F8091440285953A
:101B200085958595089580914402877008959091D8
:101B30004402977081E009F480E008958091670283
:101B4000089590916702892B80936702089580958C
:101B5000909167028923809367020895109267022B
:101B6000089590916602892B80936602089580956E
:101B7000909166028923809366020895109266020E
:101B8000089580914502089508950E94C40D089516
:101B90000E94C50D08959091CD0292FF08C09091CA
:101BA0004502981721F0809345020E94C80D0895C0
:101BB00080914502882329F01092450280E00E941E
:101BC000C80D0895CF93DF93E0910001F0910101DA
:101BD000809167028083E0910001F0910101908182
:101BE00080916602892B808380914502882381F051
:101BF000E0910001F09101019081892B8083809117
:101C00000001909101010E94AD2581110E94D80D23
:101C1000C0910001D091010140E250E064E272E025
:101C2000CE010E940B30892B59F080E2FE01A4E224
:101C3000B2E001900D928A95E1F7CE010E945925FC
:101C4000DF91CF9108950E94C40D08959091CD0227
:101C500092FF11C098E0899F90011124262B2093B8
:101C600044020E9499098091440285958595859545
:101C70000E94230E08950E9499090895109244022B
:101C800080E00E94230E08952091440280958223D3
:101C900080934402982F977099F430E0482F082ED3
:101CA000000C550B2417350759F09091CD0292FF87
:101CB00007C08595859585950E94A5090E943E0ED1
:101CC00008959091CD0292FB222720F9281769F000
:101CD00080FB92F99093CD028091CC029091CD023D
:101CE0000E94B60E82E00E94440E08958091CD02BB
:101CF00082FB882780F991E089270E94610E089570
:101D000081E00E94610E089580E00E94610E0895B6
:101D10006FEF7FEF80E090E00E945330089580E005
:101D200090E00E942F30883E9E4F19F40E948B1D38
:101D3000089580E0089582E090E00E9421300895A7
:101D400083E090E00E9421300895CF9384E090E0FA
:101D50000E942130C82F82E290E00E9421302C2F77
:101D600030E0A901582BCA01CF910895CF93C92F14
:101D7000682F84E090E00E9435306C2F82E290E082
:101D80000E943530CF910895AB01BC018FE090E007
:101D90000E9447300895AB01BC0183E190E00E94AE
:101DA0004730089560E070E0CB010E94CB0E0895AB
:101DB00060E070E0CB010E94C40E0E94D20E089534
:101DC00068EE7EEF80E090E00E94533060E082E0B9
:101DD00090E00E94353060E083E090E00E94353072
:101DE0001092EB0160E084E090E00E94353064E006
:101DF00082E290E00E94353060E085E090E00E9451
:101E0000353060E086E090E00E9435306FEF87E08B
:101E100090E00E94353040E050E0BA0188E090E068
:101E20000E94473060E08DE090E00E94353040E055
:101E300050E0BA0188E190E00E94473060E087E11D
:101E400090E00E94353040E050E0BA018CE190E033
:101E50000E94473060E070E080E290E00E945330E2
:101E600040E050E0BA0188E190E00E94473080E015
:101E70000E94A41D0E94D91D0E94D80E08950E94A0
:101E8000E00E0895682F8EE090E00E9435300895AE
:101E90000E943527609376027093770280937802D0
:101EA000909379026093720270937302809374022C
:101EB00090937502089581E008950E945B0F089544
:101EC00008950E94600F08950E94600F08950E9477
:101ED000640F08950E94600F08950E946A0F08958C
:101EE0000E94600F089580E192E10E9442250E94C5
:101EF000700F0E946D0F08950E94610F0E94600F85
:101F000008950E942C120E94FE0408950E9420272A
:101F10000E94E91D0E9405130E94810F0E94AA1BC6
:101F20000E94670F0895AAE0B0E0E9E9FFE00C9491
:101F3000C02F0E941B132AE6E22E22E0F22E570148
:101F4000D12CF501019111915F018D2D0E94471255
:101F500080279127D394F4E0DF1619F0892B89F3B9
:101F600022C0892B01F50E9429278C0180916802EB
:101F7000909169020817190709F45BC08FEF8983F4
:101F80008A831B820E9429278160782F9D838C83FE
:101F900049815A816B818D810E942A0510936902C3
:101FA0000093680246C080917A0281FD0E9450121F
:101FB0000E945D0F782E10E0812F0E9447124C0185
:101FC000F701A080B180A826B926A114B10449F177
:101FD00000E0CC24C394D12CC5018C219D21892BF8
:101FE000C1F07720B1F00E831F8321E0C4018C2162
:101FF0009D21892B09F420E028870E9429278160F0
:10200000782F9A8789874E815F8168858A850E94AB
:102010002A050F5FCC0CDD1C0C30F1F6F701918224
:1020200080821F5FF2E0EF0EF11C143029F60E944F
:10203000480F0E94E61B0E9438150E9411052A963F
:10204000EDE00C94DC2FCF93DF930E943111EC0173
:10205000811521E5920708F046C0811530E5930708
:1020600008F094C0883E910528F5803E910508F05F
:10207000EFC0883A910570F4853A910508F07CC06C
:102080008130910509F475C008F4DFC0049708F0A9
:10209000DFC0DBC08F3B910508F0D7C0C85AD0E045
:1020A000CC0FDD1FC55ADE4F0990D881C02DCE015F
:1020B0009464CFC0C11580E2D80760F4C11521E057
:1020C000D20708F0C5C0C03FD10508F4BEC0CE019C
:1020D0009065BFC0C11530E4D30708F4B6C0DF7007
:1020E000CE01906AB6C0C11585E5D807A8F4C11520
:1020F00024E5D20708F08BC0C11533E5D30708F0FB
:1021000070C0C11582E5D80708F055C0DC2FCC2778
:10211000CE01816F906A9DC0C11529E5D207A0F458
:10212000C11538E5D30708F078C0C11586E5D80792
:1021300008F08BC08C2F0E94CD118F7190E0D82FAA
:10214000CC27CE01906285C0C1152AE5D20708F4DC
:102150006AC0CE0190568115904208F076C08D2F4E
:102160008F710E94CD11DD27D0628F719E01382BB7
:102170006AC081E090E06DC0C55AD0E0C757DE4F1D
:102180008881C82FD0E0CE01906463C08370992706
:1021900021E030E002C0220F331F8A95E2F79C2F26
:1021A0009695969580E2989FE0011124C22BD32B3F
:1021B000CE019D684EC0CE018370992721E030E0AA
:1021C00002C0220F331F8A95E2F79C2F96959695B1
:1021D00080E2989FE0011124C22BD32BCE019C6892
:1021E00038C0CE018370992721E030E002C0220F71
:1021F000331F8A95E2F79C2F9695969580E2989FDB
:10220000E0011124C22BD32BCE019A6822C0DC2F0F
:10221000CC27CE01846F906A1CC0DC2FCC27CE0166
:10222000806F906A16C08C2F8F700E94CD1194E041
:10223000D695C7959A95E1F7CF70D0E0DC2FCC27E3
:10224000D0699E01282BC90104C080E090E001C044
:10225000CE01DF91CF9108950E94A3230E94231005
:1022600008958238910569F1B0F48133910509F43C
:1022700075C048F48932910509F467C08A32910526
:1022800009F471C008958533910509F459C0893363
:102290009105B9F00895833E910589F138F4803EA7
:1022A0009105D1F0823E910529F10895863E910570
:1022B000C9F1873E9105D9F1843E910509F06CC0C2
:1022C00027C02091CC0220FD57C021FD55C0209190
:1022D000CD0223FD5BC008958091CC0280FD48C0F3
:1022E0008091CD0280FF48C08091CC0284FD46C021
:1022F00083EE51C08091CC0282FF3CC0F5CF80912B
:10230000CC0282FD37C08091CD0280FD35C0ECCF7C
:102310008091CD0281FF36C08091CC0284FD2EC019
:1023200087EE39C08091CC0283FF2AC0F5CF80911F
:10233000CC0283FD25C08091CD0281FD23C0ECCF6E
:102340008091CC0285FD22C01FC08091CC0285FD0A
:102350001BC08091CD0283FF19C00AC08091CC02BE
:1023600086FD16C017C08091CC0286FD13C010C038
:1023700089E311C082EE0FC080EE0DC080E00BC07B
:1023800086EE09C084EE07C085E305C089E203C07C
:102390008AE201C081E390E008959091CC0292FF1F
:1023A0000DC0282F2871283019F4877F846006C05B
:1023B000282F2471243011F48B7F886093FF0DC087
:1023C000282F2871283119F4877E846106C0282FB0
:1023D0002471243111F48B7E88612091CD0220FF7D
:1023E0000DC0382F3871383019F4877F816006C0EE
:1023F000382F3171313011F48E7F886021FF0DC08C
:10240000282F2871283119F4877E816106C0282F72
:102410002171213111F48E7E886194FD877E0895AB
:1024200080E008950E94880E08950E941B138FE398
:102430009CE90197F1F700C000000E941B1380E0A7
:102440000E94471280FF04C00E9412120E94762749
:1024500008950E94151208950E948F0E811102C0E6
:102460000E943F0F0E949B0E80937A020E94A50E4D
:102470009093CD028093CC020E9429120E94A00E5C
:102480000E946D098091EA010E9482090895E82F57
:10249000F0E0EE0FFF1FEA52FD4F80819181089519
:1024A000089580EA8A95F1F7089500C008950E9482
:1024B0005112089508950E945A1208950E945B12C5
:1024C00008950E945A1208950E9461120895F89486
:1024D000E82FE295EF70F0E031A1282F2F7081E016
:1024E00090E001C0880F2A95EAF7982F90959323E2
:1024F00091A392A1892B82A3789408950F931F939F
:10250000CF93DF93C8E9D1E089918F3F11F00E940A
:10251000671281E0CC39D807B9F7CCE8D1E008E9F7
:1025200011E089918F3F11F00E9467120C171D076F
:10253000C1F7DF91CF911F910F910895A0E0B0E016
:10254000E4EAF2E10C94C42F8C01C62FD0E0CE0156
:1025500088569E4F6C01FC0190819F3F09F450C04A
:10256000B62EF894E92FE295EF70F0E081A19F700C
:1025700021E030E001C0220F9A95EAF7822B81A377
:1025800082A12095282322A378940E945512ECE87A
:10259000F1E048E951E021E030E0E12CF12C6191DB
:1025A0006F3F89F0A62FA295AF70B0E090968C9106
:1025B00090E06F7002C0959587956A95E2F780FD6F
:1025C00002C0C90102C080E090E0E82AF92A220F87
:1025D000331F4E175F0719F7F60180818F3F11F007
:1025E0000E94671261E0E114F10409F460E08B2DB0
:1025F0000E945712CC0FDD1FC00FD11FF982E88255
:10260000CDB7DEB7E9E00C94E02F0E947E1288E09F
:10261000E6EDF2E0DF01982F1D929A95E9F7EEECD6
:10262000F2E0DF011D928A95E9F784E00E945613DB
:102630000E9469040895A8E0B0E0E1E2F3E10C949F
:10264000C82F8E010F5F1F4F88E0F80111928A9505
:10265000E9F7F12C6F2DC8010E949E12F394F4E06B
:10266000FF12F8CF48E050E0B8018EEC92E00E94F3
:102670000B3021E0009709F420E0892B41F088E03D
:10268000F801AEECB2E001900D928A95E1F744E0DA
:1026900066ED72E08EEC92E00E945713182F0E94B4
:1026A0006C04812F2896E5E00C94E42F0895EF92B6
:1026B000FF920F931F93CF93DF937C018B01C42F65
:1026C000222349F081E080937D020E942927909384
:1026D0007C0280937B0280917D02811102C080E0A8
:1026E0001CC080917B0290917C020E94412705973B
:1026F000B0F3D0E0CC0FDD1FAE01B701C8010E94DE
:102700000B30892B39F0AE01B701C8010E94183097
:1027100081E001C080E010927D02CDB7DEB7E6E037
:102720000C94E32F0E9487290E94860F0E9494290F
:1027300008950E9499290E94930F0E94B329089539
:102740000E94C0260E946D290E94730F0E9492135E
:102750000E9499130E947C0FFBCF8091840280FF1E
:1027600006C06091070170E0660F771F26C081FFE9
:1027700004C06091070184E005C082FF07C060913A
:10278000070188E0689FB001112417C0909183026F
:102790009923D1F060910601961788F720910701DF
:1027A00088E0289F90011124929FA001939F500DD3
:1027B000112470E0CA010E94472F6038710540F46F
:1027C0006115710519F406C068E070E0862F089560
:1027D0008FE7089581E008958091840280FF08C00A
:1027E0006091030170E0759567957595679521C0B7
:1027F00081FF06C06091030170E07595679519C06F
:1028000082FF04C06091030170E010C090918202C9
:10281000992399F0609102019617A0F78091030126
:10282000899FC001112470E00E94472F6038710514
:1028300040F46115710519F406C061E070E0862F5F
:1028400008958FE7089581E00895803F21F40E9464
:10285000AD13819504C0813F29F40E94AD1380938C
:1028600088020895823F21F40E94AD13819504C02F
:10287000833F29F40E94AD13809387020895893F16
:1028800019F40E94EC1305C08A3F31F40E94EC1346
:1028900081958093890208958B3F21F40E94EC1367
:1028A000819504C08C3F29F40E94EC1380938A0226
:1028B00008959CE0980F953078F421E030E0A9016C
:1028C00002C0440F551F9A95E2F7CA019091860203
:1028D000892B8093860208958D3F21F48091840294
:1028E00081600BC08E3F21F480918402826005C01C
:1028F0008F3F29F48091840284608093840208953C
:10290000803F39F49091880297FF35C01092880279
:1029100059C0813F29F4909188021916BCF32BC04D
:1029200090918702823F29F497FF25C01092870279
:1029300049C0833F19F41916CCF31DC09091890248
:10294000893F29F41916BCF4109289023BC08A3FD2
:1029500019F497FF10C0F8CF8B3F39F490918A0299
:1029600097FF09C010928A022DC08C3F21F49091EC
:102970008A021916BCF39CE0980F953080F421E090
:1029800030E0A90102C0440F551F9A95E2F7CA0131
:1029900080959091860289238093860213C08D3F93
:1029A00021F4809184028E7F0BC08E3F21F48091B0
:1029B00084028D7F05C08F3F29F4809184028B7F34
:1029C0008093840280918702811106C080918802E1
:1029D000811102C01092830280918902811106C088
:1029E00080918A02811102C01092820208950E9491
:1029F000292720918702211104C0209188022223D7
:102A000021F090938102809380022091890221110C
:102A100004C020918A02222321F090937F028093A8
:102A20007E0285E892E00E9473250895E5E8F2E0D1
:102A300086E0DF011D928A95E9F7109283021092D9
:102A40008202109284020895FC01828181110DC0DE
:102A5000838181110AC08481811107C091E0858141
:102A6000811101C090E0892F01C081E0817008953B
:102A7000A6E0B0E0EEE3F5E10C94CA2F86E0E5E8CD
:102A8000F2E0DE01119601900D928A95E1F7109225
:102A90008702109288021092890210928A028B811A
:102AA000811104C08C81882309F45FC08091800269
:102AB000909181020E944127AC0190918302992359
:102AC00039F02091080130E02417350758F04DC047
:102AD000209109018AE0289F9001112424173507CD
:102AE00018F043C09F3F19F09F5F909383021B81B2
:102AF000112361F00E94AD13111614F09FEF01C075
:102B000091E0989F902D1124909387021C811123AE
:102B100061F00E94AD13111614F09FEF01C091E017
:102B2000989F902D1124909388023091870233232F
:102B3000E1F0209188022223C1F045EB3403C0016B
:102B40001124992319F09093870203C081E08093A8
:102B5000870235EB2303C0011124992319F09093C8
:102B6000880203C081E0809388028D81811104C0B6
:102B70008E81882309F45FC080917E0290917F024C
:102B80000E944127AC0190918202992339F0209153
:102B9000040130E02417350758F04DC0209105019D
:102BA0008AE0289F900111242417350718F043C0AC
:102BB0009F3F19F09F5F909382021D81112361F066
:102BC0000E94EC13111614F09FEF01C091E0989F42
:102BD000902D1124909389021E81112361F00E948F
:102BE000EC13111614F09FEF01C091E0989F902D07
:102BF000112490938A02309189023323E1F02091CD
:102C00008A022223C1F045EB3403C0011124992329
:102C100019F09093890203C081E08093890235EB1B
:102C20002303C0011124992319F090938A0203C051
:102C300081E080938A02BE016F5F7F4F85E892E05A
:102C40000E947126811105C085E892E00E9424153A
:102C500081110E94F71486E0FE013196A5E8B2E0EA
:102C600001900D928A95E1F72696E3E00C94E62F09
:102C7000EF92FF920F931F93CF93DF938B01682FF7
:102C800011110AC0442329F0E82FF0E0ED5EFB4F5C
:102C90006491762F862F75C0212F30E0E82FF0E069
:102CA000442321F0ED5EFB4FE491F0E046E0049F09
:102CB000C0011124CFEFD0E0BE010E94332F4BEAB8
:102CC0004603C001479F900D1124800F911D800F76
:102CD000911D982F990F890FAE01421B530B4E9FE8
:102CE000D0014F9FB00D5E9FB00D11249B2F189FF8
:102CF000A0011124452F55278E01041B150B0E9F93
:102D0000A0010F9F500D1E9F500D11247E01E81A47
:102D1000F108E29E8001E39E100DF29E100D112439
:102D2000212F3327C21BD30BCE9F9001CF9F300D95
:102D3000DE9F300D112462307105A9F048F4611551
:102D4000710569F061307105C9F48B2F752F0DC0C5
:102D50006430710581F058F06630710579F47E2F8A
:102D60008B2F932F0DC0832F7B2F9E2F09C08E2F6B
:102D70007B2F952F05C08E2F732F02C07E2F852F9E
:102D8000692FCDB7DEB7E6E00C94E32F41E00E9457
:102D90003816089508950E94C6160895CF93DF93BC
:102DA000762FE901682F842F0E94CB1679836883E0
:102DB0008A83DF91CF9108958091DE02282F269596
:102DC00030E02115310519F48170826005C025328B
:102DD000310524F0817088648093DE02089588E0D4
:102DE00090E00E9429300895CF92DF92EF92FF92F7
:102DF0006B017C010E94DC16B701A60188E090E01F
:102E00000E944730FF90EF90DF90CF90089560913F
:102E1000DE027091DF028091E0029091E1020E9457
:102E2000F4160895EEEDF2E083E0808311828FEFD7
:102E300082838383148260817181828193810E9465
:102E4000F41608958091DE0280FF02C086950895F1
:102E500080E008959091E202933018F49F5F909380
:102E6000E202882351F06091DE027091DF028091CE
:102E7000E0029091E1020E94F416089581E00E9420
:102E80002A1708959091E202992319F09150909396
:102E9000E202882351F06091DE027091DF0280919E
:102EA000E0029091E1020E94F416089581E00E94F0
:102EB000421708958091E20208958093E20266230A
:102EC00051F06091DE027091DF028091E0029091FA
:102ED000E1020E94F416089560E00E945D170895D3
:102EE0008091DF0208958091E00208958091E102CF
:102EF000089570E00E94601D089560910E01809118
:102F0000DE0280FF0BC080910D0123E0829FC00193
:102F100011248D519D4F0E947917089580910F01C2
:102F200090911001891778F7E82FF0E09F01220FA8
:102F3000331FE20FF31FED51FD4F118210821282F9
:102F40008F5FF0CF9091DE0290FF16C090910F013D
:102F500020911001921770F4E92FF0E0DF01AA0F21
:102F6000BB1FEA0FFB1FED51FD4F8183608342833E
:102F70009F5FF0CF0E947D170895A3E0B0E0E3ECDF
:102F8000F7E10C94CB2F9091DE0290FF0AC09E01D6
:102F90002F5F3F4F0E94CE164B8169818A810E942C
:102FA000A2172396E2E00C94E72FCF93DF93EC0176
:102FB000EC81F0E0E25FFC4F4491EEEDF2E06281E3
:102FC00081810E94BD178C818F5F8C83DF91CF91AF
:102FD0000895CF93DF93EC01EEEDF2E0438162813F
:102FE0008C810E94BD178C818F5F8C83DF91CF9184
:102FF0000895A3E0B0E0EFEFF7E10C94C92F8C0146
:1030000080918B0281110AC09E012F5F3F4F4FEFCD
:103010006FEF0E94CE168A8180938B02F801848123
:10302000813051F028F0823061F440918B020AC067
:1030300080918B0240E007C060918B0240E080E00D
:1030400003C040E080E060E00E94A217F8018481A4
:1030500090E0019663E070E00E94472F84832396FE
:10306000E4E00C94E52FA3E0B0E0E9E3F8E10C9490
:10307000C42F082FE62EF42ED22E9091DE0290FF60
:1030800067C0E92FE695AE2FB0E0A456BE4F8C91F5
:10309000809395029E7F923061F49E012F5F3F4F97
:1030A000802F0E94CE164B8169818A810E94A217CF
:1030B0003DC0823019F4F090E10238C0863019F436
:1030C0000091DF0233C08930D9F3893179F5E951B4
:1030D0008E2F8170C82EE695F0E0E25FFB4F1491D1
:1030E000B12C60911101B616F8F4B19EC001112403
:1030F00070E00E94332F802FC11002C0860F01C0E4
:10310000861B90910F012B2D30E0290F311DA90155
:10311000440F551F240F351F2D513D4F4F2D6E2D40
:103120000E94CE16B394DDCF0E947D170093DF027C
:10313000E092E002F092E102DD2051F06091DE02C7
:103140007091DF028091E0029091E1020E94F416FA
:103150002396E9E00C94E02FEEEDF2E09181282F28
:103160004381628188E0890F0E943318089581E0CD
:103170000E94AC180895EEEDF2E09181282F438172
:10318000628188EF890F0E943318089581E00E94C0
:10319000BB180895EEEDF2E0628121E1620F08F4C0
:1031A0006FEF282F438181810E943318089581E0B9
:1031B0000E94CA180895EEEDF2E0628121E1621BDF
:1031C00008F460E0282F438181810E94331808951C
:1031D00081E00E94DB180895EEEDF2E0438121E1E9
:1031E000420F08F44FEF282F628181810E9433182B
:1031F000089581E00E94EC180895EEEDF2E043811D
:1032000021E1421B08F440E0282F628181810E9465
:103210003318089581E00E94FD18089520E00E946F
:1032200033180895FF920F931F93CF93DF93EC0110
:10323000F12C0FEF10E060911101F616F0F480917F
:103240000F012F2D30E0280F311DC901880F991F64
:10325000280F391F2D513D4F70E0C8010E94472FA4
:10326000962F8C814091E1026091E002F99E800DE1
:1032700011240E94CE16F394DECF0E947D179A810E
:103280008C8190FF02C08F5F01C081508C83CDB7CD
:10329000DEB7E5E00C94E42FA0E0B0E0E2E5F9E170
:1032A0000C94C32FFC01828180FF02C00FEF01C08C
:1032B00001E010E04AE0A42E80911101181708F0F7
:1032C00043C080910F01C12ED12CE601C80FD11D42
:1032D000CE01880F991FC80FD91FCD51DD4F19821C
:1032E00018821A8234E0E32EF12CB12C80918D02E9
:1032F0008B0D8B302CF06A2D0E94252F892F05C055
:1033000087FF03C090911101890F082E000C990BC3
:10331000C816D90691F48091E1028E9DA0018F9D7F
:10332000500D112455954795559547959E016091EF
:10333000E0028091DF020E94CE16B00EF1E0EF1A9B
:10334000F108A1F61F5FB8CF0E947D1780918D0212
:10335000013031F4811102C080911101815007C008
:1033600090E001966091110170E00E94472F8093D8
:103370008D02CDB7DEB7EAE00C94DF2FCF938091BA
:103380000F0190911001891770F4E82FF0E09F0170
:10339000220F331FE20FF31FED51FD4F11821082F8
:1033A00012828F5FF0CFC0E060911101C617C0F5A7
:1033B000EC2FF0E070E0CF010E94472F20910F0129
:1033C000820F20918C02022E000C330B90E0E2174A
:1033D000F307CCF020910C01022E000C330B2E17BA
:1033E0003F078CF09C01220F331F820F931F9C011B
:1033F0002D513D4F4091E1026091E0028091DF024A
:103400000E94CE160BC0FC01EE0FFF1F8E0F9F1FF8
:10341000FC01ED51FD4F118210821282CF5FC4CFAB
:103420000E947D1720910B0180918C02820F809366
:103430008C0290910C01920F90930C0119165CF480
:10344000082E000C990B4091110150E04150510998
:10345000841795071CF0219520930B01CF910895B7
:10346000A0E0B0E0E6E3FAE10C94C12F8C01FC018E
:103470004481C42FD0E09E01DE010E94922F9B0167
:10348000AC010E94A82F6B017C01E0E2F0E0EC1B94
:10349000FD0BA5E5B0E09B01AC010E94A82F4B01FC
:1034A0005C019F01DF010E948A2F9B01AC010E94F9
:1034B000B32F9B01AC012C0D3D1D4E1D5F1DC501A1
:1034C000B4010E945B2FC22FD22F2A3228F4F3E0DE
:1034D0002F9F900111240DC025E530E02C1B3109F0
:1034E000C901880F991F280F391F37FF02C02F5FAE
:1034F0003F4F35952795C22FC095F12C85E5E82ED5
:10350000ED1A80911101F816C8F4F1FC02C08E2D5D
:1035100001C08D2F90910F012F2D30E0290F311D0B
:10352000A901440F551F240F351F2D513D4F4C2F1E
:103530006091E0020E94CE16F394E3CF0E947D17C3
:10354000F8018481811102C091E003C0803219F436
:103550009FEF90930A0190910A01890FF8018483EB
:10356000CDB7DEB7ECE00C94DD2F0F931F93CF9314
:10357000DF93EC0100E010E080911101282F30E092
:103580000217130724F590910F019801290F311D9F
:10359000A901440F551F240F351F2D513D4F86950E
:1035A00090E04C81081719071CF4442331F002C045
:1035B000411103C04091E10201C040E06091E0028E
:1035C0008091DF020E94CE160F5F1F4FD5CF0E9461
:1035D0007D178C8190E00196817099278C83DF9113
:1035E000CF911F910F910895EEEDF2E080818E7FD3
:1035F000808360817181828193810E94F416109290
:1036000096022FEF80E792E0215080409040E1F752
:1036100000C000000E947D170895EEEDF2E0808169
:103620008E7F8083109296022FEF80E792E02150E8
:1036300080409040E1F700C000000E947D1708958F
:103640006091DE02669570E04BE050E082E191E02F
:103650000E94FE2F892B19F481E0809396020E942C
:10366000292790938F0280938E0208959091DE0215
:1036700090FF35C09170811102C0926006C0853202
:1036800010F0986402C0880F982B9093DE02662396
:1036900051F06091DE027091DF028091E002909122
:1036A000E1020E94F4166091DE02669570E04BE044
:1036B00050E082E191E00E94FE2F892B19F01092D8
:1036C000960202C00E94201B81E0809391024091EB
:1036D000E1026091E0028091DF020E940E190895DC
:1036E000682F9091DE02969581E0890F853208F06F
:1036F00081E00E94361B089581E00E94701B0895AE
:10370000682F9091DE0296958FEF890F09F484E27D
:103710000E94361B089581E00E94801B089561E09D
:103720000E94361B0895EEEDF2E080818160808377
:1037300086950E948F1B08958091DE0280FF03C052
:103740000E94F41A08950E94931B089560E00E945D
:10375000361B08958091940281112EC00E948F0E15
:10376000811104C00E943F0F0E9412170E94EF16A1
:103770006093DE027093DF028093E0029093E10297
:103780006E7F61F40E9412170E94EF166093DE02B2
:103790007093DF028093E0029093E1020E94DC16B6
:1037A000109296028091DE0280FF03C086950E94EF
:1037B000A61B81E0809394020895EEEDF2E08081F3
:1037C0008160808386950E94A61B08950F931F93A6
:1037D000CF93DF9380919602882309F481C0809172
:1037E0009502E091DE02E695E81BE09390028230BC
:1037F00049F4F0E0E65FFC4FE491CE2FD0E005ED18
:1038000017E149C0863049F4F0E0E95FFC4FE491EC
:10381000CE2FD0E009EE17E13EC0893051F4E69595
:10382000F0E0EC5FFC4FE491CE2FD0E002E119E133
:1038300032C08F3051F4E695F0E0EF5FFC4FE49139
:10384000CE2FD0E00CE419E126C0853149F4F0E038
:10385000E250FD4FE491CE2FD0E00EEB19E11BC0FA
:10386000883181F0833239F4ECEFF2E0C591D491E4
:1038700009EF17E110C0843251F4C4EFD1E005EB39
:103880001AE109C0C8E2D0E000E31AE104C0C0EDCB
:10389000D7E00AEC16E180919102882361F0109242
:1038A00091020E94292790938F0280938E0210929A
:1038B0009302109292020E942927E0918E02F091C9
:1038C0008F028E1B9F0B8F3F9F4750F4EC0FFD1F05
:1038D000F0938F02E0938E028EE892E0F801099552
:1038E000DF91CF911F910F910895882311F0FA0174
:1038F00001C0FB0109950895CF93DF93C82FD62F00
:103900000E9422178C1738F00E9422178D1718F486
:103910000E947C1B03C08C2F0E948F1BDF91CF91D4
:1039200008951F93CF93DF93FB0112811111C3C040
:10393000EC010E949E0D8272CC3CFCE5DF0709F48D
:103940009AC0A8F5C63CECE5DE0709F476C0A8F4F9
:10395000C33C9CE5D90709F45FC028F4C23CDC45B0
:1039600009F457C054C0C43C9CE5D90709F459C0B8
:10397000C53CDC4509F45CC04AC0C93CFCE5DF0736
:1039800009F46AC050F4C73CECE5DE0709F45AC0FC
:10399000C83CDC4509F45BC03AC0CA3C9CE5D90789
:1039A00009F45FC0CB3CDC4509F460C030C0C13DC8
:1039B000FCE5DF0709F46FC088F4CE3C9CE5D9072D
:1039C00009F460C008F45CC0CF3CFCE5DF0709F4F3
:1039D0005CC0C03DDC4509F45BC019C0C43D9CE53A
:1039E000D90709F460C050F4C23DFCE5DF0709F4D3
:1039F00055C0C33DDC4509F454C009C0C53D9CE534
:103A0000D90709F455C0CD35DD4509F454C011E09E
:103A100052C00E949C1B4FC04BE85BE16CE77BE10E
:103A200004C04CE75BE16BE87BE10E94751C43C07E
:103A300046EC58E167EB78E1F8CF47EB58E166ECEC
:103A400078E1F3CF48EE58E167ED78E1EECF47ED4E
:103A500058E168EE78E1E9CF4AE059E169EF78E1B1
:103A6000E4CF49EF58E16AE079E1DFCF46E557E17D
:103A70006EE377E1DACF4EE357E166E577E1D5CF44
:103A800081E017C065E082E010C068E086E00DC00C
:103A90006EE089E00AC064E18FE007C067E185E17C
:103AA00004C088E106C062E289E10E947C1C03C078
:103AB00083E20E948F1B812FDF91CF911F91089588
:103AC000509A2BB12E7F3BB131604FB7F894FC0177
:103AD000CB01880F991F680F791F6E0F7F1FE617A4
:103AE000F70789F0819198E03BB9000000C087FF9B
:103AF0002BB9880F000000C000C000C02BB900C067
:103B00009A9591F7ECCF4FBF8FE594E00197F1F7CD
:103B100000C00000089583E290E00E9421308232CC
:103B200081F484E290E00E942130803151F485E2FA
:103B300090E00E94213091E0833109F090E0892FDC
:103B400001C080E081700895CF93C82F811102C019
:103B50006FEF01C062E283E290E00E943530C11154
:103B600002C06FEF01C060E184E290E00E94353056
:103B7000C11102C06FEF01C063E185E290E00E94D5
:103B80003530CF910895089586E290E00E9421306B
:103B9000682F70E080E090E008950895CF93C62FDD
:103BA0000E94CD1D6C2F86E290E00E943530CF91AF
:103BB000089580E00E94A41D60E070E0CB010E94A7
:103BC000CE1D0E9420230E94FA2381E00E94A41DA2
:103BD00008950E94C31D0E94C41D0E94CD1D0E9415
:103BE0008B1D811102C00E94D91D0895CF93FB0146
:103BF000C281CC23E9F09C0122513F45203131059F
:103C000020F482510E940A240CC08031FFE59F07F6
:103C100051F481E00E94990943E062E081E00E9452
:103C20005F04C0E018C081319F45A9F482E0F2CF63
:103C30008031EFE59E0711F481E004C081319F459A
:103C400049F482E00E94A50943E062E081E00E941D
:103C50005F0401C0C1E08C2FCF9108952FEFFC01CC
:103C600020830895CF93DF93EC0188818138D1F0D0
:103C700070F48038E9F40E9476172FEF829FC0011C
:103C800011246FEF70E00E94332F698311C08238D6
:103C900061F0833869F40E94701789830E9473175A
:103CA0008A8306C00E94221702C00E945A17898385
:103CB000DF91CF910895CF93DF93EC018881813814
:103CC00001F1A8F4803879F5C9810E947317D82FC3
:103CD0000E947017282F3FEFC39FC00111246FEF80
:103CE00070E00E94332F462F6D2F822F1AC082382A
:103CF000A1F08338C1F40E947617482F6A81898128
:103D000010C089810E94A61B8981811103C00E9475
:103D10000D1B09C00E94DD1B06C089810E946C1723
:103D200002C00E940E19DF91CF910895EF92FF9289
:103D30000F931F93CF93DF93EC01062F0196E88139
:103D40004E2F50E0FA013197E331F10508F09AC0A7
:103D5000EE59FF4F0C947D2F19828AE056C089815D
:103D6000823039F0833061F0813029F50E943527A7
:103D700002C00E94C41D9A838B837C836D8384C0A0
:103D80007E0110E0812F0E944712F7019283838306
:103D90001F5FF2E0EF0EF11C1430A1F775C08981AE
:103DA000823049F46A817B818C819D810E94832FBE
:103DB0000E94CE1D69C0602FCE010E942E1E64C0DD
:103DC0004B816A8189810E94E4229C838D835CC03F
:103DD0002C813D813227232732274B816A818981BB
:103DE0000E94052351C00E9420234EC00E945B1EEA
:103DF0004BC00E94321E48C00E94071745C00E9457
:103E0000B12324C00E94B32399838A833DC06B8170
:103E100070E089819A81AE014C5F5F4F98278927B6
:103E200098270E94B62330C06B8170E089819A8107
:103E3000AE014C5F5F4F9827892798270E94D923AE
:103E400023C00E94FA2320C00E94D12289831CC073
:103E50006B8170E089819A81AE014C5F5F4F98273A
:103E6000892798270E9461230FC06B8170E08981A8
:103E70009A81AE014C5F5F4F9827892798270E944F
:103E8000832302C08FEF8883602FCE010E943D28DC
:103E9000CDB7DEB7E6E00C94E32FCF93DF93EC01D0
:103EA000FB018281882309F472C1C330FDE5DF077D
:103EB00060F4CA3F9CE5D907D0F49E0122503C45EE
:103EC0002431310508F064C112C0C53AEDE5DE07C2
:103ED00071F030F4C1369DE5D90709F059C107C02A
:103EE0009E012D5A3D452330310508F051C10E94F5
:103EF000A50E9093CD028093CC02C231ECE5DE0793
:103F000009F405C108F04BC0C9308CE5D80709F4A5
:103F1000D2C000F5C530ECE5DE0709F4B9C078F48D
:103F2000C3308CE5D80709F4AAC008F0AEC0C2308F
:103F3000DC4509F022C18091CC028160A3C0C7306A
:103F4000FCE5DF0709F4AFC008F0B1C08091CC02F6
:103F5000806198C0CD309CE5D90709F4C2C058F4FF
:103F6000CB30FCE5DF0709F4B0C008F0B6C08091A3
:103F7000CC028860A6C0CF309CE5D90709F4BFC049
:103F800008F4B2C0C031FCE5DF0709F4BCC0C131A0
:103F9000DC4509F0F2C08091CC028F7B73C0CF3F2B
:103FA0009CE5D90709F4BEC088F5CA3FFCE5DF07E8
:103FB00009F472C0B8F4C4319CE5D90709F4C1C052
:103FC00008F4ABC0C531DC4509F0D7C08091CC0204
:103FD00082FB222720F991E0922790FB82F990FB47
:103FE00083F950C0CC3F8CE5D80709F481C008F4B0
:103FF00056C0CD3FECE5DE0709F47DC0CE3FDC4581
:1040000009F0BBC08091CD0282605DC0C1368DE5F4
:10401000D80709F4A6C068F4C130EDE5DE0709F45D
:104020009CC008F484C0C230DD4509F0A6C080E021
:1040300095C0CD3A9DE5D907F1F058F4C53ADD4574
:1040400009F09BC08091CC02982F909590FB80F94D
:1040500019C0CE3A8DE5D807E1F1CF3ADD4509F038
:104060008CC08091CD0283FB222720F991E092271A
:1040700090FB83F980C08091CD0288607CC08091E4
:10408000CC0282608093CC0278C08091CC0219C0AF
:104090008091CC028860F6CF8091CD0214C08091CF
:1040A000CD02826068C08091CC028062EBCF8091AB
:1040B000CC028064E7CF0E940F098091CC02806817
:1040C000E1CF8460DFCF816056C08091CC028E7FCB
:1040D000D9CF8091CD02877F4EC08091CC028D7F59
:1040E000D1CF8091CC021CC08091CC02877FCACFF7
:1040F0008091CD021AC08091CD028D7F3CC080910D
:10410000CC028F7EBFCF8091CC028F7DBBCF0E942F
:104110000F098091CC028F77B5CF8091CC02877F39
:104120008B7FB0CF8091CD028D7F8E7F24C0809118
:10413000CD02982F909591708E7F892B90FB81F9FD
:104140001AC00E940F098091CC0287FB222720F918
:1041500091E0922790FB87F995CF81E00E94420F72
:104160000CC08091CC0284FB222720F991E0922799
:1041700090FB84F987CF8093CD028091CC029091FF
:10418000CD020E94B60E0E940F0980E001C081E0BE
:10419000DF91CF910895A0E0B0E0E1EDF0E20C9462
:1041A000C62FE82FF0E0ED5EFA4FD490282F269529
:1041B0002695269530E0F901ED54FA4F0491877069
:1041C00010E0082E02C0159507950A94E2F70170D9
:1041D0001127F901ED55FA4FE490F12C082E02C099
:1041E000F594E7940A94E2F791E0E922FF24F901BB
:1041F000ED56FA4FC491D0E002C0D595C7958A9587
:10420000E2F7C170DD270115110519F081EE0E945A
:104210007105E114F10419F086EE0E9471058D2DEF
:104220000E94A206E114F10419F086EE0E941F0616
:104230000115110519F081EE0E941F06CD2B19F012
:104240008CE20E94A206CDB7DEB7E7E00C94E22F25
:10425000EF92FF920F931F93CF93DF93EC01162FF2
:104260000AE08881882309F455C0813009F043C0F1
:104270008981813041F47E0182E0E80EF11C8A815F
:104280000E94A20609C0823049F47E01E2E0EE0EEF
:10429000F11C8A810E947105E7012FC0833041F42F
:1042A0007E01F2E0EF0EF11C8A810E941F06F4CF1E
:1042B000843011F0219621C02A81229680E090E07E
:1042C00030E0205331092A30310558F4089FA0010D
:1042D000099F500D1124C901840F951F2196288133
:1042E000EFCF009751F0EFE9FFE03197F1F700C011
:1042F00000000197F6CF0E94CB202196812F8823C2
:1043000009F4AFCFEFE9FFE03197F1F700C000000B
:104310008150F5CFCDB7DEB7E6E00C94E32F8932BC
:1043200089F1F0F4843171F1B0F4873009F077C08D
:1043300081E08093090184E1809308018AE0809301
:1043400007018EE18093060188E08093030188E2F3
:104350008093020164C092EE980F9A30F0F05FC033
:10436000803509F444C028F48F3409F058C08AE03D
:104370003FC0813529F0823509F051C081E038C055
:104380008FEF36C080919902882379F110929902BB
:10439000109298021092970242C08D518093990218
:1043A000833099F038F4813069F08230D9F488E0B4
:1043B00091E00DC0853099F078F0863099F482E074
:1043C00091E005C089E091E002C087E091E0909320
:1043D00098028093970223C086E091E0F8CF83E0B3
:1043E00091E0F5CF109299021AC080E0089586EF0F
:1043F000E0919702F0919802309789F02081082E81
:10440000000C990B820F911D8F3F910519F014F04C
:104410008FEF04C097FF02C0108201C0808381E04B
:104420000895482F50E0FA013597EF33F10508F071
:1044300068C0EB58FF4F0C947D2F0E943F0F5DC06A
:1044400080917A02817F8E7F80937A0281E08093CF
:104450009A0208950E947E0450C080917A02982F9B
:104460009095917090FB80F980937A02911145C0EC
:10447000897F877F10C080917A0281FB222720F9F3
:1044800091E0922790FB81F980937A029923A9F118
:1044900080917A02816080937A022FC080917A02A3
:1044A00082FB222720F991E0922790FB82F9ECCF42
:1044B00080917A0283FB222720F991E0922790FBDA
:1044C00083F9E2CF0E940F098091CC0287FB22275B
:1044D00020F991E0922790FB87F98093CC020DC0E0
:1044E000895301C08D5191E001C0990F8A95EAF777
:1044F000892F0E946D090E940F0981E0089581E0D3
:10450000F8CF80E0089580E008950E948322089506
:10451000CF93C82F80919A02813069F038F08230B1
:10452000C1F58C2F0E948F2181E039C00E949E0D21
:10453000823289F504C00E949E0D823261F48C2F74
:104540000E948522811104C08C2F0E9411221FC05D
:1045500081E090E01CC08C2F0E948322811116C044
:10456000C43189F058F4CB3089F0C031B1F482E025
:1045700080939A0288E30E948F2108C0C93219F003
:10458000C83321F00AC010929A0207C081E08170FE
:1045900006C010929A0280E002C080E0F8CFCF916E
:1045A000089584E0089550E0440F551F28E1629F6C
:1045B000400D511D11249A0160E6869F200D311D8A
:1045C0001124C901879608950F931F93CF93DF930A
:1045D0008430A0F4643090F44C3080F40E94D322F4
:1045E0008C010E94213090E0D82FCC27C801019681
:1045F0000E9421309E01282BC90102C080E090E07A
:10460000DF91CF911F910F9108950F931F93CF9337
:10461000DF93843080F4643070F44C3060F4E9014E
:104620000E94D3228C016D2F0E9435306C2FC8015F
:1046300001960E943530DF91CF911F910F9108951F
:10464000A0E0B0E0E6E2F3E20C94C22FC12CD12C42
:10465000C0E0D0E0912CE12CF12C00E010E05601FC
:10466000AE0CBF1C0E94F00390E0C817D90754F4A9
:10467000F801EE0FFF1FEA0DFB1DE458FE4F2591D8
:10468000349102C021E030E0402F692D8C2F0E9430
:1046900005230F5F1F4F0C30110521F788E1E80E4D
:1046A000F11C939484E09812D8CF219680E6C80E2E
:1046B000D11CC430D10571F6CDB7DEB7EBE00C9458
:1046C000DE2FEF92FF920F931F93CF93DF93EA01B8
:1046D0007A01E60EF71E8C01C8018796CE15DF051C
:1046E00069F0003821E0120720F40E94213088830D
:1046F00001C0188221960F5F1F4FEECFCDB7DEB7F6
:10470000E6E00C94E32FEF92FF920F931F93CF9369
:10471000DF93EA017A01E60EF71E8C01C801879645
:10472000CE15DF0559F0003821E0120718F4688132
:104730000E94353021960F5F1F4FF0CFCDB7DEB707
:10474000E6E00C94E32F843048F4743038F46C3095
:1047500028F4462F672F0E94E422089580E090E01D
:10476000089580E1089589E592E00895EF92FF921F
:104770000F931F93CF93DF93EA017A01E60EF71EA2
:104780008C01C80189559E4FCE15DF0569F00935AA
:1047900022E0120720F40E942130888301C0188291
:1047A00021960F5F1F4FEDCFCDB7DEB7E6E00C943B
:1047B000E32FEF92FF920F931F93CF93DF93EA01C2
:1047C0007A01E60EF71E8C01C80189559E4FCE1561
:1047D000DF0559F0093522E0120718F468810E94BC
:1047E000353021960F5F1F4FEFCFCDB7DEB7E6E034
:1047F0000C94E32FCF93DF93C7EAD1E060E0CE01C2
:104800000E9435302196C11584E0D807B9F7DF91B1
:10481000CF910895A4E0B0E0E0E1F4E20C94C62F5B
:10482000F82E8FE08F15F0F18FEF93E00E9421308A
:10483000811138C007EA11E0FF2069F0011584E01A
:10484000180781F1C8010E942130811101C0FA943A
:104850000F5F1F4FF1CF19821A821B821C82DD2449
:10486000D39478018FEFE81AF80AC8010E9421302A
:1048700089831A828823B1F09FEF980F933058F400
:104880008A83D9820E5F1F4FC7010E9421308B831C
:10489000882341F0780160E0CE0101960E94282132
:1048A0008701DFCF2496E7E00C94E22FCF93DF93CC
:1048B00086319C4541F5EB010E949E0D982F8A811F
:1048C0002091000130910101882379F09A7A81E0EA
:1048D00009F480E080939B02911102C069E201C05B
:1048E00065E3C9010E9443260AC080919B028111A1
:1048F00002C069E201C065E3C9010E9451260E941D
:10490000E20D80E001C081E0DF91CF9108950F9327
:104910001F93CF93DF93C42FD22FFC018281882372
:10492000B1F040939E020E94292790939D028093AC
:104930009C0280E28C0F883008F04DC0C77081E087
:1049400001C0880FCA95EAF70E94AC0644C0809166
:104950009E02481330C080919C0290919D020E945B
:104960004127883C910538F510E21D0FCD17B9F0AD
:1049700080E28C0F883040F4C77081E001C0880F5E
:10498000CA95EAF70E94B306183010F581E09D2F12
:10499000977001C0880F9A95EAF70E94AC06802FA5
:1049A0000E94A2061830B8F4D77081E001C0880FC9
:1049B000DA95EAF70AC080E28C0F883060F4C7709D
:1049C00081E001C0880FCA95EAF70E94B30603C0D0
:1049D000802F0E94A206DF91CF911F910F91089521
:1049E0000F939C01CB01233F4CE5340731F188F450
:1049F000283DFCE53F07D9F0293D4CE5340779F126
:104A0000273D3C45A9F506E221EE41EE67ED7CE548
:104A10002BC0253FFCE53F07E1F0A8F0263F3C45D1
:104A200039F507E225EE46EE66EF7CE51DC007E2AC
:104A300025EE45EE68ED7CE517C006E221EE40EE7E
:104A400063EF7CE511C007E225EE44EE64EF7CE500
:104A50000BC006E221EE42EE65EF7CE505C008E200
:104A600021E045EE69ED7CE50E94872480E008C0E6
:104A7000FC018281882319F010929E0201C081E01E
:104A80000F9108959093D1018093D0010895909350
:104A9000A4028093A3020895E091A302F091A402DE
:104AA000309729F00190F081E02D0995089580E07C
:104AB0000895FC01A091A302B091A402109791F077
:104AC00080912901882341F08091CC0287FF04C0A6
:104AD0008081818386E08083CF011296ED91FC91E5
:104AE000139709950895E091A302F091A4023097DD
:104AF00039F022E0DC012C930480F581E02D09954A
:104B000008952091A1023091A2022817390771F06F
:104B10009093A2028093A102E091A302F091A402DB
:104B2000309721F00680F781E02D099508952091B6
:104B30009F023091A0022817390771F09093A002CC
:104B400080939F02E091A302F091A402309721F09C
:104B50000084F185E02D09950895FC01329680913D
:104B60002901882331F08091CC0287FF02C09EE1A9
:104B700001C096E080E0915028F021912223D9F3E2
:104B80008F5FF9CF0895662351F1209129012223E7
:104B9000E9F02091CC0227FF19C0462F4695469593
:104BA00046954E31E0F4677021E030E002C0220FFC
:104BB000331F6A95E2F7FC01E40FF11D828190E05A
:104BC0002823392381E0232B69F409C0FC013296A4
:104BD00008962191621729F0E817F907D1F780E0CC
:104BE000089581E008959C01FC0132969FEF80E0DA
:104BF0004191461789F09F3F19F4411101C0982F48
:104C00008F5F8630A9F79F3F39F0F901E90FF11D59
:104C100097FDFA956283089508959C012A5F3F4F9E
:104C2000FC014281461301C012820196821793074C
:104C3000B9F70895262F2695269526952E3168F4E6
:104C4000FC01E20FF11D677021E030E001C0220F8E
:104C50006A95EAF78281282B22830895262F2695CC
:104C6000269526952E3170F4FC01E20FF11D677038
:104C700021E030E001C0220F6A95EAF72095828199
:104C800028232283089520912901222339F020919D
:104C9000CC0227FF03C00E941A2608950E94F32524
:104CA000089520912901222339F02091CC0227FF79
:104CB00003C00E942E2608950E940D26089520917B
:104CC0002901FC013296222331F08091CC0287FF2A
:104CD00002C08EE101C086E0DF011D928A95E9F7EE
:104CE000089546E050E00E940B3021E0892B09F442
:104CF00020E0822F089508950E947B26089583E086
:104D00008093A5020E947C260895811102C081E053
:104D100001C082E08093A5020E947C2608950E9433
:104D20008526089581E08093A5020E947C2608953F
:104D30000E949226089508950E949B2608950E943D
:104D40009C2608950E949B2608950E949B26089504
:104D50000E949B260895CF930E94A5260E941B13B4
:104D60000E94A226C0E08C2F0E944712892B29F4B2
:104D7000CF5FC430C1F780E001C081E0CF910895DA
:104D800085B7806885BF85B7806885BF08951F9205
:104D90000F920FB60F9211248F939F93AF93BF93EF
:104DA0008091A602811113C08091010390910203AA
:104DB000A0910303B09104034196A11DB11D8093FE
:104DC000010390930203A0930303B0930403BF91E4
:104DD000AF919F918F910F900FBE0F901F901895DC
:104DE00080910903843031F10E94EB041092A602F5
:104DF00020E488E190E00FB6F894A89580936000D5
:104E00000FBE2093600083B7817F846083BF83B728
:104E1000816083BF7894889583B78E7F83BF0FB6F8
:104E2000F894A8958091600088618093600010924A
:104E300060000FBE08950E940F090E94F0040895BB
:104E400082E084BD93E095BD9AEF97BD80936E009C
:104E500008952FB7F8948091010390910203A091D7
:104E60000303B09104032FBF08952FB7F894609106
:104E700001037091020380910303909104032FBFFB
:104E800008959C014FB7F89480910103909102031B
:104E9000A0910303B09104034FBF821B930B0895AD
:104EA00078941F920F920FB60F9211248F939F93B5
:104EB000AF93BF938091010390910203A0910303EC
:104EC000B09104030196A11DB11D8093010390933D
:104ED0000203A0930303B0930403BF91AF919F918A
:104EE0008F910F900FBE0F901F90189581E08093C7
:104EF000E00080E28093D8001092C9008FE19EE428
:104F00000197F1F700C0000087E090EBDC0180938F
:104F1000120390931303A0931403B09315039CE022
:104F200088E10FB6F894A895809360000FBE909327
:104F30006000FFCF9CE088E10FB6F894A8958093BD
:104F400060000FBE90936000FFCF8091CA02089569
:104F5000089524E02093E9002FEF3091E8002150DC
:104F600035FD06C035ED3A95F1F700002111F5CF7A
:104F70002091E80025FF0BC040E050E066E070E0C3
:104F80000E94522A8091E8008E778093E80008956D
:104F9000CF93DF9320912901222339F02091CC0275
:104FA00027FF03C060E224E002C068E021E0209314
:104FB000E9002FEF3091E800215035FD06C035EDB6
:104FC0003A95F1F700002111F5CF2091E80025FF77
:104FD0001DC0EC0180912901811105C040E050E025
:104FE00068E070E003C070E040E050E0CE010E9455
:104FF000522A8091E8008E778093E80080E2FE01DB
:10500000AAEAB2E001900D928A95E1F7DF91CF9183
:1050100008958093A7027093A9026093A8028091DB
:1050200009038430F9F48093E9008FEF9091E80050
:10503000815095FD06C095ED9A95F1F7000081111C
:10504000F5CF8091E80085FF0DC040E050E063E0BF
:1050500070E087EA92E00E94522A8091E8008E7701
:105060008093E8000895BC0184E00E940928089517
:10507000BC0183E00E9409280895CF93603219F59E
:10508000209109032430F9F4C091E900CF703091E8
:10509000EC00232F217030FD20E8C22B22E020936A
:1050A000E9002091E80020FF0BC040E050E060E202
:1050B00070E00E94522A8091E8008E778093E80089
:1050C000CF70C093E900CF910895809108038111BA
:1050D00009C00E94222C0E947F2C8091E2008460F3
:1050E0008093E20008951092080308950E94982684
:1050F00008956091050381E0611101C080E00E9484
:105100007F2608959091090381E0943009F080E0B2
:10511000609105030E948526089542E061EC81E0DC
:105120000E949B2B42E261EC84E00E949B2B42E2B6
:1051300061EC82E00E949B2B42E260EC83E00E94E3
:105140009B2B9091090381E0943009F080E06091FD
:1051500005030E948F26089580910B03833009F484
:1051600063C030F4813071F0823009F49DC008953D
:105170008A3009F489C08B3009F46EC0893009F097
:10518000ABC020C080910A03813A09F0A5C080918C
:10519000E800877F8093E80080910E0390910F03D1
:1051A000892B21F460E28AEA92E003C060E080E0AB
:1051B00090E070E00E94DC2A8091E8008B77809379
:1051C000E800089580910A03813209F085C080913A
:1051D0000E0390910F03009719F0029709F07CC01D
:1051E0008091E800877F8093E8008091E80082FD4D
:1051F00005C0809109038111F8CF6EC02091F300A2
:105200008091F20090E0922B029731F48091F100AE
:10521000813011F0863021F48091F1008093CA0230
:105220008091E8008B7754C080910A03813A09F09D
:1052300053C080910E0390910F03892B09F04CC04D
:105240008091E800877F8093E8008091E80080FFEC
:10525000FCCF8091290137C080910A038132E1F5AA
:1052600080910E0390910F03892BB1F58091E80096
:10527000877F8093E8000E94D02B80910C0380935D
:1052800029010E940F09089580910A03813221F5B6
:105290008091E800877F8093E8000E94D02B809166
:1052A0000D038093CB02089580910A03813AA1F403
:1052B0008091E800877F8093E8008091E80080FF7C
:1052C000FCCF8091CB028093F1008091E8008E7733
:1052D0008093E8000E94D02B089584B7877F84BF15
:1052E0000FB6F894A8958091600088618093600063
:1052F000109260000FBE90E080E80FB6F8948093A3
:105300006100909361000FBE0E94922608950E9452
:10531000222C0E947F2CE2EEF0E08081846080836A
:1053200078940E940A2F08958DE191E00E9447250C
:105330000895809109038530A9F48091090385308F
:1053400079F40E94F026809107038823B1F30E942C
:10535000AB26882391F30E943C2A0E940F09EDCFCF
:105360000E941B270895A0E2B0E0E9EBF9E20C945B
:10537000CB2F80910903843011F583E08093E900FD
:105380008091E80082FF1BC08091E80085FF0AC081
:1053900040E050E060E270E0CE0101960E94972A62
:1053A00091E001C090E08091E8008B778093E80065
:1053B000992329F060E2CE0101960E94961EA096E4
:1053C000E2E00C94E72F0E94E6290895292F332765
:1053D00023303105C9F060F42130310581F02230ED
:1053E000310509F041C08BE590E027EE35E040C083
:1053F00021323105E1F02232310531F135C082E14F
:1054000090E022E436E034C099278130910549F0DC
:1054100028F0029749F5E3ECF5E005C0E3EEF5E08E
:1054200002C0E3EDF5E0849190E09F0121C063307C
:105430007105D0F4660F771FFB01E653FE4F208104
:10544000318189E090E014C06330710568F4FB019C
:10545000EE0FFF1FEC53FE4F20813181FB01EF5314
:10546000FE4F808190E004C080E090E020E030E0DA
:10547000FA0131832083089580E189BD82E189BDED
:1054800009B400FEFDCF8091D8008F7D8093D800B5
:105490008091E00082608093E0008091E00081FDD7
:1054A000FCCF0895A0E0B0E0E8E5FAE20C94C52F47
:1054B000EC018B017A010E94EF2B811133C0E114C2
:1054C000F10439F0F70180819181081B190BC80F95
:1054D000D91FC12CD12C0115110519F18091E800BB
:1054E00085FD16C08091E8008E778093E800E11476
:1054F000F10449F0F70180819181C80ED91ED18253
:10550000C08285E00FC00E94EF2B882321F30AC0E0
:1055100089918093F10001501109FFEFCF1ADF0A42
:10552000DACF80E0CDB7DEB7E8E00C94E12FA0E061
:10553000B0E0EDE9FAE20C94C52FEC018B017A01A1
:105540000E94EF2B811133C0E114F10439F0F7010F
:1055500080819181081B190BC80FD91FC12CD12C38
:105560000115110519F18091E80085FD16C08091A3
:10557000E8008B778093E800E114F10449F0F7012B
:1055800080819181C80ED91ED182C08285E00FC072
:105590000E94EF2B882321F30AC08091F1008993A8
:1055A00001501109FFEFCF1ADF0ADACF80E0CDB743
:1055B000DEB7E8E00C94E12F209110033091110345
:1055C0002617370748F06115710539F42091E80076
:1055D0002E772093E80001C0B901FC0120E061159D
:1055E000710579F1809109038823F1F18530F1F19A
:1055F0008091E80083FD3CC08091E80082FD2EC0D0
:105600008091E80080FFEBCF2091F3008091F200C1
:1056100090E0922B6115710551F08830910538F4B6
:1056200021912093F100615071090196F3CF21E09F
:10563000089709F020E08091E8008E778093E800D9
:10564000CECF2111CFCF0AC080910903882361F00A
:10565000853061F08091E80083FD0AC08091E80008
:1056600082FFF2CF80E0089582E0089583E00895FC
:1056700081E0089520911003309111032617370718
:1056800048F06115710539F42091E8002E772093D8
:10569000E80001C0B901FC0120E06115710591F13C
:1056A00080910903882309F440C0853009F43FC084
:1056B0008091E80083FD3DC08091E80082FD2FC00D
:1056C0008091E80080FFE9CF2091F3008091F20003
:1056D00090E0922B6115710559F08830910540F4E6
:1056E00024912093F1003196615071090196F2CF17
:1056F00021E0089709F020E08091E8008E77809300
:10570000E800CBCF2111CCCF0AC0809109038823B8
:1057100061F0853061F08091E80083FD0AC08091DE
:10572000E80082FFF2CF80E0089582E0089583E0F0
:10573000089581E00895982F973068F59093E900D7
:10574000981739F07091EC002091ED005091F00025
:1057500003C0242F762F50E021FD02C09F5FECCFC5
:105760003091EB003E7F3093EB003091ED003D7FB8
:105770003093ED003091EB0031603093EB0070938B
:10578000EC002093ED005093F0002091EE0027FDF7
:10579000E5CF80E008958F708093E90081E008955F
:1057A00080910A0387FF11C08091E80082FD05C047
:1057B000809109038111F8CF11C08091E8008B77A7
:1057C0000BC080910903882349F08091E80080FF95
:1057D000F8CF8091E8008E778093E80008952091BB
:1057E000E4003091E50095E64091EC00842F817053
:1057F00040FF23C08091E80080FD1DC08091090317
:10580000882399F0853099F08091EB0085FD11C0D7
:105810004091E4005091E5002417350729F3915099
:1058200011F09A01E1CF84E0089582E0089583E0C9
:10583000089581E0089580E008954091E80042FFD6
:10584000DDCF08950E94912C0E94992CE0EEF0E0AB
:10585000808181608083E8EDF0E080818F778083B4
:1058600019BCA7EDB0E08C918E7F8C9380818F7EE8
:1058700080831092080308950F931F93CF93DF93B3
:105880000E94912C0E94992CC8EDD0E088818F77DE
:10589000888388818068888388818F7D888319BC0C
:1058A0001092090310920503109207031092060349
:1058B00000EE10E0F80180818B7F80838881816019
:1058C000888342E060E080E00E949B2BE1EEF0E004
:1058D00080818E7F8083E2EEF0E080818160808332
:1058E000808188608083F80180818E7F80838881B9
:1058F00080618883DF91CF911F910F910895E8ED2A
:10590000F0E080818F7E8083E7EDF0E08081816030
:10591000808384E082BF81E0809308030E943C2C56
:105920000895E8EDF0E080818E7F80831092E200A0
:1059300008951092DA001092E10008951F920F92DC
:105940000FB60F9211242F933F934F935F936F9352
:105950007F938F939F93AF93BF93EF93FF93809128
:10596000E10082FF0BC08091E20082FF07C08091BE
:10597000E1008B7F8093E1000E94092F8091DA0083
:1059800080FF1FC08091D80080FF1BC08091DA008B
:105990008E7F8093DA008091D90080FF0DC080E176
:1059A00089BD82E189BD09B400FEFDCF81E080930D
:1059B00009030E94652805C019BC109209030E94C2
:1059C00073288091E10080FF19C08091E20080FF80
:1059D00015C08091E2008E7F8093E2008091E2000A
:1059E00080618093E2008091D80080628093D8002B
:1059F00019BC85E0809309030E9479288091E10019
:105A000084FF30C08091E20084FF2CC080E189BD1A
:105A100082E189BD09B400FEFDCF8091D8008F7D61
:105A20008093D8008091E1008F7E8093E100809187
:105A3000E2008F7E8093E2008091E200816080939B
:105A4000E20080910503882311F084E007C0809173
:105A5000E30087FD02C081E001C083E08093090379
:105A60000E9482288091E10083FF29C08091E2009A
:105A700083FF25C08091E100877F8093E10082E071
:105A800080930903109205038091E1008E7F80933B
:105A9000E1008091E2008E7F8093E2008091E2003D
:105AA00080618093E20042E060E080E00E949B2BF6
:105AB0008091F00088608093F0000E947628FF912A
:105AC000EF91BF91AF919F918F917F916F915F9176
:105AD0004F913F912F910F900FBE0F901F901895EF
