:100000000C94BF030C94F7030C94F7030C94F703C0
:100010000C94F7030C94F7030C94F7030C94F70378
:100020000C94F7030C94F7030C94FC2C0C94CE2D39
:100030000C9486270C94F7030C94F7030C94F703A5
:100040000C94F7030C94F7030C94F7030C94F70348
:100050000C94F7030C940F280C94F7030C94F703FB
:100060000C94F7030C94F7030C94F7030C94F70328
:100070000C94F7030C94F7030C94F7030C94F70318
:100080000C94F7030C94F7030C94F7030C94F70308
:100090000C94F7030C94F7030C94F7030C94F703F8
:1000A0000C94F7030C94F7030C94F703EE06EE069A
:1000B0001A071A077B079907770877089E0706082B
:1000C00017081708B31BB61BBB1BC21BC71BCC1BD7
:1000D000D11BD61BDB1BE01BE51BEA1BEC1BEF1B3C
:1000E000F21BF51BF81BFB1BFD1B001C041C731EE5
:1000F000E51E7B1E451E491E7F1E4C1E821E8D1E48
:10010000571EDB1E5B1E911E5F1E951EBF1E631ECB
:10011000991EC91E691E9F1EA91E501E861E531EB3
:10012000891E6E1EA41EB51ED51ED71E411E771E2B
:10013000EE1E4023462334233A234C2352235823D4
:10014000E124E4241B252E2536254125442544257C
:1001500044258C258C2549254C2551255E256B256C
:100160006E2572257F25362E5D2E552F5D2E552F3F
:10017000A92ECC2E552F232F322F290014001A0020
:100180000800150017001C0018000C0012001300D6
:100190002A00E00004001600070009000A000B0016
:1001A0000D000E000F0000002800E10000001D00FF
:1001B0001B00060019000500110010003600370072
:1001C00021520000E300E6002C00000000002C009B
:1001D00000002C000000E600E700007C01000100A8
:1001E0000100010001000100010001000100010007
:1001F00001000100010001000100010001000100F7
:1002000001000100010000000100010000000100E8
:1002100001000100010001000100010001000100D6
:1002200001000000010001000100000000000100C9
:1002300000000100000001000100010001000100B8
:1002400001000100010001000100010001000100A6
:100250000100010001000100010001000100010096
:100260000100010001000000010001000000010088
:100270000100010001000100010001000100010076
:100280000100000001000100010000000000010069
:100290000000010000000100010001000100010058
:1002A0000100010001000100010001000100010046
:1002B0000100010001000100010001000100010036
:1002C0000100010001000000010001000000010028
:1002D0000100010001000100010001000100010016
:1002E0000100000001000100010000000000010009
:1002F000000001000000010001001E0F0500047F46
:100300003F1F643214643214783C1E1E140A052206
:1003100023252628292A2C2D2F3032333536383AFA
:100320003B3D3E4042434547494A4C4E5051535550
:1003300057595A5C5E6062646668696B6D6F717371
:100340007577797B7D7F81838587898A8C8E909272
:100350009496989A9C9E9FA1A3A5A7A8AAACAEAF7D
:10036000B1B3B4B6B8B9BBBCBEBFC1C2C3C5C6C7C2
:10037000C9CACBCCCDCED0D1D2D2D3D4D5D6D7D773
:10038000D8D9D9DADADBDBDBDCDCDCDCDCDDDDDDBB
:10039000DDDCDCDCDCDCDBDBDBDADAD9D9D8D7D7B7
:1003A000D6D5D4D3D2D2D1D0CECDCCCBCAC9C7C664
:1003B000C5C3C2C1BFBEBCBBB9B8B6B4B3B1AFAEA2
:1003C000ACAAA8A7A5A3A19F9E9C9A989694929048
:1003D0008E8C8A89878583817F7D7B797775737120
:1003E0006F6D6B6968666462605E5C5A59575553FD
:1003F00051504E4C4A4947454342403E3D3B3A38B6
:1004000036353332302F2D2C2A292826252322FF5A
:10041000AA7F554000010101010101010101020211
:1004200002020202020202030303030303030304A2
:10043000040404040404050505050506060606066D
:10044000070707070708080808090909090A0A0A27
:100450000B0B0B0C0C0C0D0D0D0E0E0E0F0F0F10C9
:100460001011111112121313141415151616171753
:10047000181819191A1A1B1B1C1D1D1E1E1F2020BF
:10048000212222232424252626272829292A2B2C09
:100490002D2D2E2F30313232333435363738393A2C
:1004A0003B3C3D3E3F404142434445464748494A24
:1004B0004C4D4E4F50515354555658595A5B5D5EF2
:1004C0005F616264656668696B6C6D6F707273758D
:1004D00077787A7B7D7E8082838587888A8C8E8FF1
:1004E00091939596989A9C9EA0A2A3A5A7A9ABAD1F
:1004F000AFB1B3B5B7BABCBEC0C2C4C6C9CBCDCF0D
:10050000D1D4D6D8DBDDDFE2E4E7E9EBEEF0F3F5BA
:10051000F8FAFDFF00000000000000002A2B280070
:1005200000000000000000000000000000000029A2
:10053000000000002C1E3420212224342627252EE2
:10054000362D3738271E1F2021222324252633331A
:10055000362E37381F0405060708090A0B0C0D0E46
:100560000F101112131415161718191A1B1C1D2F12
:100570003130232D350405060708090A0B0C0D0E32
:100580000F101112131415161718191A1B1C1D2FF2
:100590003130354C00000000000000000000000079
:1005A000000000000000000000000000000000004B
:1005B00000000000000000007E0F00D4FFFFFFC716
:1005C000000000780E034E006500750072006F0099
:1005D0006E0000001A03570061006C006C0065009B
:1005E00074006200750072006E0065007200000009
:1005F0000403090409025B00030100A0FA090400D6
:10060000000103010100092111010001224400073A
:10061000058103080001090401000203000000092C
:100620002111010001222200070582032000010799
:100630000503032000010904020001030000000972
:10064000211101000122B6000705840320000112D8
:10065000010002000000084257756E01000102000F
:10066000010660FF0961A1010962150026FF0095DE
:1006700020750881020963150026FF009520750882
:100680009102C005010902A10185020901A100052D
:100690000919012908150025019508750181020530
:1006A00001093009311581257F95027508810609F8
:1006B000381581257F950175088106050C0A3802D9
:1006C0001581257F950175088106C0C00501098047
:1006D000A101850319012AB700150126B70095016C
:1006E00075108100C0050C0901A101850419012ABA
:1006F000A002150126A002950175108100C0050118
:100700000906A1018506050719E029E7150025015D
:100710009508750181020507190029EF15002501CB
:1007200095F07501810205081901290595057501E6
:100730009102950175039101C005010906A101050A
:100740000719E029E7150025019508750181029533
:1007500001750881010507190029FF150026FF0012
:100760009506750881000508190129051500250160
:10077000950575019102950175039101C000112441
:100780001FBECFEFDAE0DEBFCDBF04B603FE18C058
:1007900080911C0390911D03A0911E03B0911F0333
:1007A0008730904BA740B04B59F410921C03109225
:1007B0001D0310921E0310921F03E0E0F8E3099559
:1007C00011E0A0E0B1E0EAEFF2E602C005900D9280
:1007D000A23FB107D9F723E0A2EFB1E001C01D921B
:1007E000AC31B207E1F70E94BA130C947B310C9440
:1007F00000008430B0F46430A0F44C3090F490E306
:10080000899FF00111248CE0689FE00DF11D1124F7
:10081000E40FF11DEE0FFF1FE658FE4F85919491F6
:10082000089581E090E0089581E0089581E00895C1
:100830000E94160408950E94180408950E94160448
:10084000089508950E9421040895A6E0B0E0EBE227
:10085000F4E00C94263049835A839E833091F90149
:1008600089819A81311115C03E81332359F02223A9
:1008700049F00E94110A182F682F89819A810E94DD
:10088000ED0903C00E94FF09182F69817A81812F29
:1008900004C00E94110A69817A810E946D11269616
:1008A000E3E00C944230FC01262F408151816281AB
:1008B0007381848195810E9425040895CF93DF93ED
:1008C000EC0161E00E945304BE010E941B04DF9111
:1008D000CF910895CF93DF93EC0160E00E94530421
:1008E000BE010E942204DF91CF91089581E0089516
:1008F0000E9476040895CF93C82F0E94E8088C2F99
:100900000E9478042FEF84E39CE0215080409040C7
:10091000E1F700C00000CF91089581E00E947B04C0
:100920000E943528089580E00E947B040E94592887
:1009300008950F931F93CF93DF938C0161E00E9482
:100940005304EC01F801858181110E947D1BB801DF
:10095000CE010E942424882399F1B801CE010E947F
:100960001E04882369F1B801CE010E942823882340
:1009700039F1B801CE010E941D1E882309F1B8018A
:10098000CE010E94F31D8823D9F0B801CE010E9448
:100990009D1B8823A9F0B801CE010E946B238823F8
:1009A00079F0F8018581882349F1C330FCE7DF073E
:1009B000D9F060F4C115ECE7DE0721F40E948D0444
:1009C00080E01FC0C130DC4789F018C0CB358CE710
:1009D000D80791F0CC35ECE7DE0759F0CA35DC4793
:1009E00069F40E94980E0AC00E94A00E0E9493040F
:1009F000E7CF0E948E0E02C00E949C0EC8010E948A
:100A00001404DF91CF911F910F9108950E945E27EA
:100A10000E942D0508950E9431050E9467270895C0
:100A2000089581E008950895CF93DF93D82F0E9411
:100A30001105C82F882319F08D2F0E9413058C2FC4
:100A4000DF91CF9108950895CF93C82F0E9410058C
:100A50008C2F0E941405CF91089580E00E942405F8
:100A600008950E949C250E9424050895CF930E941A
:100A70009C25C82F8091F401C81779F0C093F40128
:100A80000E94F4276093F5017093F6018093F701BB
:100A90009093F8018C2F0E942405CF910895ADE02A
:100AA000B0E0E5E5F5E00C942730488759876A8780
:100AB0007B878C879D8791110E949A0DCE010196AC
:100AC00027E0FC0111922A95E9F726E0FE0138960D
:100AD000DC0101900D922A95E1F72D8121110AC0C8
:100AE00029813A814B815C816D817E818F810E9459
:100AF000E40C04C00E945E048111F2CF2D96E2E066
:100B00000C944330FC012481213021F480819181B7
:100B10000E943E0A0895662319F00E948D1F02C0AC
:100B20000E94FE1F0E9475200895CF93882309F428
:100B300088C0C82F8238A1F40E94A92581FD81C0F8
:100B400089E30E94C4260E94210E2FEF87EE93E0D6
:100B5000215080409040E1F700C0000089E315C0BB
:100B60008338C1F40E94A92580FD6BC083E50E94F3
:100B7000C4260E94210E2FEF81EE94E02150804088
:100B80009040E1F700C0000083E50E94DB260E9450
:100B9000210E57C08438A1F40E94A92582FD51C0BE
:100BA00087E40E94C4260E94210E2FEF81EE94E07C
:100BB000215080409040E1F700C0000087E4E5CF7D
:100BC0008CEF8C0F813A70F48C2F0E943B26882387
:100BD00029F08C2F0E94DB260E94210E8C2F0E9470
:100BE000C426D5CF80E28C0F883048F4C77081E0EE
:100BF00001C0880FCA95EAF70E947D0DC8CFEBE5CA
:100C0000EC0FE33040F4F0E0E959FE4F808190E0D2
:100C10000E94D32516C0E8E5EC0FEB3150F4F0E06C
:100C2000EE0FFF1FEF5CFE4F808191810E94F8253F
:100C300008C083E38C0F833120F461E08C2F0E9485
:100C40008B05CF910895882309F456C0823859F452
:100C50000E94A92581FF50C089E30E94C4260E94FA
:100C6000210E89E30CC0833879F40E94A92580FF06
:100C700043C083E50E94C4260E94210E83E50E94A2
:100C8000DB260E94210E0895843859F40E94A9257C
:100C900082FF32C087E40E94C4260E94210E87E4AE
:100CA000EECF9CEF980F913A50F390E2980F983066
:100CB00050F4877091E001C0990F8A95EAF7892F67
:100CC0000E94830DDECF9BE5980F933028F480E0DF
:100CD00090E00E94D325089598E5980F9B3128F461
:100CE00080E090E00E94F825089593E3980F9331F7
:100CF00018F460E00E948B0508951F93CF93DF9353
:100D0000182FEB010E949505209741F08FE99FE095
:100D10000197F1F700C000002197F6CF812F0E94C4
:100D20002306DF91CF911F910895893319F060E078
:100D300070E002C060E570E00E947D06089588239F
:100D400021F00E947D0D0E94210E0895882321F03C
:100D50000E94830D0E94210E0895A0E0B0E0E3EB15
:100D6000F6E00C9421307C01162FC72FFC01D581B1
:100D7000068102950F700E94730D8823F9F0DD2320
:100D8000E9F08C2F807F803461F080E2810F883021
:100D9000A8F08C2F807E803221F4123078F000236E
:100DA00069F08091EF0282FF09C082E00E94620E2A
:100DB0000E94730D91E0D82ED92601C0D12CCC2EE3
:100DC000C2948FE0C8228C2D90E08C30910508F001
:100DD0008EC1FC01EA5AFF4F0C94D92F8C2F807FD3
:100DE000CF70882311F0C295C07FDD2399F0CC230A
:100DF00009F469C180E2810F883010F0111104C03C
:100E00008C2F0E947D0D03C08C2F0E948D0D0E949F
:100E1000210E59C1812F0E942306CC2309F467C1FA
:100E200080E2810F883038F1112329F18C2F0E9444
:100E3000930D24C08C2F807FCF70803211F0C2952B
:100E4000C07F112319F0113099F13CC08091EF025D
:100E500082FD17C0DD2349F0CC2329F08C2F0E949E
:100E60007D0D0E94210E80E02FC180E00E942306AC
:100E7000CC2309F43CC18C2F0E94830D0E94210ECB
:100E800036C1DD2349F0002309F1013009F02FC1FB
:100E90008C2F0E94A40D2BC1011129C18C2F0E94FF
:100EA000A6068C2F0E94B00D8C2F0E94350E1FC1FC
:100EB000DD2321F0063008F01AC108C0053008F023
:100EC00016C115C0DD2331F00111FDC08C2F0E9429
:100ED0009F060DC1002359F0193309F005C1FFEF3A
:100EE00027EE83E0F15020408040E1F7FBC08C2FDB
:100EF0000E94A606FCC08C2F86958695837019F0FB
:100F0000813061F0F4C0DD2321F0812F9C2F93709C
:100F100002C080E090E00E94D325F1C0DD2321F0E3
:100F2000812F9C2F937002C080E090E00E94F825F2
:100F3000E6C06D2F812F0E948B05E1C08C2F83703E
:100F400079F5D111D8C0412F429546954770440F8D
:100F5000440F212F2F70042E01C0220F0A94EAF7AC
:100F600014FF08C08FE090E001C0880F4A95EAF7AF
:100F7000809501C080E0C695C695C370822BC230B3
:100F800049F058F4C13019F00E943F09B4C00E94E2
:100F90003909B1C00E944509AEC00E943609ABC0F4
:100FA000DD2319F08C2F817001C08695882309F408
:100FB000A2C0412F429546954770440F440F212F00
:100FC0002F70042E01C0220F0A94EAF714FF08C004
:100FD0008FE090E001C0880F4A95EAF7809501C044
:100FE00080E0C695C695C370822BC23049F058F494
:100FF000C13019F00E948B097EC00E9485097BC018
:101000000E94910978C00E944E0975C0CF70DD23FF
:1010100039F08C2F0E946009812F0E949F066BC0BF
:10102000812F0E94A6068C2F0E946C0964C0123F7B
:1010300021F128F4103F41F0113FC1F040C0133FAF
:1010400019F1143F79F03BC0DD2341F0053008F081
:101050004EC08C2F8F710E94790949C0063008F06C
:1010600046C0F7CF8091EF0282FD18C0DD2339F032
:101070008C2F8F710E9460093AC0DD23C9F38C2F39
:101080008F710E946C0933C0DD2329F08C2F8F7182
:101090000E9457092CC00E94530929C0DD2331F05A
:1010A00063E08C2F8F710E94440E21C081E00E946A
:1010B000620E0230E0F082E00E94620E18C0DD2372
:1010C00031F00023A9F2812F0E94950510C0002362
:1010D000B1F2193349F49FEFE7EEF3E09150E040AD
:1010E000F040E1F700C00000812F0E94230688EF46
:1010F0008C0D843020F40E949C250E942405DD2064
:1011000089F00E946F0D80FD0DC0F70115820E94CD
:10111000690D0E946009C7010E94AF080E94690D15
:101120000E946C09CDB7DEB7E8E00C943D300F9318
:101130001F93CF93DF93EC01688179818D810E94A9
:10114000490A8C010E9497090E942909B801CE0121
:101150000E94AD06DF91CF911F910F910895CF931B
:10116000DF93FC0124812223D1F0EC010E94990439
:1011700081110FC00E94730D882389F08D8188230F
:1011800071F08091EF0282FF0AC082E00E94620E3D
:1011900006C0CE010E949708CE010E946A04DF912A
:1011A000CF91089580E090E00E94D32580E090E008
:1011B0000E94F8250E949A0D0E94210E0E94942000
:1011C0000E94752008950E94F2260E94D208089578
:1011D0000E948A0D0E94E308089592959F709630B0
:1011E00079F010F4925001C09A50923068F4803F28
:1011F00069F018F4883E40F409C0843F29F406C021
:10120000883E20F0813F11F080E0089581E008954C
:10121000FC012481222339F0808191810E943E0AC1
:101220000E94ED08089580E00895A6E0B0E0EBE1AB
:10123000F9E00C9427302696E2E00C944330A7E0C6
:10124000B0E0E5E2F9E00C9427302796E2E00C9458
:101250004330089508950E942A0908950E942B0999
:1012600008950E942E0980930D0208950E9431096D
:10127000089590910D02892B0E9431090895909153
:101280000D0289230E943109089590910D0289274A
:101290000E94310908950E942A0908950E944B096D
:1012A00080930C02089580E00E944E09089591E019
:1012B00001C0990F8A95EAF7892F0E944E09089577
:1012C00021E030E001C0220F8A95EAF780910C02FC
:1012D000822B0E944E09089521E030E001C0220FC8
:1012E0008A95EAF7209580910C0282230E944E098C
:1012F000089521E030E001C0220F8A95EAF780913D
:101300000C0282270E944E09089590910C02892BAD
:101310000E944E09089590910C0289230E944E0963
:10132000089590910C0289270E944E09089508950E
:10133000962F9770A1E001C0AA0F9A95EAF793E063
:10134000769567959A95E1F7FB01EE0FFF1F6E0FFB
:101350007F1FFA01E60FF71F40E050E0682F70E0B2
:1013600090819B01042E02C0369527950A94E2F7DE
:101370002170219529272A23292721934F5F5F4F29
:101380004330510569F708959B01782F777043E04A
:10139000969587954A95E1F7FC01EE0FFF1F8E0F9A
:1013A0009F1FF901E80FF91F40E050E080E0219114
:1013B00030E0072E02C0369527950A94E2F7217097
:1013C0003327042E01C0220F0A94EAF7822B4F5FC5
:1013D0005F4F4330510559F70895282F943070F42A
:1013E0008C3060F4862F622F70E02CE0929F600DAD
:1013F000711D11244AEF51E00E949809089594301C
:1014000070F48C3060F4292F90E06AEF71E03CE0DA
:10141000239F800D911D11240E94C409089580E02E
:101420000895CF92DF92FF920F931F93CF93DF9394
:101430006C0100910C0280910D02082BC3E0D0E0FA
:1014400010E0C8010C2E02C0959587950A94E2F72A
:1014500080FD04C02197A8F7F12C07C0FC2EB6012F
:101460008C2F0E9479110197A9F38F2DDF91CF91D5
:101470001F910F91FF90DF90CF900895CF93DF934E
:10148000EC010E94110ABE010E947911DF91CF91F7
:1014900008951F93CF93DF93EB019091F901992366
:1014A00021F0CB010E943E0A13C0882349F0CB01F2
:1014B0000E94110A182F682FCE010E94ED0904C066
:1014C000CB010E94FF09182FBE01812F0E947911C4
:1014D000DF91CF911F910895E1E0F0E0DF0102C0BC
:1014E000AA0FBB1F6A95E2F7BD01DF0102C0AA0F78
:1014F000BB1F4A95E2F7AD01462B01C0EE0F2A95BE
:10150000EAF7942F9823491302C08E2B0895E09593
:101510008E230895242F462F682F80910C020E945D
:101520006C0A0E944E0908951F93CF93DF93C091D8
:101530000E0217E080910F02C817A1F0D0E01C9FA7
:10154000F0011D9FF00D1124E05FFD4F20813181DE
:10155000428153816481758186810E941F09219691
:10156000C770E8CFDF91CF911F9108952091480275
:101570003091490240914A0250914B0260914C02D5
:1015800070914D0280914E020E941F090895CF93E1
:10159000DF9380914E0282958F7009F04EC080914A
:1015A0004D02882309F449C080910E0240910F0238
:1015B0005091490260914802C0914A02D0914B0279
:1015C00077E08417D1F190E0789FF001799FF00DDA
:1015D0001124DF01A05FBD4F14962C911497222394
:1015E00049F111962C911197251324C02C912613A3
:1015F00021C015962C91159721111CC012962D9182
:101600003C9113972C1B3D0B283C310598F480919D
:101610004E028F70806180934E02EA5EFD4F8081A2
:101620008F708061808388E492E00E94AF080E94FE
:10163000940A03C001968770C4CFDF91CF910895BB
:1016400020910E0290910F0257E02917A9F030E087
:10165000529FF001539FF00D1124E05FFD4F718107
:10166000761306C07081781303C07581741306C0A9
:101670002F5F3F4F2770E9CF80E0089581E0089504
:10168000A4E1B0E0E6E4FBE00C941D308C0186E0C0
:10169000F801DE011F9601900D928A95E1F7F8019D
:1016A0008481E58098E4A92E92E0B92E90914C02B5
:1016B000911118C0882309F480C1EE20D9F1C80126
:1016C0000E940809F82E8823A9F187E0F801D501C6
:1016D00001900D928A95E1F7C5010E9482050E9452
:1016E000C70A98C0F801C080D18082809380F090B2
:1016F0004D0220914A0230914B02A401421B530B30
:10170000FF2009F406C1483C510508F0AFC088230A
:1017100009F455C180914E02282F207F90914902F3
:10172000222361F09D1509F462C0C8010E940809D6
:10173000811173C0C8010E94AF083FC19D1115C03F
:10174000909148029C1111C0E1100FC08F70806110
:1017500080934E020E94B60A88E492E00E94AF088D
:1017600080914E02F801868326C1E1103AC040E024
:101770006D2D8C2D0E94200B40E06D2D8C2D0E9434
:10178000200BE82E811117C1CF86D88A8F859889C2
:101790000E943E0A292F22952F70243020F49F703A
:1017A000223028F009C02A50223080F014C099233A
:1017B00049F0811107C013C0992321F0F8019681E7
:1017C000907F69F0805E883030F409C0803F38F047
:1017D000815F833020F0C8010E94AF08EF2CFE2CFF
:1017E000EEC080914E02816080934E02E4C09091E1
:1017F00048029C119ACFE11098CFF8018683C80166
:101800000E94AF0887E0F801A8E4B2E001900D92D1
:101810008A95E1F70E94B60AD2C0EE2009F48ACF79
:1018200020914E02822F82958F7090E002978CF06B
:101830008091480290914902998788879B868A8681
:1018400080914C028C871D862E87CE0108960E94BF
:10185000AF0887E0F801A8E4B2E001900D928A9504
:10186000E1F70E94C70A0E94B60AA7C090914E02F3
:10187000292F207FA1F4682D9A8A898AA6017A8966
:101880009E2D0E94150988E492E00E94AF0887E02F
:10189000F50111928A95E9F70E94B60A8CC0882357
:1018A00009F48DC0809149028D1111C080914802C8
:1018B0008C110DC0E1100BC0F8019683C8010E9485
:1018C000AF0887E0F50111928A95E9F778C0C80161
:1018D0000E940809882309F42DCFEE2009F42ACFAD
:1018E00020914E02822F82958F7090E002970CF427
:1018F000B0CF80914802909149029A8389839C825B
:101900008B8280914C028D831E822F83CE010196A3
:101910009ECF483C510508F040C0882309F44DC0D3
:10192000FE2CEE2009F406CF809149028D1127C0CC
:10193000809148028C1123C090914E0290FD16C0F8
:10194000892F82958F70282F30E02115310571F095
:10195000F80196832F30310509F451CF8F5F982F0E
:101960009295907F86818F70892B48CF87E0F80110
:10197000A8E4B2E001900D928A95E1F720C0C80179
:101980000E940809811165CF80914E028160809389
:101990004E02C8010E94AF0812C0682D9A8A898A37
:1019A000A6017A899E2D0E94150987E0F501119202
:1019B0008A95E9F72FCFF12C02C0FF24F3948F2DE5
:1019C0006496ECE00C943930AEE0B0E0EAEEFCE076
:1019D0000C942630288739874A875B876C877D87F8
:1019E0008E87CE0108960E94400B882361F06C859B
:1019F0006623A9F1288539854A855B857D858E8595
:101A00000E941F092CC087E0FE013896DE01119666
:101A100001900D928A95E1F76C85662301F1209182
:101A20000F0230E0C90101968770992740910E029C
:101A300050E084179507E1F16D8397E0929FD00104
:101A4000939FB00D1124A05FBD4FFE013196019010
:101A50000D929A95E1F780930F020E94940A17E085
:101A600080910E0290910F02891779F1189FC001A1
:101A70001124805F9D4F0E94400B882331F1E0913B
:101A80000E021E9FF0011124E05FFD4F2081318185
:101A9000428153816481758186810E941F098091F2
:101AA0000E0290E001968770992780930E02D8CF9E
:101AB0000E94E80810920F0210920E02E8E4F2E091
:101AC00087E0DF011D928A95E9F72E96E3E00C94FA
:101AD000423080917702869586958695089580910B
:101AE00077028770089590917702977081E009F4EA
:101AF00080E008958091A30208959091A302892B1C
:101B00008093A302089580959091A30289238093E6
:101B1000A30208951092A30208959091A202892B26
:101B20008093A202089580959091A20289238093C8
:101B3000A20208951092A202089508950E949D0D98
:101B400008950E949E0D089590917902292F2823CF
:101B5000821729F0982B909379020E94A10D089585
:101B600090917902292F282331F080958923809341
:101B700079020E94A10D089580917902882329F0AD
:101B80001092790280E00E94A10D0895CF93C09138
:101B9000A3028091A202C82B80917902882331F0A0
:101BA000C82B0E941D2681110E94BC0D8C2FCF9145
:101BB0000895CF93DF93C0910601D09107010E9451
:101BC000C60D8883C0910601D091070148E050E01E
:101BD0006FE672E0CE010E94EE30892B59F088E06A
:101BE000FE01AFE6B2E001900D928A95E1F7CE01D9
:101BF0000E94AC25DF91CF910895CF93DF93C091E0
:101C00000401D09105010E94C60D8983C091040191
:101C1000D091050140E250E06FE472E0CE010E94F5
:101C2000EE30892B59F080E2FE01AFE4B2E0019082
:101C30000D928A95E1F7CE010E94B725DF91CF91F1
:101C4000089580913001882339F08091EE0287FF5A
:101C500003C00E94FD0D08950E94D90D08950E94B1
:101C60009D0D08950E942F0E089590917802292FBE
:101C7000282331F080958923809378020E94320EC8
:101C800008950E949D0D08959091EF0292FF11C05A
:101C900098E0899F90011124262B209377020E94BF
:101CA0006009809177028695869586950E94410EFF
:101CB00008950E94600908951092770280E00E94C2
:101CC000410E089590917702809589238093770241
:101CD000282F277069F4981759F09091EF0292FF1E
:101CE00007C08695869586950E946C090E945C0EB9
:101CF00008959091EF0292FB222720F9281769F0AE
:101D000080FB92F99093EF028091EE029091EF02A6
:101D10000E94C20E82E00E94620E08958091EF023E
:101D200082FB882780F991E089270E94790E089527
:101D300081E00E94790E089580E00E94790E089556
:101D40006FEF7FEF80E090E00E944631089580E0E1
:101D500090E00E941231853E9E4F19F40E94B623F6
:101D6000089580E0089582E090E00E940431089593
:101D700083E090E00E940431089584E090E00E94A6
:101D800012310895BC0184E090E00E94463108952C
:101D9000AB01BC018FE090E00E943A310895AB01A5
:101DA000BC0183E190E00E943A31089560E070E068
:101DB000CB010E94CF0E089560E070E0CB010E943D
:101DC000C80E0E94D60E0895A8E0B0E0EAEEFEE04C
:101DD0000C94273065EE7EEF80E090E00E94463163
:101DE00060E082E090E00E94283181E080930D0263
:101DF00061E083E090E00E94283160E074E184E0DB
:101E000090E00E94463160E086E090E00E94283138
:101E100060E087E090E00E94283140E050E0BA01A5
:101E200088E090E00E943A3160E083E290E00E9416
:101E3000283160E08CE090E00E94283160E08DE085
:101E400090E00E94283119821A821B821C821D8216
:101E50001E821F82188648E050E067E170E0CE01E4
:101E600001960E94183140E050E0BA018FE190E005
:101E70000E943A3180E00E94CF230E9404240E94F5
:101E8000DC0E2896E2E00C9443300E94E40E0895A4
:101E9000682F8EE090E00E9428310895A6E0B0E01F
:101EA000E4E5FFE00C9425300E94E8278C01809146
:101EB000A4029091A5020817190781F019821A82CD
:101EC0000E94E827682F49815A81792F80E090E0AD
:101ED0000E944F051093A5020093A4022696E4E009
:101EE0000C9441300E94F4276093B2027093B302C5
:101EF0008093B4029093B5026093AE027093AF02E8
:101F00008093B0029093B102089581E0089581E03A
:101F100008950E94870F089508950E948C0F0895D8
:101F20000E948C0F08950E94900F08950E948C0FBC
:101F300008950E94960F08950E948C0F089589E6D7
:101F400092E10E94D1130E949C0F0E94990F089564
:101F50000E948D0F0E948C0F08950E94A70E811180
:101F600002C00E94450F0E94B30E8093B6020E94E9
:101F7000BD0E9093EF028093EE020E94591C0E94C6
:101F8000B80E0E94360980910C020E944B090895F8
:101F90000E94DF270E9414240E9429130E94AD0F83
:101FA0000E9423050E94881A0E94930F0895A6E0BC
:101FB000B0E0EDEDFFE00C941B300E94850F811125
:101FC00003C00E944E0F62C00E943F1326EAE22E19
:101FD00022E0F22E5701D12CF501019111915F0100
:101FE0008D2D0E946B1280279127D394F4E0DF1689
:101FF00019F0892B89F302C0892B19F38091B6025D
:1020000081FD0E9474120E94890F782E10E06624D0
:102010006394812F0E946B124C01F701A080B18064
:10202000A826B926A114B10449F100E0CC24C39438
:10203000D12CC5018C219D21892BC1F07720B1F0D5
:1020400009831A830E94E8279C838B836D8221E099
:10205000C4018C219D21892B09F420E049815A81FA
:102060006B817C818D81922F0E944F050F5FCC0C7C
:10207000DD1C0C30F1F6F701918280821F5FF2E0E7
:10208000EF0EF11C143029F60E94720F0E947E1B85
:102090000E94B6200E9436052696EEE00C9437305A
:1020A0001F93CF93DF930E947E11EC01C11580E551
:1020B000D807E8F5C11590E4D90708F0A8C0C03EDC
:1020C000D10530F5CD3CD10508F094C0C83AD10512
:1020D00078F4C53AD10508F083C0C130D10509F4C0
:1020E0007CC008F4F2C0C430D10508F0F1C0EDC0E6
:1020F000C33CD10508F0E9C0C85AD0E0CC0FDD1FC1
:10210000C659DE4F0990D881C02DCE019464E1C03C
:10211000C11580E2D80708F0CBC0C11591E0D907FE
:1021200008F06BC0C83ED10508F4D2C0CEC0C0369E
:1021300082E5D80728F5C03492E5D90708F079C0C0
:10214000C03282E5D80708F06CC0C11592E5D90706
:1021500008F481C04C2F4695469580E2489FA00127
:102160001124C37021E030E0C90102C0880F991F1B
:10217000CA95E2F7EA01C82BD92BCE019D68A9C008
:10218000C03A82E5D807B8F48C2F8F71C03892E539
:10219000D90708F07BC08695869590E2899F9001CB
:1021A0001124C37081E090E002C0880F991FCA9586
:1021B000E2F79A6868C0C03C82E5D80708F46DC0B1
:1021C000C03E92E5D90708F080C0CF71DD27DC2F33
:1021D000CC27CE01806F906A7CC081E090E079C00E
:1021E000C55AD0E0C056DE4F8881C82FD0E0CE015E
:1021F00090646FC0CE0190656CC08D2F0E941A1242
:10220000182FCE0199270E947E111F715CC0CE014C
:1022100099270E947E11CC27DF70D06A8C2B9D2BD2
:1022200058C0CF71D0E0DC2FCC27CE01816F906AEF
:1022300050C08C2F8F718695869590E2899F900172
:102240001124C37081E090E002C0880F991FCA95E5
:10225000E2F79C6818C08C2F8F710E941A1295E0CB
:10226000D695C7959A95E1F7CF70D0E0DC2FCC27B3
:10227000282F30E084FF05C084E0220F331F8A95A9
:10228000E1F7D069CE01822B932B23C090E0D82FA9
:10229000CC27CE01846F906A1CC08C2F8F710E9456
:1022A0001A128F7190E0D82FCC27CE01906211C006
:1022B0008D2F8F710E941A12182FCE0199270E941C
:1022C0007E111F719062912B04C080E090E001C0EC
:1022D000CE01DF91CF911F910895743038F46C30A6
:1022E00028F4462F672F0E940B1D089580E090E090
:1022F00008950E946D110E94501008958238910532
:1023000069F1B0F48133910509F475C048F489325C
:10231000910509F467C08A32910509F471C00895E6
:102320008533910509F459C089339105B9F00895B1
:10233000833E910589F138F4803E9105D1F0823ECB
:10234000910529F10895863E9105C9F1873E9105D1
:10235000D9F1843E910509F06CC027C02091EE02AE
:1023600020FD57C021FD55C02091EF0223FD5BC029
:1023700008958091EE0280FD48C08091EF0280FFB9
:1023800048C08091EE0284FD46C083EE51C080912A
:10239000EE0282FF3CC0F5CF8091EE0282FD37C095
:1023A0008091EF0280FD35C0ECCF8091EF0281FF7C
:1023B00036C08091EE0284FD2EC087EE39C0809138
:1023C000EE0283FF2AC0F5CF8091EE0283FD25C087
:1023D0008091EF0281FD23C0ECCF8091EE0285FD5C
:1023E00022C01FC08091EE0285FD1BC08091EF02CC
:1023F00083FF19C00AC08091EE0286FD16C017C087
:102400008091EE0286FD13C010C089E311C082EEF8
:102410000FC080EE0DC080E00BC086EE09C084EED8
:1024200007C085E305C089E203C08AE201C081E3F9
:1024300090E008959091EE0292FF10C041E0282FA5
:102440002471243009F040E031E0282F2871283031
:1024500009F030E0431711F02CE0822793FF10C001
:1024600041E0282F2471243109F040E031E0282F89
:102470002871283109F030E0431711F02CE0822751
:102480003091EF0230FF10C051E0282F2171213030
:1024900009F050E041E0282F2871283009F040E091
:1024A000541711F029E0822731FF10C041E0282F96
:1024B0002171213109F040E031E0282F28712831C5
:1024C00009F030E0431711F029E0822794FD877E60
:1024D000089580E00895E82FF0E0EE0FFF1FE85028
:1024E000FD4F808191810895089580EA8A95F1F7E2
:1024F000089500C008950E947512089508950E94DD
:102500007E1208950E947F1208950E947E120895FF
:102510000E9485120895F894E82FE295EF70F0E09C
:1025200031A1282F2F7081E090E001C0880F2A95FB
:10253000EAF7982F9095932391A392A1892B82A3D8
:10254000789408950F931F93CF93DF93CFEAD1E050
:1025500089918F3F11F00E948B1281E0C33BD80715
:10256000B9F7C3EAD1E00FEA11E089918F3F11F08A
:102570000E948B120C171D07C1F7DF91CF911F919D
:102580000F910895A0E0B0E0E8ECF2E10C94203067
:102590008C01C62FD0E0CE0181559E4F6C01FC010D
:1025A00090819F3F09F450C0B62EF894E92FE29530
:1025B000EF70F0E081A19F7021E030E001C0220FB8
:1025C0009A95EAF7822B81A382A12095282322A342
:1025D00078940E947912E3EAF1E04FEA51E021E0B9
:1025E00030E0E12CF12C61916F3F89F0A62FA2958C
:1025F000AF70B0E090968C9190E06F7002C09595AE
:1026000087956A95E2F780FD02C0C90102C080E0AB
:1026100090E0E82AF92A220F331F4E175F0719F7B7
:10262000F60180818F3F11F00E948B1261E0E1146E
:10263000F10409F460E08B2D0E947B12CC0FDD1FAA
:10264000C00FD11FF982E882CDB7DEB7E9E00C9464
:102650003C300E94A21288E0E8EFF2E0DF01982F00
:102660001D929A95E9F7E0EFF2E0DF011D928A955D
:10267000E9F784E00E947A130E9488120895A8E086
:10268000B0E0E5E4F3E10C9424308E010F5F1F4FBE
:1026900088E0F80111928A95E9F7F12C6F2DC801B5
:1026A0000E94C212F394F4E0FF12F8CF48E050E029
:1026B000B80180EF92E00E94EE3021E0009709F42B
:1026C00020E0892B41F088E0F801A0EFB2E0019012
:1026D0000D928A95E1F744E068EF72E080EF92E0B6
:1026E0000E947B13182F0E948212812F2896E5E00A
:1026F0000C9440300895EF92FF920F931F93CF9365
:10270000DF937C018B01C42F222351F081E0809361
:10271000B9020E94E8279093B8028093B70204C0E0
:102720008091B902811102C080E01CC08091B70283
:102730009091B8020E9400280597B0F3D0E0CC0F2A
:10274000DD1FAE01B701C8010E94EE30892B39F0C0
:10275000AE01B701C8010E94FB3081E001C080E0FA
:102760001092B902CDB7DEB7E6E00C943F300E947C
:10277000D70F08950E947F270E94F5290E949F0F7E
:102780000E940F2A0E94C80F0E941C2A0E94212A20
:102790000E94B7130E943B2A0E94BD280E94A80FE6
:1027A000F5CF9093F3018093F2010895EF92FF9299
:1027B0000F931F93CF93DF938B01682F11110AC0E2
:1027C000442329F0E82FF0E0EC5EFB4F6491762F74
:1027D000862F75C0212F30E0E82FF0E0442321F050
:1027E000EC5EFB4FE491F0E046E0049FC001112451
:1027F000CFEFD0E0BE010E948F2F4BEA4603C0010D
:10280000479F900D1124800F911D800F911D982FCF
:10281000990F890FAE01421B530B4E9FD0014F9F62
:10282000B00D5E9FB00D11249B2F189FA0011124A5
:10283000452F55278E01041B150B0E9FA0010F9FDE
:10284000500D1E9F500D11247E01E81AF108E29EE2
:102850008001E39E100DF29E100D1124212F3327CD
:10286000C21BD30BCE9F9001CF9F300DDE9F300D4A
:10287000112462307105A9F048F46115710569F001
:1028800061307105C9F48B2F752F0DC0643071054F
:1028900081F058F06630710579F47E2F8B2F932FDD
:1028A0000DC0832F7B2F9E2F09C08E2F7B2F952F3E
:1028B00005C08E2F732F02C07E2F852F692FCDB7B5
:1028C000DEB7E6E00C943F3041E00E94D613089555
:1028D00008950E9464140895CF93DF93762FE90141
:1028E000682F842F0E946914798368838A83DF911B
:1028F000CF91089580910003282F2695269530E0EA
:102900002115310519F48370846005C02B3231051F
:1029100024F08370886A809300030895A0E0B0E0FB
:10292000E4E9F4E10C94213088E090E00E940C315D
:102930006B017C0183E290E00E940431282F30E09B
:1029400040E050E060E070E080E090E000E20E9453
:102950004E30B22FA32FF42FE52FD62FC72F97017C
:102960008601BC29A12BF22B5E2F532B2B2F3A2F44
:102970004F2F6D2F7C2FCDB7DEB7E8E00C943D30A4
:10298000A0E0B0E0E6ECF4E10C941D3049015A01FE
:102990006B017C010E947A148401A4016A2D7B2DB5
:1029A00088E090E00E943A3194014A2D5B2DB601F7
:1029B000C70100E20E946930622F83E290E00E942A
:1029C0002831CDB7DEB7ECE00C943930E0E0F3E02D
:1029D0002081318142815381648175818681978113
:1029E0000E94C0140895E0E0F3E025E02083118206
:1029F0008FEF828383831482758130E04FEF5FEF26
:102A000060E0868197810E94C01408958091000340
:102A100080FF03C086958695089580E00895809193
:102A200000038170089590910403933018F49F5F20
:102A300090930403882391F02091000330910103C7
:102A400040910203509103036091040370910503C8
:102A500080910603909107030E94C014089581E0BD
:102A60000E941315089590910403992319F0915031
:102A700090930403882391F0209100033091010387
:102A80004091020350910303609104037091050388
:102A900080910603909107030E94C014089581E07D
:102AA0000E943315089580910403089580930403D0
:102AB000662389F0682F2091000330910103409133
:102AC00002035091030370910503809106039091D6
:102AD00007030E94C014089560E00E9456150895EF
:102AE000809101030895809102030895809103036A
:102AF000089560910C018091000380FF0FC08091C8
:102B00000B0170E023E0829FC0011124E091E001FD
:102B1000F091E101885F9C4F0995089580910D0126
:102B200090910E01891758F7E82FF0E09F01220FCE
:102B3000331FE20FF31FE85FFC4F118210821282F5
:102B40008F5FF0CF9091000390FF16C090910D0120
:102B500020910E01921770F4E92FF0E0DF01AA0F27
:102B6000BB1FEA0FFB1FE85FFC4F8183608342833A
:102B70009F5FF0CF0E9479150895A3E0B0E0E3ECE9
:102B8000F5E10C9427309091000390FF0AC09E015C
:102B90002F5F3F4F0E946C144B8169818A810E9494
:102BA000A2152396E2E00C944330CF93DF93EC011F
:102BB000EC81F0E0E15FFC4F4491E0E0F3E0628102
:102BC00081810E94BD158C818F5F8C83DF91CF91B5
:102BD0000895CF93DF93EC01E0E0F3E0438162815D
:102BE0008C810E94BD158C818F5F8C83DF91CF918A
:102BF0000895A3E0B0E0EFEFF5E10C9425308C01EF
:102C00008091BA0281110AC09E012F5F3F4F4FEFA2
:102C10006FEF0E946C148A818093BA02F80184815C
:102C2000813051F028F0823061F44091BA020AC03C
:102C30008091BA0240E007C06091BA0240E080E0B3
:102C400003C040E080E060E00E94A215F8018481AA
:102C500090E0019663E070E00E94A32F84832396A6
:102C6000E4E00C944130A3E0B0E0E9E3F6E10C9439
:102C70002030082FE62EF42ED22E9091000390FFE4
:102C80006CC0E92FE695E695AE2FB0E0AD54BE4F8F
:102C90008C918093C9029C7F943061F49E012F5FD8
:102CA0003F4F802F0E946C144B8169818A810E9462
:102CB000A2153DC0823019F4F090030338C086306D
:102CC00019F40091010333C08930D9F3893179F5C2
:102CD000E9518E2F8170C82EE695F0E0E15FFB4F41
:102CE0001491B12C60910F01B616F8F4B19EC00199
:102CF000112470E00E948F2F802FC11002C0860F18
:102D000001C0861B90910D012B2D30E0290F311D44
:102D1000A901440F551F240F351F285F3C4F4F2D2D
:102D20006E2D0E946C14B394DDCF0E947915009330
:102D30000103E0920203F0920303DD2071F0209181
:102D400000036091040370910503302FA701809167
:102D50000603909107030E94C0142396E9E00C94A7
:102D60003C30E0E0F3E09181282F4381628188E0EC
:102D7000890F0E943316089581E00E94B1160895CC
:102D8000E0E0F3E09181282F4381628188EF890F91
:102D90000E943316089581E00E94C0160895E0E075
:102DA000F3E0628128E0620F08F46FEF282F43817F
:102DB00081810E943316089581E00E94CF16089504
:102DC000E0E0F3E0628128E0621B08F460E0282F75
:102DD000438181810E943316089581E00E94E016AC
:102DE0000895E0E0F3E0438128E0420F08F44FEF5C
:102DF000282F628181810E943316089581E00E940C
:102E0000F1160895E0E0F3E0438128E0421B08F466
:102E100040E0282F628181810E943316089581E06D
:102E20000E940217089520E00E9433160895FF9231
:102E30000F931F93CF93DF93EC01F12C0FEF10E072
:102E400060910F01F616F0F480910D012F2D30E006
:102E5000280F311DC901880F991F280F391F285FBE
:102E60003C4F70E0C8010E94A32F962F8C814091A7
:102E7000030360910203F99E800D11240E946C14DB
:102E8000F394DECF0E9479159A818C8190FF02C065
:102E90008F5F01C081508C83CDB7DEB7E5E00C9425
:102EA0004030A0E0B0E0E7E5F7E10C942030FC0111
:102EB000828180FF02C00FEF01C001E010E080912D
:102EC0000F01181708F040C080910D01C12ED12CC0
:102ED000E601C80FD11DCE01880F991FC80FD91F59
:102EE000C85FDC4F198218821A8234E0E32EF12C7D
:102EF000B12C8091BC028B0D823034F487FF05C069
:102F000090910F01890F01C080E0082E000C990BF1
:102F1000C816D90691F4809103038E9DA0018F9D60
:102F2000500D112455954795559547959E016091F3
:102F30000203809101030E946C14B00EF1E0EF1ABD
:102F4000F108B9F61F5FBBCF0E9479158091BC02D2
:102F5000013031F4811102C080910F01815007C00E
:102F600090E0019660910F0170E00E94A32F809382
:102F7000BC02CDB7DEB7E9E00C943C30CF93809132
:102F80000D0190910E01891770F4E82FF0E09F0178
:102F9000220F331FE20FF31FE85FFC4F11821082F4
:102FA00012828F5FF0CFC0E060910F01C617C0F5AD
:102FB000EC2FF0E070E0CF010E94A32F20910D01D3
:102FC000820F2091BB02022E000C330B90E0E2171F
:102FD000F307CCF020910A01022E000C330B2E17C0
:102FE0003F078CF09C01220F331F820F931F9C011F
:102FF000285F3C4F409103036091020380910103DD
:103000000E946C140BC0FC01EE0FFF1F8E0F9F1F60
:10301000FC01E85FFC4F118210821282CF5FC4CFA7
:103020000E947915209109018091BB02820F809343
:10303000BB0290910A01920F90930A0119165CF459
:10304000082E000C990B40910F0150E0415051099E
:10305000841795071CF0219520930901CF910895BD
:10306000A0E0B0E0E6E3F8E10C941D308C01FC0137
:103070004481C42FD0E09E01DE010E94EE2F9B010F
:10308000AC010E9404306B017C01E0E2F0E0EC1B3B
:10309000FD0BA5E5B0E09B01AC010E9404304B01A3
:1030A0005C019F01DF010E94E62F9B01AC010E94A1
:1030B0000F309B01AC012C0D3D1D4E1D5F1DC50148
:1030C000B4010E94B72FC22FD22F2A3228F4F3E086
:1030D0002F9F900111240DC025E530E02C1B3109F4
:1030E000C901880F991F280F391F37FF02C02F5FB2
:1030F0003F4F35952795C22FC095F12C85E5E82ED9
:10310000ED1A80910F01F816C8F4F1FC02C08E2D63
:1031100001C08D2F90910D012F2D30E0290F311D11
:10312000A901440F551F240F351F285F3C4F4C2F1A
:10313000609102030E946C14F394E3CF0E9479150E
:10314000F8018481811102C091E003C0803219F43A
:103150009FEF9093080190910801890FF8018483F3
:10316000CDB7DEB7ECE00C9439300F931F93CF93BB
:10317000DF93EC0100E010E080910F01282F30E098
:103180000217130724F590910D019801290F311DA5
:10319000A901440F551F240F351F285F3C4F86950A
:1031A00090E04C81081719071CF4442331F002C049
:1031B000411103C04091030301C040E0609102034C
:1031C000809101030E946C140F5F1F4FD5CF0E94A6
:1031D00079158C8190E00196817099278C83DF911D
:1031E000CF911F910F9108952F923F925F926F920E
:1031F0007F928F929F92AF92BF92CF92DF92EF9287
:10320000FF920F931F93CF93DF93FC016280548052
:1032100081E08483EFE0F3E07490EEE8F3E0E49182
:10322000C0910303C695C158D0E0CC0FDD1F2D2EF1
:103230003324812C75E0972EAA24AA94B12CE71987
:10324000EE2EF12C80910F01881608F098C0C82C42
:10325000D12C22E0261568F09C9CF0019D9CF00D7D
:103260001124E354FD4F8091010380838091020378
:10327000818351100AC09C9CF0019D9CF00D11248B
:10328000E354FD4F1382128260C09C9C80019D9C80
:10329000100D1124E801C354DD4F8B818823F9F010
:1032A00081508B832FEF829FC00111246C8170E0CD
:1032B0000E948F2FFB01FF27E15FFC4F8491E82FD5
:1032C000E7192FEFE29FC0011124B7010E948F2F51
:1032D00080910303689FB00111247A8336C00E9455
:1032E000D130B5010E94A32F8215930574F582E0B9
:1032F000861588F40E94D130B5010E94A32F8883DF
:103300000E94D130209102032695622F70E00E9426
:10331000A32F280F29839C9CF0019D9CF00D112464
:10332000E354FD4F128280910303843120F0893CE5
:1033300018F088EC01C084E19C9CF0019D9CF00D8C
:103340001124E354FD4F8483838380910D01960102
:10335000280F311DC901880F991F280F391F285FB9
:103360003C4F9C9CF0019D9CF00D1124E354FD4FBB
:103370004281618180810E946C14839463CF0E949A
:103380007915DF91CF911F910F91FF90EF90DF9012
:10339000CF90BF90AF909F908F907F906F905F90F5
:1033A0003F902F900895E0E0F3E020812E7F20836E
:1033B00031814281538164817581868197810E9428
:1033C000C0141092CA020E9479150895E0E0F3E05B
:1033D00080818E7F80831092CA020E9479150895A1
:1033E000609100036695669570E04BE050E080E1E7
:1033F00091E00E94E130892B19F481E08093CA02A8
:103400000E94E8279093C3028093C202089590918E
:10341000000390FF3FC09370811102C0946007C009
:103420008B3210F0986A03C0880F880F982B909306
:103430000003662391F02091000330910103409135
:10344000020350910303609104037091050380917E
:103450000603909107030E94C014609100036695D3
:10346000669570E04BE050E080E191E00E94E13031
:10347000892B19F01092CA0202C00E94F01981E053
:103480008093C50240910303609102038091010380
:103490000E9413170895682F9091000396959695B2
:1034A00081E0890F8B3208F081E00E94071A0895AD
:1034B00081E00E944B1A0895682F90910003969521
:1034C00096958FEF890F09F48AE20E94071A0895F2
:1034D00081E00E945C1A089561E00E94071A089535
:1034E000E0E0F3E0808181608083869586950E948C
:1034F0006C1A08958091000380FF03C00E94D319C5
:1035000008950E94701A089560E00E94071A0895B5
:103510008091C80281113CC00E948E142093000348
:103520003093010340930203509303036093040319
:103530007093050380930603909307032C7FA1F4F7
:103540000E94F3140E948E14209300033093010311
:1035500040930203509303036093040370930503A5
:1035600080930603909307030E947A141092CA0274
:10357000E091DE01F091DF0109958091000380FF69
:1035800004C0869586950E94841A81E08093C802C3
:103590000895E0E0F3E080818160808386958695E0
:1035A0000E94841A08958091000380FF03C00E9446
:1035B000E61908950E94C91A08950F931F93CF9397
:1035C000DF938091CA02882309F492C08091C902D6
:1035D000E0910003E695E695E81BE093C402823093
:1035E00049F4F0E0E55FFC4FE491CE2FD0E005ED2B
:1035F00015E159C0863049F4F0E0E85FFC4FE491F2
:10360000CE2FD0E009EE15E14EC0893051F4E69599
:10361000F0E0EB5FFC4FE491CE2FD0E007E117E143
:1036200042C08F3051F4E695F0E0EE5FFC4FE4913C
:10363000CE2FD0E001E517E136C0853149F4F0E046
:10364000E150FD4FE491CE2FD0E00EEB17E12BC0FF
:103650008831D9F0833239F4EDEFF2E0C591D4919D
:1036600009EF15E120C08432A9F08532C1F48E2F14
:1036700063E00E94832FE92FF0E0E650FD4FE491D4
:10368000CE2FD0E004EF18E10EC0C8E2D0E000E396
:1036900018E109C0C4EFD1E005EB18E104C0C0EDAA
:1036A000D7E008E614E18091C502882361F010920A
:1036B000C5020E94E8279093C3028093C202109231
:1036C000C7021092C6020E94E827E091C202F09160
:1036D000C3028E1B9F0B8F3F9F4750F4EC0FFD1FC3
:1036E000F093C302E093C20282EC92E0F8010995E4
:1036F000DF91CF911F910F91089508950E94DD1AD7
:103700000895882311F0FA0101C0FB01099508957D
:10371000CF93DF93C82FD62F0E9406158C1738F051
:103720000E9406158D1718F40E94581A03C08C2F9A
:103730000E946C1ADF91CF9108951F93CF93DF936E
:10374000FB011581111166C0EC010E947A0D827295
:10375000FE01E052F847E531F10508F05AC0EE5994
:10376000FF4F0C94D92F0E947A1A54C048E65AE1B0
:1037700068E57AE104C048E55AE168E67AE10E942A
:10378000811B48C04BEC56E16CEB76E1F8CF4CEB7B
:1037900056E16BEC76E1F3CF4DEE56E16CED76E160
:1037A000EECF4CED56E16DEE76E1E9CF4FE057E11B
:1037B0006EEF76E1E4CF4EEF56E16FE077E1DFCFD9
:1037C0004FE455E16FE275E1DACF4FE255E16FE486
:1037D00075E1D5CF81E015C065E082E017C068E0F3
:1037E00086E014C06EE089E011C064E18FE00EC095
:1037F00067E185E10BC088E104C062E289E106C0AF
:1038000083E20E946C1A06C06AE285E20E94881B6D
:1038100001C011E0812FDF91CF911F910895219A6E
:10382000089525B12D7F35B132604FB7F894FC0172
:10383000CB01880F991F680F791F6E0F7F1FE61746
:10384000F70789F0819198E035B9000000C087FF43
:1038500025B9880F000000C000C000C025B900C015
:103860009A9591F7ECCF4FBF8FE594E00197F1F770
:1038700000C0000008950E94A00E089580E00E94FC
:103880006B12817008950E943F132FEF86E791E03D
:10389000215080409040E1F700C000000E943F139B
:1038A0000E943E1C882321F00E943B1C0E94352868
:1038B00008950E94431C089584E0089550E0440F49
:1038C000551F28E1629F400D511D11249A0160E6A9
:1038D000869F200D311D1124C901889608950F93EC
:1038E0001F93CF93DF938430A0F4643090F44C3076
:1038F00080F40E945E1C8C010E94043190E0D82F5D
:10390000CC27C80101960E9404319E01282BC901D1
:1039100002C080E090E0DF91CF911F910F91089558
:103920000F931F93CF93DF93843080F4643070F44F
:103930004C3060F4E9010E945E1C8C016D2F0E94E6
:1039400028316C2FC80101960E942831DF91CF9158
:103950001F910F9108951F93CF93DF93D0E0C0E0A4
:1039600010E0412F6C2F8D2F0E94F9039C01412FF5
:103970006C2F8D2F0E94901C1F5F1C3091F7CF5F22
:10398000C43071F7DF5FD43051F7DF91CF911F91D1
:103990000895EF92FF920F931F93CF93DF93EA0165
:1039A0007A01E60EF71E8C01C8018896CE15DF0558
:1039B00069F0003821E0120720F40E940431888366
:1039C00001C0188221960F5F1F4FEECFCDB7DEB733
:1039D000E6E00C943F30EF92FF920F931F93CF934A
:1039E000DF93EA017A01E60EF71E8C01C801889682
:1039F000CE15DF0559F0003821E0120718F4688170
:103A00000E94283121960F5F1F4FF0CFCDB7DEB750
:103A1000E6E00C943F30843038F4643028F44C30C5
:103A200018F40E946F1C089580E090E0089580E1F2
:103A3000089588E592E00895EF92FF920F931F9307
:103A4000CF93DF93EA017A01E60EF71E8C01C801DD
:103A500088559E4FCE15DF0569F0083522E0120724
:103A600020F40E940431888301C0188221960F5FE0
:103A70001F4FEDCFCDB7DEB7E6E00C943F30EF92AD
:103A8000FF920F931F93CF93DF93EA017A01E60E23
:103A9000F71E8C01C80188559E4FCE15DF0559F0E1
:103AA000083522E0120718F468810E942831219617
:103AB0000F5F1F4FEFCFCDB7DEB7E6E00C943F307E
:103AC000CF93DF93C8EAD1E060E0CE010E942831B5
:103AD0002196C11584E0D807B9F7DF91CF910895F9
:103AE000A8E0B0E0E6E7FDE10C941D30F82E8FE091
:103AF0008F1508F474C08FEF93E00E940431811198
:103B00006EC008EA11E0FF2071F0011594E019077A
:103B100009F465C0C8010E940431811101C0FA9402
:103B20000F5F1F4FF0CFFE0131966F0188E01192B9
:103B30008A95E9F77801FFEFEF1AFF0AC8010E94A2
:103B4000043189831A82882309F449C0813009F03D
:103B500040C0580182E0A80EB11CC7010E94043188
:103B60008A838823E1F19FEF980F933060F4780106
:103B700093E0E90EF11CC5010E9404318B83882378
:103B800071F11C8226C0843019F54E01E3E08E0EDF
:103B9000911C02E010E07501FFEFEF1AFF0AC5016A
:103BA0000E940431F40181934F018823C1F08C37C6
:103BB00041F4E2E0F0E0EC0FFD1FE00FF11F108296
:103BC00008C00F5F1F4F57010730110521F707C0CD
:103BD000750160E0C6010E9456228701ABCF28968E
:103BE000ECE00C943930CF93DF9386319C4709F594
:103BF000EB010E947A0D9D81992371F08A7A91E000
:103C000009F490E09093CB02811102C089E201C0D7
:103C100085E30E94C42609C08091CB02811102C0B5
:103C200089E201C085E30E94DB260E94210E80E02C
:103C300001C081E0DF91CF910895CF93DF93FC0124
:103C4000DB0115968C91882309F4DDC09F01305764
:103C50002332310508F0D8C0EF010E94BD0E9093C9
:103C6000EF028093EE02FE01E150F047E232F105EF
:103C700020F4E958FF4F0C94D92F8091EE02816017
:103C8000AAC08091EF028860B2C08091EE0282608B
:103C9000A2C08091EE0220C08091EE0288609BC09D
:103CA0008091EF021EC08091EF028260A0C08091DF
:103CB000EE02806190C08091EE0280628CC08091A3
:103CC000EE02806488C00E94E8088091EE0280685D
:103CD00082C08091EE02886084607DC08091EF0296
:103CE0008260816084C08091EE028E7F74C080917A
:103CF000EF02877F7CC08091EE028D7F6CC0809147
:103D0000EE0220C08091EE02877F65C08091EF02B5
:103D10001EC08091EF028D7F6AC08091EE028F7E7F
:103D20005AC08091EE028F7D56C08091EE028F7B4B
:103D300052C00E94E8088091EE028F774CC08091BB
:103D4000EE02877F8B7F47C08091EF028D7F8E7F51
:103D50004EC08091EE0282FB222720F991E092274B
:103D600090FB82F990FB83F936C08091EF02982F87
:103D7000909591708E7F892B90FB81F938C080914E
:103D8000EE0286FB222720F991E0922790FB86F92C
:103D900022C00E94E8088091EE0287FB222720F9CA
:103DA00091E0922790FB87F916C081E001C080E086
:103DB0000E94480F1EC08091EE0284FB222720F94A
:103DC00091E0922790FB84F906C08091EE02982F33
:103DD000909590FB80F98093EE020BC08091EF02EA
:103DE00083FB222720F991E0922790FB83F98093AF
:103DF000EF028091EE029091EF020E94C20E0E94AB
:103E0000E80880E001C081E0DF91CF910895282F7C
:103E100035EB2303C001112497FF03C0805891099B
:103E200002C080589F4F892F08958091D20280FF51
:103E300006C06091200170E0660F771F26C081FFE9
:103E400004C06091200184E005C082FF07C060913A
:103E5000200188E0689FB001112417C09091D10221
:103E60009923D1F060911F01961788F720912001C6
:103E700088E0289F90011124929FA001939F500DEC
:103E8000112470E0CA010E94A32F6038710540F42C
:103E90006115710519F406C068E070E0862F089579
:103EA0008FE7089581E008958091D20280FF08C0D5
:103EB00060911C0170E0759567957595679521C0B7
:103EC00081FF06C060911C0170E07595679519C06F
:103ED00082FF04C060911C0170E010C09091D0027C
:103EE000992399F060911B019617A0F780911C010E
:103EF000899FC001112470E00E94A32F60387105D2
:103F000040F46115710519F406C061E070E0862F78
:103F100008958FE7089581E008959091D502911159
:103F20000CC09091D602911108C09091D8029111C5
:103F300004C09091D702992331F098E09093D10278
:103F400091E09093D0028D3C21F40E94151F819541
:103F500004C08E3C29F40E94151F8093D602089558
:103F60008F3C21F40E94151F819504C0803D29F4E7
:103F70000E94151F8093D5020895893D19F40E946F
:103F8000541F05C08A3D31F40E94541F81958093CF
:103F9000D70208958B3D21F40E94541F819504C0DF
:103FA0008C3D29F40E94541F8093D80208959FE20B
:103FB000980F983078F421E030E0A90102C0440F56
:103FC000551F9A95E2F7CA019091D402892B8093EC
:103FD000D40208958D3D21F48091D20281600BC0FE
:103FE0008E3D21F48091D202826005C08F3D29F47C
:103FF0008091D20284608093D20208958D3C39F47E
:104000009091D60297FF35C01092D60259C08E3CCF
:1040100029F49091D6021916BCF32BC09091D502C9
:104020008F3C29F497FF25C01092D50249C0803DEE
:1040300019F41916CCF31DC09091D702893D29F4CB
:104040001916BCF41092D7023BC08A3D19F497FFB1
:1040500010C0F8CF8B3D39F49091D80297FF09C07A
:104060001092D8022DC08C3D21F49091D8021916DF
:10407000BCF39FE2980F983080F421E030E0A90172
:1040800002C0440F551F9A95E2F7CA01809590919E
:10409000D40289238093D40213C08D3D21F48091F2
:1040A000D2028E7F0BC08E3D21F48091D2028D7F93
:1040B00005C08F3D29F48091D2028B7F8093D2027C
:1040C0008091D502811106C08091D602811102C073
:1040D0001092D1028091D702811106C08091D8023E
:1040E000811102C01092D00208950E94E827209109
:1040F000D502211104C02091D602222321F09093F1
:10410000CF028093CE022091D702211104C02091CA
:10411000D802222321F09093CD028093CC0283ED2C
:1041200092E00E94C5250895E3EDF2E086E0DF010C
:104130001D928A95E9F71092D1021092D002109246
:10414000D2020895FC01828181110DC08381811109
:104150000AC08481811107C091E08581811101C06D
:1041600090E0892F01C081E081700895A6E0B0E061
:10417000ECEBF0E20C94263086E0E3EDF2E0DE01B9
:10418000119601900D928A95E1F71092D502109246
:10419000D6021092D7021092D8028B81811104C0EE
:1041A0008C81882309F456C08091CE029091CF0271
:1041B0000E940028AC019091D102992339F02091FE
:1041C000210130E02417350758F044C02091220126
:1041D0008AE0289F900111242417350718F03AC06F
:1041E0009F3F19F09F5F9093D1021B81112361F0D3
:1041F0000E94151F111614F09FEF01C091E0989FC7
:10420000902D11249093D5021C81112361F00E94FE
:10421000151F111614F09FEF01C091E0989F902D8B
:1042200011249093D6028091D502882399F01091A1
:10423000D602112379F00E94071F811101C081E08D
:104240008093D502812F0E94071F811101C081E058
:104250008093D6028D81811104C08E81882309F458
:1042600056C08091CC029091CD020E940028AC01F2
:104270009091D002992339F020911D0130E024174C
:10428000350758F044C020911E018AE0289F900114
:1042900011242417350718F03AC09F3F19F09F5F8B
:1042A0009093D0021D81112361F00E94541F1116BA
:1042B00014F09FEF01C091E0989F902D11249093EE
:1042C000D7021E81112361F00E94541F111614F0B1
:1042D0009FEF01C091E0989F902D11249093D802F8
:1042E0008091D702882399F01091D802112379F098
:1042F0000E94071F811101C081E08093D702812FA6
:104300000E94071F811101C081E08093D802BE0185
:104310006F5F7F4F83ED92E00E940C27811105C0F3
:1043200083ED92E00E94A22081110E94752086E018
:10433000FE013196A3EDB2E001900D928A95E1F76E
:104340002696E3E00C9442308F929F92BF92CF92D8
:10435000DF92EF92FF920F931F93CF93DF93E82F9B
:10436000F0E0EC5EFA4FB490282F2695269526951E
:1043700030E0F901EC54FA4FE4908770F12C082EEC
:1043800002C0F594E7940A94E2F791E0E922FF2451
:10439000F901EC55FA4FC490D12C082E02C0D594E7
:1043A000C7940A94E2F7E1E0CE22DD24F901EC564D
:1043B000FA4FC491D0E002C0D595C7958A95E2F72F
:1043C000C170DD27062F10E0E114F10471F081EED9
:1043D0000E949505C801009741F0EFE9FFE0319791
:1043E000F1F700C000000197F6CFC114D10439F4F1
:1043F0004801B8018B2D0E947D06C8010EC086EED3
:104400000E949505C801009799F3EFE9FFE0319705
:10441000F1F700C000000197F6CF009741F0EFE9F7
:10442000FFE03197F1F700C000000197F6CFCD28EB
:1044300019F5EF2879F081EE0E9423060115110588
:1044400049F08FE99FE00197F1F700C000000150AB
:104450001109F4CFCD2BF1F08CE20E949506811466
:104460009104C1F0EFE9FFE03197F1F700C00000DF
:10447000F1E08F1A9108F3CF86EE0E942306C8015F
:104480000097B9F2EFE9FFE03197F1F700C00000C3
:104490000197F6CFDF91CF911F910F91FF90EF9091
:1044A000DF90CF90BF909F908F900895EF92FF92F2
:1044B0000F931F93CF93DF93EC01162F0AE08881AF
:1044C000882309F457C0813009F04FC089818130B9
:1044D00041F47E0182E0E80EF11C8A810E9495067B
:1044E00009C0823049F47E01E2E0EE0EF11C8A81BF
:1044F0000E949505E7012DC0833041F47E01F2E072
:10450000EF0EF11C8A810E942306F4CF843011F053
:1045100021961FC02A81229680E090E030E020534F
:1045200031092A30310558F4089FA001099F500D28
:104530001124C901840F951F21962881EFCF009780
:1045400041F0EFE9FFE03197F1F700C0000001977B
:10455000F6CF812F90E0009759F0EFE9FFE0319717
:10456000F1F700C000000197F6CF612F0E94A4214F
:104570002196A5CFCDB7DEB7E6E00C943F300F9380
:104580001F93CF93DF93C42FD22FFC018581882303
:10459000B1F04093DB020E94E8279093DA02809307
:1045A000D90280E28C0F883008F04DC0C77081E0DE
:1045B00001C0880FCA95EAF70E949F0644C0809107
:1045C000DB02481330C08091D9029091DA020E9438
:1045D0000028883C910538F510E21D0FCD17B9F081
:1045E00080E28C0F883040F4C77081E001C0880FF2
:1045F000CA95EAF70E94A606183010F581E09D2FB3
:10460000977001C0880F9A95EAF70E949F06802F45
:104610000E9495061830B8F4D77081E001C0880F69
:10462000DA95EAF70AC080E28C0F883060F4C77030
:1046300081E001C0880FCA95EAF70E94A60603C070
:10464000802F0E949506DF91CF911F910F910895C1
:104650000F93FC01E851FC47E730F10590F5CB01E1
:10466000E756FF4F0C94D92F06E221EE41EE6AE1A6
:104670007CE723C007E225EE45EE6BE17CE71DC039
:1046800006E221EE40EE68E17CE717C007E225EE86
:1046900044EE69E17CE711C006E221EE42EE6CE1F6
:1046A0007CE70BC007E225EE46EE6DE17CE705C036
:1046B00008E221E045EE6EE17CE70E94BF2280E047
:1046C00008C0FB018581882319F01092DB0201C02C
:1046D00081E00F9108951F93CF93DF9387372CE7E5
:1046E000920721F088379C4759F031C0FB01C58102
:1046F000CC2319F00E94AD2309C00E94AD2318C03D
:10470000FB01C581CC2391F00E94B0230E94600977
:104710000E94B323D82F0E94B023C82F0E94AD233C
:104720004D2F6C2F0E948A0AC0E012C00E94B02355
:104730000E946C090E94B323182F0E94B023D82F27
:104740000E94AD23412F6D2F0E948A0A01C0C1E053
:104750008C2FDF91CF911F910895809125010895AD
:1047600080912401089580912301089584E290E0CE
:104770000E940431843281F485E290E00E94043189
:10478000883051F486E290E00E94043191E0873154
:1047900009F090E0892F01C080E081700895CF93E7
:1047A000C82F811102C06FEF01C064E284E290E083
:1047B0000E942831C11102C06FEF01C068E085E29C
:1047C00090E00E942831C11102C06FEF01C067E183
:1047D00086E290E00E942831CF910895089587E203
:1047E00090E00E940431682F70E080E090E008952E
:1047F0000895CF93C62F0E94F8236C2F87E290E094
:104800000E942831CF91089580E00E94CF2360E07C
:1048100070E0CB010E94F9230E94AB1C0E94601D36
:1048200081E00E94CF2308950E94EE230E94EF238F
:104830000E94F8230E94B623811102C00E94042422
:1048400008950E94D31A08959C01FB018581882355
:1048500051F0A90157574038510530F4C9010E9461
:10486000701D80E0089581E008952FEFFC01208302
:10487000089580E00895CF93DF93EC018881823022
:10488000D1F070F4813019F50E9476152FEF829FD8
:10489000C00111246FEF70E00E948F2F698317C051
:1048A000833091F0843099F40E94701589830E94BE
:1048B00073158A830CC00E940F15882319F00E947B
:1048C000061504C080E002C00E9453158983DF9161
:1048D000CF910895CF93DF93EC018881823001F16D
:1048E000A8F4813079F5C9810E947315D82F0E94F0
:1048F0007015282F3FEFC39FC00111246FEF70E0A8
:104900000E948F2F462F6D2F822F1AC08330A1F067
:104910008430C1F40E947615482F6A81898110C0C5
:104920008981811103C00E94E6190CC00E94C91A36
:1049300089810E94841A06C089810E946C1502C078
:104940000E941317DF91CF910895FC019C012E5F07
:104950003F4F9081983041F0993051F0973059F4A1
:10496000C9010E946A240895C9010E943B24089548
:104970000E94E61408958FEF80830895FC01218141
:10498000223019F40E94A52408950E943524089528
:10499000A0E0B0E0EEECF4E20C941F30EC01D62E77
:1049A0000E9439248111BEC0E8818E2F90E0FC0165
:1049B0003197E331F10508F0AFC0E056FF4F0C949A
:1049C000D92F19828CE06BC08981823089F030F454
:1049D000813009F0A1C00E94F4270CC0833079F027
:1049E000843009F099C01A821B821C821D8296C0F5
:1049F0000E94EF239A838B837C836D838FC0CA8050
:104A00007E0100E010E0AC2CB12CC501800F911F9D
:104A1000049708F083C08C2D800F0E946B12F70161
:104A2000938384830F5F1F4FF2E0EF0EF11C0E3073
:104A3000110559F773C08981823039F0853009F04A
:104A40006BC08A810E94212469C06A817B818C812C
:104A50009D810E94DF2F0E94F92360C04B816A81F3
:104A600089810E946F1C9C838D8358C02C813D815D
:104A70003227232732274B816A8189810E94901C2B
:104A80004DC00E94AB1C4AC06D2DCE010E94BE24B9
:104A900045C00E94171D24C00E94191D99838A8356
:104AA0003DC06B8170E089819A81AE014C5F5F4FA0
:104AB0009827892798270E941C1D30C06B8170E0C1
:104AC00089819A81AE014C5F5F4F9827892798278B
:104AD0000E943F1D23C00E94601D20C00E945C1CDC
:104AE00089831CC06B8170E089819A81AE014C5F23
:104AF0005F4F9827892798270E94C91C0FC06B8198
:104B000070E089819A81AE014C5F5F4F98278927B9
:104B100098270E94EB1C02C08FEF88836D2DCE0179
:104B20000E94B428CDB7DEB7EAE00C943B309093F6
:104B3000E1028093E0020895E091E002F091E10249
:104B4000309729F00190F081E02D0995089580E0DB
:104B500008950E949C250895E091E002F091E10201
:104B6000309721F00280F381E02D09950895E091BE
:104B7000E002F091E102309739F026E0DC012C935D
:104B80000480F581E02D09950895E091E002F0910F
:104B9000E102309739F022E0DC012C930680F781A6
:104BA000E02D09950895A3E0B0E0E9EDF5E20C945D
:104BB00027302091DE023091DF0228173907A1F05B
:104BC0009093DF028093DE02E091E002F091E10237
:104BD000309751F023E029839B838A830084F185F9
:104BE000E02DCE01019609952396E2E00C94433026
:104BF000A3E0B0E0EEEFF5E20C9427302091DC0268
:104C00003091DD0228173907A1F09093DD028093DF
:104C1000DC02E091E002F091E102309751F024E0F3
:104C200029839B838A830084F185E02DCE01019640
:104C300009952396E2E00C944330E0910601F0914F
:104C40000701329680913001882359F08091EE025D
:104C500087FF07C0E0910401F091050132969EE1C3
:104C600001C096E080E0915028F021912223D9F3F1
:104C70008F5FF9CF0895882399F19091300199239E
:104C800009F19091EE0297FF1DC0982F9695969589
:104C900096959E3128F5E0910401F0910501E90F08
:104CA000F11D2281422F50E0877021E030E002C0E8
:104CB000220F331F8A95E2F72423352381E0232B2B
:104CC00091F40EC02091060130910701F90132964E
:104CD000285F3F4F9191891729F0E217F307D1F729
:104CE00080E0089581E008959C01FC0132969FEFD9
:104CF00080E04191461789F09F3F19F4411101C0AE
:104D0000982F8F5F8630A9F79F3F39F0F901E90F9F
:104D1000F11D97FDFA956283089508959C012A5F1D
:104D20003F4FFC014281461301C012820196821757
:104D30009307B9F70895262F2695269526952E31A7
:104D400068F4FC01E20FF11D677021E030E001C062
:104D5000220F6A95EAF78281282B22830895262F55
:104D60002695269526952E3170F4FC01E20FF11D53
:104D7000677021E030E001C0220F6A95EAF72095C4
:104D80008281282322830895682F8091300188230F
:104D900059F08091EE0287FF07C080910401909145
:104DA00005010E949B2608958091060190910701BC
:104DB0000E9474260895682F80913001882359F04D
:104DC0008091EE0287FF07C0809104019091050158
:104DD0000E94AF26089580910601909107010E94DC
:104DE0008E26089580913001882359F08091EE023B
:104DF00087FF07C0E0910401F091050132968EE132
:104E000006C0E0910601F0910701329686E0DF01CD
:104E10001D928A95E9F70895DC01FB0111969C919A
:104E200011978181981321C012968C911297882333
:104E300019F09281891319C013968C9113978823C6
:104E400019F09381891311C015968C9115978823B9
:104E500019F09581891309C014969C91992339F012
:104E600081E02481291304C002C081E001C080E0F8
:104E70008170089508950E943A27089583E08093F1
:104E8000E2020E943B270895811102C081E001C027
:104E900082E08093E2020E943B2708950E9444270B
:104EA000089581E08093E2020E943B2708950E94CA
:104EB0005127089508950E945A2708950E945B275C
:104EC00008950E945A2708950E945A2708950E9423
:104ED0005A270895CF930E9464270E943F130E948F
:104EE0006127C0E08C2F0E946B12892B29F4CF5FC1
:104EF000C430C1F780E001C081E0CF91089585B74B
:104F0000806885BF85B7806885BF08951F920F921E
:104F10000FB60F9211248F939F93AF93BF938091FD
:104F2000E302811113C080910B0390910C03A091B7
:104F30000D03B0910E034196A11DB11D80930B038B
:104F400090930C03A0930D03B0930E03BF91AF9108
:104F50009F918F910F900FBE0F901F901895809189
:104F60001303843031F10E9406051092E30220E41D
:104F700088E190E00FB6F894A895809360000FBE8A
:104F80002093600083B7817F846083BF83B7816093
:104F900083BF7894889583B78E7F83BF0FB6F894CC
:104FA000A8958091600088618093600010926000F5
:104FB0000FBE08950E94E8080E940B05089582E044
:104FC00084BD93E095BD9AEF97BD80936E000895E0
:104FD0002FB7F89480910B0390910C03A0910D03CF
:104FE000B0910E032FBF08952FB7F89460910B0373
:104FF00070910C0380910D0390910E032FBF0895C3
:105000009C014FB7F89480910B0390910C03A091F1
:105010000D03B0910E034FBF821B930B089578943C
:105020001F920F920FB60F9211248F939F93AF93FD
:10503000BF9380910B0390910C03A0910D03B0914D
:105040000E030196A11DB11D80930B0390930C03D9
:10505000A0930D03B0930E03BF91AF919F918F91D9
:105060000F900FBE0F901F90189581E08093E00085
:1050700080E28093D8001092C9008FE19EE40197EE
:10508000F1F700C0000087E090EBDC0180931C0387
:1050900090931D03A0931E03B0931F039CE088E12F
:1050A0000FB6F894A895809360000FBE90936000AF
:1050B000FFCF9CE088E10FB6F894A895809360003C
:1050C0000FBE90936000FFCF8091EC0208959B018A
:1050D000909113039430F1F48F708093E9008FEF77
:1050E0009091E800815095FD06C095ED9A95F1F7F5
:1050F00000008111F5CF8091E80085FF0BC0BA0157
:10510000C90140E050E00E94B02A8091E8008E770B
:105110008093E800089543E050E0BC0184E00E94E1
:105120006728089546E050E0BC0184E00E946728AB
:10513000089540E250E0BC0184E00E946728089591
:10514000CF93DF93EC0148E050E0BC0181E00E9486
:10515000672888E0FE01A4EEB2E001900D928A95E6
:10516000E1F7DF91CF910895603231F4BC0140E264
:1051700050E082E00E9467280895A0E2B0E0E3ECEE
:10518000F8E20C94273080911303843011F583E00A
:105190008093E9008091E80082FF1BC08091E800C5
:1051A00085FF0AC040E050E060E270E0CE01019669
:1051B0000E94F52A91E001C090E08091E8008B7791
:1051C0008093E800992329F060E2CE0101960E94C5
:1051D000C824A096E2E00C94433080911203811120
:1051E00009C00E94802C0E94DD2C8091E200846026
:1051F0008093E20008951092120308950E945727A9
:10520000089560910F0381E0611101C080E00E9468
:105210003E2708959091130381E0943009F080E0D7
:1052200060910F030E944427089542E061EC81E001
:105230000E94F92B42E261EC84E00E94F92B42E2E9
:1052400061EC82E00E94F92B42E260EC83E00E9474
:10525000F92B9091130381E0943009F080E0609184
:105260000F030E944E27089580911503833009F49F
:1052700063C030F4813071F0823009F49DC008952C
:105280008A3009F489C08B3009F46EC0893009F086
:10529000ABC020C080911403813A09F0A5C0809171
:1052A000E800877F8093E8008091180390911903AC
:1052B000892B21F468E084EE92E003C060E080E096
:1052C00090E070E00E943A2B8091E8008B77809309
:1052D000E800089580911403813209F085C080911F
:1052E000180390911903009719F0029709F07CC0F8
:1052F0008091E800877F8093E8008091E80082FD3C
:1053000005C0809113038111F8CF6EC02091F30086
:105310008091F20090E0922B029731F48091F1009D
:10532000813011F0863021F48091F1008093EC02FD
:105330008091E8008B7754C080911403813A09F082
:1053400053C08091180390911903892B09F04CC028
:105350008091E800877F8093E8008091E80080FFDB
:10536000FCCF8091300137C0809114038132E1F588
:105370008091180390911903892BB1F58091E80071
:10538000877F8093E8000E942E2C809116038093E3
:1053900030010E94E808089580911403813221F5BC
:1053A0008091E800877F8093E8000E942E2C8091F6
:1053B00017038093ED02089580911403813AA1F4BC
:1053C0008091E800877F8093E8008091E80080FF6B
:1053D000FCCF8091ED028093F1008091E8008E7700
:1053E0008093E8000E942E2C089584B7877F84BFA5
:1053F0000FB6F894A8958091600088618093600052
:10540000109260000FBE90E080E80FB6F894809391
:105410006100909361000FBE0E94512708950E9481
:10542000802C0E94DD2CE2EEF0E08081846080839D
:1054300078940E94682F089586E291E00E94972553
:105440000895809113038530A9F48091130385306A
:1054500079F40E94AF27809111038823B1F30E9451
:105460006A27882391F30E949A2A0E94E808EDCFC8
:105470000E94DA27089508959A0140911A035091E5
:105480001B030E94442A0895492F55274330510594
:10549000C9F060F44130510581F04230510509F006
:1054A00041C08BE590E044EF55E040C041325105EA
:1054B000E1F04232510531F135C082E190E04FE434
:1054C00056E034C099278130910549F028F00297C1
:1054D00049F5E4ECF5E005C0E0EFF5E002C0E4EDED
:1054E000F5E0849190E0AF0121C063307105D0F404
:1054F000660F771FFB01E551FE4F4081518189E026
:1055000090E014C06330710568F4FB01EE0FFF1FDB
:10551000EB51FE4F40815181FB01EE51FE4F8081E6
:1055200090E004C080E090E040E050E0F901518359
:105530004083089580E189BD82E189BD09B400FE00
:10554000FDCF8091D8008F7D8093D8008091E000BE
:1055500082608093E0008091E00081FDFCCF08959F
:10556000A0E0B0E0E6EBFAE20C942130EC018B0114
:105570007A010E944D2C811133C0E114F10439F0FD
:10558000F70180819181081B190BC80FD91FC12C0D
:10559000D12C0115110519F18091E80085FD16C087
:1055A0008091E8008E778093E800E114F10449F0DF
:1055B000F70180819181C80ED91ED182C08285E019
:1055C0000FC00E944D2C882321F30AC0899180933B
:1055D000F10001501109FFEFCF1ADF0ADACF80E0A6
:1055E000CDB7DEB7E8E00C943D30A0E0B0E0EBEFE3
:1055F000FAE20C942130EC018B017A010E944D2CCF
:10560000811133C0E114F10439F0F70180819181F7
:10561000081B190BC80FD91FC12CD12C011511055E
:1056200019F18091E80085FD16C08091E8008B7724
:105630008093E800E114F10449F0F7018081918141
:10564000C80ED91ED182C08285E00FC00E944D2CA9
:10565000882321F30AC08091F10089930150110938
:10566000FFEFCF1ADF0ADACF80E0CDB7DEB7E8E090
:105670000C943D3020911A0330911B0326173707F5
:1056800048F06115710539F42091E8002E772093D8
:10569000E80001C0B901FC0120E06115710579F154
:1056A000809113038823F1F18530F1F18091E800B6
:1056B00083FD3CC08091E80082FD2EC08091E8000F
:1056C00080FFEBCF2091F3008091F20090E0922BCD
:1056D0006115710551F08830910538F421912093BE
:1056E000F100615071090196F3CF21E0089709F0AC
:1056F00020E08091E8008E778093E800CECF2111E2
:10570000CFCF0AC080911303882361F0853061F008
:105710008091E80083FD0AC08091E80082FFF2CF0B
:1057200080E0089582E0089583E0089581E008957F
:1057300020911A0330911B032617370748F0611593
:10574000710539F42091E8002E772093E80001C01C
:10575000B901FC0120E06115710591F180911303FD
:10576000882309F440C0853009F43FC08091E800E7
:1057700083FD3DC08091E80082FD2FC08091E8004C
:1057800080FFE9CF2091F3008091F20090E0922B0E
:105790006115710559F08830910540F424912093EA
:1057A000F1003196615071090196F2CF21E008971E
:1057B00009F020E08091E8008E778093E800CBCF5D
:1057C0002111CCCF0AC080911303882361F085306A
:1057D00061F08091E80083FD0AC08091E80082FFBB
:1057E000F2CF80E0089582E0089583E0089581E09B
:1057F0000895982F973068F59093E900981739F03D
:105800007091EC002091ED005091F00003C0242F26
:10581000762F50E021FD02C09F5FECCF3091EB006E
:105820003E7F3093EB003091ED003D7F3093ED00F3
:105830003091EB0031603093EB007093EC002093DB
:10584000ED005093F0002091EE0027FDE5CF80E0C1
:1058500008958F708093E90081E00895809114038A
:1058600087FF11C08091E80082FD05C0809113037D
:105870008111F8CF11C08091E8008B770BC0809127
:105880001303882349F08091E80080FFF8CF8091CE
:10589000E8008E778093E80008952091E40030912D
:1058A000E50095E64091EC00842F817040FF23C015
:1058B0008091E80080FD1DC080911303882399F03A
:1058C000853099F08091EB0085FD11C04091E40096
:1058D0005091E5002417350729F3915011F09A01F2
:1058E000E1CF84E0089582E0089583E0089581E0A7
:1058F000089580E008954091E80042FFDDCF0895CB
:105900000E94EF2C0E94F72CE0EEF0E08081816095
:105910008083E8EDF0E080818F77808319BCA7ED6C
:10592000B0E08C918E7F8C9380818F7E80831092EB
:10593000120308950F931F93CF93DF930E94EF2CD0
:105940000E94F72CC8EDD0E088818F77888388810A
:105950008068888388818F7D888319BC10921303A7
:1059600010920F03109211031092100300EE10E03A
:10597000F80180818B7F808388818160888342E009
:1059800060E080E00E94F92BE1EEF0E080818E7F04
:105990008083E2EEF0E08081816080838081886096
:1059A0008083F80180818E7F8083888180618883F5
:1059B000DF91CF911F910F910895E8EDF0E0808184
:1059C0008F7E8083E7EDF0E080818160808384E0DA
:1059D00082BF81E0809312030E949A2C0895E8ED23
:1059E000F0E080818E7F80831092E2000895109213
:1059F000DA001092E10008951F920F920FB60F92F5
:105A000011242F933F934F935F936F937F938F93C3
:105A10009F93AF93BF93EF93FF938091E10082FF39
:105A20000BC08091E20082FF07C08091E1008B7F74
:105A30008093E1000E94672F8091DA0080FF1FC0F1
:105A40008091D80080FF1BC08091DA008E7F809308
:105A5000DA008091D90080FF0DC080E189BD82E12C
:105A600089BD09B400FEFDCF81E0809313030E943D
:105A7000ED2805C019BC109213030E94FB288091E9
:105A8000E10080FF19C08091E20080FF15C0809185
:105A9000E2008E7F8093E2008091E200806180933B
:105AA000E2008091D80080628093D80019BC85E024
:105AB000809313030E9401298091E10084FF30C08C
:105AC0008091E20084FF2CC080E189BD82E189BD24
:105AD00009B400FEFDCF8091D8008F7D8093D8005F
