:100000000C944C030C9484030C9484030C9484038C
:100010000C9484030C9484030C9484030C94840344
:100020000C9484030C9484030C94A9200C947B21DD
:100030000C94311B0C9484030C9484030C9484035F
:100040000C9484030C9484030C9484030C94840314
:100050000C9484030C94BA1B0C9484030C948403B6
:100060000C9484030C9484030C9484030C948403F4
:100070000C9484030C9484030C9484030C948403E4
:100080000C9484030C9484030C9484030C948403D4
:100090000C9484030C9484030C9484030C948403C4
:1000A0000C9484030C9484030C94840371067106ED
:1000B0009D069D060B0705080508050829079107F9
:1000C000A207A20775147814B014C314CB14D61465
:1000D000D914D914D91421152115DE14E114E6140C
:1000E000F31400150315071514158215F4158A1558
:1000F000541558158E155B1591159C156615EA1546
:100100006A15A0156E15A415CE157215A815D8156B
:100110007815AE15B8155F159515621598157D15EE
:10012000B315C415E415E61550158615FD152E19E1
:100130003419221928193A1940194619E3210A22BB
:1001400002230A220223562279220223D022DF220E
:1001500029003A003B003C003D003E003F004000CB
:1001600041004200430044004500000046004700B3
:10017000480035001E001F0020002100220023003F
:1001800024002500260027002D002E002A0049000B
:100190004A004B002B0014001A000800150017003D
:1001A0001C0018000C00120013002F00300031005A
:1001B0004C004D004E0039000400160007000900F5
:1001C0000A000B000D000E000F0033003400280061
:1001D0002A00000000000000E10000001D001B00DC
:1001E0000600190005001100100036003700380025
:1001F000E500E500000052000000E000E300E2003E
:100200000000000000002C00000000000000E600DC
:10021000E7006500E400500051004F0001000100BC
:1002200001000100010001000100010001000100C6
:1002300001000100010000000100010001000100B7
:1002400001000100010001000100010001000100A6
:100250000100010001000100010001000100010096
:100260000100010001000100010001000100010086
:100270000100010001000100010001000100010076
:100280000100010001000100010001000100010066
:100290000100010001000100010001000100000057
:1002A0000000000001000100010001000100010048
:1002B0000100010001000100010001000100010036
:1002C000000001000000010001000100000000002A
:1002D000000001000000000000000100010001001A
:1002E0000100010001000100010001000100010006
:1002F00001000100010001000100010001000100F6
:1003000001000000010001000100010001000100E6
:1003100001000100010001000100010001000100D5
:1003200001000100010001000100010001000100C5
:1003300001000100010001000100010001000100B5
:1003400001000100010001000100010001000100A5
:100350000100010001000100010001000100010095
:100360000100010001000100010000000000000088
:100370000100010001000100010001000100010075
:100380000100010001000100010001000000010066
:100390000000010001000100000000000000010059
:1003A0000000000000000100010001000100010048
:1003B0000100010001000100010001000100010035
:1003C0000100010001000100010001000100000026
:1003D0000100010001000100010001000100010015
:1003E0000100010001000100010001000100010005
:1003F00001000100010001000100010001000100F5
:1004000001000100010001000100010001000100E4
:1004100001000100010001000100010001000100D4
:1004200001000100010001000100010001000100C4
:1004300001000100010000000000000001000100B7
:1004400001000100010001000100010001000100A4
:100450000100010001000100000001000000010096
:100460000100010000000000000001000000000089
:100470000000010001000100010001000100010075
:1004800000000000000000002A2B280000000000EF
:100490000000000000000000000000290000000033
:1004A0002C1E3420212224342627252E362D3738A1
:1004B000271E1F202122232425263333362E3738AA
:1004C0001F0405060708090A0B0C0D0E0F10111268
:1004D000131415161718191A1B1C1D2F3130232D34
:1004E000350405060708090A0B0C0D0E0F10111232
:1004F000131415161718191A1B1C1D2F3130354CE3
:1005000000000000000000000000000000000000EB
:1005100000000000000000000000000000000000DB
:10052000000000007E0F00D4FFFFFFC7000000782E
:100530000E0357005400380030002D004700000023
:100540001603770069006C00620061002E007400E1
:1005500065006300680000000403090409025B00F1
:10056000030100A0FA0904000001030101000921B0
:100570001101000122400007058103080001090460
:1005800001000203000000092111010001222200E4
:100590000705820320000107050303200001090469
:1005A00002000103000000092111010001226D0079
:1005B00007058403200001120100020000000882E8
:1005C0006523000100010200010660FF0961A1012D
:1005D0000962150026FF0095207508810209631540
:1005E0000026FF00952075089102C005010980A131
:1005F00001850319012AB700150126B70095017579
:10060000108100C0050C0901A101850419012AA06F
:1006100002150126A002950175108100C00501098F
:1006200006A1018506050719E029E71500250195B2
:1006300008750181020507190029EF1500250195AC
:10064000F0750181020508190129059505750191CB
:1006500002950175039101C005010906A101050775
:1006600019E029E71500250195087501810295011A
:10067000750881010507190029FF150026FF00955F
:100680000675088100050819012905950575019170
:1006900002950175039101C011241FBECFEFDAE06E
:1006A000DEBFCDBF04B603FE18C08091EA02909170
:1006B000EB02A091EC02B091ED028730904BA74085
:1006C000B04B59F41092EA021092EB021092EC0235
:1006D0001092ED02E0E0F8E3099511E0A0E0B1E04E
:1006E000ECE9F7E402C005900D92A63AB107D9F7FC
:1006F00022E0A6EAB1E001C01D92AA3EB207E1F7EE
:100700000E94C9130C94CC230C94000084E008953B
:100710008430B0F46630A0F4413190F496E6899FBD
:10072000F001112481E1689FE00DF11D1124E40F17
:10073000F11DEE0FFF1FE05BFE4F85919491089530
:1007400081E090E0089581E0089581E008950E949D
:10075000A503089508950E94AA030895A5E0B0E0B6
:10076000E4EBF3E00C944C2349835A833091AD01C0
:1007700089819A81311114C0662359F0222349F0EE
:100780000E94BB09182F682F89819A810E949709BE
:1007900003C00E94A909182F69817A81812F04C0A2
:1007A0000E94BB0969817A810E941E112596E3E0AF
:1007B0000C946823FC01262F408151816281738152
:1007C00084810E94AE03089581E00895CF93DF9362
:1007D000EC0160E00E94DA03BE010E94AB03DF91EE
:1007E000CF91089508950E9484080E94F2032FEF8C
:1007F00084E39CE0215080409040E1F700C000007D
:1008000008950E94F3030E94E01B08950E94F303E1
:100810000E94041C08950F931F93CF93DF938C01C4
:1008200061E00E94DA03EC01B8010E9442148823BF
:1008300009F450C0B801CE010E94A703882309F42F
:1008400049C0B801CE010E941619882309F442C09C
:10085000B801CE010E942C158823E1F1B801CE0128
:100860000E947C188823B1F1B801CE010E94591969
:10087000882381F1F8018281882341F1C3308CE71C
:10088000D807D1F040F4C115FCE7DF0791F0C13083
:10089000DC47A1F01BC0CB35ECE7DE07A9F0CC3577
:1008A000FCE7DF0771F0CA35DC4781F40E944B0E8C
:1008B0000DC00E9401040EC00E94530E0E94060447
:1008C00009C00E94410E02C00E944F0EC8010E9442
:1008D000A30301C080E0DF91CF911F910F91089594
:1008E0000E94071B0E94970408950E949B040E9487
:1008F000101B0895089581E008950895CF93DF9324
:10090000D82F0E947B04C82F882319F08D2F0E94B6
:100910007D048C2FDF91CF9108950895CF93C82F38
:100920000E947A048C2F0E947E04CF91089580E06B
:100930000E948E0408950E94AE190E948E040895AC
:10094000CF930E94AE19C82F8091A801C81779F0E3
:10095000C093A8010E949F1B6093A9017093AA01F4
:100960008093AB019093AC018C2F0E948E04CF91A9
:100970000895ABE0B0E0EFEBF4E00C944D234F832F
:10098000588769877A878B8761110E94890D9E013C
:100990002F5F3F4F86E0F90111928A95E9F785E0D4
:1009A000FE013796D90101900D928A95E1F7898170
:1009B0009A814C815D81452B31F09F3F31F491E06C
:1009C0008F3F19F403C091E001C090E090FF09C08F
:1009D00049815A816B817C818D819E810E94B50CF9
:1009E00005C0C9010E94E4038111F2CF2B96E2E019
:1009F0000C946923FC01808191810E94E80908958B
:100A0000CF93882309F49BC0C82F8238C1F40E9479
:100A1000AE1981FD94C069E38091000190910101BC
:100A20000E94B51A0E94AD0D2FEF87EE93E0215082
:100A300080409040E1F700C0000069E319C08338AE
:100A400001F50E94AE1980FD7AC063E58091000136
:100A5000909101010E94B51A0E94AD0D2FEF81EE19
:100A600094E0215080409040E1F700C0000063E531
:100A700080910001909101010E94C31A0E94AD0D66
:100A80005EC08438C1F40E94AE1982FD58C067E48C
:100A900080910001909101010E94B51A0E94AD0D54
:100AA0002FEF81EE94E0215080409040E1F700C0AC
:100AB000000067E4DDCF8CEF8C0F813AD0F46C2F0F
:100AC00080910001909101010E94351A882349F01C
:100AD0006C2F80910001909101010E94C31A0E9425
:100AE000AD0D6C2F80910001909101010E94B51A0B
:100AF000C5CF80E28C0F883048F4C77081E001C018
:100B0000880FCA95EAF70E946C0DB8CFEBE5EC0FA1
:100B1000E33040F4F0E0EC5BFE4F808190E00E9417
:100B2000D5190DC0C85ACB3150F4EC2FF0E0EE0FC0
:100B3000FF1FE25FFE4F808191810E94FA19CF91E1
:100B40000895882309F45DC0682F823879F40E94E3
:100B5000AE1981FF56C069E38091000190910101B7
:100B60000E94B51A0E94AD0D69E310C08338B9F434
:100B70000E94AE1980FF45C063E58091000190910D
:100B800001010E94B51A0E94AD0D63E5809100013C
:100B9000909101010E94C31A0E94AD0D08958438FE
:100BA00079F40E94AE1982FF2CC067E480910001A5
:100BB000909101010E94B51A0E94AD0D67E4E6CF45
:100BC0008CEF860F813A10F380E2860F883048F46C
:100BD000677081E001C0880F6A95EAF70E94720D84
:100BE000DBCF8BE5860F833028F480E090E00E9415
:100BF000D5190895685A6B3120F480E090E00E9486
:100C0000FA1908951F93CF93DF93182FEB010E94D9
:100C10000005209741F08FE99FE00197F1F700C0B0
:100C200000002197F6CF812F0E94A105DF91CF917F
:100C30001F910895893319F060E070E002C060E50B
:100C400070E00E9402060895882321F00E946C0D36
:100C50000E94AD0D0895882321F00E94720D0E941C
:100C6000AD0D0895A0E0B0E0E8E3F6E00C94472372
:100C70007C01162FC72FFC01D281058102950F70D0
:100C80000E94620D8823E9F0DD23D9F08C2F807F4C
:100C9000803451F080E2810F883098F0011104C057
:100CA0008C2F807E803269F08091A80282FF09C07B
:100CB00082E00E940F0E0E94620D91E0D82ED9268C
:100CC00001C0D12CCC2EC2948FE0C8228C2D90E094
:100CD0008C30910508F099C1FC01EA5AFF4F0C9441
:100CE00030238C2F807FCF70882311F0C295C07F76
:100CF000DD2399F0CC2309F474C180E2810F8830A0
:100D000010F0111104C08C2F0E946C0D03C08C2FA9
:100D10000E947C0D0E94AD0D64C1812F0E94A1052F
:100D2000CC2309F472C180E2810F883038F111239D
:100D300029F18C2F0E94820D24C08C2F807FCF70D0
:100D4000803211F0C295C07F112319F01130D1F11A
:100D500043C08091A80282FD17C0DD2349F0CC2357
:100D600029F08C2F0E946C0D0E94AD0D80E03AC1DD
:100D700080E00E94A105CC2309F447C18C2F0E947A
:100D8000720D0E94AD0D41C1DD2371F0002341F0D1
:100D9000013031F40E948C0D8C2B0E94960D35C1D0
:100DA0000E948C0D8C2B23C0011103C00E94A30D47
:100DB0002EC0013009F429C18C2F0E942B060E94FD
:100DC000A30D23C1DD2321F0063008F01EC10EC0A3
:100DD000053008F01AC11BC0DD2361F0002331F09B
:100DE000F701858180FFFDC08F7085838C2F0E9465
:100DF00024060BC1002359F0193309F003C1FFEF9A
:100E000027EE83E0F15020408040E1F7F9C08C2FBD
:100E10000E942B06FAC08C2F86958695837019F058
:100E2000813061F0F2C0DD2321F0812F9C2F93707F
:100E300002C080E090E00E94D519EFC0DD2321F0D0
:100E4000812F9C2F937002C080E090E00E94FA19DD
:100E5000E4C08C2F837079F5D111DBC0412F42950E
:100E600046954770440F440F212F2F70042E01C068
:100E7000220F0A94EAF714FF08C08FE090E001C047
:100E8000880F4A95EAF7809501C080E0C695C6951F
:100E9000C370822BC23049F058F4C13019F00E945F
:100EA000E908B7C00E94E308B4C00E94EF08B1C0CF
:100EB0000E94E008AEC0DD2319F08C2F817001C0C4
:100EC0008695882309F4A5C0412F42954695477021
:100ED000440F440F212F2F70042E01C0220F0A94BB
:100EE000EAF714FF08C08FE090E001C0880F4A9530
:100EF000EAF7809501C080E0C695C695C370822B45
:100F0000C23049F058F4C13019F00E94350981C04F
:100F10000E942F097EC00E943B097BC00E94F808F6
:100F200078C0CF70DD2339F08C2F0E940A09812F01
:100F30000E9424066EC0812F0E942B068C2F0E94D7
:100F4000160967C0123F21F128F4103F41F0113F0C
:100F5000C1F043C0133F19F1143F79F03EC0DD23C7
:100F600041F0053008F051C08C2F8F710E94230989
:100F70004CC0063008F049C0F7CF8091A80282FD2E
:100F800018C0DD2339F08C2F8F710E940A093DC0F3
:100F9000DD23C9F38C2F8F710E94160936C0DD2323
:100FA00029F08C2F8F710E9401092FC00E94FD082B
:100FB0002CC0DD2349F0CF718C2F0E940A0963E019
:100FC0008C2F0E94F10D21C081E00E940F0E023093
:100FD000E0F082E00E940F0E18C0DD2331F0002304
:100FE00091F2812F0E94000510C0002399F219335D
:100FF00049F49FEFE7EEF3E09150E040F040E1F775
:1010000000C00000812F0E94A10588EF8C0D843064
:1010100020F40E94AE190E948E04DD2089F00E9407
:101020005E0D80FD0DC0F70112820E94580D0E94D6
:101030000A09C7010E943D080E94580D0E94160926
:10104000CDB7DEB7E8E00C9463230F931F93CF93E3
:10105000DF93EC01688179818A810E94F3098C0118
:101060000E9441090E94D308B801CE010E943206B5
:10107000DF91CF911F910F910895CF93DF93EC01F2
:10108000988189812B813C81232B31F08F3F31F472
:1010900081E09F3F19F403C081E001C080E080FD42
:1010A0001AC0CE010E940B0481110FC00E94620D74
:1010B000882389F08A81882371F08091A80282FFB9
:1010C0000AC082E00E940F0E06C0CE010E942508D1
:1010D000CE010E94E603DF91CF91089580E090E079
:1010E0000E94D51980E090E00E94FA190E94890DB3
:1010F0000E94AD0D089580910001909101010E9420
:10110000D11A0E946E0808950E94790D0E947B08F2
:10111000089592959F70963079F010F4925001C026
:101120009A50923068F4803F69F018F4883E40F499
:1011300009C0843F29F406C0883E20F0813F11F0A9
:1011400080E0089581E00895FC01908181812381F0
:101150003481232B31F08F3F31F481E09F3F19F42C
:1011600003C081E001C080E080FD07C080819181E3
:101170000E94E8090E948908089580E00895A5E08A
:10118000B0E0E5ECF8E00C944D232596E2E00C94F9
:101190006923A6E0B0E0EFECF8E00C944D2326962E
:1011A000E2E00C946923089508950E94D4080895FC
:1011B0000E94D50808950E94D8088093D60108950A
:1011C0000E94DB0808959091D601892B0E94DB08CC
:1011D00008959091D60189230E94DB08089590918B
:1011E000D60189270E94DB0808950E94D40808953B
:1011F0000E94F5088093D501089580E00E94F808C8
:10120000089591E001C0990F8A95EAF7892F0E940D
:10121000F808089521E030E001C0220F8A95EAF72E
:101220008091D501822B0E94F808089521E030E0DA
:1012300001C0220F8A95EAF720958091D50182237B
:101240000E94F808089521E030E001C0220F8A953D
:10125000EAF78091D50182270E94F80808959091BD
:10126000D501892B0E94F80808959091D501892312
:101270000E94F80808959091D50189270E94F808E6
:1012800008950895962F9770A1E001C0AA0F9A952E
:10129000EAF793E0769567959A95E1F7FB01EE0FF3
:1012A000FF1F6E0F7F1FFA01E60FF71F40E050E0AF
:1012B000682F70E090819B01042E02C0369527951F
:1012C0000A94E2F72170219529272A2329272193BF
:1012D0004F5F5F4F4330510569F708959B01782FA9
:1012E000777043E0969587954A95E1F7FC01EE0FFC
:1012F000FF1F8E0F9F1FF901E80FF91F40E050E01C
:1013000080E0219130E0072E02C0369527950A949F
:10131000E2F721703327042E01C0220F0A94EAF766
:10132000822B4F5F5F4F4330510559F70895282FA7
:10133000963070F4813160F4862F622F70E021E1E5
:10134000929F600D711D11244EEA51E00E944209E6
:101350000895963070F4813160F4292F90E06EEAA0
:1013600071E031E1239F800D911D11240E946E09CF
:10137000089580E00895CF92DF92FF920F931F931C
:10138000CF93DF936C010091D5018091D601082B9A
:10139000C3E0D0E010E0C8010C2E02C095958795FF
:1013A0000A94E2F780FD04C02197A8F7F12C07C04A
:1013B000FC2EB6018C2F0E942A110197A9F38F2DC4
:1013C000DF91CF911F910F91FF90DF90CF90089503
:1013D000CF93DF93EC010E94BB09BE010E942A114A
:1013E000DF91CF9108951F93CF93DF93EB019091FD
:1013F000AD01992321F0CB010E94E80913C0882395
:1014000049F0CB010E94BB09182F682FCE010E9422
:10141000970904C0CB010E94A909182FBE01812F92
:101420000E942A11DF91CF911F910895E1E0F0E031
:10143000DF0102C0AA0FBB1F6A95E2F7BD01DF0101
:1014400002C0AA0FBB1F4A95E2F7AD01462B01C0AF
:10145000EE0F2A95EAF7942F9823491302C08E2B9A
:101460000895E0958E230895242F462F682F8091AC
:10147000D5010E94160A0E94F80808951F93CF9381
:10148000DF93C091D70116E08091D801C81799F079
:10149000D0E01C9FF0011D9FF00D1124E752FE4F7C
:1014A0004081518162817381848195810E94C90844
:1014B0002196C770E9CFDF91CF911F910895409198
:1014C000090250910A0260910B0270910C02809106
:1014D0000D0290910E020E94C90808952091D70133
:1014E0009091D80156E02917A9F030E0529FF00101
:1014F000539FF00D1124E752FE4F7181761306C001
:101500007081781303C07281741306C02F5F3F4F40
:101510002770E9CF80E0089581E008950F931F932D
:10152000CF93DF9380910E0282958F7009F05AC09D
:1015300080910B02882309F455C08091D701109146
:10154000D8016091090270910A02C0910C02D091F9
:101550000D0291E06F3F09F090E0292F06E081171E
:1015600009F440C0209721F07F3F21F030E003C014
:1015700031E001C0322F90E030FD31C0089FF00112
:10158000099FF00D1124DF01A752BE4F11963C9127
:101590001197371324C03C91361321C012963C9109
:1015A000129731111CC013964D915C9114974C1BEE
:1015B0005D0B483C510598F480910E028F7080615C
:1015C00080930E02E252FE4F80818F708061808393
:1015D00089E092E00E943D080E943E0A03C0019605
:1015E0008770BDCFDF91CF911F910F910895A1E139
:1015F000B0E0EDEFFAE00C9443238C0185E0F801B4
:10160000DE011D9601900D928A95E1F7F801E280C6
:101610009091090220910A0240910C0250910D0212
:101620004115510531F02F3F31F481E09F3F19F40E
:1016300003C081E001C080E080FD78C1F801C08076
:10164000D1808380948089E0A82E82E0B82EF0902B
:101650000B02B401641B750BFF2009F411C18091CA
:101660000E02382F307F683C710508F0CBC0311175
:101670008AC0D21213C0C91211C0FE2CE1100EC0D4
:101680008F70806180930E020E945F0AC5010E94E4
:101690003D0880910E02F801858362C18114910496
:1016A00039F0FFEFDF1206C081E0CF1203C003C0A4
:1016B00081E001C080E080FD03C081E08E2502C092
:1016C00080E090E080FF05C04E2D6D2D8C2D0E9496
:1016D0006E0A8114910439F02FEFD21206C081E016
:1016E000C21203C003C081E001C080E080FD03C0DE
:1016F00081E08E2502C080E090E0682F6170B62EF8
:1017000080FF37C04E2D6D2D8C2D0E946E0AF82E55
:1017100081112FC0CD86DE868D859E850E94E809C9
:10172000292F22952F70243020F49F70223028F02A
:1017300009C02A50223088F017C0992351F0811136
:1017400008C00EC1992329F0F8019581907F09F412
:1017500007C1805E883040F403C1803F08F400C1B7
:10176000815F833008F4FCC0C8010E943D08FB2C57
:10177000F7C0FE2CEE2009F4F3C080910E028160C8
:1017800080930E0254C0D21206C0C91204C0E110E8
:1017900002C0F80199C0C8010E94A408882361F121
:1017A000EE2051F120910E02822F82958F7090E0F1
:1017B000029774F08091090290910A0298878F83B2
:1017C00019869B868A862C87CE0107960E943D0843
:1017D00086E0F801A9E0B2E001900D928A95E1F768
:1017E0000E948E0A0E945F0A0AC0D21611F1C80137
:1017F0000E94A40881112CC0C8010E943D08FF244A
:10180000F394AEC03111F1CF782D998A888AA60160
:101810006E2D89890E94BF0889E092E00E943D08F0
:1018200086E0F50111928A95E9F70E945F0AF12C92
:1018300097C0C912DCCFE110DACFF8018583C80167
:101840000E943D0886E0F50111928A95E9F788C06B
:10185000EE2091F220910E02822F82958F7090E0FF
:1018600002970CF4B5CF8091090290910A029A83F5
:1018700089831B829D828C822E83CE010196A6CF06
:10188000683C710508F044C0FE2CEE2009F4B4CF8A
:10189000D21230C0C9122EC020910E0220FD21C0EC
:1018A000822F82958F70482F50E041155105C9F065
:1018B000F80125834F30510541F08F5F982F9295A5
:1018C000907F822F8F70892B8583C8010E943D08ED
:1018D00086E0F801A9E0B2E001900D928A95E1F767
:1018E0003DC086E0F801A9E0B2E001900D928A9532
:1018F000E1F736C0C8010E94A408811169CF809128
:101900000E02816080930E02C8010E943D0828C02B
:10191000782D998A888AA6016E2D89890E94BF0830
:1019200086E0F50111928A95E9F718C0EE2009F4D6
:1019300063CFC8010E94A408F82E882309F45CCF65
:1019400086E0F801A9E0B2E001900D928A95E1F7F6
:1019500089E092E00E94FA040E948E0A0E945F0AC7
:101960008F2D6196ECE00C945F23ACE0B0E0EBEBE4
:10197000FCE00C944C234F83588769877A878B87C8
:101980009C87CE0107960E94F70A8823D1F09F8199
:1019900088852A853B85232B31F08F3F31F481E008
:1019A0009F3F19F403C081E001C080E080FD47C083
:1019B0004F81588569857A858B859C850E94C908E9
:1019C0003EC086E0FE013796DE01119601900D9231
:1019D0008A95E1F7FF81E8856A857B856115710548
:1019E00031F0EF3F31F481E0FF3F19F403C081E0B3
:1019F00001C080E080FD23C02091D80130E0C90102
:101A00000196877099274091D70150E08417950778
:101A1000F1F1F983EA837D836C8396E0929FD00194
:101A2000939FB00D1124A752BE4FFE013196019035
:101A30000D929A95E1F78093D8010E943E0A16E034
:101A40008091D7019091D801891771F1189FC00139
:101A5000112487529E4F0E94F70A882329F1E091B2
:101A6000D7011E9FF0011124E752FE4F40815181A2
:101A700062817381848195810E94C9088091D70118
:101A800090E00196877099278093D701D9CF0E9463
:101A900084081092D8011092D701E9E0F2E086E0C4
:101AA000DF011D928A95E9F72C96E3E00C946823F8
:101AB00080912F02859585958595089580912F02B7
:101AC0008770089590912F02977081E009F480E06B
:101AD000089580915202089590915202892B80932B
:101AE0005202089580959091520289238093520268
:101AF000089510925202089590915102892B80937B
:101B0000510208958095909151028923809351024A
:101B10000895109251020895809130020895089519
:101B20000E948F0D08950E94900D08959091A80233
:101B300092FF08C090913002981721F080933002F4
:101B40000E94930D089580913002882329F010920D
:101B5000300280E00E94930D0895CF93DF93E091CF
:101B60000001F0910101809152028083E091000117
:101B7000F0910101908180915102892B80838091A5
:101B80003002882381F0E0910001F0910101908101
:101B9000892B808380910001909101010E941F1A7E
:101BA00081110E94A30DC0910001D091010140E27A
:101BB00050E06FE072E0CE010E947423892B59F04F
:101BC00080E2FE01AFE0B2E001900D928A95E1F76C
:101BD000CE010E94BB19DF91CF9108950E948F0D15
:101BE00008959091A80292FF11C098E0899F9001FA
:101BF0001124262B20932F020E940A0980912F0284
:101C00008595859585950E94EE0D08950E940A0997
:101C1000089510922F0280E00E94EE0D0895209109
:101C20002F028095822380932F02982F977099F42A
:101C300030E0482F082E000C550B2417350759F0BB
:101C40009091A80292FF07C08595859585950E9481
:101C500016090E94090E08959091A80292FB22276E
:101C600020F9281769F080FB92F99093A8028091DF
:101C7000A7029091A8020E94750E82E00E940F0EAA
:101C800008958091A80282FB882780F991E0892736
:101C90000E942C0E089581E00E942C0E089580E091
:101CA0000E942C0E08956FEF7FEF80E090E00E947D
:101CB000B623089580E090E00E949223873E9E4FD5
:101CC00019F40E94D613089580E0089582E090E010
:101CD0000E948A23089583E090E00E948A23089559
:101CE00084E090E00E9492230895BC0184E090E09B
:101CF0000E94B6230895AB01BC018FE090E00E94E2
:101D0000AA230895AB01BC0183E190E00E94AA23BD
:101D1000089560E070E0CB010E94820E089560E0BB
:101D200070E0CB010E947B0E0E94890E089567EE41
:101D30007EEF80E090E00E94B62360E082E090E0D9
:101D40000E94982360E083E090E00E949823109224
:101D5000D60160E074E184E090E00E94B62360E088
:101D600086E090E00E9498236FEF87E090E00E9469
:101D7000982340E050E0BA0188E090E00E94AA2356
:101D800060E08DE090E00E94982340E050E0BA01CE
:101D900088E190E00E94AA2360E087E190E00E9441
:101DA000982340E050E0BA018CE190E00E94AA2321
:101DB00060E070E080E290E00E94B62340E050E0F6
:101DC000BA0188E190E00E94AA2380E00E94EF130C
:101DD0000E9424140E948F0E08950E94970E089569
:101DE000682F8EE090E00E9498230895A5E0B0E06F
:101DF000ECEFFEE00C944B230E94931B8C0180912E
:101E000053029091540208171907A1F08FEF8983AC
:101E10008A831B820E94931B8160782F9D838C8311
:101E200049815A816B818D810E94B90410935402BB
:101E3000009353022596E4E00C9467230E949F1BB5
:101E40006093710270937202809373029093740294
:101E500060936D0270936E0280936F029093700294
:101E6000089581E0089581E008950E94330F089558
:101E700008950E94380F08950E94380F08950E9417
:101E80003C0F08950E94380F08950E94420F089554
:101E90000E94380F08958EE092E10E94A4190E94DA
:101EA000480F0E94450F08950E94390F0E94380F75
:101EB00008950E942D120E948D0408950E948A1B8D
:101EC0000E9434140E942D130E94590F0E943F0F4C
:101ED0000895A7E0B0E0EFE6FFE00C943E230E94F7
:101EE000310F811103C00E94F60E85C00E9443137A
:101EF00085E592E09F838E838C01D12CF80181903F
:101F00009190A190B1908F018D2D0E944812DC011B
:101F1000CB0188259925AA25BB25D394F6E0DF16A9
:101F200029F0892B8A2B8B2B49F304C0892B8A2B10
:101F30008B2BC9F28091750281FD0E9454120E9480
:101F4000350F382E10E0812F0E9448126B017C0162
:101F5000EE81FF8140805180628073804626572643
:101F6000682679264114510461047104C9F100E026
:101F7000812C912C54018394D301C2018821992191
:101F8000AA21BB21892B8A2B8B2BE9F03320D9F096
:101F900009831A8321E0D701C60188219921AA214A
:101FA000BB21892B8A2B8B2B09F420E02B830E94E9
:101FB000931B8160782F9D838C8349815A816B812B
:101FC0008D810E94B9040F5F880C991CAA1CBB1C50
:101FD000013191F6EE81FF81C082D182E282F382EB
:101FE0001F5F8E819F8104969F838E83163009F038
:101FF000AACF0E941E0F0E94A0042796E1E10C9434
:102000005A231F93CF93DF930E942F11EC01C11528
:1020100080E5D807E8F5C11590E4D90708F0A8C015
:10202000C03ED10530F5CD3CD10508F094C0C83A8A
:10203000D10578F4C53AD10508F083C0C130D10587
:1020400009F47CC008F4F2C0C430D10508F0F1C036
:10205000EDC0C33CD10508F0E9C0C85AD0E0CC0FB0
:10206000DD1FC95BDE4F0990D881C02DCE0194647D
:10207000E1C0C11580E2D80708F0CBC0C11591E0DE
:10208000D90708F06BC0C83ED10508F4D2C0CEC055
:10209000C03682E5D80728F5C03492E5D90708F0A4
:1020A00079C0C03282E5D80708F06CC0C11592E54E
:1020B000D90708F481C04C2F4695469580E2489F89
:1020C000A0011124C37021E030E0C90102C0880FD3
:1020D000991FCA95E2F7EA01C82BD92BCE019D685A
:1020E000A9C0C03A82E5D807B8F48C2F8F71C038E8
:1020F00092E5D90708F07BC08695869590E2899F86
:1021000090011124C37081E090E002C0880F991FF4
:10211000CA95E2F79A6868C0C03C82E5D80708F41F
:102120006DC0C03E92E5D90708F080C0CF71DD27B1
:10213000DC2FCC27CE01806F906A7CC081E090E0DC
:1021400079C0C55AD0E0C358DE4F8881C82FD0E08F
:10215000CE0190646FC0CE0190656CC08D2F0E943F
:10216000CB11182FCE0199270E942F111F715CC02F
:10217000CE0199270E942F11CC27DF70D06A8C2BBB
:102180009D2B58C0CF71D0E0DC2FCC27CE01816FC2
:10219000906A50C08C2F8F718695869590E2899FAA
:1021A00090011124C37081E090E002C0880F991F54
:1021B000CA95E2F79C6818C08C2F8F710E94CB11D2
:1021C00095E0D695C7959A95E1F7CF70D0E0DC2FD2
:1021D000CC27282F30E084FF05C084E0220F331F76
:1021E0008A95E1F7D069CE01822B932B23C090E032
:1021F000D82FCC27CE01846F906A1CC08C2F8F7192
:102200000E94CB118F7190E0D82FCC27CE01906225
:1022100011C08D2F8F710E94CB11182FCE019927DD
:102220000E942F111F719062912B04C080E090E0FA
:1022300001C0CE01DF91CF911F910895763038F41F
:10224000613128F4462F672F0E949617089580E089
:1022500090E008950E941E110E9401100895823896
:10226000910569F1B0F48133910509F475C048F422
:102270008932910509F467C08A32910509F471C069
:1022800008958533910509F459C089339105B9F052
:102290000895833E910589F138F4803E9105D1F08F
:1022A000823E910529F10895863E9105C9F1873E48
:1022B0009105D9F1843E910509F06CC027C02091A9
:1022C000A70220FD57C021FD55C02091A80223FD83
:1022D0005BC008958091A70280FD48C08091A8024C
:1022E00080FF48C08091A70284FD46C083EE51C0A4
:1022F0008091A70282FF3CC0F5CF8091A70282FDAA
:1023000037C08091A80280FD35C0ECCF8091A80233
:1023100081FF36C08091A70284FD2EC087EE39C0B0
:102320008091A70283FF2AC0F5CF8091A70283FD89
:1023300025C08091A80281FD23C0ECCF8091A70227
:1023400085FD22C01FC08091A70285FD1BC0809122
:10235000A80283FF19C00AC08091A70286FD16C09B
:1023600017C08091A70286FD13C010C089E311C079
:1023700082EE0FC080EE0DC080E00BC086EE09C07B
:1023800084EE07C085E305C089E203C08AE201C08C
:1023900081E390E008959091A70292FF0DC0282F4D
:1023A0002871283019F4877F846006C0282F247193
:1023B000243011F48B7F886093FF0DC0282F287183
:1023C000283119F4877E846106C0282F24712431B6
:1023D00011F48B7E88612091A80220FF0DC0382F58
:1023E0003871383019F4877F816006C0382F317119
:1023F000313011F48E7F886021FF0DC0282F2871A5
:10240000283119F4877E816106C0282F217121317E
:1024100011F48E7E886194FD877E089580E0089592
:102420000E94530E08950E9443132FEF86E791E018
:10243000215080409040E1F700C000000E9443130B
:1024400080E00E94481260FF04C00E9410120E94A7
:10245000E01B08950E94131208950E945A0E8111E4
:1024600002C00E94ED0E0E94660E809375020E94CB
:10247000700E9093A8028093A7020E942A120E94D5
:102480006B0E0E94E0088091D5010E94F508089526
:1024900024E0829FC0011124FC01EF53FD4F6081B5
:1024A0007181828193810895089580EA8A95F1F778
:1024B000089500C008950E945512089508950E943D
:1024C0005E1208950E945F1208950E945E120895A0
:1024D0000E9465120895F894E82FE295EF70F0E0FD
:1024E00031A1282F2F7081E090E001C0880F2A953C
:1024F000EAF7982F9095932391A392A1892B82A319
:10250000789408950F931F93CF93DF93C1E9D1E09F
:1025100089918F3F11F00E946B1281E0C739D80773
:10252000B9F7C0E8D1E001E911E089918F3F11F0DE
:102530000E946B120C171D07C1F7DF91CF911F91FD
:102540000F9108954F925F926F927F928F929F9218
:10255000AF92BF92DF92EF92FF920F931F93CF93B0
:10256000DF938C01C62FD0E0CE018F569E4F7C01A9
:10257000FC0190819F3F09F460C0D62EF894E92FAA
:10258000E295EF70F0E081A19F7021E030E001C0A2
:10259000220F9A95EAF7822B81A382A12095282306
:1025A00022A378940E945912E0E8F1E021E931E099
:1025B000412C512C32014394812C912C5401819156
:1025C0008F3F99F0A82FA295AF70B0E090964C91F4
:1025D00050E08F70BA0102C0759567958A95E2F751
:1025E00060FD03C0D301C20103C080E090E0DC01C4
:1025F000882A992AAA2ABB2A440C551C661C771CD7
:102600002E173F07E1F6F70180818F3F11F00E94FE
:102610006B1261E081149104A104B10409F460E03B
:102620008D2D0E945B12CC0FDD1FCC0FDD1FC00F64
:10263000D11F88829982AA82BB82DF91CF911F919C
:102640000F91FF90EF90DF90BF90AF909F908F9091
:102650007F906F905F904F9008950E94821288E162
:10266000E1ECF2E0DF01982F1D929A95E9F7E9EA93
:10267000F2E0DF011D928A95E9F786E00E947E1361
:102680000E9468120895A8E1B0E0E9E4F3E10C9437
:102690004A238E010F5F1F4F88E1F80111928A953E
:1026A000E9F7F12C6F2DC8010E94A212F394F6E015
:1026B000FF12F8CF48E150E0B80189EA92E00E94A9
:1026C000742321E0009709F420E0892B41F088E190
:1026D000F801A9EAB2E001900D928A95E1F746E08F
:1026E00061EC72E089EA92E00E947F13182F0E9449
:1026F0006212812F6896E5E00C9466230895EF92AC
:10270000FF920F931F93CF93DF937C018B01C42F14
:10271000222349F081E0809378020E94931B9093DA
:1027200077028093760280917802811102C080E066
:102730001DC080917602909177020E94AB1B059795
:10274000B0F384E0C89FE0011124AE01B701C801D5
:102750000E947423892B39F0AE01B701C8010E9491
:10276000812381E001C080E010927802CDB7DEB70E
:10277000E6E00C9465230E948D1D0E945E0F0E946E
:102780009A1D08950E949F1D0E94690F0E94B91D05
:1027900008950E942A1B0E94731D0E944B0F0E94E5
:1027A000BB130E94C2130E94540FFBCF82E290E041
:1027B0000E948A23833281F483E290E00E948A237C
:1027C000833051F484E290E00E948A2391E08731C3
:1027D00009F090E0892F01C080E081700895CF93C7
:1027E000C82F811102C06FEF01C063E282E290E066
:1027F0000E949823C11102C06FEF01C063E083E221
:1028000090E00E949823C11102C06FEF01C067E100
:1028100084E290E00E949823CF910895089585E284
:1028200090E00E948A23682F70E080E090E0089595
:102830000895CF93C62F0E9418146C2F85E290E064
:102840000E949823CF91089580E00E94EF1360E0EA
:1028500070E0CB010E9419140E9429170E94E91709
:1028600081E00E94EF1308950E940E140E940F143D
:102870000E9418140E94D613811102C00E942414D1
:10288000089508959C01FB018281882351F0A901DC
:1028900057574038510530F4C9010E94F91780E0BC
:1028A000089581E008952FEFFC01208308950E9490
:1028B0005314089580E00895A0E0B0E0E2E6F4E16A
:1028C0000C944523EC01D62E0E945A148111BFC0EE
:1028D000E8818E2F90E0FC013197E331F10508F09B
:1028E000B0C0EE59FF4F0C94302319828CE06CC0BD
:1028F0008981823089F030F4813009F0A2C00E94D1
:102900009F1B0CC0833079F0843009F09AC01A8282
:102910001B821C821D8297C00E940F149A838B8396
:102920007C836D8390C0CA807E0100E010E0AC2CF7
:10293000B12CC501800F911F069708F084C08C2D23
:10294000800F0E944812F7018383748365830F5FB1
:102950001F4FF3E0EF0EF11C0930110551F773C062
:102960008981823039F0853009F06BC08A810E94FC
:10297000411469C06A817B818C819D810E943623CC
:102980000E94191460C04B816A8189810E94ED16F2
:102990009C838D8358C02C813D8132272327322789
:1029A0004B816A8189810E940E174DC00E942917B0
:1029B0004AC06D2DCE010E94571445C00E94A21737
:1029C00024C00E94A41799838A833DC06B8170E064
:1029D00089819A81AE014C5F5F4F9827892798279C
:1029E0000E94A71730C06B8170E089819A81AE0187
:1029F0004C5F5F4F9827892798270E94C91723C0EB
:102A00000E94E91720C00E94DA1689831CC06B81DE
:102A100070E089819A81AE014C5F5F4F98278927CA
:102A200098270E9454170FC06B8170E089819A81AA
:102A3000AE014C5F5F4F9827892798270E94761731
:102A400002C08FEF88836D2DCE010E94621CCDB72E
:102A5000DEB7EAE00C946123CF93DF93FC01DB0146
:102A600012968C91882309F4DDC09F0130572332E0
:102A7000310508F0D8C0EF010E94700E9093A802B3
:102A80008093A702FE01E150F047E232F10520F405
:102A9000EB58FF4F0C9430238091A7028160AAC0AD
:102AA0008091A8028860B2C08091A7028260A2C013
:102AB0008091A70220C08091A70288609BC080916E
:102AC000A8021EC08091A8028260A0C08091A702C7
:102AD000806190C08091A70280628CC08091A70223
:102AE000806488C00E9484088091A702806882C0A8
:102AF0008091A702886084607DC08091A802826076
:102B0000816084C08091A7028E7F74C08091A802EA
:102B1000877F7CC08091A7028D7F6CC08091A702C7
:102B200020C08091A702877F65C08091A8021EC047
:102B30008091A8028D7F6AC08091A7028F7E5AC0C3
:102B40008091A7028F7D56C08091A7028F7B52C0D3
:102B50000E9484088091A7028F774CC08091A702C1
:102B6000877F8B7F47C08091A8028D7F8E7F4EC06C
:102B70008091A70282FB222720F991E0922790FB07
:102B800082F990FB83F936C08091A802982F909526
:102B900091708E7F892B90FB81F938C08091A702BC
:102BA00086FB222720F991E0922790FB86F922C02C
:102BB0000E9484088091A70287FB222720F991E0D8
:102BC000922790FB87F916C081E001C080E00E9447
:102BD000F00E1EC08091A70284FB222720F991E00D
:102BE000922790FB84F906C08091A702982F9095B8
:102BF00090FB80F98093A7020BC08091A80283FB11
:102C0000222720F991E0922790FB83F98093A80274
:102C10008091A7029091A8020E94750E0E948408DC
:102C200080E001C081E0DF91CF910895A0E0B0E0A5
:102C3000ECE1F6E10C944823E82FF0E0E058FB4F7C
:102C4000D490282F26952695269530E0F901E05E50
:102C5000FA4F0491877010E0082E02C01595079571
:102C60000A94E2F701701127F901E05FFA4FE4904E
:102C7000F12C082E02C0F594E7940A94E2F791E053
:102C8000E922FF24F901E050FB4FC491D0E002C0DB
:102C9000D595C7958A95E2F7C170DD270115110515
:102CA00019F081EE0E940005E114F10419F086EE9E
:102CB0000E9400058D2D0E941A06E114F10419F0FE
:102CC00086EE0E94A1050115110519F081EE0E9402
:102CD000A105CD2B19F08CE20E941A06CDB7DEB704
:102CE000E7E00C946423EF92FF920F931F93CF932E
:102CF000DF93EC01162F0AE08881882309F455C080
:102D0000813009F043C08981813041F47E0182E045
:102D1000E80EF11C8A810E941A0609C0823049F42B
:102D20007E01E2E0EE0EF11C8A810E940005E701BF
:102D30002FC0833041F47E01F2E0EF0EF11C8A8156
:102D40000E94A105F4CF843011F0219621C02A8180
:102D5000229680E090E030E0205331092A3031059E
:102D600058F4089FA001099F500D1124C901840F38
:102D7000951F21962881EFCF009751F0EFE9FFE0F2
:102D80003197F1F700C000000197F6CF0E941616A8
:102D90002196812F882309F4AFCFEFE9FFE0319727
:102DA000F1F700C000008150F5CFCDB7DEB7E6E007
:102DB0000C94652384E0089550E0440F551F22E2EF
:102DC000629F400D511D11249A016CEC869F200DCD
:102DD000311D1124C901869608950F931F93CF9337
:102DE000DF938430A0F4663090F4413180F40E9487
:102DF000DC168C010E948A2390E0D82FCC27C801D2
:102E000001960E948A239E01282BC90102C080E0FE
:102E100090E0DF91CF911F910F9108950F931F9331
:102E2000CF93DF93843080F4663070F4413160F4E6
:102E3000E9010E94DC168C016D2F0E9498236C2FF3
:102E4000C80101960E949823DF91CF911F910F91A5
:102E500008950F931F93CF93DF93C0E0D0E010E06D
:102E600000E00E94860390E0C817D9073CF4402F89
:102E7000612F8C2F0E9488039C0102C021E030E06A
:102E8000402F612F8C2F0E940E170F5F013149F7E1
:102E90001F5F163029F72196C430D10501F7DF9165
:102EA000CF911F910F910895EF92FF920F931F936F
:102EB000CF93DF93EA017A01E60EF71E8C01C80179
:102EC0008696CE15DF0569F0003323E0120720F463
:102ED0000E948A23888301C0188221960F5F1F4FAA
:102EE000EECFCDB7DEB7E6E00C946523EF92FF920C
:102EF0000F931F93CF93DF93EA017A01E60EF71E3B
:102F00008C01C8018696CE15DF0559F0003323E009
:102F1000120718F468810E94982321960F5F1F4FB3
:102F2000F0CFCDB7DEB7E6E00C946523843038F4FB
:102F3000663028F4413118F40E94ED16089580E0BF
:102F400090E0089580E108958AEA90E00895EF9274
:102F5000FF920F931F93CF93DF93EA017A01E60E5E
:102F6000F71E8C01C8018A5A9C4FCE15DF0561F00F
:102F70000A3A110520F40E948A23888301C018822E
:102F800021960F5F1F4FEECFCDB7DEB7E6E00C9472
:102F90006523EF92FF920F931F93CF93DF93EA0184
:102FA0007A01E60EF71E8C01C8018A5A9C4FCE1595
:102FB000DF0551F00A3A110518F468810E94982340
:102FC00021960F5F1F4FF0CFCDB7DEB7E6E00C9430
:102FD0006523CF93DF93C6E5D3E060E0CE010E9486
:102FE00098232196C11584E0D807B9F7DF91CF91D6
:102FF0000895A8E0B0E0EFEFF7E10C944323F82E3A
:103000008FE08F1508F474C08FEF93E00E948A233D
:1030100081116EC006E513E0FF2071F0011594E008
:10302000190709F465C0C8010E948A23811101C0F3
:10303000FA940F5F1F4FF0CFFE0131966F0188E0C9
:1030400011928A95E9F77801FFEFEF1AFF0AC8019C
:103050000E948A2389831A82882309F449C0813017
:1030600009F040C0580182E0A80EB11CC7010E94BF
:103070008A238A838823E1F19FEF980F933060F4CD
:10308000780193E0E90EF11CC5010E948A238B832D
:10309000882371F11C8226C0843019F54E01E3E0CB
:1030A0008E0E911C02E010E07501FFEFEF1AFF0A8F
:1030B000C5010E948A23F40181934F018823C1F046
:1030C0008C3741F4E2E0F0E0EC0FFD1FE00FF11F60
:1030D000108208C00F5F1F4F57010730110521F7FD
:1030E00007C0750160E0C6010E9473168701ABCF6F
:1030F0002896ECE00C945F23CF93DF9386319C47B6
:1031000041F5EB010E94690D982F8A812091000101
:1031100030910101882379F09A7A81E009F480E006
:1031200080937902911102C069E201C065E3C9018F
:103130000E94B51A0AC080917902811102C069E229
:1031400001C065E3C9010E94C31A0E94AD0D80E071
:1031500001C081E0DF91CF9108950F931F93CF932A
:10316000DF93C42FD22FFC0182818823B1F04093DA
:103170007C020E94931B90937B0280937A0280E2F0
:103180008C0F883008F04DC0C77081E001C0880FF7
:10319000CA95EAF70E94240644C080917C02481335
:1031A00030C080917A0290917B020E94AB1B883CD8
:1031B000910538F510E21D0FCD17B9F080E28C0FA4
:1031C000883040F4C77081E001C0880FCA95EAF7E3
:1031D0000E942B06183010F581E09D2F977001C0DA
:1031E000880F9A95EAF70E942406802F0E941A06FB
:1031F0001830B8F4D77081E001C0880FDA95EAF78B
:103200000AC080E28C0F883060F4C77081E001C092
:10321000880FCA95EAF70E942B0603C0802F0E94F0
:103220001A06DF91CF911F910F9108950F93FC0122
:10323000E851FC47E730F10590F5CB01E956FF4F27
:103240000C94302306E221EE41EE6AE17CE723C0D4
:1032500007E225EE45EE6BE17CE71DC006E221EEBC
:1032600040EE68E17CE717C007E225EE44EE69E135
:103270007CE711C006E221EE42EE6CE17CE70BC078
:1032800007E225EE46EE6DE17CE705C008E221E0AD
:1032900045EE6EE17CE70E94AD1880E008C0FB01BE
:1032A0008281882319F010927C0201C081E00F9185
:1032B00008951F93CF93DF9387372CE7920721F070
:1032C00088379C4759F031C0FB01C281CC2319F0EB
:1032D0000E949B1909C00E949B1918C0FB01C28162
:1032E000CC2391F00E949E190E940A090E94A11904
:1032F000D82F0E949E19C82F0E949B194D2F6C2F0A
:103300000E94340AC0E012C00E949E190E94160951
:103310000E94A119182F0E949E19D82F0E949B1954
:10332000412F6D2F0E94340A01C0C1E08C2FDF9124
:10333000CF911F9108958091040108958091030118
:1033400008958091020108959093A7018093A601AA
:10335000089590938202809381020895E091810202
:10336000F0918202309729F00190F081E02D0995CB
:10337000089580E00895FC01A0918102B09182023D
:10338000109791F080910D01882341F08091A70260
:1033900087FF04C08081818386E08083CF011296FD
:1033A000ED91FC91139709950895A3E0B0E0EBED42
:1033B000F9E10C944D2320917F023091800228176F
:1033C0003907A1F09093800280937F02E0918102FF
:1033D000F0918202309751F023E029839B838A8306
:1033E0000680F781E02DCE01019609952396E2E053
:1033F0000C946923A3E0B0E0E0E0FAE10C944D23E3
:1034000020917D0230917E0228173907A1F0909318
:103410007E0280937D02E0918102F09182023097DA
:1034200051F024E029839B838A830680F781E02D75
:10343000CE01019609952396E2E00C946923FC01E4
:10344000329680910D01882331F08091A70287FF89
:1034500002C09EE101C096E080E0915028F02191E9
:103460002223D9F38F5FF9CF0895662351F120917C
:103470000D012223E9F02091A70227FF19C0462F52
:103480004695469546954E31E0F4677021E030E070
:1034900002C0220F331F6A95E2F7FC01E40FF11D11
:1034A000828190E02823392381E0232B69F409C02D
:1034B000FC01329608962191621729F0E817F90766
:1034C000D1F780E0089581E008959C01FC013296D7
:1034D0009FEF80E04191461789F09F3F19F4411119
:1034E00001C0982F8F5F8630A9F79F3F39F0F9010F
:1034F000E90FF11D97FDFA956283089508959C01E7
:103500002A5F3F4FFC014281461301C0128201969F
:1035100082179307B9F70895262F269526952695A5
:103520002E3168F4FC01E20FF11D677021E030E0FC
:1035300001C0220F6A95EAF78281282B2283089521
:10354000262F2695269526952E3170F4FC01E20F44
:10355000F11D677021E030E001C0220F6A95EAF7A3
:103560002095828128232283089520910D01222312
:1035700039F02091A70227FF03C00E948C1A0895FA
:103580000E94651A089520910D01222339F020919F
:10359000A70227FF03C00E94A01A08950E947F1A65
:1035A000089520910D01FC013296222331F0809183
:1035B000A70287FF02C08EE101C086E0DF011D92F5
:1035C0008A95E9F7089508950E94E31A089583E023
:1035D000809383020E94E41A0895811102C081E061
:1035E00001C082E0809383020E94E41A08950E9441
:1035F000ED1A089581E0809383020E94E41A0895F1
:103600000E94FA1A089508950E94031B08950E94CB
:10361000041B08950E94031B08950E94031B089534
:103620000E94031B0895CF930E940D1B0E94431319
:103630000E940A1BC0E08C2F0E944812672B682B47
:10364000692B29F4CF5FC630B1F780E001C081E07B
:10365000CF91089585B7806885BF85B7806885BF9D
:1036600008951F920F920FB60F9211248F939F937C
:10367000AF93BF9380918402811113C08091D902CE
:103680009091DA02A091DB02B091DC024196A11D7B
:10369000B11D8093D9029093DA02A093DB02B0931C
:1036A000DC02BF91AF919F918F910F900FBE0F9051
:1036B0001F9018958091E102843031F10E947004CE
:1036C0001092840220E488E190E00FB6F894A89567
:1036D000809360000FBE2093600083B7817F846079
:1036E00083BF83B7816083BF7894889583B78E7FCB
:1036F00083BF0FB6F894A89580916000886180938D
:103700006000109260000FBE08950E9484080E941D
:103710007504089582E084BD93E095BD9AEF97BD4E
:1037200080936E0008952FB7F8948091D9029091FC
:10373000DA02A091DB02B091DC022FBF08952FB70F
:10374000F8946091D9027091DA028091DB02909135
:10375000DC022FBF08959C014FB7F8948091D902E5
:103760009091DA02A091DB02B091DC024FBF821B84
:10377000930B089578941F920F920FB60F92112415
:103780008F939F93AF93BF938091D9029091DA0268
:10379000A091DB02B091DC020196A11DB11D8093C6
:1037A000D9029093DA02A093DB02B093DC02BF91BE
:1037B000AF919F918F910F900FBE0F901F90189512
:1037C00081E08093E00080E28093D8001092C900ED
:1037D0008FE19EE40197F1F700C0000087E090EBD5
:1037E000DC018093EA029093EB02A093EC02B09389
:1037F000ED029CE088E10FB6F894A89580936000F4
:103800000FBE90936000FFCF9CE088E10FB6F89464
:10381000A895809360000FBE90936000FFCF8091C9
:10382000A502089508959B019091E1029430F1F46E
:103830008F708093E9008FEF9091E800815095FDA3
:1038400006C095ED9A95F1F700008111F5CF8091B2
:10385000E80085FF0BC0BA01C90140E050E00E94BA
:103860005D1E8091E8008E778093E800089543E024
:1038700050E0BC0184E00E94131C0895CF93DF93B5
:10388000EC0180910D01811105C048E050E0BE01BE
:1038900081E00BC08091A70287FF03C040E284E073
:1038A00002C048E081E050E0BE010E94131C80E2AB
:1038B000FE01A5E8B2E001900D928A95E1F7DF9153
:1038C000CF910895603231F4BC0140E250E082E0D3
:1038D0000E94131C08958091E002811109C00E948A
:1038E0002D200E948A208091E20084608093E20073
:1038F00008951092E00208950E94001B08956091BF
:10390000DD0281E0611101C080E00E94E71A0895A4
:103910009091E10281E0943009F080E06091DD0255
:103920000E94ED1A089542E061EC81E00E94A61F1A
:1039300042E261EC84E00E94A61F42E261EC82E078
:103940000E94A61F42E260EC83E00E94A61F9091B5
:10395000E10281E0943009F080E06091DD020E9494
:10396000F71A08958091E302833009F463C030F4BC
:10397000813071F0823009F49DC008958A3009F4D5
:1039800089C08B3009F46EC0893009F0ABC020C00B
:103990008091E202813A09F0A5C08091E800877F1A
:1039A0008093E8008091E6029091E702892B21F450
:1039B00060E285E892E003C060E080E090E070E0C3
:1039C0000E94E71E8091E8008B778093E8000895BD
:1039D0008091E202813209F085C08091E6029091E7
:1039E000E702009719F0029709F07CC08091E80087
:1039F000877F8093E8008091E80082FD05C0809178
:103A0000E1028111F8CF6EC02091F3008091F200A5
:103A100090E0922B029731F48091F100813011F007
:103A2000863021F48091F1008093A5028091E80016
:103A30008B7754C08091E202813A09F053C08091A3
:103A4000E6029091E702892B09F04CC08091E800D2
:103A5000877F8093E8008091E80080FFFCCF809111
:103A60000D0137C08091E2028132E1F58091E602DA
:103A70009091E702892BB1F58091E800877F8093D0
:103A8000E8000E94DB1F8091E40280930D010E94F8
:103A9000840808958091E202813221F58091E80046
:103AA000877F8093E8000E94DB1F8091E50280936E
:103AB000A60208958091E202813AA1F48091E80083
:103AC000877F8093E8008091E80080FFFCCF8091A1
:103AD000A6028093F1008091E8008E778093E80041
:103AE0000E94DB1F089584B7877F84BF0FB6F894C8
:103AF000A8958091600088618093600010926000BA
:103B00000FBE90E080E80FB6F89480936100909328
:103B100061000FBE0E94FA1A08950E942D200E9493
:103B20008A20E2EEF0E080818460808378940E94B5
:103B30001523089585E091E00E94A91908958091C8
:103B4000E1028530A9F48091E102853079F40E9488
:103B50005A1B8091DF028823B1F30E94131B882334
:103B600091F30E94471E0E948408EDCF0E94851B9E
:103B70000895A0E2B0E0EFEBFDE10C944D238091BD
:103B8000E102843011F583E08093E9008091E80040
:103B900082FF1BC08091E80085FF0AC040E050E032
:103BA00060E270E0CE0101960E94A21E91E001C089
:103BB00090E08091E8008B778093E800992329F0CA
:103BC00060E2CE0101960E945C14A096E2E00C94A3
:103BD00069239A014091E8025091E9020E94F11D87
:103BE0000895492F552743305105C9F060F44130FD
:103BF000510581F04230510509F041C08BE590E05C
:103C00004CE555E040C041325105E1F042325105EA
:103C100031F135C082E190E047EB55E034C099279F
:103C20008130910549F028F0029749F5E0E3F5E08D
:103C300005C0E8E5F5E002C0E0E4F5E0849190E03D
:103C4000AF0121C063307105D0F4660F771FFB010F
:103C5000E056FE4F4081518189E090E014C063300E
:103C6000710568F4FB01EE0FFF1FE656FE4F408121
:103C70005181FB01E956FE4F808190E004C080E055
:103C800090E040E050E0F90151834083089580E1E5
:103C900089BD82E189BD09B400FEFDCF8091D800C5
:103CA0008F7D8093D8008091E00082608093E00057
:103CB0008091E00081FDFCCF0895A0E0B0E0E3E654
:103CC000FEE10C944723EC018B017A010E94FA1F5C
:103CD000811133C0E114F10439F0F7018081918141
:103CE000081B190BC80FD91FC12CD12C01151105A8
:103CF00019F18091E80085FD16C08091E8008E776B
:103D00008093E800E114F10449F0F701808191818A
:103D1000C80ED91ED182C08285E00FC00E94FA1F52
:103D2000882321F30AC089918093F1000150110981
:103D3000FFEFCF1ADF0ADACF80E0CDB7DEB7E8E0D9
:103D40000C946323A0E0B0E0E8EAFEE10C94472382
:103D5000EC018B017A010E94FA1F811133C0E1143A
:103D6000F10439F0F70180819181081B190BC80F0C
:103D7000D91FC12CD12C0115110519F18091E80032
:103D800085FD16C08091E8008B778093E800E114F0
:103D9000F10449F0F70180819181C80ED91ED182CA
:103DA000C08285E00FC00E94FA1F882321F30AC059
:103DB0008091F100899301501109FFEFCF1ADF0ABA
:103DC000DACF80E0CDB7DEB7E8E00C946323209132
:103DD000E8023091E9022617370748F061157105AE
:103DE00039F42091E8002E772093E80001C0B90152
:103DF000FC0120E06115710579F18091E1028823D1
:103E0000F1F18530F1F18091E80083FD3CC08091B3
:103E1000E80082FD2EC08091E80080FFEBCF20916A
:103E2000F3008091F20090E0922B6115710551F042
:103E30008830910538F421912093F1006150710987
:103E40000196F3CF21E0089709F020E08091E80087
:103E50008E778093E800CECF2111CFCF0AC080911A
:103E6000E102882361F0853061F08091E80083FDF4
:103E70000AC08091E80082FFF2CF80E0089582E0DE
:103E8000089583E0089581E008952091E80230913B
:103E9000E9022617370748F06115710539F42091BA
:103EA000E8002E772093E80001C0B901FC0120E072
:103EB0006115710591F18091E102882309F440C0F8
:103EC000853009F43FC08091E80083FD3DC08091BA
:103ED000E80082FD2FC08091E80080FFE9CF2091AB
:103EE000F3008091F20090E0922B6115710559F07A
:103EF0008830910540F424912093F100319661506F
:103F000071090196F2CF21E0089709F020E0809135
:103F1000E8008E778093E800CBCF2111CCCF0AC088
:103F20008091E102882361F0853061F08091E800A2
:103F300083FD0AC08091E80082FFF2CF80E00895FF
:103F400082E0089583E0089581E00895982F9730E6
:103F500068F59093E900981739F07091EC00209182
:103F6000ED005091F00003C0242F762F50E021FD8A
:103F700002C09F5FECCF3091EB003E7F3093EB00AF
:103F80003091ED003D7F3093ED003091EB003160DA
:103F90003093EB007093EC002093ED005093F00011
:103FA0002091EE0027FDE5CF80E008958F7080938B
:103FB000E90081E008958091E20287FF11C08091BD
:103FC000E80082FD05C08091E1028111F8CF11C0A7
:103FD0008091E8008B770BC08091E102882349F043
:103FE0008091E80080FFF8CF8091E8008E77809381
:103FF000E80008952091E4003091E50095E64091B5
:10400000EC00842F817040FF23C08091E80080FD88
:104010001DC08091E102882399F0853099F080914C
:10402000EB0085FD11C04091E4005091E50024179C
:10403000350729F3915011F09A01E1CF84E00895FA
:1040400082E0089583E0089581E0089580E0089576
:104050004091E80042FFDDCF08950E949C200E941D
:10406000A420E0EEF0E0808181608083E8EDF0E064
:1040700080818F77808319BCA7EDB0E08C918E7F13
:104080008C9380818F7E80831092E00208950F933D
:104090001F93CF93DF930E949C200E94A420C8ED21
:1040A000D0E088818F778883888180688883888141
:1040B0008F7D888319BC1092E1021092DD0210926C
:1040C000DF021092DE0200EE10E0F80180818B7FAB
:1040D000808388818160888342E060E080E00E9484
:1040E000A61FE1EEF0E080818E7F8083E2EEF0E0BB
:1040F000808181608083808188608083F8018081F5
:104100008E7F8083888180618883DF91CF911F912A
:104110000F910895E8EDF0E080818F7E8083E7EDD8
:10412000F0E080818160808384E082BF81E08093C1
:10413000E0020E9447200895E8EDF0E080818E7F44
:1041400080831092E20008951092DA001092E1004C
:1041500008951F920F920FB60F9211242F933F9341
:104160004F935F936F937F938F939F93AF93BF937F
:10417000EF93FF938091E10082FF0BC08091E200FA
:1041800082FF07C08091E1008B7F8093E1000E9455
:1041900014238091DA0080FF1FC08091D80080FF37
:1041A0001BC08091DA008E7F8093DA008091D90065
:1041B00080FF0DC080E189BD82E189BD09B400FEA8
:1041C000FDCF81E08093E1020E946B1C05C019BC09
:1041D0001092E1020E94791C8091E10080FF19C0D9
:1041E0008091E20080FF15C08091E2008E7F809375
:1041F000E2008091E20080618093E2008091D8002B
:1042000080628093D80019BC85E08093E1020E940F
:104210007F1C8091E10084FF30C08091E20084FF28
:104220002CC080E189BD82E189BD09B400FEFDCFCB
:104230008091D8008F7D8093D8008091E1008F7E9F
:104240008093E1008091E2008F7E8093E200809174
:10425000E20081608093E2008091DD02882311F00A
:1042600084E007C08091E30087FD02C081E001C0C7
:1042700083E08093E1020E94881C8091E10083FF2B
:1042800029C08091E20083FF25C08091E100877FF3
:104290008093E10082E08093E1021092DD02809140
:1042A000E1008E7F8093E1008091E2008E7F809319
:1042B000E2008091E20080618093E20042E060E0F1
:1042C00080E00E94A61F8091F00088608093F0003B
:1042D0000E947C1CFF91EF91BF91AF919F918F91B4
:1042E0007F916F915F914F913F912F910F900FBEF2
:1042F0000F901F9018951F920F920FB60F921124D6
:104300002F933F934F935F936F937F938F939F93DD
:10431000AF93BF93CF93DF93EF93FF93C091E900E7
:10432000CF708091EC00D82FD17080FDD0E8109232
:10433000E9008091F000877F8093F00078940E94DC
:10434000BF211092E9008091F00088608093F00016
:10435000CD2BCF70C093E900FF91EF91DF91CF910A
:10436000BF91AF919F918F917F916F915F914F918D
:104370003F912F910F900FBE0F901F901895AAE2BA
:10438000B0E0E5ECF1E20C944C23E2EEF2E0809137
:10439000F100819322E0EA3EF207C9F70E94B21CC5
:1043A0008091E80083FF2EC18091E2029091E302A8
:1043B000492F50E04A30510508F024C1FA01E25675
:1043C000FF4F0C943023803821F0823809F01AC155
:1043D00008C08091DE029091DF02992389F082600B
:1043E0000FC08091E6028F70873008F00BC1809378
:1043F000E9008091EB0085FB882780F91092E900A5
:104400009091E800977F9093E8008093F1001092DC
:10441000F100D1C0282F2D7F09F0F4C0882319F0B6
:10442000823061F0EFC08091E402813009F0EAC08F
:10443000933009F080E08093DF022EC08091E40287
:1044400081112AC08091E6028F702FEF280F26304D
:1044500008F0D8C08093E9002091EB0020FF1CC039
:10446000933021F48091EB00806214C09091EB00B6
:1044700090619093EB0021E030E0A90102C0440F6D
:10448000551F8A95E2F74093EA001092EA00809166
:10449000EB0088608093EB001092E9008091E800C7
:1044A000877F8093E8000E94DB1FACC08111AAC007
:1044B0001091E4021F778091E3008078812B809334
:1044C000E3008091E800877F8093E8000E94DB1F73
:1044D0008091E80080FFFCCF8091E30080688093AA
:1044E000E300111102C082E001C083E08093E10289
:1044F00089C08058823008F085C08091E402909194
:10450000E5028C3D53E0950779F583E08A838AE2E2
:1045100089834FB7F894DE01139620E03EE051E224
:10452000E32FF0E050935700E49120FF03C0E295A1
:10453000EF703F5FEF708E2F90E0EA3010F0C7967B
:1045400001C0C0968D939D932F5F243149F74FBFD3
:104550008091E800877F8093E8006AE270E0CE01F6
:1045600001960E94E71E16C06091E6027091E70274
:10457000AE014F5F5F4F0E94E91DBC01892B09F41A
:1045800041C09091E800977F9093E80089819A81DB
:104590000E94451F8091E8008B778093E80032C02D
:1045A000803881F58091E800877F8093E8008091D2
:1045B000DD028093F1008091E8008E7772CF811147
:1045C00021C08091E4029091E50299270297D4F4EA
:1045D0008091E800877F8093E8008091E4028093D7
:1045E000DD020E94DB1F8091DD02811106C08091F7
:1045F000E30087FD02C081E001C084E08093E10216
:104600000E94931C8091E80083FF0AC08091E8001B
:10461000877F8093E8008091EB0080628093EB00BD
:10462000AA96E3E00C9468230895CF938091E10269
:104630008823A1F0C091E900CF709091EC00892F00
:10464000817090FD80E8C82B1092E9008091E8000D
:1046500083FD0E94BF21CF70C093E900CF910895E0
:10466000EE0FFF1F0590F491E02D0994692796271E
:10467000692778278727782708952F923F924F92AE
:104680005F926F927F928F929F92AF92BF92CF92E2
:10469000DF92EF92FF920F931F93CF93DF93CDB7EB
:1046A000DEB7CA1BDB0B0FB6F894DEBF0FBECDBF63
:1046B00009942A88398848885F846E847D848C8434
:1046C0009B84AA84B984C884DF80EE80FD800C813D
:1046D0001B81AA81B981CE0FD11D0FB6F894DEBF20
:1046E0000FBECDBFED010895FB01DC0104C08D912B
:1046F0000190801921F441505040C8F7881B990B54
:104700000895FB01DC0102C001900D924150504020
:10471000D8F70895F999FECF92BD81BDF89A9927EF
:1047200080B50895A8E1B0E042E050E00C94BE23CB
:10473000262FF999FECF92BD81BDF89A019700B45A
:10474000021639F01FBA20BD0FB6F894FA9AF99AFA
:104750000FBE08950396272F0E9499230E94982345
:10476000252F0E949923242F0C9499230196272FFB
:104770000E9499230C949823DC01CB01FC01F99948
:10478000FECF06C0F2BDE1BDF89A319600B40D929D
:0C47900041505040B8F70895F894FFCF56
:10479C0031020302010F1C3E1C121C371C01E200EB
:1047AC00E900EA00B500B600B700CD008301CC00EB
:1047BC008A0192019401210223022402250226027D
:1047CC0027022A02B300B4006F0070009F01CB01D6
:1047DC009F02A002818283E200E900EA00B500B6E4
:1047EC0000B700CD008301CC008A01920194012115
:1047FC0002230224022502260227022A02B300B455
:10480C00006F0070009F01CB019F02A00281828388
:10481C00F5953132339392676636353497969437E3
:10482C0030F1F0C6F4F6F740226D5806C905EB05D9
:06483C006E058705A705CB
:00000001FF
