:100000000C9492020C94CA020C94CA020C94CA0278
:100010000C94CA020C94CA020C94CA020C94CA0230
:100020000C94CA020C94CA020C94EF1F0C94BF20CB
:100030000C94721A0C94CA020C94CA020C94CA0250
:100040000C94CA020C94CA020C94CA020C94CA0200
:100050000C94CA020C94FB1A0C94CA020C94CA02A7
:100060000C94CA020C94CA020C94CA020C94CA02E0
:100070000C94CA020C94CA020C94CA020C94CA02D0
:100080000C94CA020C94CA020C94CA020C94CA02C0
:100090000C94CA020C94CA020C94CA020C94CA02B0
:1000A0000C94CA020C94CA020C94CA02167C1E005C
:1000B0001F0020002100220023002400250026002C
:1000C00027002D002E002A0000002B0014001A002B
:1000D0000800150017001C0018000C001200130087
:1000E0002F00300031004B00E00004001600070034
:1000F00009000A000B000D000E000F003300340051
:10010000000028004E00E10000001D001B0006005A
:100110001900050011001000360037003800E50016
:1001200052004D00E000E300E2000000000000008B
:100130002C0000000000E600215200005000510099
:100140004F0035003A003B003C003D003E003F00C0
:10015000400041004200430044004500010000000F
:100160000100010001000100010001000100010087
:100170000100010001000100010001000100010077
:100180000100010001000100010001000100010067
:100190000100010001000000010001000100000059
:1001A0000100010001000100007C010001000100CC
:1001B000010001000100A900A800010001000100E8
:1001C000000000000000010000000000010001002C
:1001D0000000AC00AA00AB0001000100010001001A
:1001E0000100010001000100010001000100010007
:1001F00001000100000001000100010001000100F8
:1002000001000100010001000100010001000100E6
:1002100001000100010001000100010001000100D6
:1002200001000100010001000100010000000100C7
:1002300001000100000001000100010001000100B7
:1002400001000100010001000100010001000100A6
:10025000010001000100000000000000010000009A
:100260000000010001000000010001000100010088
:100270000100010001000100010001000100010076
:100280000100010001000100010000000100010067
:100290000100010001000100010001000100010056
:1002A0000100010001000100010001000100010046
:1002B0000100010001000100010001000100010036
:1002C0000100000001000100010000000100010028
:1002D0000100010001000100010001000100010016
:1002E0000100010001000100010001000000000008
:1002F00000000100000000000100010000000100FA
:100300000100010000000000000000002A2B28006E
:1003100000000000000000000000000000000029B4
:10032000000000002C1E3420212224342627252EF4
:10033000362D3738271E1F2021222324252633332C
:10034000362E37381F0405060708090A0B0C0D0E58
:100350000F101112131415161718191A1B1C1D2F24
:100360003130232D350405060708090A0B0C0D0E44
:100370000F101112131415161718191A1B1C1D2F04
:100380003130354C0000000000000000000000008B
:10039000000000000000000000000000000000005D
:1003A00000000000000000007E0F00D4FFFFFFC728
:1003B000000000780E036B0075006B0075003600BE
:1003C000350000001A0354006F00610073007400D0
:1003D0007900530074006F0065006D00700000002C
:1003E0000403090409025B00030100A0FA090400E8
:1003F000000103010100092111010001224400074D
:10040000058103080001090401000203000000093E
:1004100021110100012222000705820320000107AB
:100420000503032000010904020001030000000984
:100430002111010001226D00070584032000011233
:1004400001000200000008535452000100010200A4
:10045000010660FF0961A1010962150026FF0095F0
:1004600020750881020963150026FF009520750894
:100470009102C005010980A101850319012AB70075
:10048000150126B700950175108100C0050C090102
:10049000A101850419012AA002150126A0029501D7
:1004A00075108100C005010906A10185060507191F
:1004B000E029E71500250195087501810205071956
:1004C0000029EF1500250195F07501810205081935
:1004D000012905950575019102950175039101C0EA
:1004E00005010906A101050719E029E71500250105
:1004F00095087501810295017508810105071900AC
:1005000029FF150026FF00950675088100050819CA
:1005100001290515002501950575019102950175C3
:10052000039101C011241FBECFEFDAE0DEBFCDBFC3
:1005300004B603FE18C08091BA029091BB02A0914C
:10054000BC02B091BD028730904BA740B04B59F42C
:100550001092BA021092BB021092BC021092BD021D
:10056000E0E0F8E3099511E0A0E0B1E0ECE2F6E4A8
:1005700002C005900D92AA3AB107D9F722E0AAEA83
:10058000B1E001C01D92AA3BB207E1F70E94071239
:100590000C9414230C9400008430B8F46530A8F453
:1005A0004F3098F4E42FF0E09FE0699FE00DF11DDB
:1005B00011249BE4899FE00DF11D1124EE0FFF1F14
:1005C000E455FF4F85919491089581E090E008955E
:1005D00081E008950E94E802089581E008950E9454
:1005E000E80208950E94EF02089508950E94F5021E
:1005F0000895A6E0B0E0EFEFF2E00C948422498386
:100600005A839E833091B10189819A8131111AC038
:100610003E81332399F0222389F00E947108182F1C
:10062000682F89819A810E944D0869817A81812F82
:100630000E949F0F2696E3E00C94A0220E945F0880
:10064000182FF3CF0E94710869817A81F1CFFC01E4
:10065000262F4081518162817381848195810E941E
:10066000F9020895CF93DF93EC0161E00E94270324
:10067000BE010E94EA02DF91CF910895CF93DF93EC
:10068000EC0160E00E942703BE010E94F602DF91A8
:10069000CF91089591E001C0990F8A95EAF7892FCB
:1006A0000E9494070895CF93C82F81E00C2E01C0BB
:1006B000880F0A94EAF70E94000D8C2F0E944A03CB
:1006C000CF91089581E008950E9462030895CF9329
:1006D000C82F0E944A078C2F0E9464032FE78AE1EB
:1006E00096E0215080409040E1F700C00000CF919B
:1006F000089581E00E9467030E94211B089580E015
:100700000E9467030E94451B08950F931F93CF9388
:10071000DF938C0161E00E942703EC01B8010E9485
:100720007C17811106C080E0DF91CF911F910F915E
:100730000895B801CE010E94F2028823A1F3B80106
:10074000CE010E948016882371F3B801CE010E9469
:100750000A14882341F3B801CE010E94E0138823D4
:1007600011F3B801CE010E94CB168823E1F2B80143
:10077000CE010E94A5108823B1F2F801858188235B
:1007800061F0C330FCE7DF07E9F058F4C115ECE78E
:10079000DE07A9F0C130DC47B9F0C8010E94ED02C4
:1007A000C3CFCB358CE7D807A9F0CC35ECE7DE0713
:1007B00071F0CA35DC4789F70E94DB0CEECF0E944E
:1007C0007903B1CF0E94E30C0E947F03ACCF0E945B
:1007D000D10CE3CF0E94DF0CE0CF0E944E1A0E94A2
:1007E0000D0408950E9411040E94531A089581E097
:1007F00008950895CF93DF93D82F0E94F703C82F51
:10080000882319F08D2F0E94F9038C2FDF91CF914F
:10081000089508950E94FA03089580E00E940A0452
:1008200008950E9475180E940A040895CF930E94AB
:100830007518C82F8091AC018C1779F0C093AC016A
:100840000E94E01A6093AD017093AE018093AF01F6
:100850009093B0018C2F0E940A04CF910895ADE0CF
:10086000B0E0E5E3F4E00C948522488759876A8775
:100870007B878C879D8791110E94E10B1F8286E008
:10088000FE013896DE01119601900D928A95E1F7EE
:100890008D8181110DC029813A814B815C816D81EF
:1008A0007E818F810E94290B2D96E2E00C94A1227B
:1008B000CE0101960E9432038111EDCFF5CFFC01EC
:1008C0002481213021F4808191810E949E08089525
:1008D000CF938823A1F0C82F8CEF8C0F813A88F436
:1008E0008C2F0E940719882329F08C2F0E94AC19A5
:1008F0000E94750C8C2F0E9492190E94750CCF914A
:10090000089580E28C0F883048F4C77081E001C000
:10091000880FCA95EAF70E94C20BEFCFEBE5EC0F08
:10092000E33040F4F0E0E55BFE4F808190E00E9410
:100930009B18E5CFC85ACB3110F7EC2FF0E0EE0F43
:10094000FF1FEB5EFE4F808191810E94C018D7CFC0
:10095000882339F19CEF980F913A28F40E94AC1942
:100960000E94750C089590E2980F983050F48770AB
:1009700091E001C0990F8A95EAF7892F0E94C80B70
:10098000EFCF9BE5980F933028F490E080E00E9431
:100990009B180895885A8B3120F490E080E00E94E3
:1009A000C01808951F93CF93DF93182FEB010E9477
:1009B0006804209739F4812F0E94A804DF91CF9119
:1009C0001F9108958FEC97E00197F1F700C00000A8
:1009D0002197EFCF70E060E0893311F460E570E0BB
:1009E0000E94D2040895882321F00E94C20B0E9425
:1009F000750C0895882321F00E94C80B0E94750C85
:100A00000895B0E0A0E0E7E0F5E00C947F226C01EF
:100A1000D62FC72FFC011581068102950F700E9409
:100A2000B80BE82E8823F9F0E12E1123E1F08C2F8A
:100A3000807F803461F080E28D0F883070F18C2FE0
:100A4000807E803221F4D23040F1002331F1809158
:100A5000940282FF22C082E00E94A50C0E94B80B83
:100A600091E0E82EE926FC2EF2949FE0F922FBE0CB
:100A7000FF1508F4C7C0EF2DF0E0EF5BFA4F0C94C0
:100A800068224F054F0596059605FB0502060206EE
:100A900002061C06840695069506E12CE4CF0C2F71
:100AA0000F70C07F11F00295007F112399F0002391
:100AB00059F080E28D0F883010F0D11107C0802FDF
:100AC0000E94C20B0E94750C8D2F51C0802F0E9476
:100AD000D30BF8CF8D2F0E94A804002379F080E279
:100AE0008D0F883010F0D11104C0802F0E94C80BE8
:100AF00003C0802F0E94D90B0E94750CEE2089F054
:100B00000E94B40B80FD0DC0F60115820E94AE0B51
:100B10000E94C107C6010E9415070E94AE0B0E94E9
:100B2000CD07CDB7DEB7E8E00C949B222C2F2F70B9
:100B3000F22EC07FC03219F0F29480EFF822DD234C
:100B400041F0D130D1F1112309F444C00023F1F078
:100B5000BBCF8091940282FD15C0112359F0FF2074
:100B600029F08F2D0E94C20B0E94750C80E00E941C
:100B70006804C4CF80E00E94A804FF2009F4BECF1F
:100B80008F2DB4CF112369F0011104C08F2D0E9465
:100B9000F304B4CF013009F0B1CF8F2D0E94F80BD0
:100BA000ADCF0111ABCF8F2D0E94FA048F2D0E9483
:100BB000040C8F2D0E94E80BA1CF112321F00630E9
:100BC00008F09CCFE3CF053008F098CF8F2D0E941E
:100BD000FA0494CF0023D1F3D93349F48FEF93EF84
:100BE000E1E081509040E040E1F700C000008D2F2F
:100BF0000E94A80483CF8C2F86958695837041F040
:100C0000813081F088EF8F0D843008F077CF3BC0C2
:100C10008D2F9C2F9370111102C080E090E00E94F4
:100C20009B186CCF8D2F9C2F9370111102C080E008
:100C300090E00E94C01862CF8C2F837091F5111143
:100C400022C04D2F429546954770440F440F8D2F7B
:100C50008F70042E01C0880F0A94EAF720E0D4FFB9
:100C600007C02FE030E001C0220F4A95EAF7209537
:100C7000822BC695C695C370C23069F078F4C13036
:100C800039F00E949D070E9475180E940A0436CF11
:100C90000E949707F8CF0E94A307F5CF0E94940700
:100CA000F2CF8695112311F08C2F8170882359F390
:100CB0004D2F429546954770440F440F8D2F8F70EE
:100CC000042E01C0880F0A94EAF720E0D4FF07C081
:100CD0002FE030E001C0220F4A95EAF72095822BE1
:100CE000C695C695C370C23049F058F4C13019F0AA
:100CF0000E94EC07C8CF0E94E607C5CF0E94F2070A
:100D0000C2CF0E94AF07BFCFCF70112339F08C2F15
:100D10000E94C1078D2F0E94F304B5CF8D2F0E9432
:100D2000FA048C2F0E94CD07AECFD23F61F170F450
:100D3000D03FD9F0D13F91F0112309F44AC00023EC
:100D400009F444C08D2F0E9468045CCFD33F11F199
:100D5000D43F91F78091940282FD26C08C2F8F7131
:100D60001123A9F00E94C1074DCF112341F0053096
:100D700008F048CF8C2F8F710E94DA0743CF0630DE
:100D800008F040CFF7CF8C2F8F71112359F30E94B9
:100D9000CD0738CF112329F08C2F8F710E94B8070F
:100DA00031CF0E94B4072ECF112331F063E08C2F96
:100DB0008F710E94870C26CF81E00E94A50C023023
:100DC00008F420CF82E00E94A50C1CCF8C2F8F71DD
:100DD000C9CF002379F0D93349F4FFEF23EF81E045
:100DE000F15020408040E1F700C000008D2F0E94AC
:100DF000A80408CF8C2F8F71CACF0F931F93CF9366
:100E0000DF93EC01688179818D810E94A9088C01B2
:100E10000E94F8070E949307B801CE010E940105C5
:100E2000DF91CF911F910F910895CF93DF93FC0134
:100E30002481222399F0EC010E948503811111C0C5
:100E40000E94B80B882351F08D81882339F080915E
:100E5000940282FF03C082E00E94A50CDF91CF9133
:100E60000895CE010E94FD06CE010E943E03F6CFFA
:100E700090E080E00E949B1890E080E00E94C01803
:100E80000E94E10B0E94750C08950E94C6190E94F1
:100E9000380708950E94D00B0E9445070895929547
:100EA0009F70963089F050F49250923058F4803F01
:100EB00019F030F4883E30F481E008959A50F5CF6F
:100EC000843FD1F380E00895883EB0F3813FD1F7AD
:100ED000F3CFFC012481222339F0808191810E948B
:100EE0009E080E944F07089580E00895A6E0B0E0B4
:100EF000ECE7F7E00C9485222696E2E00C94A12220
:100F0000A7E0B0E0E6E8F7E00C9485222796E2E05F
:100F10000C94A12208950E948A0708950E948B07CD
:100F20008093D101089508950E948E0708959091AD
:100F3000D101892B0E948E0708959091D1018923B8
:100F40000E948E0708959091D10189270E948E07F3
:100F500008950E948A0708950E94A90708950E9493
:100F6000AC078093D001089580E00E94AF070895F8
:100F700091E001C0990F8A95EAF7892F0E94AF0787
:100F8000089521E030E001C0220F8A95EAF78091B0
:100F9000D001822B0E94AF07089521E030E001C00C
:100FA000220F8A95EAF720958091D00182230E9432
:100FB000AF07089521E030E001C0220F8A95EAF7DB
:100FC0008091D00182270E94AF0708959091D001AF
:100FD000892B0E94AF0708959091D00189230E9428
:100FE000AF0708959091D00189270E94AF07089517
:100FF0000895262F277091E001C0990F2A95EAF7EE
:1010000023E0769567952A95E1F7FB01EE0FFF1F28
:10101000E60FF71FE40FF51F50E040E0682F70E087
:101020008191DF0111979B01042E02C0369527950F
:101030000A94E2F7217021952827292328272C9349
:101040004F5F5F4F4330510559F70895A82FA770A0
:1010500023E0969587952A95E1F7FC01EE0FFF1F97
:10106000E80FF91FE60FF71F50E040E080E0219104
:1010700030E00A2E02C0369527950A94E2F72170D7
:101080003327042E01C0220F0A94EAF7822B4F5F08
:101090005F4F4330510559F70895282F953070F46C
:1010A0008F3060F4862F622F70E02FE0929F600DEA
:1010B000711D112442EB51E00E94F907089595300B
:1010C00070F48F3060F4292F90E062EB71E03FE024
:1010D000239F800D911D11240E942608089580E011
:1010E0000895CF92DF92FF920F931F93CF93DF93D8
:1010F0006C010091D0018091D101082BC3E0D0E0B8
:1011000010E0FC2EC8010C2E02C0959587950A941C
:10111000E2F780FD0CC02197A0F7F12C8F2DDF9115
:10112000CF911F910F91FF90DF90CF900895B6015E
:101130008C2F0E94AB0F019771F3F0CFCF93DF9309
:10114000EC010E947108BE010E94AB0FDF91CF91AC
:1011500008951F93CF93DF93EB019091B1019923F1
:1011600039F0CB010E949E08DF91CF911F91089525
:10117000882369F0CB010E947108182F682FCE01D7
:101180000E944D08BE01812F0E94AB0FEDCFCB0115
:101190000E945F08182FF6CFE1E0F0E0DF0102C007
:1011A000AA0FBB1F6A95E2F7BD01DF0102C0AA0FBB
:1011B000BB1F4A95E2F76A2B01C0EE0F2A95EAF7AA
:1011C000962F9823961302C08E2B0895E0958E23B8
:1011D0000895242F462F682F8091D0010E94CC08BB
:1011E0000E94AF0708951F93CF93DF93C091D20160
:1011F00017E08091D3018C1304C0DF91CF911F9130
:101200000895D0E01C9FF0011D9FF00D1124EC52B9
:10121000FE4F2081318142815381648175818681B5
:101220000E9480072196C770E4CF20910C02309174
:101230000D0240910E0250910F02609110027091C8
:101240001102809112020E9480070895CF93DF93CC
:1012500080911202807F09F04DC080911102882395
:1012600009F448C0E091D2015091D301C0910D0220
:10127000D0910C0260910E0270910F0247E05E1750
:10128000C9F18E2F90E0E49FF0011124EC52FE4F43
:101290002481222391F1489FF001499FF00D1124F0
:1012A000DF01AC52BE4F11962C9111972C1325C023
:1012B0002C912D1322C015962C91159721111DC02C
:1012C00012962D913C91261B370B283C3105A8F432
:1012D000809112028F70806180931202E652FE4F5D
:1012E00080818F70806180838CE092E00E9415077E
:1012F0000E94F308DF91CF910895FC013196E770C9
:10130000BECF482F2091D2019091D30157E02913ED
:1013100002C080E0089530E0529FF001539FF00D2D
:101320001124EC52FE4F8181681306C0808148135E
:1013300003C085818111EECF2F5F3F4F2770E7CF2C
:10134000A4E1B0E0E6EAF9E00C947B228C0186E0AF
:10135000F801DE011F9601900D928A95E1F7F801E0
:101360008481E5809CE0A92E92E0B92E9091100234
:1013700091111FC08823D1F0EE20A9F0C8010E946E
:101380006907F82E882379F087E0F801D5010190EC
:101390000D928A95E1F7C5010E945F040E9426091B
:1013A0000E9415095FC0C8010E941507FF24F3942D
:1013B00059C0C080D18082809380F090110220912A
:1013C0000E0230910F02A401421B530BFF2009F4BF
:1013D000F8C0483C510508F0A6C0882309F442C073
:1013E00090910D0280911202282F207F09F05BC09E
:1013F000D91216C090910C02C91212C0E1104DC052
:101400008F708061809312020E9415098CE092E037
:101410000E94150780911202F8018683F12C22C0E8
:10142000E1103BC06D2D8C2D0E9481096D2D8C2DFE
:101430000E948109E82E8111F1CFCF86D88A8F854D
:1014400098890E949E08292F22952F70243078F4C5
:101450009F702230A0F09923B1F0F8019681907F1F
:1014600091F4FE2C8F2D6496ECE00C9497222A5078
:10147000223068F0C8010E941507EF2CF2CF9923A3
:1014800011F0882371F3805E8830A0F7EACF803FA7
:1014900040F3815F833070F7E4CF80911202816066
:1014A00080931202BBCFD91213C090910C02C912C3
:1014B0000FC0E1100DC08683C8010E94150787E0A8
:1014C000F801ACE0B2E001900D928A95E1F768CFA7
:1014D000C8010E946907882309F465CFEE2009F44A
:1014E00062CF80911202803288F020910C023091FC
:1014F0000D02398728879B868A86909110029C87E7
:101500001D868E87CE0108960E94150787E0F80198
:10151000ACE0B2E001900D928A95E1F70E942609B5
:101520000E94150943CF90911202292F207FA1F428
:10153000682D9A8A898AA6017A899E2D0E9476074B
:101540008CE092E00E94150787E0F50111928A95E0
:10155000E9F70E94150962CF882309F483CF8091AF
:101560000D028D1110C080910C02C8120CC0E11048
:101570000AC09683C8010E94150787E0F501119201
:101580008A95E9F76FCFC8010E946907882309F49B
:101590000ACFEE2009F407CF80911202803208F4BE
:1015A000B5CF20910C0230910D023A8329839C82A1
:1015B0008B82909110029D831E828F83CE010196B3
:1015C000A3CF483C5105B8F5882309F4EFCEFE2C93
:1015D000EE2009F4E8CE80910D028D111EC080919D
:1015E0000C02C8121AC08091120280FD0DC0982F03
:1015F000907F51F08683903F09F45ECF982F907FC3
:10160000905F8F70892B57CF87E0F801ACE0B2E094
:1016100001900D928A95E1F725CFC8010E946907D4
:10162000811174CF80911202816080931202C801EF
:101630000E94150717CF682D9A8A898AA6017A8990
:101640009E2D0E94760787E0F50111928A95E9F7B1
:10165000A7CEAEE0B0E0EFE2FBE00C948422288756
:1016600039874A875B876C877D878E87CE0108968E
:101670000E94A0098823B1F16C85662341F028857A
:1016800039854A855B857D858E850E94800717E0B8
:101690008091D2019091D301891709F45BC0819F99
:1016A000C00111248C529E4F0E94A009882309F486
:1016B00051C0E091D2011E9FF0011124EC52FE4F67
:1016C00020813181428153816481758186810E94AC
:1016D00080078091D20190E00196877099278093CE
:1016E000D201D6CF87E0FE013896DE011196019037
:1016F0000D928A95E1F78C85882349F22091D301D8
:1017000030E0C9010196877099274091D2014817AE
:10171000190699F097E0929FD001939FB00D112484
:10172000AC52BE4FFE01319601900D929A95E1F7B1
:101730008093D3010E94F308AACF0E944A07109217
:10174000D3011092D20187E0ECE0F2E0DF011D92BC
:101750008A95E9F72E96E3E00C94A02280913B0253
:10176000869586958695089580913B0287700895A9
:1017700090913B02977081E009F480E00895809198
:101780006702089590916702892B809367020895FC
:10179000982F90958091670289238093670208951E
:1017A00010926702089590916602892B80936602D9
:1017B0000895982F90958091660289238093660200
:1017C000089510926602089508950E94E40B08950A
:1017D00090913C02292F282331F080958923809312
:1017E0003C020E94E50B089508950E94F40B0895B1
:1017F00090913D02292F2823281729F0982B9093A8
:101800003D020E94F50B089590913D02292F282357
:1018100031F08095892380933D020E94F50B089555
:1018200080913D02882329F010923D0280E00E94C1
:10183000F50B0895CF93C091670280916602C82B83
:1018400080913D02882331F0C82B0E94E518811158
:101850000E94100C8C2FCF910895CF93DF93C091ED
:101860000201D09103010E941A0C8883C0910201E9
:10187000D091030148E050E063E372E0CE010E94A2
:10188000AC22892B59F088E0FE01A3E3B2E001907D
:101890000D928A95E1F7CE010E948218DF91CF91D7
:1018A0000895CF93DF93C0910001D09101010E9470
:1018B0001A0C8983C0910001D091010140E250E0EF
:1018C00063E172E0CE010E94AC22892B59F080E2E4
:1018D000FE01A3E1B2E001900D928A95E1F7CE01FD
:1018E0000E948D18DF91CF9108950E94291A8130AE
:1018F00039F48091930287FF03C00E94510C089530
:101900000E942D0C089508950E94830C08959091D3
:10191000940292FF11C098E0899F90011124622BDC
:1019200060933B020E94C10780913B028695869599
:1019300086950E94840C08950E94C1070895109214
:101940003B0280E00E94840C089590913B028095B8
:10195000892380933B02282F277069F4891759F057
:101960009091940292FF07C08695869586950E9475
:10197000CD070E949F0C08959091940292FB22271C
:1019800020F9281769F080FB92F9909394028091D6
:101990009302909194020E940B0D82E00E94A50C8C
:1019A00008958091940282FB882780F991E089272D
:1019B0000E94BC0C089581E00E94BC0C089580E058
:1019C0000E94BC0C08956FEF7FEF90E080E00E94D2
:1019D000FE22089590E080E00E94CA22853E9E4F3C
:1019E00019F40E941517089580E0089582E090E0B0
:1019F0000E94C222089583E090E00E94C2220895CE
:101A0000682F83E090E00E94E022089584E090E057
:101A10000E94CA220895BC0184E090E00E94FE2248
:101A20000895AB01BC018FE090E00E94F22208957E
:101A3000AB01BC0183E190E00E94F222089560E0D6
:101A400070E0CB010E94180D089560E070E0CB01BA
:101A50000E94110D0E941F0D0895A8E0B0E0E3E37D
:101A6000FDE00C94852265EE7EEF90E080E00E9420
:101A7000FE2260E082E090E00E94E02281E080931C
:101A8000D1010E94000D60E074E184E090E00E94CA
:101A9000FE2260E086E090E00E94E02260E087E0C5
:101AA00090E00E94E02240E050E0BA0188E090E03F
:101AB0000E94F22260E083E290E00E94E02260E077
:101AC0008CE090E00E94E02260E08DE090E00E94D7
:101AD000E02219821A821B821C821D821E821F82B2
:101AE000188648E050E067E170E0CE0101960E9460
:101AF000D02240E050E0BA018FE190E00E94F22253
:101B000080E00E942E170E945E170E94250D2896E5
:101B1000E2E00C94A1220E942D0D0895682F8EE022
:101B200090E00E94E0220895A6E0B0E0EAE9FDE03E
:101B30000C9483220E94D41A8C01809168029091A7
:101B400069028017910781F019821A820E94D41AC3
:101B5000682F49815A81792F80E090E00E942F04FC
:101B600010936902009368022696E4E00C949F2289
:101B70000E94E01A609378027093790280937A024F
:101B800090937B0260937402709375028093760247
:101B9000909377020895089508950E94CB0D0895BB
:101BA00008950E94D00D089583EA90E10E941E12CC
:101BB0000E94CC0D0E94CD0D089581E008950E94F1
:101BC000DD0D08950E94DD0D0895089508950E9489
:101BD000E50D0E94E60D08950E94EA0C811102C0F5
:101BE0000E948B0D0E94F60C80937C020E94060DD1
:101BF00090939402809393020E943E120E94FB0CE9
:101C00000E9494078091D0010E94AC0708950E9421
:101C1000CB1A0E946E170E9477110E94EC0D0E9451
:101C200009040E94D10D0895A6E0B0E0EAE1FEE0CB
:101C30000C9479220E94DF0D811108C00E94940D3E
:101C40000E9416042696EEE00C9495220E948D11B7
:101C50002AE6822E22E0922E640110E0F601E19045
:101C6000F1906F01812F0E94BF101F5F153009F4A2
:101C70004BC0E816F90691F380917C0281FD0E9429
:101C8000C8100E94E20D782E10E066246394812F24
:101C90000E94BF107C01F401A190B1904F018A1500
:101CA0009B0561F100E0CC24C394D12CAE24BF2469
:101CB000C5018C219D21892BC1F07720B1F00983CA
:101CC0001A830E94D41A9C838B836D8221E0C70102
:101CD0008C219D21892B09F420E049815A816B8157
:101CE0007C818D81922F0E942F040F5FCC0CDD1C14
:101CF0000F30F1F6F4013297F182E0821F5F153068
:101D000031F60E94B80D9CCFE816F90609F0B4CF61
:101D100095CF1F93CF93DF930E94B00FEC01C115B5
:101D200080E5D807E8F5C11580E4D80708F09BC026
:101D3000C03ED10518F5CD3CD10508F081C0C83AA8
:101D4000D10570F4C53AD10508F072C0C130D10593
:101D500011F118F0C430D105F0F4D0E0C0E01BC0A0
:101D6000C33CD105D0F7C85AD0E0CC0FDD1FC25B11
:101D7000DE4F0990D881C02DD4640DC0C11580E21A
:101D8000D80708F0CBC0C11581E0D80708F05AC0C9
:101D9000C83ED10510F7CE01DF91CF911F91089574
:101DA000C03682E5D80718F5C03482E5D80708F0B8
:101DB00069C0C03282E5D80708F05DC0C11582E570
:101DC000D80708F493C02C2F2695269580E2289FEB
:101DD000900111248C2F8370C1E0D0E002C0CC0FA1
:101DE000DD1F8A95E2F7C22BD32BDD68D4CFC03A32
:101DF00082E5D80760F4C03882E5D80708F457C0F8
:101E0000CF71D0E0DC2FCC27C46FD06AC4CFC03CE8
:101E100082E5D80708F45EC0C03E82E5D80708F026
:101E20009CCFDC2FCC27CC27DF71C06FD06AB3CF1B
:101E3000C55AD0E0CC57DE4FC881D0E0D064ABCFDC
:101E4000D065A9CF8D2F0E945410182FCE0199274D
:101E50000E94B00FC12FD0E0DC2FCC27CC27DF7140
:101E6000C82BD92B98CFCE0199270E94B00FCC2731
:101E7000DF70D06AF5CFCF71D0E0DC2FCC27C16FF7
:101E8000D06A89CF2C2F26952695277080E2289F2F
:101E9000900111248C2F8370C1E0D0E002C0CC0FE0
:101EA000DD1F8A95E2F7DC68C22BD32B74CF2C2F71
:101EB00026952695277080E2289F900111248C2F6B
:101EC0008370C1E0D0E002C0CC0FDD1F8A95E2F73D
:101ED000DA68EACF8C2F8F710E945410C82FD0E09F
:101EE000DC2FCC27CC27DF71D06255CF8C2F8F71A0
:101EF0000E94541055E0D695C7955A95E1F7CF70DA
:101F0000D0E0DC2FCC27282F30E084FF05C044E050
:101F1000220F331F4A95E1F7D069C6CF8D2F8F71FD
:101F20000E945410182FCE0199270E94B00FC12F84
:101F3000D0E0DC2FCC27CC27DF71906291CF7530B9
:101F400038F46F3028F4462F672F0E94F712089557
:101F500090E080E008950E949F0F0E94890E0895EE
:101F600082389105B9F1B0F48133910509F47DC04F
:101F700048F48932910509F46DC08A32910509F45B
:101F800079C008958533910509F45FC089339105BF
:101F900009F10895833E9105D9F138F4803E910509
:101FA00029F1823E910579F10895863E9105D9F196
:101FB000873E910509F43EC0843E910541F520918C
:101FC000940221FF24C08091930284FD19C087EE02
:101FD00090E0089520919302237009F056C020915B
:101FE000940223FF14C089E290E0089520919302A7
:101FF00020FD38C03091940230FF09C024FF3FC05B
:1020000090E080E008952091930222FDF7CF08959B
:102010002091930222FD36C03091940230FD35C0EC
:1020200024FDEECFF4CF2091930223FFF0CF24FDC7
:10203000E7CFCDCF2091930223FD2AC030919402A7
:1020400031FFEECF84EE90E008952091930225FDBC
:10205000CACF08952091930225FD1DC020919402BE
:1020600023FFD5CF89E390E008952091930226FDC8
:1020700015C008952091930226FD13C0089583EEA4
:1020800090E0089582EE90E0089580EE90E008954B
:1020900086EE90E0089585E390E008958AE290E06E
:1020A000089581E390E0B3CF9091930292FF10C026
:1020B00041E0282F2471243009F040E031E0282F3E
:1020C0002871283009F030E0431711F02CE0822706
:1020D00093FF10C041E0282F2471243109F040E023
:1020E00031E0282F2871283109F030E0431711F032
:1020F0002CE082273091940230FF10C051E0282F4D
:102100002171213009F050E041E0282F287128305A
:1021100009F040E0541711F029E0822731FF10C088
:1021200041E0282F2171213109F040E031E0282FD2
:102130002871283109F030E0431711F029E0822797
:1021400094FD877E089580E00895CF939C01205EE2
:102150003245C1E02032310538F4FB01C581C1119F
:1021600003C08F710E9453038C2FCF91089508955F
:102170000E94B710089508950E94BB100895E82F9B
:10218000F0E0EE0FFF1FE156FD4F80819181089531
:10219000089580E58A95F1F7089500C008950E949A
:1021A000C9100895F894E82FE295EF70F0E031A19E
:1021B000282F2F7081E090E001C0880F2A95EAF760
:1021C000982F9095932391A392A1892B82A3789421
:1021D00008950F931F93CF93DF93C6E9D1E08991C0
:1021E0008F3F11F00E94D21081E0CB39D807B9F7A8
:1021F000C7E8D1E006E911E089918F3F11F00E9414
:10220000D2100C171D07C1F7DF91CF911F910F91CD
:102210000895AF92BF92DF92EF92FF920F931F93B8
:10222000CF93DF93EC01062F10E0C8018A569E4F32
:102230007C01FC0190819F3F09F44CC0D62EF8949C
:10224000E92FE295EF70F0E081A19F7021E030E08E
:1022500001C0220F9A95EAF7822B81A382A12095D3
:10226000282322A378940E94CD10E7E8F1E041E012
:1022700050E0B12CA12C21912F3FB1F1A22FA295BA
:10228000AF70B0E090968C9190E02F7002C0959561
:1022900087952A95E2F780FD27C0CA01A82AB92AA6
:1022A000440F551F81E0E639F80729F7F7018081CF
:1022B0008F3F11F00E94D21061E0A114B10409F423
:1022C00060E08D2D0E94CF10000F111FC00FD11F95
:1022D000B982A882DF91CF911F910F91FF90EF906B
:1022E000DF90BF90AF90089590E080E0D7CF0E943C
:1022F000E9108AE0EFE9F2E0DF01982F1D929A954C
:10230000E9F7E5E9F2E0DF011D928A95E9F785E05A
:102310000E94C8110E94B8100895AAE0B0E0E3E955
:10232000F1E10C9482228E010F5F1F4F8AE0F801C9
:1023300011928A95E9F7F12C6F2DC8010E940911BD
:10234000F394F5E0FF12F8CF4AE050E0B80185E9D8
:1023500092E00E94AC2221E0009709F420E0892B52
:1023600041F08AE0F801A5E9B2E001900D928A956A
:10237000E1F745E06FE972E085E992E00E94C9115A
:10238000182F0E94BC10812F2A96E5E00C949E2203
:102390000895B0E0A0E0EFECF1E10C947F226C0135
:1023A0007B01042FC22F222379F081E080937F02EA
:1023B0000E94D41A90937E0280937D0280E0CDB774
:1023C000DEB7E8E00C949B22D0917F02DD23B1F3CD
:1023D00080917D0290917E020E94EC1A059770F325
:1023E00010E0000F111FA801B601C7010E94AC2226
:1023F000892B31F0A801B601C7010E94B922CD2F67
:1024000010927F028C2FDBCF0E94140E08950E9441
:102410006B1A0E94DB1C0E94D40D0E94F51C0E94C6
:10242000070E0E94021D0E94071D0E9404120E94B6
:10243000211D0E94A21B0E94E70DF5CF9093AB01D6
:102440008093AA0108950E94E30C089580E00E9401
:10245000BF10817008950E948D118FE59AEE01974B
:10246000F1F700C000000E948D110E9426128823FF
:1024700021F00E9423120E94211B08950E942B121A
:10248000089584E0089550E0440F551F2EE1629FA7
:10249000400D511D11249A0166E9869F200D311DC2
:1024A0001124C901889608950F931F93CF93DF934A
:1024B0008430C8F46530B8F44F30A8F40E94431259
:1024C0008C010E94C222C82FD0E0DC2FCC27C8018B
:1024D00001960E94C2229E01282BC901DF91CF9153
:1024E0001F910F91089590E080E0F8CF0F931F9314
:1024F000CF93DF93843080F4653070F44F3060F414
:10250000E9010E9443128C016D2F0E94E0226C2F82
:10251000C80101960E94E022DF91CF911F910F9197
:1025200008951F93CF93DF93D0E0C0E011C0412FF7
:102530006C2F8D2F0E94CC029C01412F6C2F8D2F70
:102540000E9476121F5F1F3091F7CF5FC53011F0E8
:1025500010E0EDCFDF5FD43041F7DF91CF911F91D5
:102560000895EF92FF920F931F93CF93DF938C0107
:10257000EA017A01E60EF71EC8018896CE15DF053E
:1025800029F4CDB7DEB7E6E00C949D22083522E0B1
:10259000120738F40E94C222888321960F5F1F4FD2
:1025A000EBCF1882FACFB0E0A0E0E9EDF2E10C94B5
:1025B0007F227C016A018C01060F171FEC01CE01FE
:1025C0008896C017D10729F4CDB7DEB7E8E00C94A0
:1025D0009B22C83522E0D20740F4FE01EE19FF0924
:1025E000EC0DFD1D60810E94E0222196E8CF843031
:1025F00038F4653028F44F3018F40E9454120895CE
:1026000090E080E0089580E1089580E891E00895E9
:10261000EF92FF920F931F93CF93DF938C01EA0108
:102620007A01E60EF71EC80180589D4FCE15DF05D2
:1026300029F4CDB7DEB7E6E00C949D22003821E006
:10264000120738F40E94C222888321960F5F1F4F21
:10265000EACF1882FACFB0E0A0E0E1E3F3E10C9416
:102660007F227C016A018C01060F171FEC01CE014D
:1026700080589D4FC017D10729F4CDB7DEB7E8E0E9
:102680000C949B22C03821E0D20740F4FE01EE19E1
:10269000FF09EC0DFD1D60810E94E0222196E7CF2D
:1026A000CF93DF93C0E8D2E060E0CE010E94E02249
:1026B0002196C11584E0D807B9F7DF91CF9108952D
:1026C000A8E0B0E0E6E6F3E10C947B22F82E8FE080
:1026D0008F1508F471C08FEF93E00E94C222811120
:1026E0006BC000E812E0F11035C0FE0131966F01B9
:1026F00088E011928A95E9F77801FFEFEF1AFF0A57
:10270000C8010E94C22289831A82882309F454C016
:102710008130D1F4580182E0A80EB11CC7010E949B
:10272000C2228A83882309F447C09FEF980F933011
:10273000F0F4780193E0E90EF11CC5010E94C22279
:102740008B838823C9F11C8260E0C6010E94AD150D
:102750008701D2CF011594E0190771F1C8010E94D9
:10276000C222811101C0FA940F5F1F4FBCCF7501C7
:10277000843051F74E01E3E08E0E911C02E010E030
:102780007501FFEFEF1AFF0AC5010E94C222F40192
:1027900081934F01882381F08C3741F4E2E0F0E02F
:1027A000EC0FFD1FE00FF11F1082CECF0F5F1F4F08
:1027B00057010730110521F72896ECE00C94972279
:1027C000CF93DF9386319C4719F5EB010E94BF0B35
:1027D0009D81992399F08A7A91E009F490E0909391
:1027E0008002811109C089E20E9492190E94750C31
:1027F00080E0DF91CF91089585E3F6CF809180024C
:10280000811104C089E20E94AC19F0CF85E3FBCFAF
:1028100081E0EFCFCF93DF93EC01FB01858188232B
:1028200009F4F5C09E0130572332310508F0D5C0B8
:102830000E94060D9093940280939302FE01E15052
:10284000F047E232F10508F026C0E75DFB4E0C943C
:1028500068228514F9148D1457145B1491145F14B5
:102860009514A1146B14F2146F14A5147314A91405
:10287000D1147714AD14D8147D14B314BB1463149D
:10288000991467149D148114B714C714E114F0143B
:1028900051148914001580919302816080939302F2
:1028A00093C0809194028860809394028DC080913F
:1028B00093028260F3CF809193028460EFCF809186
:1028C00093028860EBCF809194028160EDCF80917C
:1028D00094028260E9CF809193028061DFCF809182
:1028E00093028062DBCF809193028064D7CF0E94F5
:1028F0004A07809193028068D1CF809193028860CB
:10290000DCCF809194028260E0CF809193028E7F31
:10291000C5CF80919402877FC7CF809193028D7F2E
:10292000BDCF809193028B7FB9CF80919302877F37
:10293000B5CF809194028E7FB7CF809194028D7F26
:10294000B3CF809193028F7EA9CF809193028F7D28
:10295000A5CF809193028F7BA1CF0E944A078091DF
:1029600093028F779BCF80919302877FDCCF8091FA
:1029700094028D7FE0CF8091930282FB992790F99A
:1029800021E0922790FB82F990FB83F987CF809119
:102990009402982F909591708E7F892B90FB81F9EE
:1029A00083CF90919302892F8F7B96FF806476CF9F
:1029B0000E944A0790919302892F97FB87F98058CC
:1029C0006DCF81E00E948E0D8091930290919402D0
:1029D0000E940B0D0E944A0780E0DF91CF9108957D
:1029E00080E0F0CF90919302892F8F7E94FF8061D9
:1029F00055CF90919302892F8E7F90FF81604ECFAB
:102A000090919402892F877F93FF88604DCF81E05A
:102A1000E4CFB0E0A0E0EFE0F5E10C947E22E82FF7
:102A2000F0E0EC5FFC4FB490282F26952695269574
:102A300030E0F901EC55FC4F0491877010E0082E4E
:102A400002C0159507950A94E2F701701127F90164
:102A5000EC56FC4FE490F12C082E02C0F594E7945C
:102A60000A94E2F791E0E922FF24F901EC57FC4FC8
:102A7000C491D0E002C0D595C7958A95E2F7C170A0
:102A8000DD27C62ED12C0115110549F5E114F104FD
:102A900031F086EE0E946804C601009771F5B60118
:102AA0008B2D0E94D204C601009779F5E114F10440
:102AB000A1F50115110531F081EE0E94A804C601AF
:102AC0000097C9F5CD2B31F08CE20E94EA04C114C5
:102AD000D104C9F5CDB7DEB7E9E00C949A2281EEB6
:102AE0000E946804C601009789F2EFECF7E0319785
:102AF000F1F700C000000197F6CFEFECF7E0319757
:102B0000F1F700C000000197C8CFEFECF7E0319774
:102B1000F1F700C000000197C7CF86EE0E94A8041D
:102B2000C601009731F2EFECF7E03197F1F700C002
:102B300000000197F6CFEFECF7E03197F1F700C016
:102B400000000197BDCF8FEC97E00197F1F700C02F
:102B5000000091E0C91AD108BACFEF92FF920F930B
:102B60001F93CF93DF93EC01162F0AE0888188230F
:102B700009F459C0813009F052C08981813071F463
:102B80007E0182E0E80EF11C8A810E94EA04E701DE
:102B9000812F90E00097D9F52196E8CF823041F45B
:102BA0007E01E2E0EE0EF11C8A810E946804EFCF04
:102BB000833041F47E01F2E0EF0EF11C8A810E9425
:102BC000A804E5CF843011F02196E2CF2A81229625
:102BD00090E080E0AE014F5F5F4F2053330B2A300F
:102BE000310550F00097A1F2EFECF7E03197F1F7E3
:102BF00000C000000197F6CF089FB001099F700D3B
:102C00001124C901860F971F2981EA01E3CFEFEC58
:102C1000F7E03197F1F700C000000197BBCF612FBB
:102C20000E940915B9CFCDB7DEB7E6E00C949D221E
:102C30000F931F93CF93DF93C42FD22FFC01858175
:102C40008823C9F0409383020E94D41A9093820291
:102C50008093810280E28C0F883040F4C77081E05D
:102C600001C0880FCA95EAF70E94F304DF91CF9163
:102C70001F910F91089510918302141332C0809117
:102C80008102909182020E94EC1A883C910548F5DD
:102C9000C0E2CD0F1D17B9F080E2810F883040F4FB
:102CA000177081E001C0880F1A95EAF70E94FA04B4
:102CB000C83010F581E09D2F977001C0880F9A955C
:102CC000EAF70E94F304802F0E94EA04C83070F6ED
:102CD000D77081E001C0880FDA95EAF70E94FA0404
:102CE000C5CF80E28C0F883008F6C77081E001C044
:102CF000880FCA95EAF7F2CF802F0E94EA04B6CF78
:102D00000F93FC01E851FC47E730F10508F03AC0A9
:102D1000CB01E357F94E0C946822A416AA16941618
:102D20009E16B016B616BC1606E221EE41EE6AE11A
:102D30007CE70E94181680E00F91089507E225EEC7
:102D400045EE6BE17CE7F5CF06E221EE40EE68E16F
:102D50007CE7EFCF07E225EE44EE69E17CE7E9CFBF
:102D600006E221EE42EE6CE17CE7E3CF07E225EEDE
:102D700046EE6DE17CE7DDCF08E221E045EE6EE155
:102D80007CE7D7CFFB018581882319F0109283025D
:102D9000D3CF81E0D1CF1F93CF93DF9387372CE739
:102DA000920729F088379C4769F1C1E015C0FB0103
:102DB000C581CC23B1F00E940C170E94C1070E946C
:102DC0001217D82F0E940F17C82F0E940C174D2FD3
:102DD0006C2F0E94E908C0E08C2FDF91CF911F91EA
:102DE00008950E940C170E94CD070E941217182FF9
:102DF0000E940F17D82F0E940C17412F6D2F0E9491
:102E0000E908EACFFB01C581CC2319F00E940F1716
:102E1000D4CF0E940F17E7CF8091060108958091CB
:102E20000501089580910401089584E290E00E94D4
:102E3000C222853289F485E290E00E94C22282306B
:102E400059F486E290E00E94C22291E0853209F0B6
:102E500090E0892F8170089580E0FCCFCF93DF93BD
:102E6000D82FCFEF8111C5E26C2F84E290E00E9451
:102E7000E0226FEFD11162E085E290E00E94E02253
:102E80006C2F86E290E00E94E022DF91CF910895BE
:102E9000089587E290E00E94C222682F70E090E0DF
:102EA00080E008950895CF93C62F0E9452176C2F8B
:102EB00087E290E00E94E022CF91089580E00E9496
:102EC0002E1760E070E0CB010E9453170E94911210
:102ED0000E94501381E00E942E1708950E94481707
:102EE0000E9449170E9452170E941517811102C0B3
:102EF0000E945E17089508959C01FB018581882337
:102F000051F0A90157574038510530F4C9010E94CA
:102F1000601380E0089581E008952FEFFC01208385
:102F200008950E948D17089580E00895B0E0A0E014
:102F3000ECE9F7E10C947D22EC01D62E0E94941767
:102F400081113CC0E881E150E33110F5F0E0E55536
:102F5000F84E0C946822BE17C217011813181B18DC
:102F60002618291829182918C817C8172E18321812
:102F700036184318501853185618631819828CE0E5
:102F80008A8318C089818230F1F028F4813061F0A1
:102F90008FEF88830FC08330C9F08430C9F71A825D
:102FA0001B821C821D8206C00E94E01A9A838B83BA
:102FB0007C836D836D2DCE010E94991BCDB7DEB74A
:102FC000EAE00C9499220E944917F0CFCA807E0152
:102FD00010E000E0AC2CB12CC501800F911F0597CB
:102FE00048F78C2D800F0E94BF10F70193838483D4
:102FF0000F5F1F4FF2E0EF0EF11C0E30110561F76D
:10300000D9CF8981823031F0853011F68A810E94D2
:103010007B17D0CF6A817B818C819D810E946E223B
:103020000E945317C7CF4B816A8189810E94541235
:103030009C838D83BFCF2C813D813227232732276C
:103040004B816A8189810E947612B4CF0E949112CD
:10305000B1CF6D2DCE010E949117ACCF0E9403130A
:103060008983A8CF0E94051399838ACF6B8170E072
:1030700089819A81AE014C5F5F4F982789279827F5
:103080000E94081397CF6B8170E089819A81AE010D
:103090004C5F5F4F9827892798270E942B138ACF70
:1030A0000E94501387CF0E944112DACF6B8170E0EB
:1030B00089819A81AE014C5F5F4F982789279827B5
:1030C0000E94B11277CF6B8170E089819A81AE0145
:1030D0004C5F5F4F9827892798270E94D3126ACFA9
:1030E00090938902809388020895E0918802F0917C
:1030F0008902309729F00190F081E02D099508951B
:1031000080E00895E0918802F0918902309721F0E3
:103110000280F381E02D09950895E0918802F091F5
:103120008902309739F026E0DC012C930480F58188
:10313000E02D09950895A3E0B0E0E1EAF8E10C94F0
:103140008522209186023091870228173907A1F045
:103150009093870280938602E0918802F091890221
:10316000309751F023E029839B838A830084F18583
:10317000E02DCE01019609952396E2E00C94A12260
:10318000A3E0B0E0E6ECF8E10C9485222091840203
:103190003091850228173907A1F09093850280931A
:1031A0008402E0918802F0918902309751F024E086
:1031B00029839B838A830084F185E02DCE010196CB
:1031C00009952396E2E00C94A122CF93DF93C0915E
:1031D0000201D091030122960E94291A813081F4C4
:1031E0008091930287FF0CC0C0910001D091010132
:1031F00022969EE180E0915028F4DF91CF910895CE
:1032000096E0F8CF29912223B1F38F5FF4CFCF93CB
:10321000882329F1C82F0E94291A813019F580913D
:10322000930287FF1FC0EC2FE695E695E695EE31F9
:10323000B0F48091000190910101E80FF92FF11D88
:10324000228130E0C77081E090E002C0880F991FB2
:10325000CA95E2F72823392381E0232B09F480E083
:10326000CF9108958091020190910301FC01329663
:10327000089621912C1721F0E817F907D1F7EFCF25
:1032800081E0EECF9C01FC0132969FEF80E04191FE
:10329000461751F09F3F19F4411101C0982F8F5FDD
:1032A0008630A9F79F3F09F40895290F311D97FD36
:1032B0003A95F90162830895FC01329608962191AE
:1032C000261303C0DF0111971C92E817F907B9F71D
:1032D0000895E62FE695E695E695EE3168F4E80F59
:1032E000F92FF11D677021E030E001C0220F6A95CF
:1032F000EAF78281822B82830895E62FE695E69590
:10330000E695EE3170F4E80FF92FF11D677021E0BA
:1033100030E001C0220F6A95EAF7209582812823C8
:1033200022830895CF93C82F0E94291A6C2F8130D1
:1033300061F48091930287FF08C080910001909111
:1033400001010E946919CF91089580910201909125
:1033500003010E944219F7CFCF93C82F0E94291A68
:103360006C2F813061F48091930287FF08C08091B7
:103370000001909101010E947D19CF9108958091E3
:103380000201909103010E945C19F7CF0E94291A53
:10339000813079F48091930287FF0BC0E0910001A6
:1033A000F091010132968EE1DF011D928A95E9F7D5
:1033B0000895E0910201F0910301329686E0F4CF86
:1033C00008950E94E019089581110EC081E0809354
:1033D0000A016091070170910801809109019091A3
:1033E0000A010E94E119089582E0F1CF83E0809301
:1033F0000A01609107017091080180910901909183
:103400000A010E94E11908950E94E419089581E0DB
:1034100080930A0160910701709108018091090170
:1034200090910A010E94E11908950E94071A0895D7
:1034300091E0811101C090E0909309016091070132
:10344000709108018091090190910A010E94E1198F
:103450000895809109010895809308016091070102
:10346000709108018091090190910A010E94E1196F
:1034700008958091080108958093070160910701E4
:10348000709108018091090190910A010E94E1194F
:103490000895809107010895089508950E944D1A96
:1034A0000895089508950E944C1A0895CF930E949C
:1034B000511A0E948D110E94521AC0E08C2F0E9456
:1034C000BF10892B31F4CF5FC530C1F780E0CF91B9
:1034D000089581E0FCCF85B7806885BF85B7806897
:1034E00085BF08951F920F920FB60F9211248F93EC
:1034F0009F93AF93BF9380918A02811113C08091F3
:10350000A9029091AA02A091AB02B091AC0241969F
:10351000A11DB11D8093A9029093AA02A093AB02B2
:10352000B093AC02BF91AF919F918F910F900FBE5E
:103530000F901F9018958091B102843031F10E9454
:10354000ED0310928A0288E190E020E40FB6F8942F
:10355000A895809360000FBE2093600083B7817FA1
:10356000846083BF83B7816083BF7894889583B775
:103570008E7F83BF0FB6F894A89580916000886114
:1035800080936000109260000FBE08950E944A0769
:103590000E94F203089582E084BD93E095BD9DE70B
:1035A00097BD80936E0008952FB7F8948091A9027B
:1035B0009091AA02A091AB02B091AC022FBF0895E6
:1035C0002FB7F8946091A9027091AA028091AB0282
:1035D0009091AC022FBF08959C014FB7F894809151
:1035E000A9029091AA02A091AB02B091AC024FBF88
:1035F000821B930B089578941F920F920FB60F922F
:1036000011248F939F93AF93BF938091A9029091C0
:10361000AA02A091AB02B091AC020196A11DB11D0E
:103620008093A9029093AA02A093AB02B093AC023C
:10363000BF91AF919F918F910F900FBE0F901F90F0
:10364000189581E08093E00080E28093D80010928A
:10365000C9008FE097E20197F1F700C0000087E012
:1036600090EBDC018093BA029093BB02A093BC0262
:10367000B093BD0288E19CE00FB6F894A8958093C2
:1036800060000FBE90936000FFCF88E19CE00FB612
:10369000F894A895809360000FBE90936000FFCFD0
:1036A00008959B019091B1029430F1F48F70809352
:1036B000E9008FEF9091E800815095FD06C09AE6F1
:1036C0009A95F1F700C08111F5CF8091E80085FF50
:1036D0000BC0BA01C90150E040E00E94941D8091E6
:1036E000E8008E778093E800089543E050E0BC0145
:1036F00084E00E94511B089540E250E0BC0184E048
:103700000E94511B0895CF93DF93EC010E94291A68
:1037100048E050E0BE0181E00E94511B88E0FE01BC
:10372000ABE8B2E001900D928A95E1F7DF91CF917D
:103730000895603231F4BC0140E250E082E00E9422
:10374000511B0895A0E2B0E0E8EAFBE10C94852269
:103750008091B102843009F583E08093E900809183
:10376000E80082FF1AC08091E80090E085FF09C060
:1037700050E040E060E270E0CE0101960E94E31D5F
:1037800091E08091E8008B778093E800992329F0FD
:1037900060E2CE0101960E949617A096E2E00C949A
:1037A000A1228091B002811109C00E94731F0E9462
:1037B000D01F8091E20084608093E200089510920F
:1037C000B00208950E94071A81E00E94181A089515
:1037D0006091AD0281E0611101C080E00E94F619A4
:1037E00008959091B10281E0943009F080E06091F9
:1037F000AD020E94041A089542E061EC81E00E944B
:10380000F11E42E261EC84E00E94F11E42E261ECB2
:1038100082E00E94F11E42E260EC83E00E94F11E11
:103820009091B10281E0943009F080E06091AD02A6
:103830000E94E41908958091B302833009F467C0AF
:1038400038F4813009F43FC0823009F4A3C00895F0
:103850008A3009F48FC08B3009F474C0893009F0C4
:1038600055C08091B202813209F050C08091B602F9
:103870009091B702009719F0029709F047C0809124
:10388000E800877F8093E8008091E80082FF3AC0DB
:103890008091F3009091F200892798278927029759
:1038A00031F48091F100813011F0863021F4809163
:1038B000F1000E942C1A8091E8008B778093E80039
:1038C0000E94251F23C08091B202813AF9F48091B1
:1038D000E800877F8093E8008091B6029091B7025C
:1038E000892B61F468E08BE892E070E00E94321E60
:1038F0008091E8008B778093E800089560E090E085
:1039000080E0F3CF8091B1028111BECF0895809104
:10391000B202813AD9F78091B6029091B702892B11
:10392000A9F78091E800877F8093E8008091E80004
:1039300080FFFCCF0E94291A8093F1008091E8005B
:103940008E77BCCF8091B202813201F78091B602AE
:103950009091B702892BD1F68091E800877F809300
:10396000E8000E94251F8091B4020E94181A0E944C
:103970004A0708958091B202813241F68091E800B1
:10398000877F8093E8000E94251F8091B5020E94E6
:103990003C1A08958091B202813A09F0B7CF809124
:1039A000E800877F8093E8008091E80080FFFCCFEB
:1039B0000E94491AC1CF84B7877F84BF0FB6F8949D
:1039C000A8958091600088618093600010926000EB
:1039D0000FBE80E890E00FB6F8948093610090935A
:1039E00061000FBE0E94151A08950E94731F0E9465
:1039F000D01FE2EEF0E080818460808378940E94A2
:103A00004C2208958BE091E00E94701808958091F7
:103A1000B102853031F48091B102853019F00E94F5
:103A2000C61A08950E949B1A0E94561A882399F379
:103A30008091AF02882379F30E947F1D0E944A077C
:103A4000EACF08959A014091B8025091B9020E94BC
:103A50002A1D0895492F55274330510579F158F40F
:103A600041305105F1F04230510519F190E080E00C
:103A700050E040E01AC04132510599F142325105FF
:103A8000A9F76330710590F7FB01EE0FFF1FE256B7
:103A9000FE4F4081518165567E4FFB01808190E051
:103AA00004C082E190E04FE354E0F9015183408388
:103AB00008958BE590E044EE53E0F7CF99278130ED
:103AC000910561F028F0029789F6E4EBF3E002C07B
:103AD000E0EEF3E0849190E0AF01E7CFE4ECF3E0B7
:103AE000F9CF6330710508F0C1CF660F771FFB0176
:103AF000EC55FE4F4081518189E090E0D6CF19BC52
:103B000082E089BD09B400FEFDCF8091D8008F7D91
:103B10008093D8008091E00082608093E0008091E3
:103B2000E00081FDFCCF0895AF92BF92CF92DF926B
:103B3000FF920F931F93CF93DF936C01EB018A01E8
:103B40000E94441FF82E811123C00115110539F080
:103B5000F80180819181C81BD90BC80ED91EB12CE8
:103B6000A12C2097A9F08091E80085FD22C08091CA
:103B7000E8008E778093E80001151105A1F0F801A7
:103B800080819181A80EB91EB182A08285E0F82EB5
:103B90008F2DDF91CF911F910F91FF90DF90CF90EC
:103BA000BF90AF9008950E94441F8823D1F2F82E51
:103BB000EFCFF60181916F018093F1002197FFEF24
:103BC000AF1ABF0ACECFAF92BF92CF92DF92FF92D1
:103BD0000F931F93CF93DF936C01EB018A010E9437
:103BE000441FF82E811123C00115110539F0F80189
:103BF00080819181C81BD90BC80ED91EB12CA12C74
:103C00002097A9F08091E80085FD22C08091E8000E
:103C10008B778093E80001151105A1F0F8018081F0
:103C20009181A80EB91EB182A08285E0F82E8F2D59
:103C3000DF91CF911F910F91FF90DF90CF90BF90B8
:103C4000AF9008950E94441F8823D1F2F82EEFCF41
:103C50008091F100F60181936F012197FFEFAF1A78
:103C6000BF0ACECFFC018091B8029091B9028617AD
:103C70009707A0F06115710529F49091E8009E77EF
:103C80009093E80090E06115710551F4911108C01E
:103C90008091E80082FF35C080E00895BC01F2CF3A
:103CA0008091B1028823C9F18530C9F18091E80083
:103CB00083FD31C08091E80082FDEACF8091E80069
:103CC00080FFE1CF2091F3008091F200322F282F66
:103CD0006115710519F02830310558F091E0283050
:103CE000310509F090E02091E8002E772093E8005C
:103CF000CACF81918093F100615071092F5F3F4FCE
:103D0000E7CF8091B102882341F0853041F0809166
:103D1000E80083FFBDCF81E0089582E0089583E04D
:103D20000895FC018091B8029091B9028617970717
:103D3000A0F06115710529F48091E8008E778093D9
:103D4000E80090E06115710551F4911108C080916F
:103D5000E80082FF36C080E00895BC01F2CF809178
:103D6000B1028823D1F18530D1F18091E80083FD43
:103D700032C08091E80082FDEACF8091E80080FFA8
:103D8000E1CF2091F3008091F200322F282F6115AE
:103D9000710519F02830310558F091E028303105CF
:103DA00009F090E08091E8008E778093E800CACF18
:103DB00084918093F1003196615071092F5F3F4FDC
:103DC000E6CF8091B102882341F0853041F08091A7
:103DD000E80083FFBCCF81E0089582E0089583E08E
:103DE0000895982F973028F08F708093E90081E034
:103DF00008959093E900242F762F50E0981731F022
:103E00007091EC002091ED005091F00021FD02C076
:103E10009F5FE8CF3091EB003E7F3093EB00309115
:103E2000ED003D7F3093ED003091EB003160309339
:103E3000EB007093EC002093ED005093F000209184
:103E4000EE0027FDE5CF80E008958091B20287FF64
:103E500013C08091E80082FF06C08091E8008B7754
:103E60008093E80004C08091B1028111F2CF0895DF
:103E70008091B1028823D9F38091E80080FFF8CFC8
:103E80008091E8008E77ECCF2091E4003091E5003E
:103E900085E69091EC0090FF06C09091E80090FFBD
:103EA00006C080E008959091E80092FDFACF9091CD
:103EB000B102992391F0953091F09091EB0095FD2E
:103EC00010C04091E4005091E5002417350709F334
:103ED00081509A01F1F684E0089582E0089583E02C
:103EE000089581E008950E94E21F0E94EA1FE0EE1B
:103EF000F0E0808181608083E8EDF0E080818F7761
:103F0000808319BCA7EDB0E08C918E7F8C9380816B
:103F10008F7E80831092B00208950F931F93CF93EA
:103F2000DF930E94E21F0E94EA1FC8EDD0E0888163
:103F30008F77888388818068888388818F7D888354
:103F400019BC1092B1021092AD021092AF02109201
:103F5000AE0200EE10E0F80180818B7F80838881C3
:103F60008160888342E060E080E00E94F11EE1EE23
:103F7000F0E080818E7F8083E2EEF0E080818160DE
:103F80008083808188608083F80180818E7F808338
:103F9000888180618883DF91CF911F910F9108956F
:103FA000E8EDF0E080818F7E8083E7EDF0E08081B6
:103FB0008160808384E082BF81E08093B0020E94B0
:103FC0008D1F0895E8EDF0E080818E7F8083109250
:103FD000E20008951092DA001092E10008951F9215
:103FE0000F920FB60F9211242F933F934F935F932D
:103FF0006F937F938F939F93AF93BF93EF93FF93B1
:104000008091E10082FF0BC08091E20082FF07C037
:104010008091E1008B7F8093E1000E944B22809190
:10402000DA0080FF18C08091D80080FF14C0809112
:10403000DA008E7F8093DA008091D90019BC80FF6E
:1040400091C082E089BD09B400FEFDCF81E080937C
:10405000B1020E94D11B8091E10080FF19C08091C4
:10406000E20080FF15C08091E2008E7F8093E20025
:104070008091E20080618093E2008091D8008062AC
:104080008093D80019BC85E08093B1020E94E81BA0
:104090008091E10084FF28C08091E20084FF24C069
:1040A00019BC82E089BD09B400FEFDCF8091D80023
:1040B0008F7D8093D8008091E1008F7E8093E10016
:1040C0008091E2008F7E8093E2008091E200816027
:1040D0008093E2008091AD02882309F448C084E017
:1040E0008093B1020E94F11B8091E10083FF29C0FF
:1040F0008091E20083FF25C08091E100877F80935B
:10410000E10082E08093B1021092AD028091E10063
:104110008E7F8093E1008091E2008E7F8093E200A9
:104120008091E20080618093E20042E060E080E004
:104130000E94F11E8091F00088608093F0000E9440
:10414000E21BFF91EF91BF91AF919F918F917F9172
:104150006F915F914F913F912F910F900FBE0F90F4
:104160001F9018951092B1020E94DF1B74CF8091AE
:10417000E30087FD02C081E0B3CF83E0B1CF1F929F
:104180000F920FB60F9211242F933F934F935F938B
:104190006F937F938F939F93AF93BF93CF93EF933F
:1041A000FF93C091E900CF708091EC001092E9007C
:1041B0008091F000877F8093F00078940E94FB202C
:1041C0001092E9008091F00088608093F000C09325
:1041D000E900FF91EF91CF91BF91AF919F918F91A6
:1041E0007F916F915F914F913F912F910F900FBEF3
:1041F0000F901F901895AAE2B0E0E1E0F1E20C9474
:104200008422E2EBF2E08091F100819322E0EA3B2C
:10421000F207C9F70E941B1C8091E80083FF44C08D
:104220008091B2029091B3029A3008F03DC0E92F1C
:10423000F0E0E35EFE4D0C94682227214D215421CD
:104240004D215421A521C72154211E222B22803823
:1042500089F0823849F58091B6028F70873020F559
:104260008093E9008091EB0085FB882780F910920C
:10427000E90006C08091AE029091AF029111826078
:104280009091E800977F9093E8008093F10010925E
:10429000F1008091E8008E7727C0282F2D7F21F430
:1042A0008823A1F0823029F18091E80083FF0AC0C1
:1042B0008091E800877F8093E8008091EB00806226
:1042C0008093EB00AA96E3E00C94A0228091B402C4
:1042D000813051F7933009F080E08093AF02109263
:1042E000E9008091E800877F8093E8000E94251F05
:1042F000DBCF8091B4028111F2CF8091B6028F7032
:104300002FEF280F263080F68093E9002091EB00F4
:1043100020FFE5CF933031F48091EB0080628093F1
:10432000EB00DDCF9091EB0090619093EB0021E0EA
:1043300030E001C0220F8A95EAF72093EA0010923C
:10434000EA008091EB008860EACF8111ADCF109137
:10435000B4021F778091E3008078812B8093E30083
:104360008091E800877F8093E8000E94251F80915C
:10437000E80080FFFCCF8091E30080688093E30039
:1043800083E0111101C082E08093B1028DCF80588B
:10439000823008F089CF8091B4029091B5028C3DB3
:1043A00023E09207A1F583E08A838AE289834FB7ED
:1043B000F894DE01139620E03EE051E2E32FF0E0B6
:1043C00050935700E49120FF03C0E295EF703F5FE8
:1043D000EF708E2F90E0EA30C0F0C7968D939D93DA
:1043E0002F5F243159F74FBF8091E800877F80937A
:1043F000E8006AE270E0CE0101960E94321E8091D0
:10440000E8008B778093E8004FCFC096E7CF6091AC
:10441000B6027091B702AE014F5F5F4F0E94221D3E
:10442000BC01892B09F440CF9091E800977F9093CD
:10443000E80089819A810E94911EE1CF803809F0BD
:1044400033CF8091E800877F8093E8008091AD02B0
:104450008093F1001ECF811127CF9091B40292304A
:1044600008F022CF8091E800877F8093E800909346
:10447000AD020E94251F8091AD02882331F084E0B7
:104480008093B1020E94FC1B0FCF8091E30087FD57
:10449000F6CF81E0F5CF0895CF938091B1028823C4
:1044A00099F0C091E900CF708091EC0080FD0EC0C2
:1044B00080E0C82B1092E9008091E80083FD0E9403
:1044C000FB20CF70C093E900CF91089580E8F1CF31
:1044D000EE0FFF1F0590F491E02D099469279627B0
:1044E000692778278727782708952F923F924F9240
:1044F0005F926F927F928F929F92AF92BF92CF9274
:10450000DF92EF92FF920F931F93CF93DF93CDB77C
:10451000DEB7CA1BDB0B0FB6F894DEBF0FBECDBFF4
:1045200009942A88398848885F846E847D848C84C5
:104530009B84AA84B984C884DF80EE80FD800C81CE
:104540001B81AA81B981CE0FD11D0FB6F894DEBFB1
:104550000FBECDBFED010895FB01DC0104C08D91BC
:104560000190801921F441505040C8F7881B990BE5
:104570000895FB01DC0102C001900D9241505040B2
:10458000D8F70895F999FECF92BD81BDF89A992781
:1045900080B50895A8E1B0E042E050E00C94062315
:1045A000DC01A40FB51F4150504048F0CB01840FEF
:1045B000951F2E910E94E12241505040D0F708955E
:1045C000262FF999FECF92BD81BDF89A019700B4CC
:1045D000021639F01FBA20BD0FB6F894FA9AF99A6C
:1045E0000FBE08950396272F0E94E1220E94E02229
:1045F000252F0E94E122242F0C94E1220196272FDF
:104600000E94E1220C94E022DC01CB01FC01F9992B
:10461000FECF06C0F2BDE1BDF89A319600B40D920E
:0C46200041505040B8F70895F894FFCFC7
:10462C003E025E0203020100000100391A831B7C6A
:10463C001B501B751BE200E900EA00B500B600B781
:10464C0000CD008301CC008A019201940121022348
:10465C000224022502260227022A02B300B4006FAC
:10466C000070009F01CB019F02A002818283E200B7
:10467C00E900EA00B500B600B700CD008301CC001C
:10468C008A019201940121022302240225022602AE
:10469C0027022A02B300B4006F0070009F01CB0107
:1046AC009F02A00281828390F6F7676636353497B5
:1046BC00969495939291333231303744226DE004C5
:0A46CC0051047304F6030F042F04D9
:00000001FF
